:0400000055EF3BF08D
:1000080000C019F001C018F004C017F008C016F0BD
:100018000CC015F0F2A432D00301FB2B8088010E2E
:100028000501966F190E0301F95D03E3F96BFA6B8D
:1000380001D0F92B190E0801FD5D04E3FD6B0301E6
:10004800FE6B02D00801FD2B190E0301FB5D11E3C5
:10005800FB6B010E08019A27000E9B239C239D230E
:100068009E53010ED8A4000E9E6F8098010E0501C4
:10007800616FF30ED76ECA0ED66EF294F0A017D049
:100088000301FA51000A03E1FA2BF96B01D0FA2BAC
:10009800050EFA5D0BE3130EF95D07E3F951150838
:1000A80004E3010EFF6FFA6B01D0FA6BF090F0A237
:1000B8001ED00301FE51000A04E1FE2B0801FD6B6E
:1000C80002D00301FE2B0301050EFE5D0FE3130EA4
:1000D8000801FD5D09E3FD51150806E3010E040161
:1000E800006F0301FE6B02D00301FE6BF092F2A2D7
:1000F80004D0CC6ACA849D82F2929EA252D0030197
:10010800FC2BFC51FF0A02E1020EFC6F030E046E89
:10011800FCC300F088D808C000F00050010A26E1AE
:100128000801EC5310E00601D35302E081860BD09E
:10013800000E006E09016451005C03E16351030184
:10014800FD5DD8B081960801EA5310E00501FD5322
:1001580002E081880BD0000E006E09016851005C36
:1001680003E167510301FD5DD8B08198030E046E69
:10017800FCC300F058D808C000F00050000A0EE197
:100188000301FD2B0A0EFD5D02E3010EFD6F080160
:10019800EC53D8A48186EA53D8A48188CA949D9246
:1001A8009E9219C000F018C001F017C004F016C0E4
:0801B80008F015C00CF0110065
:1001C00044CAC9FFC7B002D00000FCD7C9CF00F0B5
:0201D00012001B
:0E01D200ACB202D00000FCD744CAADFF120050
:1001E000086A096A100E0C6E01340836093604508C
:1001F000085E0550D8A0053C095ED8B007D0045071
:1002000008260550D8B0053C0926D890003601369E
:060210000C2EEAD71200DB
:10021600F250026EF29E0500FF6A0150FE6E00501B
:08022600FD6E02BEF28E120013
:10022E00086A080E0C6E003408360450085ED8B00A
:0E023E0002D00826D89000360C2EF5D71200FC
:10024C000A01416B050E415D0AE241513F25E16E09
:10025C00000E4021E26E200EE66E412BF3D7415189
:10026C003F25E16E000E4021E26EE66A41074151E6
:10027C003F25426F000E4021436F0A0E046E000EA4
:10028C00056E3DCA00F03ECA01F0A4DF08C000F0C4
:10029C0009C001F0300E002642CAE1FF43CAE2FF5A
:1002AC0000C0E6FF0A0E046E000E056E3DCA00F09B
:1002BC003ECA01F08FDF00C03DFA01C03EFA000ECD
:1002CC00011802E1000E001801E102D04107CFD75E
:0202DC0012000E
:1002DE000FC9E1FF10C9E2FF3DCAE6FF0DC900F0EC
:0802EE000EC901F091DF1200BE
:1002F6003FCA04F040CA05F03DCA02F03ECA03F008
:1003060041CA00F042CA01F0010E0A01415F000E27
:10031600425B005001100FE004C0E9FF05C0EAFF90
:1003260002C0E1FF03C0E2FFEECFE6FF024A032A66
:10033600044A052AE5D73DCA00F03ECA01F012007C
:100346000B6A0A6A096A086A0E6A03340836045098
:10035600085E0550D8A0053C095E0650D8A0063CAC
:100366000A5E0750D8A0073C0B5EE86AD8A0010ECB
:100376000E5E0336070E0C6E0334083609360A364F
:100386000B360E36045003A012D0085E0550D8A0D6
:10039600053C095E0650D8A0063C0A5E0750D8A068
:1003A600073C0B5EE86AD8A0010E0E5E11D0082647
:1003B6000550D8B0053C09260650D8B0063C0A269A
:1003C6000750D8B0073C0B26E86AD8B0010E0E26B7
:1003D60003360C2ED1D70234083609360A360B36C8
:1003E6000E36045003A012D0085E0550D8A0053C76
:1003F600095E0650D8A0063C0A5E0750D8A0073C06
:100406000B5EE86AD8A0010E0E5E11D008260550D4
:10041600D8B0053C09260650D8B0063C0A26075037
:10042600D8B0073C0B26E86AD8B0010E0E26023675
:10043600070E0C6E0234083609360A360B360E36AF
:10044600045002A012D0085E0550D8A0053C095EF3
:100456000650D8A0063C0A5E0750D8A0073C0B5EA3
:10046600E86AD8A0010E0E5E11D008260550D8B055
:10047600053C09260650D8B0063C0A260750D8B0D7
:10048600073C0B26E86AD8B0010E0E2602360C2E63
:10049600D1D70134083609360A360B360E360450E3
:1004A60002A012D0085E0550D8A0053C095E065091
:1004B600D8A0063C0A5E0750D8A0073C0B5EE86A47
:1004C600D8A0010E0E5E11D008260550D8B0053C06
:1004D60009260650D8B0063C0A260750D8B0073C75
:1004E6000B26E86AD8B0010E0E260136070E0C6EF2
:1004F6000134083609360A360B360E36045001A08A
:1005060012D0085E0550D8A0053C095E0650D8A05A
:10051600063C0A5E0750D8A0073C0B5EE86AD8A0E6
:10052600010E0E5E11D008260550D8B0053C0926EE
:100536000650D8B0063C0A260750D8B0073C0B2612
:10054600E86AD8B0010E0E2601360C2ED1D700343B
:10055600083609360A360B360E36045001A012D07C
:10056600085E0550D8A0053C095E0650D8A0063C9A
:100576000A5E0750D8A0073C0B5EE86AD8A0010EB9
:100586000E5E11D008260550D8B0053C0926065047
:10059600D8B0063C0A260750D8B0073C0B26E86AB6
:1005A600D8B0010E0E260036070E0C6E0034083643
:1005B60009360A360B360E36045000A012D0085EF5
:1005C6000550D8A0053C095E0650D8A0063C0A5E38
:1005D6000750D8A0073C0B5EE86AD8A0010E0E5E55
:1005E60011D008260550D8B0053C09260650D8B0CB
:1005F600063C0A260750D8B0073C0B26E86AD8B056
:10060600010E0E2600360C2ED1D700B00ED00450A7
:1006160008260550D8B0053C09260650D8B0063C39
:0C0626000A260750D8B0073C0B26120033
:100632000A01406B030E405D0AE240513E25E16E25
:10064200000E3F21E26E200EE66E402BF3D74051A2
:100652003E25E16E000E3F21E26EE66A4007405100
:100662003E25416F000E3F21426F0A0E046E3DCAC5
:1006720000F0DCDD08C000F0300E002641CAE1FFC8
:1006820042CAE2FF00C0E6FF0A0E046E3DCA00F055
:10069200CDDD00C03DFA0050000A01E102D0400762
:0406A200DED712008D
:1006A600A6A202D00000FCD7A69C3ECAAAFF3DCA5D
:1006B600A9FF3FCAA8FFA69EA684F2CF00F0F29E2D
:1006C600550EA76EAA0EA76EA68200BE02D0F29E97
:0806D60001D0F28EA69412007F
:1006DE005ED009016D6B6E6B8BD00901E00E6D6FF4
:1006EE00010E6E6F85D00901EA0E6D6F010E6E6FF1
:1006FE007FD00901F40E6D6F010E6E6F79D0090176
:10070E00120E6D6F020E6E6F73D00901260E6D6F95
:10071E00020E6E6F6DD009013A0E6D6F020E6E6F86
:10072E0067D00901580E6D6F020E6E6F61D0090110
:10073E00760E6D6F020E6E6F5BD009018A0E6D6FB5
:10074E00020E6E6F55D009019E0E6D6F020E6E6F0A
:10075E004FD00901BC0E6D6F020E6E6F49D00901AC
:10076E00EE0E6D6F020E6E6F43D00901200E6D6F8F
:10077E00030E6E6F3DD00901520E6D6F030E6E6F3C
:10078E0037D00901840E6D6F030E6E6F31D00A01E2
:10079E003D51000A9EE03D51010A9FE03D51020A83
:1007AE00A2E03D51030AA5E03D51040AA8E03D51E7
:1007BE00050AABE03D51060AAEE03D51070AB1E035
:1007CE003D51080AB4E03D51090AB7E03D510A0A0D
:1007DE00BAE03D510B0ABDE03D510C0AC0E03D515F
:1007EE000D0AC3E03D510E0AC6E03D510F0AC9E0A5
:1007FE0042D0640E09016F6F000E706F5ED009015A
:10080E00F40E6F6F010E706F58D00901E80E6F6F06
:10081E00030E706F52D00901DC0E6F6F050E706FF4
:10082E004CD00901D00E6F6F070E706F46D00901C4
:10083E00C40E6F6F090E706F40D00901B80E6F6F46
:10084E000B0E706F3AD00901AC0E6F6F0D0E706FFC
:10085E0034D00901A00E6F6F0F0E706F2ED00901EC
:10086E00940E6F6F110E706F28D00901880E6F6F86
:10087E00130E706F22D00A013E51000ABAE03E51AB
:10088E00010ABDE03E51020AC0E03E51030AC3E038
:10089E003E51040AC6E03E51050AC9E03E51060A21
:1008AE00CCE03E51070ACFE03E51080AD2E03E515D
:1008BE00090AD5E03E510A0AD8E05ED00901716BF3
:1008CE00726B8BD00901E00E716F010E726F85D0C5
:1008DE000901EA0E716F010E726F7FD00901F40EDD
:1008EE00716F010E726F79D00901120E716F020EC7
:1008FE00726F73D00901260E716F020E726F6DD07A
:10090E0009013A0E716F020E726F67D00901580E0F
:10091E00716F020E726F61D00901760E716F020E49
:10092E00726F5BD009018A0E716F020E726F55D015
:10093E0009019E0E716F020E726F4FD00901BC0E2F
:10094E00716F020E726F49D00901EE0E716F020EB9
:10095E00726F43D00901200E716F030E726F3DD07E
:10096E000901520E716F030E726F37D00901840E9A
:10097E00716F030E726F31D00A013F51000A9EE073
:10098E003F51010A9FE03F51020AA2E03F51030A84
:10099E00A5E03F51040AA8E03F51050AABE03F51E4
:1009AE00060AAEE03F51070AB1E03F51080AB4E033
:1009BE003F51090AB7E03F510A0ABAE03F510B0A0C
:1009CE00BDE03F510C0AC0E03F510D0AC3E03F515C
:1009DE000E0AC6E03F510F0AC9E042D0640E09016B
:1009EE005D6F000E5E6F5ED00901F40E5D6F010E3D
:1009FE005E6F58D00901E80E5D6F030E5E6F52D028
:100A0E000901DC0E5D6F050E5E6F4CD00901D00E34
:100A1E005D6F070E5E6F46D00901C40E5D6F090E45
:100A2E005E6F40D00901B80E5D6F0B0E5E6F3AD04F
:100A3E000901AC0E5D6F0D0E5E6F34D00901A00E74
:100A4E005D6F0F0E5E6F2ED00901940E5D6F110E4D
:100A5E005E6F28D00901880E5D6F130E5E6F22D077
:100A6E000A014051000ABAE04051010ABDE040516E
:100A7E00020AC0E04051030AC3E04051040AC6E036
:100A8E004051050AC9E04051060ACCE04051070A20
:100A9E00CFE04051080AD2E04051090AD5E040515A
:060AAE000A0AD8E0120064
:100AB4000A013A6B0A0E3A5D0AE23A513825E16EB0
:100AC400000E3921E26E300EE66E3A2BF3D73A511E
:100AD4003825E16E000E3921E26EE66A3A07000E0F
:100AE400006E371908E10050361905E10050351938
:100AF40002E13451000A3FE03A5138253B6F000EC1
:100B040039213C6F0A0E046E000E056E066E076EE8
:100B140034CA00F035CA01F036CA02F037CA03F00D
:100B240010DC08C000F009C001F00AC002F00BC0DC
:100B340003F0300E00263BCAE1FF3CCAE2FF00C0CE
:100B4400E6FF3A070A0E046E000E056E066E076E87
:100B540034CA00F035CA01F036CA02F037CA03F0CD
:100B6400A3EC01F000C034FA01C035FA02C036FA31
:080B740003C037FAB4D71200E8
:100B7C000B6A0A6A096A00500402F4CF09F0F3CF39
:100B8C0008F001500502F4CF0BF0F3CF0AF000503F
:100B9C000502F3500926F4500A22E86A0B22015090
:100BAC000402F3500926F4500A22E86A0B2208C00A
:100BBC0000F009C001F00AC002F00BC003F01200F3
:100BCC0034CA3DFA0A013D333D9F35CA3EFA36CA56
:100BDC003FFA29DD010E3415016E0150010A11E1B5
:100BEC00030E35253D6F000E36213E6FAC0E3F6F68
:100BFC00000E406F040E416F000E426F7BEC01F053
:100C0C0010D0030E35253D6F000E36213E6FB00E11
:100C1C003F6F000E406F040E416F000E426F7BEC75
:040C2C0001F01200C1
:0A0C3000490E0D6E0D2EFED71200C6
:100C3A000A01376B34CAE9FF35CAEAFFEECF36FA42
:100C4A003651000A0FE036CA3DFA6FEC01F00A018C
:100C5A00372B37513425E96E000E3521EA6EEECF77
:060C6A0036FAEED712007D
:100C7000010E0A013D6F000E3E6F5CC93FFA13DDA5
:100C8000020E0A013D6F000E3E6F5BC93FFA0BDD9D
:100C9000030E0A013D6F000E3E6F61C93FFA03DD8E
:100CA000040E0A013D6F000E3E6F60C93FFAFBDC87
:100CB000050E0A013D6F000E3E6F5FC93FFAF3DC7F
:100CC000060E0A013D6F000E3E6F5AC93FFAEBDC7B
:100CD000070E0A013D6F000E3E6F56C93FFAE3DC76
:100CE000080E0A013D6F000E3E6F55C93FFADBDC6E
:100CF000090E0A013D6F000E3E6F54C93FFAD3DC66
:100D00000A0E0A013D6F000E3E6F59C93FFACBDC57
:100D10000B0E0A013D6F000E3E6F58C93FFAC3DC4F
:100D20000C0E0A013D6F000E3E6FD1C63FFABBDCD0
:100D30000D0E0A013D6F000E3E6F57C93FFAB3DC3E
:100D40000E0E0A013D6F000E3E6F62C93FFAABDC2A
:100D50000F0E0A013D6F000E3E6F6CC93FFAA3DC17
:100D6000100E0A013D6F000E3E6F6BC93FFA9BDC0F
:100D7000110E0A013D6F000E3E6F6AC93FFA93DC07
:100D8000120E0A013D6F000E3E6F69C93FFA8BDCFF
:100D9000130E0A013D6F000E3E6FD2C63FFA83DC90
:100DA000140E0A013D6F000E3E6F65C93FFA7BDCF1
:100DB000150E0A013D6F000E3E6F63C93FFA73DCEA
:100DC000160E0A013D6F000E3E6F67C93FFA6BDCDD
:100DD000170E0A013D6F000E3E6F66C93FFA63DCD5
:100DE000D1C63DFA69C93EFAD2C63FFA65C940FA92
:040DF00076DC12009B
:100DF400C7B409D01F0EC514016E0150000A03E1E7
:0A0E0400010E006E01D0006A12001A
:100E0E0034CA3DFA35CA3EFA0A013E333D333E9F9F
:100E1E0036CA3FFA37CA40FA26EC01F0010E3415F5
:100E2E00016E35CA02F0000E0216000E021802E123
:100E3E00010E011811E1050E36253D6F000E37210A
:100E4E003E6FA40E3F6F000E406F040E416F000EFA
:100E5E00426F7BEC01F010D0050E36253D6F000E73
:100E6E0037213E6FA80E3F6F000E406F040E416F8C
:0A0E7E00000E426F7BEC01F0120041
:100E88000A01376B34CAE9FF35CAEAFFEECF36FAF2
:100E98003651000A0FE036CA44FAE9EC00F00A01BC
:100EA800372B37513425E96E000E3521EA6EEECF27
:060EB80036FAEED712002D
:100EBE00A69C35CAAAFF34CAA9FFA69EA680A8CFB3
:040ECE0000F012001E
:100ED20026CA3DFA0A013D333D9F27CA3EFA28CA77
:100EE2003FFA19EC03F0030E27253D6F000E28216F
:100EF2003E6F9F0E3F6F080E406F040E416F000E53
:080F0200426F7BEC01F01200CC
:100F0A00010E0A012625016E000E2721026E01C07C
:100F1A00E9FF02C0EAFF0A0EEE24006E01C0E1FFFB
:100F2A0002C0E2FF00C0E6FF030E2625016E000E96
:100F3A002721026E01C0E9FF02C0EAFF0A0EEE2471
:100F4A00006E01C0E1FF02C0E2FF00C0E6FF26CA50
:100F5A00E9FF27CAEAFFEECF00F026CAE1FF27CA57
:100F6A00E2FF0A0E0024E66E020E2625016E000E2E
:100F7A002721026E01C0E9FF02C0EAFF0A0EEE2431
:100F8A00006E01C0E1FF02C0E2FF00C0E6FF040EEE
:100F9A002625E16E000E2721E26E040EE66E060E8D
:100FAA002625E16E000E2721E26E040EE66E080E7B
:100FBA002625E16E000E2721E26E040EE66E0A0E69
:100FCA002625E16E000E2721E26E040EE66E050E5E
:100FDA002625E16E000E2721E26E0A0EE66E090E44
:100FEA002625E16E000E2721E26E0A0EE66E070E36
:100FFA002625E16E000E2721E26E0A0EE66E0B0E22
:10100A002625E16E000E2721E26E0A0EE66E120018
:10101A000A012B6B140E2B5D6DE2070E006E000E9B
:10102A00016E2BCA04F0000E056EA3DD7F0E0026AA
:10103A00090E0122050E0024E96E000E0120EA6E57
:10104A00EE50010A55E1070E006E000E016E2BCA22
:10105A0004F0000E056E8DDD7F0E0024E16E090E90
:10106A000120E26E2ACAE6FF070E006E000E016E2C
:10107A002BCA04F0000E056E7CDD7F0E0026090ED9
:10108A000122010E0024E16E000E0120E26E26CA42
:10109A00E6FF27CAE6FF28CAE6FF29CAE6FF070EC7
:1010AA00006E000E016E2BCA04F0000E056E61DDA3
:1010BA007F0E0026090E0122050E0024E16E000EA5
:1010CA000120E26EE66A070E006E000E016E2BCA60
:1010DA0004F0000E056E4DDD7F0E0026090E01227A
:1010EA00060E0024E16E000E0120E26EE66A02D0CE
:0610FA002B2B90D7120021
:10110000010E0A012625E96E000E2721EA6EEECFB8
:101110005CF926CAE9FF27CAEAFFEECF61F9285138
:10112000020AD8A485D0030E2625E96E000E2721D9
:10113000EA6EEECF5BF9020E2625E96E000E27213E
:10114000EA6EEECF60F9040E2625E96E000E272127
:10115000EA6E080E2625D96E000E2721DA6EDE50C3
:10116000EE24036E046A000E042203C000F004C0E3
:1011700001F001320032019E01BC018E00C05AF91B
:10118000050E2625E96E000E2721EA6E090E26259A
:10119000D96E000E2721DA6EDE50EE24036E046A4B
:1011A000000E042203C000F004C001F0013200323E
:1011B000019E01BC018E00C056F9060E2625E96E7F
:1011C000000E2721EA6E0A0E2625D96E000E272171
:1011D000DA6EDE50EE24036E046A000E042203C0B1
:1011E00000F004C001F001320032019E01BC018E0A
:1011F00000C055F9070E2625E96E000E2721EA6E7C
:101200000B0E2625D96E000E2721DA6EDE50EE2455
:10121000036E046A000E042203C000F004C001F053
:1012200001320032019E01BC018E00C054F924D06D
:1012300009015B6B606B040E0A012625E96E000E46
:101240002721EA6EEECF5AF9050E2625E96E000E2B
:101250002721EA6EEECF56F9060E2625E96E000E1E
:101260002721EA6EEECF55F9070E2625E96E000E0E
:0C1270002721EA6EEECF54F9FBDC1200DF
:10127C0009014C510A01261905E109014C6B010EBB
:10128C00006E15D009014D510A01261905E109011D
:10129C004D6B010E006E0BD009014E510A0126193F
:1012AC0005E109014E6B010E006E01D0006A1200BF
:1012BC000A01266B140E265D48E2070E006E000E26
:1012CC00016E26CA04F0000E056E52DC7F0E00265D
:1012DC00090E0122050E0024E96E000E0120EA6EB3
:1012EC00EE50000A30E1070E006E000E016E26CAA9
:1012FC0004F0000E056E3CDC7F0E0024E96E090E36
:10130C000120EA6EEECF01F00150090A1CE1070E34
:10131C00006E000E016E26CA04F0000E056E28DC6D
:10132C007F0E0026090E0122010E0024E96E000E2C
:10133C000120EA6EEECF27FAEECF28FAEECF29FA8B
:10134C00EECF2AFA02D0262BB5D7140E265D02E377
:10135C00266B05D008019A510A01275D266F26CA13
:04136C0000F012007B
:101370000A01266B276B2751120802E126518E08BD
:1013800008E338DD005201E004D00A01264B272B88
:10139000F2D70A01120E275D02E18F0E265D03E3EC
:1013A0007B0E006E05D0C580C5A001D0FDD7006AB8
:0213B000120029
:1013B2000A01285318E09AC834FA9BC835FA9CC827
:1013C20036FA9DC837FA290E386F0A0E396F5AEC71
:1013D20005F0290E346F0A0E356F2EDCAE0E346F17
:1013E200070E356F50DD26CA34FA27CA35FA4BDDAF
:1013F2000D0E446FE9EC00F00A0E0A01446FE9ECAD
:0414020000F01200E4
:10140600C26A070EC012C08E26CA00F000360090CF
:10141600003600900050C212C28007DCC282C2A20F
:1014260001D0FDD7C4CF01F0006AC3500012000EF0
:061436000112C290120039
:10143C000A01276B140E275D44E2070E006E000EA6
:10144C00016E27CA04F0000E056EBEEC05F07F0E8F
:10145C000026090E0122050E0024E96E000E012063
:10146C00EA6EEE50000A2BE1070E006E000E016EC4
:10147C0027CA04F0000E056EBEEC05F07F0E0024AA
:10148C00E96E090E0120EA6EEECF01F0015026192B
:10149C0016E0070E006E000E016E27CA04F0000E57
:1014AC00056EBEEC05F07F0E0026090E0122050E1E
:1014BC000024E16E000E0120E26E010EE66E272B79
:0414CC00B9D712007A
:1014D0000A01266B140E265D53E2070E006E000E05
:1014E000016E26CA04F0000E056EBEEC05F07F0EFC
:1014F0000026090E0122050E0024E96E000E0120CF
:10150000EA6EEE50000A3AE1070E006E000E016E20
:1015100026CA04F0000E056EBEEC05F07F0E002416
:10152000E96E090E0120EA6EEECF01F00150090AC2
:1015300025E1070E006E000E016E26CA04F0000EB3
:10154000056EBEEC05F07F0E0026090E0122010E8D
:101550000024E96E000E0120EA6EEECF27FAEECFEE
:1015600028FAEECF29FAEECF2AFA050E0024E16E12
:10157000000E0120E26E010EE66E02D0262BAAD7E5
:1015800008019A510A01275D016E01C026FA140E66
:0C159000015CD8B0266B26CA00F01200E7
:10159C000A012651010A05E10601F96BFA6B0901F2
:1015AC0050910A012651020A05E10601D46BD56B54
:0615BC000901509312002A
:1015C200140E09015C6F140E616F140E5B6F140E22
:1015D200606F070E0601D16F020E0901696F070ED7
:1015E2000601D26F020E0901656F070E0A013D6FF7
:1015F200020E3E6F070E3F6F020E406F6FEC03F05C
:101602000A0E0901566F040E5A6F0A0E546F040E29
:10161200556F0C0E5F6F586B596B626B6C6B6B6B1B
:0C162200576B6A6B666B38EC06F0120028
:10162E000A012651010A03E10801EC6B81960A01B9
:0E163E002651020A03E10801EA6B81981200AE
:10164C00010E0A01346F000E356F33DC00C05CF9FB
:10165C00020E346F000E356F2CDC00C05BF9030EEC
:10166C00346F000E356F25DC00C061F9040E346F49
:10167C00000E356F1EDC00C060F9050E346F000ED5
:10168C00356F17DC00C05FF9060E346F000E356F36
:10169C0010DC00C05AF9070E346F000E356F09DCF0
:1016AC0000C056F9080E346F000E356F02DC00C016
:1016BC0055F9090E346F000E356F5FEC07F000C062
:1016CC0054F90A0E346F000E356F5FEC07F000C052
:1016DC0058F9000E0901596F58C959F9586B0B0E7E
:1016EC000A01346F000E356F5FEC07F000500901F2
:1016FC005813000E59130C0E0A01346F000E356F7F
:10170C005FEC07F000C0D1F60D0E346F000E356F94
:10171C005FEC07F000C057F90E0E346F000E356FFA
:10172C005FEC07F000C062F90F0E346F000E356FDE
:10173C005FEC07F000C06CF9100E346F000E356FC3
:10174C005FEC07F000C06BF9110E346F000E356FB3
:10175C005FEC07F000C06AF9120E346F000E356FA3
:10176C005FEC07F000C069F9130E346F000E356F93
:10177C005FEC07F000C0D2F6140E346F000E356F1C
:10178C005FEC07F000C065F9150E346F000E356F75
:10179C005FEC07F000C063F9000E0901646F160ED0
:1017AC000A01346F000E356F5FEC07F000C067F96B
:1017BC00000E0901686F170E0A01346F000E356FA9
:1017CC005FEC07F000C066F9D1C63DFA69C93EFA74
:0E17DC00D2C63FFA65C940FA6FEC03F0120066
:1017EA00020E0501C96FFE0E0A013D6F050E3E6F1E
:1017FA00370E3F6F070E406F100E416F000E426F9B
:10180A007BEC01F00801EB51000A38E1200E0A01D5
:10181A003D6F060E3E6FD90E3F6F080E406F100ED9
:10182A00416F000E426F7BEC01F0010E0501CA6F99
:10183A0008011751000A0FE1FE0E0A013D6F050E5D
:10184A003E6FC20E3F6F070E406F100E416F000EC3
:10185A00426F7BEC01F008011751010A0FE1FE0EFD
:10186A000A013D6F050E3E6FD70E3F6F060E406FA1
:10187A00100E416F000E426F7BEC01F00801EB5134
:10188A00010A1BE1200E0A013D6F060E3E6FE80EAB
:10189A003F6F060E406F100E416F000E426F7BECD9
:1018AA0001F0010E0501CA6F5CC934FA040E0A017F
:1018BA00356F060E366FE6EC05F00801EB51020AA9
:1018CA001BE1200E0A013D6F060E3E6FE40E3F6FCC
:1018DA00070E406F100E416F000E426F7BEC01F055
:1018EA00010E0501CA6F5BC934FA040E0A01356F8D
:1018FA00060E366FE6EC05F00801EB51030A1BE110
:10190A00200E0A013D6F060E3E6FD30E3F6F070E83
:10191A00406F100E416F000E426F7BEC01F0010E1A
:10192A000501CA6F61C934FA040E0A01356F060E41
:10193A00366FE6EC05F00801EB51040A1BE1200EB4
:10194A000A013D6F060E3E6F8C0E3F6F070E406F09
:10195A00100E416F000E426F7BEC01F0010E050183
:10196A00CA6F60C934FA040E0A01356F060E366F63
:10197A00E6EC05F00801EB51050A1BE1200E0A010D
:10198A003D6F060E3E6F9D0E3F6F070E406F100EA5
:10199A00416F000E426F7BEC01F0010E0501CA6F28
:1019AA005AC934FA040E0A01356F060E366FE6EC90
:1019BA0005F00801EB51060A1BE1200E0A013D6FF2
:1019CA00060E3E6F7B0E3F6F070E406F100E416F83
:1019DA00000E426F7BEC01F0010E0501CA6F56C979
:1019EA0034FA040E0A01356F060E366FE6EC05F07E
:1019FA000801EB51070A1BE1200E0A013D6F060E92
:101A0A003E6FB10E3F6F070E406F100E416F000E12
:101A1A00426F7BEC01F0010E0501CA6F55C934FA19
:101A2A00040E0A01356F060E366FE6EC05F0080162
:101A3A00EB51080A1BE1200E0A013D6F060E3E6FAC
:101A4A00F50E3F6F070E406F100E416F000E426F8A
:101A5A007BEC01F0010E0501CA6F54C934FA040E79
:101A6A000A01356F060E366FE6EC05F00801EB51F8
:101A7A00090A1BE1200E0A013D6F060E3E6F060E93
:101A8A003F6F080E406F100E416F000E426F7BECE5
:101A9A0001F0010E0501CA6F63C93DFA040E0A017D
:101AAA003E6F060E3F6F19EC03F00801EB510A0A6C
:101ABA001BE1200E0A013D6F060E3E6FA90E3F6F15
:101ACA00050E406F100E416F000E426F7BEC01F065
:101ADA00010E0501CA6F67C93DFA040E0A013E6F7D
:101AEA00060E3F6F19EC03F00801EB510B0A3EE1B9
:101AFA00200E0A013D6F060E3E6F9D0E3F6F020ECD
:101B0A00406F100E416F000E426F7BEC01F0010E28
:101B1A000501CA6FD1C63DFA010E0A013E6F060ED3
:101B2A003F6F19EC03F00601D151070810E2050EC8
:101B3A000A013D6F060E3E6FAE0E3F6F020E406FFA
:101B4A00060E416F000E426F7BEC01F00FD00A01C6
:101B5A00050E3D6F060E3E6F850E3F6F020E406FFB
:101B6A00060E416F000E426F7BEC01F00801EB514B
:101B7A000C0A3EE1200E0A013D6F060E3E6F8C0EE6
:101B8A003F6F020E406F100E416F000E426F7BECEA
:101B9A0001F0010E0501CA6FD2C63DFA010E0A0113
:101BAA003E6F060E3F6F19EC03F00601D25107088B
:101BBA0010E2050E0A013D6F060E3E6FD70E3F6F0B
:101BCA00020E406F060E416F000E426F7BEC01F071
:101BDA000FD00A01050E3D6F060E3E6FDE0E3F6FF7
:101BEA00020E406F060E416F000E426F7BEC01F051
:101BFA000801EB510D0A1BE1200E0A013D6F060E8A
:101C0A003E6FB50E3F6F020E406F100E416F000E11
:101C1A00426F7BEC01F0010E0501CA6F69C934FA03
:101C2A00040E0A01356F060E366FE6EC05F0080160
:101C3A00EB510E0A1BE1200E0A013D6F060E3E6FA4
:101C4A00C60E3F6F020E406F100E416F000E426FBC
:101C5A007BEC01F0010E0501CA6F65C934FA040E66
:101C6A000A01356F060E366FE6EC05F00801EB51F6
:101C7A000F0A1BE1200E0A013D6F060E3E6F390E58
:101C8A003F6F020E406F100E416F000E426F7BECE9
:101C9A0001F0010E0501CA6F5FC934FA040E0A0188
:101CAA00356F060E366FE6EC05F00801EB51100AA7
:101CBA001DE1200E0A013D6F060E3E6F4A0E3F6F70
:101CCA00020E406F100E416F000E426F7BEC01F066
:101CDA00010E0501CA6F58C934FA59C935FA020EFC
:101CEA000A01366F060E376F07EC07F00801EB5151
:101CFA00110A12E1200E0A013D6F060E3E6F170E01
:101D0A003F6F020E406F100E416F000E426F7BEC68
:101D1A0001F0010E0501CA6F0801EB51120A35E103
:101D2A00200E0A013D6F060E3E6F280E3F6F020E0F
:101D3A00406F100E416F000E426F7BEC01F0010EF6
:101D4A000501CA6F09016C51000A10E1040E0A016B
:101D5A003D6F060E3E6F740E3F6F020E406F070E08
:101D6A00416F000E426F7BEC01F00FD00A01040EA6
:101D7A003D6F060E3E6F7C0E3F6F020E406F080EDF
:101D8A00416F000E426F7BEC01F00801EB51130A20
:101D9A0035E1200E0A013D6F060E3E6F5B0E3F6F66
:101DAA00020E406F100E416F000E426F7BEC01F085
:101DBA00010E0501CA6F09016B51000A10E1040EF8
:101DCA000A013D6F060E3E6F6C0E3F6F020E406FAA
:101DDA00070E416F000E426F7BEC01F00FD00A0133
:101DEA00040E3D6F060E3E6FE50E3F6F020E406F0A
:101DFA00080E416F000E426F7BEC01F00801EB51B7
:101E0A00140A35E1200E0A013D6F060E3E6FA70E39
:101E1A003F6F030E406F100E416F000E426F7BEC56
:101E2A0001F0010E0501CA6F09016A51000A10E1A9
:101E3A00040E0A013D6F060E3E6FB80E3F6F030E89
:101E4A00406F070E416F000E426F7BEC01F00FD01E
:101E5A000A01040E3D6F060E3E6F8C0E3F6F030E95
:101E6A00406F080E416F000E426F7BEC01F00801D3
:101E7A00EB51150A35E1200E0A013D6F060E3E6F41
:101E8A00950E3F6F030E406F100E416F000E426FAA
:101E9A007BEC01F0010E0501CA6F09016651000AC7
:101EAA0010E1040E0A013D6F060E3E6FD90E3F6F18
:101EBA00030E406F070E416F000E426F7BEC01F07C
:101ECA000FD00A01040E3D6F060E3E6FE10E3F6F02
:101EDA00030E406F080E416F000E426F7BEC01F05B
:101EEA000801EB51160A35E1200E0A013D6F060E74
:101EFA003E6FC00E3F6F030E406F100E416F000E13
:101F0A00426F7BEC01F0010E0501CA6F09016251B3
:101F1A00000A10E1040E0A013D6F060E3E6FD10E53
:101F2A003F6F030E406F070E416F000E426F7BEC4E
:101F3A0001F00FD00A01040E3D6F060E3E6F100E1F
:101F4A003F6F030E406F080E416F000E426F7BEC2D
:101F5A0001F00801EB51170A1BE1200E0A013D6F3F
:101F6A00060E3E6F190E3F6F030E406F100E416F43
:101F7A00000E426F7BEC01F0010E0501CA6F57C9D2
:101F8A0034FA040E0A01356F060E366FE6EC05F0D8
:101F9A000801EB51180A12E1200E0A013D6F060EE4
:101FAA003E6FEE0E3F6F020E406F100E416F000E35
:101FBA00426F7BEC01F0010E0501CA6F0801EB517B
:101FCA00190A12E1200E0A013D6F060E3E6FFF0E3E
:101FDA003F6F020E406F100E416F000E426F7BEC96
:101FEA0001F0010E0501CA6F650E0601836F12002A
:101FFA000A012651010A17E127B102D0829201D0C3
:10200A008282060E0B6E130E0C6EAD0E0D6E0D2E29
:10201A00FED70C2EFCD70B2EFAD700000000010EBB
:10202A000801EC6F81860A012651020A17E127B1DD
:10203A0002D0829001D08280060E0B6E130E0C6EB7
:10204A00AD0E0D6E0D2EFED70C2EFCD70B2EFAD729
:0E205A0000000000010E0801EA6F81881200EC
:102068000A012651000A04E02751000A01E002D0C3
:10207800F28801D0F29826CAD3F627CAFDF51200D5
:102088009E9626CAC9FFC7A401D0FDD79EB601D027
:10209800FDD7C5BC02D0006A03D0C584020E006E0D
:0220A800120024
:0420AA00C5841200D7
:1020AE0083A003D083A201D006D005019751640806
:1020BE00D8B0972B02D00501976B9751640805E2B3
:1020CE0083B003D0010E006E09D09751640805E26B
:0E20DE0083B203D0020E006E01D0006A120021
:1020EC000A011F6B83A81F8183AA1F831FCA00F0DC
:0220FC001200D0
:1020FE000A01206B83BA02D0208101D0209184B0D6
:10210E0002D0208301D0209383B802D0208501D045
:10211E002095050E05014B5D02E20A01206B0A01B6
:10212E002051000A20E104011351000A09E10901BE
:10213E00156B006B0401136B0A011F6B0801FF6B1B
:10214E0004011351010A0FE1050E05014E5D0BE36B
:10215E000901156B006B0401136B0A011F6B08015B
:10216E00FF6B05014B6B09011551010A0FE10401CB
:10217E00145105014C5D0AE3010E0801FF6F0501C4
:10218E004C6B190E0901005DD8A0002B0A012051DD
:10219E00000A26E004011351010A22E1090115513A
:1021AE00000A1EE1020E1125016E000E1221026EB2
:1021BE00000E1321036E000E1421046E08019D51B2
:1021CE00041808E19C51031805E19B51021802E125
:1021DE009A51011805E1010E0901156F05014C6BAD
:1021EE000A012051000A0AE004011351010A06E116
:1021FE0009011551000A02E10A011F6B0A01205163
:10220E00000A0FE004011351010A0BE109011551F7
:10221E00010A07E10A0120510801FF03F3CF1FFA5B
:10222E00FF6B0A012051000A12E004011351000A4B
:10223E000EE120CA1FFA010E136F9AC811F99BC83E
:10224E0012F99CC813F99DC814F905014E6B0A01C9
:10225E001F51000A03E0010E0601D66F1FCA00F0DF
:02226E0012005C
:102270000A01236B050E235D0AE223512125E16E3D
:10228000000E2221E26E300EE66E232BF3D723518F
:102290002125E16E000E2221E26EE66A2307000E80
:1022A000201902E1000E1F192CE023512125246F73
:1022B000000E2221256F0A0E046E000E056E1FCA45
:1022C00000F020CA01F0F0EC00F008C000F009C0F6
:1022D00001F0300E002624CAE1FF25CAE2FF00C04B
:1022E000E6FF23070A0E046E000E056E1FCA00F0FB
:1022F00020CA01F0F0EC00F000C01FFA01C020FA83
:04230000CED7120022
:0A23040038EC06F00601836B1200AE
:10230E000A011F6B266B03EC0AF000C047F901C0EF
:10231E0048F9010E0A01266F03EC0AF000C049F9D4
:10232E0001C04AF90501DB51000A03E10601F96B10
:10233E00FA6B06019551000A02E1D46BD56BD351AD
:10234E00000A1FE009016E51485D02E16D51475DC3
:10235E000AE2FF0E0601FA5D02E1FA0EF95D02E2F3
:10236E00F94BFA2B0DD00601000E006EFA51005CEF
:10237E0002E1F951000804E2010EF95F000EFA5B6A
:10238E0002D0F96BFA6BFA510901705D04E1060196
:10239E00F95109016F5D02E20A011F810501FD512C
:1023AE00000A1FE0090172514A5D02E17151495D57
:1023BE000AE2FF0E0601D55D02E1FA0ED45D02E2DD
:1023CE00D44BD52B0DD00601000E006ED551005CFE
:1023DE0002E1D451000804E2010ED45F000ED55B79
:1023EE0003D00601D46BD56BD55109015E5D04E1B6
:1023FE000601D45109015D5D02E20A011F831FCA65
:04240E0000F01200C8
:102412000A01206B216B3F0E1F15026E02C01FFACC
:10242200540E206F02C000F00032009E0032009E67
:102432000032009E0032009E540E0010206F700E7B
:10244200216F0F0E0214006E700E0010216FB8EC97
:1024520009F07C0E0A01266F16DE800E0A01266F35
:1024620012DE20CA26FA0FDE800E0A01266F0BDE6C
:1024720021CA26FA08DE18DE0D0E0C6EFB0E0D6E5A
:0E2482000D2EFED70C2EFCD70000000012001D
:10249000B8EC09F07C0E0A01266FF6DD800E0A0109
:1024A000266FF2DD0A011F51020A03E1380E266F82
:1024B000EBDD0A011F51010A03E1340E266FE4DD52
:1024C000800E0A01266FE0DD0A011F51020A03E1B6
:1024D000390E266FD9DD0A011F51010A03E1350EBD
:1024E000266FD2DD800E0A01266FCEDD1C0E0A019A
:1024F000266FCADD800E0A01266FC6DD720E0A0144
:10250000266FC2DD800E0A01266FBEDD550E0A0160
:10251000266FBADD800E0A01266FB6DD6C0E0A0149
:10252000266FB2DD800E0A01266FAEDD0C0E0A01A9
:10253000266FAADD800E0A01266FA6DD010E0A01B4
:10254000266FA2DD800E0A01266F9EDD060E0A01AF
:10255000266F9ADD800E0A01266F96DD020E0A01B3
:08256000266F92DDA2DD1200DE
:10256800949894968B988B9694889486C79EC79CCB
:06257800380EC66E1200D1
:10257E000A01236B246B1F51010A03E12051800FC6
:10258E00246F1F51020A03E12051C00F246FB8ECD3
:10259E0009F07C0E0A01266F70DD800E0A01266F8F
:1025AE006CDD24CA26FA69DD400E0A01266F65DD50
:1025BE000A0123512125E96E000E2221EA6EEE500A
:1025CE000A0A0FE0235110080CE323512125E96E6E
:1025DE00000E2221EA6EEECF26FA4FDD0A01232BE2
:1025EE00E7D75CDD0D0E0C6EFB0E0D6E0D2EFED7BD
:0A25FE000C2EFCD7000000001200B4
:10260800010E03018A6F09014BA323D003018A6BD2
:1026180008019E6B650E0601836FF5EC0BF008014F
:10262800EB51000A16E10901736B08011751000A02
:1026380006E1C80E0601836F010E03018B6F0801C6
:102648001751010A06E1C90E0601836F010E030145
:102658008B6F0801EB51000A18E109014BA109D061
:1026680008011751000805E21707F5EC0BF0660E94
:10267800836F09014BA509D0010E0801175D05E21A
:10268800172BF5EC0BF0660E836F0801EB51010A6E
:1026980016E109014BA108D05C51000805E25C076E
:1026A800F5EC0BF0660E836F09014BA508D0FF0E01
:1026B8005C5D05E25C2BF5EC0BF0660E836F0801A0
:1026C800EB51020A16E109014BA108D05B51000841
:1026D80005E25B07F5EC0BF0660E836F09014BA56D
:1026E80008D0FF0E5B5D05E25B2BF5EC0BF0660E88
:1026F800836F0801EB51030A16E109014BA108D0C9
:102708006151000805E26107F5EC0BF0660E836F76
:1027180009014BA508D0FF0E615D05E2612BF5ECC0
:102728000BF0660E836F0801EB51040A16E10901EC
:102738004BA108D06051000805E26007F5EC0BF0EA
:10274800660E836F09014BA508D0FF0E605D05E298
:10275800602BF5EC0BF0660E836F0801EB51050A50
:1027680016E109014BA108D05A51000805E25A07A1
:10277800F5EC0BF0660E836F09014BA508D0FF0E30
:102788005A5D05E25A2BF5EC0BF0660E836F0801D3
:10279800EB51060A16E109014BA108D05651000871
:1027A80005E25607F5EC0BF0660E836F09014BA5A1
:1027B80008D0FF0E565D05E2562BF5EC0BF0660EC1
:1027C800836F0801EB51070A16E109014BA108D0F4
:1027D8005551000805E25507F5EC0BF0660E836FBE
:1027E80009014BA508D0FF0E555D05E2552BF5EC08
:1027F8000BF0660E836F0801EB51080A16E1090118
:102808004BA108D05451000805E25407F5EC0BF031
:10281800660E836F09014BA508D0FF0E545D05E2D3
:10282800542BF5EC0BF0660E836F0801EB51090A87
:1028380022E109014BA110D0000E006E6451005C2A
:1028480002E16351010808E2010E635F000E645B58
:10285800F5EC0BF0660E836F09014BA50CD0000E4A
:10286800645D02E10A0E635D06E2634B642BF5ECDE
:102878000BF0660E836F0801EB510A0A22E1090189
:102888004BA110D0000E006E6851005C02E1675148
:10289800010808E2010E675F000E685BF5EC0BF0BB
:1028A800660E836F09014BA50CD0000E685D02E12E
:1028B8000A0E675D06E2674B682BF5EC0BF0660EB7
:1028C800836F0801EB510B0A18E109014BA109D0EC
:1028D8000601D151000805E2D107F5EC0BF0660EB0
:1028E800836F09014BA509D00F0E0601D15D05E2E2
:1028F800D12BF5EC0BF0660E836F0801EB510C0A37
:1029080018E109014BA109D00601D251000805E2DE
:10291800D207F5EC0BF0660E836F09014BA509D0C1
:102928000F0E0601D25D05E2D22BF5EC0BF0660E18
:10293800836F0801EB510D0A16E109014BA108D07C
:102948006951000805E26907F5EC0BF0660E836F24
:1029580009014BA508D00A0E695D05E2692BF5EC63
:102968000BF0660E836F0801EB510E0A16E10901A0
:102978004BA108D06551000805E26507F5EC0BF09E
:10298800660E836F09014BA508D00A0E655D05E246
:10299800652BF5EC0BF0660E836F0801EB510F0AFF
:1029A80016E109014BA108D05F51000805E25F0755
:1029B800F5EC0BF0660E836F09014BA508D0FF0EEE
:1029C8005F5D05E25F2BF5EC0BF0660E836F080187
:1029D800EB51100A22E109014BA110D0000E006E44
:1029E8005951005C02E15851000808E2010E585F95
:1029F800000E595BF5EC0BF0660E836F09014BA5D1
:102A08000CD0FD0E595D02E1E80E585D06E2584B08
:102A1800592BF5EC0BF0660E836F0801EB51110A88
:102A280022E10601836B200E0A013D6F060E3E6F00
:102A3800ED0E3F6F080E406F100E416F000E426F93
:102A48007BEC01F0010E0501C96F03018A6B0801D7
:102A58009E6B010E0501CA6F010E03018B6FE1EC3D
:102A68000AF038EC06F00801EB51120A16E10901E8
:102A78004BA108D06C51000805E26C07F5EC0BF08F
:102A8800660E836F09014BA508D0010E6C5D05E247
:102A98006C2BF5EC0BF0660E836F0801EB51130AF3
:102AA80016E109014BA108D06B51000805E26B073C
:102AB800F5EC0BF0660E836F09014BA508D0010EEB
:102AC8006B5D05E26B2BF5EC0BF0660E836F08016E
:102AD800EB51140A16E109014BA108D06A5100080C
:102AE80005E26A07F5EC0BF0660E836F09014BA54A
:102AF80008D0010E6A5D05E26A2BF5EC0BF0660E54
:102B0800836F0801EB51150A16E109014BA108D0A2
:102B18006651000805E26607F5EC0BF0660E836F58
:102B280009014BA508D0010E665D05E2662BF5ECA0
:102B38000BF0660E836F0801EB51160A16E10901C6
:102B48004BA108D06251000805E26207F5EC0BF0D2
:102B5800660E836F09014BA508D0010E625D05E280
:102B6800622BF5EC0BF0660E836F0801EB51170A28
:102B78001FE109014BA10CD05751000809E2570782
:102B88005751090AD8B4576BF5EC0BF0660E836FF2
:102B980009014BA50DD0FF0E575D0AE2572B57517F
:102BA800010A02E10A0E576FF5EC0BF0660E836F0F
:102BB8000801EB51180A1CE1670E0601836F200E0D
:102BC8000A013D6F060E3E6FED0E3F6F080E406F17
:102BD800100E416F000E426F7BEC01F003018A6B0F
:102BE800010E0501C96F010ECA6F010E03018B6F3B
:102BF8000801EB51190A1DE10601836B200E0A0139
:102C08003D6F060E3E6FED0E3F6F080E406F100EC3
:102C1800416F000E426F7BEC01F003018A6B010EDD
:102C28000501C96F010ECA6F26EC0BF0010E0301F6
:042C38008B6F12008C
:102C3C0009014BA326D0010E0601836F839E200E43
:102C4C000A013D6F060E3E6F5F0E3F6F080E406F20
:102C5C00100E416F000E426F7BEC01F0FE0E3D6FCB
:102C6C00050E3E6F500E3F6F050E406F100E416FFC
:102C7C00000E426F7BEC01F0020E0501C96F010ED4
:102C8C00CA6F7AD2838E09014FA106D0732B020E24
:102C9C003D6F010E0601D66F09014FA307D0030E3D
:102CAC00736F010E3D6F010E0601D66FBED2020E80
:102CBC000A01266F276BFDEC0FF0040E08019A2514
:102CCC000A01266F000E08019B210A01276F000ED6
:102CDC0008019C210A01286F000E08019D210A01A0
:102CEC00296F150E2A6F0DEC08F00901732B0601E4
:102CFC00956B9BD2090150A30CD006019551010A8A
:102D0C0008E1956B020E0A01266F17EC0BF0090116
:102D1C00732B150E0A01266F3EEC09F0005203E0EE
:102D2C00010E0601956F81D2010E0A01266F276BE9
:102D3C00FDEC0FF0040E08019A250A01266F000E17
:102D4C0008019B210A01276F000E08019C210A0132
:102D5C00286F000E08019D210A01296F140E2A6F9D
:102D6C000DEC08F00901732B0501DB6B090150A177
:102D7C000CD00501DB51010A08E1DB6B010E0A01E5
:102D8C00266F17EC0BF00901732B140E0A01266F3A
:102D9C003EEC09F0005203E0010E0501DB6F45D259
:102DAC0009014F51000A1AE09AC833F99BC834F94B
:102DBC009CC835F99DC836F9010E0A01266F010E23
:102DCC00276FFDEC0FF00A01266BFDC527FA34ECDA
:102DDC0010F0010E0501DA6F0901732B26D24F5149
:102DEC00000A12E0732B9AC83EF99BC83FF99CC8A5
:102DFC0040F99DC841F9010E0A01266FFDC527FA5D
:102E0C0034EC10F00501DA6B10D209014F51000AB5
:102E1C0012E0732B9AC842F99BC843F99CC844F939
:102E2C009DC845F90A01266BFDC527FA34EC10F054
:102E3C00010E0501DA6FF9D109014F51000A24E0A6
:102E4C003D51020A02E1732B02D0110E736F9AC826
:102E5C0039F99BC83AF99CC83BF99DC83CF9010E5D
:102E6C000A01266F17EC0BF009013351395D006E26
:102E7C0000C028F933513E5D006E00C02BF9425161
:102E8C00395D006E00C02CF9D0D14F51000A1AE008
:102E9C009AC833F99BC834F99CC835F99DC836F9E2
:102EAC00020E0A01266F010E276FFDEC0FF0D3C640
:102EBC0026FA0A01276B34EC10F0010E0601946F10
:102ECC000901732BB2D14F51000A12E0732B9AC82F
:102EDC003EF99BC83FF99CC840F99DC841F9D3C63F
:102EEC0026FA010E0A01276F34EC10F00601946BE0
:102EFC009CD109014F51000A12E0732B9AC842F978
:102F0C009BC843F99CC844F99DC845F9D3C626FA19
:102F1C000A01276B34EC10F0010E0601946F85D179
:102F2C0009014F51000A1EE0732B9AC839F99BC84E
:102F3C003AF99CC83BF99DC83CF9020E0A01266F70
:102F4C0017EC0BF009013351395D006E00C02AF902
:102F5C0033513E5D006E00C02FF94251395D006E59
:102F6C0000C030F962D14F51000A19E09AC833F908
:102F7C009BC834F99CC835F99DC836F9020E0A0174
:102F8C00266F276BFDEC0FF0D3C626FA0A01276BD0
:102F9C0034EC10F0010E0601946F0901732B45D12E
:102FAC004F51000A12E0732B9AC83EF99BC83FF9A7
:102FBC009CC840F99DC841F9D3C626FA010E0A01F6
:102FCC00276F34EC10F00601946B2FD109014F518F
:102FDC00000A12E0732B9AC842F99BC843F99CC8AB
:102FEC0044F99DC845F9D3C626FA0A01276B34EC7F
:102FFC0010F0010E0601946F18D109014F51000A0F
:10300C001EE0732B9AC839F99BC83AF99CC83BF956
:10301C009DC83CF9020E0A01266F17EC0BF0090152
:10302C003351395D006E00C029F933513E5D006E9D
:10303C0000C031F94251395D006E00C032F9F5D053
:10304C004F51000A19E09AC833F99BC834F99CC84F
:10305C0035F99DC836F9010E0A01266F276BFDEC78
:10306C000FF00A01266BFDC527FA34EC10F0010EA7
:10307C000501DA6F0901732BD8D04F51000A12E009
:10308C00732B9AC83EF99BC83FF99CC840F99DC860
:10309C0041F9010E0A01266FFDC527FA34EC10F038
:1030AC000501DA6BC2D009014F51000A12E0732BF3
:1030BC009AC842F99BC843F99CC844F99DC845F984
:1030CC000A01266BFDC527FA34EC10F0010E050140
:1030DC00DA6FABD009014F51000A1EE0732B9AC86E
:1030EC0039F99BC83AF99CC83BF99DC83CF9010ECB
:1030FC000A01266F17EC0BF009013351395D006E94
:10310C0000C027F933513E5D006E00C02DF94251CD
:10311C00395D006E00C02EF988D0270E0A01266F8B
:10312C00090E276F3DC928FA80EC08F0200E0A0121
:10313C003D6F060E3E6F150E3F6F040E406F100E66
:10314C00416F000E426F7BEC01F0FE0E3D6F050EE1
:10315C003E6F010E3F6F040E406F100E416F000E5C
:10316C00426F7BEC01F0020E0501C96F010ECA6FB4
:10317C00839E0601836B59D009017351000AD8B4A0
:10318C0081D57351010AD8B492D57351020AD8B4BF
:10319C00B1D57351030AD8B4C7D57351040AD8B446
:1031AC00E5D57351050AD8B4FBD57351060AD8B4CA
:1031BC0016D67351070AD8B428D67351080AD8B456
:1031CC003BD67351090AD8B460D673510A0AD8B4E5
:1031DC007AD673510B0AD8B48CD673510C0AD8B466
:1031EC009FD673510D0AD8B4BED673510E0AD8B4FB
:1031FC00D7D673510F0AD8B4E9D67351100AD8B484
:10320C00FCD67351110AD8B41BD77351120AD8B417
:10321C0034D77351130AD8B446D77351140AD8B49F
:0C322C0059D77351150AD8B478D7120096
:10323800D20E09010D6F010E0E6F440E0F6F0A0EAC
:10324800106FFF0E056FFF0E066F000E076F000E62
:10325800086FFF0E096FFF0E0A6F000E0B6F000E4E
:103268000C6FFF0E016FFF0E026F000E036F000E52
:10327800046FAC8A900EAB6E948E949C9EAA03D079
:08328800AECF00F0FBD71200ED
:103290000A011F6B0301FFB103D00A011F9102D085
:1032A0000A011F81040100B103D00A011F9302D05B
:1032B0000A011F830301FF6B0401006B140E06015A
:1032C000835D15E20A011FB106D009014BB503D099
:1032D0000A011F9102D00A011F811FB306D0090104
:1032E0004BB103D00A011F9302D00A011F831FCAEA
:0432F00000F01200D8
:1032F40009014BA302D00201162B02011651010A47
:1033040020E1200E0A013D6F060E3E6F4A0E3F6F0C
:10331400030E406F100E416F000E426F7BEC01F004
:10332400FE0E3D6F050E3E6F5A0E3F6F030E406F4B
:10333400100E416F000E426F7BEC01F0010E05018F
:10334400CA6F02011651020A20E1200E0A013D6FE4
:10335400060E3E6F6A0E3F6F030E406F100E416FF4
:10336400000E426F7BEC01F0FE0E3D6F050E3E6FCA
:103374007A0E3F6F030E406F100E416F000E426FC6
:103384007BEC01F0010E0501CA6F02011651030A1C
:0A33940003E1640E0601836F1200CE
:10339E00838E010E0501FC6F010E0A01266F3EECB5
:1033AE0009F0005233E0010E0A01266F010E276F5D
:1033BE00FDEC0FF0ED0E0A01266F050E276F010EC4
:1033CE00286FD9EC09F0839C200E0A013D6F060E82
:1033DE003E6F0F0E3F6F060E406F100E416F000EC8
:1033EE00426F7BEC01F0FE0E3D6F050E3E6FDC0E64
:1033FE003F6F050E406F100E416F000E426F7BEC5B
:10340E0001F0010E0501CA6F010EC96F020E0A010D
:10341E00266F3EEC09F0005211E0020E0A01266FF3
:10342E00010E276FFDEC0FF0BA0E0A01266F050E86
:10343E00276F010E286FD9EC09F0839C050E0A0147
:10344E00266F3EEC09F0005213E0010E0A01266FC2
:10345E00FDC527FA34EC10F00501DB6BDA6BCB0EF1
:10346E000A01266F050E276F010E286FD9EC09F0A1
:10347E00070E0A01266F3EEC09F0005212E00A0117
:10348E00266BFDC527FA34EC10F0010E0501DA6F3C
:10349E00310E0A01266F060E276F010E286FD9EC2A
:1034AE0009F0060E0A01266F3EEC09F0005213E0F9
:1034BE00D3C626FA010E0A01276F34EC10F006016E
:1034CE00956B946B850E0A01266F060E276F010E03
:1034DE00286FD9EC09F0080E0A01266F3EEC09F0B0
:1034EE00005212E0D3C626FA0A01276B34EC10F014
:1034FE00010E0601946FC20E0A01266F060E276F8B
:10350E00010E286FD9EC09F00A0E0A01266F3EEC67
:10351E0009F0005211E0010E0501DB6F010E0A01E8
:10352E00266FCEEC0AF0AC0E0A01266F060E276F40
:10353E00010E286FD9EC09F00B0E0A01266F3EEC36
:10354E0009F0005211E0010E0601956F020E0A01FC
:10355E00266FCEEC0AF0960E0A01266F060E276F26
:10356E00010E286FD9EC09F0030E0A01266F3EEC0E
:10357E0009F0005210E006018491010E0A01266F37
:10358E0017EC0BF04F0E0A01266F060E276F010E79
:10359E00286FD9EC09F0040E0A01266F3EEC09F0F3
:1035AE00005210E006018493020E0A01266F17ECFA
:1035BE000BF0400E0A01266F060E276F010E286FC4
:1035CE00D9EC09F00C0E0A01266F3EEC09F0005200
:1035DE00D8A4838C0501DB51010A39E1090150A100
:1035EE0036D00501DA51000A32E1010E0A01266FCA
:1035FE0017EC0BF0020E0A01266F17EC0BF0050EFE
:10360E000601836F0501DB6B0601956B6F0E0A01D8
:10361E00266F060E276F010E286FD9EC09F0090EE2
:10362E000A01266F1EEC0AF0200E3D6F060E3E6F4D
:10363E005E0E3F6F060E406F100E416F000E426F12
:10364E007BEC01F0010E0501CA6F010EC96F060178
:10365E009551010A39E1090150A336D00601945162
:10366E00000A32E1010E0A01266F17EC0BF0020E72
:10367E000A01266F17EC0BF0050E0601836F05018C
:10368E00DB6B0601956BC50E0A01266F080E276FC0
:10369E00010E286FD9EC09F0090E0A01266F1EECF7
:1036AE000AF0200E3D6F060E3E6F5E0E3F6F060E49
:1036BE00406F100E416F000E426F7BEC01F0010E59
:1036CE000501CA6F010EC96F09015B51000A05E0C1
:1036DE0008014C51010A01E002D006018493030E49
:1036EE0008014D5DD8A0A2D0090151A133D06C5371
:1036FE0031E0010E0A01266F17EC0BF0020E0A01E3
:10370E00266F17EC0BF00501DB6B0601956B050EB2
:10371E00836F180E0A01266F080E276F010E286F91
:10372E00D9EC09F0090E0A01266F1EEC0AF0200EE4
:10373E003D6F060E3E6F290E3F6F080E406F100E46
:10374E00416F000E426F7BEC01F0010E0501CA6F56
:10375E00010EC96F09014F51000A31E0010E0A0135
:10376E00266F17EC0BF0020E0A01266F17EC0BF00A
:10377E000501DB6B0601956B050E836F3A0E0A0190
:10378E00266F080E276F010E286FD9EC09F0090E6F
:10379E000A01266F1EEC0AF0200E3D6F060E3E6FDC
:1037AE004E0E3F6F080E406F100E416F000E426FAF
:1037BE007BEC01F0010E0501CA6F010EC96F090104
:1037CE005251010A33E16B5331E0010E0A01266FAB
:1037DE0017EC0BF0020E0A01266F17EC0BF0050129
:1037EE00DB6B0601956B050E836F720E0A01266F59
:1037FE00080E276F010E286FD9EC09F0090E0A0189
:10380E00266F1EEC0AF0200E3D6F060E3E6F890EDF
:10381E003F6F080E406F100E416F000E426F7BEC33
:10382E0001F0010E0501CA6F010EC96F0601845128
:10383E00000AD8A48ED009016A5371E0010E0A0164
:10384E00266F276BFDEC0FF0020E0A01266F276B19
:10385E00FDEC0FF0010E0A01266FFDC527FA34ECC0
:10386E0010F00501DB6BDA6BD3C626FA010E0A01E6
:10387E00276F34EC10F00601956B946B010E080166
:10388E009A250A01266F000E08019B210A01276F57
:10389E00000E08019C210A01286F000E08019D21CF
:1038AE000A01296F030E2A6F0DEC08F0010E0801B4
:1038BE009A250A01266F000E08019B210A01276F27
:1038CE00000E08019C210A01286F000E08019D219F
:1038DE000A01296F040E2A6F0DEC08F0010E080183
:1038EE009A250A01266F000E08019B210A01276FF7
:1038FE00000E08019C210A01286F000E08019D216F
:10390E000A01296F010E2627000E272328232923BB
:10391E000D0E2A6F0DEC08F0060184851AD0010EEB
:10392E0008019A250A01266F000E08019B210A0143
:10393E00276F000E08019C210A01286F000E080156
:10394E009D210A01296F0D0E2A6F0DEC08F006015C
:10395E0084850D0E0A01266F3EEC09F000522CE014
:10396E00020E0601836F0801716B706B090E0A015E
:10397E00266F1EEC0AF0200E3D6F060E3E6F5F0E98
:10398E003F6F080E406F100E416F000E426F7BECC2
:10399E0001F0FE0E3D6F050E3E6FDC0E3F6F050E05
:1039AE00406F100E416F000E426F7BEC01F0010E66
:1039BE000501CA6F010EC96F06018351050A04E0A5
:1039CE008351060A01E030D00A01266B1EEC0AF084
:1039DE00000E0901591902E1000E581925E058513F
:1039EE0008019A250A01266F0901595108019B21E8
:1039FE000A01276F000E08019C210A01286F000E94
:103A0E0008019D210A01296F090E2A6F0DEC08F09D
:103A1E0008014B6B716BB00E0A01266F080E276FF3
:0A3A2E00010E286FD9EC09F0120018
:103A380009014BA326D0010E0601836F839E200E39
:103A48000A013D6F060E3E6F5F0E3F6F080E406F16
:103A5800100E416F000E426F7BEC01F0FE0E3D6FC1
:103A6800050E3E6FFB0E3F6F060E406F100E416F46
:103A7800000E426F7BEC01F0020E0501C96F010ECA
:103A8800CA6FE9D1838E09014FA106D0020E226FB9
:103A9800732B010E0601D66F09014FA307D0010E43
:103AA800226F030E736F010E0601D66F0501DB6BE3
:103AB8000601956B08D2020E0A01266F276BFDECF2
:103AC8000FF0060E08019A250A01266F000E08015C
:103AD8009B210A01276F000E08019C210A01286F0B
:103AE800000E08019D210A01296F150E2A6F0DECA1
:103AF80008F00901732BE7D150A30CD006019551AA
:103B0800010A08E1956B020E0A01266F17EC0BF00B
:103B18000901732B150E0A01266F3EEC09F00052BD
:103B280003E0010E0601956FCED1010E0A01266F42
:103B3800276BFDEC0FF0060E08019A250A01266F87
:103B4800000E08019B210A01276F000E08019C2125
:103B58000A01286F000E08019D210A01296F140E21
:103B68002A6F0DEC08F00901732B50A10CD0050148
:103B7800DB51010A08E1DB6B010E0A01266F17EC25
:103B88000BF00901732B140E0A01266F3EEC09F0A5
:103B9800005203E0010E0501DB6F95D19AC823F9A5
:103BA8009BC824F99CC825F99DC826F9010E0A016D
:103BB800266F010E276FFDEC0FF0060E08019A25FF
:103BC8000A01266F000E08019B210A01276F000ECB
:103BD80008019C210A01286F000E08019D210A0195
:103BE800296F140E2A6F0DEC08F00901732B6BD1A5
:103BF80050A118D00501DB51010A14E1DB6B010E5D
:103C08000A01266F17EC0BF009012251010A03E1A2
:103C18000B0E736F01D0732B235108019A5D006E50
:103C280000C017F9140E0A01266F3EEC09F0005285
:103C380003E0010E0501DB6F46D19AC823F99BC842
:103C480024F99CC825F99DC826F9020E0A01266F99
:103C5800010E276FFDEC0FF0060E08019A250A01E8
:103C6800266F000E08019B210A01276F000E08012C
:103C78009C210A01286F000E08019D210A01296F65
:103C8800150E2A6F0DEC08F00901732B1CD150A3F7
:103C980012D006019551010A0EE1956B020E0A0138
:103CA800266F17EC0BF00901732B235108019A5D5D
:103CB800006E00C019F9150E0A01266F3EEC09F0D6
:103CC800005203E0010E0601956FFDD09AC823F952
:103CD8009BC824F99CC825F99DC826F9020E0A013B
:103CE800266F276BFDEC0FF0060E08019A250A01D6
:103CF800266F000E08019B210A01276F000E08019C
:103D08009C210A01286F000E08019D210A01296FD4
:103D1800150E2A6F0DEC08F00901732BD4D050A3AF
:103D280012D006019551010A0EE1956B020E0A01A7
:103D3800266F17EC0BF00901732B235108019A5DCC
:103D4800006E00C018F9150E0A01266F3EEC09F046
:103D5800005203E0010E0601956FB5D09AC823F909
:103D68009BC824F99CC825F99DC826F9010E0A01AB
:103D7800266F276BFDEC0FF0060E08019A250A0145
:103D8800266F000E08019B210A01276F000E08010B
:103D98009C210A01286F000E08019D210A01296F44
:103DA800140E2A6F0DEC08F00901732B8CD050A16A
:103DB80012D00501DB51010A0EE1DB6B010E0A018D
:103DC800266F17EC0BF00901732B235108019A5D3C
:103DD800006E00C016F9140E0A01266F3EEC09F0B9
:103DE800005203E0010E0501DB6F6DD0160E0A01CB
:103DF800266F090E276F85EC07F0160E266F090E41
:103E0800276F22C928FA80EC08F0200E0A013D6FBE
:103E1800060E3E6F6A0E3F6F070E406F100E416F21
:103E2800000E426F7BEC01F0FE0E3D6F050E3E6FFB
:103E3800590E3F6F070E406F100E416F000E426F14
:103E48007BEC01F0020E0501C96F010ECA6F839E5B
:103E58000601836B38D009017351000AD8B412D611
:103E68007351010AD8B427D67351020AD8B444D67C
:103E78007351030AD8B459D67351040AD8B475D605
:103E88007351050AD8B48AD67351060AD8B4B0D685
:103E98007351070AD8B4D1D67351080AD8B4F7D6E3
:103EA8007351090AD8B412D773510A0AD8B437D74C
:103EB80073510B0AD8B452D773510C0AD8B477D7B8
:083EC80073510D0A93E0120092
:103ED000030E0A011F6F839E0501FC6B5EEC09F067
:103EE00000500801711920E09E6B5EEC09F000C0E3
:103EF00071F800C026FA090E276F060E286F69ECCC
:103F000007F0FE0E3D6F050E3E6F470E3F6F010E30
:103F1000406F0B0E416F000E426F7BEC01F0010E03
:103F20000501CA6F020EC96F09014F51000A04E171
:103F30000101AE5301E147D10101AE6B838E010E49
:103F40000501FC6F0A01266B1EEC0AF0010E080148
:103F50009A250A01266F000E08019B210A01276F8E
:103F6000000E08019C210A01286F000E08019D2106
:103F70000A01296F0C0E2A6F0DEC08F01F51080181
:103F80009A25006E000E9B21016E000E9C21026E90
:103F9000000E9D21036E00C00BFA01C00CFA02C096
:103FA0000DFA03C00EFA00C026FA01C027FA02C0BB
:103FB00028FA03C029FA010E0A012A6F0DEC08F055
:103FC0000BCA26FA0CCA27FA0DCA28FA0ECA29FA11
:103FD000050E2A6F0DEC08F00501DA6B060E0801DC
:103FE0009A25006E000E9B21016E000E9C21026E30
:103FF000000E9D21036E0A011F510026000E0122B2
:104000000222032200C00BFA01C00CFA02C00DFA12
:1040100003C00EFA00C026FA01C027FA02C028FA2F
:1040200003C029FA0A0E2A6F0DEC08F009015C5151
:1040300008019A25006E000E9B21016E000E9C2146
:10404000026E000E9D21036E0A011F510026000E14
:1040500001220222032200C00BFA01C00CFA02C0A6
:104060000DFA03C00EFA00C026FA01C027FA02C0FA
:1040700028FA03C029FA030E2A6F0DEC08F0090193
:104080005B51000AD8B491D008014C51020AD8A45F
:104090008CD009015F5108019A250A01266F000E94
:1040A00008019B210A01276F000E08019C210A01CB
:1040B000286F000E08019D210A01296F1F51262734
:1040C000000E272328232923020E2A6F0DEC08F067
:1040D00009015F5108019A250A01266F000E0801A7
:1040E0009B210A01276F000E08019C210A01286FFD
:1040F000000E08019D210A01296F1F512627000E7D
:10410000272328232923060E2A6F0DEC08F0060129
:10411000946B09015F5108019A250A01266F000E70
:1041200008019B210A01276F000E08019C210A014A
:10413000286F000E08019D210A01296F060E26270F
:10414000000E2723282329231F512627000E27236B
:10415000282329230B0E2A6F0DEC08F009015B516F
:1041600008019A250A01266F000E08019B210A0109
:10417000276F000E08019C210A01286F000E08011C
:104180009D210A01296F09015F510A012627000EAE
:104190002723282329231F512627000E27232823DE
:1041A0002923040E2A6F0DEC08F0030E0601846F1C
:1041B0000501DB6B0601956B0801706B4D6B4B6B5A
:1041C000080E0601836F090E0A01266F3EEC09F006
:1041D0000050010AD8A4DFD109016051000A05E0AE
:1041E00008014C51010A01E085D00A01266B1EEC42
:1041F0000AF01F5108019A25006E000E9B21016EE6
:10420000000E9C21026E000E9D21036E00C00BFA71
:1042100001C00CFA02C00DFA03C00EFA00C026FA63
:1042200001C027FA02C028FA03C029FA010E0A01C8
:104230002A6F0DEC08F00BCA26FA0CCA27FA0DCA31
:1042400028FA0ECA29FA050E2A6F0DEC08F00501AE
:10425000DA6B060E08019A25006E000E9B21016E96
:10426000000E9C21026E000E9D21036E0A011F515B
:104270000026000E01220222032200C00BFA01C018
:104280000CFA02C00DFA03C00EFA00C026FA01C0F3
:1042900027FA02C028FA03C029FA0A0E2A6F0DEC89
:1042A00008F00901615108019A25006E000E9B215A
:1042B000016E000E9C21026E000E9D21036E0A010C
:1042C0001F510026000E01220222032200C00BFA19
:1042D00001C00CFA02C00DFA03C00EFA00C026FAA3
:1042E00001C027FA02C028FA03C029FA030E2A6F78
:1042F0000DEC08F009016051000AD8B43ED1080164
:104300004C51020AD8A439D10A01266B1EEC0AF0DE
:104310001F5108019A25006E000E9B21016E000EB0
:104320009C21026E000E9D21036E00C00BFA01C09D
:104330000CFA02C00DFA03C00EFA00C026FA01C042
:1043400027FA02C028FA03C029FA020E0A012A6FCE
:104350000DEC08F00BCA26FA0CCA27FA0DCA28FA87
:104360000ECA29FA060E2A6F0DEC08F00501DA6B69
:10437000060E08019A25006E000E9B21016E000EAC
:104380009C21026E000E9D21036E0A011F51002622
:10439000000E01220222032200C00BFA01C00CFA17
:1043A00002C00DFA03C00EFA00C026FA01C027FAB7
:1043B00002C028FA03C029FA0B0E2A6F0DEC08F090
:1043C0000901615108019A25006E000E9B21016EC2
:1043D000000E9C21026E000E9D21036E0A011F51EA
:1043E0000026000E01220222032200C00BFA01C0A7
:1043F0000CFA02C00DFA03C00EFA00C026FA01C082
:1044000027FA02C028FA03C029FA040E2A6F0DEC1D
:1044100008F009015F5108019A25006E000E9B21EA
:10442000016E000E9C21026E000E9D21036E0A019A
:104430001F510026000E01220222032200C00BFAA7
:1044400001C00CFA02C00DFA03C00EFA00C026FA31
:1044500001C027FA02C028FA03C029FA010E2A6F08
:104460000DEC08F009015F5108019A25006E000E5D
:104470009B21016E000E9C21026E000E9D21036E99
:104480000A011F510026000E01220222032200C051
:104490000BFA01C00CFA02C00DFA03C00EFA00C0FC
:1044A00026FA01C027FA02C028FA03C029FA050E2D
:1044B0002A6F0DEC08F00601946B09015F510801A9
:1044C0009A25006E000E9B21016E000E9C21026E4B
:1044D000000E9D21036E060E0026000E0122022210
:1044E00003220A011F510026000E0122022203228C
:1044F00000C00BFA01C00CFA02C00DFA03C00EFA9C
:1045000000C026FA01C027FA02C028FA03C029FA1F
:104510000A0E2A6F0DEC08F00901605108019A2576
:10452000006E000E9B21016E000E9C21026E000E9B
:104530009D21036E0A011F510026000E0122022256
:10454000032209015F510026000E012202220322EC
:1045500000C00BFA01C00CFA02C00DFA03C00EFA3B
:1045600000C026FA01C027FA02C028FA03C029FABF
:10457000030E0A012A6F0DEC08F0030E0801A36F69
:104580000501DB6B0601956B0801706B4D6B4B6B86
:10459000070E0601836F090151A117D0000E5919AA
:1045A00002E1000E581911E008017051000A0DE1F6
:1045B000010E706F010E4B6F070E0A01266F010E80
:1045C000276F010E286FD9EC09F008017051010A1C
:1045D00015E1090151B112D0000E591902E1000E86
:1045E00058190CE008014B6B706B1C0E0A01266F0A
:0E45F000010E276F010E286FD9EC09F01200A2
:1045FE00020E0A011F6F839E0501FC6B5EEC09F033
:10460E0000500801711920E09E6B5EEC09F000C0AD
:10461E0071F800C026FA090E276F060E286F69EC96
:10462E0007F0FE0E3D6F050E3E6FD90E3F6F000E6A
:10463E00406F0B0E416F000E426F7BEC01F0010ECE
:10464E000501CA6F020EC96F09014F51000A09E137
:10465E00090E0A01266F3EEC09F00050010A01E036
:10466E00DFD109016051000A05E008014C51010A31
:10467E0001E085D00A01266B1EEC0AF01F510801DD
:10468E009A25006E000E9B21016E000E9C21026E7B
:10469E00000E9D21036E00C00BFA01C00CFA02C081
:1046AE000DFA03C00EFA00C026FA01C027FA02C0A6
:1046BE0028FA03C029FA010E0A012A6F0DEC08F040
:1046CE000BCA26FA0CCA27FA0DCA28FA0ECA29FAFC
:1046DE00050E2A6F0DEC08F00501DA6B060E0801C7
:1046EE009A25006E000E9B21016E000E9C21026E1B
:1046FE00000E9D21036E0A011F510026000E01229D
:10470E000222032200C00BFA01C00CFA02C00DFAFD
:10471E0003C00EFA00C026FA01C027FA02C028FA1A
:10472E0003C029FA0A0E2A6F0DEC08F00901615137
:10473E0008019A25006E000E9B21016E000E9C2131
:10474E00026E000E9D21036E0A011F510026000EFF
:10475E0001220222032200C00BFA01C00CFA02C091
:10476E000DFA03C00EFA00C026FA01C027FA02C0E5
:10477E0028FA03C029FA030E2A6F0DEC08F009017E
:10478E006051000AD8B43FD108014C51020AD8A496
:10479E003AD1090E0A01266F1EEC0AF01F510801CC
:1047AE009A25006E000E9B21016E000E9C21026E5A
:1047BE00000E9D21036E00C00BFA01C00CFA02C060
:1047CE000DFA03C00EFA00C026FA01C027FA02C085
:1047DE0028FA03C029FA020E0A012A6F0DEC08F01E
:1047EE000BCA26FA0CCA27FA0DCA28FA0ECA29FADB
:1047FE00060E2A6F0DEC08F00501DA6B060E0801A5
:10480E009A25006E000E9B21016E000E9C21026EF9
:10481E00000E9D21036E0A011F510026000E01227B
:10482E000222032200C00BFA01C00CFA02C00DFADC
:10483E0003C00EFA00C026FA01C027FA02C028FAF9
:10484E0003C029FA0B0E2A6F0DEC08F00901615115
:10485E0008019A25006E000E9B21016E000E9C2110
:10486E00026E000E9D21036E0A011F510026000EDE
:10487E0001220222032200C00BFA01C00CFA02C070
:10488E000DFA03C00EFA00C026FA01C027FA02C0C4
:10489E0028FA03C029FA040E2A6F0DEC08F009015C
:1048AE005F5108019A25006E000E9B21016E000ECD
:1048BE009C21026E000E9D21036E0A011F510026DF
:1048CE00000E01220222032200C00BFA01C00CFAD4
:1048DE0002C00DFA03C00EFA00C026FA01C027FA74
:1048EE0002C028FA03C029FA010E2A6F0DEC08F057
:1048FE0009015F5108019A25006E000E9B21016E81
:10490E00000E9C21026E000E9D21036E0A011F51A6
:10491E000026000E01220222032200C00BFA01C063
:10492E000CFA02C00DFA03C00EFA00C026FA01C03E
:10493E0027FA02C028FA03C029FA050E2A6F0DECD9
:10494E0008F00601946B09015F5108019A25006E6B
:10495E00000E9B21016E000E9C21026E000E9D2109
:10496E00036E060E0026000E0122022203220A0109
:10497E001F510026000E01220222032200C00BFA54
:10498E0001C00CFA02C00DFA03C00EFA00C026FADE
:10499E0001C027FA02C028FA03C029FA0A0E2A6FAC
:1049AE000DEC08F00901605108019A25006E000E09
:1049BE009B21016E000E9C21026E000E9D21036E46
:1049CE000A011F510026000E0122022203220901B4
:1049DE005F510026000E01220222032200C00BFAB4
:1049EE0001C00CFA02C00DFA03C00EFA00C026FA7E
:1049FE0001C027FA02C028FA03C029FA030E0A01E1
:104A0E002A6F0DEC08F0030E0801A36F0501DB6B96
:104A1E000601956B08014D6B4B6B070E0601836FFC
:104A2E00090151A117D0000E591902E1000E5819B3
:104A3E0011E008017051000A0DE1010E706F010EB8
:104A4E004B6FE50E0A01266F000E276F010E286FC1
:104A5E00D9EC09F008017051010A15E1090151B1B3
:104A6E0012D0000E591902E1000E58190CE008017F
:104A7E004B6B706BB40E0A01266F000E276F010E82
:084A8E00286FD9EC09F01200B9
:104A9600838E010E0501FC6F010E0A01266F3EECA6
:104AA60009F000520FE0010E0A01266F276BFDEC9C
:104AB6000FF0FB0E0A01266F040E276F010E286FFA
:104AC600D9EC09F0020E0A01266F3EEC09F00052FD
:104AD60031E0020E0A01266F276BFDEC0FF04A0E3D
:104AE6000A01266F040E276F010E286FD9EC09F014
:104AF600200E0A013D6F060E3E6F530E3F6F000EED
:104B0600406F100E416F000E426F7BEC01F0FE0EFF
:104B16003D6F050E3E6FDC0E3F6F050E406F100EAB
:104B2600416F000E426F7BEC01F0010E0501CA6F6A
:104B3600010EC96F0A0E0A01266F3EEC09F00052FB
:104B460011E0010E0501DB6F010E0A01266FCEECA6
:104B56000AF0590E0A01266F040E276F010E286F00
:104B6600D9EC09F00B0E0A01266F3EEC09F0005253
:104B760011E0010E0601956F020E0A01266FCEECBA
:104B86000AF0260E0A01266F040E276F010E286F03
:104B9600D9EC09F0050E0A01266F3EEC09F0005229
:104BA60012E0010E0A01266FFDC527FA34EC10F05B
:104BB6000501DA6B3B0E0A01266F040E276F010E04
:104BC600286FD9EC09F0060E0A01266F3EEC09F0B3
:104BD600005212E0D3C626FA010E0A01276F34EC02
:104BE60010F00601946B8C0E0A01266F040E276FD7
:104BF600010E286FD9EC09F0030E0A01266F3EEC70
:104C060009F0005209E10501DB51010A04E109013D
:104C160050A101D001D012D00801A3A10FD0A391B9
:104C2600010E0A01266F17EC0BF09B0E0A01266F88
:104C3600040E276F010E286FD9EC09F0040E0A0145
:104C4600266F3EEC09F0005209E106019551010A72
:104C560004E1090150A301D001D012D00801A3A399
:104C66000FD0A393020E0A01266F17EC0BF06E0EFF
:104C76000A01266F040E276F010E286FD9EC09F082
:104C860009015B51000A05E008014C51010A01E0E7
:104C960002D00801A393030E4D5DD8A0A5D009014B
:104CA60051A134D0010E0A01266F17EC0BF0020E4B
:104CB6000A01266F17EC0BF00501DB6B0601956BFD
:104CC600060E836F010E0101AE6F7B0E0A01266F81
:104CD600040E276F010E286FD9EC09F0090E0A01A0
:104CE600266F1EEC0AF0200E3D6F060E3E6F290E53
:104CF6003F6F080E406F100E416F000E426F7BEC47
:104D060001F0010E0501CA6F010EC96F09014F516D
:104D1600000A32E0010E0A01266F17EC0BF0020EB4
:104D26000A01266F17EC0BF0060E0601836F0501CC
:104D3600DB6B0601956B390E0A01266F050E276F90
:104D4600010E286FD9EC09F0090E0A01266F1EEC38
:104D56000AF0200E3D6F060E3E6F4E0E3F6F080E98
:104D6600406F100E416F000E426F7BEC01F0010E9A
:104D76000501CA6F010EC96F09015251020A34E1D9
:104D86006B5332E0010E0A01266F17EC0BF0020E90
:104D96000A01266F17EC0BF0060E0601836F05015C
:104DA600DB6B0601956B620E0A01266F050E276FF7
:104DB600010E286FD9EC09F0090E0A01266F1EECC8
:104DC6000AF0FE0E3D6F050E3E6F890E3F6F080E10
:104DD600406F100E416F000E426F7BEC01F0010E2A
:104DE6000501CA6F010EC96F0801A351000AD8A4B4
:104DF600A7D009016653D8B489D0010E0A01266FDF
:104E0600010E276FFDEC0FF0010E08019A250A012D
:104E1600266F000E08019B210A01276F000E08016C
:104E26009C210A01286F000E08019D210A01296FA5
:104E36000E0E2A6F0DEC08F0010E266FFDC527FA3F
:104E460034EC10F00501DB6BDA6BD3C626FA010EE3
:104E56000A01276F34EC10F00601956B946B010E76
:104E660008019A250A01266F000E08019B210A01F6
:104E7600276F000E08019C210A01286F000E080109
:104E86009D210A01296F030E2A6F0DEC08F0010E11
:104E960008019A250A01266F000E08019B210A01C6
:104EA600276F000E08019C210A01286F000E0801D9
:104EB6009D210A01296F010E2627000E272328238C
:104EC6002923040E2A6F0DEC08F0010E08019A251D
:104ED6000A01266F000E08019B210A01276F000EAA
:104EE60008019C210A01286F000E08019D210A0174
:104EF600296F010E2627000E2723282329230D0EAE
:104F06002A6F0DEC08F00801A3851AD00801010EDE
:104F16009A250A01266F000E08019B210A01276FB8
:104F2600000E08019C210A01286F000E08019D2130
:104F36000A01296F0D0E2A6F0DEC08F00801A385F2
:104F46000E0E0A01266F3EEC09F0005207E0020E33
:104F56000A01266F010E276FFDEC0FF00D0E0A01F8
:104F6600266F3EEC09F000522CE0010E0601836F1D
:104F76000801706B716B090E0A01266F1EEC0AF0B0
:104F8600200E3D6F060E3E6FDF0E3F6F010E406F27
:104F9600100E416F000E426F7BEC01F0FE0E3D6F6E
:104FA600050E3E6FDC0E3F6F050E406F100E416F13
:104FB600000E426F7BEC01F0010E0501CA6F010E77
:104FC600C96F06018351050A04E08351060A01E010
:104FD60030D00A01266B1EEC0AF0000E09015919A1
:104FE60002E1000E581925E0585108019A250A01D8
:104FF600266F0901595108019B210A01276F000EEE
:1050060008019C210A01286F000E08019D210A0152
:10501600296F090E2A6F0DEC08F008014B6B716BB6
:10502600770E0A01266F050E276F010E286FD9EC41
:0450360009F012006B
:10503A00838E010E0501FC6F010E0A01266F3EECFC
:10504A0009F000520FE0010E0A01266F276BFDECF2
:10505A000FF0CA0E0A01266F000E276F010E286F85
:10506A00D9EC09F0020E0A01266F3EEC09F0005253
:10507A0031E0020E0A01266F276BFDEC0FF0440E99
:10508A000A01266F000E276F010E286FD9EC09F06E
:10509A00200E0A013D6F060E3E6F530E3F6F000E43
:1050AA00406F100E416F000E426F7BEC01F0FE0E56
:1050BA003D6F050E3E6FDC0E3F6F050E406F100E02
:1050CA00416F000E426F7BEC01F0010E0501CA6FC1
:1050DA00010EC96F0A0E0A01266F3EEC09F0005252
:1050EA0011E0010E0501DB6F010E0A01266FCEECFD
:1050FA000AF01A0E0A01266F000E276F010E286F9A
:10510A00D9EC09F00B0E0A01266F3EEC09F00052A9
:10511A0011E0010E0601956F020E0A01266FCEEC10
:10512A000AF02F0E0A01266F000E276F010E286F54
:10513A00D9EC09F0050E0A01266F3EEC09F000527F
:10514A0013E0010E0A01266FFDC527FA34EC10F0B0
:10515A000501DB6BDA6B840E0A01266F000E276FDE
:10516A00010E286FD9EC09F0070E0A01266F3EECF2
:10517A0009F0005213E00A01266BFDC527FA34EC48
:10518A0010F00501DB6B010EDA6F930E0A01266F30
:10519A00000E276F010E286FD9EC09F0060E0A01DE
:1051AA00266F3EEC09F0005212E0D3C626FA010E31
:1051BA000A01276F34EC10F00601946B640E0A01A1
:1051CA00266F000E276F010E286FD9EC09F0080E22
:1051DA000A01266F3EEC09F0005212E0D3C626FA05
:1051EA000A01276B34EC10F0010E0601946F730E5E
:1051FA000A01266F000E276F010E286FD9EC09F0FD
:10520A00030E0A01266F3EEC09F0005210E0080175
:10521A00A391010E0A01266F17EC0BF0FA0E0A0190
:10522A00266F000E276F010E286FD9EC09F0040EC5
:10523A000A01266F3EEC09F0005210E00801A39320
:10524A00020E0A01266F17EC0BF0AF0E0A01266F49
:10525A00010E276F010E286FD9EC09F00501DB5109
:10526A00010A39E1090150A136D00501DA51000AD3
:10527A0032E1010E0A01266F17EC0BF0020E0A0149
:10528A00266F17EC0BF0060E0601836F0501DB6B28
:10529A000601956BBC0E0A01266F010E276F010EDF
:1052AA00286FD9EC09F0090E0A01266F1EEC0AF0E4
:1052BA00200E3D6F060E3E6F5E0E3F6F060E406F6C
:1052CA00100E416F000E426F7BEC01F0010E0501DA
:1052DA00CA6F010EC96F06019551010A39E1090128
:1052EA0050A336D006019451000A32E1010E0A0198
:1052FA00266F17EC0BF0020E0A01266F17EC0BF063
:10530A00060E0601836F0501DB6B0601956B9D0E88
:10531A000A01266F010E276F010E286FD9EC09F0DA
:10532A00090E0A01266F1EEC0AF0200E3D6F060ECA
:10533A003E6F5E0E3F6F060E406F100E416F000EFD
:10534A00426F7BEC01F0010E0501CA6F010EC96FB5
:10535A0009015B51000A05E008014C51010A01E00C
:10536A0002D00801A393030E4D5DD8A0A4D0090171
:10537A0051A133D0010E0A01266F17EC0BF0020E71
:10538A000A01266F17EC0BF00501DB6B0601956B22
:10539A00060E836F010E0101AE6FF00E0A01266F31
:1053AA00010E276F010E286FD9EC09F00A01266B4E
:1053BA001EEC0AF0200E3D6F060E3E6F290E3F6F5F
:1053CA00080E406F100E416F000E426F7BEC01F029
:1053DA00010E0501CA6F010EC96F09015251020A75
:1053EA0034E16B5332E0010E0A01266F17EC0BF021
:1053FA00020E0A01266F17EC0BF0060E0601836FE8
:10540A000501DB6B0601956B010E0A01266F020E80
:10541A00276F010E286FD9EC09F0090E0A01266FD1
:10542A001EEC0AF0200E3D6F060E3E6F890E3F6F8E
:10543A00080E406F100E416F000E426F7BEC01F0B8
:10544A00010E0501CA6F010EC96F09014F51000A09
:10545A0032E0010E0A01266F17EC0BF0020E0A0168
:10546A00266F17EC0BF0060E0601836F0501DB6B46
:10547A000601956BCD0E0A01266F010E276F010EEC
:10548A00286FD9EC09F0090E0A01266F1EEC0AF002
:10549A00200E3D6F060E3E6F4E0E3F6F080E406F98
:1054AA00100E416F000E426F7BEC01F0010E0501F8
:1054BA00CA6F010EC96F0801A351000AD8A4A7D068
:1054CA0009016653D8B489D0010E0A01266F010E6C
:1054DA00276FFDEC0FF0010E08019A250A01266FCD
:1054EA00000E08019B210A01276F000E08019C216A
:1054FA000A01286F000E08019D210A01296F0E0E6C
:10550A002A6F0DEC08F0010E266FFDC527FA34EC60
:10551A0010F00501DB6BDA6BD3C626FA010E0A011D
:10552A00276F34EC10F00601956B946B010E08019D
:10553A009A250A01266F000E08019B210A01276F8E
:10554A00000E08019C210A01286F000E08019D2106
:10555A000A01296F030E2A6F0DEC08F0010E0801EB
:10556A009A250A01266F000E08019B210A01276F5E
:10557A00000E08019C210A01286F000E08019D21D6
:10558A000A01296F010E2627000E27232823292323
:10559A00040E2A6F0DEC08F0010E08019A250A0183
:1055AA00266F000E08019B210A01276F000E0801D1
:1055BA009C210A01286F000E08019D210A01296F0A
:1055CA00010E2627000E2723282329230D0E2A6FD2
:1055DA000DEC08F00801A3851AD00801010E9A25DE
:1055EA000A01266F000E08019B210A01276F000E8F
:1055FA0008019C210A01286F000E08019D210A0159
:10560A00296F0D0E2A6F0DEC08F00801A3850E0E06
:10561A000A01266F3EEC09F0005207E0020E0A0169
:10562A00266F010E276FFDEC0FF00D0E0A01266F93
:10563A003EEC09F000522CE0010E0601836F0801CE
:10564A00706B716B090E0A01266F1EEC0AF0200EB0
:10565A003D6F060E3E6FDF0E3F6F010E406F100E5C
:10566A00416F000E426F7BEC01F0FE0E3D6F050E9E
:10567A003E6FDC0E3F6F050E406F100E416F000E3D
:10568A00426F7BEC01F0010E0501CA6F010EC96F72
:10569A0006018351050A04E08351060A01E032D06B
:1056AA000A01266B1EEC0AF0000E0901591902E1E3
:1056BA00000E581927E00801716B090158510801B9
:1056CA009A250A01266F0901595108019B210A01ED
:1056DA00276F000E08019C210A01286F000E08019D
:1056EA009D210A01296F090E2A6F0DEC08F00801A5
:1056FA004B6B320E0A01266F010E276F010E286FBF
:06570A00D9EC09F01200C9
:1057100009014BA10BD00801EB51000A03E1190E5E
:10572000EB6F01D0EB07640E0601836F09014BA5F7
:105730000AD00801EB51190A02E1EB6B01D0EB2B07
:10574000640E0601836F09014BA303D0660E0601A8
:10575000836F09014B51050A28E1200E0A013D6FB4
:10576000060E3E6F2A0E3F6F030E406F100E416F04
:10577000000E426F7BEC01F00201166BFE0E0A0177
:105780003D6F050E3E6F3A0E3F6F030E406F100ED9
:10579000416F000E426F7BEC01F0020E0501C96FF4
:0C57A000010ECA6FFA0E0601836F1200A2
:1057AC00030E0A011F6F206B216B226B236B839EF0
:1057BC000501FC6B09014B51020A05E1640E06015F
:1057CC00836F0801EB6B09014F51030808014C6F03
:1057DC0009014F51000AD8B4F2D2090E0A01266F02
:1057EC001EEC0AF0838E010E0501FC6F010E080100
:1057FC009A250A01266F000E08019B210A01276FCA
:10580C00000E08019C210A01286F000E08019D2141
:10581C000A01296F0C0E2A6F0DEC08F01F510801BC
:10582C009A25006E000E9B21016E000E9C21026ECB
:10583C00000E9D21036E00C00BFA01C00CFA02C0D1
:10584C000DFA03C00EFA00C026FA01C027FA02C0F6
:10585C0028FA03C029FA010E0A012A6F0DEC08F090
:10586C0009015A51000A11E00BCA26FA0CCA27FA90
:10587C000DCA28FA0ECA29FA070E0A012A6F0DEC76
:10588C0008F0010E0501DA6F0FD00BCA26FA0CCA0C
:10589C0027FA0DCA28FA0ECA29FA050E0A012A6F30
:1058AC000DEC08F00501DA6B09015A5108019A2533
:1058BC00006E000E9B21016E000E9C21026E000EEC
:1058CC009D21036E060E0026000E012202220322E9
:1058DC000A011F510026000E01220222032200C0E1
:1058EC000BFA01C00CFA02C00DFA03C00EFA00C08C
:1058FC0026FA01C027FA02C028FA03C029FA0A0EB8
:10590C002A6F0DEC08F009015A5108019A25006E16
:10591C00000E9B21016E000E9C21026E000E9D213B
:10592C00036E0A011F510026000E012202220322DF
:10593C0000C00BFA01C00CFA02C00DFA03C00EFA3B
:10594C0000C026FA01C027FA02C028FA03C029FABF
:10595C00050E2A6F0DEC08F009015651000A2FE0D4
:10596C005C5108019A25006E000E9B21016E000E01
:10597C009C21026E000E9D21036E09015651005EA2
:10598C00000E015A025A035A0A011F510026000E3A
:10599C0001220222032200C00BFA01C00CFA02C041
:1059AC000DFA03C00EFA00C026FA01C027FA02C095
:1059BC0028FA03C029FA070E2A6F0DEC08F009012A
:1059CC005C5108019A25006E000E9B21016E000EA1
:1059DC009C21026E000E9D21036E0A011F510026B0
:1059EC00000E01220222032200C00BFA01C00CFAA5
:1059FC0002C00DFA03C00EFA00C026FA01C027FA45
:105A0C0002C028FA03C029FA030E2A6F0DEC08F025
:105A1C0009015C5108019A250A01206F000E08014A
:105A2C009B210A01216F000E08019C210A01226FA3
:105A3C00000E08019D210A01236F1F512027000E23
:105A4C0021232223232309015B51000AD8B47BD1E3
