:040000009AEF3BF048
:1000080000C015F0F2A433D00301992B8088010EAB
:100018000401B36F190E03019B5D03E39B6B9C6B9B
:1000280001D09B2B190E0801DB5D04E3DB6B030198
:100038009A6B02D00801DB2B190E0301995D12E3BC
:10004800996B010E06010727000E082309230A23CE
:100058000701D853010ED8A4000ED86F8098010E5E
:100068000401A86FF30ED76ECA0ED66EF294F0A0F4
:1000780019D003019C51000A03E19C2B9B6B01D012
:100088009C2B050E9C5D0DE3130E9B5D09E39B51B4
:10009800150806E3010E0501176F03019C6B01D0DB
:1000A8009C6BF090F0A21ED003019A51000A04E163
:1000B8009A2B0801DB6B02D003019A2B0301050E72
:1000C8009A5D0FE3130E0801DB5D09E3DB511508A8
:1000D80006E3010E0501186F03019A6B02D00301B4
:1000E8009A6BF0929EA007D00801C253D8A48186CB
:1000F8009D90CD909E90A1A207D008018153D8A4CD
:100108008188A092B190A192F2A204D0CC6ACA844C
:100118009D82F2929EA221D00801C2530CE00601F2
:10012800F55302E0818607D08196C9C8CFFFCAC8B7
:10013800CEFFCD809D80080181530CE0060131532C
:1001480002E0818807D08198C9C8B3FFCAC8B2FF46
:10015800B180A082CA949D929E9215C000F01100B1
:0E016800ACB202D00000FCD71ECAADFF1200E0
:100176001ECAC9FFC7B002D00000FCD7C9CF00F025
:02018600120065
:10018800086A096A100E0C6E0134083609360450E4
:10019800085E0550D8A0053C095ED8B007D00450C9
:1001A80008260550D8B0053C0926D89000360136F7
:0601B8000C2EEAD7120034
:1001BE00F250026EF29E0500FF6A0150FE6E005074
:0801CE00FD6E02BEF28E12006C
:1001D600086A080E0C6E003408360450085ED8B063
:0E01E60002D00826D89000360C2EF5D7120055
:1001F4000A011A6B030E1A5D0AE21A511825E16E00
:10020400000E1921E26E200EE66E1A2BF3D71A5156
:100214001825E16E000E1921E26EE66A1A071A51DA
:1002240018251B6F000E19211C6F0A0E046E17CAC5
:1002340000F0CFDF08C000F0300E00261BCAE1FF3B
:100244001CCAE2FF00C0E6FF0A0E046E17CA00F0E3
:10025400C0DF00C017FA0050000A01E102D01A07FB
:04026400DED71200CF
:10026800A6A202D00000FCD7A69C18CAAAFF17CAEB
:10027800A9FF19CAA8FFA69EA684F2CF00F0F29E95
:10028800550EA76EAA0EA76EA68200BE02D0F29ED9
:0802980001D0F28EA6941200C1
:1002A00019CA04F01ACA05F017CA02F018CA03F0F6
:1002B0001BCA00F01CCA01F0010E0A011B5F000EF0
:1002C0001C5B005001100FE004C0E9FF05C0EAFF0D
:1002D00002C0E1FF03C0E2FFEECFE6FF024A032ABD
:1002E000044A052AE5D717CA00F018CA01F012001F
:1002F0000A011B6B050E1B5D0AE21B511925E16EFD
:10030000000E1A21E26E200EE66E1B2BF3D71B5156
:100310001925E16E000E1A21E26EE66A1B071B51D9
:1003200019251C6F000E1A211D6F0A0E046E000E97
:10033000056E17CA00F018CA01F026DF08C000F0E9
:1003400009C001F0300E00261CCAE1FF1DCAE2FF01
:1003500000C0E6FF0A0E046E000E056E17CA00F01C
:1003600018CA01F011DF00C017FA01C018FA000E18
:10037000011802E1000E001801E102D01B07CFD7DF
:02038000120069
:100382005ED00801C56BC66B8BD00801E00EC56F4D
:10039200010EC66F85D00801EA0EC56F010EC66F49
:1003A2007FD00801F40EC56F010EC66F79D0080127
:1003B200120EC56F020EC66F73D00801260EC56FEE
:1003C200020EC66F6DD008013A0EC56F020EC66FDF
:1003D20067D00801580EC56F020EC66F61D00801C2
:1003E200760EC56F020EC66F5BD008018A0EC56F0E
:1003F200020EC66F55D008019E0EC56F020EC66F63
:100402004FD00801BC0EC56F020EC66F49D008015D
:10041200EE0EC56F020EC66F43D00801200EC56FE7
:10042200030EC66F3DD00801520EC56F030EC66F94
:1004320037D00801840EC56F030EC66F31D00A0192
:100442001751000A9EE01751010A9FE01751020A54
:10045200A2E01751030AA5E01751040AA8E01751B8
:10046200050AABE01751060AAEE01751070AB1E0E0
:100472001751080AB4E01751090AB7E017510A0ADE
:10048200BAE017510B0ABDE017510C0AC0E0175130
:100492000D0AC3E017510E0AC6E017510F0AC9E050
:1004A20042D0640E0801C76F000EC86F5ED008010B
:1004B200F40EC76F010EC86F58D00801E80EC76F5F
:1004C200030EC86F52D00801DC0EC76F050EC86F4D
:1004D2004CD00801D00EC76F070EC86F46D0080176
:1004E200C40EC76F090EC86F40D00801B80EC76F9F
:1004F2000B0EC86F3AD00801AC0EC76F0D0EC86F55
:1005020034D00801A00EC76F0F0EC86F2ED008019D
:10051200940EC76F110EC86F28D00801880EC76FDE
:10052200130EC86F22D00A011851000ABAE01851FE
:10053200010ABDE01851020AC0E01851030AC3E0E3
:100542001851040AC6E01851050AC9E01851060AF2
:10055200CCE01851070ACFE01851080AD2E018512E
:10056200090AD5E018510A0AD8E05ED00801CB6B1F
:10057200CC6B8BD00801E00ECB6F010ECC6F85D017
:100582000801EA0ECB6F010ECC6F7FD00801F40E8A
:10059200CB6F010ECC6F79D00801120ECB6F020E19
:1005A200CC6F73D00801260ECB6F020ECC6F6DD0CC
:1005B20008013A0ECB6F020ECC6F67D00801580EBD
:1005C200CB6F020ECC6F61D00801760ECB6F020E9C
:1005D200CC6F5BD008018A0ECB6F020ECC6F55D068
:1005E20008019E0ECB6F020ECC6F4FD00801BC0EDD
:1005F200CB6F020ECC6F49D00801EE0ECB6F020E0C
:10060200CC6F43D00801200ECB6F030ECC6F3DD0D0
:100612000801520ECB6F030ECC6F37D00801840E47
:10062200CB6F030ECC6F31D00A011951000A9EE044
:100632001951010A9FE01951020AA2E01951030A55
:10064200A5E01951040AA8E01951050AABE01951B5
:10065200060AAEE01951070AB1E01951080AB4E0DE
:100662001951090AB7E019510A0ABAE019510B0ADD
:10067200BDE019510C0AC0E019510D0AC3E019512D
:100682000E0AC6E019510F0AC9E042D0640E0801F1
:10069200CD6F000ECE6F5ED00801F40ECD6F010E4D
:1006A200CE6F58D00801E80ECD6F030ECE6F52D038
:1006B2000801DC0ECD6F050ECE6F4CD00801D00EB6
:1006C200CD6F070ECE6F46D00801C40ECD6F090E56
:1006D200CE6F40D00801B80ECD6F0B0ECE6F3AD060
:1006E2000801AC0ECD6F0D0ECE6F34D00801A00EF6
:1006F200CD6F0F0ECE6F2ED00801940ECD6F110E5E
:10070200CE6F28D00801880ECD6F130ECE6F22D087
:100712000A011A51000ABAE01A51010ABDE01A513F
:10072200020AC0E01A51030AC3E01A51040AC6E0E1
:100732001A51050AC9E01A51060ACCE01A51070AF1
:10074200CFE01A51080AD2E01A51090AD5E01A512B
:060752000A0AD8E01200C3
:100758000B6A0A6A096A086A0E6A03340836045082
:10076800085E0550D8A0053C095E0650D8A0063C96
:100778000A5E0750D8A0073C0B5EE86AD8A0010EB5
:100788000E5E0336070E0C6E0334083609360A3639
:100798000B360E36045003A012D0085E0550D8A0C0
:1007A800053C095E0650D8A0063C0A5E0750D8A052
:1007B800073C0B5EE86AD8A0010E0E5E11D0082631
:1007C8000550D8B0053C09260650D8B0063C0A2684
:1007D8000750D8B0073C0B26E86AD8B0010E0E26A1
:1007E80003360C2ED1D70234083609360A360B36B2
:1007F8000E36045003A012D0085E0550D8A0053C60
:10080800095E0650D8A0063C0A5E0750D8A0073CEF
:100818000B5EE86AD8A0010E0E5E11D008260550BE
:10082800D8B0053C09260650D8B0063C0A26075021
:10083800D8B0073C0B26E86AD8B0010E0E2602365F
:10084800070E0C6E0234083609360A360B360E3699
:10085800045002A012D0085E0550D8A0053C095EDD
:100868000650D8A0063C0A5E0750D8A0073C0B5E8D
:10087800E86AD8A0010E0E5E11D008260550D8B03F
:10088800053C09260650D8B0063C0A260750D8B0C1
:10089800073C0B26E86AD8B0010E0E2602360C2E4D
:1008A800D1D70134083609360A360B360E360450CD
:1008B80002A012D0085E0550D8A0053C095E06507B
:1008C800D8A0063C0A5E0750D8A0073C0B5EE86A31
:1008D800D8A0010E0E5E11D008260550D8B0053CF0
:1008E80009260650D8B0063C0A260750D8B0073C5F
:1008F8000B26E86AD8B0010E0E260136070E0C6EDC
:100908000134083609360A360B360E36045001A073
:1009180012D0085E0550D8A0053C095E0650D8A044
:10092800063C0A5E0750D8A0073C0B5EE86AD8A0D0
:10093800010E0E5E11D008260550D8B0053C0926D8
:100948000650D8B0063C0A260750D8B0073C0B26FC
:10095800E86AD8B0010E0E2601360C2ED1D7003425
:10096800083609360A360B360E36045001A012D066
:10097800085E0550D8A0053C095E0650D8A0063C84
:100988000A5E0750D8A0073C0B5EE86AD8A0010EA3
:100998000E5E11D008260550D8B0053C0926065031
:1009A800D8B0063C0A260750D8B0073C0B26E86AA0
:1009B800D8B0010E0E260036070E0C6E003408362D
:1009C80009360A360B360E36045000A012D0085EDF
:1009D8000550D8A0053C095E0650D8A0063C0A5E22
:1009E8000750D8A0073C0B5EE86AD8A0010E0E5E3F
:1009F80011D008260550D8B0053C09260650D8B0B5
:100A0800063C0A260750D8B0073C0B26E86AD8B03F
:100A1800010E0E2600360C2ED1D700B00ED0045091
:100A280008260550D8B0053C09260650D8B0063C23
:0C0A38000A260750D8B0073C0B2612001D
:100A4400DEC8E1FFDFC8E2FF17CAE6FFDCC800F03A
:0A0A5400DDC801F0DFEC00F0120035
:100A5E003BD0500E0801C96F370ECA6F72D0080115
:100A6E00630EC96FBF0ECA6F6CD00801770EC96FC7
:100A7E00470ECA6F66D008018A0EC96FCF0ECA6FB5
:100A8E0060D008019E0EC96F570ECA6F5AD008016A
:100A9E00B10EC96FDF0ECA6F54D00801C50EC96FF3
:100AAE00670ECA6F4ED00801D80EC96FEF0ECA6F0F
:100ABE0048D00801EC0EC96F770ECA6F42D00801FC
:100ACE00FF0EC96FCA6B3DD0000E0901E61902E197
:100ADE00010EE519BEE0000EE61902E1020EE5195F
:100AEE00BEE0000EE61902E1030EE519BEE0000EAF
:100AFE00E61902E1040EE519BEE0000EE61902E168
:100B0E00050EE519BEE0000EE61902E1060EE51926
:100B1E00BEE0000EE61902E1070EE519BEE0000E7A
:100B2E00E61902E1080EE519BEE0000EE61902E133
:100B3E00090EE519BEE0000EE61902E10A0EE519EE
:100B4E00BEE03BD0500E0801C36F370EC46F72D09B
:100B5E000801630EC36FBF0EC46F6CD00801770E11
:100B6E00C36F470EC46F66D008018A0EC36FCF0ED7
:100B7E00C46F60D008019E0EC36F570EC46F5AD05B
:100B8E000801B10EC36FDF0EC46F54D00801C50E3D
:100B9E00C36F670EC46F4ED00801D80EC36FEF0E31
:100BAE00C46F48D00801EC0EC36F770EC46F42D0ED
:100BBE000801FF0EC36FC46B3DD0000E090138193A
:100BCE0002E1010E3719BEE0000E381902E1020EE5
:100BDE003719BEE0000E381902E1030E3719BEE0D8
:100BEE00000E381902E1040E3719BEE0000E381956
:100BFE0002E1050E3719BEE0000E381902E1060EAD
:100C0E003719BEE0000E381902E1070E3719BEE0A3
:100C1E00000E381902E1080E3719BEE0000E381921
:100C2E0002E1090E3719BEE0000E381902E10A0E74
:060C3E003719BEE01200B0
:100C44000B6A0A6A096A00500402F4CF09F0F3CF70
:100C540008F001500502F4CF0BF0F3CF0AF0005076
:100C64000502F3500926F4500A22E86A0B220150C7
:100C74000402F3500926F4500A22E86A0B2208C041
:100C840000F009C001F00AC002F00BC003F012002A
:0A0C9400490E0D6E0D2EFED7120062
:100C9E00C7B409D01F0EC514016E0150000A03E13E
:0A0CAE00010E006E01D0006A120072
:100CB8000A01116B0FCAE9FF10CAEAFFEECF00FA6A
:100CC8000051000A0EE000CA17FAB8DE0A01112B1B
:100CD80011510F25E96E000E1021EA6EEECF00FAD1
:040CE800EFD7120030
:100CEC000A01006B0A0E005D0AE200511325E16E49
:100CFC00000E1421E26E300EE66E002BF3D700517D
:100D0C001325E16E000E1421E26EE66A0007000E58
:100D1C00006E121908E10050111905E1005010196C
:100D2C0002E10F51000A3EE000511325156F000E31
:100D3C001421166F0A0E046E000E056E066E076EF9
:100D4C000FCA00F010CA01F011CA02F012CA03F067
:100D5C00FDDC08C000F009C001F00AC002F00BC0B5
:100D6C0003F0300E002615CAE1FF16CAE2FF00C0E0
:100D7C00E6FF00070A0E046E000E056E066E076E87
:100D8C000FCA00F010CA01F011CA02F012CA03F027
:100D9C00DDDC00C00FFA01C010FA02C011FA03C06A
:060DAC0012FAB5D7120097
:100DB2000A01116B0FCAE9FF10CAEAFFEECF00FA6F
:100DC2000051000A0FE000CA1EFAB4EC00F00A015A
:100DD200112B11510F25E96E000E1021EA6EEECF94
:060DE20000FAEED712003A
:100DE8000FCA17FA0A011733179F10CA18FA11CA3F
:100DF80019FAFAEC00F0010E0F15016E0150010A04
:100E080011E1030E1025176F000E1121186F0C0E3B
:100E1800196F020E1A6F040E1B6F000E1C6F50EC38
:100E280001F010D0030E1025176F000E1121186F56
:100E3800100E196F020E1A6F040E1B6F000E1C6F36
:060E480050EC01F0120065
:100E4E00A69C10CAAAFF0FCAA9FFA69EA680A8CF6D
:040E5E0000F012008E
:100E6200010E0A01176F000E186FD4C919FA34EC7B
:100E720001F0020E0A01176F000E186F3AC919FA33
:100E820034EC01F0030E0A01176F000E186FD7C978
:100E920019FA34EC01F0040E0A01176F000E186FF4
:100EA200D6C919FA34EC01F0050E0A01176F000ECB
:100EB200186FDDC919FA34EC01F0060E0A01176F3A
:100EC200000E186FE0C919FA34EC01F0070E0A019E
:100ED200176F000E186FDFC919FA34EC01F0080E13
:100EE2000A01176F000E186FDEC919FA34EC01F00F
:100EF200090E0A01176F000E186FE2C919FA34ECD5
:100F020001F00A0E0A01176F000E186FCAC919FA0A
:100F120034EC01F00B0E0A01176F000E186FC9C9ED
:100F220019FA34EC01F00C0E0A01176F000E186F5B
:100F3200CBC719FA34EC01F00D0E0A01176F000E3F
:100F4200186FE1C919FA34EC01F00E0E0A01176F9D
:100F5200000E186FD5C919FA34EC01F00F0E0A0110
:100F6200176F000E186F3BC919FA34EC01F0100E1E
:100F72000A01176F000E186F39C919FA34EC01F023
:100F8200110E0A01176F000E186FC8C919FA34EC56
:100F920001F0120E0A01176F000E186FE3C919FA59
:100FA20034EC01F0130E0A01176F000E186F82C89D
:100FB20019FA34EC01F0140E0A01176F000E186FC3
:100FC200E4C919FA34EC01F0150E0A01176F000E8C
:100FD200186FE5C919FA34EC01F0160E0A01176F01
:100FE200000E186F37C919FA34EC01F0CBC717FAA3
:100FF200E3C918FA82C819FAE4C91AFAC1EC01F075
:041002002DDD1200CE
:101006000FCA17FA10CA18FA0A0118331733189FAD
:1010160011CA19FA12CA1AFA78EC01F0010E0F1564
:10102600016E10CA02F0000E0216000E021802E14E
:10103600010E011811E1050E1125176F000E122180
:10104600186F5E0E196F020E1A6F040E1B6F000EDC
:101056001C6F50EC01F010D0050E1125176F000E15
:101066001221186F620E196F020E1A6F040E1B6F93
:0A107600000E1C6F50EC01F0120098
:10108000010E0901FE25016E000EFF21026E01C056
:10109000E9FF02C0EAFF0A0EEE24006E01C0E1FF84
:1010A00002C0E2FF00C0E6FF030EFE25016E000E47
:1010B000FF21026E01C0E9FF02C0EAFF0A0EEE2422
:1010C000006E01C0E1FF02C0E2FF00C0E6FFFEC902
:1010D000E9FFFFC9EAFFEECF00F0FEC9E1FFFFC95B
:1010E000E2FF0A0E0024E66E020EFE25016E000EDF
:1010F000FF21026E01C0E9FF02C0EAFF0A0EEE24E2
:10110000006E01C0E1FF02C0E2FF00C0E6FF040E76
:10111000FE25E16E000EFF21E26E040EE66E060E65
:10112000FE25E16E000EFF21E26E040EE66E080E53
:10113000FE25E16E000EFF21E26E040EE66E0A0E41
:10114000FE25E16E000EFF21E26E040EE66E050E36
:10115000FE25E16E000EFF21E26E0A0EE66E090E1C
:10116000FE25E16E000EFF21E26E0A0EE66E070E0E
:10117000FE25E16E000EFF21E26E0A0EE66E0B0EFA
:10118000FE25E16E000EFF21E26E0A0EE66E1200F1
:101190000A01035317E007C60FFA08C610FA09C67A
:1011A00011FA0AC612FA040E136F0A0E146F9EDDAE
:1011B000040E0F6F0A0E106F7FDD830E0F6F080E87
:1011C000106FF7DD01CA0FFA02CA10FAF2DD0D0E38
:1011D0001E6FB4EC00F00A0E0A011E6FB4EC00F0B2
:0211E0001200FB
:1011E2000901FE51010A03E10801C26B819609015E
:0E11F200FE51020A03E10801816B8198120090
:10120000010E0A010F6F000E106F21DE00C0D4F92D
:10121000020E0F6F000E106F1ADE00C03AF9030EB7
:101220000F6F000E106F13DE00C0D7F9040E0F6FA2
:10123000000E106F0CDE00C0D6F9050E0F6F000E09
:10124000106F05DE00C0DDF9060E0F6F000E106F87
:10125000FEDD00C0E0F9070E0F6F000E106FF7DD26
:1012600000C0DFF9080E0F6F000E106FF0DD00C038
:10127000DEF9090E0F6F000E106FE9DD00C0E2F914
:101280000A0E0F6F000E106FE2DD00C0C9F9000EEC
:101290000901CA6FC9C9CAF9C96B0B0E0A010F6FE0
:1012A000000E106FD4DD00500901C913000ECA13DF
:1012B0000C0E0A010F6F000E106FC9DD00C0CBF7D6
:1012C0000D0E0F6F000E106FC2DD00C0E1F90E0EA3
:1012D0000F6F000E106FBBDD00C0D5F90F0E0F6F42
:1012E000000E106FB4DD00C03BF9100E0F6F000E42
:1012F000106FADDD00C039F9110E0F6F000E106FC9
:10130000A6DD00C0C8F9120E0F6F000E106F9FDD32
:1013100000C0E3F9130E0F6F000E106F98DD00C0D0
:1013200082F8140E0F6F000E106F91DD00C0E4F90B
:10133000150E0F6F000E106F8ADD00C0E5F9000E6C
:101340000901E66F160E0A010F6F000E106F7FDDA8
:1013500000C037F9000E0901386F2FEC05F0CBC73C
:1013600017FAE3C918FA82C819FAE4C91AFAC1ECE3
:0413700001F0120076
:101374009E96FEC9C9FFC7A401D0FDD79EB601D071
:10138400FDD7C5BC02D0006A03D0C584020E006E2E
:02139400120045
:101396000901FE6B140EFE5D6EE2070E006E000E76
:1013A600016EFEC904F0000E056E49DC3C0E0026F7
:1013B600090E0122050E0024E96E000E0120EA6ED8
:1013C600EE50010A56E1070E006E000E016EFEC9D0
:1013D60004F0000E056E33DC3C0E0024E16E090EAF
:1013E6000120E26E05CAE6FF070E006E000E016ED2
:1013F600FEC904F0000E056E22DC3C0E0026090E26
:101406000122010E0024E16E000E0120E26E01CAE7
:10141600E6FF02CAE6FF03CAE6FF04CAE6FF070EB6
:10142600006E000E016EFEC904F0000E056E07DCAC
:101436003C0E0026090E0122050E0024E16E000E68
:101446000120E26EE66A070E006E000E016EFEC90E
:1014560004F0000E056E22EC06F03C0E0026090E86
:101466000122060E0024E16E000E0120E26EE66AFD
:0814760002D0FE2B8FD71200FB
:10147E000901CC51FE1904E1CC6B010E006E0FD0A8
:10148E00CD51FE1904E1CD6B010E006E08D0CE5188
:10149E00FE1904E1CE6B010E006E01D0006A12003F
:1014AE0001CA17FA0A011733179F02CA18FA03CA9C
:1014BE0019FAFAEC00F0030E0225176F000E032145
:1014CE00186FD90E196F070E1A6F040E1B6F000ED0
:0814DE001C6F50EC01F012003C
:1014E600020E0601416F860E0A01176F060E186F6F
:1014F600D60E196F000E1A6F100E1B6F000E1C6FA2
:1015060050EC01F00001E751000A36E1540E0A01E1
:10151600176F060E186F380E196F000E1A6F100E21
:101526001B6F000E1C6F50EC01F0010E0601536F8D
:101536004950000A0FE1860E0A01176F060E186F52
:10154600160E196F000E1A6F100E1B6F000E1C6F11
:1015560050EC01F04950010A0FE10A01860E176F9F
:10156600060E186F270E196F000E1A6F100E1B6FDE
:10157600000E1C6F50EC01F00001E751010A1AE160
:10158600540E0A01176F060E186F6C0E196F000EB7
:101596001A6F100E1B6F000E1C6F50EC01F0010E3F
:1015A6000601536FD4C90FFA8C0E0A01106F060E8E
:1015B600116F17DC0001E751020A1BE1540E0A0104
:1015C600176F060E186F7D0E196F000E1A6F100E2C
:1015D6001B6F000E1C6F50EC01F0010E0601536FDD
:1015E6003AC90FFA8C0E0A01106F060E116FF4EC51
:1015F60006F00001E751030A1BE1540E0A01176FBA
:10160600060E186F4A0E196F000E1A6F100E1B6F1A
:10161600000E1C6F50EC01F0010E0601536FD7C986
:101626000FFA8C0E0A01106F060E116FF4EC06F01D
:101636000001E751040A1BE1540E0A01176F060E5A
:10164600186F5B0E196F000E1A6F100E1B6F000ECF
:101656001C6F50EC01F0010E0601536FD6C90FFA4C
:101666008C0E0A01106F060E116FF4EC06F00001E5
:10167600E751050A1BE1540E0A01176F060E186F93
:10168600130E196F010E1A6F100E1B6F000E1C6FD2
:1016960050EC01F0010E0601536FE0C90FFA8C0EF3
:1016A6000A01106F060E116FF4EC06F00001E75107
:1016B600060A1BE1540E0A01176F060E186FBA0EC2
:1016C600196F010E1A6F100E1B6F000E1C6F50EC77
:1016D60001F0010E0601536FDFC90FFA8C0E0A01E5
:1016E600106F060E116FF4EC06F00001E751070AC1
:1016F6001BE1540E0A01176F060E186FCB0E196FF9
:10170600010E1A6F100E1B6F000E1C6F50EC01F0CD
:10171600010E0601536FDEC90FFA8C0E0A01106F17
:10172600060E116FF4EC06F00001E751080A1BE102
:10173600540E0A01176F060E186F980E196F010ED8
:101746001A6F100E1B6F000E1C6F50EC01F0010E8D
:101756000601536FE2C90FFA8C0E0A01106F060ECE
:10176600116FF4EC06F00001E751090A1BE1540E73
:101776000A01176F060E186FA90E196F010E1A6F60
:10178600100E1B6F000E1C6F50EC01F0010E0601CF
:10179600536FE5C917FA8C0E0A01186F060E196FFA
:1017A600FAEC00F00001E7510A0A1BE1540E0A01A7
:1017B600176F060E186FEA0E196F010E1A6F100ECC
:1017C6001B6F000E1C6F50EC01F0010E0601536FEB
:1017D60037C917FA8C0E0A01186F060E196FFAEC44
:1017E60000F00001E7510B0A3EE1540E0A01176FA3
:1017F600060E186FFB0E196F010E1A6F100E1B6F77
:10180600000E1C6F50EC01F0010E0601536FCBC7A2
:1018160017FA890E0A01186F060E196FFAEC00F016
:101826000701CB51070810E28D0E0A01176F060E4D
:10183600186FDC0E196F010E1A6F060E1B6F000E65
:101846001C6F50EC01F00FD00A018D0E176F060EBB
:10185600186FE30E196F010E1A6F060E1B6F000E3E
:101866001C6F50EC01F00001E7510C0A3EE1540EEA
:101876000A01176F060E186F3C0E196F010E1A6FCC
:10188600100E1B6F000E1C6F50EC01F0010E0601CE
:10189600536F82C817FA890E0A01186F060E196F60
:1018A600FAEC00F008018251070810E28D0E0A01D9
:1018B600176F060E186F4D0E196F010E1A6F060E72
:1018C6001B6F000E1C6F50EC01F00FD00A018D0E3D
:1018D600176F060E186F240E196F010E1A6F060E7B
:1018E6001B6F000E1C6F50EC01F00001E7510D0A52
:1018F6001BE1540E0A01176F060E186F2B0E196F97
:10190600010E1A6F100E1B6F000E1C6F50EC01F0CB
:10191600010E0601536FE3C90FFA8C0E0A01106F10
:10192600060E116FF4EC06F00001E7510E0A1BE1FA
:10193600540E0A01176F060E186F760E196F010EF8
:101946001A6F100E1B6F000E1C6F50EC01F0010E8B
:101956000601536FE4C90FFA8C0E0A01106F060ECA
:10196600116FF4EC06F00001E7510F0A1BE1540E6B
:101976000A01176F060E186F870E196F010E1A6F80
:10198600100E1B6F000E1C6F50EC01F0010E0601CD
:10199600536FDDC90FFA8C0E0A01106F060E116F18
:1019A600F4EC06F00001E751100A1DE1540E0A019D
:1019B600176F060E186F540E196F010E1A6F100E60
:1019C6001B6F000E1C6F50EC01F0010E0601536FE9
:1019D600C9C90FFACAC910FA8A0E0A01116F060E92
:1019E600126F03EC08F00001E751110A12E1540EE0
:1019F6000A01176F060E186F650E196F010E1A6F22
:101A0600100E1B6F000E1C6F50EC01F0010E06014C
:101A1600536F0001E751120A35E1540E0A01176FA0
:101A2600060E186F880E196F030E1A6F100E1B6FB5
:101A3600000E1C6F50EC01F0010E0601536F0901F8
:101A46003B51000A10E18C0E0A01176F060E186F43
:101A5600570E196F040E1A6F070E1B6F000E1C6FC0
:101A660050EC01F00FD00A018C0E176F060E186F9E
:101A76005F0E196F040E1A6F080E1B6F000E1C6F97
:101A860050EC01F00001E751130A35E1540E0A014A
:101A9600176F060E186F3E0E196F040E1A6F100E92
:101AA6001B6F000E1C6F50EC01F0010E0601536F08
:101AB60009013951000A10E18C0E0A01176F060E52
:101AC600186F4F0E196F040E1A6F070E1B6F000E5C
:101AD6001C6F50EC01F00FD00A018C0E176F060E2A
:101AE600186F790E196F040E1A6F080E1B6F000E11
:101AF6001C6F50EC01F00001E751140A35E1540E59
:101B06000A01176F060E186F820E196F040E1A6FF0
:101B1600100E1B6F000E1C6F50EC01F0010E06013B
:101B2600536F0901C851000A10E18C0E0A01176FA4
:101B3600060E186F680E196F040E1A6F070E1B6FCC
:101B4600000E1C6F50EC01F00FD00A018C0E176FBF
:101B5600060E186F700E196F040E1A6F080E1B6FA3
:101B6600000E1C6F50EC01F00001E751150A35E13B
:101B7600540E0A01176F060E186F010E196F040E28
:101B86001A6F100E1B6F000E1C6F50EC01F0010E49
:101B96000601536F0901D551000A10E18C0E0A01A6
:101BA600176F060E186F120E196F040E1A6F070EB6
:101BB6001B6F000E1C6F50EC01F00FD00A018C0E4B
:101BC600176F060E186FE70E196F030E1A6F080EC1
:101BD6001B6F000E1C6F50EC01F00001E751160A56
:101BE6001BE1540E0A01176F060E186FF00E196FDF
:101BF600030E1A6F100E1B6F000E1C6F50EC01F0D7
:101C0600010E0601536FE1C90FFA8C0E0A01106F1F
:101C1600060E116FF4EC06F00001E751170A12E107
:101C2600540E0A01176F060E186F1C0E196F040E5C
:101C36001A6F100E1B6F000E1C6F50EC01F0010E98
:101C46000601536F0001E751180A12E1540E0A010A
:101C5600176F060E186F2D0E196F040E1A6F100EE1
:101C66001B6F000E1C6F50EC01F0010E0601536F46
:081C76000601650ECE6F12009D
:101C7E00010E0A010125E96E000E0221EA6EEECF79
:101C8E00D4F901CAE9FF02CAEAFFEECFD7F9035130
:101C9E00020AD8A485D0030E0125E96E000E02219A
:101CAE00EA6EEECF3AF9020E0125E96E000E022120
:101CBE00EA6EEECFD6F9040E0125E96E000E022172
:101CCE00EA6E080E0125D96E000E0221DA6EDE5084
:101CDE00EE24036E046A000E042203C000F004C05A
:101CEE0001F001320032019E01BC018E00C0E0F90C
:101CFE00050E0125E96E000E0221EA6E090E012580
:101D0E00D96E000E0221DA6EDE50EE24036E046AE6
:101D1E00000E042203C000F004C001F001320032B4
:101D2E00019E01BC018E00C0DFF9060E0125E96E91
:101D3E00000E0221EA6E0A0E0125D96E000E022156
:101D4E00DA6EDE50EE24036E046A000E042203C027
:101D5E0000F004C001F001320032019E01BC018E80
:101D6E0000C0DEF9070E0125E96E000E0221EA6EB3
:101D7E000B0E0125D96E000E0221DA6EDE50EE2416
:101D8E00036E046A000E042203C000F004C001F0CA
:101D9E0001320032019E01BC018E00C0E2F924D056
:101DAE0009013A6BD66B040E0A010125E96E000E8D
:101DBE000221EA6EEECFE0F9050E0125E96E000E66
:101DCE000221EA6EEECFDFF9060E0125E96E000E56
:101DDE000221EA6EEECFDEF9070E0125E96E000E46
:0E1DEE000221EA6EEECFE2F931EC07F01200AE
:101DFC000901FE6B140EFE5D4BE2070E006E000E29
:101E0C00016EFEC904F0000E056E22EC06F03C0ECD
:101E1C000026090E0122050E0024E96E000E012099
:101E2C00EA6EEE50000A32E1070E006E000E016EF3
:101E3C00FEC904F0000E056E22EC06F03C0E0024E8
:101E4C00E96E090E0120EA6EEECF01F00150090A8D
:101E5C001DE1070E006E000E016EFEC904F0000EAF
:101E6C00056E22EC06F03C0E0026090E0122010E36
:101E7C000024E96E000E0120EA6EEECF01FAEECFDF
:101E8C0002FAEECF03FAEECF04FA02D0FE2BB2D751
:101E9C00140EFE5D02E3FE6B06D0060107510A012B
:0C1EAC00015D0901FE6FFEC900F012008C
:101EB800140E0901D46F140ED76F140E3A6F140E56
:101EC800D66F070E0701CB6F020E0901E36F070EED
:101ED8000801826F020E0901E46F070E0A01176FED
:101EE800020E186F070E196F020E1A6FC1EC01F07F
:101EF8000A0E0901DF6F040EE06F0A0EE26F040E8E
:101F0800DE6F0C0EDD6FC96BCA6BD56B3B6B396B23
:0C1F1800E16B010EC86F31EC07F0120005
:101F24000901FE51000A04E0FF51000A01E002D059
:101F3400F28801D0F298FEC9F5F6FFC931F6120015
:101F44000901FE51010A17E1FFB102D0829201D0CA
:101F54008282060E0B6E130E0C6EAD0E0D6E0D2EE0
:101F6400FED70C2EFCD70B2EFAD700000000010E72
:101F74000801C26F81860901FE51020A17E1FFB10F
:101F840002D0829001D08280060E0B6E130E0C6E6E
:101F9400AD0E0D6E0D2EFED70C2EFCD70B2EFAD7E0
:0E1FA40000000000010E0801816F818812000C
:101FB2000901FE51010A05E10801886B896B0901DB
:101FC200D091FE51020A05E10801866B876B090177
:041FD200D093120096
:101FD6000901FF6B140EFF5D44E2070E006E000E52
:101FE600016EFFC904F0000E056E22EC06F03C0EF1
:101FF6000026090E0122050E0024E96E000E0120BE
:10200600EA6EEE50000A2BE1070E006E000E016E1E
:10201600FFC904F0000E056E22EC06F03C0E00240B
:10202600E96E090E0120EA6EEECF01F00150FE19AD
:1020360016E0070E006E000E016EFFC904F0000EDA
:10204600056E22EC06F03C0E0026090E0122050E56
:102056000024E16E000E0120E26E010EE66EFF2BFB
:04206600B9D71200D4
:10206A000901FE6B140EFE5D53E2070E006E000EB0
:10207A00016EFEC904F0000E056E22EC06F03C0E5D
:10208A000026090E0122050E0024E96E000E012029
:10209A00EA6EEE50000A3AE1070E006E000E016E7B
:1020AA00FEC904F0000E056E22EC06F03C0E002478
:1020BA00E96E090E0120EA6EEECF01F00150090A1D
:1020CA0025E1070E006E000E016EFEC904F0000E37
:1020DA00056E22EC06F03C0E0026090E0122010EC6
:1020EA000024E96E000E0120EA6EEECF01FAEECF6F
:1020FA0002FAEECF03FAEECF04FA050E0024E16EDF
:10210A00000E0120E26E010EE66E02D0FE2BAAD767
:10211A00060107510A01015D016E01C0FEF9140EA4
:0E212A00015C02E30901FE6BFEC900F0120029
:102138000901FE6BFF6BFF51120802E1FE518E0888
:1021480009E34FEC06F0005201E004D00901FE4B10
:10215800FF2BF1D70901120EFF5D02E18F0EFE5D24
:1021680003E37B0E006E05D0C580C5A001D0FDD766
:04217800006A1200E7
:10217C00C26A070EC012C08EFEC900F00036009075
:10218C00003600900050C212C2804AEC06F0C282A7
:10219C00C2A201D0FDD7C4CF01F0006AC350001217
:0821AC00000E0112C2901200A6
:0421B400C5841200CC
:1021B8000901F76B83A8F78183AAF783F7C900F0B1
:0221C800120003
:1021CA000901FB6BFC6BF751010A03E1F851800F1F
:1021DA00FC6FF751020A03E1F851C00FFC6FA7DF49
:1021EA007C0E0901FE6FBAEC09F0800E0901FE6F40
:1021FA00BAEC09F0FCC9FEF9BAEC09F0400E090183
:10220A00FE6FBAEC09F00901FB51F925E96E000EDF
:10221A00FA21EA6EEE500A0A10E0FB5110080DE3AB
:10222A00FB51F925E96E000EFA21EA6EEECFFEF9AE
:10223A00BAEC09F00901FB2BE6D7B7DF0D0E0C6EDD
:10224A00FB0E0D6E0D2EFED70C2EFCD700000000E3
:02225A00120070
:10225C000901FB6B050EFB5D0AE2FB51F925E16EF2
:10226C00000EFA21E26E300EE66EFB2BF3D7FB511B
:10227C00F925E16E000EFA21E26EE66AFB07000E0C
:10228C00F81902E1000EF7192CE0FB51F925FC6F4F
:10229C00000EFA21FD6F0A0E046E000E056EF7C9D2
:1022AC0000F0F8C901F0C4EC00F008C000F009C05F
:1022BC0001F0300E0026FCC9E1FFFDC9E2FF00C0B1
:1022CC00E6FFFB070A0E046E000E056EF7C900F060
:1022DC00F8C901F0C4EC00F000C0F7F901C0F8F93E
:0422EC00CED7120037
:1022F0000901F86B83BA02D0F88101D0F89184B05B
:1023000002D0F88301D0F89383B802D0F88501D0C9
:10231000F895050E0501155D02E20901F86B09014A
:10232000F851000A1EE105011651000A08E10901F1
:10233000126B226B0501166B0901F76B216B05010E
:102340001651010A0EE1050E0401A55D0AE309011B
:10235000126B226B0501166B0901F76B216B0501EE
:10236000156B09011251010A0FE10301E651040145
:10237000A65D0AE3010E0901216F0401A66B190E87
:102380000901225DD8A0222B0901F851000A26E09C
:1023900005011651010A22E109011251000A1EE14C
:1023A000020E0E25016E000E0F21026E000E10218E
:1023B000036E000E1121046E06010A51041808E193
:1023C0000951031805E10851021802E107510118EB
:1023D00005E1010E0901126F0401A66B0901F85114
:1023E000000A09E005011651010A05E1090112512F
:1023F000000AD8B4F76B0901F851000A0DE0050195
:102400001651010A09E109011251010A05E1F851C9
:102410002103F3CFF7F9216B0901F851000A12E00B
:1024200005011651000A0EE1F8C9F7F9010E166F01
:1024300007C60EF908C60FF909C610F90AC611F940
:102440000401A56B0901F751000A03E0010E070121
:082450005B6FF7C900F01200F8
:102458000901F76B050117B103D00901F79102D003
:102468000901F781050118B103D00901F79302D0DA
:102478000901F7830501176B186B140E0601CE5D71
:102488000FE20901F7B104D0CBB502D0F79101D022
:10249800F781F7B304D0CBB102D0F79301D0F7831B
:0624A800F7C900F012006C
:1024AE0083A003D083A201D006D004019351640807
:1024BE00D8B0932B02D00401936B9351640805E2BC
:1024CE0083B003D0010E006E09D09351640805E26B
:0E24DE0083B203D0020E006E01D0006A12001D
:1024EC00680E0801DC6F010EDD6F1E0EDE6F0A0E2A
:1024FC00DF6FFF0ED36FFF0ED46F000ED56F000E83
:10250C00D66FFF0ED76FFF0ED86F000ED96F000E6F
:10251C00DA6FFF0ECF6FFF0ED06F000ED16F000E73
:10252C00D26FAC8A900EAB6E948E949C9EAA03D004
:08253C00AECF00F0FBD7120046
:102544000901CBA302D00501142B05011451010A82
:1025540020E1540E0A01176F060E186FD40E196F7E
:10256400040E1A6F100E1B6F000E1C6F50EC01F05E
:10257400860E176F060E186FE40E196F040E1A6F8D
:10258400100E1B6F000E1C6F50EC01F0010E0601C3
:10259400536F05011451020A20E1540E0A01176F0A
:1025A400060E186FF40E196F040E1A6F100E1B6FBF
:1025B400000E1C6F50EC01F0860E176F060E186F9C
:1025C400040E196F050E1A6F100E1B6F000E1C6F90
:1025D40050EC01F0010E0601536F05011451030A7A
:0A25E40003E1640E0601CE6F120041
:1025EE00A4DD7C0E0901FE6FBAEC09F0800E090124
:1025FE00FE6FBAEC09F00901F751020A04E1380E38
:10260E00FE6FBAEC09F00901F751010A04E1340E2C
:10261E00FE6FBAEC09F0800E0901FE6FBAEC09F0FC
:10262E000901F751020A04E1390EFE6FBAEC09F006
:10263E000901F751010A04E1350EFE6FBAEC09F0FB
:10264E00800E0901FE6FBAEC09F01C0E0901FE6F37
:10265E00BAEC09F0800E0901FE6FBAEC09F0720EA9
:10266E000901FE6FBAEC09F0800E0901FE6FBAEC9B
:10267E0009F0550E0901FE6FBAEC09F0800E090142
:10268E00FE6FBAEC09F06C0E0901FE6FBAEC09F0A0
:10269E00800E0901FE6FBAEC09F00C0E0901FE6FF7
:1026AE00BAEC09F0800E0901FE6FBAEC09F0010ECA
:1026BE000901FE6FBAEC09F0800E0901FE6FBAEC4B
:1026CE0009F0060E0901FE6FBAEC09F0800E090141
:1026DE00FE6FBAEC09F0020E0901FE6FBAEC09F0BA
:0426EE0062DD120097
:1026F200949894968B988B9694889486C79EC79C40
:06270200380EC66E120045
:102708000901F86BF96B3F0EF715026E02C0F7F975
:10271800540EF86F02C000F00032009E0032009E96
:102728000032009E0032009E540E0010F86F700EAA
:10273800F96F0F0E0214006E700E0010F96FF8DCBE
:102748007C0E0901FE6FBAEC09F0800E0901FE6FDC
:10275800BAEC09F0F8C9FEF9BAEC09F0800E0901E3
:10276800FE6FBAEC09F0F9C9FEF9BAEC09F01EDD02
:102778000D0E0C6EFB0E0D6E0D2EFED70C2EFCD71B
:0627880000000000120039
:10278E000901CBA10BD00001E751000A03E1180E9D
:10279E00E76F01D0E707640E0601CE6F0901CBA5E6
:1027AE000AD00001E751180A02E1E76B01D0E72BCE
:1027BE00640E0601CE6F0901CBA303D0660E06018F
:1027CE00CE6F0901CB51050A27E1540E0A01176F8E
:1027DE00060E186FB40E196F040E1A6F100E1B6FC3
:1027EE00000E1C6F50EC01F00501146B860E0A01F1
:1027FE00176F060E186FC40E196F040E1A6F100E97
:10280E001B6F000E1C6F50EC01F0020E0601416FA3
:0A281E00010E536FFA0ECE6F120088
:10282800010E04011A6F0901CBA321D004011A6B10
:102838000701D86B650E0601CE6F73EC0AF0000134
:10284800E751000A14E10901D86B4950000A06E172
:10285800C80E0601CE6F010E04011B6F4950010A14
:1028680006E1C90E0601CE6F010E04011B6F0001BF
:10287800E751000A16E10901CBA108D04950000828
:1028880005E2490673EC0AF0660ECE6F0901CBA586
:1028980008D0010E495C05E2492A73EC0AF0660E7D
:1028A800CE6F0001E751010A16E10901CBA108D05A
:1028B800D451000805E2D40773EC0AF0660ECE6F17
:1028C8000901CBA508D0FF0ED45D05E2D42B73EC2B
:1028D8000AF0660ECE6F0001E751020A16E10901FF
:1028E800CBA108D03A51000805E23A0773EC0AF088
:1028F800660ECE6F0901CBA508D0FF0E3A5D05E242
:102908003A2B73EC0AF0660ECE6F0001E751030A0A
:1029180016E10901CBA108D0D751000805E2D70775
:1029280073EC0AF0660ECE6F0901CBA508D0FF0E36
:10293800D75D05E2D72B73EC0AF0660ECE6F000167
:10294800E751040A16E10901CBA108D0D6510008C5
:1029580005E2D60773EC0AF0660ECE6F0901CBA527
:1029680008D0FF0ED65D05E2D62B73EC0AF0660E92
:10297800CE6F0001E751050A16E10901CBA108D085
:10298800E051000805E2E00773EC0AF0660ECE6F2E
:102998000901CBA508D0FF0EE05D05E2E02B73EC42
:1029A8000AF0660ECE6F0001E751060A16E109012A
:1029B800CBA108D0DF51000805E2DF0773EC0AF06D
:1029C800660ECE6F0901CBA508D0FF0EDF5D05E2CC
:1029D800DF2B73EC0AF0660ECE6F0001E751070A91
:1029E80016E10901CBA108D0DE51000805E2DE0797
:1029F80073EC0AF0660ECE6F0901CBA508D0FF0E66
:102A0800DE5D05E2DE2B73EC0AF0660ECE6F000188
:102A1800E751080A16E10901CBA108D0E2510008E4
:102A280005E2E20773EC0AF0660ECE6F0901CBA54A
:102A380008D0FF0EE25D05E2E22B73EC0AF0660EA9
:102A4800CE6F0001E751090A22E10901CBA110D09C
:102A5800000E006EE651005C02E1E551010808E253
:102A6800010EE55F000EE65B73EC0AF0660ECE6FB2
:102A78000901CBA50CD0000EE65D02E10A0EE55D6A
:102A880006E2E54BE62B73EC0AF0660ECE6F00010A
:102A9800E7510A0A22E10901CBA110D0000E006E0D
:102AA8003851005C02E13751010808E2010E375F36
:102AB800000E385B73EC0AF0660ECE6F0901CBA5E9
:102AC8000CD0000E385D02E10A0E375D06E2374B86
:102AD800382B73EC0AF0660ECE6F0001E7510B0A33
:102AE80018E10901CBA109D00701CB51000805E283
:102AF800CB0773EC0AF0660ECE6F0901CBA509D09F
:102B08000F0E0701CB5D05E2CB2B73EC0AF0660EC6
:102B1800CE6F0001E7510C0A18E10901CBA109D0D9
:102B280008018251000805E2820773EC0AF0660E7C
:102B3800CE6F0901CBA509D00F0E0801825D05E211
:102B4800822B73EC0AF0660ECE6F0001E7510D0A76
:102B580016E10901CBA108D0E351000805E2E3071B
:102B680073EC0AF0660ECE6F0901CBA508D00A0EE9
:102B7800E35D05E2E32B73EC0AF0660ECE6F00010D
:102B8800E7510E0A16E10901CBA108D0E45100086B
:102B980005E2E40773EC0AF0660ECE6F0901CBA5D7
:102BA80008D00A0EE45D05E2E42B73EC0AF0660E29
:102BB800CE6F0001E7510F0A16E10901CBA108D039
:102BC800DD51000805E2DD0773EC0AF0660ECE6FF2
:102BD8000901CBA508D0FF0EDD5D05E2DD2B73EC06
:102BE8000AF0660ECE6F0001E751100A22E10901D2
:102BF800CBA110D0000E006ECA51005C02E1C95191
:102C0800000808E2010EC95F000ECA5B73EC0AF007
:102C1800660ECE6F0901CBA50CD0FD0ECA5D02E190
:102C2800E80EC95D06E2C94BCA2B73EC0AF0660EC2
:102C3800CE6F0001E751110A22E10601CE6B540E56
:102C48000A01176F060E186F230E196F090E1A6FF7
:102C5800100E1B6F000E1C6F50EC01F0010E0601E8
:102C6800416F04011A6B0701D86B010E0601536FFF
:102C7800010E04011B6F5CEC0FF031EC07F0000152
:102C8800E751120A16E10901CBA108D03B5100080F
:102C980005E23B0773EC0AF0660ECE6F0901CBA57F
:102CA80008D0010E3B5D05E23B2B73EC0AF0660E83
:102CB800CE6F0001E751130A16E10901CBA108D034
:102CC8003951000805E2390773EC0AF0660ECE6F39
:102CD8000901CBA508D0010E395D05E2392B73EC4B
:102CE8000AF0660ECE6F0001E751140A16E10901D9
:102CF800CBA108D0C851000805E2C80773EC0AF058
:102D0800660ECE6F0901CBA508D0010EC85D05E29D
:102D1800C82B73EC0AF0660ECE6F0001E751150A56
:102D280016E10901CBA108D0D551000805E2D50765
:102D380073EC0AF0660ECE6F0901CBA508D0010E20
:102D4800D55D05E2D52B73EC0AF0660ECE6F000157
:102D5800E751160A1FE10901CBA10CD0E151000887
:102D680009E2E107E151090AD8B4E16B73EC0AF012
:102D7800660ECE6F0901CBA50DD0FF0EE15D0AE20C
:102D8800E12BE151010A02E10A0EE16F73EC0AF04E
:102D9800660ECE6F0001E751170A1CE1670E0601A7
:102DA800CE6F540E0A01176F060E186F230E196F97
:102DB800090E1A6F100E1B6F000E1C6F50EC01F0FD
:102DC80004011A6B010E0601416F010E536F010ECB
:102DD80004011B6F0001E751180A1DE10601CE6BC3
:102DE800540E0A01176F060E186F230E196F090E7D
:102DF8001A6F100E1B6F000E1C6F50EC01F00401CF
:102E08001A6B010E0601416F010E536F00EC09F0B9
:082E1800010E04011B6F120002
:102E20000901F76BFE6BBEEC10F000C033F901C076
:102E300034F9010E0901FE6FBEEC10F000C035F947
:102E400001C036F906015251000A03E10801886BFE
:102E5000896B0601F451000A03E10801866B876B58
:102E60000601F551000A22E00801C6510901345D4E
:102E700004E10801C5510901335D0AE2FF0E0801B2
:102E8000895D02E1FA0E885D02E2884B892B0DD044
:102E90000801000E006E8951005C02E188510008B3
:102EA00004E2010E885F000E895B03D00801886B85
:102EB000896B8951C85D02E18851C75D02E2090151
:102EC000F78106013151000A22E00801CC510901C5
:102ED000365D04E10801CB510901355D0AE2FF0EC0
:102EE0000801875D02E1FA0E865D02E2864B872BC0
:102EF0000DD00801000E006E8751005C02E1865182
:102F0000000804E2010E865F000E875B03D0080113
:102F1000866B876B8751CE5D02E18651CD5D02E203
:0A2F20000901F783F7C900F0120061
:102F2A00838E010E0601746F010E0901FE6F3FECDC
:102F3A000AF0005232E0010EFE6F010EFF6FA2ECA2
:102F4A000FF0400E0A01016F020E026F010E036FAD
:102F5A00C8EC08F0839C540E0A01176F060E186F0E
:102F6A00970E196F060E1A6F100E1B6F000E1C6F4C
:102F7A0050EC01F0860E176F060E186F750E196F5A
:102F8A00060E1A6F100E1B6F000E1C6F50EC01F02C
:102F9A00010E0601536F010E416F020E0901FE6F09
:102FAA003FEC0AF0005210E0020EFE6F010EFF6FB6
:102FBA00A2EC0FF04F0E0A01016F020E026F010E12
:102FCA00036FC8EC08F0839C0A0E0901FE6F3FEC00
:102FDA000AF0005211E0010E0601526F010E0901BA
:102FEA00FE6FD9EC0FF0140E0A01016F020E026F88
:102FFA00010E036FC8EC08F00B0E0901FE6F3FECDF
:10300A000AF0005211E0010E0601F46F020E0901E6
:10301A00FE6FD9EC0FF02A0E0A01016F020E026F41
:10302A00010E036FC8EC08F0050E0901FE6F3FECB4
:10303A000AF0005211E0010EFE6F31C6FFF992EC60
:10304A000FF00601516B660E0A01016F020E026F44
:10305A00010E036FC8EC08F0060E0901FE6F3FEC83
:10306A000AF0005211E0F5C6FEF9010EFF6F92EC6C
:10307A000FF00701236B170E0A01016F030E026F8F
:10308A00010E036FC8EC08F0030E0901FE6F3FEC56
:10309A000AF0005209E106015251010A04E109014C
:1030AA00D0A101D001D012D00601B7A10FD0B7919B
:1030BA00010E0901FE6FF1EC08F0260E0A01016FFC
:1030CA00030E026F010E036FC8EC08F0040E09012B
:1030DA00FE6F3FEC0AF0005209E10601F451010AC1
:1030EA0004E10901D0A301D001D012D00601B7A38F
:1030FA000FD0B793020E0901FE6FF1EC08F0F70E3C
:10310A000A01016F020E026F010E036FC8EC08F08C
:10311A000C0E0901FE6F3FEC0AF00052D8A4838C12
:10312A003A51000A05E00501AB51010A01E002D05B
:10313A000601B793030E0501AA5DD8A09FD0090125
:10314A00D1A132D03B5330E0010EFE6FF1EC08F012
:10315A00020E0901FE6FF1EC08F00601526BF46BE6
:10316A00050ECE6F060E0A01016F030E026F010EE5
:10317A00036FC8EC08F0090E0901FE6FEBEC0FF0C3
:10318A00540E0A01176F060E186F3B0E196F050EC3
:10319A001A6F100E1B6F000E1C6F50EC01F0010E1F
:1031AA000601536F010E416F0901CF51000A30E049
:1031BA00010EFE6FF1EC08F0020E0901FE6FF1EC50
:1031CA0008F0050E0601CE6F526BF46B590E0A0118
:1031DA00016F030E026F010E036FC8EC08F0090EAF
:1031EA000901FE6FEBEC0FF0540E0A01176F060E81
:1031FA00186F190E196F050E1A6F100E1B6F000E3D
:10320A001C6F50EC01F0010E0601536F010E416F65
:10321A000901D251010A32E1395330E0010EFE6F41
:10322A00F1EC08F0020E0901FE6FF1EC08F0050E50
:10323A000601CE6F526BF46B730E0A01016F030E17
:10324A00026F010E036FC8EC08F0090E0901FE6F48
:10325A00EBEC0FF0540E0A01176F060E186F4C0EA6
:10326A00196F050E1A6F100E1B6F000E1C6F50ECB3
:10327A0001F0010E0601536F010E416F0601B751AD
:10328A00000AD8A4ADD0000E0901CA1902E1000E45
:10329A00C91919E0C951060107250A01016F090177
:1032AA00CA51060108210A01026F000E060109210E
:1032BA000A01036F000E06010A210A01046F090EB2
:1032CA00056FCBEC09F0C85371E0010EFE6FFF6B7E
:1032DA00A2EC0FF0020E0901FE6FFF6BA2EC0FF0D9
:1032EA00010E0901FE6F31C6FFF992EC0FF00601DB
:1032FA00526B516BF5C6FEF9010E0901FF6F92EC94
:10330A000FF00601F46B0701236B010E0601072576
:10331A000A01016F000E060108210A01026F000E60
:10332A00060109210A01036F000E06010A210A019A
:10333A00046F030E056FCBEC09F0010E0601072599
:10334A000A01016F000E060108210A01026F000E30
:10335A00060109210A01036F000E06010A210A016A
:10336A00046F040E056FCBEC09F0010E0601072568
:10337A000A01016F000E060108210A01026F000E00
:10338A00060109210A01036F000E06010A210A013A
:10339A00046F010E0127000E0223032304230D0EDE
:1033AA00056FCBEC09F00601B7851AD00601010EAC
:1033BA0007250A01016F000E060108210A01026FA2
:1033CA00000E060109210A01036F000E06010A21F7
:1033DA000A01046F0D0E056FCBEC09F00601B785E3
:1033EA000D0E0901FE6F3FEC0AF000522CE0020EAE
:1033FA000601CE6F1C6B066B090E0901FE6FEBEC22
:10340A000FF0540E0A01176F060E186F0B0E196F84
:10341A00060E1A6F100E1B6F000E1C6F50EC01F097
:10342A00860E176F060E186F750E196F060E1A6F35
:10343A00100E1B6F000E1C6F50EC01F0010E0601FE
:10344A00536F020E416F0601CE51050A04E0CE51B8
:10345A00060A01E02FD00901FE6BEBEC0FF0000E1B
:10346A00CA1902E1000EC91925E0C951060107254A
:10347A000A01016F0901CA51060108210A01026FF6
:10348A00000E060109210A01036F000E06010A2136
:10349A000A01046F090E056FCBEC09F00601056BF2
:1034AA00066B350E0A01016F030E026F010E036FE0
:0634BA00C8EC08F012004E
:1034C000838E010E0601746F010E0901FE6F3FEC41
:1034D0000AF000520EE0010EFE6FFF6BA2EC0FF03F
:1034E000AC0E0A01016F050E026F010E036FC8ECEE
:1034F00008F0020E0901FE6F3FEC0AF0005230E0C6
:10350000020EFE6FFF6BA2EC0FF0F60E0A01016FC8
:10351000050E026F010E036FC8EC08F0540E0A018D
:10352000176F060E186FE50E196F050E1A6F100E45
:103530001B6F000E1C6F50EC01F0860E176F060E0D
:10354000186F750E196F060E1A6F100E1B6F000E96
:103550001C6F50EC01F0010E0601536F010E416F1C
:103560000A0E0901FE6F3FEC0AF0005211E0010E55
:103570000601526F010E0901FE6FD9EC0FF0D00E5B
:103580000A01016F050E026F010E036FC8EC08F00F
:103590000B0E0901FE6F3FEC0AF0005211E0010E24
:1035A0000601F46F020E0901FE6FD9EC0FF0240E34
:1035B0000A01016F070E026F010E036FC8EC08F0DD
:1035C000050E0901FE6F3FEC0AF0005212E0010EF9
:1035D000FE6F31C6FFF992EC0FF00601526B516B92
:1035E000530E0A01016F080E026F010E036FC8EC43
:1035F00008F0070E0901FE6F3FEC0AF0005212E0DE
:10360000FE6B31C6FFF992EC0FF00601526B010E12
:10361000516F420E0A01016F080E026F010E036F17
:10362000C8EC08F0060E0901FE6F3FEC0AF00052EC
:1036300011E0F5C6FEF9010EFF6F92EC0FF00701E5
:10364000236B330E0A01016F080E026F010E036F28
:10365000C8EC08F0080E0901FE6F3FEC0AF00052BA
:1036600011E0F5C6FEF9FF6B92EC0FF0010E0701B9
:10367000236F700E0A01016F080E026F010E036FB7
:10368000C8EC08F0030E0901FE6F3FEC0AF000528F
:1036900010E008016F91010E0901FE6FF1EC08F0D6
:1036A000620E0A01016F080E026F010E036FC8EC73
:1036B00008F0040E0901FE6F3FEC0AF0005210E022
:1036C00008016F93020E0901FE6FF1EC08F0FF0E86
:1036D0000A01016F070E026F010E036FC8EC08F0BC
:1036E00006015251010A38E10901D0A135D0060185
:1036F0005151000A31E1010E0901FE6FF1EC08F0B1
:10370000020E0901FE6FF1EC08F0060E0601CE6F05
:10371000526BF46BEE0E0A01016F070E026F010E81
:10372000036FC8EC08F0090E0901FE6FEBEC0FF017
:10373000540E0A01176F060E186F990E196F050EB9
:103740001A6F100E1B6F000E1C6F50EC01F0010E73
:103750000601536F010E416F0601F451010A38E171
:103760000901D0A335D007012351000A31E1010E30
:103770000901FE6FF1EC08F0020E0901FE6FF1EC99
:1037800008F0060E0601CE6F526BF46BDD0E0A01D7
:10379000016F070E026F010E036FC8EC08F0090EEF
:1037A0000901FE6FEBEC0FF0540E0A01176F060EC5
:1037B000186F990E196F050E1A6F100E1B6F000E01
:1037C0001C6F50EC01F0010E0601536F010E416FAA
:1037D00009013A51000A05E00501AB51010A01E077
:1037E00002D008016F93030E0501AA5DD8A09FD0F7
:1037F0000901D1A132D0010EFE6FF1EC08F0020EEA
:103800000901FE6FF1EC08F00601526BF46B060E35
:10381000CE6F010E0801326F210E0A01016F080EF2
:10382000026F010E036FC8EC08F00901FE6BEBECB0
:103830000FF0540E0A01176F060E186F3B0E196F2A
:10384000050E1A6F100E1B6F000E1C6F50EC01F06E
:10385000010E0601536F010E416F0901D251020A98
:1038600032E1395330E0010EFE6FF1EC08F0020E48
:103870000901FE6FF1EC08F0060E0601CE6F526BE7
:10388000F46B0C0E0A01016F080E026F010E036F3C
:10389000C8EC08F0090E0901FE6FEBEC0FF0540EB6
:1038A0000A01176F060E186F4C0E196F050E1A6F6E
:1038B000100E1B6F000E1C6F50EC01F0010E060184
:1038C000536F010E416F0901CF51000A30E0010E24
:1038D000FE6FF1EC08F0020E0901FE6FF1EC08F04A
:1038E000060E0601CE6F526BF46BB00E0A01016F2B
:1038F000080E026F010E036FC8EC08F0090E0901F3
:10390000FE6FEBEC0FF0540E0A01176F060E186FE6
:10391000190E196F050E1A6F100E1B6F000E1C6F1B
:1039200050EC01F0010E0601536F010E416F0801CA
:103930006F51000AD8A4A7D00901C853D8B489D0C0
:10394000010EFE6F010EFF6FA2EC0FF0010E0601DB
:1039500007250A01016F000E060108210A01026F06
:10396000000E060109210A01036F000E06010A215B
:103970000A01046F0E0E056FCBEC09F0010EFE6F0D
:1039800031C6FFF992EC0FF00601526B516BF5C690
:10399000FEF9010E0901FF6F92EC0FF00601F46BC6
:1039A0000701236B010E060107250A01016F000EB6
:1039B000060108210A01026F000E060109210A0111
:1039C000036F000E06010A210A01046F030E056F42
:1039D000CBEC09F0010E060107250A01016F000E6C
:1039E000060108210A01026F000E060109210A01E1
:1039F000036F000E06010A210A01046F010E012760
:103A0000000E022303230423040E056FCBEC09F000
:103A1000010E060107250A01016F000E06010821AB
:103A20000A01026F000E060109210A01036F000E50
:103A300006010A210A01046F010E0127000E02236C
:103A4000032304230D0E056FCBEC09F008016F85ED
:103A50001AD0010E060107250A01016F000E0601AA
:103A600008210A01026F000E060109210A01036FF5
:103A7000000E06010A210A01046F0D0E056FCBEC42
:103A800009F008016F850E0E0901FE6F3FEC0AF088
:103A9000005206E0020EFE6F010EFF6FA2EC0FF067
:103AA0000D0E0901FE6F3FEC0AF000522CE0010EF2
:103AB0000601CE6F1C6B066B090E0901FE6FEBEC65
:103AC0000FF0540E0A01176F060E186F9F0E196F34
:103AD000080E1A6F100E1B6F000E1C6F50EC01F0D9
:103AE000860E176F060E186F750E196F060E1A6F79
:103AF000100E1B6F000E1C6F50EC01F0010E060142
:103B0000536F010E416F0601CE51050A04E0CE51FC
:103B1000060A01E031D00901FE6BEBEC0FF0000E5C
:103B2000CA1902E1000EC91927E00601066B090156
:103B3000C951060107250A01016F0901CA51060191
:103B400008210A01026F000E060109210A01036F14
:103B5000000E06010A210A01046F090E056FCBEC65
:103B600009F00601056B8A0E0A01016F080E026F4B
:0A3B7000010E036FC8EC08F012000C
:103B7A000901CBA326D0010E0601CE6F839E540EF7
:103B8A000A01176F060E186F0B0E196F060E1A6FC1
:103B9A00100E1B6F000E1C6F50EC01F0860E176F93
:103BAA00060E186F5C0E196F070E1A6F100E1B6F38
:103BBA00000E1C6F50EC01F0020E0601416F010E5F
:103BCA00536FE2D1838E0901CFA106D0020E086F8E
:103BDA00D82B010E07015B6F0901CFA307D0010E95
:103BEA00086F030ED86F010E07015B6F0601526B57
:103BFA00F46B02D2020E0901FE6FFF6BA2EC0FF00A
:103C0A00060E060107250A01016F000E06010821AA
:103C1A000A01026F000E060109210A01036F000E54
:103C2A0006010A210A01046F150E056FCBEC09F093
:103C3A00D82BE2D1D0A30CD00601F451010A08E135
:103C4A00F46B020E0901FE6FF1EC08F00901D82BA2
:103C5A000901150EFE6F3FEC0AF0005203E0010E57
:103C6A000601F46FC9D1010E0901FE6FFF6BA2ECC8
:103C7A000FF0060E060107250A01016F000E060164
:103C8A0008210A01026F000E060109210A01036FC9
:103C9A00000E06010A210A01046F140E056FCBEC0F
:103CAA0009F0D82BD0A10CD006015251010A08E123
:103CBA00526B010E0901FE6FF1EC08F00901D82BD5
:103CCA000901140EFE6F3FEC0AF0005203E0010EE8
:103CDA000601526F91D107C60AF908C60BF909C63F
:103CEA000CF90AC60DF9010E0901FE6F010EFF6FEC
:103CFA00A2EC0FF0060E060107250A01016F000E5D
:103D0A00060108210A01026F000E060109210A01B3
:103D1A00036F000E06010A210A01046F140E056FD3
:103D2A00CBEC09F0D82B68D1D0A118D0060152519A
:103D3A00010A14E1526B010E0901FE6FF1EC08F061
:103D4A0009010851010A03E10B0ED86F01D0D82BE3
:103D5A000A510601075D006E00C0FDF8140E090144
:103D6A00FE6F3FEC0AF0005203E0010E0601526FAB
:103D7A0043D107C60AF908C60BF909C60CF90AC6DF
:103D8A000DF9020E0901FE6F010EFF6FA2EC0FF092
:103D9A00060E060107250A01016F000E0601082119
:103DAA000A01026F000E060109210A01036F000EC3
:103DBA0006010A210A01046F150E056FCBEC09F002
:103DCA00D82B1AD1D0A312D00601F451010A0EE160
:103DDA00F46B020E0901FE6FF1EC08F00901D82B11
:103DEA000A510601075D006E00C0FFF8150E0901B1
:103DFA00FE6F3FEC0AF0005203E0010E0601F46F79
:103E0A00FBD007C60AF908C60BF909C60CF90AC697
:103E1A000DF9020E0901FE6FFF6BA2EC0FF0060E00
:103E2A00060107250A01016F000E060108210A0191
:103E3A00026F000E060109210A01036F000E060136
:103E4A000A210A01046F150E056FCBEC09F0D82B75
:103E5A00D3D0D0A312D00601F451010A0EE1F46BBB
:103E6A00020E0901FE6FF1EC08F00901D82B0A5184
:103E7A000601075D006E00C0FEF8150E0901FE6F0F
:103E8A003FEC0AF0005203E0010E0601F46FB4D0D1
:103E9A0007C60AF908C60BF909C60CF90AC60DF9CC
:103EAA00010E0901FE6FFF6BA2EC0FF0060E060170
:103EBA0007250A01016F000E060108210A01026F97
:103ECA00000E060109210A01036F000E06010A21EC
:103EDA000A01046F140E056FCBEC09F0D82B8CD0B5
:103EEA00D0A112D006015251010A0EE1526B010E05
:103EFA000901FE6FF1EC08F00901D82B0A510601FD
:103F0A00075D006E00C0FCF8140E0901FE6F3FEC5D
:103F1A000AF0005203E0010E0601526F6DD0FC0E4A
:103F2A000901FE6F080EFF6F40EC08F0FC0E0A0153
:103F3A00016F080E026F08C903FA3FEC0EF0540E27
:103F4A000A01176F060E186F8F0E196F070E1A6F78
:103F5A00100E1B6F000E1C6F50EC01F0860E176FCF
:103F6A00060E186F7E0E196F070E1A6F100E1B6F52
:103F7A00000E1C6F50EC01F0020E0601416F010E9B
:103F8A00536F839ECE6B38D00901D851000AD8B43A
:103F9A0019D6D851010AD8B42DD6D851020AD8B4A4
:103FAA0049D6D851030AD8B45ED6D851040AD8B42F
:103FBA0079D6D851050AD8B48ED6D851060AD8B4BB
:103FCA00B3D6D851070AD8B4D4D6D851080AD8B427
:103FDA00F9D6D851090AD8B414D7D8510A0AD8B48C
:103FEA0038D7D8510B0AD8B453D7D8510C0AD8B4F9
:0A3FFA0077D7D8510D0A93E01200AA
:10400400020E0901F76F839E0601746BFEEC0EF03D
:1040140000500601061922E00701D86BFEEC0EF0F1
:1040240000C006F600C001FA910E0A01026F060EE6
:10403400036F57EC0AF0860E176F060E186FCC0E3E
:10404400196F070E1A6F0B0E1B6F000E1C6F50ECCE
:1040540001F0010E0601536F020E416F0901CF51A9
:10406400000A08E1090EFE6F3FEC0AF00050010A55
:1040740001E0DED1D651000A05E00501AB51010A89
:1040840001E086D00901FE6BEBEC0FF0F75106015D
:104094000725006E000E0821016E000E0921026E34
:1040A400000E0A21036E00C0D9F901C0DAF902C07A
:1040B400DBF903C0DCF900C001FA01C002FA02C056
:1040C40003FA03C004FA010E0A01056FCBEC09F0F0
:1040D400D9C901FADAC902FADBC903FADCC904FA5C
:1040E400050E0A01056FCBEC09F00601516B060EB3
:1040F4000725006E000E0821016E000E0921026ED4
:10410400000E0A21036E0901F7510026000E012258
:104114000222032200C0D9F901C0DAF902C0DBF996
:1041240003C0DCF900C001FA01C002FA02C003FABC
:1041340003C004FA0A0E0A01056FCBEC09F0D7514B
:1041440006010725006E000E0821016E000E0921EC
:10415400026E000E0A21036E0901F7510026000EBB
:1041640001220222032200C0D9F901C0DAF902C0F7
:10417400DBF903C0DCF900C001FA01C002FA02C095
:1041840003FA03C004FA030E0A01056FCBEC09F02D
:104194000901D651000AD8B43FD10501AB51020A36
:1041A400D8A43AD1090E0901FE6FEBEC0FF0F751D8
:1041B40006010725006E000E0821016E000E09217C
:1041C400026E000E0A21036E00C0D9F901C0DAF9AB
:1041D40002C0DBF903C0DCF900C001FA01C002FA35
:1041E40002C003FA03C004FA020E0A01056FCBEC05
:1041F40009F0D9C901FADAC902FADBC903FADCC940
:1042040004FA060E0A01056FCBEC09F00601516BA6
:10421400060E0725006E000E0821016E000E09210E
:10422400026E000E0A21036E0901F7510026000EEA
:1042340001220222032200C0D9F901C0DAF902C026
:10424400DBF903C0DCF900C001FA01C002FA02C0C4
:1042540003FA03C004FA0B0E0A01056FCBEC09F054
:10426400D75106010725006E000E0821016E000ECD
:104274000921026E000E0A21036E0901F75100267E
:10428400000E01220222032200C0D9F901C0DAF98A
:1042940002C0DBF903C0DCF900C001FA01C002FA74
:1042A40002C003FA03C004FA040E0A01056FCBEC42
:1042B40009F0DD5106010725006E000E0821016E8C
:1042C400000E0921026E000E0A21036E0901F75146
:1042D4000026000E01220222032200C0D9F901C0E7
:1042E400DAF902C0DBF903C0DCF900C001FA01C04D
:1042F40002FA02C003FA03C004FA010E0A01056FB0
:10430400CBEC09F0DD5106010725006E000E0821F3
:10431400016E000E0921026E000E0A21036E0901CE
:10432400F7510026000E01220222032200C0D9F90F
:1043340001C0DAF902C0DBF903C0DCF900C001FAFC
:1043440001C002FA02C003FA03C004FA050E0A010E
:10435400056FCBEC09F00701236B0901DD51060160
:104364000725006E000E0821016E000E0921026E61
:10437400000E0A21036E060E0026000E0122022200
:1043840003220901F7510026000E01220222032212
:1043940000C0D9F901C0DAF902C0DBF903C0DCF9C5
:1043A40000C001FA01C002FA02C003FA03C004FA11
:1043B4000A0E0A01056FCBEC09F0D6510601072558
:1043C400006E000E0821016E000E0921026E000E1F
:1043D4000A21036E0901F7510026000E0122022270
:1043E4000322DD510026000E01220222032200C016
:1043F400D9F901C0DAF902C0DBF903C0DCF900C065
:1044040001FA01C002FA02C003FA03C004FA030E5F
:104414000A01056FCBEC09F0030E08016F6F06016A
:10442400526BF46B0501AA6B0601056B070ECE6F88
:104434000901D1A117D0000ECA1902E1000EC91951
:1044440011E006011C51000A0DE1010E1C6F010E62
:10445400056FA00E0A01016F070E026F010E036FB4
:10446400C8EC08F006011C51010A15E10901D1B19B
:1044740012D0000ECA1902E1000EC9190CE006019F
:10448400056B1C6BB50E0A01016F070E026F010E5E
:08449400036FC8EC08F01200F0
:10449C00030E0901F76F839E0601746BFEEC0EF0A0
:1044AC0000500601061922E00701D86BFEEC0EF055
:1044BC0000C006F600C001FA910E0A01026F060E4A
:1044CC00036F57EC0AF0860E176F060E186FA30ECB
:1044DC00196F000E1A6F0B0E1B6F000E1C6F50EC39
:1044EC0001F0010E0601536F020E416F0901CF510D
:1044FC00000A04E10801325301E14DD10801326B8D
:10450C00838E010E0601746F0901FE6BEBEC0FF04C
:10451C00C85318E0010E060107250A01016F000EB1
:10452C00060108210A01026F000E060109210A0189
:10453C00036F000E06010A210A01046F0C0E056FB1
:10454C00CBEC09F0F75106010725006E000E08218F
:10455C00016E000E0921026E000E0A21036E00C0CE
:10456C00D9F901C0DAF902C0DBF903C0DCF900C0EB
:10457C0001FA01C002FA02C003FA03C004FA010EE8
:10458C000A01056FCBEC09F0D9C901FADAC902FAB4
:10459C00DBC903FADCC904FA050E0A01056FCBEC82
:1045AC0009F00601516B060E0725006E000E08215E
:1045BC00016E000E0921026E000E0A21036E090124
:1045CC00F7510026000E01220222032200C0D9F965
:1045DC0001C0DAF902C0DBF903C0DCF900C001FA52
:1045EC0001C002FA02C003FA03C004FA0A0E0A015F
:1045FC00056FCBEC09F0D45106010725006E000EB7
:10460C000821016E000E0921026E000E0A21036EB4
:10461C000901F7510026000E01220222032200C0DC
:10462C00D9F901C0DAF902C0DBF903C0DCF900C02A
:10463C0001FA01C002FA02C003FA03C004FA030E25
:10464C000A01056FCBEC09F03A51000AD8B497D0A7
:10465C000501AB51020AD8A492D00901DD51060123
:10466C0007250A01016F000E060108210A01026FDD
:10467C00000E060109210A01036F000E06010A2132
:10468C000A01046F0901F7510A010127000E0223E8
:10469C0003230423020E056FCBEC09F0DD51060158
:1046AC0007250A01016F000E060108210A01026F9D
:1046BC00000E060109210A01036F000E06010A21F2
:1046CC000A01046F0901F7510A010127000E0223A8
:1046DC0003230423060E056FCBEC09F00701236BB3
:1046EC000901DD51060107250A01016F000E0601C3
:1046FC0008210A01026F000E060109210A01036F4D
:10470C00000E06010A210A01046F060E0127000E95
:10471C000223032304230901F7510A010127000E88
:10472C000223032304230B0E056FCBEC09F03A5143
:10473C00060107250A01016F000E060108210A0176
:10474C00026F000E060109210A01036F000E06011B
:10475C000A210A01046F0901DD510A010127000E2B
:10476C000223032304230901F7510A010127000E38
:10477C00022303230423040E056FCBEC09F0030E74
:10478C000601B76F526BF46B1C6B0501AA6B06012B
:10479C00056B080ECE6F090E0901FE6F3FEC0AF097
:1047AC000050010AD8A4DED1D651000A05E005015B
:1047BC00AB51010A01E086D00901FE6BEBEC0FF066
:1047CC00F75106010725006E000E0821016E000E40
:1047DC000921026E000E0A21036E00C0D9F901C036
:1047EC00DAF902C0DBF903C0DCF900C001FA01C040
:1047FC0002FA02C003FA03C004FA010E0A01056FA3
:10480C00CBEC09F0D9C901FADAC902FADBC903FA0F
:10481C00DCC904FA050E0A01056FCBEC09F00601A0
:10482C00516B060E0725006E000E0821016E000E5E
:10483C000921026E000E0A21036E0901F7510026B0
:10484C00000E01220222032200C0D9F901C0DAF9BC
:10485C0002C0DBF903C0DCF900C001FA01C002FAA6
:10486C0002C003FA03C004FA0A0E0A01056FCBEC6E
:10487C0009F0D75106010725006E000E0821016EC4
:10488C00000E0921026E000E0A21036E0901F75178
:10489C000026000E01220222032200C0D9F901C019
:1048AC00DAF902C0DBF903C0DCF900C001FA01C07F
:1048BC0002FA02C003FA03C004FA030E0A01056FE0
:1048CC00CBEC09F00901D651000AD8B43ED1050150
:1048DC00AB51020AD8A439D10901FE6BEBEC0FF0F5
:1048EC00F75106010725006E000E0821016E000E1F
:1048FC000921026E000E0A21036E00C0D9F901C015
:10490C00DAF902C0DBF903C0DCF900C001FA01C01E
:10491C0002FA02C003FA03C004FA020E0A01056F80
:10492C00CBEC09F0D9C901FADAC902FADBC903FAEE
:10493C00DCC904FA060E0A01056FCBEC09F006017E
:10494C00516B060E0725006E000E0821016E000E3D
:10495C000921026E000E0A21036E0901F75100268F
:10496C00000E01220222032200C0D9F901C0DAF99B
:10497C0002C0DBF903C0DCF900C001FA01C002FA85
:10498C0002C003FA03C004FA0B0E0A01056FCBEC4C
:10499C0009F0D75106010725006E000E0821016EA3
:1049AC00000E0921026E000E0A21036E0901F75157
:1049BC000026000E01220222032200C0D9F901C0F8
:1049CC00DAF902C0DBF903C0DCF900C001FA01C05E
:1049DC0002FA02C003FA03C004FA040E0A01056FBE
:1049EC00CBEC09F0DD5106010725006E000E082105
:1049FC00016E000E0921026E000E0A21036E0901E0
:104A0C00F7510026000E01220222032200C0D9F920
:104A1C0001C0DAF902C0DBF903C0DCF900C001FA0D
:104A2C0001C002FA02C003FA03C004FA010E0A0123
:104A3C00056FCBEC09F0DD5106010725006E000E69
:104A4C000821016E000E0921026E000E0A21036E70
:104A5C000901F7510026000E01220222032200C098
:104A6C00D9F901C0DAF902C0DBF903C0DCF900C0E6
:104A7C0001FA01C002FA02C003FA03C004FA050EDF
:104A8C000A01056FCBEC09F00701236B0901DD511D
:104A9C0006010725006E000E0821016E000E09218B
:104AAC00026E000E0A21036E060E0026000E012275
:104ABC00022203220901F7510026000E01220222D4
:104ACC00032200C0D9F901C0DAF902C0DBF903C036
:104ADC00DCF900C001FA01C002FA02C003FA03C0FB
:104AEC0004FA0A0E0A01056FCBEC09F0D651060147
:104AFC000725006E000E0821016E000E0921026EC2
:104B0C00000E0A21036E0901F7510026000E012246
:104B1C0002220322DD510026000E01220222032272
:104B2C0000C0D9F901C0DAF902C0DBF903C0DCF925
:104B3C0000C001FA01C002FA02C003FA03C004FA71
:104B4C00030E0A01056FCBEC09F0030E08016F6F21
:104B5C000601526BF46B1C6B0501AA6B0601056B0D
:104B6C00070ECE6F0901D1A117D0000ECA1902E1B0
:104B7C00000EC91911E006011C51000A0DE1010ECD
:104B8C001C6F010E056FE80E0A01016F000E026F1B
:104B9C00010E036FC8EC08F006011C51010A15E167
:104BAC000901D1B112D0000ECA1902E1000EC919C7
:104BBC000CE00601056B1C6BFD0E0A01016F000E6B
:0C4BCC00026F010E036FC8EC08F012002D
:104BD800838E010E0601746F010E0901FE6F3FEC12
:104BE8000AF000520EE0010EFE6FFF6BA2EC0FF010
:104BF8004A0E0A01016F030E026F010E036FC8EC23
:104C080008F0020E0901FE6F3FEC0AF0005230E096
:104C1800020EFE6FFF6BA2EC0FF0990E0A01016FF6
:104C2800020E026F010E036FC8EC08F0540E0A0161
:104C3800176F060E186FE50E196F050E1A6F100E16
:104C48001B6F000E1C6F50EC01F0860E176F060EDE
:104C5800186F750E196F060E1A6F100E1B6F000E67
:104C68001C6F50EC01F0010E0601536F010E416FED
:104C78000A0E0901FE6F3FEC0AF0005211E0010E26
:104C88000601526F010E0901FE6FD9EC0FF0A80E54
:104C98000A01016F020E026F010E036FC8EC08F0E3
:104CA8000B0E0901FE6F3FEC0AF0005211E0010EF5
:104CB8000601F46F020E0901FE6FD9EC0FF0750EB4
:104CC8000A01016F020E026F010E036FC8EC08F0B3
:104CD800050E0901FE6F3FEC0AF0005211E0010ECB
:104CE800FE6F31C6FFF992EC0FF00601516B8A0E88
:104CF8000A01016F020E026F010E036FC8EC08F083
:104D0800060E0901FE6F3FEC0AF0005211E0F5C6ED
:104D1800FEF9010EFF6F92EC0FF00701236BDB0E1B
:104D28000A01016F020E026F010E036FC8EC08F052
:104D3800030E0901FE6F3FEC0AF0005209E106017B
:104D48005251010A04E10901D0A101D001D012D0C9
:104D580008016FA10FD06F91010E0901FE6FF1ECF0
:104D680008F0EA0E0A01016F020E026F010E036FCE
:104D7800C8EC08F0040E0901FE6F3FEC0AF000527F
:104D880009E10601F451010A04E10901D0A301D0A7
:104D980001D012D008016FA30FD06F93020E090142
:104DA800FE6FF1EC08F0BD0E0A01016F020E026FF2
:104DB800010E036FC8EC08F009013A51000A05E03A
:104DC8000501AB51010A01E002D008016F93030EFF
:104DD8000501AA5DD8A0A0D00901D1A133D0010E48
:104DE800FE6FF1EC08F0020E0901FE6FF1EC08F01D
:104DF8000601526BF46B060ECE6F010E0801326F7E
:104E0800CA0E0A01016F020E026F010E036FC8EC91
:104E180008F0090E0901FE6FEBEC0FF0540E0A01C1
:104E2800176F060E186F3B0E196F050E1A6F100ECE
:104E38001B6F000E1C6F50EC01F0010E0601536F42
:104E4800010E416F0901CF51000A30E0010EFE6FDB
:104E5800F1EC08F0020E0901FE6FF1EC08F0060E05
:104E68000601CE6F526BF46BAF0E0A01016F000E94
:104E7800026F010E036FC8EC08F0090E0901FE6FFE
:104E8800EBEC0FF0540E0A01176F060E186F190E8F
:104E9800196F050E1A6F100E1B6F000E1C6F50EC69
:104EA80001F0010E0601536F010E416F0901D25145
:104EB800020A32E1395330E0010EFE6FF1EC08F0DE
:104EC800020E0901FE6FF1EC08F0060E0601CE6F26
:104ED800526BF46BC10E0A01016F000E026F010ED6
:104EE800036FC8EC08F0090E0901FE6FEBEC0FF038
:104EF800860E0A01176F060E186F4C0E196F050EF5
:104F08001A6F100E1B6F000E1C6F50EC01F0010E93
:104F18000601536F010E416F08016F51000AD8A4B2
:104F2800A7D00901C853D8B489D0010EFE6F010E6D
:104F3800FF6FA2EC0FF0010E060107250A01016FB1
:104F4800000E060108210A01026F000E0601092160
:104F58000A01036F000E06010A210A01046F0E0EF2
:104F6800056FCBEC09F0010EFE6F31C6FFF992EC2C
:104F78000FF00601526B516BF5C6FEF9010E0901DF
:104F8800FF6F92EC0FF00601F46B0701236B010E23
:104F9800060107250A01016F000E060108210A0112
:104FA800026F000E060109210A01036F000E0601B7
:104FB8000A210A01046F030E056FCBEC09F0010EFC
:104FC800060107250A01016F000E060108210A01E2
:104FD800026F000E060109210A01036F000E060187
:104FE8000A210A01046F010E0127000E0223032380
:104FF8000423040E056FCBEC09F0010E060107250A
:105008000A01016F000E060108210A01026F000E55
:10501800060109210A01036F000E06010A210A018F
:10502800046F010E0127000E0223032304230D0E33
:10503800056FCBEC09F008016F851AD0010E060147
:1050480007250A01016F000E060108210A01026FF7
:10505800000E060109210A01036F000E06010A214C
:105068000A01046F0D0E056FCBEC09F008016F857E
:105078000E0E0901FE6F3FEC0AF0005206E0020E28
:10508800FE6F010EFF6FA2EC0FF00D0E0901FE6F0F
:105098003FEC0AF000522CE0010E0601CE6F1C6BAB
:1050A800066B090E0901FE6FEBEC0FF0540E0A01B6
:1050B800176F060E186F9F0E196F080E1A6F100ED5
:1050C8001B6F000E1C6F50EC01F0860E176F060E5A
:1050D800186F750E196F060E1A6F100E1B6F000EE3
:1050E8001C6F50EC01F0010E0601536F010E416F69
:1050F8000601CE51050A04E0CE51060A01E02FD080
:105108000901FE6BEBEC0FF0000ECA1902E1000E6C
:10511800C91925E0C951060107250A01016F0901CE
:10512800CA51060108210A01026F000E0601092171
:105138000A01036F000E06010A210A01046F090E15
:10514800056FCBEC09F00601056B066B8E0E0A01A4
:10515800016F000E026F010E036FC8EC08F0120019
:10516800020E0901F76F839E0601746BFEEC0EF0C8
:1051780000500601061922E00701D86BFEEC0EF07C
:1051880000C006F600C001FA910E0A01026F060E71
:10519800036F57EC0AF0860E176F060E186FC90ECC
:1051A800196F030E1A6F0B0E1B6F000E1C6F50EC5D
:1051B80001F0010E0601536F020E416F0901CF5134
:1051C800000A07E1090EFE6F3FEC0AF0005201E108
:1051D800BBD3FE6BEBEC0FF0D651000A05E00501DE
:1051E800AB51010A01E03ED10901F751060107253B
:1051F800006E000E0821016E000E0921026E000EDD
:105208000A21036E00C0D9F901C0DAF902C0DBF93E
:1052180003C0DCF900C001FA01C002FA02C003FAB7
:1052280003C004FA010E0A01056FCBEC09F0DE5148
:10523800000A11E0D9C901FADAC902FADBC903FA8E
:10524800DCC904FA070E0A01056FCBEC09F0010E60
:105258000601516F0FD0D9C901FADAC902FADBC9C0
:1052680003FADCC904FA050E0A01056FCBEC09F054
:105278000601516B0901DE5106010725006E000E7B
:105288000821016E000E0921026E000E0A21036E2C
:10529800060E0026000E0122022203220901F75100
:1052A8000026000E01220222032200C0D9F901C003
:1052B800DAF902C0DBF903C0DCF900C001FA01C069
:1052C80002FA02C003FA03C004FA0A0E0A01056FC3
:1052D800CBEC09F0DE5106010725006E000E08210F
:1052E800016E000E0921026E000E0A21036E0901EB
:1052F800F7510026000E01220222032200C0D9F92C
:1053080001C0DAF902C0DBF903C0DCF900C001FA18
:1053180001C002FA02C003FA03C004FA050E0A012A
:10532800056FCBEC09F0E251000A2FE0D7510601D6
:105338000725006E000E0821016E000E0921026E7D
:10534800000E0A21036E0901E251005E000E015AA7
:10535800025A035AF7510026000E012202220322A4
:1053680000C0D9F901C0DAF902C0DBF903C0DCF9E1
:1053780000C001FA01C002FA02C003FA03C004FA2D
:10538800070E0A01056FCBEC09F0D551000A41E080
:10539800D75106010725006E000E0821016E000E88
:1053A8000921026E000E0A21036E0901F751002639
:1053B800000E01220222032200C0D9F901C0DAF945
:1053C80002C0DBF903C0DCF900C001FA01C002FA2F
:1053D80002C003FA03C004FA050E0A01056FCBECFC
:1053E80009F0020ED9250A01016F000E0901DA2120
:1053F8000A01026F000E0901DB210A01036F000E8A
:105408000901DC210A01046F030E056FCBEC09F0DA
:1054180029D0D75106010725006E000E0821016E1C
:10542800000E0921026E000E0A21036E0901F751D0
:105438000026000E01220222032200C0D9F901C071
:10544800DAF902C0DBF903C0DCF900C001FA01C0D7
:1054580002FA02C003FA03C004FA030E0A01056F38
:10546800CBEC09F00901D651000AD8B461D2050184
:10547800AB51020AD8A45CD20901F75106010725ED
:10548800006E000E0821016E000E0921026E000E4A
:105498000A21036E00C0D9F901C0DAF902C0DBF9AC
:1054A80003C0DCF900C001FA01C002FA02C003FA25
:1054B80003C004FA020E0A01056FCBEC09F0DE51B5
:1054C800000A11E0D9C901FADAC902FADBC903FAFC
:1054D800DCC904FA080E0A01056FCBEC09F0010ECD
:1054E8000701236F0FD0D9C901FADAC902FADBC95B
:1054F80003FADCC904FA060E0A01056FCBEC09F0C1
:105508000701236B0901DE5106010725006E000E15
:105518000821016E000E0921026E000E0A21036E99
:10552800060E0026000E0122022203220901F7516D
:105538000026000E01220222032200C0D9F901C070
:10554800DAF902C0DBF903C0DCF900C001FA01C0D6
:1055580002FA02C003FA03C004FA0B0E0A01056F2F
:10556800CBEC09F0DE5106010725006E000E08217C
:10557800016E000E0921026E000E0A21036E090158
:10558800F7510026000E01220222032200C0D9F999
:1055980001C0DAF902C0DBF903C0DCF900C001FA86
:1055A80001C002FA02C003FA03C004FA060E0A0197
:1055B800056FCBEC09F0E251000A2FE0D651060145
:1055C8000725006E000E0821016E000E0921026EEB
:1055D800000E0A21036E0901E251005E000E015A15
:1055E800025A035AF7510026000E01220222032212
:1055F80000C0D9F901C0DAF902C0DBF903C0DCF94F
:1056080000C001FA01C002FA02C003FA03C004FA9A
:10561800080E0A01056FCBEC09F0D65106010725E3
:10562800006E000E0821016E000E0921026E000EA8
:105638000A21036E0901F7510026000E01220222F9
:10564800032200C0D9F901C0DAF902C0DBF903C0AE
:10565800DCF900C001FA01C002FA02C003FA03C073
:1056680004FA040E0A01056FCBEC09F0DD510601BE
:105678000725006E000E0821016E000E0921026E3A
:10568800000E0A21036E0901F7510026000E0122BF
:105698000222032200C0D9F901C0DAF902C0DBF9FD
:1056A80003C0DCF900C001FA01C002FA02C003FA23
:1056B80003C004FA010E0A01056FCBEC09F0DE51B4
:1056C800000A11E0D9C901FADAC902FADBC903FAFA
:1056D800DCC904FA070E0A01056FCBEC09F0010ECC
:1056E8000601516F0FD0D9C901FADAC902FADBC92C
:1056F80003FADCC904FA050E0A01056FCBEC09F0C0
:105708000601516B0901DD5106010725006E000EE7
:105718000821016E000E0921026E000E0A21036E97
:105728000901DE510026000E012202220322060E84
:105738000026000E012202220322F7510026000E45
:1057480001220222032200C0D9F901C0DAF902C0FD
:10575800DBF903C0DCF900C001FA01C002FA02C09B
:1057680003FA03C004FA0A0E0A01056FCBEC09F02C
:10577800DD5106010725006E000E0821016E000E9E
:105788000921026E000E0A21036E0901DE5100266E
:10579800000E012202220322F7510026000E0122E8
:1057A8000222032200C0D9F901C0DAF902C0DBF9EC
:1057B80003C0DCF900C001FA01C002FA02C003FA12
:1057C80003C004FA050E0A01056FCBEC09F0E2519B
:1057D800000A35E0DD5106010725006E000E08219C
:1057E800016E000E0921026E000E0A21036E0901E6
:1057F800D7510026000E012202220322E251005E48
:10580800000E015A025A035AF7510026000E0122CF
:105818000222032200C0D9F901C0DAF902C0DBF97B
:1058280003C0DCF900C001FA01C002FA02C003FAA1
:1058380003C004FA070E0A01056FCBEC09F0D55135
:10584800000A47E0D75106010725006E000E08211F
:10585800016E000E0921026E000E0A21036E090175
:10586800DD510026000E012202220322F7510026F4
:10587800000E01220222032200C0D9F901C0DAF980
:1058880002C0DBF903C0DCF900C001FA01C002FA6A
:1058980002C003FA03C004FA050E0A01056FCBEC37
:1058A80009F0020ED9250A01016F000E0901DA215B
:1058B8000A01026F000E0901DB210A01036F000EC5
:1058C8000901DC210A01046F030E056FCBEC09F016
:1058D8002FD0D75106010725006E000E0821016E52
:1058E800000E0921026E000E0A21036E0901DD5126
:1058F8000026000E012202220322F7510026000E84
:1059080001220222032200C0D9F901C0DAF902C03B
:10591800DBF903C0DCF900C001FA01C002FA02C0D9
:1059280003FA03C004FA030E0A01056FCBEC09F071
:10593800030E08016F6F0601526BF46B0501AA6B29
:105948000601056B040ECE6F0901D1A117D0000E18
:10595800CA1902E1000EC91911E006011C51000A1A
:105968000DE1010E1C6F010E056F9D0E0A01016FFE
:10597800030E026F010E036FC8EC08F006011C51FC
:10598800010A64E10901D1B161D0000ECA1902E12E
:10599800000EC9195BE0E151000A0DE106011C6B1C
:1059A800056BB20E0A01016F030E026F010E036F41
:1059B800C8EC08F04BD035EC10F000C0E5F3060158
:1059C800056B0901E15106010725006E000E08214B
:1059D800016E000E0921026E000E0A21036E00C03E
:1059E800D9F901C0DAF902C0DBF903C0DCF900C05B
:1059F80001FA01C002FA02C003FA03C004FA090E50
:105A08000A01056FCBEC09F006011C6BD9C90FFA26
:105A1800DAC910FADBC911FADCC912FAE00E0A0178
:105A2800136F080E146F76EC06F0D50E016F030E97
:105A3800026F010E036FC8EC08F0E00E0A01016F57
:0E5A4800080E026F010E036FC8EC08F012008A
:0A5A560031EC07F00601CE6B1200E0
