:04000000BDEF3AF026
:1000080000C015F0F2A433D00301952B8088010EAF
:100018000401AF6F190E0301975D03E3976B986BAB
:1000280001D0972B190E0801B95D04E3B96B0301E0
:10003800966B02D00801B92B190E0301955D12E3E6
:10004800956B010E06010727000E082309230A23D2
:100058000701A153010ED8A4000EA16F8098010ECC
:100068000401A46FF30ED76ECA0ED66EF294F0A0F8
:1000780019D003019851000A03E1982B976B01D01E
:10008800982B050E985D0DE3130E975D09E39751C4
:10009800150806E3010E0501136F0301986B01D0E3
:1000A800986BF090F0A21ED003019651000A04E16B
:1000B800962B0801B96B02D00301962B0301050E9C
:1000C800965D0FE3130E0801B95D09E3B9511508F0
:1000D80006E3010E0501146F0301966B02D00301BC
:1000E800966BF0929EA007D008015C53D8A4818635
:1000F8009D90CD909E90A1A207D008015F53D8A4EF
:100108008188A092B190A192F2A21FD008015C53FD
:100118000CE00601F55302E0818607D08196ACC851
:10012800CFFFA8C8CEFFCD809D8008015F530CE0AB
:100138000601315302E0818807D08198ACC8B3FF2B
:10014800A8C8B2FFB180A082F29215C000F01100D9
:10015800FAC9C9FFC7B002D00000FCD7C9CF00F068
:02016800120083
:0E016A00ACB202D00000FCD7FAC9ADFF120003
:10017800086A096A100E0C6E0134083609360450F4
:10018800085E0550D8A0053C095ED8B007D00450D9
:1001980008260550D8B0053C0926D8900036013607
:0601A8000C2EEAD7120044
:1001AE00F250026EF29E0500FF6A0150FE6E005084
:0801BE00FD6E02BEF28E12007C
:1001C600086A080E0C6E003408360450085ED8B073
:0E01D60002D00826D89000360C2EF5D7120065
:1001E4000901F66B030EF65D0AE2F651F425E16EA1
:1001F400000EF521E26E200EE66EF62BF3D7F651D3
:10020400F425E16E000EF521E26EE66AF607F6517A
:10021400F425F76F000EF521F86F0A0E046EF3C98A
:1002240000F0CFDF08C000F0300E0026F7C9E1FF70
:10023400F8C9E2FF00C0E6FF0A0E046EF3C900F03D
:10024400C0DF00C0F3F90050000A01E102D0F60754
:04025400DED71200DF
:10025800A6A202D00000FCD7A69CF4C9AAFFF3C945
:10026800A9FFF5C9A8FFA69EA684F2CF00F0F29ECA
:10027800550EA76EAA0EA76EA68200BE02D0F29EE9
:0802880001D0F28EA6941200D1
:100290000901F76B050EF75D0AE2F751F525E16EEE
:1002A000000EF621E26E200EE66EF72BF3D7F75123
:1002B000F525E16E000EF621E26EE66AF707F751CA
:1002C000F525F86F000EF621F96F0A0E046E000E88
:1002D000056EF3C900F0F4C901F04EDF08C000F06C
:1002E00009C001F0300E0026F8C9E1FFF9C9E2FFAC
:1002F00000C0E6FF0A0E046E000E056EF3C900F0A2
:10030000F4C901F039DF00C0F3F901C0F4F9000EBF
:10031000011802E1000E001801E102D0F707CFD763
:020320001200C9
:10032200F5C904F0F6C905F0F3C902F0F4C903F007
:10033200F7C900F0F8C901F0010E0901F75F000EDC
:10034200F85B005001100FE004C0E9FF05C0EAFFAE
:1003520002C0E1FF03C0E2FFEECFE6FF024A032A3A
:10036200044A052AE5D7F3C900F0F4C901F01200E6
:100372005ED00801A66BA76B8BD00801E00EA66FBA
:10038200010EA76F85D00801EA0EA66F010EA76FB6
:100392007FD00801F40EA66F010EA76F79D0080175
:1003A200120EA66F020EA76F73D00801260EA66F5B
:1003B200020EA76F6DD008013A0EA66F020EA76F4C
:1003C20067D00801580EA66F020EA76F61D0080110
:1003D200760EA66F020EA76F5BD008018A0EA66F7B
:1003E200020EA76F55D008019E0EA66F020EA76FD0
:1003F2004FD00801BC0EA66F020EA76F49D00801AC
:10040200EE0EA66F020EA76F43D00801200EA66F54
:10041200030EA76F3DD00801520EA66F030EA76F01
:1004220037D00801840EA66F030EA76F31D00901E1
:10043200F351000A9EE0F351010A9FE0F351020AD0
:10044200A2E0F351030AA5E0F351040AA8E0F35134
:10045200050AABE0F351060AAEE0F351070AB1E038
:10046200F351080AB4E0F351090AB7E0F3510A0A5A
:10047200BAE0F3510B0ABDE0F3510C0AC0E0F351AC
:100482000D0AC3E0F3510E0AC6E0F3510F0AC9E0A8
:1004920042D0640E0801A26F000EA36F5ED0080165
:1004A200F40EA26F010EA36F58D00801E80EA26FDE
:1004B200030EA36F52D00801DC0EA26F050EA36FCC
:1004C2004CD00801D00EA26F070EA36F46D00801D0
:1004D200C40EA26F090EA36F40D00801B80EA26F1E
:1004E2000B0EA36F3AD00801AC0EA26F0D0EA36FD4
:1004F20034D00801A00EA26F0F0EA36F2ED00801F8
:10050200940EA26F110EA36F28D00801880EA26F5D
:10051200130EA36F22D00901F451000ABAE0F4517C
:10052200010ABDE0F451020AC0E0F451030AC3E03B
:10053200F451040AC6E0F451050AC9E0F451060A6E
:10054200CCE0F451070ACFE0F451080AD2E0F451AA
:10055200090AD5E0F4510A0AD8E05ED00801A46B7A
:10056200A56B8BD00801E00EA46F010EA56F85D09C
:100572000801EA0EA46F010EA56F7FD00801F40EE8
:10058200A46F010EA56F79D00801120EA46F020E9E
:10059200A56F73D00801260EA46F020EA56F6DD051
:1005A20008013A0EA46F020EA56F67D00801580E1B
:1005B200A46F020EA56F61D00801760EA46F020E21
:1005C200A56F5BD008018A0EA46F020EA56F55D0ED
:1005D20008019E0EA46F020EA56F4FD00801BC0E3B
:1005E200A46F020EA56F49D00801EE0EA46F020E91
:1005F200A56F43D00801200EA46F030EA56F3DD056
:100602000801520EA46F030EA56F37D00801840EA5
:10061200A46F030EA56F31D00901F551000A9EE0C7
:10062200F551010A9FE0F551020AA2E0F551030AD1
:10063200A5E0F551040AA8E0F551050AABE0F55131
:10064200060AAEE0F551070AB1E0F551080AB4E036
:10065200F551090AB7E0F5510A0ABAE0F5510B0A59
:10066200BDE0F5510C0AC0E0F5510D0AC3E0F551A9
:100672000E0AC6E0F5510F0AC9E042D0640E080125
:10068200AA6F000EAB6F5ED00801F40EAA6F010EC6
:10069200AB6F58D00801E80EAA6F030EAB6F52D0B1
:1006A2000801DC0EAA6F050EAB6F4CD00801D00E0C
:1006B200AA6F070EAB6F46D00801C40EAA6F090ECF
:1006C200AB6F40D00801B80EAA6F0B0EAB6F3AD0D9
:1006D2000801AC0EAA6F0D0EAB6F34D00801A00E4C
:1006E200AA6F0F0EAB6F2ED00801940EAA6F110ED7
:1006F200AB6F28D00801880EAA6F130EAB6F22D001
:100702000901F651000ABAE0F651010ABDE0F651BC
:10071200020AC0E0F651030AC3E0F651040AC6E039
:10072200F651050AC9E0F651060ACCE0F651070A6D
:10073200CFE0F651080AD2E0F651090AD5E0F651A7
:060742000A0AD8E01200D3
:100748000B6A0A6A096A086A0E6A03340836045092
:10075800085E0550D8A0053C095E0650D8A0063CA6
:100768000A5E0750D8A0073C0B5EE86AD8A0010EC5
:100778000E5E0336070E0C6E0334083609360A3649
:100788000B360E36045003A012D0085E0550D8A0D0
:10079800053C095E0650D8A0063C0A5E0750D8A062
:1007A800073C0B5EE86AD8A0010E0E5E11D0082641
:1007B8000550D8B0053C09260650D8B0063C0A2694
:1007C8000750D8B0073C0B26E86AD8B0010E0E26B1
:1007D80003360C2ED1D70234083609360A360B36C2
:1007E8000E36045003A012D0085E0550D8A0053C70
:1007F800095E0650D8A0063C0A5E0750D8A0073C00
:100808000B5EE86AD8A0010E0E5E11D008260550CE
:10081800D8B0053C09260650D8B0063C0A26075031
:10082800D8B0073C0B26E86AD8B0010E0E2602366F
:10083800070E0C6E0234083609360A360B360E36A9
:10084800045002A012D0085E0550D8A0053C095EED
:100858000650D8A0063C0A5E0750D8A0073C0B5E9D
:10086800E86AD8A0010E0E5E11D008260550D8B04F
:10087800053C09260650D8B0063C0A260750D8B0D1
:10088800073C0B26E86AD8B0010E0E2602360C2E5D
:10089800D1D70134083609360A360B360E360450DD
:1008A80002A012D0085E0550D8A0053C095E06508B
:1008B800D8A0063C0A5E0750D8A0073C0B5EE86A41
:1008C800D8A0010E0E5E11D008260550D8B0053C00
:1008D80009260650D8B0063C0A260750D8B0073C6F
:1008E8000B26E86AD8B0010E0E260136070E0C6EEC
:1008F8000134083609360A360B360E36045001A084
:1009080012D0085E0550D8A0053C095E0650D8A054
:10091800063C0A5E0750D8A0073C0B5EE86AD8A0E0
:10092800010E0E5E11D008260550D8B0053C0926E8
:100938000650D8B0063C0A260750D8B0073C0B260C
:10094800E86AD8B0010E0E2601360C2ED1D7003435
:10095800083609360A360B360E36045001A012D076
:10096800085E0550D8A0053C095E0650D8A0063C94
:100978000A5E0750D8A0073C0B5EE86AD8A0010EB3
:100988000E5E11D008260550D8B0053C0926065041
:10099800D8B0063C0A260750D8B0073C0B26E86AB0
:1009A800D8B0010E0E260036070E0C6E003408363D
:1009B80009360A360B360E36045000A012D0085EEF
:1009C8000550D8A0053C095E0650D8A0063C0A5E32
:1009D8000750D8A0073C0B5EE86AD8A0010E0E5E4F
:1009E80011D008260550D8B0053C09260650D8B0C5
:1009F800063C0A260750D8B0073C0B26E86AD8B050
:100A0800010E0E2600360C2ED1D700B00ED00450A1
:100A180008260550D8B0053C09260650D8B0063C33
:0C0A28000A260750D8B0073C0B2612002D
:100A3400BCC8E1FFBDC8E2FFF3C9E6FFBAC800F0D5
:0A0A4400BBC801F0D7EC00F012006F
:100A4E000B6A0A6A096A00500402F4CF09F0F3CF68
:100A5E0008F001500502F4CF0BF0F3CF0AF000506E
:100A6E000502F3500926F4500A22E86A0B220150BF
:100A7E000402F3500926F4500A22E86A0B2208C039
:100A8E0000F009C001F00AC002F00BC003F0120022
:100A9E00C7B409D01F0EC514016E0150000A03E140
:0A0AAE00010E006E01D0006A120074
:0A0AB800490E0D6E0D2EFED7120040
:100AC200EAC9F3F90901F333F39FEBC9F4F9ECC96D
:100AD200F5F9F2EC00F0010EEA15016E0150010A7F
:100AE20010E1030EEB25F36F000EEC21F46F1E0EE6
:100AF200F56F020EF66F040EF76F000EF86F10DC42
:100B02000FD0030EEB25F36F000EEC21F46F0B0EEA
:100B1200F56F020EF66F040EF76F000EF86F00DC31
:020B22001200BF
:100B24000901ED6BEAC9E9FFEBC9EAFFEECFECF985
:100B3400EC51000A0EE0ECC9F3F97ADF0901ED2B60
:100B4400ED51EA25E96E000EEB21EA6EEECFECF9E9
:040B5400EFD71200C5
:100B58000901ED6BEAC9E9FFEBC9EAFFEECFECF951
:100B6800EC51000A0FE0ECC9FAF9B5EC00F0090104
:100B7800ED2BED51EA25E96E000EEB21EA6EEECF82
:060B8800ECF9EED71200AB
:100B8E000901F06B0A0EF05D0AE2F051EE25E16EFE
:100B9E00000EEF21E26E300EE66EF02BF3D7F05121
:100BAE00EE25E16E000EEF21E26EE66AF007000E12
:100BBE00006EED1908E10050EC1905E10050EB193B
:100BCE0002E1EA51000A3EE0F051EE25F16F000E0F
:100BDE00EF21F26F0A0E046E000E056E066E076EA2
:100BEE00EAC900F0EBC901F0ECC902F0EDC903F05F
:100BFE00A4DD08C000F009C001F00AC002F00BC06D
:100C0E0003F0300E0026F1C9E1FFF2C9E2FF00C089
:100C1E00E6FFF0070A0E046E000E056E066E076EF6
:100C2E00EAC900F0EBC901F0ECC902F0EDC903F01E
:100C3E0084DD00C0EAF901C0EBF902C0ECF903C093
:060C4E00EDF9B5D712001C
:100C5400A69CEBC9AAFFEAC9A9FFA69EA680A8CFB5
:040C640000F012008A
:100C68003BD0500E0801AC6F370EA86F72D0080148
:100C7800630EAC6FBF0EA86F6CD00801770EAC6F17
:100C8800470EA86F66D008018A0EAC6FCF0EA86F0A
:100C980060D008019E0EAC6F570EA86F5AD008019D
:100CA800B10EAC6FDF0EA86F54D00801C50EAC6F43
:100CB800670EA86F4ED00801D80EAC6FEF0EA86F64
:100CC80048D00801EC0EAC6F770EA86F42D008012F
:100CD800FF0EAC6FA86B3DD0000E0901C11902E1EF
:100CE800010EC019BEE0000EC11902E1020EC019C2
:100CF800BEE0000EC11902E1030EC019BEE0000EED
:100D0800C11902E1040EC019BEE0000EC11902E1CA
:100D1800050EC019BEE0000EC11902E1060EC01989
:100D2800BEE0000EC11902E1070EC019BEE0000EB8
:100D3800C11902E1080EC019BEE0000EC11902E196
:100D4800090EC019BEE0000EC11902E10A0EC01951
:100D5800BEE03BD0500E0801A96F370EA16F72D0CC
:100D68000801630EA96FBF0EA16F6CD00801770E42
:100D7800A96F470EA16F66D008018A0EA96FCF0E22
:100D8800A16F60D008019E0EA96F570EA16F5AD0AF
:100D98000801B10EA96FDF0EA16F54D00801C50E6E
:100DA800A96F670EA16F4ED00801D80EA96FEF0E7C
:100DB800A16F48D00801EC0EA96F770EA16F42D041
:100DC8000801FF0EA96FA16B3DD0000E0901B119F2
:100DD80002E1010EB019BEE0000EB11902E1020EE7
:100DE800B019BEE0000EB11902E1030EB019BEE061
:100DF800000EB11902E1040EB019BEE0000EB119DF
:100E080002E1050EB019BEE0000EB11902E1060EAE
:100E1800B019BEE0000EB11902E1070EB019BEE02C
:100E2800000EB11902E1080EB019BEE0000EB119AA
:100E380002E1090EB019BEE0000EB11902E10A0E76
:060E4800B019BEE012002B
:100E4E00EAC9F3F9EBC9F4F90901F433F333F49F6A
:100E5E00ECC9F5F9EDC9F6F948EC01F0010EEA1509
:100E6E00016EEBC902F0000E0216000E021802E12E
:100E7E00010E011811E1050EEC25F36F000EED21A8
:100E8E00F46F150EF56F050EF66F040EF76F000E6C
:100E9E00F86F91EC01F010D0050EEC25F36F000EFB
:100EAE00ED21F46F6C0EF56F020EF66F040EF76FF8
:0A0EBE00000EF86F91EC01F0120035
:100EC800010E0901F36F000EF46FB8C9F5F92CECA7
:100ED80001F0020E0901F36F000EF46F16C9F5F95F
:100EE8002CEC01F0030E0901F36F000EF46FB7C983
:100EF800F5F92CEC01F0040E0901F36F000EF46F04
:100F0800B3C9F5F92CEC01F0050E0901F36F000ED9
:100F1800F46FBEC9F5F92CEC01F0060E0901F36F68
:100F2800000EF46FB2C9F5F92CEC01F0070E0901B7
:100F3800F36F000EF46FB6C9F5F92CEC01F0080E4A
:100F48000901F36F000EF46FB5C9F5F92CEC01F047
:100F5800090E0901F36F000EF46FB4C9F5F92CEC12
:100F680001F00A0E0901F36F000EF46FA6C9F5F936
:100F78002CEC01F00B0E0901F36F000EF46FA5C9FC
:100F8800F5F92CEC01F00C0E0901F36F000EF46F6B
:100F98007FC7F5F92CEC01F00D0E0901F36F000E77
:100FA800F46FB9C9F5F92CEC01F00E0E0901F36FD5
:100FB800000EF46FBFC9F5F92CEC01F00F0E090112
:100FC800F36F000EF46F17C9F5F92CEC01F0100E51
:100FD8000901F36F000EF46F15C9F5F92CEC01F057
:100FE800110E0901F36F000EF46FA4C9F5F92CEC8A
:100FF80001F0120E0901F36F000EF46FC2C9F5F982
:101008002CEC01F0130E0901F36F000EF46FA2C768
:10101800F5F92CEC01F0140E0901F36F000EF46FD2
:10102800C3C9F5F92CEC01F0150E0901F36F000E98
:10103800F46FC0C9F5F92CEC01F0160E0901F36F35
:10104800000EF46FB0C9F5F92CEC01F07FC7F3F985
:10105800C2C9F4F9A2C7F5F9C3C9F6F9B9EC01F0A8
:02106800120074
:10106A00010E0901DC25016E000EDD21026E01C0B0
:10107A00E9FF02C0EAFF0A0EEE24006E01C0E1FF9A
:10108A0002C0E2FF00C0E6FF030EDC25016E000E7F
:10109A00DD21026E01C0E9FF02C0EAFF0A0EEE245A
:1010AA00006E01C0E1FF02C0E2FF00C0E6FFDCC93A
:1010BA00E9FFDDC9EAFFEECF00F0DCC9E1FFDDC9D7
:1010CA00E2FF0A0E0024E66E020EDC25016E000E17
:1010DA00DD21026E01C0E9FF02C0EAFF0A0EEE241A
:1010EA00006E01C0E1FF02C0E2FF00C0E6FF040E8D
:1010FA00DC25E16E000EDD21E26E040EE66E060EC0
:10110A00DC25E16E000EDD21E26E040EE66E080EAD
:10111A00DC25E16E000EDD21E26E040EE66E0A0E9B
:10112A00DC25E16E000EDD21E26E040EE66E050E90
:10113A00DC25E16E000EDD21E26E0A0EE66E090E76
:10114A00DC25E16E000EDD21E26E0A0EE66E070E68
:10115A00DC25E16E000EDD21E26E0A0EE66E0B0E54
:10116A00DC25E16E000EDD21E26E0A0EE66E12004B
:10117A000901DE5317E007C6EAF908C6EBF909C602
:10118A00ECF90AC6EDF9DF0EEE6F090EEF6FFADC25
:10119A00DF0EEA6F090EEB6FC0DC620EEA6F080E13
:1011AA00EB6FD5DCDCC9EAF9DDC9EBF9D0DC0D0E51
:1011BA00FA6FB5EC00F00A0E0901FA6FB5EC00F00F
:0211CA00120011
:1011CC000901DC51010A05E10801606B616B090141
:1011DC00AC91DC51020A05E108015D6B5E6B090103
:0411EC00AC931200AE
:1011F000010E0901EA6F000EEB6F2CDD00C0B8F99B
:10120000020EEA6F000EEB6F25DD00C016F9030E2B
:10121000EA6F000EEB6F1EDD00C0B7F9040EEA6F37
:10122000000EEB6F17DD00C0B3F9050EEA6F000E7C
:10123000EB6F10DD00C0BEF9060EEA6F000EEB6F1B
:1012400009DD00C0B2F9070EEA6F000EEB6F02DD98
:1012500000C0B6F9080EEA6F000EEB6FFBDC00C0B1
:10126000B5F9090EEA6F000EEB6FF4DC00C0B4F9BB
:101270000A0EEA6F000EEB6FEDDC00C0A5F9000E60
:10128000A66FA5C9A6F9A56B0B0EEA6F000EEB6F52
:10129000E1DC0050A513000EA6130C0EEA6F000E41
:1012A000EB6FD8DC00C07FF70D0EEA6F000EEB6F1E
:1012B000D1DC00C0B9F90E0EEA6F000EEB6FCADC8C
:1012C00000C0BFF90F0EEA6F000EEB6FC3DC00C069
:1012D00017F9100EEA6F000EEB6FBCDC00C015F9B9
:1012E000110EEA6F000EEB6FB5DC00C0A4F9120E10
:1012F000EA6F000EEB6FAEDC00C0C2F9130EEA6FAE
:10130000000EEB6FA7DC00C0A2F7140EEA6F000E10
:10131000EB6FA0DC00C0C3F9150EEA6F000EEB6F97
:1013200099DC00C0C0F9000EC16F160EEA6F000E06
:10133000EB6F90DC00C0B0F9000EB16F95DC7FC799
:10134000F3F9C2C9F4F9A2C7F5F9C3C9F6F9B9ECC2
:0413500001F0120096
:101354009E96DCC9C9FFC7A401D0FDD79EB601D0B3
:10136400FDD7C5BC02D0006A03D0C584020E006E4E
:02137400120065
:101376000901E16B140EE15D72E2070E006E000ECC
:10138600016EE1C904F0000E056E27EC05F0180E9B
:101396000026090E0122050E0024E96E000E01202A
:1013A600EA6EEE50010A59E1070E006E000E016E5C
:1013B600E1C904F0000E056E27EC05F0180E0024B6
:1013C600E16E090E0120E26EE0C9E6FF070E006E2F
:1013D600000E016EE1C904F0000E056E27EC05F063
:1013E600180E0026090E0122010E0024E16E000EE1
:1013F6000120E26EDCC9E6FFDDC9E6FFDEC9E6FFD5
:10140600DFC9E6FF070E006E000E016EE1C904F0AB
:10141600000E056E27EC05F0180E0026090E0122B7
:10142600050E0024E16E000E0120E26EE66A070E4C
:10143600006E000E016EE1C904F0000E056E27EC89
:1014460005F0180E0026090E0122060E0024E16E94
:10145600000E0120E26EE66A02D0E12B8BD7120065
:101466000901A851DC1904E1A86B010E006E0FD02A
:10147600A951DC1904E1A96B010E006E08D0AA512E
:10148600DC1904E1AA6B010E006E01D0006A12009D
:10149600DCC9F3F90901F333F39FDDC9F4F9DEC9B9
:1014A600F5F9F2EC00F0030EDD25F36F000EDE21F8
:1014B600F46F9D0EF56F080EF66F040EF76F000EB3
:0814C600F86F91EC01F0120037
:1014CE000901DC51010A03E108015C6B81960901F7
:0E14DE00DC51020A03E108015F6B81981200E5
:1014EC00010E0901DC25E96E000EDD21EA6EEECF5E
:1014FC00B8F9DCC9E9FFDDC9EAFFEECFB7F9DE5177
:10150C00020AD8A485D0030EDC25E96E000EDD217D
:10151C00EA6EEECF16F9020EDC25E96E000EDD2127
:10152C00EA6EEECFB3F9040EDC25E96E000EDD2178
:10153C00EA6E080EDC25D96E000EDD21DA6EDE5067
:10154C00EE24036E046A000E042203C000F004C0F3
:10155C0001F001320032019E01BC018E00C0B2F9D3
:10156C00050EDC25E96E000EDD21EA6E090EDC2588
:10157C00D96E000EDD21DA6EDE50EE24036E046AA5
:10158C00000E042203C000F004C001F0013200324E
:10159C00019E01BC018E00C0B6F9060EDC25E96E79
:1015AC00000EDD21EA6E0A0EDC25D96E000EDD215F
:1015BC00DA6EDE50EE24036E046A000E042203C0C1
:1015CC0000F004C001F001320032019E01BC018E1A
:1015DC0000C0B5F9070EDC25E96E000EDD21EA6EC0
:1015EC000B0EDC25D96E000EDD21DA6EDE50EE24FA
:1015FC00036E046A000E042203C000F004C001F064
:10160C0001320032019E01BC018E00C0B4F922D01F
:10161C00166BB36B040EDC25E96E000EDD21EA6E51
:10162C00EECFB2F9050EDC25E96E000EDD21EA6E77
:10163C00EECFB6F9060EDC25E96E000EDD21EA6E62
:10164C00EECFB5F9070EDC25E96E000EDD21EA6E52
:08165C00EECFB4F933DC1200FB
:101664000901DC6B140EDC5D4BE2070E006E000E0C
:10167400016EDCC904F0000E056E27EC05F0180EAF
:101684000026090E0122050E0024E96E000E012039
:10169400EA6EEE50000A32E1070E006E000E016E93
:1016A400DCC904F0000E056E27EC05F0180E0024CA
:1016B400E96E090E0120EA6EEECF01F00150090A2D
:1016C4001DE1070E006E000E016EDCC904F0000E71
:1016D400056E27EC05F0180E0026090E0122010EF6
:1016E4000024E96E000E0120EA6EEECFDDF9EECFA4
:1016F400DEF9EECFDFF9EECFE0F902D0DC2BB2D782
:10170400140EDC5D02E3DC6B05D006010751090110
:0A171400DD5DDC6FDCC900F012009F
:10171E000901DC51000A04E0DD51000A01E002D0AB
:10172E00F28801D0F298DCC9F5F6DDC931F6120067
:10173E00020E0601416F860E0901F36F060EF46F5D
:10174E00010EF56F010EF66F100EF76F000EF86FAB
:10175E0091EC01F00001D951000A36E1540E090155
:10176E00F36F060EF46FDA0EF56F000EF66F100EB5
:10177E00F76F000EF86F91EC01F0010E0601536F3A
:10178E003850000A0FE1860E0901F36F060EF46F52
:10179E00390EF56F000EF66F100EF76F000EF86F24
:1017AE0091EC01F03850010A0FE10901860EF36F3A
:1017BE00060EF46F160EF56F000EF66F100EF76F25
:1017CE00000EF86F91EC01F00001D951010A1BE1F6
:1017DE00540E0901F36F060EF46F270EF56F000E0F
:1017EE00F66F100EF76F000EF86F91EC01F0010E10
:1017FE000601536FB8C9EAF98C0E0901EB6F060E9C
:10180E00EC6F61EC05F00001D951020A1BE1540E98
:10181E000901F36F060EF46F6C0EF56F000EF66F86
:10182E00100EF76F000EF86F91EC01F0010E06012D
:10183E00536F16C9EAF98C0E0901EB6F060EEC6FA9
:10184E0061EC05F00001D951030A1BE1540E0901A8
:10185E00F36F060EF46F7D0EF56F000EF66F100E21
:10186E00F76F000EF86F91EC01F0010E0601536F49
:10187E00B7C9EAF98C0E0901EB6F060EEC6F61EC3D
:10188E0005F00001D951040A1BE1540E0901F36F52
:10189E00060EF46F4A0EF56F000EF66F100EF76F10
:1018AE00000EF86F91EC01F0010E0601536FB3C9F3
:1018BE00EAF98C0E0901EB6F060EEC6F61EC05F088
:1018CE000001D951050A1BE1540E0901F36F060EF2
:1018DE00F46F5B0EF56F000EF66F100EF76F000EC5
:1018EE00F86F91EC01F0010E0601536FB2C9EAF9DF
:1018FE008C0E0901EB6F060EEC6F61EC05F000012A
:10190E00D951060A1BE1540E0901F36F060EF46F4E
:10191E00120EF56F010EF66F100EF76F000EF86FC8
:10192E0091EC01F0010E0601536FB6C9EAF98C0E67
:10193E000901EB6F060EEC6F61EC05F00001D95159
:10194E00070A1BE1540E0901F36F060EF46FB90E70
:10195E00F56F010EF66F100EF76F000EF86F91EC2B
:10196E0001F0010E0601536FB5C9EAF98C0E09019B
:10197E00EB6F060EEC6F61EC05F00001D951080A11
:10198E001BE1540E0901F36F060EF46FCA0EF56FCC
:10199E00010EF66F100EF76F000EF86F91EC01F05E
:1019AE00010E0601536FB4C9EAF98C0E0901EB6FF3
:1019BE00060EEC6F61EC05F00001D951090A1BE12E
:1019CE00540E0901F36F060EF46F970EF56F010EAC
:1019DE00F66F100EF76F000EF86F91EC01F0010E1E
:1019EE000601536FB4C9EAF98C0E0901EB6F060EAE
:1019FE00EC6F61EC05F00001D9510A0A1BE1540E9F
:101A0E000901F36F060EF46FA80EF56F010EF66F57
:101A1E00100EF76F000EF86F91EC01F0010E06013B
:101A2E00536FB4C9EAF98C0E0901EB6F060EEC6F19
:101A3E0061EC05F00001D9510B0A3EE1540E09018B
:101A4E00F36F060EF46FF30EF56F010EF66F100EB8
:101A5E00F76F000EF86F91EC01F0010E0601536F57
:101A6E007FC7F3F9890E0901F46F060EF56FF2ECDC
:101A7E0000F007017F51070810E28D0E0901F36F88
:101A8E00060EF46F040EF56F020EF66F060EF76F6C
:101A9E00000EF86F91EC01F00FD009018D0EF36F6F
:101AAE00060EF46FDB0EF56F010EF66F060EF76F76
:101ABE00000EF86F91EC01F00001D9510C0A3EE1D5
:101ACE00540E0901F36F060EF46FE20EF56F010E60
:101ADE00F66F100EF76F000EF86F91EC01F0010E1D
:101AEE000601536FA2C7F3F9890E0901F46F060EB2
:101AFE00F56FF2EC00F00701A251070810E28D0E0F
:101B0E000901F36F060EF46F450EF56F010EF66FB9
:101B1E00060EF76F000EF86F91EC01F00FD0090171
:101B2E008D0EF36F060EF46F4C0EF56F010EF66F01
:101B3E00060EF76F000EF86F91EC01F00001D9510F
:101B4E000D0A1BE1540E0901F36F060EF46F230EFE
:101B5E00F56F010EF66F100EF76F000EF86F91EC29
:101B6E0001F0010E0601536FC2C9EAF98C0E09018C
:101B7E00EB6F060EEC6F61EC05F00001D9510E0A09
:101B8E001BE1540E0901F36F060EF46F340EF56F60
:101B9E00010EF66F100EF76F000EF86F91EC01F05C
:101BAE00010E0601536FC3C9EAF98C0E0901EB6FE2
:101BBE00060EEC6F61EC05F00001D9510F0A1BE126
:101BCE00540E0901F36F060EF46F750EF56F010ECC
:101BDE00F66F100EF76F000EF86F91EC01F0010E1C
:101BEE000601536FBEC9EAF98C0E0901EB6F060EA2
:101BFE00EC6F61EC05F00001D951100A1DE1540E95
:101C0E000901F36F060EF46F860EF56F010EF66F77
:101C1E00100EF76F000EF86F91EC01F0010E060139
:101C2E00536FA5C9EAF9A6C9EBF98A0E0901EC6F43
:101C3E00060EED6F27EC07F00001D951110A12E1E3
:101C4E00540E0901F36F060EF46F530EF56F010E6D
:101C5E00F66F100EF76F000EF86F91EC01F0010E9B
:101C6E000601536F0001D951120A33E1540E0901D6
:101C7E00F36F060EF46F640EF56F010EF66F100E15
:101C8E00F76F000EF86F91EC01F0010E0601536F25
:101C9E0009011751000A0FE18C0EF36F060EF46F57
:101CAE00530EF56F040EF66F070EF76F000EF86FFA
:101CBE0091EC01F00ED08C0EF36F060EF46F5B0EEE
:101CCE00F56F040EF66F080EF76F000EF86F91ECBD
:101CDE0001F00001D951130A33E1540E0901F36FDB
:101CEE00060EF46F3A0EF56F040EF66F100EF76FC8
:101CFE00000EF86F91EC01F0010E0601536F090111
:101D0E001551000A0FE18C0EF36F060EF46F4B0E99
:101D1E00F56F040EF66F070EF76F000EF86F91EC6D
:101D2E0001F00ED08C0EF36F060EF46F750EF56F7C
:101D3E00040EF66F080EF76F000EF86F91EC01F0BF
:101D4E000001D951140A33E1540E0901F36F060E46
:101D5E00F46F7E0EF56F040EF66F100EF76F000E19
:101D6E00F86F91EC01F0010E0601536F0901A451B9
:101D7E00000A0FE18C0EF36F060EF46F640EF56F12
:101D8E00040EF66F070EF76F000EF86F91EC01F070
:101D9E000ED08C0EF36F060EF46F6C0EF56F040EF4
:101DAE00F66F080EF76F000EF86F91EC01F0000160
:101DBE00D951150A33E1540E0901F36F060EF46F73
:101DCE00FD0EF56F030EF66F100EF76F000EF86F27
:101DDE0091EC01F0010E0601536F0901BF51000A8B
:101DEE000FE18C0EF36F060EF46F0E0EF56F040EF0
:101DFE00F66F070EF76F000EF86F91EC01F00ED034
:101E0E008C0EF36F060EF46FE30EF56F030EF66F86
:101E1E00080EF76F000EF86F91EC01F00001D9512A
:101E2E00160A1BE1540E0901F36F060EF46FEC0E49
:101E3E00F56F030EF66F100EF76F000EF86F91EC44
:101E4E0001F0010E0601536FB9C9EAF98C0E0901B2
:101E5E00EB6F060EEC6F61EC05F00001D951170A1D
:101E6E0012E1540E0901F36F060EF46F180EF56FA2
:101E7E00040EF66F100EF76F000EF86F91EC01F076
:101E8E00010E0601536F0001D951180A12E1540ECA
:101E9E000901F36F060EF46F290EF56F040EF66F3F
:101EAE00100EF76F000EF86F91EC01F0010E0601A7
:0A1EBE00536F0601650ECE6F12008F
:101EC8000901DC51010A17E1DDB102D0829201D08B
:101ED8008282060E0B6E130E0C6EAD0E0D6E0D2E5D
:101EE800FED70C2EFCD70B2EFAD700000000010EEF
:101EF80008015C6F81860901DC51020A17E1DDB136
:101F080002D0829001D08280060E0B6E130E0C6EEA
:101F1800AD0E0D6E0D2EFED70C2EFCD70B2EFAD75C
:0E1F280000000000010E08015F6F81881200AA
:101F36000901DC6B140EDC5D53E2070E006E000E29
:101F4600016EDCC904F0000E056E27EC05F0180ED4
:101F56000026090E0122050E0024E96E000E01205E
:101F6600EA6EEE50000A3AE1070E006E000E016EB0
:101F7600DCC904F0000E056E27EC05F0180E0024EF
:101F8600E96E090E0120EA6EEECF01F00150090A52
:101F960025E1070E006E000E016EDCC904F0000E8E
:101FA600056E27EC05F0180E0026090E0122010E1B
:101FB6000024E96E000E0120EA6EEECFDDF9EECFC9
:101FC600DEF9EECFDFF9EECFE0F9050E0024E16E83
:101FD600000E0120E26E010EE66E02D0DC2BAAD7BF
:101FE600060107510901DD5D016E01C0DCF9140E21
:0C1FF600015CD8B0DC6BDCC900F012000C
:102002000901DD6B140EDD5D44E2070E006E000E69
:10201200016EDDC904F0000E056E27EC05F0180E06
:102022000026090E0122050E0024E96E000E012091
:10203200EA6EEE50000A2BE1070E006E000E016EF2
:10204200DDC904F0000E056E27EC05F0180E002421
:10205200E96E090E0120EA6EEECF01F00150DC19A3
:1020620016E0070E006E000E016EDDC904F0000ED0
:10207200056E27EC05F0180E0026090E0122050E4A
:102082000024E16E000E0120E26E010EE66EDD2BF1
:04209200B9D71200A8
:10209600140E0901B86F140EB76F140E166F140ED6
:1020A600B36F070E07017F6F020E0901C26F070E9D
:1020B6000701A26F020E0901C36F070EF36F020E2E
:1020C600F46F070EF56F020EF66FB9EC01F00A0E0B
:1020D6000901B66F040EB26F0A0EB46F040EB56F27
:1020E6000C0EBE6FA56BA66BBF6B176B156BB96B32
:0A20F600010EA46F64EC07F0120065
:102100000901DC6BDD6BDD51120802E1DC518E0848
:1021100009E34FEC05F0005201E004D00901DC4B6B
:10212000DD2BF1D70901120EDD5D02E18F0EDC5DC2
:1021300003E37B0E006E05D0C580C5A001D0FDD79E
:04214000006A12001F
:10214400C26A070EC012C08EDCC900F000360090CF
:10215400003600900050C212C2805CEC05F0C282CE
:10216400C2A201D0FDD7C4CF01F0006AC35000124F
:08217400000E0112C2901200DE
:04217C00C584120004
:102180000901D56B83A8D58183AAD583D5C900F071
:0221900012003B
:102192000901D96B050ED95D0AE2D951D725E16E45
:1021A200000ED821E26E300EE66ED92BF3D7D9514C
:1021B200D725E16E000ED821E26EE66AD907000E3D
:1021C200D61902E1000ED5192CE0D951D725DA6FC4
:1021D200000ED821DB6F0A0E046E000E056ED5C903
:1021E20000F0D6C901F0BCEC00F008C000F009C054
:1021F20001F0300E0026DAC9E1FFDBC9E2FF00C0C0
:10220200E6FFD9070A0E046E000E056ED5C900F06E
:10221200D6C901F0BCEC00F000C0D5F901C0D6F976
:04222200CED7120001
:102226000901D96BDA6BD551010A03E1D651800F4A
:10223600DA6FD551020A03E1D651C00FDA6F5DDFBE
:102246007C0E0901DC6FAAEC09F0800E0901DC6F37
:10225600AAEC09F0DAC9DCF9AAEC09F0400E09018A
:10226600DC6FAAEC09F00901D951D725E96E000EF9
:10227600D821EA6EEE500A0A10E0D95110080DE393
:10228600D951D725E96E000ED821EA6EEECFDCF9DA
:10229600AAEC09F00901D92BE6D76DDF0D0E0C6EFD
:1022A600FB0E0D6E0D2EFED70C2EFCD70000000087
:0222B600120014
:1022B8000901D56B050113B103D00901D59102D0ED
:1022C8000901D581050114B103D00901D59302D0C4
:1022D8000901D5830501136B146B140E0601CE5D3D
:1022E8000FE20901D5B104D0A7B502D0D59101D02C
:1022F800D581D5B304D0A7B102D0D59301D0D58369
:06230800D5C900F012002F
:10230E000901D66B83BA02D0D68101D0D69184B0A2
:10231E0002D0D68301D0D69383B802D0D68501D011
:10232E00D695050E0501115D02E20901D66B090174
:10233E00D651000A22E105011251000A0AE10801F4
:10234E00F06B0901006B0501126B0901D56B0801D9
:10235E00FF6B05011251010A10E1050E0401A15D8A
:10236E000CE30801F06B0901006B0501126B09010A
:10237E00D56B0801FF6B0501116B0801F051010AC5
:10238E000FE10301E2510401A25D0AE3010E08010F
:10239E00FF6F0401A26B190E0901005DD8A0002B7E
:1023AE000901D651000A26E005011251010A22E167
:1023BE000801F051000A1EE1020EEC25016E000E1E
:1023CE00ED21026E000EEE21036E000EEF21046E63
:1023DE0006010A51041808E10951031805E10851D4
:1023EE00021802E10751011805E1010E0801F06F14
:1023FE000401A26B0901D651000A0AE0050112512F
:10240E00010A06E10801F051000A02E10901D56B4B
:10241E000901D651000A0FE005011251010A0BE124
:10242E000801F051010A07E10901D6510801FF0325
:10243E00F3CFD5F9FF6B0901D651000A12E0050161
:10244E001251000A0EE1D6C9D5F9010E126F07C658
:10245E00ECF808C6EDF809C6EEF80AC6EFF8040166
:10246E00A16B0901D551000A03E0010E0701466F69
:06247E00D5C900F01200B8
:1024840083A003D083A201D006D004018F51640835
:10249400D8B08F2B02D004018F6B8F51640805E2F2
:1024A40083B003D0010E006E09D08F51640805E299
:0E24B40083B203D0020E006E01D0006A120047
:1024C2006A0E0801BA6F010EBB6FFA0EBC6F090EDD
:1024D200BD6FFF0EB16FFF0EB26F000EB36F000E35
:1024E200B46FFF0EB56FFF0EB66F000EB76F000E22
:1024F200B86FFF0EAD6FFF0EAE6F000EAF6F000E26
:10250200B06FAC8A900EAB6E948E949C9EAA03D050
:08251200AECF00F0FBD7120070
:10251A000901A7A302D00501102B05011051010AD8
:10252A0020E1540E0901F36F060EF46FD00EF56F19
:10253A00040EF66F100EF76F000EF86F91EC01F0B3
:10254A00860EF36F060EF46FE00EF56F040EF66F4B
:10255A00100EF76F000EF86F91EC01F0010E0601F4
:10256A00536F05011051020A20E1540E0901F36F5D
:10257A00060EF46FF00EF56F040EF66F100EF76F7D
:10258A00000EF86F91EC01F0860EF36F060EF46FF1
:10259A00000EF56F050EF66F100EF76F000EF86F4E
:1025AA0091EC01F0010E0601536F05011051030A67
:0A25BA0003E1640E0601CE6F12006B
:1025C4009DDD7C0E0901DC6FAAEC09F0800E090187
:1025D400DC6FAAEC09F00901D551020A04E1380EB6
:1025E400DC6FAAEC09F00901D551010A04E1340EAB
:1025F400DC6FAAEC09F0800E0901DC6FAAEC09F08B
:102604000901D551020A04E1390EDC6FAAEC09F084
:102614000901D551010A04E1350EDC6FAAEC09F079
:10262400800E0901DC6FAAEC09F01C0E0901DC6FB5
:10263400AAEC09F0800E0901DC6FAAEC09F0720E15
:102644000901DC6FAAEC09F0800E0901DC6FAAEC29
:1026540009F0550E0901DC6FAAEC09F0800E09019E
:10266400DC6FAAEC09F06C0E0901DC6FAAEC09F02E
:10267400800E0901DC6FAAEC09F00C0E0901DC6F75
:10268400AAEC09F0800E0901DC6FAAEC09F0010E36
:102694000901DC6FAAEC09F0800E0901DC6FAAECD9
:1026A40009F0060E0901DC6FAAEC09F0800E09019D
:1026B400DC6FAAEC09F0020E0901DC6FAAEC09F048
:0426C4005BDD1200C8
:1026C800949894968B988B9694889486C79EC79C6A
:0626D800380EC66E120070
:1026DE000901D66BD76B3F0ED515026E02C0D5F928
:1026EE00540ED66F02C000F00032009E0032009EE3
:1026FE000032009E0032009E540E0010D66F700EF7
:10270E00D76F0F0E0214006E700E0010D76FF1DC33
:10271E007C0E0901DC6FAAEC09F0800E0901DC6F5A
:10272E00AAEC09F0D6C9DCF9AAEC09F0800E090171
:10273E00DC6FAAEC09F0D7C9DCF9AAEC09F017DDB9
:10274E000D0E0C6EFB0E0D6E0D2EFED70C2EFCD745
:06275E0000000000120063
:102764000901A7A10BD00001D951000A03E1180EF9
:10277400D96F01D0D907640E0601CE6F0901A7A550
:102784000AD00001D951180A02E1D96B01D0D92B22
:10279400640E0601CE6F0901A7A303D0660E0601DD
:1027A400CE6F0901A751050A26E1540EF36F060EF8
:1027B400F46FB00EF56F040EF66F100EF76F000E87
:1027C400F86F91EC01F00501106B860E0901F36FAF
:1027D400060EF46FC00EF56F040EF66F100EF76F51
:1027E400000EF86F91EC01F0020E0601416F010E2C
:0827F400536FFA0ECE6F1200C4
:1027FC00010E0401166F0901A7A321D00401166B69
:10280C000701A16B650E0601CE6F9FEC0BF000016A
:10281C00D951000A14E10901C46B3850000A06E1D1
:10282C00C80E0601CE6F010E0401176F3850010A55
:10283C0006E1C90E0601CE6F010E0401176F0001EF
:10284C00D951000A16E10901A7A108D03850000897
:10285C0005E238069FEC0BF0660ECE6F0901A7A5BA
:10286C0008D0010E385C05E2382A9FEC0BF0660E9E
:10287C00CE6F0001D951010A16E10901A7A108D0B8
:10288C00B851000805E2B8079FEC0BF0660ECE6F4E
:10289C000901A7A508D0FF0EB85D05E2B82B9FEC87
:1028AC000BF0660ECE6F0001D951020A16E1090138
:1028BC00A7A108D01651000805E216079FEC0BF0F3
:1028CC00660ECE6F0901A7A508D0FF0E165D05E2B6
:1028DC00162B9FEC0BF0660ECE6F0001D951030A3C
:1028EC0016E10901A7A108D0B751000805E2B70706
:1028FC009FEC0BF0660ECE6F0901A7A508D0FF0E5A
:10290C00B75D05E2B72B9FEC0BF0660ECE6F0001A6
:10291C00D951040A16E10901A7A108D0B351000846
:10292C0005E2B3079FEC0BF0660ECE6F0901A7A56D
:10293C0008D0FF0EB35D05E2B32B9FEC0BF0660ED7
:10294C00CE6F0001D951050A16E10901A7A108D0E3
:10295C00B251000805E2B2079FEC0BF0660ECE6F89
:10296C000901A7A508D0FF0EB25D05E2B22B9FECC2
:10297C000BF0660ECE6F0001D951060A16E1090163
:10298C00A7A108D0B651000805E2B6079FEC0BF0E2
:10299C00660ECE6F0901A7A508D0FF0EB65D05E245
:1029AC00B62B9FEC0BF0660ECE6F0001D951070AC7
:1029BC0016E10901A7A108D0B551000805E2B50739
:1029CC009FEC0BF0660ECE6F0901A7A508D0FF0E89
:1029DC00B55D05E2B52B9FEC0BF0660ECE6F0001DA
:1029EC00D951080A16E10901A7A108D0B451000871
:1029FC0005E2B4079FEC0BF0660ECE6F0901A7A59C
:102A0C0008D0FF0EB45D05E2B42B9FEC0BF0660E04
:102A1C00CE6F0001D951090A22E10901A7A110D0FA
:102A2C00000E006EC151005C02E1C051010808E2C9
:102A3C00010EC05F000EC15B9FEC0BF0660ECE6FFB
:102A4C000901A7A50CD0000EC15D02E10A0EC05D04
:102A5C0006E2C04BC12B9FEC0BF0660ECE6F000153
:102A6C00D9510A0A22E10901A7A110D0000E006E6B
:102A7C00B151005C02E1B051010808E2010EB05FF7
:102A8C00000EB15B9FEC0BF0660ECE6F0901A7A593
:102A9C000CD0000EB15D02E10A0EB05D06E2B04B47
:102AAC00B12B9FEC0BF0660ECE6F0001D9510B0AC7
:102ABC0018E10901A7A109D007017F51000805E21F
:102ACC007F079FEC0BF0660ECE6F0901A7A509D00E
:102ADC000F0E07017F5D05E27F2B9FEC0BF0660E5E
:102AEC00CE6F0001D9510C0A18E10901A7A109D038
:102AFC000701A251000805E2A2079FEC0BF0660E3D
:102B0C00CE6F0901A7A509D00F0E0701A25D05E242
:102B1C00A22B9FEC0BF0660ECE6F0001D9510D0A63
:102B2C0016E10901A7A108D0C251000805E2C207AD
:102B3C009FEC0BF0660ECE6F0901A7A508D00A0E0C
:102B4C00C25D05E2C22B9FEC0BF0660ECE6F00014E
:102B5C00D9510E0A16E10901A7A108D0C3510008EA
:102B6C0005E2C3079FEC0BF0660ECE6F0901A7A51B
:102B7C0008D00A0EC35D05E2C32B9FEC0BF0660E6A
:102B8C00CE6F0001D9510F0A16E10901A7A108D097
:102B9C00BE51000805E2BE079FEC0BF0660ECE6F2F
:102BAC000901A7A508D0FF0EBE5D05E2BE2B9FEC68
:102BBC000BF0660ECE6F0001D951100A22E109010B
:102BCC00A7A110D0000E006EA651005C02E1A55129
:102BDC00000808E2010EA55F000EA65B9FEC0BF04F
:102BEC00660ECE6F0901A7A50CD0FD0EA65D02E105
:102BFC00E80EA55D06E2A54BA62B9FEC0BF0660E2E
:102C0C00CE6F0001D951110A22E10601CE6B540E90
:102C1C000901F36F060EF46F010EF56F090EF66FD6
:102C2C00100EF76F000EF86F91EC01F0010E06011B
:102C3C00416F0401166B0701A16B010E0601536F66
:102C4C00010E0401176F4BEC10F064EC07F000015F
:102C5C00D951120A16E10901A7A108D01751000891
:102C6C0005E217079FEC0BF0660ECE6F0901A7A5C6
:102C7C0008D0010E175D05E2172B9FEC0BF0660ECA
:102C8C00CE6F0001D951130A16E10901A7A108D092
:102C9C001551000805E215079FEC0BF0660ECE6F80
:102CAC000901A7A508D0010E155D05E2152B9FECB7
:102CBC000BF0660ECE6F0001D951140A16E1090112
:102CCC00A7A108D0A451000805E2A4079FEC0BF0C3
:102CDC00660ECE6F0901A7A508D0010EA45D05E212
:102CEC00A42B9FEC0BF0660ECE6F0001D951150A88
:102CFC0016E10901A7A108D0BF51000805E2BF07E2
:102D0C009FEC0BF0660ECE6F0901A7A508D0010E43
:102D1C00BF5D05E2BF2B9FEC0BF0660ECE6F000182
:102D2C00D951160A1FE10901A7A10CD0B95100080D
:102D3C0009E2B907B951090AD8B4B96B9FEC0BF089
:102D4C00660ECE6F0901A7A50DD0FF0EB95D0AE284
:102D5C00B92BB951010A02E10A0EB96F9FEC0BF0C5
:102D6C00660ECE6F0001D951170A1CE1670E0601E1
:102D7C00CE6F540E0901F36F060EF46F010EF56F52
:102D8C00090EF66F100EF76F000EF86F91EC01F054
:102D9C000401166B010E0601416F010E536F010EFB
:102DAC000401176F0001D951180A1DE10601CE6B01
:102DBC00540E0901F36F060EF46F010EF56F090E38
:102DCC00F66F100EF76F000EF86F91EC01F0040126
:102DDC00166B010E0601416F010E536FF8EC08F0F3
:082DEC00010E0401176F120033
:102DF4000901D56BDC6BA2EC10F000C011F901C025
:102E040012F9010E0901DC6FA2EC10F000C013F9F5
:102E140001C014F906015251000A03E10801606B74
:102E2400616B0601F451000A03E108015D6B5E6BFE
:102E34000601F551000A22E00801A7510901125DBB
:102E440004E10801A6510901115D0AE2FF0E08011F
:102E5400615D02E1FA0E605D02E2604B612B0DD010
:102E64000801000E006E6151005C02E1605100082F
:102E740004E2010E605F000E615B03D00801606B29
:102E8400616B6151A35D02E16051A25D02E209013F
:102E9400D58106013151000A22E00801A55109013A
:102EA400145D04E10801A4510901135D0AE2FF0E57
:102EB40008015E5D02E1FA0E5D5D02E25D4B5E2B90
:102EC4000DD00801000E006E5E51005C02E15D5100
:102ED400000804E2010E5D5F000E5E5B03D0080192
:102EE4005D6B5E6B5E51AB5D02E15D51AA5D02E21A
:0A2EF4000901D583D5C900F01200D2
:102EFE00838E010E0601746F010E0901DC6F33EC37
:102F0E000AF0005232E0010EDC6F010EDD6F64EC50
:102F1E000FF00F0E0901DC6F020EDD6F010EDE6F7A
:102F2E00BDEC08F0839C540E0901F36F060EF46F8E
:102F3E00970EF56F060EF66F100EF76F000EF86F08
:102F4E0091EC01F0860EF36F060EF46F750EF56FB1
:102F5E00060EF66F100EF76F000EF86F91EC01F083
:102F6E00010E0601536F010E416F020E0901DC6F57
:102F7E0033EC0AF0005210E0020EDC6F010EDD6F32
:102F8E0064EC0FF0470E0901DC6F020EDD6F010ECF
:102F9E00DE6FBDEC08F0839C0A0E0901DC6F33EC8A
:102FAE000AF0005210E0010E0601526F010E0901E7
:102FBE00DC6FE6EC08F0560EDC6F020EDD6F010ED4
:102FCE00DE6FBDEC08F00B0E0901DC6F33EC0AF07E
:102FDE00005210E0010E0601F46F020E0901DC6FC3
:102FEE00E6EC08F0220EDC6F020EDD6F010EDE6FD6
:102FFE00BDEC08F0050E0901DC6F33EC0AF000524F
:10300E0011E0010EDC6F31C6DDF98FEC0BF006011D
:10301E00516B380E0901DC6F020EDD6F010EDE6F93
:10302E00BDEC08F0060E0901DC6F33EC0AF000521D
:10303E0011E0F5C6DCF9010EDD6F8FEC0BF0070128
:10304E00236B700E0901DC6F020EDD6F010EDE6F59
:10305E00BDEC08F0030E0901DC6F33EC0AF00052F0
:10306E0009E106015251010A04E10901ACA101D0A6
:10307E0001D012D00601B7A10FD0B791010E0901F0
:10308E00DC6F67EC0AF02F0E0901DC6F030EDD6FAB
:10309E00010EDE6FBDEC08F0040E0901DC6F33EC9F
:1030AE000AF0005209E10601F451010A04E1090196
:1030BE00ACA301D001D012D00601B7A30FD0B793A5
:1030CE00020E0901DC6F67EC0AF03E0E0901DC6F9F
:1030DE00030EDD6F010EDE6FBDEC08F00C0E090164
:1030EE00DC6F33EC0AF00052D8A4838C1651000A20
:1030FE0005E00501AB51010A01E002D00601B793CC
:10310E00030E0501AA5DD8A09CD00901ADA131D056
:10311E0017532FE0010EDC6F67EC0AF0020E090167
:10312E00DC6F67EC0AF00601526BF46B050ECE6F86
:10313E00040E0901DC6F030EDD6F010EDE6FBDECB8
:10314E0008F0090E0901DC6F01EC10F0540EF36F5C
:10315E00060EF46F3B0EF56F050EF66F100EF76F41
:10316E00000EF86F91EC01F0010E0601536F010E87
:10317E00416F0901AB51000A2FE0010EDC6F67ECC5
:10318E000AF0020E0901DC6F67EC0AF0050E06016B
:10319E00CE6F526BF46B150E0901DC6F030EDD6FF3
:1031AE00010EDE6FBDEC08F0090E0901DC6F01ECBB
:1031BE0010F0540EF36F060EF46F190EF56F050E28
:1031CE00F66F100EF76F000EF86F91EC01F0010E16
:1031DE000601536F010E416F0901AE51010A31E133
:1031EE0015532FE0010EDC6F67EC0AF0020E090199
:1031FE00DC6F67EC0AF0050E0601CE6F526BF46BB6
:10320E006B0E0901DC6F030EDD6F010EDE6FBDEC80
:10321E0008F0090E0901DC6F01EC10F0540EF36F8B
:10322E00060EF46F4C0EF56F050EF66F100EF76F5F
:10323E00000EF86F91EC01F0010E0601536F010EB6
:10324E00416F0601B751000AD8A4ACD0000E090197
:10325E00A61902E1000EA51918E0A55106010725D1
:10326E000901DC6FA651060108210901DD6F000E70
:10327E00060109210901DE6F000E06010A2109016E
:10328E00DF6F090EE06FBBEC09F0A45371E0010E85
:10329E00DC6FDD6B64EC0FF0020E0901DC6FDD6B91
:1032AE0064EC0FF0010E0901DC6F31C6DDF98FEC15
:1032BE000BF00601526B516BF5C6DCF9010E0901DC
:1032CE00DD6F8FEC0BF00601F46B0701236B010E23
:1032DE00060107250901DC6F000E06010821090110
:1032EE00DD6F000E060109210901DE6F000E0601D9
:1032FE000A210901DF6F030EE06FBBEC09F0010E2E
:10330E00060107250901DC6F000E060108210901DF
:10331E00DD6F000E060109210901DE6F000E0601A8
:10332E000A210901DF6F040EE06FBBEC09F0010EFC
:10333E00060107250901DC6F000E060108210901AF
:10334E00DD6F000E060109210901DE6F000E060178
:10335E000A210901DF6F010EDC27000EDD23DE23BB
:10336E00DF230D0EE06FBBEC09F00601B7851AD016
:10337E000601010E07250901DC6F000E060108216A
:10338E000901DD6F000E060109210901DE6F000E35
:10339E0006010A210901DF6F0D0EE06FBBEC09F08B
:1033AE000601B7850D0E0901DC6F33EC0AF00052F1
:1033BE002BE0020E0601CE6F1C6B066B090E090187
:1033CE00DC6F01EC10F0540EF36F060EF46F0B0E63
:1033DE00F56F060EF66F100EF76F000EF86F91EC8C
:1033EE0001F0860EF36F060EF46F750EF56F060E76
:1033FE00F66F100EF76F000EF86F91EC01F0010EE4
:10340E000601536F020E416F0601CE51050A04E00C
:10341E00CE51060A01E02ED00901DC6B01EC10F052
:10342E00000EA61902E1000EA51924E0A551060111
:10343E0007250901DC6FA651060108210901DD6F80
:10344E00000E060109210901DE6F000E06010A2198
:10345E000901DF6F090EE06FBBEC09F00601056B89
:10346E00066B800E0901DC6F030EDD6F010EDE6F41
:06347E00BDEC08F0120095
:10348400838E010E0601746F010E0901DC6F33ECAB
:103494000AF000520EE0010EDC6FDD6B64EC0FF0FD
:1034A400AC0E0901DC6F050EDD6F010EDE6FBDECA5
:1034B40008F0020E0901DC6F33EC0AF0005230E030
:1034C400020EDC6FDD6B64EC0FF0F60E0901DC6FAD
:1034D400050EDD6F010EDE6FBDEC08F0540E090120
:1034E400F36F060EF46FE50EF56F050EF66F100E12
:1034F400F76F000EF86F91EC01F0860EF36F060E75
:10350400F46F750EF56F060EF66F100EF76F000E62
:10351400F86F91EC01F0010E0601536F010E416F3B
:103524000A0E0901DC6F33EC0AF0005210E0010EC0
:103534000601526F010E0901DC6FE6EC08F0D00EB3
:10354400DC6F050EDD6F010EDE6FBDEC08F00B0EB7
:103554000901DC6F33EC0AF0005210E0010E0601A1
:10356400F46F020E0901DC6FE6EC08F0260EDC6F46
:10357400080EDD6F010EDE6FBDEC08F0050E0901CB
:10358400DC6F33EC0AF0005212E0010EDC6F31C63E
:10359400DDF98FEC0BF00601526B516B170E09012C
:1035A400DC6F080EDD6F010EDE6FBDEC08F0070E58
:1035B4000901DC6F33EC0AF0005212E0DC6B31C617
:1035C400DDF98FEC0BF00601526B010E516F060E04
:1035D4000901DC6F080EDD6F010EDE6FBDEC08F033
:1035E400060E0901DC6F33EC0AF0005211E0F5C657
:1035F400DCF9010EDD6F8FEC0BF00701236B4D0E30
:103604000901DC6F080EDD6F010EDE6FBDEC08F002
:10361400080E0901DC6F33EC0AF0005211E0F5C624
:10362400DCF9DD6B8FEC0BF0010E0701236F3C0E10
:103634000901DC6F080EDD6F010EDE6FBDEC08F0D2
:10364400030E0901DC6F33EC0AF0005210E00801AC
:103654003B91010E0901DC6F67EC0AF0F90E0901D8
:10366400DC6F070EDD6F010EDE6FBDEC08F0040E9B
:103674000901DC6F33EC0AF0005210E008013B93BF
:10368400020E0901DC6F67EC0AF0C50E0901DC6F5C
:10369400070EDD6F010EDE6FBDEC08F0060152511E
:1036A400010A37E10901ACA134D006015151000AE5
:1036B40030E1010E0901DC6F67EC0AF0020E09012A
:1036C400DC6F67EC0AF0060E0601CE6F526BF46BEA
:1036D400B40E0901DC6F070EDD6F010EDE6FBDEC69
:1036E40008F0090E0901DC6F01EC10F0540EF36FC1
:1036F400060EF46F990EF56F050EF66F100EF76F48
:10370400000EF86F91EC01F0010E0601536F010EEB
:10371400416F0601F451010A37E10901ACA334D029
:1037240007012351000A30E1010E0901DC6F67EC47
:103734000AF0020E0901DC6F67EC0AF0060E0601BE
:10374400CE6F526BF46BA30E0901DC6F070EDD6FB5
:10375400010EDE6FBDEC08F0090E0901DC6F01EC0F
:1037640010F0540EF36F060EF46F990EF56F050EFC
:10377400F66F100EF76F000EF86F91EC01F0010E6A
:103784000601536F010E416F09011651000A05E04D
:103794000501AB51010A01E002D008013B93030E7D
:1037A4000501AA5DD8A09CD00901ADA131D0010EBC
:1037B400DC6F67EC0AF0020E0901DC6F67EC0AF0BB
:1037C4000601526BF46B060ECE6F010E0701F86F03
:1037D400E70E0901DC6F070EDD6F010EDE6FBDEC35
:1037E40008F00901DC6B01EC10F0540EF36F060EC7
:1037F400F46F3B0EF56F050EF66F100EF76F000EAB
:10380400F86F91EC01F0010E0601536F010E416F48
:103814000901AE51020A31E115532FE0010EDC6FAC
:1038240067EC0AF0020E0901DC6F67EC0AF0060E81
:103834000601CE6F526BF46BD20E0901DC6F070EDA
:10384400DD6F010EDE6FBDEC08F0090E0901DC6FBF
:1038540001EC10F0540EF36F060EF46F4C0EF56F7E
:10386400050EF66F100EF76F000EF86F91EC01F075
:10387400010E0601536F010E416F0901AB51000A9D
:103884002FE0010EDC6F67EC0AF0020E0901DC6F19
:1038940067EC0AF0060E0601CE6F526BF46B760EDF
:1038A4000901DC6F080EDD6F010EDE6FBDEC08F060
:1038B400090E0901DC6F01EC10F0540EF36F060ED3
:1038C400F46F190EF56F050EF66F100EF76F000EFC
:1038D400F86F91EC01F0010E0601536F010E416F78
:1038E40008013B51000AD8A4A7D00901A453D8B4B5
:1038F40089D0010EDC6F010EDD6F64EC0FF0010E58
:10390400060107250901DC6F000E060108210901E3
:10391400DD6F000E060109210901DE6F000E0601AC
:103924000A210901DF6F0E0EE06FBBEC09F0010EF6
:10393400DC6F31C6DDF98FEC0BF00601526B516B75
:10394400F5C6DCF9010E0901DD6F8FEC0BF0060101
:10395400F46B0701236B010E060107250901DC6FD7
:10396400000E060108210901DD6F000E0601092180
:103974000901DE6F000E06010A210901DF6F030E43
:10398400E06FBBEC09F0010E060107250901DC6FAD
:10399400000E060108210901DD6F000E0601092150
:1039A4000901DE6F000E06010A210901DF6F010E15
:1039B400DC27000EDD23DE23DF23040EE06FBBECE7
:1039C40009F0010E060107250901DC6F000E06014E
:1039D40008210901DD6F000E060109210901DE6FCE
:1039E400000E06010A210901DF6F010EDC27000E1B
:1039F400DD23DE23DF230D0EE06FBBEC09F00801AD
:103A04003B851AD0010E060107250901DC6F000E63
:103A1400060108210901DD6F000E060109210901D3
:103A2400DE6F000E06010A210901DF6F0D0EE06F43
:103A3400BBEC09F008013B850E0E0901DC6F33EC89
:103A44000AF0005206E0020EDC6F010EDD6F64EC3A
:103A54000FF00D0E0901DC6F33EC0AF000522BE07D
:103A6400010E0601CE6F1C6B066B090E0901DC6F9B
:103A740001EC10F0540EF36F060EF46F650EF56F43
:103A8400080EF66F100EF76F000EF86F91EC01F050
:103A9400860EF36F060EF46F750EF56F060EF66F55
:103AA400100EF76F000EF86F91EC01F0010E060195
:103AB400536F010E416F0601CE51050A04E0CE5149
:103AC400060A01E030D00901DC6B01EC10F0000EB5
:103AD400A61902E1000EA51926E00601066B0901EC
:103AE400A551060107250901DC6FA651060108212D
:103AF4000901DD6F000E060109210901DE6F000EC8
:103B040006010A210901DF6F090EE06FBBEC09F021
:103B14000601056B880E0901DC6F080EDD6F010ECE
:083B2400DE6FBDEC08F0120099
:103B2C00EBD1838E0901ABA108D0020E0801E66F20
:103B3C000901C42B010E0701466F0901ABA309D083
:103B4C00010E0801E66F030E0901C46F010E070197
:103B5C00466F0601526BF46B07D2020E0901DC6F43
:103B6C00DD6B64EC0FF0060E060107250901DC6F16
:103B7C00000E060108210901DD6F000E0601092166
:103B8C000901DE6F000E06010A210901DF6F150E17
:103B9C00E06FBBEC09F0C42BE7D1ACA30CD0060151
:103BAC00F451010A08E1F46B020E0901DC6F67ECB9
:103BBC000AF00901C42B0901150EDC6F33EC0AF075
:103BCC00005203E0010E0601F46FCED1010E090183
:103BDC00DC6FDD6B64EC0FF0060E060107250901A6
:103BEC00DC6F000E060108210901DD6F000E0601D5
:103BFC0009210901DE6F000E06010A210901DF6FA0
:103C0C00140EE06FBBEC09F0C42BACA10CD0060178
:103C1C005251010A08E1526B010E0901DC6F67EC8D
:103C2C000AF00901C42B0901140EDC6F33EC0AF005
:103C3C00005203E0010E0601526F96D107C6E8F858
:103C4C0008C6E9F809C6EAF80AC6EBF8010E09013C
:103C5C00DC6F010EDD6F64EC0FF0060E060107251C
:103C6C000901DC6F000E060108210901DD6F000E51
:103C7C00060109210901DE6F000E06010A21090166
:103C8C00DF6F140EE06FBBEC09F0C42B6DD1ACA14F
:103C9C001BD006015251010A17E1526B010E0901AA
:103CAC00DC6F67EC0AF00801E651010A04E10B0E27
:103CBC000901C46F02D00901C42B0801E8510601A7
:103CCC00075D006E00C0DBF8140E0901DC6F33ECED
:103CDC000AF0005203E0010E0601526F45D107C6EF
:103CEC00E8F808C6E9F809C6EAF80AC6EBF8020EC5
:103CFC000901DC6F010EDD6F64EC0FF0060E06019E
:103D0C0007250901DC6F000E060108210901DD6F92
:103D1C00000E060109210901DE6F000E06010A21C1
:103D2C000901DF6F150EE06FBBEC09F0C42B1CD141
:103D3C00ACA313D00601F451010A0FE1F46B020E8F
:103D4C000901DC6F67EC0AF00901C42B0801E8518A
:103D5C000601075D006E00C0DDF8150E0901DC6F71
:103D6C0033EC0AF0005203E0010E0601F46FFCD0B4
:103D7C0007C6E8F808C6E9F809C6EAF80AC6EBF877
:103D8C00020E0901DC6FDD6B64EC0FF0060E060110
:103D9C0007250901DC6F000E060108210901DD6F02
:103DAC00000E060109210901DE6F000E06010A2131
:103DBC000901DF6F150EE06FBBEC09F0C42BD4D0FA
:103DCC00ACA313D00601F451010A0FE1F46B020EFF
:103DDC000901DC6F67EC0AF00901C42B0801E851FA
:103DEC000601075D006E00C0DCF8150E0901DC6FE2
:103DFC0033EC0AF0005203E0010E0601F46FB4D06C
:103E0C0007C6E8F808C6E9F809C6EAF80AC6EBF8E6
:103E1C00010E0901DC6FDD6B64EC0FF0060E060180
:103E2C0007250901DC6F000E060108210901DD6F71
:103E3C00000E060109210901DE6F000E06010A21A0
:103E4C000901DF6F140EE06FBBEC09F0C42B8CD0B2
:103E5C00ACA113D006015251010A0FE1526B010EB5
:103E6C000901DC6F67EC0AF00901C42B0801E85169
:103E7C000601075D006E00C0DAF8140E0901DC6F54
:103E8C0033EC0AF0005203E0010E0601526F6CD0C5
:103E9C00DA0E0901DC6F080EDD6F35EC08F0DA0E76
:103EAC00DC6F080EDD6FE6C8DEF976EC0AF0540E16
:103EBC000901F36F060EF46F350EF56F070EF66FF2
:103ECC00100EF76F000EF86F91EC01F0860EF36F89
:103EDC00060EF46F240EF56F070EF66F100EF76FCB
:103EEC00000EF86F91EC01F0020E0601416F010E0D
:103EFC00536F839ECE6B38D00901C451000AD8B4DD
:103F0C0010D6C451010AD8B428D6C451020AD8B468
:103F1C0044D6C451030AD8B459D6C451040AD8B4EF
:103F2C0074D6C451050AD8B489D6C451060AD8B47B
:103F3C00AED6C451070AD8B4D2D6C451080AD8B4E4
:103F4C00F7D6C451090AD8B413D7C4510A0AD8B445
:103F5C0037D7C4510B0AD8B453D7C4510C0AD8B4B0
:0A3F6C0077D7C4510D0A94E012004B
:103F7600020E0901D56F839E0601746B32EC0BF0BD
:103F860000500601061921E00701A16B32EC0BF087
:103F960000C006F600C0DCF9910EDD6F060EDE6F7E
:103FA6004BEC0AF0860EF36F060EF46F950EF56F66
:103FB600070EF66F0B0EF76F000EF86F91EC01F01F
:103FC600010E0601536F020E416F0901AB51000A43
:103FD60008E1090EDC6F33EC0AF00050010A01E03B
:103FE600D4D1B351000A05E00501AB51010A01E045
:103FF60083D00901DC6B01EC10F0D55106010725D1
:10400600006E000E0821016E000E0921026E000EE0
:104016000A21036E00C0BAF901C0BBF902C0BCF99F
:1040260003C0BDF900C0DCF901C0DDF902C0DEF94C
:1040360003C0DFF9010E0901E06FBBEC09F0BAC954
:10404600DCF9BBC9DDF9BCC9DEF9BDC9DFF9050E6E
:10405600E06FBBEC09F00601516B060E0725006EFA
:10406600000E0821016E000E0921026E000E0A21C3
:10407600036E0901D5510026000E012202220322F9
:1040860000C0BAF901C0BBF902C0BCF903C0BDF952
:1040960000C0DCF901C0DDF902C0DEF903C0DFF9BA
:1040A6000A0EE06FBBEC09F0B75106010725006E5A
:1040B600000E0821016E000E0921026E000E0A2173
:1040C600036E0901D5510026000E012202220322A9
:1040D60000C0BAF901C0BBF902C0BCF903C0BDF902
:1040E60000C0DCF901C0DDF902C0DEF903C0DFF96A
:1040F600030EE06FBBEC09F00901B351000AD8B416
:1041060038D10501AB51020AD8A433D1090E0901F1
:10411600DC6F01EC10F0D55106010725006E000E8C
:104126000821016E000E0921026E000E0A21036E9F
:1041360000C0BAF901C0BBF902C0BCF903C0BDF9A1
:1041460000C0DCF901C0DDF902C0DEF903C0DFF909
:10415600020E0901E06FBBEC09F0BAC9DCF9BBC974
:10416600DDF9BCC9DEF9BDC9DFF9060EE06FBBECAF
:1041760009F00601516B060E0725006E000E082198
:10418600016E000E0921026E000E0A21036E09015E
:10419600D5510026000E01220222032200C0BAF9E0
:1041A60001C0BBF902C0BCF903C0BDF900C0DCF90F
:1041B60001C0DDF902C0DEF903C0DFF90B0EE06FC6
:1041C600BBEC09F0B75106010725006E000E082169
:1041D600016E000E0921026E000E0A21036E09010E
:1041E600D5510026000E01220222032200C0BAF990
:1041F60001C0BBF902C0BCF903C0BDF900C0DCF9BF
:1042060001C0DDF902C0DEF903C0DFF9040EE06F7C
:10421600BBEC09F0BE5106010725006E000E082111
:10422600016E000E0921026E000E0A21036E0901BD
:10423600D5510026000E01220222032200C0BAF93F
:1042460001C0BBF902C0BCF903C0BDF900C0DCF96E
:1042560001C0DDF902C0DEF903C0DFF9010EE06F2F
:10426600BBEC09F0BE5106010725006E000E0821C1
:10427600016E000E0921026E000E0A21036E09016D
:10428600D5510026000E01220222032200C0BAF9EF
:1042960001C0BBF902C0BCF903C0BDF900C0DCF91E
:1042A60001C0DDF902C0DEF903C0DFF9050EE06FDB
:1042B600BBEC09F00701236B0901BE510601072576
:1042C600006E000E0821016E000E0921026E000E1E
:1042D6000A21036E060E0026000E01220222032288
:1042E6000901D5510026000E01220222032200C038
:1042F600BAF901C0BBF902C0BCF903C0BDF900C0E0
:10430600DCF901C0DDF902C0DEF903C0DFF90A0EEF
:10431600E06FBBEC09F0B35106010725006E000EF5
:104326000821016E000E0921026E000E0A21036E9D
:104336000901D5510026000E012202220322BE5198
:104346000026000E01220222032200C0BAF901C093
:10435600BBF902C0BCF903C0BDF900C0DCF901C05D
:10436600DDF902C0DEF903C0DFF9030EE06FBBEC36
:1043760009F0030E08013B6F0601526BF46B050151
:10438600AA6B0601056B070ECE6F0901ADA117D00A
:10439600000EA61902E1000EA51911E006011C5136
:1043A600000A0DE1010E1C6F010E056F800E09015A
:1043B600DC6F070EDD6F010EDE6FBDEC08F0060147
:1043C6001C51010A15E10901ADB112D0000EA61962
:1043D60002E1000EA5190CE00601056B1C6B690EC7
:1043E6000901DC6F070EDD6F010EDE6FBDEC08F014
:0243F6001200B3
:1043F800030E0901D56F839E0601746B32EC0BF036
:1044080000500601061921E00701A16B32EC0BF000
:1044180000C006F600C0DCF9910EDD6F060EDE6FF7
:104428004BEC0AF0860EF36F060EF46F8E0EF56FE6
:10443800000EF66F0B0EF76F000EF86F91EC01F09F
:10444800010E0601536F020E416F0901AB51000ABC
:1044580004E10701F85301E140D10701F86B838EAD
:10446800010E0601746F0901DC6B01EC10F0A45316
:1044780018E0010E060107250901DC6F000E060190
:1044880008210901DD6F000E060109210901DE6F0F
:10449800000E06010A210901DF6F0C0EE06FBBEC6C
:1044A80009F0D55106010725006E000E0821016E9E
:1044B800000E0921026E000E0A21036E00C0BAF92F
:1044C80001C0BBF902C0BCF903C0BDF900C0DCF9EA
:1044D80001C0DDF902C0DEF903C0DFF9010E0901F0
:1044E800E06FBBEC09F0BAC9DCF9BBC9DDF9BCC99E
:1044F800DEF9BDC9DFF9050EE06FBBEC09F0060176
:10450800516B060E0725006E000E0821016E000E85
:104518000921026E000E0A21036E0901D5510026F9
:10452800000E01220222032200C0BAF901C0BBF921
:1045380002C0BCF903C0BDF900C0DCF901C0DDF957
:1045480002C0DEF903C0DFF90A0EE06FBBEC09F028
:10455800B85106010725006E000E0821016E000EF5
:104568000921026E000E0A21036E0901D5510026A9
:10457800000E01220222032200C0BAF901C0BBF9D1
:1045880002C0BCF903C0BDF900C0DCF901C0DDF907
:1045980002C0DEF903C0DFF9030EE06FBBEC09F0DF
:1045A8001651000AD8B48DD00501AB51020AD8A41F
:1045B80088D00901BE51060107250901DC6F000EEC
:1045C800060108210901DD6F000E06010921090114
:1045D800DE6F000E06010A210901DF6FD551DC27C5
:1045E800000EDD23DE23DF23020EE06FBBEC09F0B3
:1045F800BE51060107250901DC6F000E06010821DE
:104608000901DD6F000E060109210901DE6F000EA8
:1046180006010A210901DF6FD551DC27000EDD23D1
:10462800DE23DF23060EE06FBBEC09F00701236BE6
:104638000901BE51060107250901DC6F000E0601BC
:1046480008210901DD6F000E060109210901DE6F4D
:10465800000E06010A210901DF6F060EDC27000E95
:10466800DD23DE23DF23D551DC27000EDD23DE2307
:10467800DF230B0EE06FBBEC09F01651060107258E
:104688000901DC6F000E060108210901DD6F000E2B
:10469800060109210901DE6F000E06010A21090140
:1046A800DF6FBE51DC27000EDD23DE23DF23D5516B
:1046B800DC27000EDD23DE23DF23040EE06FBBECD6
:1046C80009F0030E0601B76F526BF46B1C6B050102
:1046D800AA6B0601056B080ECE6F090E0901DC6F87
:1046E80033EC0AF00050010AD8A4D4D1B351000A1F
:1046F80005E00501AB51010A01E083D00901DC6B3B
:1047080001EC10F0D55106010725006E000E0821B6
:10471800016E000E0921026E000E0A21036E00C010
:10472800BAF901C0BBF902C0BCF903C0BDF900C0A9
:10473800DCF901C0DDF902C0DEF903C0DFF9010EC2
:104748000901E06FBBEC09F0BAC9DCF9BBC9DDF9B6
:10475800BCC9DEF9BDC9DFF9050EE06FBBEC09F095
:104768000601516B060E0725006E000E0821016E2A
:10477800000E0921026E000E0A21036E0901D551AF
:104788000026000E01220222032200C0BAF901C04D
:10479800BBF902C0BCF903C0BDF900C0DCF901C017
:1047A800DDF902C0DEF903C0DFF90A0EE06FBBECE9
:1047B80009F0B75106010725006E000E0821016EA9
:1047C800000E0921026E000E0A21036E0901D5515F
:1047D8000026000E01220222032200C0BAF901C0FD
:1047E800BBF902C0BCF903C0BDF900C0DCF901C0C7
:1047F800DDF902C0DEF903C0DFF9030EE06FBBECA0
:1048080009F00901B351000AD8B437D10501AB51F9
:10481800020AD8A432D10901DC6B01EC10F0D551A1
:1048280006010725006E000E0821016E000E092101
:10483800026E000E0A21036E00C0BAF901C0BBF96E
:1048480002C0BCF903C0BDF900C0DCF901C0DDF944
:1048580002C0DEF903C0DFF9020E0901E06FBBEC0C
:1048680009F0BAC9DCF9BBC9DDF9BCC9DEF9BDC9B3
:10487800DFF9060EE06FBBEC09F00601516B060E7E
:104888000725006E000E0821016E000E0921026E38
:10489800000E0A21036E0901D5510026000E0122DF
:1048A8000222032200C0BAF901C0BBF902C0BCF958
:1048B80003C0BDF900C0DCF901C0DDF902C0DEF9B2
:1048C80003C0DFF90B0EE06FBBEC09F0B75106012E
:1048D8000725006E000E0821016E000E0921026EE8
:1048E800000E0A21036E0901D5510026000E01228F
:1048F8000222032200C0BAF901C0BBF902C0BCF908
:1049080003C0BDF900C0DCF901C0DDF902C0DEF961
:1049180003C0DFF9040EE06FBBEC09F0BE510601DD
:104928000725006E000E0821016E000E0921026E97
:10493800000E0A21036E0901D5510026000E01223E
:104948000222032200C0BAF901C0BBF902C0BCF9B7
:1049580003C0BDF900C0DCF901C0DDF902C0DEF911
:1049680003C0DFF9010EE06FBBEC09F0BE51060190
:104978000725006E000E0821016E000E0921026E47
:10498800000E0A21036E0901D5510026000E0122EE
:104998000222032200C0BAF901C0BBF902C0BCF967
:1049A80003C0BDF900C0DCF901C0DDF902C0DEF9C1
:1049B80003C0DFF9050EE06FBBEC09F00701236BBC
:1049C8000901BE5106010725006E000E0821016E7F
:1049D800000E0921026E000E0A21036E060E002643
:1049E800000E0122022203220901D5510026000EE1
:1049F80001220222032200C0BAF901C0BBF902C099
:104A0800BCF903C0BDF900C0DCF901C0DDF902C082
:104A1800DEF903C0DFF90A0EE06FBBEC09F0B35111
:104A280006010725006E000E0821016E000E0921FF
:104A3800026E000E0A21036E0901D5510026000EF0
:104A4800012202220322BE510026000E0122022268
:104A5800032200C0BAF901C0BBF902C0BCF903C007
:104A6800BDF900C0DCF901C0DDF902C0DEF903C000
:104A7800DFF9030EE06FBBEC09F0030E08013B6F92
:104A88000601526BF46B1C6B0501AA6B0601056BE2
:104A9800070ECE6F0901ADA117D0000EA61902E1CD
:104AA800000EA51911E006011C51000A0DE1010EC6
:104AB8001C6F010E056F9A0E0901DC6F000EDD6F89
:104AC800010EDE6FBDEC08F006011C51010A15E16C
:104AD8000901ADB112D0000EA61902E1000EA51908
:104AE8000CE00601056B1C6BEB0E0901DC6F000E78
:0C4AF800DD6F010EDE6FBDEC08F0120057
:104B0400838E010E0601746F010E0901DC6F33EC14
:104B14000AF000520EE0010EDC6FDD6B64EC0FF066
:104B24004D0E0901DC6F030EDD6F010EDE6FBDEC6F
:104B340008F0020E0901DC6F33EC0AF0005230E099
:104B4400020EDC6FDD6B64EC0FF05C0E0901DC6FB0
:104B5400030EDD6F010EDE6FBDEC08F0540E09018B
:104B6400F36F060EF46FE50EF56F050EF66F100E7B
:104B7400F76F000EF86F91EC01F0860EF36F060EDE
:104B8400F46F750EF56F060EF66F100EF76F000ECC
:104B9400F86F91EC01F0010E0601536F010E416FA5
:104BA4000A0E0901DC6F33EC0AF0005210E0010E2A
:104BB4000601526F010E0901DC6FE6EC08F09D0E50
:104BC400DC6F020EDD6F010EDE6FBDEC08F00B0E24
:104BD4000901DC6F33EC0AF0005210E0010E06010B
:104BE400F46F020E0901DC6FE6EC08F0B20EDC6F24
:104BF400020EDD6F010EDE6FBDEC08F0050E09013B
:104C0400DC6F33EC0AF0005211E0010EDC6F31C6A8
:104C1400DDF98FEC0BF00601516B7F0E0901DC6F9F
:104C2400020EDD6F010EDE6FBDEC08F0060E090109
:104C3400DC6F33EC0AF0005211E0F5C6DCF9010E2A
:104C4400DD6F8FEC0BF00701236B8E0E0901DC6F17
:104C5400020EDD6F010EDE6FBDEC08F0030E0901DC
:104C6400DC6F33EC0AF0005209E106015251010AEB
:104C740004E10901ACA101D001D012D008013BA18B
:104C84000FD03B91010E0901DC6F67EC0AF0EA0ECC
:104C94000901DC6F020EDD6F010EDE6FBDEC08F062
:104CA400040E0901DC6F33EC0AF0005209E106013D
:104CB400F451010A04E10901ACA301D001D012D0DE
:104CC40008013BA30FD03B93020E0901DC6F67EC94
:104CD4000AF0F70E0901DC6F020EDD6F010EDE6FC4
:104CE400BDEC08F009011651000A05E00501AB51BD
:104CF400010A01E002D008013B93030E0501AA5DFD
:104D0400D8A09DD00901ADA132D0010EDC6F67ECB3
:104D14000AF0020E0901DC6F67EC0AF00601526B1F
:104D2400F46B060ECE6F010E0701F86FC70E090172
:104D3400DC6F020EDD6F010EDE6FBDEC08F0090EB4
:104D44000901DC6F01EC10F0540EF36F060EF46FE2
:104D54003B0EF56F050EF66F100EF76F000EF86F31
:104D640091EC01F0010E0601536F010E416F090130
:104D7400AB51000A2FE0010EDC6F67EC0AF0020E63
:104D84000901DC6F67EC0AF0060E0601CE6F526B68
:104D9400F46BD80E0901DC6F020EDD6F010EDE6FBD
:104DA400BDEC08F0090E0901DC6F01EC10F0540EA3
:104DB400F36F060EF46F190EF56F050EF66F100EF5
:104DC400F76F000EF86F91EC01F0010E0601536FBE
:104DD400010E416F0901AE51020A31E115532FE072
:104DE400010EDC6F67EC0AF0020E0901DC6F67EC60
:104DF4000AF0060E0601CE6F526BF46BAF0E09017A
:104E0400DC6F000EDD6F010EDE6FBDEC08F0090EE5
:104E14000901DC6F01EC10F0860EF36F060EF46FDF
:104E24004C0EF56F050EF66F100EF76F000EF86F4F
:104E340091EC01F0010E0601536F010E416F080160
:104E44003B51000AD8A4A7D00901A453D8B489D0EF
:104E5400010EDC6F010EDD6F64EC0FF0010E060134
:104E640007250901DC6F000E060108210901DD6F29
:104E7400000E060109210901DE6F000E06010A2158
:104E84000901DF6F0E0EE06FBBEC09F0010EDC6F61
:104E940031C6DDF98FEC0BF00601526B516BF5C690
:104EA400DCF9010E0901DD6F8FEC0BF00601F46BE8
:104EB4000701236B010E060107250901DC6F000EB3
:104EC400060108210901DD6F000E0601092109010F
:104ED400DE6F000E06010A210901DF6F030EE06F89
:104EE400BBEC09F0010E060107250901DC6F000E79
:104EF400060108210901DD6F000E060109210901DF
:104F0400DE6F000E06010A210901DF6F010EDC27A6
:104F1400000EDD23DE23DF23040EE06FBBEC09F07B
:104F2400010E060107250901DC6F000E06010821A8
:104F34000901DD6F000E060109210901DE6F000E73
:104F440006010A210901DF6F010EDC27000EDD23B3
:104F5400DE23DF230D0EE06FBBEC09F008013B8577
:104F64001AD0010E060107250901DC6F000E0601A7
:104F740008210901DD6F000E060109210901DE6F18
:104F8400000E06010A210901DF6F0D0EE06FBBEC74
:104F940009F008013B850E0E0901DC6F33EC0AF0C1
:104FA400005206E0020EDC6F010EDD6F64EC0FF0C0
:104FB4000D0E0901DC6F33EC0AF000522BE0010EF8
:104FC4000601CE6F1C6B066B090E0901DC6F01EC48
:104FD40010F0540EF36F060EF46F650EF56F080EA5
:104FE400F66F100EF76F000EF86F91EC01F0860E5D
:104FF400F36F060EF46F750EF56F060EF66F100E56
:10500400F76F000EF86F91EC01F0010E0601536F7B
:10501400010E416F0601CE51050A04E0CE51060A85
:1050240001E02ED00901DC6B01EC10F0000EA61992
:1050340002E1000EA51924E0A55106010725090186
:10504400DC6FA651060108210901DD6F000E06017F
:1050540009210901DE6F000E06010A210901DF6F33
:10506400090EE06FBBEC09F00601056B066BC40E7C
:105074000901DC6F000EDD6F010EDE6FBDEC08F080
:02508400120018
:10508600020E0901D56F839E0601746B32EC0BF09C
:1050960000500601061921E00701A16B32EC0BF066
:1050A60000C006F600C0DCF9910EDD6F060EDE6F5D
:1050B6004BEC0AF0860EF36F060EF46FC50EF56F15
:1050C600030EF66F0B0EF76F000EF86F91EC01F002
:1050D600010E0601536F020E416F0901AB51000A22
:1050E60007E1090EDC6F33EC0AF0005201E19BD3B5
:1050F600DC6B01EC10F0B351000A05E00501AB5181
:10510600010A01E031D10901D55106010725006EDA
:10511600000E0821016E000E0921026E000E0A2102
:10512600036E00C0BAF901C0BBF902C0BCF903C0E6
:10513600BDF900C0DCF901C0DDF902C0DEF903C02B
:10514600DFF9010E0901E06FBBEC09F0B551000A69
:1051560010E0BAC9DCF9BBC9DDF9BCC9DEF9BDC9C5
:10516600DFF9070EE06FBBEC09F0010E0601516F87
:105176000FD0BAC9DCF9BBC9DDF9BCC9DEF9BDC9B6
:10518600DFF9050E0901E06FBBEC09F00601516B72
:105196000901B55106010725006E000E0821016EB2
:1051A600000E0921026E000E0A21036E060E00266D
:1051B600000E0122022203220901D5510026000E0B
:1051C60001220222032200C0BAF901C0BBF902C0C3
:1051D600BCF903C0BDF900C0DCF901C0DDF902C0AD
:1051E600DEF903C0DFF90A0EE06FBBEC09F0B5513A
:1051F60006010725006E000E0821016E000E09212A
:10520600026E000E0A21036E0901D5510026000E1A
:1052160001220222032200C0BAF901C0BBF902C072
:10522600BCF903C0BDF900C0DCF901C0DDF902C05C
:10523600DEF903C0DFF9050EE06FBBEC09F0B451EF
:10524600000A2EE0B75106010725006E000E082160
:10525600016E000E0921026E000E0A21036E09017D
:10526600B451005E000E015A025A035AD551002667
:10527600000E01220222032200C0BAF901C0BBF9C6
:1052860002C0BCF903C0BDF900C0DCF901C0DDF9FC
:1052960002C0DEF903C0DFF9070EE06FBBEC09F0D0
:1052A600BF51000A39E0B75106010725006E000E0E
:1052B6000821016E000E0921026E000E0A21036EFE
:1052C6000901D5510026000E01220222032200C048
:1052D600BAF901C0BBF902C0BCF903C0BDF900C0F0
:1052E600DCF901C0DDF902C0DEF903C0DFF9050E05
:1052F600E06FBBEC09F0020EBA25DC6F000EBB2195
:10530600DD6F000EBC21DE6F000EBD21DF6F030EC8
:10531600E06FBBEC09F028D0B75106010725006EF7
:10532600000E0821016E000E0921026E000E0A21F0
:10533600036E0901D5510026000E01220222032226
:1053460000C0BAF901C0BBF902C0BCF903C0BDF97F
:1053560000C0DCF901C0DDF902C0DEF903C0DFF9E7
:10536600030EE06FBBEC09F00901B351000AD8B493
:105376004ED20501AB51020AD8A449D20901D55132
:1053860006010725006E000E0821016E000E092198
:10539600026E000E0A21036E00C0BAF901C0BBF905
:1053A60002C0BCF903C0BDF900C0DCF901C0DDF9DB
:1053B60002C0DEF903C0DFF9020E0901E06FBBECA3
:1053C60009F0B551000A10E0BAC9DCF9BBC9DDF92C
:1053D600BCC9DEF9BDC9DFF9080EE06FBBEC09F008
:1053E600010E0701236F0FD0BAC9DCF9BBC9DDF97D
:1053F600BCC9DEF9BDC9DFF9060E0901E06FBBECD9
:1054060009F00701236B0901B55106010725006E56
:10541600000E0821016E000E0921026E000E0A21FF
:10542600036E060E0026000E012202220322090147
:10543600D5510026000E01220222032200C0BAF92D
:1054460001C0BBF902C0BCF903C0BDF900C0DCF95C
:1054560001C0DDF902C0DEF903C0DFF90B0EE06F13
:10546600BBEC09F0B55106010725006E000E0821B8
:10547600016E000E0921026E000E0A21036E09015B
:10548600D5510026000E01220222032200C0BAF9DD
:1054960001C0BBF902C0BCF903C0BDF900C0DCF90C
:1054A60001C0DDF902C0DEF903C0DFF9060EE06FC8
:1054B600BBEC09F0B451000A2EE0B35106010725F2
:1054C600006E000E0821016E000E0921026E000E0C
:1054D6000A21036E0901B451005E000E015A025AF8
:1054E600035AD5510026000E01220222032200C0D3
:1054F600BAF901C0BBF902C0BCF903C0BDF900C0CE
:10550600DCF901C0DDF902C0DEF903C0DFF9080EDF
:10551600E06FBBEC09F0B35106010725006E000EE3
:105526000821016E000E0921026E000E0A21036E8B
:105536000901D5510026000E01220222032200C0D5
:10554600BAF901C0BBF902C0BCF903C0BDF900C07D
:10555600DCF901C0DDF902C0DEF903C0DFF9040E93
:10556600E06FBBEC09F0BE5106010725006E000E88
:105576000821016E000E0921026E000E0A21036E3B
:105586000901D5510026000E01220222032200C085
:10559600BAF901C0BBF902C0BCF903C0BDF900C02D
:1055A600DCF901C0DDF902C0DEF903C0DFF9010E46
:1055B600E06FBBEC09F0B551000A10E0BAC9DCF99E
:1055C600BBC9DDF9BCC9DEF9BDC9DFF9070EE06F5D
:1055D600BBEC09F0010E0601516F0FD0BAC9DCF918
:1055E600BBC9DDF9BCC9DEF9BDC9DFF9050E090184
:1055F600E06FBBEC09F00601516B0901BE510601D3
:105606000725006E000E0821016E000E0921026EAC
:10561600000E0A21036E0901B5510026000E012273
:1056260002220322060E0026000E01220222032277
:10563600D5510026000E01220222032200C0BAF92B
:1056460001C0BBF902C0BCF903C0BDF900C0DCF95A
:1056560001C0DDF902C0DEF903C0DFF90A0EE06F12
:10566600BBEC09F0BE5106010725006E000E0821AD
:10567600016E000E0921026E000E0A21036E090159
:10568600B5510026000E012202220322D551002622
:10569600000E01220222032200C0BAF901C0BBF9A2
:1056A60002C0BCF903C0BDF900C0DCF901C0DDF9D8
:1056B60002C0DEF903C0DFF9050EE06FBBEC09F0AE
:1056C600B451000A34E0BE5106010725006E000EF3
:1056D6000821016E000E0921026E000E0A21036EDA
:1056E6000901B7510026000E012202220322B451FD
:1056F600005E000E015A025A035AD5510026000ECA
:1057060001220222032200C0BAF901C0BBF902C07D
:10571600BCF903C0BDF900C0DCF901C0DDF902C067
:10572600DEF903C0DFF9070EE06FBBEC09F0BF51ED
:10573600000A3FE0B75106010725006E000E08215A
:10574600016E000E0921026E000E0A21036E090188
:10575600BE510026000E012202220322D551002648
:10576600000E01220222032200C0BAF901C0BBF9D1
:1057760002C0BCF903C0BDF900C0DCF901C0DDF907
:1057860002C0DEF903C0DFF9050EE06FBBEC09F0DD
:10579600020EBA25DC6F000EBB21DD6F000EBC21A8
:1057A600DE6F000EBD21DF6F030EE06FBBEC09F06C
:1057B6002ED0B75106010725006E000E0821016E96
:1057C600000E0921026E000E0A21036E0901BE5168
:1057D6000026000E012202220322D5510026000EC9
:1057E60001220222032200C0BAF901C0BBF902C09D
:1057F600BCF903C0BDF900C0DCF901C0DDF902C087
:10580600DEF903C0DFF9030EE06FBBEC09F0030E0F
:1058160008013B6F0601526BF46B0501AA6B06018A
:10582600056B040ECE6F0901ADA117D0000EA619A7
:1058360002E1000EA51911E006011C51000A0DE156
:10584600010E1C6F010E056F990E0901DC6F030E28
:10585600DD6F010EDE6FBDEC08F006011C51010A7A
:1058660064E10901ADB161D0000EA61902E1000E96
:10587600A5195BE0B951000A0DE106011C6B056B29
:10588600AE0E0901DC6F030EDD6F010EDE6FBDEC9F
:1058960008F04BD09BEC0FF000C0E1F30601056B5E
:1058A6000901B95106010725006E000E0821016E97
:1058B600000E0921026E000E0A21036E00C0BAF91D
:1058C60001C0BBF902C0BCF903C0BDF900C0DCF9D8
:1058D60001C0DDF902C0DEF903C0DFF9090E0901D6
:1058E600E06FBBEC09F006011C6BBAC9EAF9BBC94B
:1058F600EBF9BCC9ECF9BDC9EDF9BE0E0901EE6FB5
:10590600080EEF6FC7EC05F0D10EDC6F030EDD6FEE
:10591600010EDE6FBDEC08F0BE0E0901DC6F080E4D
:0C592600DD6F010EDE6FBDEC08F012001A
:0A59320064EC07F00601CE6B1200D2
:10593C006FD2838E0901ABA107D0C42B020E0801D4
:10594C00E76F010E0701466F0901ABA308D0030EE8
:10595C00C46F010E0801E76F010E0701466FB1D24B
:10596C00020E0901DC6FDD6B64EC0FF0040E060116
:10597C0007250901DC6F000E060108210901DD6F06
:10598C00000E060109210901DE6F000E06010A2135
:10599C000901DF6F150EE06FBBEC09F0C42B06019B
:1059AC00F46B8FD20901ACA30CD00601F451010A9F
:1059BC0008E1F46B020E0901DC6F67EC0AF00901D7
:1059CC00C42B0901150EDC6F33EC0AF0005203E016
:1059DC00010E0601F46F75D2010E0901DC6FDD6B4F
:1059EC0064EC0FF0040E060107250901DC6F000EB4
:1059FC00060108210901DD6F000E060109210901CC
:105A0C00DE6F000E06010A210901DF6F140EE06F34
:105A1C00BBEC09F0C42B0601526B0901ACA10CD0F4
:105A2C0006015251010A08E1526B010E0901DC6FAB
:105A3C0067EC0AF00901C42B0901140EDC6F33EC7E
