:04000000EFEF3AF0F4
:1000080000C019F001C018F004C017F008C016F0BD
:100018000CC015F0F2A433D00301E72B8088010E41
:100028000401F56F190E0301E65D03E3E66BE56B6A
:1000380001D0E62B190E08017A5D04E37A6B0301FF
:10004800E96B02D008017A2B190E0301E75D12E370
:10005800E76B010E06013C27000E3D233E233F239C
:1000680007011253010ED8A4000E126F8098010EDA
:1000780005013E6FF30ED76ECA0ED66EF294F0A04D
:1000880017D00301E551000A03E1E52BE66B01D027
:10009800E52B050EE55D0BE3130EE65D07E3E65180
:1000A800150804E3010EEC6FE56B01D0E56BF090E9
:1000B800F0A21DD00301E951000A04E1E92B08016F
:1000C8007A6B02D00301E92B0301050EE95D0EE30B
:1000D800130E08017A5D08E37A51150805E3010E4D
:1000E8000301EB6FE96B02D00301E96BF092F2A216
:1000F80034D00301E82BE851FF0A02E1020EE86F51
:10010800030E046EE8C300F06AD808C000F000507F
:10011800010A11E1BE5306E00201BC5302E08186E8
:1001280001D081960301785306E00201BB5302E037
:10013800818801D08198030E046EE8C300F04FD87F
:1001480008C000F00050000A07E10301BE53D8A41C
:1001580081867853D8A48188F29219C000F018C01B
:1001680001F017C004F016C008F015C00CF011001B
:0E017800ACB202D00000FCD7BAC9ADFF120035
:10018600BAC9C9FFC7B002D00000FCD7C9CF00F07A
:02019600120055
:10019800F250026EF29E0500FF6A0150FE6E00509A
:0801A800FD6E02BEF28E120092
:1001B000086A096A100E0C6E0134083609360450BC
:1001C000085E0550D8A0053C095ED8B007D00450A1
:1001D00008260550D8B0053C0926D89000360136CF
:0601E0000C2EEAD712000C
:1001E600086A080E0C6E003408360450085ED8B053
:0E01F60002D00826D89000360C2EF5D7120045
:10020400A6A202D00000FCD7A69CB4C9AAFFB3C919
:10021400A9FFB5C9A8FFA69EA684F2CF00F0F29E5E
:10022400550EA76EAA0EA76EA68200BE02D0F29E3D
:0802340001D0F28EA694120025
:10023C00B5C904F0B6C905F0B3C902F0B4C903F0EE
:10024C00B7C900F0B8C901F0010E0901B75F000E83
:10025C00B85B005001100FE004C0E9FF05C0EAFFD5
:10026C0002C0E1FF03C0E2FFEECFE6FF024A032A21
:10027C00044A052AE5D7B3C900F0B4C901F012004D
:10028C000901B76B050EB75D0AE2B751B525E16EF2
:10029C00000EB621E26E200EE66EB72BF3D7B751E7
:1002AC00B525E16E000EB621E26EE66AB707B751CE
:1002BC00B525B86F000EB621B96F0A0E046E000E8C
:1002CC00056EB3C900F0B4C901F06CDF08C000F0D2
:1002DC0009C001F0300E0026B8C9E1FFB9C9E2FF30
:1002EC0000C0E6FF0A0E046E000E056EB3C900F0E6
:1002FC00B4C901F057DF00C0B3F901C0B4F9000E66
:10030C00011802E1000E001801E102D0B707CFD7A7
:02031C001200CD
:10031E000901B66B030EB65D0AE2B651B425E16E65
:10032E00000EB521E26E200EE66EB62BF3D7B65157
:10033E00B425E16E000EB521E26EE66AB607B6513F
:10034E00B425B76F000EB521B86F0A0E046EB3C98F
:10035E0000F042DF08C000F0300E0026B7C9E1FF02
:10036E00B8C9E2FF00C0E6FF0A0E046EB3C900F082
:10037E0033DF00C0B3F90050000A01E102D0B60726
:04038E00DED71200A4
:100392005ED00801CD6BCE6B8BD00801E00ECD6F25
:1003A200010ECE6F85D00801EA0ECD6F010ECE6F21
:1003B2007FD00801F40ECD6F010ECE6F79D0080107
:1003C200120ECD6F020ECE6F73D00801260ECD6FC6
:1003D200020ECE6F6DD008013A0ECD6F020ECE6FB7
:1003E20067D00801580ECD6F020ECE6F61D00801A2
:1003F200760ECD6F020ECE6F5BD008018A0ECD6FE6
:10040200020ECE6F55D008019E0ECD6F020ECE6F3A
:100412004FD00801BC0ECD6F020ECE6F49D008013D
:10042200EE0ECD6F020ECE6F43D00801200ECD6FBF
:10043200030ECE6F3DD00801520ECD6F030ECE6F6C
:1004420037D00801840ECD6F030ECE6F31D0090173
:10045200B351000A9EE0B351010A9FE0B351020A70
:10046200A2E0B351030AA5E0B351040AA8E0B351D4
:10047200050AABE0B351060AAEE0B351070AB1E098
:10048200B351080AB4E0B351090AB7E0B3510A0AFA
:10049200BAE0B3510B0ABDE0B3510C0AC0E0B3514C
:1004A2000D0AC3E0B3510E0AC6E0B3510F0AC9E008
:1004B20042D0640E0801CB6F000ECC6F5ED00801F3
:1004C200F40ECB6F010ECC6F58D00801E80ECB6F43
:1004D200030ECC6F52D00801DC0ECB6F050ECC6F31
:1004E2004CD00801D00ECB6F070ECC6F46D008015E
:1004F200C40ECB6F090ECC6F40D00801B80ECB6F83
:100502000B0ECC6F3AD00801AC0ECB6F0D0ECC6F38
:1005120034D00801A00ECB6F0F0ECC6F2ED0080185
:10052200940ECB6F110ECC6F28D00801880ECB6FC2
:10053200130ECC6F22D00901B451000ABAE0B451B3
:10054200010ABDE0B451020AC0E0B451030AC3E09B
:10055200B451040AC6E0B451050AC9E0B451060A0E
:10056200CCE0B451070ACFE0B451080AD2E0B4514A
:10057200090AD5E0B4510A0AD8E05ED00801C96B75
:10058200CA6B8BD00801E00EC96F010ECA6F85D00D
:100592000801EA0EC96F010ECA6F7FD00801F40E7E
:1005A200C96F010ECA6F79D00801120EC96F020E0F
:1005B200CA6F73D00801260EC96F020ECA6F6DD0C2
:1005C20008013A0EC96F020ECA6F67D00801580EB1
:1005D200C96F020ECA6F61D00801760EC96F020E92
:1005E200CA6F5BD008018A0EC96F020ECA6F55D05E
:1005F20008019E0EC96F020ECA6F4FD00801BC0ED1
:10060200C96F020ECA6F49D00801EE0EC96F020E01
:10061200CA6F43D00801200EC96F030ECA6F3DD0C6
:100622000801520EC96F030ECA6F37D00801840E3B
:10063200C96F030ECA6F31D00901B551000A9EE09D
:10064200B551010A9FE0B551020AA2E0B551030A71
:10065200A5E0B551040AA8E0B551050AABE0B551D1
:10066200060AAEE0B551070AB1E0B551080AB4E096
:10067200B551090AB7E0B5510A0ABAE0B5510B0AF9
:10068200BDE0B5510C0AC0E0B5510D0AC3E0B55149
:100692000E0AC6E0B5510F0AC9E042D0640E080145
:1006A200C36F000EC46F5ED00801F40EC36F010E5B
:1006B200C46F58D00801E80EC36F030EC46F52D046
:1006C2000801DC0EC36F050EC46F4CD00801D00EBA
:1006D200C36F070EC46F46D00801C40EC36F090E64
:1006E200C46F40D00801B80EC36F0B0EC46F3AD06E
:1006F2000801AC0EC36F0D0EC46F34D00801A00EFA
:10070200C36F0F0EC46F2ED00801940EC36F110E6B
:10071200C46F28D00801880EC36F130EC46F22D095
:100722000901B651000ABAE0B651010ABDE0B6515C
:10073200020AC0E0B651030AC3E0B651040AC6E099
:10074200B651050AC9E0B651060ACCE0B651070A0D
:10075200CFE0B651080AD2E0B651090AD5E0B65147
:060762000A0AD8E01200B3
:100768000B6A0A6A096A086A0E6A03340836045072
:10077800085E0550D8A0053C095E0650D8A0063C86
:100788000A5E0750D8A0073C0B5EE86AD8A0010EA5
:100798000E5E0336070E0C6E0334083609360A3629
:1007A8000B360E36045003A012D0085E0550D8A0B0
:1007B800053C095E0650D8A0063C0A5E0750D8A042
:1007C800073C0B5EE86AD8A0010E0E5E11D0082621
:1007D8000550D8B0053C09260650D8B0063C0A2674
:1007E8000750D8B0073C0B26E86AD8B0010E0E2691
:1007F80003360C2ED1D70234083609360A360B36A2
:100808000E36045003A012D0085E0550D8A0053C4F
:10081800095E0650D8A0063C0A5E0750D8A0073CDF
:100828000B5EE86AD8A0010E0E5E11D008260550AE
:10083800D8B0053C09260650D8B0063C0A26075011
:10084800D8B0073C0B26E86AD8B0010E0E2602364F
:10085800070E0C6E0234083609360A360B360E3689
:10086800045002A012D0085E0550D8A0053C095ECD
:100878000650D8A0063C0A5E0750D8A0073C0B5E7D
:10088800E86AD8A0010E0E5E11D008260550D8B02F
:10089800053C09260650D8B0063C0A260750D8B0B1
:1008A800073C0B26E86AD8B0010E0E2602360C2E3D
:1008B800D1D70134083609360A360B360E360450BD
:1008C80002A012D0085E0550D8A0053C095E06506B
:1008D800D8A0063C0A5E0750D8A0073C0B5EE86A21
:1008E800D8A0010E0E5E11D008260550D8B0053CE0
:1008F80009260650D8B0063C0A260750D8B0073C4F
:100908000B26E86AD8B0010E0E260136070E0C6ECB
:100918000134083609360A360B360E36045001A063
:1009280012D0085E0550D8A0053C095E0650D8A034
:10093800063C0A5E0750D8A0073C0B5EE86AD8A0C0
:10094800010E0E5E11D008260550D8B0053C0926C8
:100958000650D8B0063C0A260750D8B0073C0B26EC
:10096800E86AD8B0010E0E2601360C2ED1D7003415
:10097800083609360A360B360E36045001A012D056
:10098800085E0550D8A0053C095E0650D8A0063C74
:100998000A5E0750D8A0073C0B5EE86AD8A0010E93
:1009A8000E5E11D008260550D8B0053C0926065021
:1009B800D8B0063C0A260750D8B0073C0B26E86A90
:1009C800D8B0010E0E260036070E0C6E003408361D
:1009D80009360A360B360E36045000A012D0085ECF
:1009E8000550D8A0053C095E0650D8A0063C0A5E12
:1009F8000750D8A0073C0B5EE86AD8A0010E0E5E2F
:100A080011D008260550D8B0053C09260650D8B0A4
:100A1800063C0A260750D8B0073C0B26E86AD8B02F
:100A2800010E0E2600360C2ED1D700B00ED0045081
:100A380008260550D8B0053C09260650D8B0063C13
:0C0A48000A260750D8B0073C0B2612000D
:100A54008AC8E1FF8BC8E2FFB3C9E6FF88C800F08B
:0A0A640089C801F0CCEC00F012008C
:0A0A6E00490E0D6E0D2EFED712008A
:100A7800AAC9B3F90901B333B39FABC9B4F9ACC977
:100A8800B5F949DC010EAA15016E0150010A11E100
:100A9800030EAB25B36F000EAC21B46F470EB56FD4
:100AA800080EB66F040EB76F000EB86F1EEC01F09B
:100AB80010D0030EAB25B36F000EAC21B46F650EDA
:100AC800B56F080EB66F040EB76F000EB86F1EEC48
:040AD80001F0120017
:100ADC00C7B409D01F0EC514016E0150000A03E102
:0A0AEC00010E006E01D0006A120036
:100AF6000901AD6BAAC9E9FFABC9EAFFEECFACF9B4
:100B0600AC51000A0FE0ACC9BAF9BCEC00F009011F
:100B1600AD2BAD51AA25E96E000EAB21EA6EEECFE4
:060B2600ACF9EED712004D
:100B2C000901AD6BAAC9E9FFABC9EAFFEECFACF97D
:100B3C00AC51000A0EE0ACC9B3F986DF0901AD2B4C
:100B4C00AD51AA25E96E000EAB21EA6EEECFACF9E1
:040B5C00EFD71200BD
:100B60000B6A0A6A096A00500402F4CF09F0F3CF55
:100B700008F001500502F4CF0BF0F3CF0AF000505B
:100B80000502F3500926F4500A22E86A0B220150AC
:100B90000402F3500926F4500A22E86A0B2208C026
:100BA00000F009C001F00AC002F00BC003F012000F
:100BB000A69CABC9AAFFAAC9A9FFA69EA680A8CFDA
:040BC00000F012002F
:100BC400010E0901B36F000EB46FD7C8B5F902EC7A
:100BD40001F0020E0901B36F000EB46FD6C8B5F967
:100BE40002EC01F0030E0901B36F000EB46FDAC812
:100BF400B5F902EC01F0040E0901B36F000EB46FF5
:100C0400D9C8B5F902EC01F0050E0901B36F000E65
:100C1400B46FD2C8B5F902EC01F0060E0901B36F46
:100C2400000EB46FD8C8B5F902EC01F0070E090143
:100C3400B36F000EB46FDCC8B5F902EC01F0080E16
:100C44000901B36F000EB46FDBC8B5F902EC01F013
:100C5400090E0901B36F000EB46FDDC8B5F902ECDB
:100C640001F00A0E0901B36F000EB46FD5C8B5F9CF
:100C740002EC01F00B0E0901B36F000EB46FD4C87F
:100C8400B5F902EC01F00C0E0901B36F000EB46F5C
:100C940089C5B5F902EC01F00D0E0901B36F000E20
:100CA400B46F75C9B5F902EC01F00E0E0901B36F0A
:100CB400000EB46F76C9B5F902EC01F00F0E09010C
:100CC400B36F000EB46FD0C8B5F902EC01F0100E8A
:100CD4000901B36F000EB46FD1C8B5F902EC01F08D
:100CE400110E0901B36F000EB46F77C9B5F902ECA8
:100CF40001F0120E0901B36F000EB46FCFC8B5F93D
:100D040002EC01F0130E0901B36F000EB46F91C52C
:100D1400B5F902EC01F0140E0901B36F000EB46FC3
:100D2400D3C8B5F902EC01F089C5B3F9CFC8B4F959
:0E0D340091C5B5F9D3C8B6F9C9EC01F01200AB
:100D42000901B06B0A0EB05D0AE2B051AE25E16E48
:100D5200000EAF21E26E300EE66EB02BF3D7B0512B
:100D6200AE25E16E000EAF21E26EE66AB007000E1C
:100D7200006EAD1908E10050AC1905E10050AB1945
:100D820002E1AA51000A3EE0B051AE25B16F000E59
:100D9200AF21B26F0A0E046E000E056E066E076E6C
:100DA200AAC900F0ABC901F0ACC902F0ADC903F0A9
:100DB200DADC08C000F009C001F00AC002F00BC082
:100DC20003F0300E0026B1C9E1FFB2C9E2FF00C054
:100DD200E6FFB0070A0E046E000E056E066E076E81
:100DE200AAC900F0ABC901F0ACC902F0ADC903F069
:100DF200BADC00C0AAF901C0ABF902C0ACF903C069
:060E0200ADF9B5D71200A6
:100E0800AAC9B3F9ABC9B4F90901B433B333B49F70
:100E1800ACC9B5F9ADC9B6F946EC01F0010EAA1591
:100E2800016EABC902F0000E0216000E021802E1B4
:100E3800010E011811E1050EAC25B36F000EAD21AE
:100E4800B46F610EB56F080EB66F040EB76F000E63
:100E5800B86F1EEC01F010D0050EAC25B36F000E74
:100E6800AD21B46F5D0EB56F080EB66F040EB76F87
:0A0E7800000EB86F1EEC01F012002E
:100E8200010E09019C25016E000E9D21026E01C01A
:100E9200E9FF02C0EAFF0A0EEE24006E01C0E1FF84
:100EA20002C0E2FF00C0E6FF030E9C25016E000EA9
:100EB2009D21026E01C0E9FF02C0EAFF0A0EEE2484
:100EC200006E01C0E1FF02C0E2FF00C0E6FF9CC964
:100ED200E9FF9DC9EAFFEECF00F09CC9E1FF9DC981
:100EE200E2FF0A0E0024E66E020E9C25016E000E41
:100EF2009D21026E01C0E9FF02C0EAFF0A0EEE2444
:100F0200006E01C0E1FF02C0E2FF00C0E6FF040E76
:100F12009C25E16E000E9D21E26E040EE66E060E29
:100F22009C25E16E000E9D21E26E040EE66E080E17
:100F32009C25E16E000E9D21E26E040EE66E0A0E05
:100F42009C25E16E000E9D21E26E040EE66E050EFA
:100F52009C25E16E000E9D21E26E0A0EE66E090EE0
:100F62009C25E16E000E9D21E26E0A0EE66E070ED2
:100F72009C25E16E000E9D21E26E0A0EE66E0B0EBE
:100F82009C25E16E000E9D21E26E0A0EE66E1200B5
:100F920009019E5317E03CC6AAF93DC6ABF93EC60D
:100FA200ACF93FC6ADF99F0EAE6F090EAF6FC8DE4A
:100FB2009F0EAA6F090EAB6FB8DD400EAA6F060E28
:100FC200AB6F98DD9CC9AAF99DC9ABF993DD0D0EF3
:100FD200BA6FBCEC00F00A0E0901BA6FBCEC00F06B
:020FE2001200FB
:100FE4000901A16B140EA15D6DE2070E006E000EE7
:100FF400016EA1C904F0000E056EB0DDDE0E002600
:10100400080E0122050E0024E96E000E0120EA6E8E
:10101400EE50010A55E1070E006E000E016EA1C9E3
:1010240004F0000E056E9ADDDE0E0024E16E080E5B
:101034000120E26EA0C9E6FF070E006E000E016EED
:10104400A1C904F0000E056E89DDDE0E0026080E2F
:101054000122010E0024E16E000E0120E26E9CC903
:10106400E6FF9DC9E6FF9EC9E6FF9FC9E6FF070E9E
:10107400006E000E016EA1C904F0000E056E6EDD57
:10108400DE0E0026080E0122050E0024E16E000E7D
:101094000120E26EE66A070E006E000E016EA1C921
:1010A40004F0000E056E5ADDDE0E0026080E012245
:1010B400060E0024E16E000E0120E26EE66A02D004
:0610C400A12B90D71200E1
:1010CA00010E0901AA6F000EAB6F6DDD00C0D7F8E3
:1010DA00020EAA6F000EAB6F66DD00C0D6F8030ED3
:1010EA00AA6F000EAB6F5FDD00C0DAF8040EAA6FBC
:1010FA00000EAB6F58DD00C0D9F8050EAA6F000EBE
:10110A00AB6F51DD00C0D2F8060EAA6F000EAB6FAE
:10111A004ADD00C0D8F8070EAA6F000EAB6F43DD98
:10112A0000C0DCF8080EAA6F000EAB6F3CDD00C0F1
:10113A00DBF8090EAA6F000EAB6F35DD00C0DDF8D3
:10114A000A0EAA6F000EAB6F2EDD00C0D4F8000E97
:10115A000801D56FD4C8D5F8D46B0B0E0901AA6F54
:10116A00000EAB6F20DD00500801D413000ED5131A
:10117A000C0E0901AA6F000EAB6F15DD00C089F5D0
:10118A000D0EAA6F000EAB6F0EDD00C075F90E0EC4
:10119A00AA6F000EAB6F07DD00C076F90F0EAA6FBB
:1011AA00000EAB6F00DD00C0D0F8100EAA6F000E63
:1011BA00AB6FF9DC00C0D1F8110EAA6F000EAB6F4D
:1011CA00F2DC00C077F9120EAA6F000EAB6FEBDCEF
:1011DA0000C0CFF8130EAA6F000EAB6FE4DC00C09C
:1011EA0091F5140EAA6F000EAB6FDDDC00C0D3F8C8
:1011FA0089C5B3F9CFC8B4F991C5B5F900C0B6F934
:06120A00C9EC01F0120026
:1012100009019C6B140E9C5D50E2070E006E000EDF
:10122000016E9CC904F0000E056E9ADCDE0E0026ED
:10123000080E0122050E0024E96E000E0120EA6E60
:10124000EE50000A38E1070E006E000E016E9CC9D8
:1012500004F0000E056E84DCDE0E0024E96E080E3C
:101260000120EA6EEECF01F00150090A24E1070ED9
:10127000006E000E016E9CC904F0000E056E70DC5D
:10128000DE0E0026080E0122010E0024E96E000E7B
:101290000120EA6EEECF9DF9EECF9EF9EECF9FF9D9
:1012A000EECFA0F9050E0024E16E000E0120E26EE3
:1012B000010EE66E02D09C2BADD706013C51090110
:1012C0009D5D016E01C09CF9140E015CD8B09C6B51
:0612D0009CC900F01200B1
:1012D6009E969CC9C9FFC7A401D0FDD79EB601D072
:1012E600FDD7C5BC02D0006A03D0C584020E006ECD
:0212F6001200E4
:1012F800C26A070EC012C08E9CC900F0003600906A
:10130800003600900050C212C28037EC05F0C2824D
:10131800C2A201D0FDD7C4CF01F0006AC3500012A9
:08132800000E0112C290120038
:10133000090179519C1904E1796B010E006E0FD0FF
:101340007A519C1904E17A6B010E006E08D07B5132
:101350009C1904E17B6B010E006E01D0006A120043
:1013600009019C6B9D6B9D51120802E19C518E08F6
:1013700009E36EEC05F0005201E004D009019C4B3A
:101380009D2BF1D70901120E9D5D02E18F0E9C5D30
:1013900003E37B0E006E05D0C580C5A001D0FDD74C
:0413A000006A1200CD
:1013A40009019C6B140E9C5D4BE2070E006E000E4F
:1013B400016E9CC904F0000E056EB0EC05F0DE0E63
:1013C4000026080E0122050E0024E96E000E0120FD
:1013D400EA6EEE50000A32E1070E006E000E016E56
:1013E4009CC904F0000E056EB0EC05F0DE0E00247E
:1013F400E96E080E0120EA6EEECF01F00150090AF1
:101404001DE1070E006E000E016E9CC904F0000E73
:10141400056EB0EC05F0DE0E0026080E0122010E6A
:101424000024E96E000E0120EA6EEECF9DF9EECFA6
:101434009EF9EECF9FF9EECFA0F902D09C2BB2D744
:10144400140E9C5D02E39C6B05D006013C5109011E
:0A1454009D5D9C6F9CC900F0120022
:10145E0009019D6B140E9D5D44E2070E006E000E99
:10146E00016E9DC904F0000E056EB0EC05F0DE0EA7
:10147E000026080E0122050E0024E96E000E012042
:10148E00EA6EEE50000A2BE1070E006E000E016EA2
:10149E009DC904F0000E056EB0EC05F0DE0E0024C2
:1014AE00E96E080E0120EA6EEECF01F001509C1994
:1014BE0016E0070E006E000E016E9DC904F0000EC0
:1014CE00056EB0EC05F0DE0E0026080E0122050EAC
:1014DE000024E16E000E0120E26E010EE66E9D2BE1
:0414EE00B9D7120058
:1014F200010E09019C25E96E000E9D21EA6EEECFD8
:10150200D7F89CC9E9FF9DC9EAFFEECFDAF89E51F0
:10151200020AD8A485D0030E9C25E96E000E9D21F7
:10152200EA6EEECFD6F8020E9C25E96E000E9D21E2
:10153200EA6EEECFD9F8040E9C25E96E000E9D21CD
:10154200EA6E080E9C25D96E000E9D21DA6EDE50E1
:10155200EE24036E046A000E042203C000F004C0ED
:1015620001F001320032019E01BC018E00C0D8F8A8
:10157200050E9C25E96E000E9D21EA6E090E9C2542
:10158200D96E000E9D21DA6EDE50EE24036E046ADF
:10159200000E042203C000F004C001F00132003248
:1015A200019E01BC018E00C0DCF8060E9C25E96E8E
:1015B200000E9D21EA6E0A0E9C25D96E000E9D2119
:1015C200DA6EDE50EE24036E046A000E042203C0BB
:1015D20000F004C001F001320032019E01BC018E14
:1015E20000C0DBF8070E9C25E96E000E9D21EA6E15
:1015F2000B0E9C25D96E000E9D21DA6EDE50EE2474
:10160200036E046A000E042203C000F004C001F05D
:1016120001320032019E01BC018E00C0DDF824D0EF
:101622000801D66BD96B040E09019C25E96E000EE8
:101632009D21EA6EEECFD8F8050E9C25E96E000ECC
:101642009D21EA6EEECFDCF8060E9C25E96E000EB7
:101652009D21EA6EEECFDBF8070E9C25E96E000EA7
:0E1662009D21EA6EEECFDDF8E2EC05F01200FD
:1016700009019C51010A05E10201016B026B09019C
:101680007D919C51020A05E10101FE6BFF6B09018E
:041690007D93120034
:1016940009019C51000A04E09D51000A01E002D0B6
:1016A400F28801D0F2989CC9BCF29DC9BBF2120029
:1016B400020E0801446FA30E0901B36F050EB46F47
:1016C400580EB56F050EB66F100EB76F000EB86FDB
:1016D4001EEC01F005016951000A37E1DD0E090134
:1016E400B36F060EB46FEE0EB56F060EB66F100E26
:1016F400B76F000EB86F1EEC01F0010E0601FF6F0C
:10170400BA51000A0FE1A30E0901B36F050EB46FBD
:10171400BB0EB56F060EB66F100EB76F000EB86F26
:101724001EEC01F00601BA51010A0FE1A30E0901F2
:10173400B36F050EB46FCC0EB56F060EB66F100EF8
:10174400B76F000EB86F1EEC01F005016951010A74
:101754001BE1DD0E0901B36F060EB46F760EB56F93
:10176400060EB66F100EB76F000EB86F1EEC01F0C8
:10177400010E0601FF6FD7C8AAF9A90E0901AB6FC4
:10178400050EAC6F3CEC05F005016951020A1BE142
:10179400DD0E0901B36F060EB46F1A0EB56F060E97
:1017A400B66F100EB76F000EB86F1EEC01F0010E8D
:1017B4000601FF6FD6C8AAF9A90E0901AB6F050E81
:1017C400AC6F3CEC05F005016951030A1BE1DD0E29
:1017D4000901B36F060EB46F2B0EB56F060EB66F0C
:1017E400100EB76F000EB86F1EEC01F0010E06016B
:1017F400FF6FDAC8AAF9A90E0901AB6F050EAC6F29
:101804003CEC05F005016951040A1BE1DD0E0901F8
:10181400B36F060EB46F540EB56F060EB66F100E8E
:10182400B76F000EB86F1EEC01F0010E0601FF6FDA
:10183400D9C8AAF9A90E0901AB6F050EAC6F3CEC2F
:1018440005F005016951050A1BE1DD0E0901B36FBD
:10185400060EB46F430EB56F060EB66F100EB76F5B
:10186400000EB86F1EEC01F0010E0601FF6FD8C820
:10187400AAF9A90E0901AB6F050EAC6F3CEC05F09B
:1018840005016951060A1BE1DD0E0901B36F060E5D
:10189400B46F650EB56F060EB66F100EB76F000EFF
:1018A400B86F1EEC01F0010E0601FF6FDCC8AAF947
:1018B400A90E0901AB6F050EAC6F3CEC05F00501F8
:1018C4006951070A1BE1DD0E0901B36F060EB46FFF
:1018D400870EB56F060EB66F100EB76F000EB86F99
:1018E4001EEC01F0010E0601FF6FDBC8AAF9A90E78
:1018F4000901AB6F050EAC6F3CEC05F005016951B5
:10190400080A1BE1DD0E0901B36F060EB46FA90EC0
:10191400B56F060EB66F100EB76F000EB86F1EECE3
:1019240001F0010E0601FF6FDDC8AAF9A90E090135
:10193400AB6F050EAC6F3CEC05F005016951090A6B
:101944003EE1DD0E0901B36F060EB46F980EB56F5C
:10195400060EB66F100EB76F000EB86F1EEC01F0D6
:10196400010E0601FF6F89C5B3F9A60E0901B46F14
:10197400050EB56F8FEC01F005018951070810E2DF
:10198400AA0E0901B36F050EB46F820EB56F050E72
:10199400B66F060EB76F000EB86F1EEC01F00FD0D5
:1019A4000901AA0EB36F050EB46F7B0EB56F050E59
:1019B400B66F060EB76F000EB86F1EEC01F005018E
:1019C40069510A0A3EE1DD0E0901B36F060EB46FD8
:1019D400920EB56F050EB66F100EB76F000EB86F8E
:1019E4001EEC01F0010E0601FF6F91C5B3F9A60EBE
:1019F4000901B46F050EB56F8FEC01F0050191512B
:101A0400070810E2AA0E0901B36F050EB46F8A0E1F
:101A1400B56F050EB66F060EB76F000EB86F1EECED
:101A240001F00FD00901AA0EB36F050EB46F510E69
:101A3400B56F050EB66F060EB76F000EB86F1EECCD
:101A440001F0050169510B0A1BE1DD0E0901B36FB9
:101A5400060EB46F400EB56F050EB66F100EB76F5D
:101A6400000EB86F1EEC01F0010E0601FF6FCFC827
:101A7400AAF9A90E0901AB6F050EAC6F3CEC05F099
:101A8400050169510C0A1BE1DD0E0901B36F060E55
:101A9400B46F6A0EB56F050EB66F100EB76F000EF9
:101AA400B86F1EEC01F0010E0601FF6FD3C8AAF94E
:101AB400A90E0901AB6F050EAC6F3CEC05F00501F6
:101AC40069510D0A1BE1DD0E0901B36F060EB46FF7
:101AD400E70EB56F050EB66F100EB76F000EB86F38
:101AE4001EEC01F0010E0601FF6FD2C8AAF9A90E7F
:101AF4000901AB6F050EAC6F3CEC05F005016951B3
:101B04000E0A1DE1DD0E0901B36F060EB46F090E56
:101B1400B56F060EB66F100EB76F000EB86F1EECE1
:101B240001F0010E0601FF6FD4C8AAF9D5C8ABF9BC
:101B3400A70E0901AC6F050EAD6F04EC07F00501AB
:101B440069510F0A12E1DD0E0901B36F060EB46F7D
:101B5400F80EB56F050EB66F100EB76F000EB86FA6
:101B64001EEC01F0010E0601FF6F05016951100A18
:101B740035E1DD0E0901B36F060EB46FBC0EB56F0F
:101B8400050EB66F100EB76F000EB86F1EEC01F0A5
:101B9400010E0601FF6F0801D051000A10E1A90EE1
:101BA4000901B36F050EB46FB40EB56F050EB66FB1
:101BB400070EB76F000EB86F1EEC01F00FD00901CD
:101BC400A90EB36F050EB46FDE0EB56F050EB66FBA
:101BD400080EB76F000EB86F1EEC01F005016951D5
:101BE400110A35E1DD0E0901B36F060EB46FCD0E97
:101BF400B56F050EB66F100EB76F000EB86F1EEC02
:101C040001F0010E0601FF6F0801D151000A10E135
:101C1400A90E0901B36F050EB46FCC0EB56F070E94
:101C2400B66F070EB76F000EB86F1EEC01F00FD041
:101C34000901A90EB36F050EB46FD40EB56F070E6C
:101C4400B66F080EB76F000EB86F1EEC01F00501F9
:101C54006951120A33E1DD0E0901B36F060EB46F48
:101C6400DD0EB56F070EB66F100EB76F000EB86FAE
:101C74001EEC01F0010E0601FF6F09017751000A05
:101C84000FE1A90EB36F050EB46F2A0EB56F080EDF
:101C9400B66F070EB76F000EB86F1EEC01F00ED0D2
:101CA400A90EB36F050EB46F080EB56F080EB66FAC
:101CB400080EB76F000EB86F1EEC01F005016951F4
:101CC400130A33E1DD0E0901B36F060EB46F110E72
:101CD400B56F080EB66F100EB76F000EB86F1EEC1E
:101CE40001F0010E0601FF6F09017651000A0FE1B0
:101CF400A90EB36F050EB46F220EB56F080EB66F42
:101D0400070EB76F000EB86F1EEC01F00ED0A90ECF
:101D1400B36F050EB46FFF0EB56F070EB66F080EE6
:101D2400B76F000EB86F1EEC01F005016951140A7B
:101D34001BE1DD0E0901B36F060EB46FEE0EB56F35
:101D4400070EB66F100EB76F000EB86F1EEC01F0E1
:101D5400010E0601FF6F75C9AAF9A90E0901AB6F3F
:101D6400050EAC6F3CEC05F005016951150A12E152
:101D7400DD0E0901B36F060EB46F320EB56F080E97
:101D8400B66F100EB76F000EB86F1EEC01F0010EA7
:101D94000601FF6F05016951160A12E1DD0E090102
:101DA400B36F060EB46F4C0EB56F080EB66F100EFF
:101DB400B76F000EB86F1EEC01F0010E0601FF6F45
:081DC400650E08014B6F1200CF
:101DCC0009019C51010A03E10301BE6B81960901D3
:0E1DDC009C51020A03E10301786B819812000A
:101DEA0009019C51010A17E19DB102D0829201D0EA
:101DFA008282060E0B6E130E0C6EAD0E0D6E0D2E3C
:101E0A00FED70C2EFCD70B2EFAD700000000010ECD
:101E1A000301BE6F818609019C51020A17E19DB137
:101E2A0002D0829001D08280060E0B6E130E0C6EC9
:101E3A00AD0E0D6E0D2EFED70C2EFCD70B2EFAD73B
:0E1E4A0000000000010E0301786F8188120075
:101E5800140E0801D76F140EDA6F140ED66F140E15
:101E6800D96F070E0501896F020E0801CF6F070EA3
:101E78000501916F020E0801D36F070E0901B36FB8
:101E8800020EB46F070EB56F020EB66FC9EC01F003
:101E98000A0E0801DC6F040ED86F0A0EDD6F040EFF
:101EA800DB6F0C0ED26FD46BD56B0901766B080112
:101EB800D06BD16B0901756B010E776FE2EC05F001
:021EC800120006
:041ECA00C5841200B9
:101ECE009CC9B3F90901B333B39F9DC9B4F99EC937
:101EDE00B5F98FEC01F0030E9D25B36F000E9E2118
:101EEE00B46F000EB56F070EB66F040EB76F000E0F
:081EFE00B86F1EEC01F01200A8
:101F060083A003D083A201D003D0010E006E01D0BE
:041F1600006A12004B
:101F1A000901956B83A8958183AA958395C900F0D9
:021F2A001200A3
:101F2C000901996B050E995D0AE299519725E16EAD
:101F3C00000E9821E26E300EE66E992BF3D7995174
:101F4C009725E16E000E9821E26EE66A9907000E65
:101F5C00961902E1000E95192CE0995197259A6F6C
:101F6C00000E98219B6F0A0E046E000E056E95C92B
:101F7C0000F096C901F0D8EC00F008C000F009C0E0
:101F8C0001F0300E00269AC9E1FF9BC9E2FF00C0A8
:101F9C00E6FF99070A0E046E000E056E95C900F057
:101FAC0096C901F0D8EC00F000C095F901C096F983
:041FBC00CED712006A
:101FC0000901966B83BA02D0968101D0969184B0B4
:101FD00002D0968301D0969383B802D0968501D023
:101FE0009695050E05012C5D02E20901966B09012B
:101FF0009651000A20E10301EA51000A09E10801B3
:10200000AF6BC26B0301EA6B0901956B0801B56BFD
:102010000301EA51010A0FE1050E0501295D0BE3F9
:102020000801AF6BC26B0301EA6B0901956B0801F4
:10203000B56B05012C6B0801AF51010A0FE10301DB
:10204000EE5105013F5D0AE3010E0801B56F050180
:102050003F6B190E0801C25DD8A0C22B0901965131
:10206000000A26E00301EA51010A22E10801AF510A
:10207000000A1EE1020EB025016E000EB121026EB3
:10208000000EB221036E000EB321046E06013F5113
:10209000041808E13E51031805E13D51021802E120
:1020A0003C51011805E1010E0801AF6F05013F6BBE
:1020B00009019651000A0AE00301EA51010A06E10A
:1020C0000801AF51000A02E10901956B090196511F
:1020D000000A0FE00301EA51010A0BE10801AF51C8
:1020E000010A07E1090196510801B503F3CF95F9FB
:1020F000B56B09019651000A12E00301EA51000A8A
:102100000EE196C995F9010EEA6F3CC6B0F83DC6DE
:10211000B1F83EC6B2F83FC6B3F80501296B090114
:102120009551000A03E0010E05012A6F95C900F0E0
:0221300012009B
:102132000901996B9A6B9551010A03E19651800F3F
:102142009A6F9551020A03E19651C00F9A6FB0EC53
:1021520009F07C0E09019C6F6BEC09F0800E0901FD
:102162009C6F6BEC09F09AC99CF96BEC09F0400E7C
:1021720009019C6F6BEC09F0090199519725E96EF1
:10218200000E9821EA6EEE500A0A10E099511008EA
:102192000DE399519725E96E000E9821EA6EEECF74
:1021A2009CF96BEC09F00901992BE6D78DDE0D0E37
:1021B2000C6EFB0E0D6E0D2EFED70C2EFCD7000002
:0421C2000000120007
:1021C6000901956B0301ECB103D00901959102D089
:1021D600090195810301EBB103D00901959302D062
:1021E600090195830301EC6BEB6B140E08014B5D43
:1021F6000FE2090195B104D078B502D0959101D0CE
:10220600958195B304D078B102D0959301D095838A
:0622160095C900F0120062
:10221C000901966B976B3F0E9515026E02C095F9EE
:10222C00540E966F02C000F00032009E0032009EE9
:10223C000032009E0032009E540E0010966F700EFD
:10224C00976F0F0E0214006E700E0010976FB0ECAB
:10225C0009F07C0E09019C6F6BEC09F0800E0901F2
:10226C009C6F6BEC09F096C99CF96BEC09F0800E35
:10227C0009019C6F6BEC09F097C99CF96BEC09F0A8
:10228C001EDE0D0E0C6EFB0E0D6E0D2EFED70C2EE3
:08229C00FCD700000000120055
:1022A400090178A302D00101332B01013351010A42
:1022B40020E1DD0E0901B36F060EB46F730EB56F26
:1022C400010EB66F100EB76F000EB86F1EEC01F062
:1022D400A30EB36F050EB46F830EB56F010EB66F08
:1022E400100EB76F000EB86F1EEC01F0010E060160
:1022F400FF6F01013351020A20E1DD0E0901B36FC2
:10230400060EB46F930EB56F010EB66F100EB76F55
:10231400000EB86F1EEC01F0A30EB36F050EB46F80
:10232400A30EB56F010EB66F100EB76F000EB86F27
:102334001EEC01F0010E0601FF6F01013351030A87
:0A23440003E1640E08014B6F120064
:10234E00B0EC09F07C0E09019C6F6BEC09F0800E6D
:10235E0009019C6F6BEC09F009019551020A04E129
:10236E00380E9C6F6BEC09F009019551010A04E1DE
:10237E00340E9C6F6BEC09F0800E09019C6F6BECB8
:10238E0009F009019551020A04E1390E9C6F6BECBC
:10239E0009F009019551010A04E1350E9C6F6BECB1
:1023AE0009F0800E09019C6F6BEC09F01C0E0901FF
:1023BE009C6F6BEC09F0800E09019C6F6BEC09F0C1
:1023CE00720E09019C6F6BEC09F0800E09019C6F77
:1023DE006BEC09F0550E09019C6F6BEC09F0800E49
:1023EE0009019C6F6BEC09F06C0E09019C6F6BEC94
:1023FE0009F0800E09019C6F6BEC09F00C0E0901BF
:10240E009C6F6BEC09F0800E09019C6F6BEC09F070
:10241E00010E09019C6F6BEC09F0800E09019C6F97
:10242E006BEC09F0060E09019C6F6BEC09F0800E47
:10243E0009019C6F6BEC09F0020E09019C6F6BECAD
:06244E0009F03CDD120064
:10245400949894968B988B9694889486C79EC79CE0
:06246400380EC66E1200E6
:10246A00010E0101326F090178A323D00101326BF9
:10247A000701126B650E08014B6F5AEC0BF0050150
:10248A006951000A16E10801696B0601BA51000A8E
:10249A0006E1C80E08014B6F010E0101346F0601F7
:1024AA00BA51010A06E1C90E08014B6F010E01017A
:1024BA00346F05016951000A18E1090178A109D0B0
:1024CA000601BA51000805E2BA075AEC0BF0660E8B
:1024DA004B6F090178A509D0010E0601BA5D05E224
:1024EA00BA2B5AEC0BF0660E4B6F05016951010AC3
:1024FA0018E1090178A109D00801D751000805E2BD
:10250A00D7075AEC0BF0660E4B6F090178A509D074
:10251A00FF0E0801D75D05E2D72B5AEC0BF0660EC9
:10252A004B6F05016951020A18E1090178A109D026
:10253A000801D651000805E2D6075AEC0BF0660EE0
:10254A004B6F090178A509D0FF0E0801D65D05E297
:10255A00D62B5AEC0BF0660E4B6F05016951030A34
:10256A0018E1090178A109D00801DA51000805E249
:10257A00DA075AEC0BF0660E4B6F090178A509D001
:10258A00FF0E0801DA5D05E2DA2B5AEC0BF0660E53
:10259A004B6F05016951040A18E1090178A109D0B4
:1025AA000801D951000805E2D9075AEC0BF0660E6A
:1025BA004B6F090178A509D0FF0E0801D95D05E224
:1025CA00D92B5AEC0BF0660E4B6F05016951050ABF
:1025DA0018E1090178A109D00801D851000805E2DB
:1025EA00D8075AEC0BF0660E4B6F090178A509D093
:1025FA00FF0E0801D85D05E2D82B5AEC0BF0660EE7
:10260A004B6F05016951060A18E1090178A109D041
:10261A000801DC51000805E2DC075AEC0BF0660EF3
:10262A004B6F090178A509D0FF0E0801DC5D05E2B0
:10263A00DC2B5AEC0BF0660E4B6F05016951070A49
:10264A0018E1090178A109D00801DB51000805E267
:10265A00DB075AEC0BF0660E4B6F090178A509D01F
:10266A00FF0E0801DB5D05E2DB2B5AEC0BF0660E70
:10267A004B6F05016951080A18E1090178A109D0CF
:10268A000801DD51000805E2DD075AEC0BF0660E81
:10269A004B6F090178A509D0FF0E0801DD5D05E23F
:1026AA00DD2B5AEC0BF0660E4B6F05016951090AD6
:1026BA0018E1090178A109D005018951000805E24C
:1026CA0089075AEC0BF0660E4B6F090178A509D001
:1026DA000F0E0501895D05E2892B5AEC0BF0660E97
:1026EA004B6F050169510A0A18E1090178A109D05D
:1026FA0005019151000805E291075AEC0BF0660EAC
:10270A004B6F090178A509D00F0E0501915D05E20D
:10271A00912B5AEC0BF0660E4B6F050169510B0AAF
:10272A0018E1090178A109D00801CF51000805E292
:10273A00CF075AEC0BF0660E4B6F090178A509D04A
:10274A000A0E0801CF5D05E2CF2B5AEC0BF0660E9C
:10275A004B6F050169510C0A18E1090178A109D0EA
:10276A000801D351000805E2D3075AEC0BF0660EB4
:10277A004B6F090178A509D00A0E0801D35D05E25D
:10278A00D32B5AEC0BF0660E4B6F050169510D0AFB
:10279A0018E1090178A109D00801D251000805E21F
:1027AA00D2075AEC0BF0660E4B6F090178A509D0D7
:1027BA00FF0E0801D25D05E2D22B5AEC0BF0660E31
:1027CA004B6F050169510E0A24E1090178A111D064
:1027DA00000E006E0801D551005C02E1D4510008D8
:1027EA0008E2010ED45F000ED55B5AEC0BF0660EC0
:1027FA004B6F090178A50DD0FD0E0801D55D02E1E8
:10280A00E80ED45D06E2D44BD52B5AEC0BF0660EDB
:10281A004B6F050169510F0A22E108014B6BDD0E6E
:10282A000901B36F060EB46F6A0EB56F080EB66F64
:10283A00100EB76F000EB86F1EEC01F0010E080102
:10284A00446F0101326B0701126B010E0601FF6F23
:10285A00010E0101346F2CEC0FF0E2EC05F00501DA
:10286A006951100A18E1090178A109D00801D0516B
:10287A00000805E2D0075AEC0BF0660E4B6F09010F
:10288A0078A509D0010E0801D05D05E2D02B5AECDB
:10289A000BF0660E4B6F05016951110A18E1090127
:1028AA0078A109D00801D151000805E2D1075AECF4
:1028BA000BF0660E4B6F090178A509D0010E0801CD
:1028CA00D15D05E2D12B5AEC0BF0660E4B6F050178
:1028DA006951120A16E1090178A108D07751000856
:1028EA0005E277075AEC0BF0660E4B6F090178A5E3
:1028FA0008D0010E775D05E2772B5AEC0BF0660ED5
:10290A004B6F05016951130A16E1090178A108D034
:10291A007651000805E276075AEC0BF0660E4B6F0B
:10292A00090178A508D0010E765D05E2762B5AECEE
:10293A000BF0660E4B6F05016951140A1FE109017C
:10294A0078A10CD07551000809E275077551090A7A
:10295A00D8B4756B5AEC0BF0660E4B6F090178A56B
:10296A000DD0FF0E755D0AE2752B7551010A02E161
:10297A000A0E756F5AEC0BF0660E4B6F0501695122
:10298A00150A1DE1670E08014B6FDD0E0901B36FD1
:10299A00060EB46F6A0EB56F080EB66F100EB76FDB
:1029AA00000EB86F1EEC01F00101326B010E080136
:1029BA00446F010E0601FF6F010E0101346F05011C
:1029CA006951160A1EE108014B6BDD0E0901B36F4E
:1029DA00060EB46F6A0EB56F080EB66F100EB76F9B
:1029EA00000EB86F1EEC01F00101326B010E0801F6
:1029FA00446F010E0601FF6F65EC08F0010E01013C
:042A0A00346F120013
:102A0E00090178A10BD005016951000A03E1160EE8
:102A1E00696F01D06907640E08014B6F090178A533
:102A2E000AD005016951160A02E1696B01D0692BC2
:102A3E00640E08014B6F090178A303D0660E0801DE
:102A4E004B6F09017851050A28E1DD0EB36F060EB2
:102A5E00B46F530EB56F010EB66F100EB76F000E3A
:102A6E00B86F1EEC01F00101336BA30E0901B36FB9
:102A7E00050EB46F630EB56F010EB66F100EB76F05
:102A8E00000EB86F1EEC01F0020E0801446F010E2D
:0C2A9E000601FF6FFA0E08014B6F1200DA
:102AAA00780E0801886F010E896FBA0E8A6F090EB7
:102ABA008B6FFF0E846FFF0E856F000E866F000E00
:102ACA00876FFF0E806FFF0E816F000E826F000E00
:102ADA00836FFF0E7C6FFF0E7D6F000E7E6F000E00
:102AEA007F6FAC8A900EAB6E948E949C9EAA03D094
:082AFA00AECF00F0FBD7120083
:102B02000901956B9C6B7CEC09F000C0C5F801C013
:102B1200C6F8010E09019C6F7CEC09F000C0C7F8F1
:102B220001C0C8F807011751000A03E10201016B55
:102B3200026B07011651000A03E10101FE6BFF6BF4
:102B42000201BC51000A1FE00801CE51C65D02E13C
:102B5200CD51C55D0AE2FF0E0201025D02E1FA0EED
:102B6200015D02E2014B022B0DD00201000E006E4C
:102B72000251005C02E10151000804E2010E015F12
:102B8200000E025B02D0016B026B02510801CC5DA8
:102B920004E1020101510801CB5D02E209019581C4
:102BA2000201BB51000A1FE00801CA51C85D02E1DF
:102BB200C951C75D0AE2FF0E0101FF5D02E1FA0E93
:102BC200FE5D02E2FE4BFF2B0DD00101000E006EF6
:102BD200FF51005C02E1FE51000804E2010EFE5FBB
:102BE200000EFF5B03D00101FE6BFF6BFF5108017A
:102BF200C45D04E10101FE510801C35D02E2090165
:082C0200958395C900F0120052
:102C0A00838E010E0801436F010E09019C6F98EC37
:102C1A0009F000520EE0010E9C6F9D6BF5EC0EF070
:102C2A00EB0E09019C6F000E9D6F010E9E6FC9ECA1
:102C3A0007F0020E09019C6F98EC09F0005231E08E
:102C4A00020E9C6F9D6BF5EC0EF08D0E09019C6FC8
:102C5A00000E9D6F010E9E6FC9EC07F0DD0E090193
:102C6A00B36F060EB46F1A0EB56F070EB66F100E5D
:102C7A00B76F000EB86F1EEC01F0A30EB36F050E0E
:102C8A00B46F730EB56F070EB66F100EB76F000EE6
:102C9A00B86F1EEC01F0010E0601FF6F010E08016C
:102CAA00446F0A0E09019C6F98EC09F0005210E07B
:102CBA00010E0701176F010E09019C6F38EC0BF02A
:102CCA003E0E9C6F000E9D6F010E9E6FC9EC07F0C1
:102CDA000B0E09019C6F98EC09F0005210E0010EEE
:102CEA000701166F020E09019C6F38EC0BF0290ED2
:102CFA009C6F000E9D6F010E9E6FC9EC07F0050ECA
:102D0A0009019C6F98EC09F0005211E0010E9C6FCA
:102D1A00BBC29DF94AEC0BF00801456B1A0E09017A
:102D2A009C6F000E9D6F010E9E6FC9EC07F0060E98
:102D3A0009019C6F98EC09F0005211E0BCC29CF9A1
:102D4A00010E9D6F4AEC0BF00701156B530E09013A
:102D5A009C6F000E9D6F010E9E6FC9EC07F0030E6B
:102D6A0009019C6F98EC09F0005209E1070117511B
:102D7A00010A04E109017DA101D001D012D00701A5
:102D8A0019A10FD01991010E09019C6FE6EC0EF002
:102D9A00800E09019C6F000E9D6F010E9E6FC9EC9B
:102DAA0007F0040E09019C6F98EC09F0005209E142
:102DBA0007011651010A04E109017DA301D001D0DE
:102DCA0012D0070119A30FD01993020E09019C6FA3
:102DDA00E6EC0EF0730E09019C6F000E9D6F010E5A
:102DEA009E6FC9EC07F00801D651000A04E046516B
:102DFA00010A01E002D0070119930701030E055DDC
:102E0A00D8A0CFD009017EA142D0010E9C6FE6EC7A
:102E1A000EF0020E09019C6FE6EC0EF00701176B2B
:102E2A00166B060E08014B6F010E0201006F620E4F
:102E3A0009019C6F000E9D6F010E9E6FC9EC07F091
:102E4A00090E09019C6F2FEC0AF0DD0EB36F060E16
:102E5A00B46F390EB56F020EB66F100EB76F000E53
:102E6A00B86F1EEC01F0A30EB36F050EB46F6C0EB3
:102E7A00B56F020EB66F100EB76F000EB86F1EEC6C
:102E8A0001F0010E0601FF6F020E0801446F0901ED
:102E9A007C51000A3FE0010E9C6FE6EC0EF0020E38
:102EAA0009019C6FE6EC0EF0060E08014B6F070154
:102EBA00176B166B200E09019C6F010E9D6F010E98
:102ECA009E6FC9EC07F0090E09019C6F2FEC0AF0FE
:102EDA00DD0EB36F060EB46F390EB56F020EB66F04
:102EEA00100EB76F000EB86F1EEC01F0A30EB36F91
:102EFA00050EB46F790EB56F030EB66F100EB76F6D
:102F0A00000EB86F1EEC01F0010E0601FF6F020EF3
:102F1A000801446F09017F51010A43E10801D153B5
:102F2A0040E0010E09019C6FE6EC0EF0020E090169
:102F3A009C6FE6EC0EF0060E08014B6F0701176B4B
:102F4A00166BD40E09019C6F010E9D6F010E9E6FC8
:102F5A00C9EC07F0090E09019C6F2FEC0AF0DD0E8F
:102F6A00B36F060EB46F390EB56F020EB66F100E40
:102F7A00B76F000EB86F1EEC01F0A30EB36F050E0B
:102F8A00B46F9C0EB56F030EB66F100EB76F000EBE
:102F9A00B86F1EEC01F0010E0601FF6F020E080168
:102FAA00446F07011951000AD8A4A7D00901775321
:102FBA00D8B489D0010E9C6F010E9D6FF5EC0EF00E
:102FCA00010E06013C2509019C6F000E06013D21F8
:102FDA0009019D6F000E06013E2109019E6F000E38
:102FEA0006013F2109019F6F0E0EA06FF2EC07F058
:102FFA00010E9C6FBBC29DF94AEC0BF00701176BDF
:10300A000801456BBCC29CF9010E09019D6F4AEC8F
:10301A000BF00701166B156B010E06013C25090121
:10302A009C6F000E06013D2109019D6F000E0601ED
:10303A003E2109019E6F000E06013F2109019F6F83
:10304A00030EA06FF2EC07F0010E06013C25090100
:10305A009C6F000E06013D2109019D6F000E0601BD
:10306A003E2109019E6F000E06013F2109019F6F53
:10307A00010E9C27000E9D239E239F23040EA06F02
:10308A00F2EC07F0010E06013C2509019C6F000EC7
:10309A0006013D2109019D6F000E06013E2109012D
:1030AA009E6F000E06013F2109019F6F010E9C27AA
:1030BA00000E9D239E239F230D0EA06FF2EC07F0B6
:1030CA00070119851AD0010E06013C2509019C6FDA
:1030DA00000E06013D2109019D6F000E06013E21E9
:1030EA0009019E6F000E06013F2109019F6F0D0E17
:1030FA00A06FF2EC07F0070119850E0E09019C6F0B
:10310A0098EC09F0005206E0020E9C6F010E9D6FCA
:10311A00F5EC0EF00D0E09019C6F98EC09F00052C7
:10312A002DE0010E08014B6F0701046B136B090EAA
:10313A0009019C6F2FEC0AF0DD0EB36F060EB46F17
:10314A00AD0EB56F030EB66F100EB76F000EB86FE7
:10315A001EEC01F0A30EB36F050EB46F730EB56FBC
:10316A00070EB66F100EB76F000EB86F1EEC01F0A7
:10317A00010E0601FF6F010E0801446F08014B5151
:10318A00050A04E04B51060A01E045D009019C6B8F
:10319A002FEC0AF0000E0801D51902E1000ED4192D
:1031AA003AE0D45106013C2509019C6F0801D5512A
:1031BA0006013D2109019D6F000E06013E2109010C
:1031CA009E6F000E06013F2109019F6F090EA06F35
:1031DA00F2EC07F00701146B136BBF0E09019C6F29
:1031EA00010E9D6F010E9E6FC9EC07F0A30E090137
:1031FA00B36F050EB46FBF0EB56F030EB66F100E28
:10320A00B76F000EB86F1EEC01F0010E0601FF6FDA
:08321A00020E0801446F1200CE
:10322200F1D1838E09017CA107D0020E08019A6FA9
:10323200692B010E05012A6F09017CA308D0010E3A
:1032420008019A6F030E696F010E05012A6F0701CB
:10325200176B166B0FD2020E09019C6F9D6BF5EC7A
:103262000EF0060E06013C2509019C6F000E0601B8
:103272003D2109019D6F000E06013E2109019E6F4D
:10328200000E06013F2109019F6F150EA06FF2EC9F
:1032920007F00801692BEED109017DA30CD00701CB
:1032A2001651010A08E1166B020E09019C6FE6EC49
:1032B2000EF00801692B150E09019C6F98EC09F0BC
:1032C200005203E0010E0701166FD4D1010E09016D
:1032D2009C6F9D6BF5EC0EF0060E06013C25090174
:1032E2009C6F000E06013D2109019D6F000E060133
:1032F2003E2109019E6F000E06013F2109019F6FC9
:10330200140EA06FF2EC07F00801692B09017DA1F0
:103312000CD007011751010A08E1176B010E0901D0
:103322009C6FE6EC0EF00801692B140E09019C6FEC
:1033320098EC09F0005203E0010E0701176F9AD1D1
:103342003CC6A7F83DC6A8F83EC6A9F83FC6AAF8EB
:10335200010E09019C6F010E9D6FF5EC0EF0060E39
:1033620006013C2509019C6F000E06013D21090161
:103372009D6F000E06013E2109019E6F000E06019F
:103382003F2109019F6F140EA06FF2EC07F00801B4
:10339200692B70D109017DA118D007011751010ACB
:1033A20014E1176B010E09019C6FE6EC0EF00801A7
:1033B2009A51010A03E10B0E696F01D0692BA751E3
:1033C20006013C5D006E00C09CF8140E09019C6F62
:1033D20098EC09F0005203E0010E0701176F4AD181
:1033E2003CC6A7F83DC6A8F83EC6A9F83FC6AAF84B
:1033F200020E09019C6F010E9D6FF5EC0EF0060E98
:1034020006013C2509019C6F000E06013D210901C0
:103412009D6F000E06013E2109019E6F000E0601FE
:103422003F2109019F6F150EA06FF2EC07F0080112
:10343200692B20D109017DA312D007011651010A7F
:103442000EE1166B020E09019C6FE6EC0EF008010C
:10345200692BA75106013C5D006E00C09EF8150E57
:1034620009019C6F98EC09F0005203E0010E07017C
:10347200166F00D13CC6A7F83DC6A8F83EC6A9F80B
:103482003FC6AAF8020E09019C6F9D6BF5EC0EF087
:10349200060E06013C2509019C6F000E06013D2126
:1034A20009019D6F000E06013E2109019E6F000E6B
:1034B20006013F2109019F6F150EA06FF2EC07F084
:1034C2000801692BD7D009017DA312D0070116513B
:1034D200010A0EE1166B020E09019C6FE6EC0EF07A
:1034E2000801692BA75106013C5D006E00C09DF8E2
:1034F200150E09019C6F98EC09F0005203E0010ED1
:103502000701166FB7D03CC6A7F83DC6A8F83EC65D
:10351200A9F83FC6AAF8010E09019C6F9D6BF5EC54
:103522000EF0060E06013C2509019C6F000E0601F5
:103532003D2109019D6F000E06013E2109019E6F8A
:10354200000E06013F2109019F6F140EA06FF2ECDD
:1035520007F00801692B8ED009017DA112D0070165
:103562001751010A0EE1176B010E09019C6FE6EC7F
:103572000EF00801692BA75106013C5D006E00C0E8
:103582009BF8140E09019C6F98EC09F0005203E0BD
:10359200010E0701176F6ED09B0E09019C6F080E7A
:1035A2009D6F41EC07F09B0E9C6F080E9D6F9AC8B1
:1035B2009EF979EC0AF0DD0E0901B36F060EB46FC5
:1035C200070EB56F050EB66F100EB76F000EB86F0F
:1035D2001EEC01F0A30EB36F050EB46FF60EB56FBD
:1035E200040EB66F100EB76F000EB86F1EEC01F02E
:1035F200020E0801446F010E0601FF6F839E08014F
:103602004B6B38D008016951000AD8B40AD6695107
:10361200010AD8B420D66951020AD8B43DD66951FC
:10362200030AD8B453D66951040AD8B46FD6695183
:10363200050AD8B485D66951060AD8B4ABD6695101
:10364200070AD8B4CDD66951080AD8B4F3D669515D
:10365200090AD8B40FD769510A0AD8B434D76951C4
:103662000B0AD8B450D769510C0AD8B475D769512E
:063672000D0A92E01200B7
:0A367800E2EC05F008014B6B1200B4
:10368200838E010E0801436F010E09019C6F98ECB5
:1036920009F000520EE0010E9C6F9D6BF5EC0EF0EE
:1036A2003A0E09019C6F070E9D6F010E9E6FC9ECC9
:1036B20007F0020E09019C6F98EC09F0005231E00C
:1036C200020E9C6F9D6BF5EC0EF02B0E09019C6FA8
:1036D200070E9D6F010E9E6FC9EC07F0DD0E09010A
:1036E200B36F060EB46F1A0EB56F070EB66F100EDB
:1036F200B76F000EB86F1EEC01F0A30EB36F050E8C
:10370200B46F730EB56F070EB66F100EB76F000E63
:10371200B86F1EEC01F0010E0601FF6F010E0801E9
:10372200446F0A0E09019C6F98EC09F0005210E0F8
:10373200010E0701176F010E09019C6F38EC0BF0A7
:103742005E0E9C6F070E9D6F010E9E6FC9EC07F017
:103752000B0E09019C6F98EC09F0005210E0010E6B
:103762000701166F020E09019C6F38EC0BF0490E2F
:103772009C6F070E9D6F010E9E6FC9EC07F0050E40
:1037820009019C6F98EC09F0005213E0010E9C6F46
:10379200BBC29DF94AEC0BF00701176B0801456BA0
:1037A200AC0E09019C6F020E9D6F010E9E6FC9EC5B
:1037B20007F0070E09019C6F98EC09F0005213E024
:1037C2009C6BBBC29DF94AEC0BF00701176B010E13
:1037D2000801456F9B0E09019C6F020E9D6F010E41
:1037E2009E6FC9EC07F0060E09019C6F98EC09F078
:1037F200005211E0BCC29CF9010E9D6F4AEC0BF025
:103802000701156BDB0E09019C6F020E9D6F010E05
:103812009E6FC9EC07F0080E09019C6F98EC09F045
:10382200005211E0BCC29CF99D6B4AEC0BF0010EF8
:103832000701156FCA0E09019C6F020E9D6F010EE2
:103842009E6FC9EC07F0030E09019C6F98EC09F01A
:10385200005210E007011991010E09019C6FE6EC7C
:103862000EF0BD0E09019C6F020E9D6F010E9E6F40
:10387200C9EC07F0040E09019C6F98EC09F00052A4
:1038820010E007011993020E09019C6FE6EC0EF09D
:103892008E0E09019C6F020E9D6F010E9E6FC9EC88
:1038A20007F007011751010A47E109017DA144D040
:1038B20008014551000A40E1010E09019C6FE6EC46
:1038C2000EF0020E09019C6FE6EC0EF0060E0801E6
:1038D2004B6F0701176B166B4A0E09019C6F020EA4
:1038E2009D6F010E9E6FC9EC07F0090E09019C6FD6
:1038F2002FEC0AF0DD0EB36F060EB46F390EB56F02
:10390200020EB66F100EB76F000EB86F1EEC01F00C
:10391200A30EB36F050EB46F280EB56F020EB66F0D
:10392200100EB76F000EB86F1EEC01F0010E06010B
:10393200FF6F020E0801446F07011651010A47E1A9
:1039420009017DA344D007011551000A40E1010E8F
:1039520009019C6FE6EC0EF0020E09019C6FE6EC89
:103962000EF0060E08014B6F0701176B166B5B0E0C
:1039720009019C6F020E9D6F010E9E6FC9EC07F04C
:10398200090E09019C6F2FEC0AF0DD0EB36F060ED3
:10399200B46F390EB56F020EB66F100EB76F000E10
:1039A200B86F1EEC01F0A30EB36F050EB46F280EB4
:1039B200B56F020EB66F100EB76F000EB86F1EEC29
:1039C20001F0010E0601FF6F020E0801446F0801AB
:1039D200D651000A04E04651010A01E002D0070173
:1039E20019930701030E055DD8A0CFD009017EA16E
:1039F20042D0010E9C6FE6EC0EF0020E09019C6FA4
:103A0200E6EC0EF00701176B166B060E08014B6F02
:103A1200010E0201006F7D0E09019C6F020E9D6F67
:103A2200010E9E6FC9EC07F0090E09019C6F2FEC85
:103A32000AF0DD0EB36F060EB46F390EB56F020ECB
:103A4200B66F100EB76F000EB86F1EEC01F0A30E2A
:103A5200B36F050EB46F6C0EB56F020EB66F100E1B
:103A6200B76F000EB86F1EEC01F0010E0601FF6F7A
:103A7200020E0801446F09017F51010A43E1080166
:103A8200D15340E0010E09019C6FE6EC0EF0020EEC
:103A920009019C6FE6EC0EF0060E08014B6F070160
:103AA200176B166BEA0E09019C6F020E9D6F010ED9
:103AB2009E6FC9EC07F0090E09019C6F2FEC0AF00A
:103AC200DD0EB36F060EB46F390EB56F020EB66F10
:103AD200100EB76F000EB86F1EEC01F0A30EB36F9D
:103AE200050EB46F9C0EB56F030EB66F100EB76F56
:103AF200000EB86F1EEC01F0010E0601FF6F020E00
:103B02000801446F09017C51000A3FE0010E9C6FDD
:103B1200E6EC0EF0020E09019C6FE6EC0EF0060ECA
:103B220008014B6F0701176B166B8A0E09019C6F18
:103B3200030E9D6F010E9E6FC9EC07F0090E09017D
:103B42009C6F2FEC0AF0DD0EB36F060EB46F390EC8
:103B5200B56F020EB66F100EB76F000EB86F1EEC87
:103B620001F0A30EB36F050EB46F790EB56F030E9D
:103B7200B66F100EB76F000EB86F1EEC01F0010E9B
:103B82000601FF6F020E0801446F07011951000A76
:103B9200D8A4A7D009017753D8B489D0010E9C6F5D
:103BA200010E9D6FF5EC0EF0010E06013C25090198
:103BB2009C6F000E06013D2109019D6F000E06015A
:103BC2003E2109019E6F000E06013F2109019F6FF0
:103BD2000E0EA06FF2EC07F0010E9C6FBBC29DF9B6
:103BE2004AEC0BF00701176B0801456BBCC29CF94C
:103BF200010E09019D6F4AEC0BF00701166B156B64
:103C0200010E06013C2509019C6F000E06013D21B3
:103C120009019D6F000E06013E2109019E6F000EF3
:103C220006013F2109019F6F030EA06FF2EC07F01E
:103C3200010E06013C2509019C6F000E06013D2183
:103C420009019D6F000E06013E2109019E6F000EC3
:103C520006013F2109019F6F010E9C27000E9D2343
:103C62009E239F23040EA06FF2EC07F0010E0601C3
:103C72003C2509019C6F000E06013D2109019D6F43
:103C8200000E06013E2109019E6F000E06013F2132
:103C920009019F6F010E9C27000E9D239E239F23E7
:103CA2000D0EA06FF2EC07F0070119851AD0010E74
:103CB20006013C2509019C6F000E06013D21090108
:103CC2009D6F000E06013E2109019E6F000E060146
:103CD2003F2109019F6F0D0EA06FF2EC07F0070163
:103CE20019850E0E09019C6F98EC09F0005206E04E
:103CF200020E9C6F010E9D6FF5EC0EF00D0E090188
:103D02009C6F98EC09F000522DE0010E08014B6FF8
:103D12000701046B136B090E09019C6F2FEC0AF06B
:103D2200DD0EB36F060EB46FAD0EB56F030EB66F38
:103D3200100EB76F000EB86F1EEC01F0A30EB36F3A
:103D4200050EB46F730EB56F070EB66F100EB76F18
:103D5200000EB86F1EEC01F0010E0601FF6F010E9E
:103D62000801446F08014B51050A04E04B51060A51
:103D720001E047D009019C6B2FEC0AF0000E08010C
:103D8200D51902E1000ED4193CE00701136B0801BA
:103D9200D45106013C2509019C6F0801D551060149
:103DA2003D2109019D6F000E06013E2109019E6F12
:103DB200000E06013F2109019F6F090EA06FF2EC70
:103DC20007F00701146BD00E09019C6F030E9D6F63
:103DD200010E9E6FC9EC07F0A30E0901B36F050E29
:103DE200B46FBF0EB56F030EB66F100EB76F000E35
:103DF200B86F1EEC01F0010E0601FF6F020E080102
:043E0200446F1200F7
:103E0600030E0901956F839E0801436BD2EC09F0FE
:103E16000050070113191EE0126BD2EC09F000C026
:103E260013F700C09CF9AE0E9D6F050E9E6F67ECF2
:103E36000FF0A30EB36F050EB46FB30EB56F010E80
:103E4600B66F0B0EB76F000EB86F1EEC01F0010EC9
:103E56000601FF6F09017C51000A04E102010053CB
:103E660001E143D10201006B838E010E0801436F0D
:103E760009019C6B2FEC0AF0775318E0010E06013E
:103E86003C2509019C6F000E06013D2109019D6F2D
:103E9600000E06013E2109019E6F000E06013F211C
:103EA60009019F6F0C0EA06FF2EC07F09551060109
:103EB6003C25006E000E3D21016E000E3E21026E75
:103EC600000E3F21036E00C081F901C082F902C0D5
:103ED60083F903C084F900C09CF901C09DF902C0B2
:103EE6009EF903C09FF9010E0901A06FF2EC07F0DD
:103EF60081C99CF982C99DF983C99EF984C99FF934
:103F0600050EA06FF2EC07F00801456B060E0601E0
:103F16003C25006E000E3D21016E000E3E21026E14
:103F2600000E3F21036E090195510026000E012265
:103F36000222032200C081F901C082F902C083F97E
:103F460003C084F900C09CF901C09DF902C09EF926
:103F560003C09FF90A0EA06FF2EC07F00801D751D3
:103F660006013C25006E000E3D21016E000E3E212D
:103F7600026E000E3F21036E090195510026000EC8
:103F860001220222032200C081F901C082F902C087
:103F960083F903C084F900C09CF901C09DF902C0F1
:103FA6009EF903C09FF9030EA06FF2EC07F008011B
:103FB600D651000AD8B48FD04651020AD8A48BD065
:103FC600D25106013C2509019C6F000E06013D21D8
:103FD60009019D6F000E06013E2109019E6F000E2C
:103FE60006013F2109019F6F95519C27000E9D23D5
:103FF6009E239F23020EA06FF2EC07F00801D25118
:1040060006013C2509019C6F000E06013D210901B0
:104016009D6F000E06013E2109019E6F000E0601EE
:104026003F2109019F6F95519C27000E9D239E23DA
:104036009F23060EA06FF2EC07F00701156B08012F
:10404600D25106013C2509019C6F000E06013D2157
:1040560009019D6F000E06013E2109019E6F000EAB
:1040660006013F2109019F6F060E9C27000E9D2326
:104076009E239F2395519C27000E9D239E239F23BD
:104086000B0EA06FF2EC07F00801D65106013C2595
:1040960009019C6F000E06013D2109019D6F000E6E
:1040A60006013E2109019E6F000E06013F2109010E
:1040B6009F6F0801D25109019C27000E9D239E2364
:1040C6009F2395519C27000E9D239E239F23040E1C
:1040D600A06FF2EC07F0030E0701186F176B166B53
:1040E600046B056B080E08014B6F090E09019C6FE6
:1040F60098EC09F00050010AD8A4DBD10801D95187
:10410600000A04E04651010A01E086D0090E0901C1
:104116009C6F2FEC0AF0955106013C25006E000EAF
:104126003D21016E000E3E21026E000E3F21036E00
:1041360000C081F901C082F902C083F903C084F985
:1041460000C09CF901C09DF902C09EF903C09FF909
:10415600010E0901A06FF2EC07F081C99CF982C932
:104166009DF983C99EF984C99FF9050EA06FF2ECEB
:1041760007F00801456B060E06013C25006E000E91
:104186003D21016E000E3E21026E000E3F21036EA0
:10419600090195510026000E01220222032200C0C9
:1041A60081F901C082F902C083F903C084F900C015
:1041B6009CF901C09DF902C09EF903C09FF90A0E41
:1041C600A06FF2EC07F00801DA5106013C25006EFB
:1041D600000E3D21016E000E3E21026E000E3F21B3
:1041E600036E090195510026000E012202220322C8
:1041F60000C081F901C082F902C083F903C084F9C5
:1042060000C09CF901C09DF902C09EF903C09FF948
:10421600030EA06FF2EC07F00801D951000AD8B4DA
:104226003ED14651020AD8A43AD1090E09019C6F23
:104236002FEC0AF0955106013C25006E000E3D213B
:10424600016E000E3E21026E000E3F21036E00C07D
:1042560081F901C082F902C083F903C084F900C064
:104266009CF901C09DF902C09EF903C09FF9020E98
:104276000901A06FF2EC07F081C99CF982C99DF98A
:1042860083C99EF984C99FF9060EA06FF2EC07F068
:104296000801456B060E06013C25006E000E3D2109
:1042A600016E000E3E21026E000E3F21036E0901D3
:1042B60095510026000E01220222032200C081F938
:1042C60001C082F902C083F903C084F900C09CF9D9
:1042D60001C09DF902C09EF903C09FF90B0EA06FA5
:1042E600F2EC07F00801DA5106013C25006E000EDB
:1042F6003D21016E000E3E21026E000E3F21036E2F
:10430600090195510026000E01220222032200C057
:1043160081F901C082F902C083F903C084F900C0A3
:104326009CF901C09DF902C09EF903C09FF9040ED5
:10433600A06FF2EC07F00801D25106013C25006E91
:10434600000E3D21016E000E3E21026E000E3F2141
:10435600036E090195510026000E01220222032256
:1043660000C081F901C082F902C083F903C084F953
:1043760000C09CF901C09DF902C09EF903C09FF9D7
:10438600010EA06FF2EC07F00801D25106013C25A0
:10439600006E000E3D21016E000E3E21026E000EE3
:1043A6003F21036E090195510026000E01220222CB
:1043B600032200C081F901C082F902C083F903C05B
:1043C60084F900C09CF901C09DF902C09EF903C0A2
:1043D6009FF9050EA06FF2EC07F00701156B0801B7
:1043E600D25106013C25006E000E3D21016E000EE5
:1043F6003E21026E000E3F21036E060E0026000EC1
:10440600012202220322090195510026000E0122F3
:104416000222032200C081F901C082F902C083F999
:1044260003C084F900C09CF901C09DF902C09EF941
:1044360003C09FF90A0EA06FF2EC07F00801D951EC
:1044460006013C25006E000E3D21016E000E3E2148
:10445600026E000E3F21036E090195510026000EE3
:104466000122022203220801D2510026000E012257
:104476000222032200C081F901C082F902C083F939
:1044860003C084F900C09CF901C09DF902C09EF9E1
:1044960003C09FF9030E0901A06FF2EC07F0030EAB
:1044A6000701196F176B166B046B056B070E080176
:1044B6004B6F09017EA118D0000E0801D51902E143
:1044C600000ED41911E007010451000A0DE1010E96
:1044D600046F010E146FE90E09019C6F010E9D6FAA
:1044E600010E9E6FC9EC07F007010451010A16E19F
:1044F60009017EB113D0000E0801D51902E1000EA4
:10450600D4190CE00701146B046B030E09019C6FB0
:0E451600020E9D6F010E9E6FC9EC07F01200A1
:10452400020E0901956F839E0801436BD2EC09F0DA
:104534000050070113191EE0126BD2EC09F000C001
:1045440013F700C09CF9AE0E9D6F050E9E6F67ECCD
:104554000FF0A30EB36F050EB46F060EB56F070E02
:10456400B66F0B0EB76F000EB86F1EEC01F0010EA4
:104574000601FF6F09017C51000A07E1090E9C6FD7
:1045840098EC09F0005201E1B0D39C6B2FEC0AF0D7
:104594000801D951000A04E04651010A01E038D16A
:1045A4000901955106013C25006E000E3D21016E66
:1045B400000E3E21026E000E3F21036E00C081F901
:1045C40001C082F902C083F903C084F900C09CF9D8
:1045D40001C09DF902C09EF903C09FF9010E0901B3
:1045E400A06FF2EC07F00801DB51000A11E081C969
:1045F4009CF982C99DF983C99EF984C99FF9070E64
:104604000901A06FF2EC07F0010E0801456F0FD00D
:1046140081C99CF982C99DF983C99EF984C99FF90E
:10462400050E0901A06FF2EC07F00801456BDB51A0
:1046340006013C25006E000E3D21016E000E3E2158
:10464400026E000E3F21036E060E0026000E0122AC
:1046540002220322090195510026000E01220222A2
:10466400032200C081F901C082F902C083F903C0AA
:1046740084F900C09CF901C09DF902C09EF903C0F1
:104684009FF90A0EA06FF2EC07F00801DB51060156
:104694003C25006E000E3D21016E000E3E21026E8F
:1046A400000E3F21036E090195510026000E0122E0
:1046B4000222032200C081F901C082F902C083F9F9
:1046C40003C084F900C09CF901C09DF902C09EF9A1
:1046D40003C09FF9050EA06FF2EC07F00801DD514D
:1046E400000A2FE0DA5106013C25006E000E3D2140
:1046F400016E000E3E21026E000E3F21036E080182
:10470400DD51005E000E015A025A035A0901955107
:104714000026000E01220222032200C081F901C0FA
:1047240082F902C083F903C084F900C09CF901C076
:104734009DF902C09EF903C09FF9070EA06FF2EC29
:1047440007F009017651000A3AE00801DA5106013E
:104754003C25006E000E3D21016E000E3E21026ECE
:10476400000E3F21036E090195510026000E01221F
:104774000222032200C081F901C082F902C083F938
:1047840003C084F900C09CF901C09DF902C09EF9E0
:1047940003C09FF9050EA06FF2EC07F0020E81250D
:1047A4009C6F000E82219D6F000E83219E6F000E70
:1047B40084219F6F030EA06FF2EC07F029D008014B
:1047C400DA5106013C25006E000E3D21016E000EFB
:1047D4003E21026E000E3F21036E09019551002611
:1047E400000E01220222032200C081F901C082F9D5
:1047F40002C083F903C084F900C09CF901C09DF98B
:1048040002C09EF903C09FF9030EA06FF2EC07F0FB
:104814000801D951000AD8B45FD24651020AD8A47B
:104824005BD20901955106013C25006E000E3D2125
:10483400016E000E3E21026E000E3F21036E00C089
:1048440081F901C082F902C083F903C084F900C070
:104854009CF901C09DF902C09EF903C09FF9020EA4
:104864000901A06FF2EC07F00801DB51000A11E026
:1048740081C99CF982C99DF983C99EF984C99FF9AC
:10488400080E0901A06FF2EC07F0010E0701156F85
:104894000FD081C99CF982C99DF983C99EF984C945
:1048A4009FF9060E0901A06FF2EC07F00701156BE2
:1048B4000801DB5106013C25006E000E3D21016E0E
:1048C400000E3E21026E000E3F21036E060E0026EE
:1048D400000E012202220322090195510026000E36
:1048E40001220222032200C081F901C082F902C020
:1048F40083F903C084F900C09CF901C09DF902C08A
:104904009EF903C09FF90B0EA06FF2EC07F00801AB
:10491400DB5106013C25006E000E3D21016E000EA8
:104924003E21026E000E3F21036E090195510026BF
:10493400000E01220222032200C081F901C082F983
:1049440002C083F903C084F900C09CF901C09DF939
:1049540002C09EF903C09FF9060EA06FF2EC07F0A7
:104964000801DD51000A2FE0D95106013C25006EF3
:10497400000E3D21016E000E3E21026E000E3F210D
:10498400036E0801DD51005E000E015A025A035AFB
:10499400090195510026000E01220222032200C0C3
:1049A40081F901C082F902C083F903C084F900C00F
:1049B4009CF901C09DF902C09EF903C09FF9080E3D
:1049C400A06FF2EC07F00801D95106013C25006EF6
:1049D400000E3D21016E000E3E21026E000E3F21AD
:1049E400036E090195510026000E012202220322C2
:1049F40000C081F901C082F902C083F903C084F9BF
:104A040000C09CF901C09DF902C09EF903C09FF942
:104A1400040EA06FF2EC07F00801D25106013C2508
:104A2400006E000E3D21016E000E3E21026E000E4E
:104A34003F21036E090195510026000E0122022236
:104A4400032200C081F901C082F902C083F903C0C6
:104A540084F900C09CF901C09DF902C09EF903C00D
:104A64009FF9010EA06FF2EC07F00801DB51000A78
:104A740011E081C99CF982C99DF983C99EF984C951
:104A84009FF9070E0901A06FF2EC07F0010E08016F
:104A9400456F0FD081C99CF982C99DF983C99EF9DC
:104AA40084C99FF9050E0901A06FF2EC07F0080113
:104AB400456BD25106013C25006E000E3D21016E6E
:104AC400000E3E21026E000E3F21036E0801DB51F1
:104AD4000026000E012202220322060E0026000EEA
:104AE400012202220322090195510026000E01220F
:104AF4000222032200C081F901C082F902C083F9B5
:104B040003C084F900C09CF901C09DF902C09EF95C
:104B140003C09FF90A0EA06FF2EC07F00801D2510E
:104B240006013C25006E000E3D21016E000E3E2163
:104B3400026E000E3F21036E0801DB510026000EB9
:104B4400012202220322090195510026000E0122AE
:104B54000222032200C081F901C082F902C083F954
:104B640003C084F900C09CF901C09DF902C09EF9FC
:104B740003C09FF9050EA06FF2EC07F00801DD51A8
:104B8400000A35E0D25106013C25006E000E3D219D
:104B9400016E000E3E21026E000E3F21036E0801DD
:104BA400DA510026000E012202220322DD51005EAA
:104BB400000E015A025A035A090195510026000EAB
:104BC40001220222032200C081F901C082F902C03D
:104BD40083F903C084F900C09CF901C09DF902C0A7
:104BE4009EF903C09FF9070EA06FF2EC07F00901CC
:104BF4007651000A41E00801DA5106013C25006EB5
:104C0400000E3D21016E000E3E21026E000E3F217A
:104C1400036E0801D2510026000E01220222032253
:104C2400090195510026000E01220222032200C030
:104C340081F901C082F902C083F903C084F900C07C
:104C44009CF901C09DF902C09EF903C09FF9050EAD
:104C5400A06FF2EC07F0020E81259C6F000E8221FA
:104C64009D6F000E83219E6F000E84219F6F030EA3
:104C7400A06FF2EC07F030D00801DA5106013C25B0
:104C8400006E000E3D21016E000E3E21026E000EEC
:104C94003F21036E0801D2510026000E0122022298
:104CA4000322090195510026000E0122022203224B
:104CB40000C081F901C082F902C083F903C084F9FC
:104CC40000C09CF901C09DF902C09EF903C09FF980
:104CD400030EA06FF2EC07F0030E0701196F176BB8
:104CE400166B056B040E08014B6F09017EA10FD0F2
:104CF400000E0801D51902E1000ED41908E00701DD
:104D04000451000A04E1010E046F010E146F07013F
:104D14000451010A5DE109017EB15AD0000E080177
:104D2400D51902E1000ED41953E009017551000AA6
:104D340004E10701046B146B4BD008EC09F000C0CC
:104D440094F70701146B0901755106013C25006EA7
:104D5400000E3D21016E000E3E21026E000E3F2129
:104D6400036E00C081F901C082F902C083F903C057
:104D740084F900C09CF901C09DF902C09EF903C0EA
:104D84009FF9090E0901A06FF2EC07F00701046B0B
:104D940081C9AAF982C9ABF983C9ACF984C9ADF94F
:104DA4006A0E0901AE6F090EAF6FA1EC06F0840E16
:104DB4009C6F070E9D6F010E9E6FC9EC07F06A0E83
:104DC40009019C6F090E9D6F010E9E6FC9EC07F0DF
:024DD4001200CB
:104DD600020E0901956F839E0801436BD2EC09F020
:104DE6000050070113191EE0126BD2EC09F000C047
:104DF60013F700C09CF9AE0E9D6F050E9E6F67EC13
:104E06000FF0A30EB36F050EB46FC00EB56F070E8D
:104E1600B66F0B0EB76F000EB86F1EEC01F0010EE9
:104E26000601FF6F09017C51000A08E1090E9C6F1B
:104E360098EC09F00050010A01E0DAD10801D951D5
:104E4600000A04E04651010A01E086D0090E090174
:104E56009C6F2FEC0AF0955106013C25006E000E62
:104E66003D21016E000E3E21026E000E3F21036EB3
:104E760000C081F901C082F902C083F903C084F938
:104E860000C09CF901C09DF902C09EF903C09FF9BC
:104E9600010E0901A06FF2EC07F081C99CF982C9E5
:104EA6009DF983C99EF984C99FF9050EA06FF2EC9E
:104EB60007F00801456B060E06013C25006E000E44
:104EC6003D21016E000E3E21026E000E3F21036E53
:104ED600090195510026000E01220222032200C07C
:104EE60081F901C082F902C083F903C084F900C0C8
:104EF6009CF901C09DF902C09EF903C09FF90A0EF4
:104F0600A06FF2EC07F00801DA5106013C25006EAD
:104F1600000E3D21016E000E3E21026E000E3F2165
:104F2600036E090195510026000E0122022203227A
:104F360000C081F901C082F902C083F903C084F977
:104F460000C09CF901C09DF902C09EF903C09FF9FB
:104F5600030EA06FF2EC07F00801D951000AD8B48D
:104F66003ED14651020AD8A43AD1090E09019C6FD6
:104F76002FEC0AF0955106013C25006E000E3D21EE
:104F8600016E000E3E21026E000E3F21036E00C030
:104F960081F901C082F902C083F903C084F900C017
:104FA6009CF901C09DF902C09EF903C09FF9020E4B
:104FB6000901A06FF2EC07F081C99CF982C99DF93D
:104FC60083C99EF984C99FF9060EA06FF2EC07F01B
:104FD6000801456B060E06013C25006E000E3D21BC
:104FE600016E000E3E21026E000E3F21036E090186
:104FF60095510026000E01220222032200C081F9EB
:1050060001C082F902C083F903C084F900C09CF98B
:1050160001C09DF902C09EF903C09FF90B0EA06F57
:10502600F2EC07F00801DA5106013C25006E000E8D
:105036003D21016E000E3E21026E000E3F21036EE1
:10504600090195510026000E01220222032200C00A
:1050560081F901C082F902C083F903C084F900C056
:105066009CF901C09DF902C09EF903C09FF9040E88
:10507600A06FF2EC07F00801D25106013C25006E44
:10508600000E3D21016E000E3E21026E000E3F21F4
:10509600036E090195510026000E01220222032209
:1050A60000C081F901C082F902C083F903C084F906
:1050B60000C09CF901C09DF902C09EF903C09FF98A
:1050C600010EA06FF2EC07F00801D25106013C2553
:1050D600006E000E3D21016E000E3E21026E000E96
:1050E6003F21036E090195510026000E012202227E
:1050F600032200C081F901C082F902C083F903C00E
:1051060084F900C09CF901C09DF902C09EF903C054
:105116009FF9050EA06FF2EC07F00701156B080169
:10512600D25106013C25006E000E3D21016E000E97
:105136003E21026E000E3F21036E060E0026000E73
:10514600012202220322090195510026000E0122A6
:105156000222032200C081F901C082F902C083F94C
:1051660003C084F900C09CF901C09DF902C09EF9F4
:1051760003C09FF90A0EA06FF2EC07F00801D9519F
:1051860006013C25006E000E3D21016E000E3E21FB
:10519600026E000E3F21036E090195510026000E96
:1051A6000122022203220801D2510026000E01220A
:1051B6000222032200C081F901C082F902C083F9EC
:1051C60003C084F900C09CF901C09DF902C09EF994
:1051D60003C09FF9030E0901A06FF2EC07F0030E5E
:1051E6000701196F176B166B056B070E08014B6FDE
:1051F60009017EA118D0000E0801D51902E1000EA2
:10520600D41911E007010451000A0DE1010E046FE3
:10521600010E146FAB0E09019C6F070E9D6F010EF8
:105226009E6FC9EC07F007010451010A16E1090156
:105236007EB113D0000E0801D51902E1000ED41973
:105246000CE00701146B046B950E09019C6F070EA9
:0C5256009D6F010E9E6FC9EC07F0120066
:10526200838E010E0801436F010E09019C6F98ECB9
:1052720009F0005233E0010E9C6F010E9D6FF5ECB8
:105282000EF0440E09019C6F010E9D6F010E9E6F80
:10529200C9EC07F0839CDD0E0901B36F060EB46FF3
:1052A2000E0EB56F030EB66F100EB76F000EB86F0D
:1052B2001EEC01F0A30EB36F050EB46F730EB56F43
:1052C200070EB66F100EB76F000EB86F1EEC01F02E
:1052D200010E0601FF6F010E0801446F020E090163
:1052E2009C6F98EC09F0005210E0020E9C6F010EC8
:1052F2009D6FF5EC0EF0350E09019C6F010E9D6F4E
:10530200010E9E6FC9EC07F0839C050E09019C6F8C
:1053120098EC09F0005213E0010E9C6FBBC29DF99C
:105322004AEC0BF00701176B0801456B9C0E090153
:105332009C6F040E9D6F010E9E6FC9EC07F0070E65
:1053420009019C6F98EC09F0005211E09C6BBBC202
:105352009DF94AEC0BF0010E0801456F8D0E090113
:105362009C6F040E9D6F010E9E6FC9EC07F0060E36
:1053720009019C6F98EC09F0005212E0BCC29CF942
:10538200010E9D6F4AEC0BF00701166B156B7E0E3A
:1053920009019C6F040E9D6F010E9E6FC9EC07F010
:1053A200080E09019C6F98EC09F0005211E0BCC292
:1053B2009CF99D6B4AEC0BF0010E0701156FAB0EC9
:1053C20009019C6F040E9D6F010E9E6FC9EC07F0E0
:1053D2000A0E09019C6F98EC09F0005210E0010ED0
:1053E2000701176F010E09019C6F38EC0BF0DF0EFD
:1053F2009C6F040E9D6F010E9E6FC9EC07F00B0EA1
:1054020009019C6F98EC09F0005210E0010E0701AF
:10541200166F020E09019C6F38EC0BF0C90E9C6FDF
:10542200040E9D6F010E9E6FC9EC07F0030E090179
:105432009C6F98EC09F0005210E007011891010EE0
:1054420009019C6FE6EC0EF0BA0E09019C6F040E86
:105452009D6F010E9E6FC9EC07F0040E09019C6F4F
:1054620098EC09F0005210E007011893020E0901AE
:105472009C6FE6EC0EF06F0E09019C6F040E9D6F9F
:10548200010E9E6FC9EC07F00C0E09019C6F98EC9F
:1054920009F00052D8A4838C07011751010A47E191
:1054A20009017DA144D008014551000A40E1010EE5
:1054B20009019C6FE6EC0EF0020E09019C6FE6EC0E
:1054C2000EF0050E08014B6F0701176B166B140ED9
:1054D20009019C6F040E9D6F010E9E6FC9EC07F0CF
:1054E200090E09019C6F2FEC0AF0DD0EB36F060E58
:1054F200B46F390EB56F020EB66F100EB76F000E95
:10550200B86F1EEC01F0A30EB36F050EB46F280E38
:10551200B56F020EB66F100EB76F000EB86F1EECAD
:1055220001F0010E0601FF6F020E0801446F070130
:105532001651010A47E109017DA344D00701155123
:10554200000A40E1010E09019C6FE6EC0EF0020E2A
:1055520009019C6FE6EC0EF0050E08014B6F070186
:10556200176B166B000E09019C6F040E9D6F010EE6
:105572009E6FC9EC07F0090E09019C6F2FEC0AF02F
:10558200DD0EB36F060EB46F390EB56F020EB66F35
:10559200100EB76F000EB86F1EEC01F0A30EB36FC2
:1055A200050EB46F280EB56F020EB66F100EB76FF0
:1055B200000EB86F1EEC01F0010E0601FF6F020E25
:1055C2000801446F0801D651000A04E04651010A5D
:1055D20001E002D0070118930701030E055DD8A070
:1055E200D0D009017EA143D00801D05340E0010E82
:1055F20009019C6FE6EC0EF0020E09019C6FE6ECCD
:105602000EF00701176B166B050E08014B6FEF0EBC
:1056120009019C6F030E9D6F010E9E6FC9EC07F08E
:10562200090E09019C6F2FEC0AF0DD0EB36F060E16
:10563200B46F390EB56F020EB66F100EB76F000E53
:10564200B86F1EEC01F0A30EB36F050EB46F6C0EB3
:10565200B56F020EB66F100EB76F000EB86F1EEC6C
:1056620001F0010E0601FF6F020E0801446F0901ED
:105672007C51000A3FE0010E9C6FE6EC0EF0020E38
:1056820009019C6FE6EC0EF00701176B166B050E15
:1056920008014B6F280E09019C6F040E9D6F010ECD
:1056A2009E6FC9EC07F0090E09019C6F2FEC0AF0FE
:1056B200DD0EB36F060EB46F390EB56F020EB66F04
:1056C200100EB76F000EB86F1EEC01F0A30EB36F91
:1056D200050EB46F790EB56F030EB66F100EB76F6D
:1056E200000EB86F1EEC01F0010E0601FF6F020EF4
:1056F2000801446F09017F51010A43E10801D153B6
:1057020040E0010E09019C6FE6EC0EF0020E090169
:105712009C6FE6EC0EF00701176B166B050E080185
:105722004B6F580E09019C6F040E9D6F010E9E6F08
:10573200C9EC07F0090E09019C6F2FEC0AF0DD0E8F
:10574200B36F060EB46F390EB56F020EB66F100E40
:10575200B76F000EB86F1EEC01F0A30EB36F050E0B
:10576200B46F9C0EB56F030EB66F100EB76F000EBE
:10577200B86F1EEC01F0010E0601FF6F020E080168
:10578200446F07011851000AD8A48ED0090177533B
:1057920071E0010E9C6F9D6BF5EC0EF0020E09019B
:1057A2009C6F9D6BF5EC0EF0010E09019C6FBBC264
:1057B2009DF94AEC0BF00701176B0801456BBCC25F
:1057C2009CF9010E09019D6F4AEC0BF00701166B63
:1057D200156B010E06013C2509019C6F000E0601A6
:1057E2003D2109019D6F000E06013E2109019E6FB8
:1057F200000E06013F2109019F6F030EA06FF2EC1C
:1058020007F0010E06013C2509019C6F000E0601FE
:105812003D2109019D6F000E06013E2109019E6F87
:10582200000E06013F2109019F6F040EA06FF2ECEA
:1058320007F0010E06013C2509019C6F000E0601CE
:105842003D2109019D6F000E06013E2109019E6F57
:10585200000E06013F2109019F6F010E9C27000ED9
:105862009D239E239F230D0EA06FF2EC07F00701EC
:1058720018851AD0010E06013C2509019C6F000E05
:1058820006013D2109019D6F000E06013E2109011D
:105892009E6F000E06013F2109019F6F0D0EA06F42
:1058A200F2EC07F0070118850D0E09019C6F98ECC8
:1058B20009F000522DE0020E08014B6F0701136B35
:1058C200046B090E09019C6F2FEC0AF0DD0EB36F19
:1058D200060EB46F0F0EB56F010EB66F100EB76FD6
:1058E200000EB86F1EEC01F0A30EB36F050EB46F7D
:1058F200730EB56F070EB66F100EB76F000EB86F4E
:105902001EEC01F0010E0601FF6F020E0801446F4A
:1059120008014B51050A04E04B51060A01E045D04B
:1059220009019C6B2FEC0AF0000E0801D51902E167
:10593200000ED4193AE0D45106013C2509019C6FAE
:105942000801D55106013D2109019D6F000E060196
:105952003E2109019E6F000E06013F2109019F6F42
:10596200090EA06FF2EC07F00701146B136B430EE4
:1059720009019C6F040E9D6F010E9E6FC9EC07F02A
:10598200A30E0901B36F050EB46FBF0EB56F030E00
:10599200B66F100EB76F000EB86F1EEC01F0010E5D
:0C59A2000601FF6F020E0801446F1200A6
:1059AE00030E0901956F966B976B986B996B839E9F
:1059BE000801436B09017851020A05E1640E0801E2
:1059CE004B6F0501696B09017C5103080801466F95
:1059DE0009017C51000AD8B4EDD2090E9C6F2FEC50
:1059EE000AF0838E010E0801436F0901775318E008
:1059FE00010E06013C2509019C6F000E06013D219A
:105A0E0009019D6F000E06013E2109019E6F000ED9
:105A1E0006013F2109019F6F0C0EA06FF2EC07F0FB
:105A2E00955106013C25006E000E3D21016E000EC3
:105A3E003E21026E000E3F21036E00C081F901C0AF
