:04000000CCEF3AF017
:1000080000C015F0F2A433D00301952B8088010EAF
:100018000401AF6F190E0301975D03E3976B986BAB
:1000280001D0972B190E0801B95D04E3B96B0301E0
:10003800966B02D00801B92B190E0301955D12E3E6
:10004800956B010E06010727000E082309230A23D2
:100058000701A153010ED8A4000EA16F8098010ECC
:100068000401A46FF30ED76ECA0ED66EF294F0A0F8
:1000780019D003019851000A03E1982B976B01D01E
:10008800982B050E985D0DE3130E975D09E39751C4
:10009800150806E3010E0501136F0301986B01D0E3
:1000A800986BF090F0A21ED003019651000A04E16B
:1000B800962B0801B96B02D00301962B0301050E9C
:1000C800965D0FE3130E0801B95D09E3B9511508F0
:1000D80006E3010E0501146F0301966B02D00301BC
:1000E800966BF0929EA007D008016853D8A4818629
:1000F8009D90CD909E90A1A207D008016053D8A4EE
:100108008188A092B190A192F2A204D0CC6ACA844C
:100118009D82F2929EA221D0080168530CE006014C
:10012800F55302E0818607D08196ACC8CFFFA8C8F6
:10013800CEFFCD809D80080160530CE006019553E9
:1001480002E0818807D08198ACC8B3FFA8C8B2FF85
:10015800B180A082CA949D929E9215C000F01100B1
:0E016800ACB202D00000FCD7FAC9ADFF120005
:10017600FAC9C9FFC7B002D00000FCD7C9CF00F04A
:02018600120065
:10018800086A096A100E0C6E0134083609360450E4
:10019800085E0550D8A0053C095ED8B007D00450C9
:1001A80008260550D8B0053C0926D89000360136F7
:0601B8000C2EEAD7120034
:1001BE00F250026EF29E0500FF6A0150FE6E005074
:0801CE00FD6E02BEF28E12006C
:1001D600086A080E0C6E003408360450085ED8B063
:0E01E60002D00826D89000360C2EF5D7120055
:1001F4000901F66B030EF65D0AE2F651F425E16E91
:10020400000EF521E26E200EE66EF62BF3D7F651C2
:10021400F425E16E000EF521E26EE66AF607F6516A
:10022400F425F76F000EF521F86F0A0E046EF3C97A
:1002340000F0CFDF08C000F0300E0026F7C9E1FF60
:10024400F8C9E2FF00C0E6FF0A0E046EF3C900F02D
:10025400C0DF00C0F3F90050000A01E102D0F60744
:04026400DED71200CF
:10026800A6A202D00000FCD7A69CF4C9AAFFF3C935
:10027800A9FFF5C9A8FFA69EA684F2CF00F0F29EBA
:10028800550EA76EAA0EA76EA68200BE02D0F29ED9
:0802980001D0F28EA6941200C1
:1002A000F5C904F0F6C905F0F3C902F0F4C903F08A
:1002B000F7C900F0F8C901F0010E0901F75F000E5F
:1002C000F85B005001100FE004C0E9FF05C0EAFF31
:1002D00002C0E1FF03C0E2FFEECFE6FF024A032ABD
:1002E000044A052AE5D7F3C900F0F4C901F0120069
:1002F0000901F76B050EF75D0AE2F751F525E16E8E
:10030000000EF621E26E200EE66EF72BF3D7F751C2
:10031000F525E16E000EF621E26EE66AF707F75169
:10032000F525F86F000EF621F96F0A0E046E000E27
:10033000056EF3C900F0F4C901F026DF08C000F033
:1003400009C001F0300E0026F8C9E1FFF9C9E2FF4B
:1003500000C0E6FF0A0E046E000E056EF3C900F041
:10036000F4C901F011DF00C0F3F901C0F4F9000E87
:10037000011802E1000E001801E102D0F707CFD703
:02038000120069
:100382005ED00801A66BA76B8BD00801E00EA66FAA
:10039200010EA76F85D00801EA0EA66F010EA76FA6
:1003A2007FD00801F40EA66F010EA76F79D0080165
:1003B200120EA66F020EA76F73D00801260EA66F4B
:1003C200020EA76F6DD008013A0EA66F020EA76F3C
:1003D20067D00801580EA66F020EA76F61D0080100
:1003E200760EA66F020EA76F5BD008018A0EA66F6B
:1003F200020EA76F55D008019E0EA66F020EA76FC0
:100402004FD00801BC0EA66F020EA76F49D008019B
:10041200EE0EA66F020EA76F43D00801200EA66F44
:10042200030EA76F3DD00801520EA66F030EA76FF1
:1004320037D00801840EA66F030EA76F31D00901D1
:10044200F351000A9EE0F351010A9FE0F351020AC0
:10045200A2E0F351030AA5E0F351040AA8E0F35124
:10046200050AABE0F351060AAEE0F351070AB1E028
:10047200F351080AB4E0F351090AB7E0F3510A0A4A
:10048200BAE0F3510B0ABDE0F3510C0AC0E0F3519C
:100492000D0AC3E0F3510E0AC6E0F3510F0AC9E098
:1004A20042D0640E0801A26F000EA36F5ED0080155
:1004B200F40EA26F010EA36F58D00801E80EA26FCE
:1004C200030EA36F52D00801DC0EA26F050EA36FBC
:1004D2004CD00801D00EA26F070EA36F46D00801C0
:1004E200C40EA26F090EA36F40D00801B80EA26F0E
:1004F2000B0EA36F3AD00801AC0EA26F0D0EA36FC4
:1005020034D00801A00EA26F0F0EA36F2ED00801E7
:10051200940EA26F110EA36F28D00801880EA26F4D
:10052200130EA36F22D00901F451000ABAE0F4516C
:10053200010ABDE0F451020AC0E0F451030AC3E02B
:10054200F451040AC6E0F451050AC9E0F451060A5E
:10055200CCE0F451070ACFE0F451080AD2E0F4519A
:10056200090AD5E0F4510A0AD8E05ED00801A46B6A
:10057200A56B8BD00801E00EA46F010EA56F85D08C
:100582000801EA0EA46F010EA56F7FD00801F40ED8
:10059200A46F010EA56F79D00801120EA46F020E8E
:1005A200A56F73D00801260EA46F020EA56F6DD041
:1005B20008013A0EA46F020EA56F67D00801580E0B
:1005C200A46F020EA56F61D00801760EA46F020E11
:1005D200A56F5BD008018A0EA46F020EA56F55D0DD
:1005E20008019E0EA46F020EA56F4FD00801BC0E2B
:1005F200A46F020EA56F49D00801EE0EA46F020E81
:10060200A56F43D00801200EA46F030EA56F3DD045
:100612000801520EA46F030EA56F37D00801840E95
:10062200A46F030EA56F31D00901F551000A9EE0B7
:10063200F551010A9FE0F551020AA2E0F551030AC1
:10064200A5E0F551040AA8E0F551050AABE0F55121
:10065200060AAEE0F551070AB1E0F551080AB4E026
:10066200F551090AB7E0F5510A0ABAE0F5510B0A49
:10067200BDE0F5510C0AC0E0F5510D0AC3E0F55199
:100682000E0AC6E0F5510F0AC9E042D0640E080115
:10069200AA6F000EAB6F5ED00801F40EAA6F010EB6
:1006A200AB6F58D00801E80EAA6F030EAB6F52D0A1
:1006B2000801DC0EAA6F050EAB6F4CD00801D00EFC
:1006C200AA6F070EAB6F46D00801C40EAA6F090EBF
:1006D200AB6F40D00801B80EAA6F0B0EAB6F3AD0C9
:1006E2000801AC0EAA6F0D0EAB6F34D00801A00E3C
:1006F200AA6F0F0EAB6F2ED00801940EAA6F110EC7
:10070200AB6F28D00801880EAA6F130EAB6F22D0F0
:100712000901F651000ABAE0F651010ABDE0F651AC
:10072200020AC0E0F651030AC3E0F651040AC6E029
:10073200F651050AC9E0F651060ACCE0F651070A5D
:10074200CFE0F651080AD2E0F651090AD5E0F65197
:060752000A0AD8E01200C3
:100758000B6A0A6A096A086A0E6A03340836045082
:10076800085E0550D8A0053C095E0650D8A0063C96
:100778000A5E0750D8A0073C0B5EE86AD8A0010EB5
:100788000E5E0336070E0C6E0334083609360A3639
:100798000B360E36045003A012D0085E0550D8A0C0
:1007A800053C095E0650D8A0063C0A5E0750D8A052
:1007B800073C0B5EE86AD8A0010E0E5E11D0082631
:1007C8000550D8B0053C09260650D8B0063C0A2684
:1007D8000750D8B0073C0B26E86AD8B0010E0E26A1
:1007E80003360C2ED1D70234083609360A360B36B2
:1007F8000E36045003A012D0085E0550D8A0053C60
:10080800095E0650D8A0063C0A5E0750D8A0073CEF
:100818000B5EE86AD8A0010E0E5E11D008260550BE
:10082800D8B0053C09260650D8B0063C0A26075021
:10083800D8B0073C0B26E86AD8B0010E0E2602365F
:10084800070E0C6E0234083609360A360B360E3699
:10085800045002A012D0085E0550D8A0053C095EDD
:100868000650D8A0063C0A5E0750D8A0073C0B5E8D
:10087800E86AD8A0010E0E5E11D008260550D8B03F
:10088800053C09260650D8B0063C0A260750D8B0C1
:10089800073C0B26E86AD8B0010E0E2602360C2E4D
:1008A800D1D70134083609360A360B360E360450CD
:1008B80002A012D0085E0550D8A0053C095E06507B
:1008C800D8A0063C0A5E0750D8A0073C0B5EE86A31
:1008D800D8A0010E0E5E11D008260550D8B0053CF0
:1008E80009260650D8B0063C0A260750D8B0073C5F
:1008F8000B26E86AD8B0010E0E260136070E0C6EDC
:100908000134083609360A360B360E36045001A073
:1009180012D0085E0550D8A0053C095E0650D8A044
:10092800063C0A5E0750D8A0073C0B5EE86AD8A0D0
:10093800010E0E5E11D008260550D8B0053C0926D8
:100948000650D8B0063C0A260750D8B0073C0B26FC
:10095800E86AD8B0010E0E2601360C2ED1D7003425
:10096800083609360A360B360E36045001A012D066
:10097800085E0550D8A0053C095E0650D8A0063C84
:100988000A5E0750D8A0073C0B5EE86AD8A0010EA3
:100998000E5E11D008260550D8B0053C0926065031
:1009A800D8B0063C0A260750D8B0073C0B26E86AA0
:1009B800D8B0010E0E260036070E0C6E003408362D
:1009C80009360A360B360E36045000A012D0085EDF
:1009D8000550D8A0053C095E0650D8A0063C0A5E22
:1009E8000750D8A0073C0B5EE86AD8A0010E0E5E3F
:1009F80011D008260550D8B0053C09260650D8B0B5
:100A0800063C0A260750D8B0073C0B26E86AD8B03F
:100A1800010E0E2600360C2ED1D700B00ED0045091
:100A280008260550D8B0053C09260650D8B0063C23
:0C0A38000A260750D8B0073C0B2612001D
:100A4400BCC8E1FFBDC8E2FFF3C9E6FFBAC800F0C5
:0A0A5400BBC801F0DFEC00F0120057
:100A5E003BD0500E0801AC6F370EA86F72D0080154
:100A6E00630EAC6FBF0EA86F6CD00801770EAC6F23
:100A7E00470EA86F66D008018A0EAC6FCF0EA86F16
:100A8E0060D008019E0EAC6F570EA86F5AD00801A9
:100A9E00B10EAC6FDF0EA86F54D00801C50EAC6F4F
:100AAE00670EA86F4ED00801D80EAC6FEF0EA86F70
:100ABE0048D00801EC0EAC6F770EA86F42D008013B
:100ACE00FF0EAC6FA86B3DD0000E0901C21902E1FA
:100ADE00010EC119BEE0000EC21902E1020EC119CB
:100AEE00BEE0000EC21902E1030EC119BEE0000EF7
:100AFE00C21902E1040EC119BEE0000EC21902E1D4
:100B0E00050EC119BEE0000EC21902E1060EC11992
:100B1E00BEE0000EC21902E1070EC119BEE0000EC2
:100B2E00C21902E1080EC119BEE0000EC21902E19F
:100B3E00090EC119BEE0000EC21902E10A0EC1195A
:100B4E00BEE03BD0500E0801A96F370EA16F72D0D8
:100B5E000801630EA96FBF0EA16F6CD00801770E4E
:100B6E00A96F470EA16F66D008018A0EA96FCF0E2E
:100B7E00A16F60D008019E0EA96F570EA16F5AD0BB
:100B8E000801B10EA96FDF0EA16F54D00801C50E7A
:100B9E00A96F670EA16F4ED00801D80EA96FEF0E88
:100BAE00A16F48D00801EC0EA96F770EA16F42D04D
:100BBE000801FF0EA96FA16B3DD0000E0901C419EB
:100BCE0002E1010EC319BEE0000EC41902E1020ECD
:100BDE00C319BEE0000EC41902E1030EC319BEE034
:100BEE00000EC41902E1040EC319BEE0000EC419B2
:100BFE0002E1050EC319BEE0000EC41902E1060E95
:100C0E00C319BEE0000EC41902E1070EC319BEE0FF
:100C1E00000EC41902E1080EC319BEE0000EC4197D
:100C2E0002E1090EC319BEE0000EC41902E10A0E5C
:060C3E00C319BEE0120024
:100C44000B6A0A6A096A00500402F4CF09F0F3CF70
:100C540008F001500502F4CF0BF0F3CF0AF0005076
:100C64000502F3500926F4500A22E86A0B220150C7
:100C74000402F3500926F4500A22E86A0B2208C041
:100C840000F009C001F00AC002F00BC003F012002A
:0A0C9400490E0D6E0D2EFED7120062
:100C9E00C7B409D01F0EC514016E0150000A03E13E
:0A0CAE00010E006E01D0006A120072
:100CB8000901ED6BEAC9E9FFEBC9EAFFEECFECF9F0
:100CC800EC51000A0EE0ECC9F3F9B8DE0901ED2B8E
:100CD800ED51EA25E96E000EEB21EA6EEECFECF954
:040CE800EFD7120030
:100CEC000901F06B0A0EF05D0AE2F051EE25E16E9F
:100CFC00000EEF21E26E300EE66EF02BF3D7F051C2
:100D0C00EE25E16E000EEF21E26EE66AF007000EB2
:100D1C00006EED1908E10050EC1905E10050EB19DB
:100D2C0002E1EA51000A3EE0F051EE25F16F000EAF
:100D3C00EF21F26F0A0E046E000E056E066E076E42
:100D4C00EAC900F0EBC901F0ECC902F0EDC903F0FF
:100D5C00FDDC08C000F009C001F00AC002F00BC0B5
:100D6C0003F0300E0026F1C9E1FFF2C9E2FF00C02A
:100D7C00E6FFF0070A0E046E000E056E066E076E97
:100D8C00EAC900F0EBC901F0ECC902F0EDC903F0BF
:100D9C00DDDC00C0EAF901C0EBF902C0ECF903C0DC
:060DAC00EDF9B5D71200BD
:100DB2000901ED6BEAC9E9FFEBC9EAFFEECFECF9F5
:100DC200EC51000A0FE0ECC9FAF9B4EC00F00901A9
:100DD200ED2BED51EA25E96E000EEB21EA6EEECF26
:060DE200ECF9EED712004F
:100DE800EAC9F3F90901F333F39FEBC9F4F9ECC944
:100DF800F5F9FAEC00F0010EEA15016E0150010A4E
:100E080011E1030EEB25F36F000EEC21F46F1E0EBB
:100E1800F56F020EF66F040EF76F000EF86F50ECC8
:100E280001F010D0030EEB25F36F000EEC21F46FE8
:100E38000B0EF56F020EF66F040EF76F000EF86FCB
:060E480050EC01F0120065
:100E4E00A69CEBC9AAFFEAC9A9FFA69EA680A8CFB9
:040E5E0000F012008E
:100E6200010E0901F36F000EF46FB2C9F5F934EC0B
:100E720001F0020E0901F36F000EF46F16C9F5F9C5
:100E820034EC01F0030E0901F36F000EF46FB1C9E7
:100E9200F5F934EC01F0040E0901F36F000EF46F62
:100EA200B0C9F5F934EC01F0050E0901F36F000E3B
:100EB200F46FBDC9F5F934EC01F0060E0901F36FC8
:100EC200000EF46FB5C9F5F934EC01F0070E090113
:100ED200F36F000EF46FB3C9F5F934EC01F0080EAC
:100EE2000901F36F000EF46FB7C9F5F934EC01F0A4
:100EF200090E0901F36F000EF46FBEC9F5F934EC67
:100F020001F00A0E0901F36F000EF46FA6C9F5F99C
:100F120034EC01F00B0E0901F36F000EF46FA5C95A
:100F2200F5F934EC01F00C0E0901F36F000EF46FC9
:100F32007FC7F5F934EC01F00D0E0901F36F000ED5
:100F4200F46FB8C9F5F934EC01F00E0E0901F36F34
:100F5200000EF46FBFC9F5F934EC01F00F0E090170
:100F6200F36F000EF46F17C9F5F934EC01F0100EAF
:100F72000901F36F000EF46F15C9F5F934EC01F0B5
:100F8200110E0901F36F000EF46FA4C9F5F934ECE8
:100F920001F0120E0901F36F000EF46FC0C9F5F9EA
:100FA20034EC01F0130E0901F36F000EF46FA2C7C7
:100FB200F5F934EC01F0140E0901F36F000EF46F31
:100FC200B4C9F5F934EC01F0150E0901F36F000E06
:100FD200F46FC1C9F5F934EC01F0160E0901F36F93
:100FE200000EF46FC3C9F5F934EC01F07FC7F3F9D1
:100FF200C0C9F4F9A2C7F5F9B4C9F6F9C1EC01F018
:041002002DDD1200CE
:10100600EAC9F3F9EBC9F4F90901F433F333F49FB0
:10101600ECC9F5F9EDC9F6F978EC01F0010EEA151F
:10102600016EEBC902F0000E0216000E021802E174
:10103600010E011811E1050EEC25F36F000EED21EE
:10104600F46F150EF56F050EF66F040EF76F000EB2
:10105600F86F50EC01F010D0050EEC25F36F000E82
:10106600ED21F46F6C0EF56F020EF66F040EF76F3E
:0A107600000EF86F50EC01F01200BC
:10108000010E0901DC25016E000EDD21026E01C09A
:10109000E9FF02C0EAFF0A0EEE24006E01C0E1FF84
:1010A00002C0E2FF00C0E6FF030EDC25016E000E69
:1010B000DD21026E01C0E9FF02C0EAFF0A0EEE2444
:1010C000006E01C0E1FF02C0E2FF00C0E6FFDCC924
:1010D000E9FFDDC9EAFFEECF00F0DCC9E1FFDDC9C1
:1010E000E2FF0A0E0024E66E020EDC25016E000E01
:1010F000DD21026E01C0E9FF02C0EAFF0A0EEE2404
:10110000006E01C0E1FF02C0E2FF00C0E6FF040E76
:10111000DC25E16E000EDD21E26E040EE66E060EA9
:10112000DC25E16E000EDD21E26E040EE66E080E97
:10113000DC25E16E000EDD21E26E040EE66E0A0E85
:10114000DC25E16E000EDD21E26E040EE66E050E7A
:10115000DC25E16E000EDD21E26E0A0EE66E090E60
:10116000DC25E16E000EDD21E26E0A0EE66E070E52
:10117000DC25E16E000EDD21E26E0A0EE66E0B0E3E
:10118000DC25E16E000EDD21E26E0A0EE66E120035
:101190000901DE5317E007C6EAF908C6EBF909C6EC
:1011A000ECF90AC6EDF9DF0EEE6F090EEF6F9EDD6A
:1011B000DF0EEA6F090EEB6F7FDD630EEA6F080E3C
:1011C000EB6FF7DDDCC9EAF9DDC9EBF9F2DD0D0EF5
:1011D000FA6FB4EC00F00A0E0901FA6FB4EC00F0FB
:0211E0001200FB
:1011E2000901DC51010A03E10801686B81960901DA
:0E11F200DC51020A03E10801606B81981200D3
:10120000010E0901EA6F000EEB6F21DE00C0B2F99A
:10121000020EEA6F000EEB6F1ADE00C016F9030E25
:10122000EA6F000EEB6F13DE00C0B1F9040EEA6F37
:10123000000EEB6F0CDE00C0B0F9050EEA6F000E79
:10124000EB6F05DE00C0BDF9060EEA6F000EEB6F16
:10125000FEDD00C0B5F9070EEA6F000EEB6FF7DD9B
:1012600000C0B3F9080EEA6F000EEB6FF0DD00C0AE
:10127000B7F9090EEA6F000EEB6FE9DD00C0BEF9A9
:101280000A0EEA6F000EEB6FE2DD00C0A5F9000E5A
:10129000A66FA5C9A6F9A56B0B0EEA6F000EEB6F42
:1012A000D6DD0050A513000EA6130C0EEA6F000E3B
:1012B000EB6FCDDD00C07FF70D0EEA6F000EEB6F18
:1012C000C6DD00C0B8F90E0EEA6F000EEB6FBFDD91
:1012D00000C0BFF90F0EEA6F000EEB6FB8DD00C063
:1012E00017F9100EEA6F000EEB6FB1DD00C015F9B3
:1012F000110EEA6F000EEB6FAADD00C0A4F9120E0A
:10130000EA6F000EEB6FA3DD00C0C0F9130EEA6FA9
:10131000000EEB6F9CDD00C0A2F7140EEA6F000E0A
:10132000EB6F95DD00C0B4F9150EEA6F000EEB6FA0
:101330008EDD00C0C1F9000EC26F160EEA6F000EFE
:10134000EB6F85DD00C0C3F9000EC46F2FEC05F014
:101350007FC7F3F9C0C9F4F9A2C7F5F9B4C9F6F922
:06136000C1EC01F01200D7
:101366009E96DCC9C9FFC7A401D0FDD79EB601D0A1
:10137600FDD7C5BC02D0006A03D0C584020E006E3C
:02138600120053
:101388000901E16B140EE15D6EE2070E006E000EBE
:10139800016EE1C904F0000E056E50DC180E00263F
:1013A800090E0122050E0024E96E000E0120EA6EE6
:1013B800EE50010A56E1070E006E000E016EE1C9FB
:1013C80004F0000E056E3ADC180E0024E16E090EDA
:1013D8000120E26EE0C9E6FF070E006E000E016E06
:1013E800E1C904F0000E056E29DC180E0026090E6E
:1013F8000122010E0024E16E000E0120E26EDCC91C
:10140800E6FFDDC9E6FFDEC9E6FFDFC9E6FF070E36
:10141800006E000E016EE1C904F0000E056E0EDCD0
:10142800180E0026090E0122050E0024E16E000E9A
:101438000120E26EE66A070E006E000E016EE1C939
:1014480004F0000E056E22EC06F0180E0026090EB8
:101458000122060E0024E16E000E0120E26EE66A0B
:0814680002D0E12B8FD7120026
:101470000901A851DC1904E1A86B010E006E0FD020
:10148000A951DC1904E1A96B010E006E08D0AA5124
:10149000DC1904E1AA6B010E006E01D0006A120093
:1014A000DCC9F3F90901F333F39FDDC9F4F9DEC9AF
:1014B000F5F9FAEC00F0030EDD25F36F000EDE21E6
:1014C000F46FA30EF56F070EF66F040EF76F000EA4
:0814D000F86F50EC01F012006E
:1014D800020E0601A66F530E0901F36F060EF46F94
:1014E800010EF56F010EF66F100EF76F000EF86F14
:1014F80050EC01F00001D951000A36E1310E090122
:10150800F36F060EF46FDA0EF56F000EF66F100E1D
:10151800F76F000EF86F50EC01F0010E0601A56F91
:101528003850000A0FE1530E0901F36F060EF46FED
:10153800390EF56F000EF66F100EF76F000EF86F8C
:1015480050EC01F03850010A0FE10901530EF36F16
:10155800060EF46F160EF56F000EF66F100EF76F8D
:10156800000EF86F50EC01F00001D951010A1AE1A0
:10157800310E0901F36F060EF46F270EF56F000E9A
:10158800F66F100EF76F000EF86F50EC01F0010EB9
:101598000601A56FB2C9EAF9590E0901EB6F060EEB
:1015A800EC6F1EDC0001D951020A1AE1310E090163
:1015B800F36F060EF46F6C0EF56F000EF66F100EDB
:1015C800F76F000EF86F50EC01F0010E0601A56FE1
:1015D80016C9EAF9590E0901EB6F060EEC6F00DC2B
:1015E8000001D951030A1BE1310E0901F36F060E00
:1015F800F46F7D0EF56F000EF66F100EF76F000E8C
:10160800F86F50EC01F0010E0601A56FB1C9EAF9B7
:10161800590E0901EB6F060EEC6FF4EC06F00001B1
:10162800D951040A1BE1310E0901F36F060EF46F5C
:101638004A0EF56F000EF66F100EF76F000EF86F7A
:1016480050EC01F0010E0601A56FB0C9EAF9590E78
:101658000901EB6F060EEC6FF4EC06F00001D951AE
:10166800050A1BE1310E0901F36F060EF46F5B0EDC
:10167800F56F000EF66F100EF76F000EF86F50EC56
:1016880001F0010E0601A56FB5C9EAF9590E090165
:10169800EB6F060EEC6FF4EC06F00001D951060A68
:1016A8001BE1310E0901F36F060EF46F120EF56F90
:1016B800010EF66F100EF76F000EF86F50EC01F088
:1016C800010E0601A56FB3C9EAF9590E0901EB6FBE
:1016D800060EEC6FF4EC06F00001D951070A1BE185
:1016E800310E0901F36F060EF46FB90EF56F010E96
:1016F800F66F100EF76F000EF86F50EC01F0010E48
:101708000601A56FB7C9EAF9590E0901EB6F060E74
:10171800EC6FF4EC06F00001D951080A1BE1310E18
:101728000901F36F060EF46FCA0EF56F010EF66F1E
:10173800100EF76F000EF86F50EC01F0010E060165
:10174800A56FBEC9EAF9590E0901EB6F060EEC6FD9
:10175800F4EC06F00001D951090A1BE1310E090128
:10176800F36F060EF46F970EF56F010EF66F100EFD
:10177800F76F000EF86F50EC01F0010E0601A56F2F
:10178800C1C9F3F9590E0901F46F060EF56FFAECA9
:1017980000F00001D9510A0A1BE1310E0901F36F6B
:1017A800060EF46FA80EF56F010EF66F100EF76FA8
:1017B800000EF86F50EC01F0010E0601A56FC3C9C9
:1017C800F3F9590E0901F46F060EF56FFAEC00F003
:1017D8000001D9510B0A3EE1310E0901F36F060EE3
:1017E800F46FF30EF56F010EF66F100EF76F000E23
:1017F800F86F50EC01F0010E0601A56F7FC7F3F9F1
:10180800560E0901F46F060EF56FFAEC00F00701A9
:101818007F51070810E25A0E0901F36F060EF46FA4
:10182800040EF56F020EF66F060EF76F000EF86FD6
:1018380050EC01F00FD009015A0EF36F060EF46F49
:10184800DB0EF56F010EF66F060EF76F000EF86FE0
:1018580050EC01F00001D9510C0A3EE1310E0901AA
:10186800F36F060EF46FE20EF56F010EF66F100EB1
:10187800F76F000EF86F50EC01F0010E0601A56F2E
:10188800A2C7F3F9560E0901F46F060EF56FFAECCC
:1018980000F00701A251070810E25A0E0901F36F80
:1018A800060EF46F450EF56F010EF66F060EF76F14
:1018B800000EF86F50EC01F00FD009015A0EF36FCB
:1018C800060EF46F4C0EF56F010EF66F060EF76FED
:1018D800000EF86F50EC01F00001D9510D0A1BE120
:1018E800310E0901F36F060EF46F230EF56F010E2A
:1018F800F66F100EF76F000EF86F50EC01F0010E46
:101908000601A56FC0C9EAF9590E0901EB6F060E69
:10191800EC6FF4EC06F00001D9510E0A1BE1310E10
:101928000901F36F060EF46F340EF56F010EF66FB2
:10193800100EF76F000EF86F50EC01F0010E060163
:10194800A56FB4C9EAF9590E0901EB6F060EEC6FE1
:10195800F4EC06F00001D9510F0A1BE1310E090120
:10196800F36F060EF46F750EF56F010EF66F100E1D
:10197800F76F000EF86F50EC01F0010E0601A56F2D
:10198800BDC9EAF9590E0901EB6F060EEC6FF4ECCC
:1019980006F00001D951100A1DE1310E0901F36F5B
:1019A800060EF46F860EF56F010EF66F100EF76FC8
:1019B800000EF86F50EC01F0010E0601A56FA5C9E5
:1019C800EAF9A6C9EBF9570E0901EC6F060EED6F9F
:1019D80003EC08F00001D951110A12E1310E090196
:1019E800F36F060EF46F530EF56F010EF66F100EBF
:1019F800F76F000EF86F50EC01F0010E0601A56FAD
:101A08000001D951120A33E1310E0901F36F060EB4
:101A1800F46F640EF56F010EF66F100EF76F000E7F
:101A2800F86F50EC01F0010E0601A56F090117517E
:101A3800000A0FE1590EF36F060EF46F530EF56F9F
:101A4800040EF66F070EF76F000EF86F50EC01F0FA
:101A58000ED0590EF36F060EF46F5B0EF56F040E81
:101A6800F66F080EF76F000EF86F50EC01F00001EA
:101A7800D951130A33E1310E0901F36F060EF46FE1
:101A88003A0EF56F040EF66F100EF76F000EF86F32
:101A980050EC01F0010E0601A56F09011551000A6D
:101AA8000FE1590EF36F060EF46F4B0EF56F040E2F
:101AB800F66F070EF76F000EF86F50EC01F00ED0BE
:101AC800590EF36F060EF46F750EF56F040EF66F70
:101AD800080EF76F000EF86F50EC01F00001D951B5
:101AE800140A33E1310E0901F36F060EF46F7E0E0E
:101AF800F56F040EF66F100EF76F000EF86F50ECCE
:101B080001F0010E0601A56F0901A451000A0FE1B9
:101B1800590EF36F060EF46F640EF56F040EF66F30
:101B2800070EF76F000EF86F50EC01F00ED0590E4B
:101B3800F36F060EF46F6C0EF56F040EF66F080E59
:101B4800F76F000EF86F50EC01F00001D951150A3B
:101B580033E1310E0901F36F060EF46FFD0EF56FD8
:101B6800030EF66F100EF76F000EF86F50EC01F0D1
:101B7800010E0601A56F0901BF51000A0FE1590EB8
:101B8800F36F060EF46F0E0EF56F040EF66F070E68
:101B9800F76F000EF86F50EC01F00ED0590EF36F8E
:101BA800060EF46FE30EF56F030EF66F080EF76F6F
:101BB800000EF86F50EC01F00001D951160A1BE134
:101BC800310E0901F36F060EF46FEC0EF56F030E7C
:101BD800F66F100EF76F000EF86F50EC01F0010E63
:101BE8000601A56FB8C9EAF9590E0901EB6F060E8F
:101BF800EC6FF4EC06F00001D951170A12E1310E2E
:101C08000901F36F060EF46F180EF56F040EF66FE8
:101C1800100EF76F000EF86F50EC01F0010E060180
:101C2800A56F0001D951180A12E1310E0901F36FAD
:101C3800060EF46F290EF56F040EF66F100EF76F8F
:101C4800000EF86F50EC01F0010E0601A56F0601B9
:061C5800650ECE6F1200C4
:101C5E00010E0901DC25E96E000EDD21EA6EEECFE4
:101C6E00B2F9DCC9E9FFDDC9EAFFEECFB1F9DE5109
:101C7E00020AD8A485D0030EDC25E96E000EDD2104
:101C8E00EA6EEECF16F9020EDC25E96E000EDD21AE
:101C9E00EA6EEECFB0F9040EDC25E96E000EDD2102
:101CAE00EA6E080EDC25D96E000EDD21DA6EDE50EE
:101CBE00EE24036E046A000E042203C000F004C07A
:101CCE0001F001320032019E01BC018E00C0B5F957
:101CDE00050EDC25E96E000EDD21EA6E090EDC250F
:101CEE00D96E000EDD21DA6EDE50EE24036E046A2C
:101CFE00000E042203C000F004C001F001320032D5
:101D0E00019E01BC018E00C0B3F9060EDC25E96E02
:101D1E00000EDD21EA6E0A0EDC25D96E000EDD21E5
:101D2E00DA6EDE50EE24036E046A000E042203C047
:101D3E0000F004C001F001320032019E01BC018EA0
:101D4E0000C0B7F9070EDC25E96E000EDD21EA6E44
:101D5E000B0EDC25D96E000EDD21DA6EDE50EE2480
:101D6E00036E046A000E042203C000F004C001F0EA
:101D7E0001320032019E01BC018E00C0BEF922D09C
:101D8E00166BB06B040EDC25E96E000EDD21EA6EDB
:101D9E00EECFB5F9050EDC25E96E000EDD21EA6EFB
:101DAE00EECFB3F9060EDC25E96E000EDD21EA6EEC
:101DBE00EECFB7F9070EDC25E96E000EDD21EA6ED7
:0A1DCE00EECFBEF931EC07F0120071
:101DD8000901DC6B140EDC5D4BE2070E006E000E91
:101DE800016EDCC904F0000E056E22EC06F0180E38
:101DF8000026090E0122050E0024E96E000E0120BE
:101E0800EA6EEE50000A32E1070E006E000E016E17
:101E1800DCC904F0000E056E22EC06F0180E002452
:101E2800E96E090E0120EA6EEECF01F00150090AB1
:101E38001DE1070E006E000E016EDCC904F0000EF5
:101E4800056E22EC06F0180E0026090E0122010E7E
:101E58000024E96E000E0120EA6EEECFDDF9EECF28
:101E6800DEF9EECFDFF9EECFE0F902D0DC2BB2D706
:101E7800140EDC5D02E3DC6B05D006010751090195
:0A1E8800DD5DDC6FDCC900F0120024
:101E9200140E0901B26F140EB16F140E166F140EE8
:101EA200B06F070E07017F6F020E0901C06F070EA8
:101EB2000701A26F020E0901B46F070EF36F020E43
:101EC200F46F070EF56F020EF66FC1EC01F00A0E09
:101ED2000901B36F040EB56F0A0EBE6F040EB76F21
:101EE2000C0EBD6FA56BA66BBF6B176B156BB86B3A
:0A1EF200010EA46F31EC07F012009E
:101EFC000901DC51000A04E0DD51000A01E002D0C6
:101F0C00F28801D0F298DCC9F5F6DDC995F612001D
:101F1C000901DC51010A17E1DDB102D0829201D036
:101F2C008282060E0B6E130E0C6EAD0E0D6E0D2E08
:101F3C00FED70C2EFCD70B2EFAD700000000010E9A
:101F4C000801686F81860901DC51020A17E1DDB1D5
:101F5C0002D0829001D08280060E0B6E130E0C6E96
:101F6C00AD0E0D6E0D2EFED70C2EFCD70B2EFAD708
:0E1F7C0000000000010E0801606F8188120055
:101F8A000901DC51010A05E10801616B626B090173
:101F9A00AC91DC51020A05E10801666B676B090125
:041FAA00AC931200E2
:101FAE000901DD6B140EDD5D44E2070E006E000EBE
:101FBE00016EDDC904F0000E056E22EC06F0180E5F
:101FCE000026090E0122050E0024E96E000E0120E6
:101FDE00EA6EEE50000A2BE1070E006E000E016E47
:101FEE00DDC904F0000E056E22EC06F0180E00247A
:101FFE00E96E090E0120EA6EEECF01F00150DC19F8
:10200E0016E0070E006E000E016EDDC904F0000E24
:10201E00056E22EC06F0180E0026090E0122050EA2
:10202E000024E16E000E0120E26E010EE66EDD2B45
:04203E00B9D71200FC
:102042000901DC6B140EDC5D53E2070E006E000E1C
:10205200016EDCC904F0000E056E22EC06F0180ECB
:102062000026090E0122050E0024E96E000E012051
:10207200EA6EEE50000A3AE1070E006E000E016EA3
:10208200DCC904F0000E056E22EC06F0180E0024E6
:10209200E96E090E0120EA6EEECF01F00150090A45
:1020A20025E1070E006E000E016EDCC904F0000E81
:1020B200056E22EC06F0180E0026090E0122010E12
:1020C2000024E96E000E0120EA6EEECFDDF9EECFBC
:1020D200DEF9EECFDFF9EECFE0F9050E0024E16E76
:1020E200000E0120E26E010EE66E02D0DC2BAAD7B2
:1020F200060107510901DD5D016E01C0DCF9140E14
:0C210200015CD8B0DC6BDCC900F01200FE
:10210E000901DC6BDD6BDD51120802E1DC518E083A
:10211E0009E34FEC06F0005201E004D00901DC4B5C
:10212E00DD2BF1D70901120EDD5D02E18F0EDC5DB4
:10213E0003E37B0E006E05D0C580C5A001D0FDD790
:04214E00006A120011
:10215200C26A070EC012C08EDCC900F000360090C1
:10216200003600900050C212C2804AEC06F0C282D1
:10217200C2A201D0FDD7C4CF01F0006AC350001241
:08218200000E0112C2901200D0
:04218A00C5841200F6
:10218E000901D56B83A8D58183AAD583D5C900F063
:02219E0012002D
:1021A0000901D96BDA6BD551010A03E1D651800FD1
:1021B000DA6FD551020A03E1D651C00FDA6FA7DFFB
:1021C0007C0E0901DC6FB3EC09F0800E0901DC6FB5
:1021D000B3EC09F0DAC9DCF9B3EC09F0400E0901FF
:1021E000DC6FB3EC09F00901D951D725E96E000E77
:1021F000D821EA6EEE500A0A10E0D95110080DE31A
:10220000D951D725E96E000ED821EA6EEECFDCF960
:10221000B3EC09F00901D92BE6D7B7DF0D0E0C6E30
:10222000FB0E0D6E0D2EFED70C2EFCD7000000000D
:0222300012009A
:102232000901D96B050ED95D0AE2D951D725E16EA4
:10224200000ED821E26E300EE66ED92BF3D7D951AB
:10225200D725E16E000ED821E26EE66AD907000E9C
:10226200D61902E1000ED5192CE0D951D725DA6F23
:10227200000ED821DB6F0A0E046E000E056ED5C962
:1022820000F0D6C901F0C4EC00F008C000F009C0AB
:1022920001F0300E0026DAC9E1FFDBC9E2FF00C01F
:1022A200E6FFD9070A0E046E000E056ED5C900F0CE
:1022B200D6C901F0C4EC00F000C0D5F901C0D6F9CE
:0422C200CED7120061
:1022C6000901D66B83BA02D0D68101D0D69184B0EB
:1022D60002D0D68301D0D69383B802D0D68501D05A
:1022E600D695050E0501115D02E20901D66B0901BD
:1022F600D651000A22E105011251000A0AE108013D
:10230600F06B0901006B0501126B0901D56B080121
:10231600FF6B05011251010A10E1050E0401A15DD2
:102326000CE30801F06B0901006B0501126B090152
:10233600D56B0801FF6B0501116B0801F051010A0D
:102346000FE10301E2510401A25D0AE3010E080157
:10235600FF6F0401A26B190E0901005DD8A0002BC6
:102366000901D651000A26E005011251010A22E1AF
:102376000801F051000A1EE1020EEC25016E000E66
:10238600ED21026E000EEE21036E000EEF21046EAB
:1023960006010A51041808E10951031805E108511C
:1023A600021802E10751011805E1010E0801F06F5C
:1023B6000401A26B0901D651000A0AE00501125177
:1023C600010A06E10801F051000A02E10901D56B94
:1023D6000901D651000A0FE005011251010A0BE16D
:1023E6000801F051010A07E10901D6510801FF036E
:1023F600F3CFD5F9FF6B0901D651000A12E00501AA
:102406001251000A0EE1D6C9D5F9010E126F07C6A0
:10241600ECF808C6EDF809C6EEF80AC6EFF80401AE
:10242600A16B0901D551000A03E0010E0701356FC2
:06243600D5C900F0120000
:10243C000901D56B050113B103D00901D59102D067
:10244C000901D581050114B103D00901D59302D03E
:10245C000901D5830501136B146B140E0601CE5DB7
:10246C000FE20901D5B104D0A7B502D0D59101D0A6
:10247C00D581D5B304D0A7B102D0D59301D0D583E3
:06248C00D5C900F01200AA
:1024920083A003D083A201D006D004018F51640827
:1024A200D8B08F2B02D004018F6B8F51640805E2E4
:1024B20083B003D0010E006E09D08F51640805E28B
:0E24C20083B203D0020E006E01D0006A120039
:1024D000680E0801BA6F010EBB6FFA0EBC6F090ED1
:1024E000BD6FFF0EB16FFF0EB26F000EB36F000E27
:1024F000B46FFF0EB56FFF0EB66F000EB76F000E14
:10250000B86FFF0EAD6FFF0EAE6F000EAF6F000E17
:10251000B06FAC8A900EAB6E948E949C9EAA03D042
:08252000AECF00F0FBD7120062
:102528000901A7A302D00501102B05011051010ACA
:1025380020E1310E0901F36F060EF46FD00EF56F2E
:10254800040EF66F100EF76F000EF86F50EC01F0E6
:10255800530EF36F060EF46FE00EF56F040EF66F70
:10256800100EF76F000EF86F50EC01F0010E060127
:10257800A56F05011051020A20E1310E0901F36F20
:10258800060EF46FF00EF56F040EF66F100EF76F6F
:10259800000EF86F50EC01F0530EF36F060EF46F57
:1025A800000EF56F050EF66F100EF76F000EF86F40
:1025B80050EC01F0010E0601A56F05011051030A48
:0A25C80003E1640E0601CE6F12005D
:1025D2009DDD7C0E0901DC6FB3EC09F0800E090170
:1025E200DC6FB3EC09F00901D551020A04E1380E9F
:1025F200DC6FB3EC09F00901D551010A04E1340E94
:10260200DC6FB3EC09F0800E0901DC6FB3EC09F06A
:102612000901D551020A04E1390EDC6FB3EC09F06D
:102622000901D551010A04E1350EDC6FB3EC09F062
:10263200800E0901DC6FB3EC09F01C0E0901DC6F9E
:10264200B3EC09F0800E0901DC6FB3EC09F0720EF5
:102652000901DC6FB3EC09F0800E0901DC6FB3EC09
:1026620009F0550E0901DC6FB3EC09F0800E090187
:10267200DC6FB3EC09F06C0E0901DC6FB3EC09F00E
:10268200800E0901DC6FB3EC09F00C0E0901DC6F5E
:10269200B3EC09F0800E0901DC6FB3EC09F0010E16
:1026A2000901DC6FB3EC09F0800E0901DC6FB3ECB9
:1026B20009F0060E0901DC6FB3EC09F0800E090186
:1026C200DC6FB3EC09F0020E0901DC6FB3EC09F028
:0426D2005BDD1200BA
:1026D600949894968B988B9694889486C79EC79C5C
:0626E600380EC66E120062
:1026EC000901D66BD76B3F0ED515026E02C0D5F91A
:1026FC00540ED66F02C000F00032009E0032009ED5
:10270C000032009E0032009E540E0010D66F700EE8
:10271C00D76F0F0E0214006E700E0010D76FF1DC25
:10272C007C0E0901DC6FB3EC09F0800E0901DC6F43
:10273C00B3EC09F0D6C9DCF9B3EC09F0800E090151
:10274C00DC6FB3EC09F0D7C9DCF9B3EC09F017DD99
:10275C000D0E0C6EFB0E0D6E0D2EFED70C2EFCD737
:06276C0000000000120055
:102772000901A7A10BD00001D951000A03E1180EEB
:10278200D96F01D0D907640E0601CE6F0901A7A542
:102792000AD00001D951180A02E1D96B01D0D92B14
:1027A200640E0601CE6F0901A7A303D0660E0601CF
:1027B200CE6F0901A751050A26E1310EF36F060E0D
:1027C200F46FB00EF56F040EF66F100EF76F000E79
:1027D200F86F50EC01F00501106B530E0901F36F15
:1027E200060EF46FC00EF56F040EF66F100EF76F43
:1027F200000EF86F50EC01F0020E0601A66F010EFA
:08280200A56FFA0ECE6F120063
:10280A00010E0401166F0901A7A321D00401166B5A
:10281A000701A16B650E0601CE6F6CEC0AF0000190
:10282A00D951000A14E10901B66B3850000A06E1D1
:10283A00C80E0601CE6F010E0401176F3850010A47
:10284A0006E1C90E0601CE6F010E0401176F0001E1
:10285A00D951000A16E10901A7A108D03850000889
:10286A0005E238066CEC0AF0660ECE6F0901A7A5E0
:10287A0008D0010E385C05E2382A6CEC0AF0660EC4
:10288A00CE6F0001D951010A16E10901A7A108D0AA
:10289A00B251000805E2B2076CEC0AF0660ECE6F80
:1028AA000901A7A508D0FF0EB25D05E2B22B6CECB8
:1028BA000AF0660ECE6F0001D951020A16E109012B
:1028CA00A7A108D01651000805E216076CEC0AF019
:1028DA00660ECE6F0901A7A508D0FF0E165D05E2A8
:1028EA00162B6CEC0AF0660ECE6F0001D951030A62
:1028FA0016E10901A7A108D0B151000805E2B10704
:10290A006CEC0AF0660ECE6F0901A7A508D0FF0E7F
:10291A00B15D05E2B12B6CEC0AF0660ECE6F0001D8
:10292A00D951040A16E10901A7A108D0B05100083B
:10293A0005E2B0076CEC0AF0660ECE6F0901A7A596
:10294A0008D0FF0EB05D05E2B02B6CEC0AF0660E03
:10295A00CE6F0001D951050A16E10901A7A108D0D5
:10296A00B551000805E2B5076CEC0AF0660ECE6FA9
:10297A000901A7A508D0FF0EB55D05E2B52B6CECE1
:10298A000AF0660ECE6F0001D951060A16E1090156
:10299A00A7A108D0B351000805E2B3076CEC0AF00E
:1029AA00660ECE6F0901A7A508D0FF0EB35D05E23A
:1029BA00B32B6CEC0AF0660ECE6F0001D951070AF0
:1029CA0016E10901A7A108D0B751000805E2B70727
:1029DA006CEC0AF0660ECE6F0901A7A508D0FF0EAF
:1029EA00B75D05E2B72B6CEC0AF0660ECE6F0001FC
:1029FA00D951080A16E10901A7A108D0BE51000859
:102A0A0005E2BE076CEC0AF0660ECE6F0901A7A5B7
:102A1A0008D0FF0EBE5D05E2BE2B6CEC0AF0660E16
:102A2A00CE6F0001D951090A22E10901A7A110D0EC
:102A3A00000E006EC251005C02E1C151010808E2B9
:102A4A00010EC15F000EC25B6CEC0AF0660ECE6F1F
:102A5A000901A7A50CD0000EC25D02E10A0EC15DF4
:102A6A0006E2C14BC22B6CEC0AF0660ECE6F000177
:102A7A00D9510A0A22E10901A7A110D0000E006E5D
:102A8A00C451005C02E1C351010808E2010EC35FB0
:102A9A00000EC45B6CEC0AF0660ECE6F0901A7A5A6
:102AAA000CD0000EC45D02E10A0EC35D06E2C34B00
:102ABA00C42B6CEC0AF0660ECE6F0001D9510B0ADA
:102ACA0018E10901A7A109D007017F51000805E211
:102ADA007F076CEC0AF0660ECE6F0901A7A509D034
:102AEA000F0E07017F5D05E27F2B6CEC0AF0660E84
:102AFA00CE6F0001D9510C0A18E10901A7A109D02A
:102B0A000701A251000805E2A2076CEC0AF0660E62
:102B1A00CE6F0901A7A509D00F0E0701A25D05E234
:102B2A00A22B6CEC0AF0660ECE6F0001D9510D0A89
:102B3A0016E10901A7A108D0C051000805E2C007A3
:102B4A006CEC0AF0660ECE6F0901A7A508D00A0E32
:102B5A00C05D05E2C02B6CEC0AF0660ECE6F000178
:102B6A00D9510E0A16E10901A7A108D0B4510008EB
:102B7A0005E2B4076CEC0AF0660ECE6F0901A7A550
:102B8A0008D00A0EB45D05E2B42B6CEC0AF0660EAE
:102B9A00CE6F0001D9510F0A16E10901A7A108D089
:102BAA00BD51000805E2BD076CEC0AF0660ECE6F57
:102BBA000901A7A508D0FF0EBD5D05E2BD2B6CEC8F
:102BCA000AF0660ECE6F0001D951100A22E10901FE
:102BDA00A7A110D0000E006EA651005C02E1A5511B
:102BEA00000808E2010EA55F000EA65B6CEC0AF075
:102BFA00660ECE6F0901A7A50CD0FD0EA65D02E1F7
:102C0A00E80EA55D06E2A54BA62B6CEC0AF0660E53
:102C1A00CE6F0001D951110A22E10601CE6B310EA5
:102C2A000901F36F060EF46F010EF56F090EF66FC8
:102C3A00100EF76F000EF86F50EC01F0010E06014E
:102C4A00A66F0401166B0701A16B010E0601A56FA1
:102C5A00010E0401176F49EC0FF031EC07F0000187
:102C6A00D951120A16E10901A7A108D01751000883
:102C7A0005E217076CEC0AF0660ECE6F0901A7A5EC
:102C8A0008D0010E175D05E2172B6CEC0AF0660EF0
:102C9A00CE6F0001D951130A16E10901A7A108D084
:102CAA001551000805E215076CEC0AF0660ECE6FA6
:102CBA000901A7A508D0010E155D05E2152B6CECDC
:102CCA000AF0660ECE6F0001D951140A16E1090105
:102CDA00A7A108D0A451000805E2A4076CEC0AF0E9
:102CEA00660ECE6F0901A7A508D0010EA45D05E204
:102CFA00A42B6CEC0AF0660ECE6F0001D951150AAE
:102D0A0016E10901A7A108D0BF51000805E2BF07D3
:102D1A006CEC0AF0660ECE6F0901A7A508D0010E69
:102D2A00BF5D05E2BF2B6CEC0AF0660ECE6F0001A8
:102D3A00D951160A1FE10901A7A10CD0B851000800
:102D4A0009E2B807B851090AD8B4B86B6CEC0AF0B2
:102D5A00660ECE6F0901A7A50DD0FF0EB85D0AE277
:102D6A00B82BB851010A02E10A0EB86F6CEC0AF0EE
:102D7A00660ECE6F0001D951170A1CE1670E0601D3
:102D8A00CE6F310E0901F36F060EF46F010EF56F67
:102D9A00090EF66F100EF76F000EF86F50EC01F087
:102DAA000401166B010E0601A66F010EA56F010E36
:102DBA000401176F0001D951180A1DE10601CE6BF3
:102DCA00310E0901F36F060EF46F010EF56F090E4D
:102DDA00F66F100EF76F000EF86F50EC01F0040159
:102DEA00166B010E0601A66F010EA56F00EC09F025
:082DFA00010E0401176F120025
:102E02000901D56BDC6BA9EC10F000C011F901C00F
:102E120012F9010E0901DC6FA9EC10F000C013F9E0
:102E220001C014F906019451000A03E10801616B23
:102E3200626B0601F451000A03E10801666B676BDD
:102E42000601F551000A22E00801A7510901125DAD
:102E520004E10801A6510901115D0AE2FF0E080111
:102E6200625D02E1FA0E615D02E2614B622B0DD0FE
:102E72000801000E006E6251005C02E1615100081F
:102E820004E2010E615F000E625B03D00801616B18
:102E9200626B6251A35D02E16151A25D02E209012E
:102EA200D58106019551000A22E00801A5510901C8
:102EB200145D04E10801A4510901135D0AE2FF0E49
:102EC2000801675D02E1FA0E665D02E2664B672B5E
:102ED2000DD00801000E006E6751005C02E16651E0
:102EE200000804E2010E665F000E675B03D0080172
:102EF200666B676B6751AB5D02E16651AA5D02E2E8
:0A2F02000901D583D5C900F01200C3
:102F0C00838E010E0601736F010E0901DC6F38EC24
:102F1C000AF0005232E0010EDC6F010EDD6F8EEC18
:102F2C000FF00F0E0901DC6F020EDD6F010EDE6F6C
:102F3C00C8EC08F0839C310E0901F36F060EF46F98
:102F4C00420EF56F060EF66F100EF76F000EF86F4F
:102F5C0050EC01F0530EF36F060EF46F830EF56F09
:102F6C00060EF66F100EF76F000EF86F50EC01F0B6
:102F7C00010E0601A56F010EA66F020E0901DC6F92
:102F8C0038EC0AF0005210E0020EDC6F010EDD6F1F
:102F9C008EEC0FF0470E0901DC6F020EDD6F010E97
:102FAC00DE6FC8EC08F0839C0A0E0901DC6F38EC6C
:102FBC000AF0005210E0010E0601946F010E090197
:102FCC00DC6FC5EC0FF0560EDC6F020EDD6F010EE0
:102FDC00DE6FC8EC08F00B0E0901DC6F38EC0AF060
:102FEC00005210E0010E0601F46F020E0901DC6FB5
:102FFC00C5EC0FF0220EDC6F020EDD6F010EDE6FE2
:10300C00C8EC08F0050E0901DC6F38EC0AF0005230
:10301C0011E0010EDC6F95C6DDF97EEC0FF00601B8
:10302C00A76B380E0901DC6F020EDD6F010EDE6F2F
:10303C00C8EC08F0060E0901DC6F38EC0AF00052FF
:10304C0011E0F5C6DCF9010EDD6F7EEC0FF0070127
:10305C00236B700E0901DC6F020EDD6F010EDE6F4B
:10306C00C8EC08F0030E0901DC6F38EC0AF00052D2
:10307C0009E106019451010A04E10901ACA101D056
:10308C0001D012D00601B7A10FD0B791010E0901E2
:10309C00DC6FF1EC08F02F0E0901DC6F030EDD6F15
:1030AC00010EDE6FC8EC08F0040E0901DC6F38EC81
:1030BC000AF0005209E10601F451010A04E1090188
:1030CC00ACA301D001D012D00601B7A30FD0B79397
:1030DC00020E0901DC6FF1EC08F03E0E0901DC6F09
:1030EC00030EDD6F010EDE6FC8EC08F00C0E09014B
:1030FC00DC6F38EC0AF00052D8A4838C1651000A0D
:10310C0005E00501AB51010A01E002D00601B793BD
:10311C00030E0501AA5DD8A09CD00901ADA131D048
:10312C0017532FE0010EDC6FF1EC08F0020E0901D1
:10313C00DC6FF1EC08F00601946BF46B050ECE6FAE
:10314C00040E0901DC6F030EDD6F010EDE6FC8EC9F
:10315C0008F0090E0901DC6FD7EC0FF0310EF36F9C
:10316C00060EF46F3B0EF56F050EF66F100EF76F33
:10317C00000EF86F50EC01F0010E0601A56F010E68
:10318C00A66F0901AB51000A2FE0010EDC6FF1ECC8
:10319C0008F0020E0901DC6FF1EC08F0050E0601D7
:1031AC00CE6F946BF46B150E0901DC6F030EDD6FA3
:1031BC00010EDE6FC8EC08F0090E0901DC6FD7ECCC
:1031CC000FF0310EF36F060EF46F190EF56F050E3E
:1031DC00F66F100EF76F000EF86F50EC01F0010E49
:1031EC000601A56F010EA66F0901AE51010A31E16E
:1031FC0015532FE0010EDC6FF1EC08F0020E090103
:10320C00DC6FF1EC08F0050E0601CE6F946BF46BDD
:10321C006B0E0901DC6F030EDD6F010EDE6FC8EC67
:10322C0008F0090E0901DC6FD7EC0FF0310EF36FCB
:10323C00060EF46F4C0EF56F050EF66F100EF76F51
:10324C00000EF86F50EC01F0010E0601A56F010E97
:10325C00A66F0601B751000AD8A4ACD0000E090124
:10326C00A61902E1000EA51918E0A55106010725C3
:10327C000901DC6FA651060108210901DD6F000E62
:10328C00060109210901DE6F000E06010A21090160
:10329C00DF6F090EE06FC4EC09F0A45371E0010E6E
:1032AC00DC6FDD6B8EEC0FF0020E0901DC6FDD6B59
:1032BC008EEC0FF0010E0901DC6F95C6DDF97EEC8A
:1032CC000FF00601946BA76BF5C6DCF9010E090132
:1032DC00DD6F7EEC0FF00601F46B0701236B010E22
:1032EC00060107250901DC6F000E06010821090102
:1032FC00DD6F000E060109210901DE6F000E0601CB
:10330C000A210901DF6F030EE06FC4EC09F0010E16
:10331C00060107250901DC6F000E060108210901D1
:10332C00DD6F000E060109210901DE6F000E06019A
:10333C000A210901DF6F040EE06FC4EC09F0010EE5
:10334C00060107250901DC6F000E060108210901A1
:10335C00DD6F000E060109210901DE6F000E06016A
:10336C000A210901DF6F010EDC27000EDD23DE23AD
:10337C00DF230D0EE06FC4EC09F00601B7851AD0FF
:10338C000601010E07250901DC6F000E060108215C
:10339C000901DD6F000E060109210901DE6F000E27
:1033AC0006010A210901DF6F0D0EE06FC4EC09F074
:1033BC000601B7850D0E0901DC6F38EC0AF00052DE
:1033CC002BE0020E0601CE6F1C6B066B090E090179
:1033DC00DC6FD7EC0FF0310EF36F060EF46F0B0EA3
:1033EC00F56F060EF66F100EF76F000EF86F50ECBF
:1033FC0001F0530EF36F060EF46F830EF56F060E8D
:10340C00F66F100EF76F000EF86F50EC01F0010E16
:10341C000601A56F020EA66F0601CE51050A04E047
:10342C00CE51060A01E02ED00901DC6BD7EC0FF06F
:10343C00000EA61902E1000EA51924E0A551060103
:10344C0007250901DC6FA651060108210901DD6F72
:10345C00000E060109210901DE6F000E06010A218A
:10346C000901DF6F090EE06FC4EC09F00601056B72
:10347C00066B800E0901DC6F030EDD6F010EDE6F33
:06348C00C8EC08F012007C
:10349200838E010E0601736F010E0901DC6F38EC99
:1034A2000AF000520EE0010EDC6FDD6B8EEC0FF0C5
:1034B200AC0E0901DC6F050EDD6F010EDE6FC8EC8C
:1034C20008F0020E0901DC6F38EC0AF0005230E01D
:1034D200020EDC6FDD6B8EEC0FF0F60E0901DC6F75
:1034E200050EDD6F010EDE6FC8EC08F0310E09012A
:1034F200F36F060EF46FE50EF56F050EF66F100E04
:10350200F76F000EF86F50EC01F0530EF36F060EDA
:10351200F46F830EF56F060EF66F100EF76F000E46
:10352200F86F50EC01F0010E0601A56F010EA66FB7
:103532000A0E0901DC6F38EC0AF0005210E0010EAD
:103542000601946F010E0901DC6FC5EC0FF0D00E7D
:10355200DC6F050EDD6F010EDE6FC8EC08F00B0E9E
:103562000901DC6F38EC0AF0005210E0010E06018E
:10357200F46F020E0901DC6FC5EC0FF0150EDC6F63
:10358200080EDD6F010EDE6FC8EC08F0050E0901B2
:10359200DC6F38EC0AF0005212E0010EDC6F95C6C7
:1035A200DDF97EEC0FF00601946BA76B060E0901A4
:1035B200DC6F080EDD6F010EDE6FC8EC08F0070E3F
:1035C2000901DC6F38EC0AF0005212E0DC6B95C6A0
:1035D200DDF97EEC0FF00601946B010EA76FF50E7C
:1035E2000901DC6F070EDD6F010EDE6FC8EC08F01B
:1035F200060E0901DC6F38EC0AF0005211E0F5C644
:10360200DCF9010EDD6F7EEC0FF00701236B3C0E3F
:103612000901DC6F080EDD6F010EDE6FC8EC08F0E9
:10362200080E0901DC6F38EC0AF0005211E0F5C611
:10363200DCF9DD6B7EEC0FF0010E0701236F2B0E20
:103642000901DC6F080EDD6F010EDE6FC8EC08F0B9
:10365200030E0901DC6F38EC0AF0005210E0080199
:103662002A91010E0901DC6FF1EC08F0C50E090187
:10367200DC6F070EDD6F010EDE6FC8EC08F0040E82
:103682000901DC6F38EC0AF0005210E008012A93BD
:10369200020E0901DC6FF1EC08F0B80E0901DC6FD3
:1036A200070EDD6F010EDE6FC8EC08F006019451C3
:1036B200010A37E10901ACA134D00601A751000A81
:1036C20030E1010E0901DC6FF1EC08F0020E090194
:1036D200DC6FF1EC08F0060E0601CE6F946BF46B12
:1036E200A70E0901DC6F070EDD6F010EDE6FC8EC5D
:1036F20008F0090E0901DC6FD7EC0FF0310EF36F01
:10370200060EF46F990EF56F050EF66F100EF76F39
:10371200000EF86F50EC01F0010E0601A56F010ECC
:10372200A66F0601F451010A37E10901ACA334D0B6
:1037320007012351000A30E1010E0901DC6FF1ECAF
:1037420008F0020E0901DC6FF1EC08F0060E06012A
:10375200CE6F946BF46BE40E0901DC6F070EDD6F24
:10376200010EDE6FC8EC08F0090E0901DC6FD7EC20
:103772000FF0310EF36F060EF46F990EF56F050E12
:10378200F66F100EF76F000EF86F50EC01F0010E9D
:103792000601A56F010EA66F09011651000A05E088
:1037A2000501AB51010A01E002D008012A93030E80
:1037B2000501AA5DD8A09CD00901ADA131D0010EAE
:1037C200DC6FF1EC08F0020E0901DC6FF1EC08F09D
:1037D2000601946BF46B060ECE6F010E0701E36FC8
:1037E200D20E0901DC6F070EDD6F010EDE6FC8EC31
:1037F20008F00901DC6BD7EC0FF0310EF36F060E07
:10380200F46F3B0EF56F050EF66F100EF76F000E9C
:10381200F86F50EC01F0010E0601A56F010EA66FC4
:103822000901AE51020A31E115532FE0010EDC6F9E
:10383200F1EC08F0020E0901DC6FF1EC08F0060E63
:103842000601CE6F946BF46B4B0E0901DC6F080E10
:10385200DD6F010EDE6FC8EC08F0090E0901DC6FA6
:10386200D7EC0FF0310EF36F060EF46F4C0EF56FBE
:10387200050EF66F100EF76F000EF86F50EC01F0A8
:10388200010E0601A56F010EA66F0901AB51000AD8
:103892002FE0010EDC6FF1EC08F0020E0901DC6F83
:1038A200F1EC08F0060E0601CE6F946BF46B8F0EEE
:1038B2000901DC6F080EDD6F010EDE6FC8EC08F047
:1038C200090E0901DC6FD7EC0FF0310EF36F060E13
:1038D200F46F190EF56F050EF66F100EF76F000EEE
:1038E200F86F50EC01F0010E0601A56F010EA66FF4
:1038F20008012A51000AD8A4A7D00901A453D8B4B8
:1039020089D0010EDC6F010EDD6F8EEC0FF0010E1F
:10391200060107250901DC6F000E060108210901D5
:10392200DD6F000E060109210901DE6F000E06019E
:103932000A210901DF6F0E0EE06FC4EC09F0010EDF
:10394200DC6F95C6DDF97EEC0FF00601946BA76B78
:10395200F5C6DCF9010E0901DD6F7EEC0FF0060100
:10396200F46B0701236B010E060107250901DC6FC9
:10397200000E060108210901DD6F000E0601092172
:103982000901DE6F000E06010A210901DF6F030E35
:10399200E06FC4EC09F0010E060107250901DC6F96
:1039A200000E060108210901DD6F000E0601092142
:1039B2000901DE6F000E06010A210901DF6F010E07
:1039C200DC27000EDD23DE23DF23040EE06FC4ECD0
:1039D20009F0010E060107250901DC6F000E060140
:1039E20008210901DD6F000E060109210901DE6FC0
:1039F200000E06010A210901DF6F010EDC27000E0D
:103A0200DD23DE23DF230D0EE06FC4EC09F0080195
:103A12002A851AD0010E060107250901DC6F000E66
:103A2200060108210901DD6F000E060109210901C5
:103A3200DE6F000E06010A210901DF6F0D0EE06F35
:103A4200C4EC09F008012A850E0E0901DC6F38EC7E
:103A52000AF0005206E0020EDC6F010EDD6F8EEC02
:103A62000FF00D0E0901DC6F38EC0AF000522BE06A
:103A7200010E0601CE6F1C6B066B090E0901DC6F8D
:103A8200D7EC0FF0310EF36F060EF46F7E0EF56F6A
:103A9200080EF66F100EF76F000EF86F50EC01F083
:103AA200530EF36F060EF46F830EF56F060EF66F6C
:103AB200100EF76F000EF86F50EC01F0010E0601C8
:103AC200A56F010EA66F0601CE51050A04E0CE5184
:103AD200060A01E030D00901DC6BD7EC0FF0000ED2
:103AE200A61902E1000EA51926E00601066B0901DE
:103AF200A551060107250901DC6FA651060108211F
:103B02000901DD6F000E060109210901DE6F000EB9
:103B120006010A210901DF6F090EE06FC4EC09F00A
:103B22000601056B690E0901DC6F080EDD6F010EDF
:083B3200DE6FC8EC08F0120080
:103B3A00EBD1838E0901ABA108D0020E0801E66F12
:103B4A000901B62B010E0701356F0901ABA309D094
:103B5A00010E0801E66F030E0901B66F010E070197
:103B6A00356F0601946BF46B07D2020E0901DC6F04
:103B7A00DD6B8EEC0FF0060E060107250901DC6FDE
:103B8A00000E060108210901DD6F000E0601092158
:103B9A000901DE6F000E06010A210901DF6F150E09
:103BAA00E06FC4EC09F0B62BE7D1ACA30CD0060148
:103BBA00F451010A08E1F46B020E0901DC6FF1EC21
:103BCA0008F00901B62B0901150EDC6F38EC0AF072
:103BDA00005203E0010E0601F46FCED1010E090175
:103BEA00DC6FDD6B8EEC0FF0060E0601072509016E
:103BFA00DC6F000E060108210901DD6F000E0601C7
:103C0A0009210901DE6F000E06010A210901DF6F91
:103C1A00140EE06FC4EC09F0B62BACA10CD006016F
:103C2A009451010A08E1946B010E0901DC6FF1EC71
:103C3A0008F00901B62B0901140EDC6F38EC0AF002
:103C4A00005203E0010E0601946F96D107C6E8F808
:103C5A0008C6E9F809C6EAF80AC6EBF8010E09012E
:103C6A00DC6F010EDD6F8EEC0FF0060E06010725E4
:103C7A000901DC6F000E060108210901DD6F000E43
:103C8A00060109210901DE6F000E06010A21090158
:103C9A00DF6F140EE06FC4EC09F0B62B6DD1ACA146
:103CAA001BD006019451010A17E1946B010E090118
:103CBA00DC6FF1EC08F00801E651010A04E10B0E91
:103CCA000901B66F02D00901B62B0801E8510601B5
:103CDA00075D006E00C0DBF8140E0901DC6F38ECDA
:103CEA000AF0005203E0010E0601946F45D107C69F
:103CFA00E8F808C6E9F809C6EAF80AC6EBF8020EB7
:103D0A000901DC6F010EDD6F8EEC0FF0060E060165
:103D1A0007250901DC6F000E060108210901DD6F84
:103D2A00000E060109210901DE6F000E06010A21B3
:103D3A000901DF6F150EE06FC4EC09F0B62B1CD138
:103D4A00ACA313D00601F451010A0FE1F46B020E81
:103D5A000901DC6FF1EC08F00901B62B0801E85102
:103D6A000601075D006E00C0DDF8150E0901DC6F63
:103D7A0038EC0AF0005203E0010E0601F46FFCD0A1
:103D8A0007C6E8F808C6E9F809C6EAF80AC6EBF869
:103D9A00020E0901DC6FDD6B8EEC0FF0060E0601D8
:103DAA0007250901DC6F000E060108210901DD6FF4
:103DBA00000E060109210901DE6F000E06010A2123
:103DCA000901DF6F150EE06FC4EC09F0B62BD4D0F1
:103DDA00ACA313D00601F451010A0FE1F46B020EF1
:103DEA000901DC6FF1EC08F00901B62B0801E85172
:103DFA000601075D006E00C0DCF8150E0901DC6FD4
:103E0A0038EC0AF0005203E0010E0601F46FB4D058
:103E1A0007C6E8F808C6E9F809C6EAF80AC6EBF8D8
:103E2A00010E0901DC6FDD6B8EEC0FF0060E060148
:103E3A0007250901DC6F000E060108210901DD6F63
:103E4A00000E060109210901DE6F000E06010A2192
:103E5A000901DF6F140EE06FC4EC09F0B62B8CD0A9
:103E6A00ACA113D006019451010A0FE1946B010E23
:103E7A000901DC6FF1EC08F00901B62B0801E851E1
:103E8A000601075D006E00C0DAF8140E0901DC6F46
:103E9A0038EC0AF0005203E0010E0601946F6CD070
:103EAA00DA0E0901DC6F080EDD6F40EC08F0DA0E5D
:103EBA00DC6F080EDD6FE6C8DEF92FEC0EF0310E6E
:103ECA000901F36F060EF46F240EF56F070EF66FF5
:103EDA00100EF76F000EF86F50EC01F0530EF36FEF
:103EEA00060EF46F580EF56F070EF66F100EF76F89
:103EFA00000EF86F50EC01F0020E0601A66F010EDB
:103F0A00A56F839ECE6B38D00901B651000AD8B48A
:103F1A0010D6B651010AD8B428D6B651020AD8B476
:103F2A0044D6B651030AD8B459D6B651040AD8B4FD
:103F3A0074D6B651050AD8B489D6B651060AD8B489
:103F4A00AED6B651070AD8B4D2D6B651080AD8B4F2
:103F5A00F7D6B651090AD8B413D7B6510A0AD8B453
:103F6A0037D7B6510B0AD8B453D7B6510C0AD8B4BE
:0A3F7A0077D7B6510D0A94E012004B
:103F8400020E0901D56F839E0601736BECEC0EF0F3
:103F940000500601061921E00701A16BECEC0EF0BC
:103FA40000C006F600C0DCF95E0EDD6F060EDE6FA3
:103FB40050EC0AF0530EF36F060EF46F950EF56F86
:103FC400070EF66F0B0EF76F000EF86F50EC01F052
:103FD400010E0601A56F020EA66F0901AB51000A7E
:103FE40008E1090EDC6F38EC0AF00050010A01E028
:103FF400D4D1B051000A05E00501AB51010A01E03A
:1040040083D00901DC6BD7EC0FF0D55106010725ED
:10401400006E000E0821016E000E0921026E000ED2
:104024000A21036E00C0B9F901C0BAF902C0BBF994
:1040340003C0BCF900C0DCF901C0DDF902C0DEF93F
:1040440003C0DFF9010E0901E06FC4EC09F0B9C93E
:10405400DCF9BAC9DDF9BBC9DEF9BCC9DFF9050E63
:10406400E06FC4EC09F00601A76B060E0725006E8D
:10407400000E0821016E000E0921026E000E0A21B5
:10408400036E0901D5510026000E012202220322EB
:1040940000C0B9F901C0BAF902C0BBF903C0BCF948
:1040A40000C0DCF901C0DDF902C0DEF903C0DFF9AC
:1040B4000A0EE06FC4EC09F0B15106010725006E49
:1040C400000E0821016E000E0921026E000E0A2165
:1040D400036E0901D5510026000E0122022203229B
:1040E40000C0B9F901C0BAF902C0BBF903C0BCF9F8
:1040F40000C0DCF901C0DDF902C0DEF903C0DFF95C
:10410400030EE06FC4EC09F00901B051000AD8B401
:1041140038D10501AB51020AD8A433D1090E0901E3
:10412400DC6FD7EC0FF0D55106010725006E000EA9
:104134000821016E000E0921026E000E0A21036E91
:1041440000C0B9F901C0BAF902C0BBF903C0BCF997
:1041540000C0DCF901C0DDF902C0DEF903C0DFF9FB
:10416400020E0901E06FC4EC09F0B9C9DCF9BAC95F
:10417400DDF9BBC9DEF9BCC9DFF9060EE06FC4EC9A
:1041840009F00601A76B060E0725006E000E082134
:10419400016E000E0921026E000E0A21036E090150
:1041A400D5510026000E01220222032200C0B9F9D3
:1041B40001C0BAF902C0BBF903C0BCF900C0DCF904
:1041C40001C0DDF902C0DEF903C0DFF90B0EE06FB8
:1041D400C4EC09F0B15106010725006E000E082158
:1041E400016E000E0921026E000E0A21036E090100
:1041F400D5510026000E01220222032200C0B9F983
:1042040001C0BAF902C0BBF903C0BCF900C0DCF9B3
:1042140001C0DDF902C0DEF903C0DFF9040EE06F6E
:10422400C4EC09F0BD5106010725006E000E0821FB
:10423400016E000E0921026E000E0A21036E0901AF
:10424400D5510026000E01220222032200C0B9F932
:1042540001C0BAF902C0BBF903C0BCF900C0DCF963
:1042640001C0DDF902C0DEF903C0DFF9010EE06F21
:10427400C4EC09F0BD5106010725006E000E0821AB
:10428400016E000E0921026E000E0A21036E09015F
:10429400D5510026000E01220222032200C0B9F9E2
:1042A40001C0BAF902C0BBF903C0BCF900C0DCF913
:1042B40001C0DDF902C0DEF903C0DFF9050EE06FCD
:1042C400C4EC09F00701236B0901BD510601072560
:1042D400006E000E0821016E000E0921026E000E10
:1042E4000A21036E060E0026000E0122022203227A
:1042F4000901D5510026000E01220222032200C02A
:10430400B9F901C0BAF902C0BBF903C0BCF900C0D5
:10431400DCF901C0DDF902C0DEF903C0DFF90A0EE1
:10432400E06FC4EC09F0B05106010725006E000EE1
:104334000821016E000E0921026E000E0A21036E8F
:104344000901D5510026000E012202220322BD518B
:104354000026000E01220222032200C0B9F901C086
:10436400BAF902C0BBF903C0BCF900C0DCF901C052
:10437400DDF902C0DEF903C0DFF9030EE06FC4EC1F
:1043840009F0030E08012A6F0601946BF46B050112
:10439400AA6B0601056B070ECE6F0901ADA117D0FC
:1043A400000EA61902E1000EA51911E006011C5128
:1043B400000A0DE1010E1C6F010E056F800E09014C
:1043C400DC6F070EDD6F010EDE6FC8EC08F006012E
:1043D4001C51010A15E10901ADB112D0000EA61954
:1043E40002E1000EA5190CE00601056B1C6B690EB9
:1043F4000901DC6F070EDD6F010EDE6FC8EC08F0FB
:024404001200A4
:10440600030E0901D56F839E0601736BECEC0EF06B
:1044160000500601061921E00701A16BECEC0EF035
:1044260000C006F600C0DCF95E0EDD6F060EDE6F1C
:1044360050EC0AF0530EF36F060EF46F8E0EF56F06
:10444600000EF66F0B0EF76F000EF86F50EC01F0D2
:10445600010E0601A56F020EA66F0901AB51000AF7
:1044660004E10701E35301E140D10701E36B838EC9
:10447600010E0601736F0901DC6BD7EC0FF0A45334
:1044860018E0010E060107250901DC6F000E060182
:1044960008210901DD6F000E060109210901DE6F01
:1044A600000E06010A210901DF6F0C0EE06FC4EC55
:1044B60009F0D55106010725006E000E0821016E90
:1044C600000E0921026E000E0A21036E00C0B9F922
:1044D60001C0BAF902C0BBF903C0BCF900C0DCF9DF
:1044E60001C0DDF902C0DEF903C0DFF9010E0901E2
:1044F600E06FC4EC09F0B9C9DCF9BAC9DDF9BBC98A
:10450600DEF9BCC9DFF9050EE06FC4EC09F006015F
:10451600A76B060E0725006E000E0821016E000E21
:104526000921026E000E0A21036E0901D5510026EB
:10453600000E01220222032200C0B9F901C0BAF915
:1045460002C0BBF903C0BCF900C0DCF901C0DDF94B
:1045560002C0DEF903C0DFF90A0EE06FC4EC09F011
:10456600B25106010725006E000E0821016E000EED
:104576000921026E000E0A21036E0901D55100269B
:10458600000E01220222032200C0B9F901C0BAF9C5
:1045960002C0BBF903C0BCF900C0DCF901C0DDF9FB
:1045A60002C0DEF903C0DFF9030EE06FC4EC09F0C8
:1045B6001651000AD8B48DD00501AB51020AD8A411
:1045C60088D00901BD51060107250901DC6F000EDF
:1045D600060108210901DD6F000E06010921090106
:1045E600DE6F000E06010A210901DF6FD551DC27B7
:1045F600000EDD23DE23DF23020EE06FC4EC09F09C
:10460600BD51060107250901DC6F000E06010821D0
:104616000901DD6F000E060109210901DE6F000E9A
:1046260006010A210901DF6FD551DC27000EDD23C3
:10463600DE23DF23060EE06FC4EC09F00701236BCF
:104646000901BD51060107250901DC6F000E0601AF
:1046560008210901DD6F000E060109210901DE6F3F
:10466600000E06010A210901DF6F060EDC27000E87
:10467600DD23DE23DF23D551DC27000EDD23DE23F9
:10468600DF230B0EE06FC4EC09F016510601072577
:104696000901DC6F000E060108210901DD6F000E1D
:1046A600060109210901DE6F000E06010A21090132
:1046B600DF6FBD51DC27000EDD23DE23DF23D5515E
:1046C600DC27000EDD23DE23DF23040EE06FC4ECBF
:1046D60009F0030E0601B76F946BF46B1C6B0501B2
:1046E600AA6B0601056B080ECE6F090E0901DC6F79
:1046F60038EC0AF00050010AD8A4D4D1B051000A0F
:1047060005E00501AB51010A01E083D00901DC6B2C
:10471600D7EC0FF0D55106010725006E000E0821D3
:10472600016E000E0921026E000E0A21036E00C002
:10473600B9F901C0BAF902C0BBF903C0BCF900C09F
:10474600DCF901C0DDF902C0DEF903C0DFF9010EB4
:104756000901E06FC4EC09F0B9C9DCF9BAC9DDF9A1
:10476600BBC9DEF9BCC9DFF9050EE06FC4EC09F080
:104776000601A76B060E0725006E000E0821016EC6
:10478600000E0921026E000E0A21036E0901D551A1
:104796000026000E01220222032200C0B9F901C040
:1047A600BAF902C0BBF903C0BCF900C0DCF901C00C
:1047B600DDF902C0DEF903C0DFF90A0EE06FC4ECD2
:1047C60009F0B15106010725006E000E0821016EA1
:1047D600000E0921026E000E0A21036E0901D55151
:1047E6000026000E01220222032200C0B9F901C0F0
:1047F600BAF902C0BBF903C0BCF900C0DCF901C0BC
:10480600DDF902C0DEF903C0DFF9030EE06FC4EC88
:1048160009F00901B051000AD8B437D10501AB51EE
:10482600020AD8A432D10901DC6BD7EC0FF0D551BE
:1048360006010725006E000E0821016E000E0921F3
:10484600026E000E0A21036E00C0B9F901C0BAF962
:1048560002C0BBF903C0BCF900C0DCF901C0DDF938
:1048660002C0DEF903C0DFF9020E0901E06FC4ECF5
:1048760009F0B9C9DCF9BAC9DDF9BBC9DEF9BCC9A9
:10488600DFF9060EE06FC4EC09F00601A76B060E11
:104896000725006E000E0821016E000E0921026E2A
:1048A600000E0A21036E0901D5510026000E0122D1
:1048B6000222032200C0B9F901C0BAF902C0BBF94D
:1048C60003C0BCF900C0DCF901C0DDF902C0DEF9A5
:1048D60003C0DFF90B0EE06FC4EC09F0B15106011D
:1048E6000725006E000E0821016E000E0921026EDA
:1048F600000E0A21036E0901D5510026000E012281
:104906000222032200C0B9F901C0BAF902C0BBF9FC
:1049160003C0BCF900C0DCF901C0DDF902C0DEF954
:1049260003C0DFF9040EE06FC4EC09F0BD510601C7
:104936000725006E000E0821016E000E0921026E89
:10494600000E0A21036E0901D5510026000E012230
:104956000222032200C0B9F901C0BAF902C0BBF9AC
:1049660003C0BCF900C0DCF901C0DDF902C0DEF904
:1049760003C0DFF9010EE06FC4EC09F0BD5106017A
:104986000725006E000E0821016E000E0921026E39
:10499600000E0A21036E0901D5510026000E0122E0
:1049A6000222032200C0B9F901C0BAF902C0BBF95C
:1049B60003C0BCF900C0DCF901C0DDF902C0DEF9B4
:1049C60003C0DFF9050EE06FC4EC09F00701236BA5
:1049D6000901BD5106010725006E000E0821016E72
:1049E600000E0921026E000E0A21036E060E002635
:1049F600000E0122022203220901D5510026000ED3
:104A060001220222032200C0B9F901C0BAF902C08C
:104A1600BBF903C0BCF900C0DCF901C0DDF902C076
:104A2600DEF903C0DFF90A0EE06FC4EC09F0B051FD
:104A360006010725006E000E0821016E000E0921F1
:104A4600026E000E0A21036E0901D5510026000EE2
:104A5600012202220322BD510026000E012202225B
:104A6600032200C0B9F901C0BAF902C0BBF903C0FC
:104A7600BCF900C0DCF901C0DDF902C0DEF903C0F3
:104A8600DFF9030EE06FC4EC09F0030E08012A6F8C
:104A96000601946BF46B1C6B0501AA6B0601056B92
:104AA600070ECE6F0901ADA117D0000EA61902E1BF
:104AB600000EA51911E006011C51000A0DE1010EB8
:104AC6001C6F010E056F9A0E0901DC6F000EDD6F7B
:104AD600010EDE6FC8EC08F006011C51010A15E153
:104AE6000901ADB112D0000EA61902E1000EA519FA
:104AF6000CE00601056B1C6BEB0E0901DC6F000E6A
:0C4B0600DD6F010EDE6FC8EC08F012003D
:104B1200838E010E0601736F010E0901DC6F38EC02
:104B22000AF000520EE0010EDC6FDD6B8EEC0FF02E
:104B32004D0E0901DC6F030EDD6F010EDE6FC8EC56
:104B420008F0020E0901DC6F38EC0AF0005230E086
:104B5200020EDC6FDD6B8EEC0FF05C0E0901DC6F78
:104B6200030EDD6F010EDE6FC8EC08F0310E090195
:104B7200F36F060EF46FE50EF56F050EF66F100E6D
:104B8200F76F000EF86F50EC01F0530EF36F060E44
:104B9200F46F830EF56F060EF66F100EF76F000EB0
:104BA200F86F50EC01F0010E0601A56F010EA66F21
:104BB2000A0E0901DC6F38EC0AF0005210E0010E17
:104BC2000601946F010E0901DC6FC5EC0FF09D0E1A
:104BD200DC6F020EDD6F010EDE6FC8EC08F00B0E0B
:104BE2000901DC6F38EC0AF0005210E0010E0601F8
:104BF200F46F020E0901DC6FC5EC0FF0B20EDC6F30
:104C0200020EDD6F010EDE6FC8EC08F0050E090121
:104C1200DC6F38EC0AF0005211E0010EDC6F95C631
:104C2200DDF97EEC0FF00601A76B7F0E0901DC6F48
:104C3200020EDD6F010EDE6FC8EC08F0060E0901F0
:104C4200DC6F38EC0AF0005211E0F5C6DCF9010E17
:104C5200DD6F7EEC0FF00701236B8E0E0901DC6F16
:104C6200020EDD6F010EDE6FC8EC08F0030E0901C3
:104C7200DC6F38EC0AF0005209E106019451010A96
:104C820004E10901ACA101D001D012D008012AA18E
:104C92000FD02A91010E0901DC6FF1EC08F0EA0E47
:104CA2000901DC6F020EDD6F010EDE6FC8EC08F049
:104CB200040E0901DC6F38EC0AF0005209E106012A
:104CC200F451010A04E10901ACA301D001D012D0D0
:104CD20008012AA30FD02A93020E0901DC6FF1EC1E
:104CE20008F0F70E0901DC6F020EDD6F010EDE6FB8
:104CF200C8EC08F009011651000A05E00501AB51A4
:104D0200010A01E002D008012A93030E0501AA5DFF
:104D1200D8A09DD00901ADA132D0010EDC6FF1EC1B
:104D220008F0020E0901DC6FF1EC08F00601946B49
:104D3200F46B060ECE6F010E0701E36FC70E090179
:104D4200DC6F020EDD6F010EDE6FC8EC08F0090E9B
:104D52000901DC6FD7EC0FF0310EF36F060EF46F22
:104D62003B0EF56F050EF66F100EF76F000EF86F23
:104D720050EC01F0010E0601A56F010EA66F0901AC
:104D8200AB51000A2FE0010EDC6FF1EC08F0020ECD
:104D92000901DC6FF1EC08F0060E0601CE6F946B90
:104DA200F46BD80E0901DC6F020EDD6F010EDE6FAF
:104DB200C8EC08F0090E0901DC6FD7EC0FF0310ED8
:104DC200F36F060EF46F190EF56F050EF66F100EE7
:104DD200F76F000EF86F50EC01F0010E0601A56F9F
:104DE200010EA66F0901AE51020A31E115532FE0FF
:104DF200010EDC6FF1EC08F0020E0901DC6FF1EC40
:104E020008F0060E0601CE6F946BF46BAF0E09012B
:104E1200DC6F000EDD6F010EDE6FC8EC08F0090ECC
:104E22000901DC6FD7EC0FF0530EF36F060EF46F2F
:104E32004C0EF56F050EF66F100EF76F000EF86F41
:104E420050EC01F0010E0601A56F010EA66F0801DC
:104E52002A51000AD8A4A7D00901A453D8B489D0F2
:104E6200010EDC6F010EDD6F8EEC0FF0010E0601FC
:104E720007250901DC6F000E060108210901DD6F1B
:104E8200000E060109210901DE6F000E06010A214A
:104E92000901DF6F0E0EE06FC4EC09F0010EDC6F4A
:104EA20095C6DDF97EEC0FF00601946BA76BF5C693
:104EB200DCF9010E0901DD6F7EEC0FF00601F46BE7
:104EC2000701236B010E060107250901DC6F000EA5
:104ED200060108210901DD6F000E06010921090101
:104EE200DE6F000E06010A210901DF6F030EE06F7B
:104EF200C4EC09F0010E060107250901DC6F000E62
:104F0200060108210901DD6F000E060109210901D0
:104F1200DE6F000E06010A210901DF6F010EDC2798
:104F2200000EDD23DE23DF23040EE06FC4EC09F064
:104F3200010E060107250901DC6F000E060108219A
:104F42000901DD6F000E060109210901DE6F000E65
:104F520006010A210901DF6F010EDC27000EDD23A5
:104F6200DE23DF230D0EE06FC4EC09F008012A8571
:104F72001AD0010E060107250901DC6F000E060199
:104F820008210901DD6F000E060109210901DE6F0A
:104F9200000E06010A210901DF6F0D0EE06FC4EC5D
:104FA20009F008012A850E0E0901DC6F38EC0AF0BF
:104FB200005206E0020EDC6F010EDD6F8EEC0FF088
:104FC2000D0E0901DC6F38EC0AF000522BE0010EE5
:104FD2000601CE6F1C6B066B090E0901DC6FD7EC64
:104FE2000FF0310EF36F060EF46F7E0EF56F080EA2
:104FF200F66F100EF76F000EF86F50EC01F0530EC3
:10500200F36F060EF46F830EF56F060EF66F100E39
:10501200F76F000EF86F50EC01F0010E0601A56F5C
:10502200010EA66F0601CE51050A04E0CE51060A12
:1050320001E02ED00901DC6BD7EC0FF0000EA619AF
:1050420002E1000EA51924E0A55106010725090178
:10505200DC6FA651060108210901DD6F000E060171
:1050620009210901DE6F000E06010A210901DF6F25
:10507200090EE06FC4EC09F00601056B066BC40E65
:105082000901DC6F000EDD6F010EDE6FC8EC08F067
:0250920012000A
:10509400020E0901D56F839E0601736BECEC0EF0D2
:1050A40000500601061921E00701A16BECEC0EF09B
:1050B40000C006F600C0DCF95E0EDD6F060EDE6F82
:1050C40050EC0AF0530EF36F060EF46FC50EF56F35
:1050D400030EF66F0B0EF76F000EF86F50EC01F035
:1050E400010E0601A56F020EA66F0901AB51000A5D
:1050F40007E1090EDC6F38EC0AF0005201E19BD3A2
:10510400DC6BD7EC0FF0B051000A05E00501AB51A0
:10511400010A01E031D10901D55106010725006ECC
:10512400000E0821016E000E0921026E000E0A21F4
:10513400036E00C0B9F901C0BAF902C0BBF903C0DB
:10514400BCF900C0DCF901C0DDF902C0DEF903C01E
:10515400DFF9010E0901E06FC4EC09F0B751000A50
:1051640010E0B9C9DCF9BAC9DDF9BBC9DEF9BCC9BB
:10517400DFF9070EE06FC4EC09F0010E0601A76F1A
:105184000FD0B9C9DCF9BAC9DDF9BBC9DEF9BCC9AC
:10519400DFF9050E0901E06FC4EC09F00601A76B05
:1051A4000901B75106010725006E000E0821016EA2
:1051B400000E0921026E000E0A21036E060E00265F
:1051C400000E0122022203220901D5510026000EFD
:1051D40001220222032200C0B9F901C0BAF902C0B7
:1051E400BBF903C0BCF900C0DCF901C0DDF902C0A1
:1051F400DEF903C0DFF90A0EE06FC4EC09F0B75121
:1052040006010725006E000E0821016E000E09211B
:10521400026E000E0A21036E0901D5510026000E0C
:1052240001220222032200C0B9F901C0BAF902C066
:10523400BBF903C0BCF900C0DCF901C0DDF902C050
:10524400DEF903C0DFF9050EE06FC4EC09F0BE51CE
:10525400000A2EE0B15106010725006E000E082158
:10526400016E000E0921026E000E0A21036E09016F
:10527400BE51005E000E015A025A035AD55100264F
:10528400000E01220222032200C0B9F901C0BAF9BA
:1052940002C0BBF903C0BCF900C0DCF901C0DDF9F0
:1052A40002C0DEF903C0DFF9070EE06FC4EC09F0B9
:1052B400BF51000A39E0B15106010725006E000E06
:1052C4000821016E000E0921026E000E0A21036EF0
:1052D4000901D5510026000E01220222032200C03A
:1052E400B9F901C0BAF902C0BBF903C0BCF900C0E6
:1052F400DCF901C0DDF902C0DEF903C0DFF9050EF7
:10530400E06FC4EC09F0020EB925DC6F000EBA217F
:10531400DD6F000EBB21DE6F000EBC21DF6F030EBC
:10532400E06FC4EC09F028D0B15106010725006EE6
:10533400000E0821016E000E0921026E000E0A21E2
:10534400036E0901D5510026000E01220222032218
:1053540000C0B9F901C0BAF902C0BBF903C0BCF975
:1053640000C0DCF901C0DDF902C0DEF903C0DFF9D9
:10537400030EE06FC4EC09F00901B051000AD8B47F
:105384004ED20501AB51020AD8A449D20901D55124
:1053940006010725006E000E0821016E000E09218A
:1053A400026E000E0A21036E00C0B9F901C0BAF9F9
:1053B40002C0BBF903C0BCF900C0DCF901C0DDF9CF
:1053C40002C0DEF903C0DFF9020E0901E06FC4EC8C
:1053D40009F0B751000A10E0B9C9DCF9BAC9DDF91E
:1053E400BBC9DEF9BCC9DFF9080EE06FC4EC09F0F3
:1053F400010E0701236F0FD0B9C9DCF9BAC9DDF971
:10540400BBC9DEF9BCC9DFF9060E0901E06FC4ECC3
:1054140009F00701236B0901B75106010725006E46
:10542400000E0821016E000E0921026E000E0A21F1
:10543400036E060E0026000E012202220322090139
:10544400D5510026000E01220222032200C0B9F920
:1054540001C0BAF902C0BBF903C0BCF900C0DCF951
:1054640001C0DDF902C0DEF903C0DFF90B0EE06F05
:10547400C4EC09F0B75106010725006E000E08219F
:10548400016E000E0921026E000E0A21036E09014D
:10549400D5510026000E01220222032200C0B9F9D0
:1054A40001C0BAF902C0BBF903C0BCF900C0DCF901
:1054B40001C0DDF902C0DEF903C0DFF9060EE06FBA
:1054C400C4EC09F0BE51000A2EE0B05106010725D4
:1054D400006E000E0821016E000E0921026E000EFE
:1054E4000A21036E0901BE51005E000E015A025AE0
:1054F400035AD5510026000E01220222032200C0C5
:10550400B9F901C0BAF902C0BBF903C0BCF900C0C3
:10551400DCF901C0DDF902C0DEF903C0DFF9080ED1
:10552400E06FC4EC09F0B05106010725006E000ECF
:105534000821016E000E0921026E000E0A21036E7D
:105544000901D5510026000E01220222032200C0C7
:10555400B9F901C0BAF902C0BBF903C0BCF900C073
:10556400DCF901C0DDF902C0DEF903C0DFF9040E85
:10557400E06FC4EC09F0BD5106010725006E000E72
:105584000821016E000E0921026E000E0A21036E2D
:105594000901D5510026000E01220222032200C077
:1055A400B9F901C0BAF902C0BBF903C0BCF900C023
:1055B400DCF901C0DDF902C0DEF903C0DFF9010E38
:1055C400E06FC4EC09F0B751000A10E0B9C9DCF986
:1055D400BAC9DDF9BBC9DEF9BCC9DFF9070EE06F52
:1055E400C4EC09F0010E0601A76F0FD0B9C9DCF9AC
:1055F400BAC9DDF9BBC9DEF9BCC9DFF9050E090179
:10560400E06FC4EC09F00601A76B0901BD51060166
:105614000725006E000E0821016E000E0921026E9E
:10562400000E0A21036E0901B7510026000E012263
:1056340002220322060E0026000E01220222032269
:10564400D5510026000E01220222032200C0B9F91E
:1056540001C0BAF902C0BBF903C0BCF900C0DCF94F
:1056640001C0DDF902C0DEF903C0DFF90A0EE06F04
:10567400C4EC09F0BD5106010725006E000E082197
:10568400016E000E0921026E000E0A21036E09014B
:10569400B7510026000E012202220322D551002612
:1056A400000E01220222032200C0B9F901C0BAF996
:1056B40002C0BBF903C0BCF900C0DCF901C0DDF9CC
:1056C40002C0DEF903C0DFF9050EE06FC4EC09F097
:1056D400BE51000A34E0BD5106010725006E000EDC
:1056E4000821016E000E0921026E000E0A21036ECC
:1056F4000901B1510026000E012202220322BE51EB
:10570400005E000E015A025A035AD5510026000EBB
:1057140001220222032200C0B9F901C0BAF902C071
:10572400BBF903C0BCF900C0DCF901C0DDF902C05B
:10573400DEF903C0DFF9070EE06FC4EC09F0BF51D6
:10574400000A3FE0B15106010725006E000E082152
:10575400016E000E0921026E000E0A21036E09017A
:10576400BD510026000E012202220322D55100263B
:10577400000E01220222032200C0B9F901C0BAF9C5
:1057840002C0BBF903C0BCF900C0DCF901C0DDF9FB
:1057940002C0DEF903C0DFF9050EE06FC4EC09F0C6
:1057A400020EB925DC6F000EBA21DD6F000EBB219D
:1057B400DE6F000EBC21DF6F030EE06FC4EC09F056
:1057C4002ED0B15106010725006E000E0821016E8E
:1057D400000E0921026E000E0A21036E0901BD515B
:1057E4000026000E012202220322D5510026000EBB
:1057F40001220222032200C0B9F901C0BAF902C091
:10580400BBF903C0BCF900C0DCF901C0DDF902C07A
:10581400DEF903C0DFF9030EE06FC4EC09F0030EF8
:1058240008012A6F0601946BF46B0501AA6B06014B
:10583400056B040ECE6F0901ADA117D0000EA61999
:1058440002E1000EA51911E006011C51000A0DE148
:10585400010E1C6F010E056F990E0901DC6F030E1A
:10586400DD6F010EDE6FC8EC08F006011C51010A61
:1058740064E10901ADB161D0000EA61902E1000E88
:10588400A5195BE0B851000A0DE106011C6B056B1C
:10589400AE0E0901DC6F030EDD6F010EDE6FC8EC86
:1058A40008F04BD021EC10F000C0E1F30601056BC9
:1058B4000901B85106010725006E000E0821016E8A
:1058C400000E0921026E000E0A21036E00C0B9F910
:1058D40001C0BAF902C0BBF903C0BCF900C0DCF9CD
:1058E40001C0DDF902C0DEF903C0DFF9090E0901C8
:1058F400E06FC4EC09F006011C6BB9C9EAF9BAC936
:10590400EBF9BBC9ECF9BCC9EDF9BE0E0901EE6FA8
:10591400080EEF6F76EC06F0D10EDC6F030EDD6F30
:10592400010EDE6FC8EC08F0BE0E0901DC6F080E34
:0C593400DD6F010EDE6FC8EC08F0120001
:0A59400031EC07F00601CE6B1200F7
:10594A006FD2838E0901ABA107D0B62B020E0801D4
:10595A00E76F010E0701356F0901ABA308D0030EEB
:10596A00B66F010E0801E76F010E0701356FB1D25C
:10597A00020E0901DC6FDD6B8EEC0FF0040E0601DE
:10598A0007250901DC6F000E060108210901DD6FF8
:10599A00000E060109210901DE6F000E06010A2127
:1059AA000901DF6F150EE06FC4EC09F0B62B060192
:1059BA00F46B8FD20901ACA30CD00601F451010A91
:1059CA0008E1F46B020E0901DC6FF1EC08F0090141
:1059DA00B62B0901150EDC6F38EC0AF0005203E011
:1059EA00010E0601F46F75D2010E0901DC6FDD6B41
:1059FA008EEC0FF0040E060107250901DC6F000E7C
:105A0A00060108210901DD6F000E060109210901BD
:105A1A00DE6F000E06010A210901DF6F140EE06F26
:105A2A00C4EC09F0B62B0601946B0901ACA10CD0A9
:105A3A0006019451010A08E1946B010E0901DC6F19
:105A4A00F1EC08F00901B62B0901140EDC6F38ECF1
