:0400000015EF3AF0CE
:1000080000C019F001C018F004C017F008C016F0BD
:100018000CC015F0F2A432D00301D52B8088010E54
:100028000501196F190E0301D35D03E3D36BD46B7C
:1000380001D0D32B190E0801BB5D04E3BB6B030190
:10004800D76B02D00801BB2B190E0301D55D11E354
:10005800D56B010E08018A27000E8B238C238D2374
:100068005A53010ED8A4000E5A6F8098010E05014C
:10007800376FF30ED76ECA0ED66EF294F0A017D073
:100088000301D451000A03E1D42BD36B01D0D42B44
:10009800050ED45D0BE3130ED35D07E3D3511508AA
:1000A80004E3010ED86FD46B01D0D46BF090F0A2AA
:1000B8001DD00301D751000A04E1D72B0801BB6BFF
:1000C80002D00301D72B0301050ED75D0EE3130EF3
:1000D8000801BB5D08E3BB51150805E3010E0301E8
:1000E800D96FD76B02D00301D76BF092F2A235D04B
:1000F8000301D62BD651FF0A02E1020ED66F030E7A
:10010800046ED6C300F06BD808C000F00050010A96
:1001180012E10801895306E00601AE5302E0818628
:1001280001D0819608018E5306E00601AD5302E026
:10013800818801D08198030E046ED6C300F04FD891
:1001480008C000F00050000A07E108018953D8A44C
:1001580081868E53D8A48188F29219C000F018C005
:1001680001F017C004F016C008F015C00CF011001B
:10017800F7C9C9FFC7B002D00000FCD7C9CF00F04B
:02018800120063
:0E018A00ACB202D00000FCD7F7C9ADFF1200E6
:10019800086A096A100E0C6E0134083609360450D4
:1001A800085E0550D8A0053C095ED8B007D00450B9
:1001B80008260550D8B0053C0926D89000360136E7
:0601C8000C2EEAD7120024
:1001CE00F250026EF29E0500FF6A0150FE6E005064
:0801DE00FD6E02BEF28E12005C
:1001E600086A080E0C6E003408360450085ED8B053
:0E01F60002D00826D89000360C2EF5D7120045
:100204000901F46B050EF45D0AE2F451F225E16E86
:10021400000EF321E26E200EE66EF42BF3D7F451B8
:10022400F225E16E000EF321E26EE66AF407F45162
:10023400F225F56F000EF321F66F0A0E046E000E20
:10024400056EF0C900F0F1C901F0A4DF08C000F0A8
:1002540009C001F0300E0026F5C9E1FFF6C9E2FF3E
:1002640000C0E6FF0A0E046E000E056EF0C900F031
:10027400F1C901F08FDF00C0F0F901C0F1F9000EFF
:10028400011802E1000E001801E102D0F407CFD7F3
:02029400120056
:10029600C6C8E1FFC7C8E2FFF0C9E6FFC4C800F060
:0802A600C5C801F091DF120050
:1002AE00F2C904F0F3C905F0F0C902F0F1C903F088
:1002BE00F4C900F0F5C901F0010E0901F45F000E5A
:1002CE00F55B005001100FE004C0E9FF05C0EAFF26
:1002DE0002C0E1FF03C0E2FFEECFE6FF024A032AAF
:1002EE00044A052AE5D7F0C900F0F1C901F0120061
:1002FE000B6A0A6A096A086A0E6A033408360450E1
:10030E00085E0550D8A0053C095E0650D8A0063CF4
:10031E000A5E0750D8A0073C0B5EE86AD8A0010E13
:10032E000E5E0336070E0C6E0334083609360A3697
:10033E000B360E36045003A012D0085E0550D8A01E
:10034E00053C095E0650D8A0063C0A5E0750D8A0B0
:10035E00073C0B5EE86AD8A0010E0E5E11D008268F
:10036E000550D8B0053C09260650D8B0063C0A26E2
:10037E000750D8B0073C0B26E86AD8B0010E0E26FF
:10038E0003360C2ED1D70234083609360A360B3610
:10039E000E36045003A012D0085E0550D8A0053CBE
:1003AE00095E0650D8A0063C0A5E0750D8A0073C4E
:1003BE000B5EE86AD8A0010E0E5E11D0082605501D
:1003CE00D8B0053C09260650D8B0063C0A26075080
:1003DE00D8B0073C0B26E86AD8B0010E0E260236BE
:1003EE00070E0C6E0234083609360A360B360E36F8
:1003FE00045002A012D0085E0550D8A0053C095E3C
:10040E000650D8A0063C0A5E0750D8A0073C0B5EEB
:10041E00E86AD8A0010E0E5E11D008260550D8B09D
:10042E00053C09260650D8B0063C0A260750D8B01F
:10043E00073C0B26E86AD8B0010E0E2602360C2EAB
:10044E00D1D70134083609360A360B360E3604502B
:10045E0002A012D0085E0550D8A0053C095E0650D9
:10046E00D8A0063C0A5E0750D8A0073C0B5EE86A8F
:10047E00D8A0010E0E5E11D008260550D8B0053C4E
:10048E0009260650D8B0063C0A260750D8B0073CBD
:10049E000B26E86AD8B0010E0E260136070E0C6E3A
:1004AE000134083609360A360B360E36045001A0D2
:1004BE0012D0085E0550D8A0053C095E0650D8A0A3
:1004CE00063C0A5E0750D8A0073C0B5EE86AD8A02F
:1004DE00010E0E5E11D008260550D8B0053C092637
:1004EE000650D8B0063C0A260750D8B0073C0B265B
:1004FE00E86AD8B0010E0E2601360C2ED1D7003484
:10050E00083609360A360B360E36045001A012D0C4
:10051E00085E0550D8A0053C095E0650D8A0063CE2
:10052E000A5E0750D8A0073C0B5EE86AD8A0010E01
:10053E000E5E11D008260550D8B0053C092606508F
:10054E00D8B0063C0A260750D8B0073C0B26E86AFE
:10055E00D8B0010E0E260036070E0C6E003408368B
:10056E0009360A360B360E36045000A012D0085E3D
:10057E000550D8A0053C095E0650D8A0063C0A5E80
:10058E000750D8A0073C0B5EE86AD8A0010E0E5E9D
:10059E0011D008260550D8B0053C09260650D8B013
:1005AE00063C0A260750D8B0073C0B26E86AD8B09E
:1005BE00010E0E2600360C2ED1D700B00ED00450F0
:1005CE0008260550D8B0053C09260650D8B0063C82
:0C05DE000A260750D8B0073C0B2612007C
:1005EA000901F36B030EF35D0AE2F351F125E16EA3
:1005FA00000EF221E26E200EE66EF32BF3D7F351D2
:10060A00F125E16E000EF221E26EE66AF307F3517C
:10061A00F125F46F000EF221F56F0A0E046EF0C98F
:10062A0000F0DCDD08C000F0300E0026F4C9E1FF5E
:10063A00F5C9E2FF00C0E6FF0A0E046EF0C900F039
:10064A00CDDD00C0F0F90050000A01E102D0F30745
:04065A00DED71200D5
:10065E00A6A202D00000FCD7A69CF1C9AAFFF0C941
:10066E00A9FFF2C9A8FFA69EA684F2CF00F0F29EC3
:10067E00550EA76EAA0EA76EA68200BE02D0F29EDF
:08068E0001D0F28EA6941200C7
:100696004FD009011E6B1F6B7CD0E00E1E6F010E42
:1006A6001F6F77D0EA0E1E6F010E1F6F72D0F40E09
:1006B6001E6F010E1F6F6DD0120E1E6F020E1F6F82
:1006C60068D0260E1E6F020E1F6F63D03A0E1E6F85
:1006D600020E1F6F5ED0580E1E6F020E1F6F59D08E
:1006E600760E1E6F020E1F6F54D08A0E1E6F020EFC
:1006F6001F6F4FD09E0E1E6F020E1F6F4AD0BC0E8C
:100706001E6F020E1F6F45D0EE0E1E6F020E1F6F7C
:1007160040D0200E1E6F030E1F6F3BD0520E1E6F71
:10072600030E1F6F36D0840E1E6F030E1F6F31D05F
:100736000901F051000AADE0F051010AAEE0F051B6
:10074600020AB0E0F051030AB2E0F051040AB4E044
:10075600F051050AB6E0F051060AB8E0F051070A72
:10076600BAE0F051080ABCE0F051090ABEE0F051C7
:100776000A0AC0E0F0510B0AC2E0F0510C0AC4E0CC
:10078600F0510D0AC6E0F0510E0AC8E0F0510F0A0A
:10079600CAE037D0640E206F000E216F53D0F40EDE
:1007A600206F010E216F4ED0E80E206F030E216FD1
:1007B60049D0DC0E206F050E216F44D0D00E206F7D
:1007C600070E216F3FD0C40E206F090E216F3AD05D
:1007D600B80E206F0B0E216F35D0AC0E206F0D0EAC
:1007E600216F30D0A00E206F0F0E216F2BD0940EEC
:1007F600206F110E216F26D0880E206F130E216FE9
:1008060021D0F151000AC6E0F151010AC8E0F151C8
:10081600020ACAE0F151030ACCE0F151040ACEE023
:10082600F151050AD0E0F151060AD2E0F151070A6A
:10083600D4E0F151080AD6E0F151090AD8E0F151A5
:100846000A0ADAE04ED0166B176B7BD0E00E166FF5
:10085600010E176F76D0EA0E166F010E176F71D064
:10086600F40E166F010E176F6CD0120E166F020E75
:10087600176F67D0260E166F020E176F62D03A0EEC
:10088600166F020E176F5DD0580E166F020E176F99
:1008960058D0760E166F020E176F53D08A0E166F4B
:1008A600020E176F4ED09E0E166F020E176F49D0AE
:1008B600BC0E166F020E176F44D0EE0E166F020EA8
:1008C600176F3FD0200E166F030E176F3AD0520ED9
:1008D600166F030E176F35D0840E166F030E176F43
:1008E60030D0F251000AAFE0F251010AAFE0F25106
:1008F600020AB1E0F251030AB3E0F251040AB5E08C
:10090600F251050AB7E0F251060AB9E0F251070AB8
:10091600BBE0F251080ABDE0F251090ABFE0F2510C
:100926000A0AC1E0F2510B0AC3E0F2510C0AC5E013
:10093600F2510D0AC7E0F2510E0AC9E0F2510F0A50
:10094600CBE037D0640E146F000E156F53D0F40E43
:10095600146F010E156F4ED0E80E146F030E156F4F
:1009660049D0DC0E146F050E156F44D0D00E146FEF
:10097600070E156F3FD0C40E146F090E156F3AD0CF
:10098600B80E146F0B0E156F35D0AC0E146F0D0E1E
:10099600156F30D0A00E146F0F0E156F2BD0940E5E
:1009A600146F110E156F26D0880E146F130E156F67
:1009B60021D0F351000AC6E0F351010AC8E0F35111
:1009C600020ACAE0F351030ACCE0F351040ACEE06E
:1009D600F351050AD0E0F351060AD2E0F351070AB3
:1009E600D4E0F351080AD6E0F351090AD8E0F351EE
:0609F6000A0ADAE012001B
:1009FC000901ED6B0A0EED5D0AE2ED51EB25E16E9E
:100A0C00000EEC21E26E300EE66EED2BF3D7ED51BD
:100A1C00EB25E16E000EEC21E26EE66AED07000EAE
:100A2C00006EEA1908E10050E91905E10050E819D7
:100A3C0002E1E751000A3EE0ED51EB25EE6F000EAE
:100A4C00EC21EF6F0A0E046E000E056E066E076E3B
:100A5C00E7C900F0E8C901F0E9C902F0EAC903F0FE
:100A6C0048DC08C000F009C001F00AC002F00BC05D
:100A7C0003F0300E0026EEC9E1FFEFC9E2FF00C023
:100A8C00E6FFED070A0E046E000E056E066E076E8D
:100A9C00E7C900F0E8C901F0E9C902F0EAC903F0BE
:100AAC0028DC00C0E7F901C0E8F902C0E9F903C08D
:060ABC00EAF9B5D71200B3
:100AC2000B6A0A6A096A00500402F4CF09F0F3CFF4
:100AD20008F001500502F4CF0BF0F3CF0AF00050FA
:100AE2000502F3500926F4500A22E86A0B2201504B
:100AF2000402F3500926F4500A22E86A0B2208C0C5
:100B020000F009C001F00AC002F00BC003F01200AD
:100B1200E7C9F0F90901F033F09FE8C9F1F9E9C931
:100B2200F2F962DD010EE715016E0150010A11E1D1
:100B3200030EE825F06F000EE921F16FAC0EF26FA3
:100B4200000EF36F040EF46F000EF56F57EC01F018
:100B520010D0030EE825F06F000EE921F16FB00E00
:100B6200F26F000EF36F040EF46F000EF56F57EC88
:040B720001F012007C
:0A0B7600490E0D6E0D2EFED7120081
:100B80000901EA6BE7C9E9FFE8C9EAFFEECFE9F935
:100B9000E951000A0FE0E9C9F0F94BEC01F0090155
:100BA000EA2BEA51E725E96E000EE821EA6EEECF66
:060BB000E9F9EED7120086
:100BB600010E0901F06F000EF16F13C9F2F94CDD59
:100BC600020E0901F06F000EF16F1AC9F2F944DD49
:100BD600030E0901F06F000EF16F19C9F2F93CDD41
:100BE600040E0901F06F000EF16F18C9F2F934DD39
:100BF600050E0901F06F000EF16F0EC9F2F92CDD3A
:100C0600060E0901F06F000EF16F00C9F2F924DD3E
:100C1600070E0901F06F000EF16FFFC8F2F91CDD37
:100C2600080E0901F06F000EF16F12C9F2F914DD1A
:100C3600090E0901F06F000EF16F11C9F2F90CDD12
:100C46000A0E0901F06F000EF16F10C9F2F904DD0A
:100C56000B0E0901F06F000EF16F0FC9F2F9FCDC03
:100C66000C0E0901F06F000EF16FABC6F2F9F4DC61
:100C76000D0E0901F06F000EF16F22C9F2F9ECDCDE
:100C86000E0E0901F06F000EF16F25C9F2F9E4DCD2
:100C96000F0E0901F06F000EF16F24C9F2F9DCDCCA
:100CA600100E0901F06F000EF16F23C9F2F9D4DCC2
:100CB600110E0901F06F000EF16F1CC9F2F9CCDCC0
:100CC600120E0901F06F000EF16F1BC9F2F9C4DCB8
:100CD600130E0901F06F000EF16FACC6F2F9BCDC21
:100CE600140E0901F06F000EF16F1DC9F2F9B4DCA4
:100CF600ABC6F0F91BC9F1F9ACC6F2F91DC9F3F997
:040D0600C7DC120034
:100D0A00C7B409D01F0EC514016E0150000A03E1D1
:0A0D1A00010E006E01D0006A120005
:100D2400E7C9F0F9E8C9F1F90901F133F033F19FAA
:100D3400E9C9F2F9EAC9F3F902EC01F0010EE71589
:100D4400016EE8C902F0000E0216000E021802E15C
:100D5400010E011811E1050EE925F06F000EEA21DC
:100D6400F16FA40EF26F000EF36F040EF46F000E19
:100D7400F56F57EC01F010D0050EE925F06F000E69
:100D8400EA21F16FA80EF26F000EF36F040EF46FF8
:0A0D9400000EF56F57EC01F012009D
:100D9E000901EA6BE7C9E9FFE8C9EAFFEECFE9F915
:100DAE00E951000A0FE0E9C9F7F9C5EC00F00901B5
:100DBE00EA2BEA51E725E96E000EE821EA6EEECF46
:060DCE00E9F9EED7120066
:100DD400A69CE8C9AAFFE7C9A9FFA69EA680A8CF3A
:040DE40000F0120009
:100DE800D9C9F0F90901F033F09FDAC9F1F9DBC983
:100DF800F2F9F5EC02F0030EDA25F06F000EDB21B4
:100E0800F16F560EF26F080EF36F040EF46F000EBA
:080E1800F56F57EC01F0120028
:100E2000010E0901D925016E000EDA21026E01C002
:100E3000E9FF02C0EAFF0A0EEE24006E01C0E1FFE6
:100E400002C0E2FF00C0E6FF030ED925016E000ECE
:100E5000DA21026E01C0E9FF02C0EAFF0A0EEE24A9
:100E6000006E01C0E1FF02C0E2FF00C0E6FFD9C989
:100E7000E9FFDAC9EAFFEECF00F0D9C9E1FFDAC92C
:100E8000E2FF0A0E0024E66E020ED925016E000E66
:100E9000DA21026E01C0E9FF02C0EAFF0A0EEE2469
:100EA000006E01C0E1FF02C0E2FF00C0E6FF040ED9
:100EB000D925E16E000EDA21E26E040EE66E060E12
:100EC000D925E16E000EDA21E26E040EE66E080E00
:100ED000D925E16E000EDA21E26E040EE66E0A0EEE
:100EE000D925E16E000EDA21E26E040EE66E050EE3
:100EF000D925E16E000EDA21E26E0A0EE66E090EC9
:100F0000D925E16E000EDA21E26E0A0EE66E070EBA
:100F1000D925E16E000EDA21E26E0A0EE66E0B0EA6
:100F2000D925E16E000EDA21E26E0A0EE66E12009D
:100F30000901DE6B140EDE5D6DE2070E006E000E21
:100F4000016EDEC904F0000E056EBBDD360E002614
:100F5000090E0122050E0024E96E000E0120EA6E42
:100F6000EE50010A55E1070E006E000E016EDEC95B
:100F700004F0000E056EA5DD360E0024E16E090EAC
:100F80000120E26EDDC9E6FF070E006E000E016E65
:100F9000DEC904F0000E056E94DD360E0026090E43
:100FA0000122010E0024E16E000E0120E26ED9C97B
:100FB000E6FFDAC9E6FFDBC9E6FFDCC9E6FF070E9C
:100FC000006E000E016EDEC904F0000E056E79DDC4
:100FD000360E0026090E0122050E0024E16E000ED9
:100FE0000120E26EE66A070E006E000E016EDEC999
:100FF00004F0000E056E65DD360E0026090E012296
:10100000060E0024E16E000E0120E26EE66A02D0B8
:06101000DE2B90D7120058
:10101600010E0901D925E96E000EDA21EA6EEECF3E
:1010260013F9D9C9E9FFDAC9EAFFEECF19F9DB519D
:10103600020AD8A485D0030ED925E96E000EDA215E
:10104600EA6EEECF1AF9020ED925E96E000EDA2104
:10105600EA6EEECF18F9040ED925E96E000EDA21F4
:10106600EA6E080ED925D96E000EDA21DA6EDE5048
:10107600EE24036E046A000E042203C000F004C0CE
:1010860001F001320032019E01BC018E00C000F960
:10109600050ED925E96E000EDA21EA6E090ED9256C
:1010A600D96E000EDA21DA6EDE50EE24036E046A83
:1010B600000E042203C000F004C001F00132003229
:1010C600019E01BC018E00C0FFF8060ED925E96E0F
:1010D600000EDA21EA6E0A0ED925D96E000EDA2143
:1010E600DA6EDE50EE24036E046A000E042203C09C
:1010F60000F004C001F001320032019E01BC018EF5
:1011060000C012F9070ED925E96E000EDA21EA6E43
:101116000B0ED925D96E000EDA21DA6EDE50EE24DA
:10112600036E046A000E042203C000F004C001F03E
:1011360001320032019E01BC018E00C011F922D09D
:101146001A6B186B040ED925E96E000EDA21EA6EC9
:10115600EECF00F9050ED925E96E000EDA21EA6E0A
:10116600EECFFFF8060ED925E96E000EDA21EA6EFB
:10117600EECF12F9070ED925E96E000EDA21EA6ED6
:08118600EECF11F915DD120096
:10118E0009010651D91904E1066B010E006E0FD04C
:10119E000751D91904E1076B010E006E08D00851F2
:1011AE00D91904E1086B010E006E01D0006A12001D
:1011BE000901D96B140ED95D48E2070E006E000EC0
:1011CE00016ED9C904F0000E056E74DC360E0026D1
:1011DE00090E0122050E0024E96E000E0120EA6EB2
:1011EE00EE50000A30E1070E006E000E016ED9C9F6
:1011FE0004F0000E056E5EDC360E0024E96E090E5C
:10120E000120EA6EEECF01F00150090A1CE1070E33
:10121E00006E000E016ED9C904F0000E056E4ADC98
:10122E00360E0026090E0122010E0024E96E000E74
:10123E000120EA6EEECFDAF9EECFDBF9EECFDCF974
:10124E00EECFDDF902D0D92BB5D7140ED95D02E35E
:10125E00D96B05D008018A510901DA5DD96FD9C958
:04126E0000F012007A
:101272000901D96BDA6BDA51120802E1D9518E08F1
:1012820008E342DD005201E004D00901D94BDA2B18
:10129200F2D70901120EDA5D02E18F0ED95D03E386
:1012A2007B0E006E05D0C580C5A001D0FDD7006AB7
:0212B200120028
:1012B4000901DB5318E08AC8E7F98BC8E8F98CC840
:1012C400E9F98DC8EAF9DC0EEB6F090EEC6FFEEC60
:1012D40004F0DC0EE76F090EE86F50DCE30EE76FF5
:1012E400060EE86F5ADDD9C9E7F9DAC9E8F955DD20
:1012F4000D0EF76FC5EC00F00A0E0901F76FC5EC8F
:0413040000F01200E3
:10130800C26A070EC012C08ED9C900F0003600901C
:10131800003600900050C212C28029DCC282C2A2EC
:1013280001D0FDD7C4CF01F0006AC3500012000EEF
:061338000112C290120038
:10133E000901DA6B140EDA5D44E2070E006E000E40
:10134E00016EDAC904F0000E056E61EC05F0360E82
:10135E000026090E0122050E0024E96E000E012062
:10136E00EA6EEE50000A2BE1070E006E000E016EC3
:10137E00DAC904F0000E056E61EC05F0360E00249D
:10138E00E96E090E0120EA6EEECF01F00150D91977
:10139E0016E0070E006E000E016EDAC904F0000EA4
:1013AE00056E61EC05F0360E0026090E0122050EC3
:1013BE000024E16E000E0120E26E010EE66EDA2BC5
:0413CE00B9D7120079
:1013D2000901D96B140ED95D53E2070E006E000E9F
:1013E200016ED9C904F0000E056E61EC05F0360EEF
:1013F2000026090E0122050E0024E96E000E0120CE
:10140200EA6EEE50000A3AE1070E006E000E016E1F
:10141200D9C904F0000E056E61EC05F0360E002409
:10142200E96E090E0120EA6EEECF01F00150090AC1
:1014320025E1070E006E000E016ED9C904F0000E00
:10144200056E61EC05F0360E0026090E0122010E32
:101452000024E96E000E0120EA6EEECFDAF9EECF3B
:10146200DBF9EECFDCF9EECFDDF9050E0024E16EFB
:10147200000E0120E26E010EE66E02D0D92BAAD731
:1014820008018A510901DA5D016E01C0D9F9140E11
:0C149200015CD8B0D96BD9C900F0120081
:10149E000901D951010A05E107019D6B9E6B0901F6
:1014AE000A91D951020A05E107019B6B9C6B090158
:0414BE000A9312007B
:1014C200140E0901136F140E196F140E1A6F140EF5
:1014D200186F070E0601AB6F020E09011B6F070E94
:1014E2000601AC6F020E09011D6F070EF06F020EAE
:1014F200F16F070EF26F020EF36F4BEC03F00A0E60
:101502000801FF6F040E0901006F0A0E116F040E2D
:10151200126F0C0E0E6F0F6B106B256B246B236B0F
:0C152200226B010E1C6FDBEC05F01200C8
:10152E000901D951010A03E10801896B819609016C
:0E153E00D951020A03E108018E6B8198120058
:10154C00010E0901E76F000EE86F3EDC00C013F9D5
:10155C00020EE76F000EE86F37DC00C01AF9030EBD
:10156C00E76F000EE86F30DC00C019F9040EE76F6E
:10157C00000EE86F29DC00C018F9050EE76F000EAD
:10158C00E86F22DC00C00EF9060EE76F000EE86F64
:10159C001BDC00C000F9070EE76F000EE86F14DCCF
:1015AC0000C0FFF8080EE76F000EE86F0DDC00C0FE
:1015BC0012F9090EE76F000EE86F06DC00C011F996
:1015CC000A0EE76F000EE86FEAEC06F000C00FF9A8
:1015DC00000E106F0FC910F90F6B0B0EE76F000E9A
:1015EC00E86FEAEC06F000500F13000E10130C0E0F
:1015FC00E76F000EE86FEAEC06F000C0ABF60D0EDC
:10160C00E76F000EE86FEAEC06F000C022F90E0E50
:10161C00E76F000EE86FEAEC06F000C025F90F0E3C
:10162C00E76F000EE86FEAEC06F000C024F9100E2C
:10163C00E76F000EE86FEAEC06F000C023F9110E1C
:10164C00E76F000EE86FEAEC06F000C01CF9120E12
:10165C00E76F000EE86FEAEC06F000C01BF9130E02
:10166C00E76F000EE86FEAEC06F000C0ACF6140E63
:10167C00E76F000EE86FEAEC06F000C01DF9ABC690
:10168C00F0F91BC9F1F9ACC6F2F900C0F3F94BEC57
:04169C0003F0120045
:1016A000020E0501A56F080E0901F06F060EF16F1D
:1016B000C20EF26F070EF36F100EF46F000EF56F8F
:1016C00057EC01F00701C151000A38E1D60E0901BB
:1016D000F06F050EF16FB00EF26F070EF36F100E84
:1016E000F46F000EF56F57EC01F0010E0501F66F77
:1016F00007016751000A0FE1080E0901F06F060E9D
:10170000F16F560EF26F070EF36F100EF46F000EAE
:10171000F56F57EC01F007016751010A0FE1080E60
:101720000901F06F060EF16F450EF26F070EF36FB1
:10173000100EF46F000EF56F57EC01F00701C15168
:10174000010A1BE1D60E0901F06F050EF16F8A0E3A
:10175000F26F070EF36F100EF46F000EF56F57EC7B
:1017600001F0010E0501F66F13C9E7F90E0E09012C
:10177000E86F060EE96F89EC05F00701C151020A16
:101780001BE1D60E0901F06F050EF16F790EF26FB5
:10179000070EF36F100EF46F000EF56F57EC01F0AB
:1017A000010E0501F66F1AC9E7F90E0E0901E86F7F
:1017B000060EE96F89EC05F00701C151030A1BE130
:1017C000D60E0901F06F050EF16F680EF26F070E6D
:1017D000F36F100EF46F000EF56F57EC01F0010E71
:1017E0000501F66F19C9E7F90E0E0901E86F060E3B
:1017F000E96F89EC05F00701C151040A1BE1D60E1F
:101800000901F06F050EF16F9F0EF26F070EF36F77
:10181000100EF46F000EF56F57EC01F0010E05018C
:10182000F66F18C9E7F90E0E0901E86F060EE96FA9
:1018300089EC05F00701C151050A1BE1D60E09012B
:10184000F06F050EF16F340EF26F070EF36F100E8E
:10185000F46F000EF56F57EC01F0010E0501F66F05
:1018600000C9E7F90E0E0901E86F060EE96F89EC71
:1018700005F00701C151060A1BE1D60E0901F06F00
:10188000050EF16FD20EF26F060EF36F100EF46FAD
:10189000000EF56F57EC01F0010E0501F66FFFC861
:1018A000E7F90E0E0901E86F060EE96F89EC05F005
:1018B0000701C151070A1BE1D60E0901F06F050EA1
:1018C000F16F900EF26F020EF36F100EF46F000EB8
:1018D000F56F57EC01F0010E0501F66F12C9E7F93B
:1018E0000E0E0901E86F060EE96F89EC05F007019D
:1018F000C151080A1BE1D60E0901F06F050EF16F08
:10190000A10EF26F020EF36F100EF46F000EF56F62
:1019100057EC01F0010E0501F66F11C9E7F90E0E43
:101920000901E86F060EE96F89EC05F00701C15166
:10193000090A3EE1D60E0901F06F050EF16F780E2F
:10194000F26F020EF36F100EF46F000EF56F57EC8E
:1019500001F0010E0501F66FABC6F0F90B0E09019F
:10196000F16F060EF26FF5EC02F00601AB510708BD
:1019700010E20F0E0901F06F060EF16F890EF26F83
:10198000020EF36F060EF46F000EF56F57EC01F0C8
:101990000FD009010F0EF06F060EF16FC00EF26F3F
:1019A000020EF36F060EF46F000EF56F57EC01F0A8
:1019B0000701C1510A0A3EE1D60E0901F06F050E7A
:1019C000F16FC70EF26F020EF36F100EF46F000E80
:1019D000F56F57EC01F0010E0501F66FACC6F0F99A
:1019E0000B0E0901F16F060EF26FF5EC02F0060125
:1019F000AC51070810E20F0E0901F06F060EF16FEF
:101A0000B20EF26F020EF36F060EF46F000EF56F5A
:101A100057EC01F00FD009010F0EF06F060EF16FB9
:101A2000B90EF26F020EF36F060EF46F000EF56F33
:101A300057EC01F00701C1510B0A1BE1D60E090159
:101A4000F06F050EF16F230EF26F020EF36F100EA2
:101A5000F46F000EF56F57EC01F0010E0501F66F03
:101A60001BC9E7F90E0E0901E86F060EE96F89EC54
:101A700005F00701C1510C0A1BE1D60E0901F06FF8
:101A8000050EF16F340EF26F020EF36F100EF46F4D
:101A9000000EF56F57EC01F0010E0501F66F1DC940
:101AA000E7F90E0E0901E86F060EE96F89EC05F003
:101AB0000701C1510D0A1BE1D60E0901F06F050E99
:101AC000F16F010EF26F020EF36F100EF46F000E45
:101AD000F56F57EC01F0010E0501F66F0EC9E7F93D
:101AE0000E0E0901E86F060EE96F89EC05F007019B
:101AF000C1510E0A1DE1D60E0901F06F050EF16FFE
:101B0000120EF26F020EF36F100EF46F000EF56FEF
:101B100057EC01F0010E0501F66F0FC9E7F910C986
:101B2000E8F90C0E0901E96F060EEA6F92EC06F077
:101B30000701C1510F0A12E1D60E0901F06F050E1F
:101B4000F16F560EF26F020EF36F100EF46F000E6F
:101B5000F56F57EC01F0010E0501F66F0701C15159
:101B6000100A33E1D60E0901F06F050EF16F670E12
:101B7000F26F020EF36F100EF46F000EF56F57EC5C
:101B800001F0010E0501F66F09012451000A0FE171
:101B90000E0EF06F060EF16F450EF26F020EF36F30
:101BA000070EF46F000EF56F57EC01F00ED00E0E1D
:101BB000F06F060EF16F4D0EF26F020EF36F080E0E
:101BC000F46F000EF56F57EC01F00701C151110AD7
:101BD00033E1D60E0901F06F050EF16F900EF26F32
:101BE000030EF36F100EF46F000EF56F57EC01F05B
:101BF000010E0501F66F09012351000A0FE10E0ED7
:101C0000F06F060EF16FA10EF26F030EF36F070E69
:101C1000F46F000EF56F57EC01F00ED00E0EF06F62
:101C2000060EF16F760EF26F030EF36F080EF46F6F
:101C3000000EF56F57EC01F00701C151120A33E1B4
:101C4000D60E0901F06F050EF16F7F0EF26F030ED5
:101C5000F36F100EF46F000EF56F57EC01F0010EEC
:101C60000501F66F09011C51000A0FE10E0EF06F1D
:101C7000060EF16FC20EF26F030EF36F070EF46FD4
:101C8000000EF56F57EC01F00ED00E0EF06F060E41
:101C9000F16FCA0EF26F030EF36F080EF46F000EB1
:101CA000F56F57EC01F00701C151130A33E1D60E6D
:101CB0000901F06F050EF16FA90EF26F030EF36FBD
:101CC000100EF46F000EF56F57EC01F0010E0501D8
:101CD000F66F09012551000A0FE10E0EF06F060E96
:101CE000F16FBA0EF26F030EF36F070EF46F000E72
:101CF000F56F57EC01F00ED00E0EF06F060EF16F7F
:101D0000FA0EF26F020EF36F080EF46F000EF56F0D
:101D100057EC01F00701C151140A1BE1D60E09016D
:101D2000F06F050EF16F030EF26F030EF36F100EDE
:101D3000F46F000EF56F57EC01F0010E0501F66F20
:101D400022C9E7F90E0E0901E86F060EE96F89EC6A
:101D500005F00701C151150A12E1D60E0901F06F15
:101D6000050EF16FD80EF26F020EF36F100EF46FC6
:101D7000000EF56F57EC01F0010E0501F66F07013B
:101D8000C151160A12E1D60E0901F06F050EF16F6E
:101D9000E90EF26F020EF36F100EF46F000EF56F86
:101DA00057EC01F0010E0501F66F650E06015D6F3F
:021DB00012001F
:101DB2000901D951010A17E1DAB102D0829201D0A8
:101DC2008282060E0B6E130E0C6EAD0E0D6E0D2E74
:101DD200FED70C2EFCD70B2EFAD700000000010E06
:101DE2000801896F81860901D951020A17E1DAB126
:101DF20002D0829001D08280060E0B6E130E0C6E02
:101E0200AD0E0D6E0D2EFED70C2EFCD70B2EFAD773
:0E1E120000000000010E08018E6F8188120092
:101E20000901D951000A04E0DA51000A01E002D0A8
:101E3000F28801D0F298D9C9AEF6DAC9ADF612002F
:101E40009E96D9C9C9FFC7A401D0FDD79EB601D0BF
:101E5000FDD7C5BC02D0006A03D0C584020E006E57
:021E600012006E
:041E6200C584120021
:101E660083A003D083A201D006D005017F51640868
:101E7600D8B07F2B02D005017F6B7F51640805E245
:101E860083B003D0010E006E09D07F51640805E2CD
:0E1E960083B203D0020E006E01D0006A12006B
:101EA4000901D26B83A8D28183AAD283D2C900F05C
:021EB40012001A
:101EB6000901D36B83BA02D0D38101D0D39184B008
:101EC60002D0D38301D0D39383B802D0D38501D077
:101ED600D395050E0501395D02E20901D36B0901AF
:101EE600D351000A20E10301EC51000A09E108017F
:101EF600CE6BC96B0301EC6B0901D26B0801C86B91
:101F06000301EC51010A0FE1050E0501385D0BE3F3
:101F16000801CE6BC96B0301EC6B0901D26B08019A
:101F2600C86B0501396B0801CE51010A0FE10301A7
:101F3600ED510501365D0AE3010E0801C86F050182
:101F4600366B190E0801C95DD8A0C92B0901D351FA
:101F5600000A24E00301EC51010A20E10801CE51F8
:101F6600000A1CE1020ECA25016E000ECB21026E8C
:101F7600000ECC21036E000ECD21046E8D51041887
:101F860008E18C51031805E18B51021802E18A51D0
:101F9600011804E1010ECE6F0501366B0901D3511C
:101FA600000A0AE00301EC51010A06E10801CE51DC
:101FB600000A02E10901D26B0901D351000A0FE0C0
:101FC6000301EC51010A0BE10801CE51010A07E1B8
:101FD6000901D3510801C803F3CFD2F9C86B09012F
:101FE600D351000A12E00301EC51000A0EE1D3C9F5
:101FF600D2F9010EEC6F8AC8CAF88BC8CBF88CC828
:10200600CCF88DC8CDF80501386B0901D251000A0C
:0E20160003E0010E0601D16FD2C900F01200E6
:102024000901D66B050ED65D0AE2D651D425E16EC0
:10203400000ED521E26E300EE66ED62BF3D7D651C4
:10204400D425E16E000ED521E26EE66AD607000EB5
:10205400D31902E1000ED2192CE0D651D425D76F42
:10206400000ED521D86F0A0E046E000E056ED2C97B
:1020740000F0D3C901F0CCEC00F008C000F009C0B6
:1020840001F0300E0026D7C9E1FFD8C9E2FF00C035
:10209400E6FFD6070A0E046E000E056ED2C900F0E4
:1020A400D3C901F0CCEC00F000C0D2F901C0D3F9DF
:0420B400CED7120071
:0A20B800DBEC05F006015D6B120081
:1020C2000901D26BD96B84EC09F000C003F901C09D
:1020D20004F9010E0901D96F84EC09F000C001F97D
:1020E20001C002F905019551000A03E107019D6B48
:1020F2009E6B06011951000A03E107019B6B9C6B61
:102102000601AE51000A1FE009011F51045D02E100
:102112001E51035D0AE2FF0E07019E5D02E1FA0E07
:102122009D5D02E29D4B9E2B0DD00701000E006EBD
:102132009E51005C02E19D51000804E2010E9D5F88
:10214200000E9E5B03D007019D6B9E6B9E510901A1
:10215200215D04E107019D510901205DD8A0D281D2
:102162000601AD51000A1FE009011751025D02E1AB
:102172001651015D0AE2FF0E07019C5D02E1FA0EB3
:102182009B5D02E29B4B9C2B0DD00701000E006E63
:102192009C51005C02E19B51000804E2010E9B5F2E
:1021A200000E9C5B03D007019B6B9C6B9C51090149
:1021B200155D04E107019B510901145DD8A0D2838A
:0621C200D2C900F012007A
:1021C8000901D36BD46B3F0ED215026E02C0D2F94F
:1021D800540ED36F02C000F00032009E0032009E01
:1021E8000032009E0032009E540E0010D36F700E15
:1021F800D46F0F0E0214006E700E0010D46F39ECFD
:1022080009F07C0E0901D96F17DE800E0901D96F1C
:1022180013DED3C9D9F910DE800E0901D96F0CDE9F
:10222800D4C9D9F909DE19DE0D0E0C6EFB0E0D6E40
:0E2238000D2EFED70C2EFCD700000000120069
:1022460039EC09F07C0E0901D96FF7DD800E090122
:10225600D96FF3DD0901D251020A03E1380ED96FB5
:10226600ECDD0901D251010A03E1340ED96FE5DD37
:10227600800E0901D96FE1DD0901D251020A03E19D
:10228600390ED96FDADD0901D251010A03E1350EA3
:10229600D96FD3DD800E0901D96FCFDD1C0E090180
:1022A600D96FCBDD800E0901D96FC7DD720E09012A
:1022B600D96FC3DD800E0901D96FBFDD550E090147
:1022C600D96FBBDD800E0901D96FB7DD6C0E090130
:1022D600D96FB3DD800E0901D96FAFDD0C0E090190
:1022E600D96FABDD800E0901D96FA7DD010E09019B
:1022F600D96FA3DD800E0901D96F9FDD060E090196
:10230600D96F9BDD800E0901D96F97DD020E090199
:08231600D96F93DDA3DD120075
:10231E00949894968B988B9694889486C79EC79C17
:06232E00380EC66E12001D
:102334000901D66BD76BD251010A03E1D351800F47
:10234400D76FD251020A03E1D351C00FD76F39ECD2
:1023540009F07C0E0901D96F71DD800E0901D96F76
:102364006DDDD7C9D9F96ADD400E0901D96F66DD83
:102374000901D651D425E96E000ED521EA6EEE503E
:102384000A0A0FE0D65110080CE3D651D425E96EA1
:10239400000ED521EA6EEECFD9F950DD0901D62B16
:1023A400E7D75DDD0D0E0C6EFB0E0D6E0D2EFED708
:0A23B4000C2EFCD700000000120000
:1023BE00010E0301746F090105A323D00301746B91
:1023CE0008015A6B650E06015D6F50EC0BF00701AC
:1023DE00C151000A16E10901266B07016751000A77
:1023EE0006E1C80E06015D6F010E0301756F070150
:1023FE006751010A06E1C90E06015D6F010E030168
:10240E00756F0701C151000A18E1090105A109D034
:10241E0007016751000805E2670750EC0BF0660EE6
:10242E005D6F090105A509D0010E0701675D05E283
:10243E00672B50EC0BF0660E5D6F0701C151010A60
:10244E0016E1090105A108D01351000805E2130792
:10245E0050EC0BF0660E5D6F090105A508D0FF0E5E
:10246E00135D05E2132B50EC0BF0660E5D6F07014A
:10247E00C151020A16E1090105A108D01A5100083E
:10248E0005E21A0750EC0BF0660E5D6F090105A50B
:10249E0008D0FF0E1A5D05E21A2B50EC0BF0660EFB
:1024AE005D6F0701C151030A16E1090105A108D0AC
:1024BE001951000805E2190750EC0BF0660E5D6F1E
:1024CE00090105A508D0FF0E195D05E2192B50EC88
:1024DE000BF0660E5D6F0701C151040A16E109018A
:1024EE0005A108D01851000805E2180750EC0BF0B2
:1024FE00660E5D6F090105A508D0FF0E185D05E299
:10250E00182B50EC0BF0660E5D6F0701C151050ADA
:10251E0016E1090105A108D00051000805E20007E7
:10252E0050EC0BF0660E5D6F090105A508D0FF0E8D
:10253E00005D05E2002B50EC0BF0660E5D6F07019F
:10254E00C151060A18E1090105A109D00801FF5180
:10255E00000805E2FF0750EC0BF0660E5D6F0901F7
:10256E0005A509D0FF0E0801FF5D05E2FF2B50EC1B
:10257E000BF0660E5D6F0701C151070A16E10901E6
:10258E0005A108D01251000805E2120750EC0BF01D
:10259E00660E5D6F090105A508D0FF0E125D05E2FE
:1025AE00122B50EC0BF0660E5D6F0701C151080A3D
:1025BE0016E1090105A108D01151000805E2110725
:1025CE0050EC0BF0660E5D6F090105A508D0FF0EED
:1025DE00115D05E2112B50EC0BF0660E5D6F0701DD
:1025EE00C151090A18E1090105A109D00601AB5133
:1025FE00000805E2AB0750EC0BF0660E5D6F0901AB
:10260E0005A509D00F0E0601AB5D05E2AB2B50EC14
:10261E000BF0660E5D6F0701C1510A0A18E1090140
:10262E0005A109D00601AC51000805E2AC0750EC3B
:10263E000BF0660E5D6F090105A509D00F0E0601A0
:10264E00AC5D05E2AC2B50EC0BF0660E5D6F070136
:10265E00C1510B0A16E1090105A108D01B51000852
:10266E0005E21B0750EC0BF0660E5D6F090105A528
:10267E0008D00A0E1B5D05E21B2B50EC0BF0660E0C
:10268E005D6F0701C1510C0A16E1090105A108D0C1
:10269E001D51000805E21D0750EC0BF0660E5D6F34
:1026AE00090105A508D00A0E1D5D05E21D2B50EC93
:1026BE000BF0660E5D6F0701C1510D0A16E109019F
:1026CE0005A108D00E51000805E20E0750EC0BF0E4
:1026DE00660E5D6F090105A508D0FF0E0E5D05E2C1
:1026EE000E2B50EC0BF0660E5D6F0701C1510E0AFA
:1026FE0022E1090105A110D0000E006E1051005C00
:10270E0002E10F51000808E2010E0F5F000E105B90
:10271E0050EC0BF0660E5D6F090105A50CD0FD0E99
:10272E00105D02E1E80E0F5D06E20F4B102B50EC30
:10273E000BF0660E5D6F0701C1510F0A22E1060113
:10274E005D6BD60E0901F06F050EF16FA60EF26FDE
:10275E00080EF36F100EF46F000EF56F57EC01F0CC
:10276E00010E0501A56F0301746B08015A6B010E72
:10277E000501F66F010E0301756F61EC0AF0DBECDB
:10278E0005F00701C151100A16E1090105A108D093
:10279E002451000805E2240750EC0BF0660E5D6F25
:1027AE00090105A508D0010E245D05E2242B50EC8D
:1027BE000BF0660E5D6F0701C151110A16E109019A
:1027CE0005A108D02351000805E2230750EC0BF0B9
:1027DE00660E5D6F090105A508D0010E235D05E2A9
:1027EE00232B50EC0BF0660E5D6F0701C151120AE0
:1027FE0016E1090105A108D01C51000805E21C07CD
:10280E0050EC0BF0660E5D6F090105A508D0010EA8
:10281E001C5D05E21C2B50EC0BF0660E5D6F070184
:10282E00C151130A16E1090105A108D0255100086E
:10283E0005E2250750EC0BF0660E5D6F090105A54C
:10284E0008D0010E255D05E2252B50EC0BF0660E2F
:10285E005D6F0701C151140A1FE1090105A10CD0DA
:10286E002251000809E222072251090AD8B4226B2C
:10287E0050EC0BF0660E5D6F090105A50DD0FF0E35
:10288E00225D0AE2222B2251010A02E10A0E226F78
:10289E0050EC0BF0660E5D6F0701C151150A1CE17D
:1028AE00670E06015D6FD60E0901F06F050EF16F12
:1028BE00A60EF26F080EF36F100EF46F000EF56F8A
:1028CE0057EC01F00301746B010E0501A56F010EAB
:1028DE00F66F010E0301756F0701C151160A1DE156
:1028EE0006015D6BD60E0901F06F050EF16FA60E97
:1028FE00F26F080EF36F100EF46F000EF56F57ECBB
:10290E0001F00301746B010E0501A56F010EF66F48
:0C291E00A6EC0AF0010E0301756F120018
:10292A006FD2838E090109A107D0262B020E080156
:10293A00F66F010E0601D16F090109A308D0030E33
:10294A00266F010E0801F66F010E0601D16FB1D292
:10295A00020E0901D96FDA6BD9EC0EF0040E0801E8
:10296A008A250901D96F000E08018B210901DA6F46
:10297A00000E08018C210901DB6F000E08018D2170
:10298A000901DC6F150EDD6F98EC07F0262B0601A6
:10299A00196B8FD209010AA30CD006011951010A39
:1029AA0008E1196B020E0901D96F97EC0AF00901C7
:1029BA00262B0901150ED96FC7EC08F0005203E067
:1029CA00010E0601196F75D2010E0901D96FDA6B72
:1029DA00D9EC0EF0040E08018A250901D96F000E00
:1029EA0008018B210901DA6F000E08018C21090107
:1029FA00DB6F000E08018D210901DC6F140EDD6FFB
:102A0A0098EC07F0262B0501956B09010AA10CD059
:102A1A0005019551010A08E1956B010E0901D96F6B
:102A2A0097EC0AF00901262B0901140ED96FC7EC9D
:102A3A0008F0005203E0010E0501956F3AD2090130
:102A4A000951000A19E08AC8ECF88BC8EDF88CC85D
:102A5A00EEF88DC8EFF8010ED96F010EDA6FD9ECD6
:102A6A000EF00901D96BADC6DAF910EC0FF0010EC0
:102A7A000501C46F0901262B1CD20951000A11E075
:102A8A00262B8AC8F7F88BC8F8F88CC8F9F88DC8CD
:102A9A00FAF8010ED96FADC6DAF910EC0FF005019C
:102AAA00C46B07D209010951000A11E0262B8AC812
:102ABA00FBF88BC8FCF88CC8FDF88DC8FEF8D96BFA
:102ACA00ADC6DAF910EC0FF0010E0501C46FF1D1B1
:102ADA0009010951000A26E00801F651020A03E138
:102AEA000901262B03D00901110E266F8AC8F2F8B4
:102AFA008BC8F3F88CC8F4F88DC8F5F8010ED96FB5
:102B0A0097EC0AF00801EC51F25D006E00C0E1F8A2
:102B1A00EC51F75D006E00C0E4F8FB51F25D006E07
:102B2A0000C0E5F8C6D109010951000A19E08AC8AE
:102B3A00ECF88BC8EDF88CC8EEF88DC8EFF8020EE9
:102B4A00D96F010EDA6FD9EC0EF0AEC6D9F90901C8
:102B5A00DA6B10EC0FF0010E06017C6F0901262BCF
:102B6A00A8D10951000A11E0262B8AC8F7F88BC8A8
:102B7A00F8F88CC8F9F88DC8FAF8AEC6D9F9010E7A
:102B8A00DA6F10EC0FF006017C6B93D10901095141
:102B9A00000A11E0262B8AC8FBF88BC8FCF88CC8FF
:102BAA00FDF88DC8FEF8AEC6D9F9DA6B10EC0FF055
:102BBA00010E06017C6F7DD109010951000A1DE051
:102BCA00262B8AC8F2F88BC8F3F88CC8F4F88DC89B
:102BDA00F5F8020ED96F97EC0AF00801EC51F25D94
:102BEA00006E00C0E3F8EC51F75D006E00C0E8F833
:102BFA00FB51F25D006E00C0E9F85BD10901095191
:102C0A00000A18E08AC8ECF88BC8EDF88CC8EEF810
:102C1A008DC8EFF8020ED96FDA6BD9EC0EF0AEC69A
:102C2A00D9F90901DA6B10EC0FF0010E06017C6F7D
:102C3A000901262B3ED10951000A11E0262B8AC828
:102C4A00F7F88BC8F8F88CC8F9F88DC8FAF8AEC648
:102C5A00D9F9010EDA6F10EC0FF006017C6B29D15D
:102C6A0009010951000A11E0262B8AC8FBF88BC812
:102C7A00FCF88CC8FDF88DC8FEF8AEC6D9F9DA6B37
:102C8A0010EC0FF0010E06017C6F13D109010951F6
:102C9A00000A1DE0262B8AC8F2F88BC8F3F88CC804
:102CAA00F4F88DC8F5F8020ED96F97EC0AF008010E
:102CBA00EC51F25D006E00C0E2F8EC51F75D006E77
:102CCA0000C0EAF8FB51F25D006E00C0EBF8F1D0EB
:102CDA0009010951000A18E08AC8ECF88BC8EDF816
:102CEA008CC8EEF88DC8EFF8010ED96FDA6BD9EC03
:102CFA000EF00901D96BADC6DAF910EC0FF0010E2E
:102D0A000501C46F0901262BD4D00951000A11E02C
:102D1A00262B8AC8F7F88BC8F8F88CC8F9F88DC83A
:102D2A00FAF8010ED96FADC6DAF910EC0FF0050109
:102D3A00C46BBFD009010951000A11E0262B8AC8C9
:102D4A00FBF88BC8FCF88CC8FDF88DC8FEF8D96B67
:102D5A00ADC6DAF910EC0FF0010E0501C46FA9D067
:102D6A0009010951000A1DE0262B8AC8F2F88BC80E
:102D7A00F3F88CC8F4F88DC8F5F8010ED96F97EC02
:102D8A000AF00801EC51F25D006E00C0E0F8EC5167
:102D9A00F75D006E00C0E6F8FB51F25D006E00C000
:102DAA00E7F887D0E00E0901D96F080EDA6FF6C886
:102DBA00DBF90BEC08F0D60EF06F050EF16FEE0E94
:102DCA00F26F030EF36F100EF46F000EF56F57ECEF
:102DDA0001F0080EF06F060EF16FDA0EF26F030EB5
:102DEA00F36F100EF46F000EF56F57EC01F0020E40
:102DFA000501A56F010EF66F839E06015D6B59D022
:102E0A0009012651000AD8B48CD52651010AD8B432
:102E1A009FD52651020AD8B4BDD52651030AD8B483
:102E2A00D3D52651040AD8B4F0D52651050AD8B408
:102E3A0006D62651060AD8B420D62651070AD8B48F
:102E4A0031D62651080AD8B443D62651090AD8B42D
:102E5A006AD626510A0AD8B484D626510B0AD8B49F
:102E6A0095D626510C0AD8B4A7D626510D0AD8B43D
:102E7A00C5D626510E0AD8B4DED626510F0AD8B4C2
:102E8A00EFD62651100AD8B401D72651110AD8B460
:102E9A001FD72651120AD8B438D72651130AD8B4E4
:102EAA0049D72651140AD8B45BD72651150AD8B483
:042EBA0079D71200B2
:102EBE008A0E0801C46F010EC56FF70EC66F090E9C
:102ECE00C76FFF0EBC6FFF0EBD6F000EBE6F000E04
:102EDE00BF6FFF0EC06FFF0EC16F000EC26F000EF0
:102EEE00C36FFF0EB66FFF0EB76F000EB86F000EFA
:102EFE00B96FAC8A900EAB6E948E949C9EAA03D042
:082F0E00AECF00F0FBD712006A
:102F16000901D26B0301D8B103D00901D29102D0C5
:102F26000901D2810301D9B103D00901D29302D09C
:102F36000901D2830301D86BD96B140E06015D5DBE
:102F46000FE20901D2B104D005B502D0D29101D069
:102F5600D281D2B304D005B102D0D29301D0D283AC
:062F6600D2C900F01200C8
:102F6C00090105A302D00201002B02010051010A44
:102F7C0020E1D60E0901F06F050EF16F340EF26FE1
:102F8C00030EF36F100EF46F000EF56F57EC01F09B
:102F9C00080EF06F060EF16F440EF26F030EF36F16
:102FAC00100EF46F000EF56F57EC01F0010E0501D9
:102FBC00F66F02010051020A20E1D60E0901F06FF2
:102FCC00050EF16F540EF26F030EF36F100EF46FCB
:102FDC00000EF56F57EC01F0080EF06F060EF16F56
:102FEC00640EF26F030EF36F100EF46F000EF56F9C
:102FFC0057EC01F0010E0501F66F02010051030AB6
:0A300C0003E1640E06015D6F12007F
:10301600838E010E0601AA6F010E0901D96FC7EC56
:1030260008F0005232E0010ED96F010EDA6FD9ECCA
:103036000EF0E70E0901D96F050EDA6F010EDB6F90
:103046005AEC09F0839CD60E0901F06F050EF16F5C
:10305600C50EF26F050EF36F100EF46F000EF56FCE
:1030660057EC01F0080EF06F060EF16FF70EF26FD7
:10307600050EF36F100EF46F000EF56F57EC01F0AE
:10308600010E0501F66F010EA56F020E0901D96F3B
:10309600C7EC08F0005210E0020ED96F010EDA6F8D
:1030A600D9EC0EF0960E0901D96F050EDA6F010EF6
:1030B600DB6F5AEC09F0839C050E0901D96FC7EC4A
:1030C60008F0005212E0010ED96FADC6DAF910EC25
:1030D6000FF00501956BC46BB50E0901D96F050E8E
:1030E600DA6F010EDB6F5AEC09F0070E0901D96F92
:1030F600C7EC08F0005211E0D96BADC6DAF910EC56
:103106000FF0010E0501C46FA60E0901D96F050E59
:10311600DA6F010EDB6F5AEC09F0060E0901D96F62
:10312600C7EC08F0005212E0AEC6D9F9010EDA6F0C
:1031360010EC0FF00601196B7C6B6D0E0901D96F4F
:10314600060EDA6F010EDB6F5AEC09F0080E090164
:10315600D96FC7EC08F0005211E0AEC6D9F9DA6BA8
:1031660010EC0FF0010E06017C6F5E0E0901D96F9F
:10317600060EDA6F010EDB6F5AEC09F00A0E090132
:10318600D96FC7EC08F0005210E0010E0501956FEB
:10319600010E0901D96F4FEC0AF0940ED96F060E95
:1031A600DA6F010EDB6F5AEC09F00B0E0901D96FCD
:1031B600C7EC08F0005210E0010E0601196F020E6E
:1031C6000901D96F4FEC0AF07E0ED96F060EDA6F41
:1031D600010EDB6F5AEC09F0030E0901D96FC7EC3B
:1031E60008F0005210E006017D91010E0901D96F29
:1031F60097EC0AF0290E0901D96F060EDA6F010E57
:10320600DB6F5AEC09F0040E0901D96FC7EC08F020
:10321600005210E006017D93020E0901D96F97EC6A
:103226000AF01A0E0901D96F060EDA6F010EDB6F6E
:103236005AEC09F00C0E0901D96FC7EC08F00052E0
:10324600D8A4838C05019551010A47E109010AA119
:1032560044D00501C451000A40E1010E0901D96FAD
:1032660097EC0AF0020E0901D96F97EC0AF0050EE9
:1032760006015D6F0501956B0601196B490E090183
:10328600D96F060EDA6F010EDB6F5AEC09F0090EE4
:103296000901D96F9FEC09F0D60EF06F050EF16F9C
:1032A600380EF26F060EF36F100EF46F000EF56F08
:1032B60057EC01F0080EF06F060EF16FAF0EF26FCD
:1032C600060EF36F100EF46F000EF56F57EC01F05B
:1032D600010E0501F66F020EA56F06011951010ACE
:1032E60047E109010AA344D006017C51000A40E1E6
:1032F600010E0901D96F97EC0AF0020E0901D96F88
:1033060097EC0AF0050E06015D6F0501956B060147
:10331600196BE70E0901D96F070EDA6F010EDB6F25
:103326005AEC09F0090E0901D96F9FEC09F0D60E87
:10333600F06F050EF16F380EF26F060EF36F100E7A
:10334600F46F000EF56F57EC01F0080EF06F060EE5
:10335600F16FAF0EF26F060EF36F100EF46F000EE4
:10336600F56F57EC01F0010E0501F66F020EA56F21
:1033760009011A51000A05E00701E551010A01E0B9
:1033860002D006017D93030E0801105DD8A0C9D0B6
:1033960009010BA140D024533EE0010ED96F97ECF2
:1033A6000AF0020E0901D96F97EC0AF00501956B38
:1033B6000601196B050E5D6F110E0901D96F080E16
:1033C600DA6F010EDB6F5AEC09F0090E0901D96FAD
:1033D6009FEC09F0D60EF06F050EF16F380EF26F06
:1033E600060EF36F100EF46F000EF56F57EC01F03A
:1033F600080EF06F060EF16F220EF26F080EF36FD5
:10340600100EF46F000EF56F57EC01F0010E05017A
:10341600F66F020EA56F09010951000A3EE0010E82
:10342600D96F97EC0AF0020E0901D96F97EC0AF0F2
:103436000501956B0601196B050E5D6F440E0901BA
:10344600D96F080EDA6F010EDB6F5AEC09F0090E20
:103456000901D96F9FEC09F0D60EF06F050EF16FDA
:10346600380EF26F060EF36F100EF46F000EF56F46
:1034760057EC01F0080EF06F060EF16F5B0EF26F5F
:10348600080EF36F100EF46F000EF56F57EC01F097
:10349600010E0501F66F020EA56F09010C51010A16
:1034A60040E123533EE0010ED96F97EC0AF0020E7D
:1034B6000901D96F97EC0AF00501956B0601196BA6
:1034C600050E5D6F8F0E0901D96F080EDA6F010EBA
:1034D600DB6F5AEC09F0090E0901D96F9FEC09F070
:1034E600D60EF06F050EF16F380EF26F060EF36F03
:1034F600100EF46F000EF56F57EC01F0080EF06F2A
:10350600060EF16F780EF26F080EF36F100EF46F61
:10351600000EF56F57EC01F0010E0501F66F020E75
:10352600A56F06017D51000AD8A48DD009011C5350
:1035360070E0010ED96FDA6BD9EC0EF0020E0901BC
:10354600D96FDA6BD9EC0EF0010E0901D96FADC651
:10355600DAF910EC0FF00501956BC46BAEC6D9F91C
:10356600010E0901DA6F10EC0FF00601196B7C6B86
:10357600010E08018A250901D96F000E08018B2169
:103586000901DA6F000E08018C210901DB6F000EBC
:1035960008018D210901DC6F030EDD6F98EC07F041
:1035A600010E08018A250901D96F000E08018B2139
:1035B6000901DA6F000E08018C210901DB6F000E8C
:1035C60008018D210901DC6F040EDD6F98EC07F010
:1035D600010E08018A250901D96F000E08018B2109
:1035E6000901DA6F000E08018C210901DB6F000E5C
:1035F60008018D210901DC6F010ED927000EDA239F
:10360600DB23DC230D0EDD6F98EC07F006017D85CC
:103616001AD0010E08018A250901D96F000E08018A
:103626008B210901DA6F000E08018C210901DB6F7D
:10363600000E08018D210901DC6F0D0EDD6F98EC7F
:1036460007F006017D850D0E0901D96FC7EC08F05C
:1036560000522DE0020E06015D6F0801556B070151
:10366600E66B090E0901D96F9FEC09F0D60EF06FD3
:10367600050EF16FD30EF26F070EF36F100EF46F97
:10368600000EF56F57EC01F0080EF06F060EF16FA5
:10369600F70EF26F050EF36F100EF46F000EF56F56
:1036A60057EC01F0010E0501F66F020EA56F06013B
:1036B6005D51050A04E05D51060A01E043D00901A7
:1036C600D96B9FEC09F0000E101902E1000E0F19DC
:1036D60039E00F5108018A250901D96F10510801F7
:1036E6008B210901DA6F000E08018C210901DB6FBD
:1036F600000E08018D210901DC6F090EDD6F98ECC3
:1037060007F00701E46B0801556BFB0E0901D96F41
:10371600070EDA6F010EDB6F5AEC09F0080E09018D
:10372600F06F060EF16F330EF26F080EF36F100E88
:10373600F46F000EF56F57EC01F0010E0501F66F00
:06374600020EA56F120047
:10374C00E8D1838E090109A108D0020E0801DB6FB4
:10375C000901262B010E0601D16F090109A309D01D
:10376C00010E0801DB6F030E0901266F010E060125
:10377C00D16F0501956B0601196B03D2020E09017D
:10378C00D96FDA6BD9EC0EF0060E08018A25090107
:10379C00D96F000E08018B210901DA6F000E0801A8
:1037AC008C210901DB6F000E08018D210901DC6FF2
:1037BC00150EDD6F98EC07F0262BE3D10AA30CD085
:1037CC0006011951010A08E1196B020E0901D96FA2
:1037DC0097EC0AF00901262B0901150ED96FC7ECDD
:1037EC0008F0005203E0010E0601196FCAD1010E58
:1037FC000901D96FDA6BD9EC0EF0060E08018A2597
:10380C000901D96F000E08018B210901DA6F000E36
:10381C0008018C210901DB6F000E08018D210901C3
:10382C00DC6F140EDD6F98EC07F0262B0AA10CD080
:10383C0005019551010A08E1956B010E0901D96F3B
:10384C0097EC0AF00901262B0901140ED96FC7EC6D
:10385C0008F0005203E0010E0501956F92D18AC861
:10386C00DCF88BC8DDF88CC8DEF88DC8DFF8010EEB
:10387C000901D96F010EDA6FD9EC0EF0060E0801B2
:10388C008A250901D96F000E08018B210901DA6F15
:10389C00000E08018C210901DB6F000E08018D213F
:1038AC000901DC6F140EDD6F98EC07F0262B69D143
:1038BC000AA11AD005019551010A16E1956B010E6A
:1038CC000901D96F97EC0AF00801DB51010A04E1F8
:1038DC000B0E0901266F02D00901262B0801DC51C1
:1038EC008A5D006E00C0D0F8140E0901D96FC7ECC8
:1038FC0008F0005203E0010E0501956F42D18AC811
:10390C00DCF88BC8DDF88CC8DEF88DC8DFF8020E49
:10391C000901D96F010EDA6FD9EC0EF0060E080111
:10392C008A250901D96F000E08018B210901DA6F74
:10393C00000E08018C210901DB6F000E08018D219E
:10394C000901DC6F150EDD6F98EC07F0262B19D1F1
:10395C000AA312D006011951010A0EE1196B020ECD
:10396C000901D96F97EC0AF00901262B0801DC51EB
:10397C008A5D006E00C0D2F8150E0901D96FC7EC34
:10398C0008F0005203E0010E0601196FFAD08AC844
:10399C00DCF88BC8DDF88CC8DEF88DC8DFF8020EB9
:1039AC000901D96FDA6BD9EC0EF0060E08018A25E5
:1039BC000901D96F000E08018B210901DA6F000E85
:1039CC0008018C210901DB6F000E08018D21090112
:1039DC00DC6F150EDD6F98EC07F0262BD2D00AA306
:1039EC0012D006011951010A0EE1196B020E0901E0
:1039FC00D96F97EC0AF00901262B0801DC518A5D7E
:103A0C00006E00C0D1F8150E0901D96FC7EC08F093
:103A1C00005203E0010E0601196FB3D08AC8DCF81E
:103A2C008BC8DDF88CC8DEF88DC8DFF8010E0901F3
:103A3C00D96FDA6BD9EC0EF0060E08018A25090154
:103A4C00D96F000E08018B210901DA6F000E0801F5
:103A5C008C210901DB6F000E08018D210901DC6F3F
:103A6C00140EDD6F98EC07F0262B8BD00AA112D028
:103A7C0005019551010A0EE1956B010E0901D96FF3
:103A8C0097EC0AF00901262B0801DC518A5D006EC7
:103A9C0000C0CFF8140E0901D96FC7EC08F0005222
:103AAC0003E0010E0501956F6CD0CF0E0901D96FA3
:103ABC00080EDA6F10EC07F0CF0ED96F080EDA6F24
:103ACC00DBC8DBF90BEC08F0D60EF06F050EF16FCE
:103ADC00C00EF26F060EF36F100EF46F000EF56F42
:103AEC0057EC01F0080EF06F060EF16FE60EF26F58
:103AFC00060EF36F100EF46F000EF56F57EC01F01D
:103B0C00020E0501A56F010EF66F839E06015D6B1B
:103B1C0038D009012651000AD8B413D62651010A0F
:103B2C00D8B42CD62651020AD8B448D62651030A4A
:103B3C00D8B45DD62651040AD8B478D62651050AD5
:103B4C00D8B48DD62651060AD8B4B2D62651070A57
:103B5C00D8B4D5D62651080AD8B4FAD62651090AB3
:103B6C00D8B415D726510A0AD8B439D726510B0A1E
:103B7C00D8B454D726510C0AD8B478D726510D0A8C
:043B8C0094E01200AF
:103B9000030E0901D26F839E0601AA6BDFEC08F0C9
:103BA0000050080155191EE05A6BDFEC08F000C008
:103BB00055F800C0D9F9130EDA6F060EDB6FF4EC7E
:103BC00006F0080EF06F060EF16FFA0EF26F000E9F
:103BD000F36F0B0EF46F000EF56F57EC01F0010E52
:103BE0000501F66F09010951000A04E10101EE53D4
:103BF00001E145D10101EE6B838E010E0601AA6F32
:103C00000901D96B9FEC09F01C5318E0010E080163
:103C10008A250901D96F000E08018B210901DA6F8D
:103C2000000E08018C210901DB6F000E08018D21B7
:103C30000901DC6F0C0EDD6F98EC07F0D251080122
:103C40008A25006E000E8B21016E000E8C21026E03
:103C5000000E8D21036E00C032F901C033F902C09D
:103C600034F903C035F900C0D9F901C0DAF902C04E
:103C7000DBF903C0DCF9010E0901DD6F98EC07F0F8
:103C800032C9D9F933C9DAF934C9DBF935C9DCF9F4
:103C9000050EDD6F98EC07F00501C46B060E0801F8
:103CA0008A25006E000E8B21016E000E8C21026EA3
:103CB000000E8D21036E0901D2510026000E012253
:103CC0000222032200C032F901C033F902C034F9E4
:103CD00003C035F900C0D9F901C0DAF902C0DBF937
:103CE00003C0DCF90A0EDD6F98EC07F013510801F0
:103CF0008A25006E000E8B21016E000E8C21026E53
:103D0000000E8D21036E0901D2510026000E012202
:103D10000222032200C032F901C033F902C034F993
:103D200003C035F900C0D9F901C0DAF902C0DBF9E6
:103D300003C0DCF9030EDD6F98EC07F01A51000A9E
:103D4000D8B48DD00701E551020AD8A488D0090162
:103D50000E5108018A250901D96F000E08018B2137
:103D60000901DA6F000E08018C210901DB6F000EDA
:103D700008018D210901DC6FD251D927000EDA2309
:103D8000DB23DC23020EDD6F98EC07F00E510801F7
:103D90008A250901D96F000E08018B210901DA6F0C
:103DA000000E08018C210901DB6F000E08018D2136
:103DB0000901DC6FD251D927000EDA23DB23DC2383
:103DC000060EDD6F98EC07F006017C6B09010E51C1
:103DD00008018A250901D96F000E08018B2109010C
:103DE000DA6F000E08018C210901DB6F000E08015B
:103DF0008D210901DC6F060ED927000EDA23DB23A3
:103E0000DC23D251D927000EDA23DB23DC230B0E6F
:103E1000DD6F98EC07F01A5108018A250901D96F66
:103E2000000E08018B210901DA6F000E08018C21B8
:103E30000901DB6F000E08018D210901DC6F0E51B5
:103E4000D927000EDA23DB23DC23D251D927000E39
:103E5000DA23DB23DC23040EDD6F98EC07F0030E7E
:103E600006017D6F0501956B0601196B0701E66B75
:103E70000801106B0701E46B080E06015D6F090E67
:103E80000901D96FC7EC08F00050010AD8A4D9D1B4
:103E90001851000A05E00701E551010A01E084D04C
:103EA0000901D96B9FEC09F0D25108018A25006EF7
:103EB000000E8B21016E000E8C21026E000E8D21F2
:103EC000036E00C032F901C033F902C034F903C0F7
:103ED00035F900C0D9F901C0DAF902C0DBF903C035
:103EE000DCF9010E0901DD6F98EC07F032C9D9F950
:103EF00033C9DAF934C9DBF935C9DCF9050EDD6FF0
:103F000098EC07F00501C46B060E08018A25006EC7
:103F1000000E8B21016E000E8C21026E000E8D2191
:103F2000036E0901D2510026000E01220222032253
:103F300000C032F901C033F902C034F903C035F9C9
:103F400000C0D9F901C0DAF902C0DBF903C0DCF91D
:103F50000A0EDD6F98EC07F0195108018A25006EF2
:103F6000000E8B21016E000E8C21026E000E8D2141
:103F7000036E0901D2510026000E01220222032203
:103F800000C032F901C033F902C034F903C035F979
:103F900000C0D9F901C0DAF902C0DBF903C0DCF9CD
:103FA000030EDD6F98EC07F009011851000AD8B430
:103FB00038D10701E551020AD8A433D10901D96BE0
:103FC0009FEC09F0D25108018A25006E000E8B216A
:103FD000016E000E8C21026E000E8D21036E00C05A
:103FE00032F901C033F902C034F903C035F900C019
:103FF000D9F901C0DAF902C0DBF903C0DCF9020E1D
:104000000901DD6F98EC07F032C9D9F933C9DAF943
:1040100034C9DBF935C9DCF9060EDD6F98EC07F021
:104020000501C46B060E08018A25006E000E8B2167
:10403000016E000E8C21026E000E8D21036E0901AF
:10404000D2510026000E01220222032200C032F9C2
:1040500001C033F902C034F903C035F900C0D9F901
:1040600001C0DAF902C0DBF903C0DCF90B0EDD6F29
:1040700098EC07F0195108018A25006E000E8B217B
:10408000016E000E8C21026E000E8D21036E09015F
:10409000D2510026000E01220222032200C032F972
:1040A00001C033F902C034F903C035F900C0D9F9B1
:1040B00001C0DAF902C0DBF903C0DCF9040EDD6FE0
:1040C00098EC07F00E5108018A25006E000E8B2136
:1040D000016E000E8C21026E000E8D21036E09010F
:1040E000D2510026000E01220222032200C032F922
:1040F00001C033F902C034F903C035F900C0D9F961
:1041000001C0DAF902C0DBF903C0DCF9010EDD6F92
:1041100098EC07F00E5108018A25006E000E8B21E5
:10412000016E000E8C21026E000E8D21036E0901BE
:10413000D2510026000E01220222032200C032F9D1
:1041400001C033F902C034F903C035F900C0D9F910
:1041500001C0DAF902C0DBF903C0DCF9050EDD6F3E
:1041600098EC07F006017C6B09010E5108018A25C5
:10417000006E000E8B21016E000E8C21026E000E6F
:104180008D21036E060E0026000E0122022203225C
:104190000901D2510026000E01220222032200C092
:1041A00032F901C033F902C034F903C035F900C057
:1041B000D9F901C0DAF902C0DBF903C0DCF90A0E53
:1041C000DD6F98EC07F0185108018A25006E000E8B
:1041D0008B21016E000E8C21026E000E8D21036E6C
:1041E0000901D2510026000E0122022203220E51A3
:1041F0000026000E01220222032200C032F901C073
:1042000033F902C034F903C035F900C0D9F901C04F
:10421000DAF902C0DBF903C0DCF9030EDD6F98ECBC
:1042200007F0030E0701226F0501956B0601196B5C
:104230000701E66B0801106B0701E46B070E06012E
:104240005D6F09010BA117D0000E101902E1000EDD
:104250000F1911E00701E651000A0DE1010EE66FAA
:10426000010EE46F060E0901D96F010EDA6F010E1F
:10427000DB6F5AEC09F00701E651010A15E109016B
:104280000BB112D0000E101902E1000E0F190CE054
:104290000701E46BE66B660E0901D96F010EDA6F58
:0A42A000010EDB6F5AEC09F012006A
:1042AA00020E0901D26F839E0601AA6BDFEC08F0A9
:1042BA000050080155191EE05A6BDFEC08F000C0E7
:1042CA0055F800C0D9F9130EDA6F060EDB6FF4EC5D
:1042DA0006F0080EF06F060EF16FD90EF26F000E9F
:1042EA00F36F0B0EF46F000EF56F57EC01F0010E31
:1042FA000501F66F09010951000A08E1090ED96F93
:10430A00C7EC08F00050010A01E0D8D11851000AA0
:10431A0005E00701E551010A01E084D00901D96BE2
:10432A009FEC09F0D25108018A25006E000E8B21FC
:10433A00016E000E8C21026E000E8D21036E00C0EC
:10434A0032F901C033F902C034F903C035F900C0AB
:10435A00D9F901C0DAF902C0DBF903C0DCF9010EB0
:10436A000901DD6F98EC07F032C9D9F933C9DAF9D6
:10437A0034C9DBF935C9DCF9050EDD6F98EC07F0B5
:10438A000501C46B060E08018A25006E000E8B21FA
:10439A00016E000E8C21026E000E8D21036E090142
:1043AA00D2510026000E01220222032200C032F955
:1043BA0001C033F902C034F903C035F900C0D9F994
:1043CA0001C0DAF902C0DBF903C0DCF90A0EDD6FBD
:1043DA0098EC07F0195108018A25006E000E8B210E
:1043EA00016E000E8C21026E000E8D21036E0901F2
:1043FA00D2510026000E01220222032200C032F905
:10440A0001C033F902C034F903C035F900C0D9F943
:10441A0001C0DAF902C0DBF903C0DCF9030EDD6F73
:10442A0098EC07F009011851000AD8B439D10701EC
:10443A00E551020AD8A434D1090E0901D96F9FECBB
:10444A0009F0D25108018A25006E000E8B21016EF7
:10445A00000E8C21026E000E8D21036E00C032F90F
:10446A0001C033F902C034F903C035F900C0D9F9E3
:10447A0001C0DAF902C0DBF903C0DCF9020E090156
:10448A00DD6F98EC07F032C9D9F933C9DAF934C9C2
:10449A00DBF935C9DCF9060EDD6F98EC07F005018A
:1044AA00C46B060E08018A25006E000E8B21016E70
:1044BA00000E8C21026E000E8D21036E0901D2516D
:1044CA000026000E01220222032200C032F901C096
:1044DA0033F902C034F903C035F900C0D9F901C073
:1044EA00DAF902C0DBF903C0DCF90B0EDD6F98ECD8
:1044FA0007F0195108018A25006E000E8B21016E02
:10450A00000E8C21026E000E8D21036E0901D2511C
:10451A000026000E01220222032200C032F901C045
:10452A0033F902C034F903C035F900C0D9F901C022
:10453A00DAF902C0DBF903C0DCF9040EDD6F98EC8E
:10454A0007F00E5108018A25006E000E8B21016EBC
:10455A00000E8C21026E000E8D21036E0901D251CC
:10456A000026000E01220222032200C032F901C0F5
:10457A0033F902C034F903C035F900C0D9F901C0D2
:10458A00DAF902C0DBF903C0DCF9010EDD6F98EC41
:10459A0007F00E5108018A25006E000E8B21016E6C
:1045AA00000E8C21026E000E8D21036E0901D2517C
:1045BA000026000E01220222032200C032F901C0A5
:1045CA0033F902C034F903C035F900C0D9F901C082
:1045DA00DAF902C0DBF903C0DCF9050EDD6F98ECED
:1045EA0007F006017C6B09010E5108018A25006E4D
:1045FA00000E8B21016E000E8C21026E000E8D21A1
:10460A00036E060E0026000E012202220322090171
:10461A00D2510026000E01220222032200C032F9E2
:10462A0001C033F902C034F903C035F900C0D9F921
:10463A0001C0DAF902C0DBF903C0DCF90A0EDD6F4A
:10464A0098EC07F0185108018A25006E000E8B219C
:10465A00016E000E8C21026E000E8D21036E09017F
:10466A00D2510026000E0122022203220E510026F8
:10467A00000E01220222032200C032F901C033F9DE
:10468A0002C034F903C035F900C0D9F901C0DAF91A
:10469A0002C0DBF903C0DCF9030EDD6F98EC07F00A
:1046AA00030E0701226F0501956B0601196B0801BC
:1046BA00106B0701E46B070E06015D6F09010BA180
:1046CA0017D0000E101902E1000E0F1911E00701B0
:1046DA00E651000A0DE1010EE66F010EE46FE50EE8
:1046EA000901D96F000EDA6F010EDB6F5AEC09F07F
:1046FA000701E651010A15E109010BB112D0000EBA
:10470A00101902E1000E0F190CE00701E46BE66BC9
:10471A00B40E0901D96F000EDA6F010EDB6F5AEC85
:04472A0009F0120080
:10472E00838E010E0601AA6F010E0901D96FC7EC27
:10473E0008F000520EE0010ED96FDA6BD9EC0EF0D4
:10474E00380E0901D96F040EDA6F010EDB6F5AECC9
:10475E0009F0020E0901D96FC7EC08F0005230E0E3
:10476E00020ED96FDA6BD9EC0EF0FF0E0901D96F7C
:10477E00030EDA6F010EDB6F5AEC09F0D60E09014B
:10478E00F06F050EF16F530EF26F000EF36F100EF9
:10479E00F46F000EF56F57EC01F0080EF06F060E79
:1047AE00F16FF70EF26F050EF36F100EF46F000E31
:1047BE00F56F57EC01F0010E0501F66F010EA56FB6
:1047CE000A0E0901D96FC7EC08F0005210E0010E75
:1047DE000501956F010E0901D96F4FEC0AF00E0E0F
:1047EE00D96F040EDA6F010EDB6F5AEC09F00B0E67
:1047FE000901D96FC7EC08F0005210E0010E060156
:10480E00196F020E0901D96F4FEC0AF0630ED96FC2
:10481E00040EDA6F010EDB6F5AEC09F0050E09017A
:10482E00D96FC7EC08F0005211E0010ED96FADC67A
:10483E00DAF910EC0FF00501C46B780E0901D96F8F
:10484E00040EDA6F010EDB6F5AEC09F0060E090149
:10485E00D96FC7EC08F0005211E0AEC6D9F9010EBF
:10486E00DA6F10EC0FF006017C6B470E0901D96F61
:10487E00040EDA6F010EDB6F5AEC09F0030E09011C
:10488E00D96FC7EC08F0005209E105019551010AF4
:10489E0004E109010AA101D001D012D0070122A121
:1048AE000FD02291010E0901D96F97EC0AF0560E26
:1048BE000901D96F040EDA6F010EDB6F5AEC09F0A5
:1048CE00040E0901D96FC7EC08F0005209E1060188
:1048DE001951010A04E109010AA301D001D012D035
:1048EE00070122A30FD02293020E0901D96F97EC74
:1048FE000AF0610E0901D96F050EDA6F010EDB6F3A
:10490E005AEC09F009011A51000A05E00701E551B8
:10491E00010A01E002D007012293030E0801105D87
:10492E00D8A0CCD009010BA141D0010ED96F97ECC4
:10493E000AF0020E0901D96F97EC0AF00501956B8A
:10494E000601196B060E5D6F010E0101EE6F6E0E04
:10495E000901D96F050EDA6F010EDB6F5AEC09F003
:10496E00090E0901D96F9FEC09F0D60EF06F050EF6
:10497E00F16F380EF26F060EF36F100EF46F000E1D
:10498E00F56F57EC01F0080EF06F060EF16F220E68
:10499E00F26F080EF36F100EF46F000EF56F57ECFA
:1049AE0001F0010E0501F66F020EA56F0901095106
:1049BE00000A3FE0010ED96F97EC0AF0020E0901D2
:1049CE00D96F97EC0AF0060E06015D6F0501956B27
:1049DE000601196B3A0E0901D96F050EDA6F010E39
:1049EE00DB6F5AEC09F0090E0901D96F9FEC09F043
:1049FE00D60EF06F050EF16F380EF26F060EF36FD6
:104A0E00100EF46F000EF56F57EC01F0080EF06FFC
:104A1E00060EF16F5B0EF26F080EF36F100EF46F51
:104A2E00000EF56F57EC01F0010E0501F66F020E48
:104A3E00A56F09010C51020A41E123533FE0010E1B
:104A4E00D96F97EC0AF0020E0901D96F97EC0AF0B4
:104A5E00060E06015D6F0501956B0601196B4C0E76
:104A6E000901D96F050EDA6F010EDB6F5AEC09F0F2
:104A7E00090E0901D96F9FEC09F0D60EF06F050EE5
:104A8E00F16F380EF26F060EF36F100EF46F000E0C
:104A9E00F56F57EC01F0080EF06F060EF16F780E01
:104AAE00F26F080EF36F100EF46F000EF56F57ECE9
:104ABE0001F0010E0501F66F020EA56F07012251DE
:104ACE00000AD8A4A6D009011C53D8B488D0010E70
:104ADE00D96F010EDA6FD9EC0EF0010E08018A259E
:104AEE000901D96F000E08018B210901DA6F000E42
:104AFE0008018C210901DB6F000E08018D210901CF
:104B0E00DC6F0E0EDD6F98EC07F0010ED96FADC69F
:104B1E00DAF910EC0FF00501956BC46BAEC6D9F93E
:104B2E00010E0901DA6F10EC0FF00601196B7C6BA8
:104B3E00010E08018A250901D96F000E08018B218B
:104B4E000901DA6F000E08018C210901DB6F000EDE
:104B5E0008018D210901DC6F030EDD6F98EC07F063
:104B6E00010E08018A250901D96F000E08018B215B
:104B7E000901DA6F000E08018C210901DB6F000EAE
:104B8E0008018D210901DC6F010ED927000EDA23F1
:104B9E00DB23DC23040EDD6F98EC07F0010E080119
:104BAE008A250901D96F000E08018B210901DA6FE0
:104BBE00000E08018C210901DB6F000E08018D210A
:104BCE000901DC6F010ED927000EDA23DB23DC236B
:104BDE000D0EDD6F98EC07F0070122851AD0010E3D
:104BEE0008018A250901D96F000E08018B210901E0
:104BFE00DA6F000E08018C210901DB6F000E08012F
:104C0E008D210901DC6F0D0EDD6F98EC07F00701A9
:104C1E0022850E0E0901D96FC7EC08F0005206E08E
:104C2E00020ED96F010EDA6FD9EC0EF00D0E0901DE
:104C3E00D96FC7EC08F000522DE0010E06015D6F32
:104C4E000701E66B0801556B090E0901D96F9FEC40
:104C5E0009F0D60EF06F050EF16F1B0EF26F010EFE
:104C6E00F36F100EF46F000EF56F57EC01F0080E97
:104C7E00F06F060EF16FF70EF26F050EF36F100E5A
:104C8E00F46F000EF56F57EC01F0010E0501F66F93
:104C9E00010EA56F06015D51050A04E05D51060A7D
:104CAE0001E043D00901D96B9FEC09F0000E1019F9
:104CBE0002E1000E0F1939E00F5108018A25090192
:104CCE00D96F105108018B210901DA6F000E08010E
:104CDE008C210901DB6F000E08018D210901DC6FAB
:104CEE00090EDD6F98EC07F00701E46B0801556BB8
:104CFE00800E0901D96F050EDA6F010EDB6F5AECCB
:104D0E0009F0080E0901F06F060EF16F330EF26F07
:104D1E00080EF36F100EF46F000EF56F57EC01F0E6
:0C4D2E00010E0501F66F020EA56F1200C9
:104D3A00838E010E0601AA6F010E0901D96FC7EC15
:104D4A0008F000520EE0010ED96FDA6BD9EC0EF0C2
:104D5A00CA0E0901D96F000EDA6F010EDB6F5AEC29
:104D6A0009F0020E0901D96FC7EC08F0005230E0D1
:104D7A00020ED96FDA6BD9EC0EF0440E0901D96F25
:104D8A00000EDA6F010EDB6F5AEC09F0D60E09013C
:104D9A00F06F050EF16F530EF26F000EF36F100EE7
:104DAA00F46F000EF56F57EC01F0080EF06F060E67
:104DBA00F16FF70EF26F050EF36F100EF46F000E1F
:104DCA00F56F57EC01F0010E0501F66F010EA56FA4
:104DDA000A0E0901D96FC7EC08F0005210E0010E63
:104DEA000501956F010E0901D96F4FEC0AF01A0EF1
:104DFA00D96F000EDA6F010EDB6F5AEC09F00B0E59
:104E0A000901D96FC7EC08F0005210E0010E060143
:104E1A00196F020E0901D96F4FEC0AF02F0ED96FE4
:104E2A00000EDA6F010EDB6F5AEC09F0050E09016C
:104E3A00D96FC7EC08F0005212E0010ED96FADC667
:104E4A00DAF910EC0FF00501956BC46B840E0901B9
:104E5A00D96F000EDA6F010EDB6F5AEC09F0070EFC
:104E6A000901D96FC7EC08F0005212E0D96BADC640
:104E7A00DAF910EC0FF00501956B010EC46F930E71
:104E8A000901D96F000EDA6F010EDB6F5AEC09F0D7
:104E9A00060E0901D96FC7EC08F0005211E0AEC640
:104EAA00D9F9010EDA6F10EC0FF006017C6B640E73
:104EBA000901D96F000EDA6F010EDB6F5AEC09F0A7
:104ECA00080E0901D96FC7EC08F0005211E0AEC60E
:104EDA00D9F9DA6B10EC0FF0010E06017C6F730E34
:104EEA000901D96F000EDA6F010EDB6F5AEC09F077
:104EFA00030E0901D96FC7EC08F0005210E0070150
:104F0A002291010E0901D96F97EC0AF0AD0E090141
:104F1A00D96F010EDA6F010EDB6F5AEC09F0040E3D
:104F2A000901D96FC7EC08F0005210E0070122937B
:104F3A00020E0901D96F97EC0AF0BA0E0901D96F6E
:104F4A00010EDA6F010EDB6F5AEC09F0050195517B
:104F5A00010A47E109010AA144D00501C451000A26
:104F6A0040E1010E0901D96F97EC0AF0020E09011E
:104F7A00D96F97EC0AF0060E06015D6F0501956B75
:104F8A000601196B8B0E0901D96F010EDA6F010E3A
:104F9A00DB6F5AEC09F0090E0901D96F9FEC09F091
:104FAA00D60EF06F050EF16F380EF26F060EF36F24
:104FBA00100EF46F000EF56F57EC01F0080EF06F4B
:104FCA00060EF16FAF0EF26F060EF36F100EF46F4E
:104FDA00000EF56F57EC01F0010E0501F66F020E97
:104FEA00A56F06011951010A47E109010AA344D034
:104FFA0006017C51000A40E1010E0901D96F97ECC4
:10500A000AF0020E0901D96F97EC0AF0060E0601A2
:10501A005D6F0501956B0601196B9C0E0901D96F2D
:10502A00010EDA6F010EDB6F5AEC09F0090E090165
:10503A00D96F9FEC09F0D60EF06F050EF16F380E9E
:10504A00F26F060EF36F100EF46F000EF56F57EC49
:10505A0001F0080EF06F060EF16FAF0EF26F060E3A
:10506A00F36F100EF46F000EF56F57EC01F0010E9E
:10507A000501F66F020EA56F09011A51000A05E033
:10508A000701E551010A01E002D007012293030E4C
:10509A000801105DD8A0CBD009010BA140D0010EA8
:1050AA00D96F97EC0AF0020E0901D96F97EC0AF052
:1050BA000501956B0601196B060E5D6F010E010164
:1050CA00EE6FEF0E0901D96F010EDA6F010EDB6F79
:1050DA005AEC09F00901D96B9FEC09F0D60EF06F72
:1050EA00050EF16F380EF26F060EF36F100EF46FA5
:1050FA00000EF56F57EC01F0080EF06F060EF16F17
:10510A00220EF26F080EF36F100EF46F000EF56F99
:10511A0057EC01F0010E0501F66F020EA56F0901A9
:10512A000C51020A41E123533FE0010ED96F97EC7B
:10513A000AF0020E0901D96F97EC0AF0060E060171
:10514A005D6F0501956B0601196BC70E0901D96FD1
:10515A00010EDA6F010EDB6F5AEC09F0090E090134
:10516A00D96F9FEC09F0D60EF06F050EF16F380E6D
:10517A00F26F060EF36F100EF46F000EF56F57EC18
:10518A0001F0080EF06F060EF16F780EF26F080E3E
:10519A00F36F100EF46F000EF56F57EC01F0010E6D
:1051AA000501F66F020EA56F09010951000A3FE0D9
:1051BA00010ED96F97EC0AF0020E0901D96F97EC2C
:1051CA000AF0060E06015D6F0501956B0601196B63
:1051DA00DC0E0901D96F010EDA6F010EDB6F5AEC92
:1051EA0009F0090E0901D96F9FEC09F0D60EF06F8C
:1051FA00050EF16F380EF26F060EF36F100EF46F94
:10520A00000EF56F57EC01F0080EF06F060EF16F05
:10521A005B0EF26F080EF36F100EF46F000EF56F4F
:10522A0057EC01F0010E0501F66F020EA56F07019A
:10523A002251000AD8A4A6D009011C53D8B488D098
:10524A00010ED96F010EDA6FD9EC0EF0010E0801CA
:10525A008A250901D96F000E08018B210901DA6F2D
:10526A00000E08018C210901DB6F000E08018D2157
:10527A000901DC6F0E0EDD6F98EC07F0010ED96F95
:10528A00ADC6DAF910EC0FF00501956BC46BAEC62A
:10529A00D9F9010E0901DA6F10EC0FF00601196B4A
:1052AA007C6B010E08018A250901D96F000E0801DD
:1052BA008B210901DA6F000E08018C210901DB6FCD
:1052CA00000E08018D210901DC6F030EDD6F98ECD9
:1052DA0007F0010E08018A250901D96F000E08019D
:1052EA008B210901DA6F000E08018C210901DB6F9D
:1052FA00000E08018D210901DC6F010ED927000E6D
:10530A00DA23DB23DC23040EDD6F98EC07F0010EB1
:10531A0008018A250901D96F000E08018B210901AC
:10532A00DA6F000E08018C210901DB6F000E0801FB
:10533A008D210901DC6F010ED927000EDA23DB2348
:10534A00DC230D0EDD6F98EC07F0070122851AD0D9
:10535A00010E08018A250901D96F000E08018B2167
:10536A000901DA6F000E08018C210901DB6F000EBA
:10537A0008018D210901DC6F0D0EDD6F98EC07F035
:10538A00070122850E0E0901D96FC7EC08F00052F9
:10539A0006E0020ED96F010EDA6FD9EC0EF00D0E8F
:1053AA000901D96FC7EC08F000522DE0010E060181
:1053BA005D6F0701E66B0801556B090E0901D96F8C
:1053CA009FEC09F0D60EF06F050EF16F1B0EF26F0F
:1053DA00010EF36F100EF46F000EF56F57EC01F02B
:1053EA00080EF06F060EF16FF70EF26F050EF36FEF
:1053FA00100EF46F000EF56F57EC01F0010E050167
:10540A00F66F010EA56F06015D51050A04E05D51B4
:10541A00060A01E044D00901D96B9FEC09F0000E9D
:10542A00101902E1000E0F193AE00801556B090143
:10543A000F5108018A250901D96F105108018B21E2
:10544A000901DA6F000E08018C210901DB6F000ED9
:10545A0008018D210901DC6F090EDD6F98EC07F058
:10546A000701E46B2C0E0901D96F010EDA6F010EE8
:10547A00DB6F5AEC09F0080E0901F06F060EF16FA6
:10548A00330EF26F080EF36F100EF46F000EF56F05
:10549A0057EC01F0010E0501F66F020EA56F12001E
:1054AA00090105A10BD00701C151000A03E1160E3B
:1054BA00C16F01D0C107640E06015D6F090105A520
:1054CA000AD00701C151160A02E1C16B01D0C12BF2
:1054DA00640E06015D6F090105A303D0660E06017D
:1054EA005D6F09010551050A27E1D60EF06F050E19
:1054FA00F16F140EF26F030EF36F100EF46F000EBD
:10550A00F56F57EC01F00201006B080E0901F06F0C
:10551A00060EF16F240EF26F030EF36F100EF46F86
:10552A00000EF56F57EC01F0020E0501A56F010E92
:0A553A00F66FFA0E06015D6F120015
:10554400030E0901D26FD36BD46BD56BD66B839EDC
:105554000601AA6B09010551020A05E1640E060160
:105564005D6F0701C16B0901095103080701E56F6C
:1055740009010951000AD8B4E6D2090ED96F9FEC8B
:1055840009F0838E010E0601AA6F09011C5318E06D
:10559400010E08018A250901D96F000E08018B212B
:1055A4000901DA6F000E08018C210901DB6F000E7E
:1055B40008018D210901DC6F0C0EDD6F98EC07F0FA
:1055C400D25108018A25006E000E8B21016E000E57
:1055D4008C21026E000E8D21036E00C032F901C0D1
:1055E40033F902C034F903C035F900C0D9F901C058
:1055F400DAF902C0DBF903C0DCF9010E0901DD6F41
:1056040098EC07F00051000A10E032C9D9F933C907
:10561400DAF934C9DBF935C9DCF9070EDD6F98EC2A
:1056240007F0010E0501C46F0FD032C9D9F933C98F
:10563400DAF934C9DBF935C9DCF9050E0901DD6F86
:1056440098EC07F00501C46B0901005108018A2593
:10565400006E000E8B21016E000E8C21026E000E76
:105664008D21036E060E0026000E01220222032263
:105674000901D2510026000E01220222032200C099
:1056840032F901C033F902C034F903C035F900C05E
:10569400D9F901C0DAF902C0DBF903C0DCF90A0E5A
:1056A400DD6F98EC07F0005108018A25006E000EAA
:1056B4008B21016E000E8C21026E000E8D21036E73
:1056C4000901D2510026000E01220222032200C049
:1056D40032F901C033F902C034F903C035F900C00E
:1056E400D9F901C0DAF902C0DBF903C0DCF9050E0F
:1056F400DD6F98EC07F00801FF51000A2FE0090163
:10570400135108018A25006E000E8B21016E000ED4
:105714008C21026E000E8D21036EFF51005E000E7F
:10572400015A025A035A0901D2510026000E0122DD
:105734000222032200C032F901C033F902C034F955
:1057440003C035F900C0D9F901C0DAF902C0DBF9A8
:1057540003C0DCF9070EDD6F98EC07F00901135163
:1057640008018A25006E000E8B21016E000E8C212B
:10577400026E000E8D21036E0901D2510026000E27
:1057840001220222032200C032F901C033F902C00F
:1057940034F903C035F900C0D9F901C0DAF902C0FF
:1057A400DBF903C0DCF9030EDD6F98EC07F013514D
:1057B40008018A250901D36F000E08018B21090114
:1057C400D46F000E08018C210901D56F000E080169
:1057D4008D210901D66FD251D327000ED423D523AE
:1057E400D6231A51000AD8B475D10701E551020A2B
:1057F400D8A470D109010E5108018A25006E000E4B
:105804008B21016E000E8C21026E000E8D21036E21
:105814000901D2510026000E01220222032200C0F7
:1058240032F901C033F902C034F903C035F900C0BC
:10583400D9F901C0DAF902C0DBF903C0DCF9020EC0
:10584400DD6F98EC07F00051000A2CE00E510801BE
:105854008A25006E000E8B21016E000E8C21026ED3
:10586400000E8D21036E0901D2510026000E012283
:105874000222032200C032F901C033F902C034F914
:1058840003C035F900C0D9F901C0DAF902C0DBF967
:1058940003C0DCF9080EDD6F98EC07F0010E060179
:1058A4007C6F2BD009010E5108018A25006E000E71
:1058B4008B21016E000E8C21026E000E8D21036E71
:1058C4000901D2510026000E01220222032200C047
:1058D40032F901C033F902C034F903C035F900C00C
:1058E400D9F901C0DAF902C0DBF903C0DCF9060E0C
:1058F400DD6F98EC07F006017C6B09010E5108017D
:105904008A25006E000E8B21016E000E8C21026E22
:10591400000E8D21036E090100510026000E0122A4
:1059240002220322060E0026000E01220222032276
:10593400D2510026000E01220222032200C032F9B5
:1059440001C033F902C034F903C035F900C0D9F9F4
:1059540001C0DAF902C0DBF903C0DCF90B0EDD6F1C
:1059640098EC07F00E5108018A25006E000E8B2179
:10597400016E000E8C21026E000E8D21036E090152
:1059840000510026000E012202220322D2510026D9
:10599400000E01220222032200C032F901C033F9B1
:1059A40002C034F903C035F900C0D9F901C0DAF9ED
:1059B40002C0DBF903C0DCF9060EDD6F98EC07F0DA
:1059C4000801FF51000A37E009010E5108018A2538
:1059D400006E000E8B21016E000E8C21026E000EF3
:1059E4008D21036E09011A510026000E01220222A4
:1059F40003220801FF51005E000E015A025A035AA5
:105A04000901D2510026000E01220222032200C005
:105A140032F901C033F902C034F903C035F900C0CA
:105A2400D9F901C0DAF902C0DBF903C0DCF9080EC8
:105A3400DD6F98EC07F009011A5108018A25006E00
:105A4400000E8B21016E000E8C21026E000E8D2142
