:0400000094EF39F050
:1000080000C019F001C018F004C017F008C016F0BD
:100018000CC015F0F2A432D00301DA2B8088010E4F
:100028000501106F190E0301D85D03E3D86BD96B76
:1000380001D0D82B190E0801995D04E3996B0301CF
:10004800DC6B02D00801992B190E0301DA5D11E36C
:10005800DA6B010E08013427000E352336233723C7
:100068003853010ED8A4000E386F8098010E050190
:10007800116FF30ED76ECA0ED66EF294F0A017D099
:100088000301D951000A03E1D92BD86B01D0D92B30
:10009800050ED95D0BE3130ED85D07E3D85115089B
:1000A80004E3010EDD6FD96B01D0D96BF090F0A29B
:1000B8001DD00301DC51000A04E1DC2B0801996B17
:1000C80002D00301DC2B0301050EDC5D0EE3130EE9
:1000D8000801995D08E39951150805E3010E03012C
:1000E800DE6FDC6B02D00301DC6BF092F2A235D03C
:1000F8000301DB2BDB51FF0A02E1020EDB6F030E6B
:10010800046EDBC300F06BD808C000F00050010A91
:1001180012E108015A5306E006019D5302E0818668
:1001280001D081960801835306E006019C5302E042
:10013800818801D08198030E046EDBC300F04FD88C
:1001480008C000F00050000A07E108015A53D8A47B
:1001580081868353D8A48188F29219C000F018C010
:1001680001F017C004F016C008F015C00CF011001B
:10017800D5C9C9FFC7B002D00000FCD7C9CF00F06D
:02018800120063
:0E018A00ACB202D00000FCD7D5C9ADFF120008
:10019800086A096A100E0C6E0134083609360450D4
:1001A800085E0550D8A0053C095ED8B007D00450B9
:1001B80008260550D8B0053C0926D89000360136E7
:0601C8000C2EEAD7120024
:1001CE00F250026EF29E0500FF6A0150FE6E005064
:0801DE00FD6E02BEF28E12005C
:1001E600086A080E0C6E003408360450085ED8B053
:0E01F60002D00826D89000360C2EF5D7120045
:100204000901D26B050ED25D0AE2D251D025E16E0E
:10021400000ED121E26E200EE66ED22BF3D7D2511E
:10022400D025E16E000ED121E26EE66AD207D251EA
:10023400D025D36F000ED121D46F0A0E046E000EA8
:10024400056ECEC900F0CFC901F0A4DF08C000F0EC
:1002540009C001F0300E0026D3C9E1FFD4C9E2FF82
:1002640000C0E6FF0A0E046E000E056ECEC900F053
:10027400CFC901F08FDF00C0CEF901C0CFF9000E65
:10028400011802E1000E001801E102D0D207CFD715
:02029400120056
:10029600A4C8E1FFA5C8E2FFCEC9E6FFA2C800F0E8
:0802A600A3C801F091DF120072
:1002AE00D0C904F0D1C905F0CEC902F0CFC903F010
:1002BE00D2C900F0D3C901F0010E0901D25F000EC0
:1002CE00D35B005001100FE004C0E9FF05C0EAFF48
:1002DE0002C0E1FF03C0E2FFEECFE6FF024A032AAF
:1002EE00044A052AE5D7CEC900F0CFC901F01200A5
:1002FE000B6A0A6A096A086A0E6A033408360450E1
:10030E00085E0550D8A0053C095E0650D8A0063CF4
:10031E000A5E0750D8A0073C0B5EE86AD8A0010E13
:10032E000E5E0336070E0C6E0334083609360A3697
:10033E000B360E36045003A012D0085E0550D8A01E
:10034E00053C095E0650D8A0063C0A5E0750D8A0B0
:10035E00073C0B5EE86AD8A0010E0E5E11D008268F
:10036E000550D8B0053C09260650D8B0063C0A26E2
:10037E000750D8B0073C0B26E86AD8B0010E0E26FF
:10038E0003360C2ED1D70234083609360A360B3610
:10039E000E36045003A012D0085E0550D8A0053CBE
:1003AE00095E0650D8A0063C0A5E0750D8A0073C4E
:1003BE000B5EE86AD8A0010E0E5E11D0082605501D
:1003CE00D8B0053C09260650D8B0063C0A26075080
:1003DE00D8B0073C0B26E86AD8B0010E0E260236BE
:1003EE00070E0C6E0234083609360A360B360E36F8
:1003FE00045002A012D0085E0550D8A0053C095E3C
:10040E000650D8A0063C0A5E0750D8A0073C0B5EEB
:10041E00E86AD8A0010E0E5E11D008260550D8B09D
:10042E00053C09260650D8B0063C0A260750D8B01F
:10043E00073C0B26E86AD8B0010E0E2602360C2EAB
:10044E00D1D70134083609360A360B360E3604502B
:10045E0002A012D0085E0550D8A0053C095E0650D9
:10046E00D8A0063C0A5E0750D8A0073C0B5EE86A8F
:10047E00D8A0010E0E5E11D008260550D8B0053C4E
:10048E0009260650D8B0063C0A260750D8B0073CBD
:10049E000B26E86AD8B0010E0E260136070E0C6E3A
:1004AE000134083609360A360B360E36045001A0D2
:1004BE0012D0085E0550D8A0053C095E0650D8A0A3
:1004CE00063C0A5E0750D8A0073C0B5EE86AD8A02F
:1004DE00010E0E5E11D008260550D8B0053C092637
:1004EE000650D8B0063C0A260750D8B0073C0B265B
:1004FE00E86AD8B0010E0E2601360C2ED1D7003484
:10050E00083609360A360B360E36045001A012D0C4
:10051E00085E0550D8A0053C095E0650D8A0063CE2
:10052E000A5E0750D8A0073C0B5EE86AD8A0010E01
:10053E000E5E11D008260550D8B0053C092606508F
:10054E00D8B0063C0A260750D8B0073C0B26E86AFE
:10055E00D8B0010E0E260036070E0C6E003408368B
:10056E0009360A360B360E36045000A012D0085E3D
:10057E000550D8A0053C095E0650D8A0063C0A5E80
:10058E000750D8A0073C0B5EE86AD8A0010E0E5E9D
:10059E0011D008260550D8B0053C09260650D8B013
:1005AE00063C0A260750D8B0073C0B26E86AD8B09E
:1005BE00010E0E2600360C2ED1D700B00ED00450F0
:1005CE0008260550D8B0053C09260650D8B0063C82
:0C05DE000A260750D8B0073C0B2612007C
:1005EA000901D16B030ED15D0AE2D151CF25E16E2B
:1005FA00000ED021E26E200EE66ED12BF3D7D15138
:10060A00CF25E16E000ED021E26EE66AD107D15104
:10061A00CF25D26F000ED021D36F0A0E046ECEC939
:10062A0000F0DCDD08C000F0300E0026D2C9E1FF80
:10063A00D3C9E2FF00C0E6FF0A0E046ECEC900F07D
:10064A00CDDD00C0CEF90050000A01E102D0D10789
:04065A00DED71200D5
:10065E00A6A202D00000FCD7A69CCFC9AAFFCEC985
:10066E00A9FFD0C9A8FFA69EA684F2CF00F0F29EE5
:10067E00550EA76EAA0EA76EA68200BE02D0F29EDF
:08068E0001D0F28EA6941200C7
:100696005ED00801FC6BFD6B8BD00801E00EFC6F91
:1006A600010EFD6F85D00801EA0EFC6F010EFD6F8D
:1006B6007FD00801F40EFC6F010EFD6F79D00801A2
:1006C600120EFC6F020EFD6F73D00801260EFC6F32
:1006D600020EFD6F6DD008013A0EFC6F020EFD6F23
:1006E60067D00801580EFC6F020EFD6F61D008013D
:1006F600760EFC6F020EFD6F5BD008018A0EFC6F52
:10070600020EFD6F55D008019E0EFC6F020EFD6FA6
:100716004FD00801BC0EFC6F020EFD6F49D00801D8
:10072600EE0EFC6F020EFD6F43D00801200EFC6F2B
:10073600030EFD6F3DD00801520EFC6F030EFD6FD8
:1007460037D00801840EFC6F030EFD6F31D009010E
:10075600CE51000A9EE0CE51010A9FE0CE51020A18
:10076600A2E0CE51030AA5E0CE51040AA8E0CE517C
:10077600050AABE0CE51060AAEE0CE51070AB1E05B
:10078600CE51080AB4E0CE51090AB7E0CE510A0AA2
:10079600BAE0CE510B0ABDE0CE510C0AC0E0CE51F4
:1007A6000D0AC3E0CE510E0AC6E0CE510F0AC9E0CB
:1007B60042D0640E0801FE6F000EFF6F5ED0080186
:1007C600F40EFE6F010EFF6F58D00801E80EFE6FA3
:1007D600030EFF6F52D00801DC0EFE6F050EFF6F91
:1007E6004CD00801D00EFE6F070EFF6F46D00801F1
:1007F600C40EFE6F090EFF6F40D00801B80EFE6FE3
:100806000B0EFF6F3AD00801AC0EFE6F0D0EFF6F98
:1008160034D00801A00EFE6F0F0EFF6F2ED0080118
:10082600940EFE6F110EFF6F28D00801880EFE6F22
:10083600130EFF6F22D00901CF51000ABAE0CF5143
:10084600010ABDE0CF51020AC0E0CF51030AC3E05E
:10085600CF51040AC6E0CF51050AC9E0CF51060AB6
:10086600CCE0CF51070ACFE0CF51080AD2E0CF51F2
:10087600090AD5E0CF510A0AD8E05ED00801F46B28
:10088600F56B8BD00801E00EF46F010EF56F85D085
:100896000801EA0EF46F010EF56F7FD00801F40E21
:1008A600F46F010EF56F79D00801120EF46F020E87
:1008B600F56F73D00801260EF46F020EF56F6DD03A
:1008C60008013A0EF46F020EF56F67D00801580E54
:1008D600F46F020EF56F61D00801760EF46F020E0A
:1008E600F56F5BD008018A0EF46F020EF56F55D0D6
:1008F60008019E0EF46F020EF56F4FD00801BC0E74
:10090600F46F020EF56F49D00801EE0EF46F020E79
:10091600F56F43D00801200EF46F030EF56F3DD03E
:100926000801520EF46F030EF56F37D00801840EDE
:10093600F46F030EF56F31D00901D051000A9EE025
:10094600D051010A9FE0D051020AA2E0D051030A19
:10095600A5E0D051040AA8E0D051050AABE0D05179
:10096600060AAEE0D051070AB1E0D051080AB4E059
:10097600D051090AB7E0D0510A0ABAE0D0510B0AA1
:10098600BDE0D0510C0AC0E0D0510D0AC3E0D051F1
:100996000E0AC6E0D0510F0AC9E042D0640E080123
:1009A600F26F000EF36F5ED00801F40EF26F010EC7
:1009B600F36F58D00801E80EF26F030EF36F52D0B2
:1009C6000801DC0EF26F050EF36F4CD00801D00E55
:1009D600F26F070EF36F46D00801C40EF26F090ED0
:1009E600F36F40D00801B80EF26F0B0EF36F3AD0DA
:1009F6000801AC0EF26F0D0EF36F34D00801A00E95
:100A0600F26F0F0EF36F2ED00801940EF26F110ED7
:100A1600F36F28D00801880EF26F130EF36F22D001
:100A26000901D151000ABAE0D151010ABDE0D15104
:100A3600020AC0E0D151030AC3E0D151040AC6E05C
:100A4600D151050AC9E0D151060ACCE0D151070AB5
:100A5600CFE0D151080AD2E0D151090AD5E0D151EF
:060A66000A0AD8E01200AC
:100A6C000901CB6B0A0ECB5D0AE2CB51C925E16EB5
:100A7C00000ECA21E26E300EE66ECB2BF3D7CB51B3
:100A8C00C925E16E000ECA21E26EE66ACB07000EA4
:100A9C00006EC81908E10050C71905E10050C619CD
:100AAC0002E1C551000A3FE0CB51C925CC6F000EC5
:100ABC00CA21CD6F0A0E046E000E056E066E076E0F
:100ACC00C5C900F0C6C901F0C7C902F0C8C903F016
:100ADC0010DC08C000F009C001F00AC002F00BC025
:100AEC0003F0300E0026CCC9E1FFCDC9E2FF00C0F7
:100AFC00E6FFCB070A0E046E000E056E066E076E3F
:100B0C00C5C900F0C6C901F0C7C902F0C8C903F0D5
:100B1C007FEC01F000C0C5F901C0C6F902C0C7F9ED
:080B2C0003C0C8F9B4D71200A0
:100B34000B6A0A6A096A00500402F4CF09F0F3CF81
:100B440008F001500502F4CF0BF0F3CF0AF0005087
:100B54000502F3500926F4500A22E86A0B220150D8
:100B64000402F3500926F4500A22E86A0B2208C052
:100B740000F009C001F00AC002F00BC003F012003B
:100B8400C5C9CEF90901CE33CE9FC6C9CFF9C7C9AD
:100B9400D0F929DD010EC515016E0150010A11E1DC
:100BA400030EC625CE6F000EC721CF6FAC0ED06FDB
:100BB400000ED16F040ED26F000ED36F57EC01F00C
:100BC40010D0030EC625CE6F000EC721CF6FB00E16
:100BD400D06F000ED16F040ED26F000ED36F57EC9E
:040BE40001F012000A
:0A0BE800490E0D6E0D2EFED712000F
:100BF2000901C86BC5C9E9FFC6C9EAFFEECFC7F94B
:100C0200C751000A0FE0C7C9CEF94BEC01F0090148
:100C1200C82BC851C525E96E000EC621EA6EEECF7B
:060C2200C7F9EED7120035
:100C2800010E0901CE6F000ECF6FF1C8D0F913DDA8
:100C3800020E0901CE6F000ECF6FF8C8D0F90BDD98
:100C4800030E0901CE6F000ECF6FF7C8D0F903DD90
:100C5800040E0901CE6F000ECF6FF6C8D0F9FBDC89
:100C6800050E0901CE6F000ECF6FECC8D0F9F3DC8A
:100C7800060E0901CE6F000ECF6FEBC8D0F9EBDC82
:100C8800070E0901CE6F000ECF6FEAC8D0F9E3DC7A
:100C9800080E0901CE6F000ECF6FF0C8D0F9DBDC6B
:100CA800090E0901CE6F000ECF6FEFC8D0F9D3DC63
:100CB8000A0E0901CE6F000ECF6FEEC8D0F9CBDC5B
:100CC8000B0E0901CE6F000ECF6FEDC8D0F9C3DC53
:100CD8000C0E0901CE6F000ECF6F9AC6D0F9BBDC9F
:100CE8000D0E0901CE6F000ECF6F00C9D0F9B3DC2D
:100CF8000E0E0901CE6F000ECF6F03C9D0F9ABDC21
:100D08000F0E0901CE6F000ECF6F02C9D0F9A3DC18
:100D1800100E0901CE6F000ECF6F01C9D0F99BDC10
:100D2800110E0901CE6F000ECF6FFAC8D0F993DC0F
:100D3800120E0901CE6F000ECF6FF9C8D0F98BDC07
:100D4800130E0901CE6F000ECF6F9BC6D0F983DC5E
:100D5800140E0901CE6F000ECF6FFBC8D0F97BDCF3
:100D68009AC6CEF9F9C8CFF99BC6D0F9FBC8D1F914
:040D78008EDC1200FB
:100D7C00C7B409D01F0EC514016E0150000A03E15F
:0A0D8C00010E006E01D0006A120093
:100D9600C5C9CEF9C6C9CFF90901CF33CE33CF9F26
:100DA600C7C9D0F9C8C9D1F902EC01F0010EC515C1
:100DB600016EC6C902F0000E0216000E021802E10C
:100DC600010E011811E1050EC725CE6F000EC821D0
:100DD600CF6FA40ED06F000ED16F040ED26F000E2F
:100DE600D36F57EC01F010D0050EC725CE6F000E5D
:100DF600C821CF6FA80ED06F000ED16F040ED26F30
:0A0E0600000ED36F57EC01F012004C
:100E10000901C86BC5C9E9FFC6C9EAFFEECFC7F92A
:100E2000C751000A0FE0C7C9D5F9C5EC00F00901A8
:100E3000C82BC851C525E96E000EC621EA6EEECF5B
:060E4000C7F9EED7120015
:100E4600A69CC6C9AAFFC5C9A9FFA69EA680A8CF0B
:040E560000F0120096
:100E5A00B7C9CEF90901CE33CE9FB8C9CFF9B9C9FE
:100E6A00D0F9F5EC02F0030EB825CE6F000EB921C9
:100E7A00CF6F390ED06F080ED16F040ED26F000EED
:080E8A00D36F57EC01F01200D8
:100E9200010E0901B725016E000EB821026E01C0D4
:100EA200E9FF02C0EAFF0A0EEE24006E01C0E1FF74
:100EB20002C0E2FF00C0E6FF030EB725016E000E7E
:100EC200B821026E01C0E9FF02C0EAFF0A0EEE2459
:100ED200006E01C0E1FF02C0E2FF00C0E6FFB7C939
:100EE200E9FFB8C9EAFFEECF00F0B7C9E1FFB8C920
:100EF200E2FF0A0E0024E66E020EB725016E000E16
:100F0200B821026E01C0E9FF02C0EAFF0A0EEE2418
:100F1200006E01C0E1FF02C0E2FF00C0E6FF040E66
:100F2200B725E16E000EB821E26E040EE66E060EE3
:100F3200B725E16E000EB821E26E040EE66E080ED1
:100F4200B725E16E000EB821E26E040EE66E0A0EBF
:100F5200B725E16E000EB821E26E040EE66E050EB4
:100F6200B725E16E000EB821E26E0A0EE66E090E9A
:100F7200B725E16E000EB821E26E0A0EE66E070E8C
:100F8200B725E16E000EB821E26E0A0EE66E0B0E78
:100F9200B725E16E000EB821E26E0A0EE66E12006F
:100FA2000901BC6B140EBC5D6DE2070E006E000EF3
:100FB200016EBCC904F0000E056EBBDD140E0026E6
:100FC200090E0122050E0024E96E000E0120EA6ED0
:100FD200EE50010A55E1070E006E000E016EBCC90B
:100FE20004F0000E056EA5DD140E0024E16E090E5C
:100FF2000120E26EBBC9E6FF070E006E000E016E15
:10100200BCC904F0000E056E94DD140E0026090E14
:101012000122010E0024E16E000E0120E26EB7C92A
:10102200E6FFB8C9E6FFB9C9E6FFBAC9E6FF070E8F
:10103200006E000E016EBCC904F0000E056E79DD73
:10104200140E0026090E0122050E0024E16E000E88
:101052000120E26EE66A070E006E000E016EBCC948
:1010620004F0000E056E65DD140E0026090E012245
:10107200060E0024E16E000E0120E26EE66A02D046
:06108200BC2B90D7120008
:10108800010E0901B725E96E000EB821EA6EEECF10
:10109800F1F8B7C9E9FFB8C9EAFFEECFF7F8B951D7
:1010A800020AD8A485D0030EB725E96E000EB82130
:1010B800EA6EEECFF8F8020EB725E96E000EB821F9
:1010C800EA6EEECFF6F8040EB725E96E000EB821E9
:1010D800EA6E080EB725D96E000EB821DA6EDE501A
:1010E800EE24036E046A000E042203C000F004C05C
:1010F80001F001320032019E01BC018E00C0EBF804
:10110800050EB725E96E000EB821EA6E090EB7255F
:10111800D96E000EB821DA6EDE50EE24036E046A32
:10112800000E042203C000F004C001F001320032B6
:10113800019E01BC018E00C0EAF8060EB725E96ED3
:10114800000EB821EA6E0A0EB725D96E000EB82136
:10115800DA6EDE50EE24036E046A000E042203C029
:1011680000F004C001F001320032019E01BC018E82
:1011780000C0F0F8070EB725E96E000EB821EA6E38
:101188000B0EB725D96E000EB821DA6EDE50EE24AC
:10119800036E046A000E042203C000F004C001F0CC
:1011A80001320032019E01BC018E00C0EFF824D04C
:1011B8000801F86BF66B040E0901B725E96E000EFD
:1011C800B821EA6EEECFEBF8050EB725E96E000EF2
:1011D800B821EA6EEECFEAF8060EB725E96E000EE2
:1011E800B821EA6EEECFF0F8070EB725E96E000ECB
:0C11F800B821EA6EEECFEFF813DD120014
:101204000801E2510901B71905E10801E26B010E79
:10121400006E15D00801E3510901B71905E1080171
:10122400E36B010E006E0BD00801E4510901B719FC
:1012340005E10801E46B010E006E01D0006A1200A2
:101244000901B76B140EB75D48E2070E006E000E7D
:10125400016EB7C904F0000E056E6ADC140E002698
:10126400090E0122050E0024E96E000E0120EA6E2B
:10127400EE50000A30E1070E006E000E016EB7C991
:1012840004F0000E056E54DC140E0024E96E090E01
:101294000120EA6EEECF01F00150090A1CE1070EAD
:1012A400006E000E016EB7C904F0000E056E40DC3E
:1012B400140E0026090E0122010E0024E96E000E10
:1012C4000120EA6EEECFB8F9EECFB9F9EECFBAF954
:1012D400EECFBBF902D0B72BB5D7140EB75D02E33E
:1012E400B76B05D0080134510901B85DB76FB7C9B0
:0412F40000F01200F4
:1012F8000901B76BB86BB851120802E1B7518E08F3
:1013080008E338DD005201E004D00901B74BB82BDF
:10131800F2D70901120EB85D02E18F0EB75D03E343
:101328007B0E006E05D0C580C5A001D0FDD7006A30
:021338001200A1
:10133A000901B95318E034C8C5F935C8C6F936C821
:10134A00C7F937C8C8F9BA0EC96F090ECA6F36ECA1
:10135A0005F0BA0EC56F090EC66F46DCD40EC56F0E
:10136A00060EC66F50DDB7C9C5F9B8C9C6F94BDD57
:10137A000D0ED56FC5EC00F00A0E0901D56FC5EC4C
:04138A0000F012005D
:10138E00C26A070EC012C08EB7C900F000360090B8
:10139E00003600900050C212C2801FDCC282C2A270
:1013AE0001D0FDD7C4CF01F0006AC3500012000E69
:0613BE000112C2901200B2
:1013C4000901B86B140EB85D44E2070E006E000EFE
:1013D400016EB8C904F0000E056E9AEC05F0140E07
:1013E4000026090E0122050E0024E96E000E0120DC
:1013F400EA6EEE50000A2BE1070E006E000E016E3D
:10140400B8C904F0000E056E9AEC05F0140E002421
:10141400E96E090E0120EA6EEECF01F00150B71912
:1014240016E0070E006E000E016EB8C904F0000E3F
:10143400056E9AEC05F0140E0026090E0122050E25
:101444000024E16E000E0120E26E010EE66EB82B60
:04145400B9D71200F2
:101458000901B76B140EB75D53E2070E006E000E5C
:10146800016EB7C904F0000E056E9AEC05F0140E73
:101478000026090E0122050E0024E96E000E012047
:10148800EA6EEE50000A3AE1070E006E000E016E99
:10149800B7C904F0000E056E9AEC05F0140E00248E
:1014A800E96E090E0120EA6EEECF01F00150090A3B
:1014B80025E1070E006E000E016EB7C904F0000E9C
:1014C800056E9AEC05F0140E0026090E0122010E95
:1014D8000024E96E000E0120EA6EEECFB8F9EECFD7
:1014E800B9F9EECFBAF9EECFBBF9050E0024E16EDB
:1014F800000E0120E26E010EE66E02D0B72BAAD7CD
:10150800080134510901B85D016E01C0B7F9140E24
:0C151800015CD8B0B76BB7C900F012003E
:101524000901B751010A05E10601D26BD36B080129
:10153400E6910901B751020A05E107019B6B9C6B17
:061544000801E69312000D
:10154A00140E0801F16F140EF76F140EF86F140ED3
:10155A00F66F070E06019A6F020E0801F96F070E61
:10156A0006019B6F020E0801FB6F070E0901CE6F81
:10157A00020ECF6F070ED06F020ED16F4BEC03F045
:10158A000A0E0801EA6F040EEB6F0A0EEF6F040EE3
:10159A00F06F0C0EEC6FED6BEE6B0901036B026BD7
:1015AA00016B006B010E0801FA6F14EC06F01200D1
:1015BA000901B751010A03E108015A6B8196090131
:0E15CA00B751020A03E10801836B81981200F9
:1015D800010E0901C56F000EC66F31DC00C0F1F8BD
:1015E800020EC56F000EC66F2ADC00C0F8F8030EA5
:1015F800C56F000EC66F23DC00C0F7F8040EC56F78
:10160800000EC66F1CDC00C0F6F8050EC56F000E94
:10161800C66F15DC00C0ECF8060EC56F000EC66F6D
:101628000EDC00C0EBF8070EC56F000EC66F07DCB6
:1016380000C0EAF8080EC56F000EC66F00DC00C0D7
:10164800F0F8090EC56F000EC66F23EC07F000C056
:10165800EFF80A0EC56F000EC66F23EC07F000C046
:10166800EDF8000E0801EE6FEDC8EEF8ED6B0B0E0D
:101678000901C56F000EC66F23EC07F00050080182
:10168800ED13000EEE130C0E0901C56F000EC66FA8
:1016980023EC07F000C09AF60D0EC56F000EC66F5A
:1016A80023EC07F000C000F90E0EC56F000EC66FE0
:1016B80023EC07F000C003F90F0EC56F000EC66FCC
:1016C80023EC07F000C002F9100EC56F000EC66FBC
:1016D80023EC07F000C001F9110EC56F000EC66FAC
:1016E80023EC07F000C0FAF8120EC56F000EC66FA3
:1016F80023EC07F000C0F9F8130EC56F000EC66F93
:1017080023EC07F000C09BF6140EC56F000EC66FE1
:1017180023EC07F000C0FBF89AC6CEF9F9C8CFF958
:0E1728009BC6D0F900C0D1F94BEC03F01200C3
:10173600020E0501946FF70E0901CE6F050ECF6FED
:101746008A0ED06F070ED16F100ED26F000ED36FB8
:1017560057EC01F00701C051000A38E1C50E090136
:10176600CE6F050ECF6FAF0ED06F070ED16F100E76
:10177600D26F000ED36F57EC01F0010E0501E56F35
:101786000701AE51000A0FE1F70E0901CE6F050EF3
:10179600CF6F460ED06F070ED16F100ED26F000EB0
:1017A600D36F57EC01F00701AE51010A0FE1F70EB6
:1017B6000901CE6F050ECF6F350ED06F070ED16FB4
:1017C600100ED26F000ED36F57EC01F00701C05117
:1017D600010A1BE1C50E0901CE6F050ECF6F240E5F
:1017E600D06F070ED16F100ED26F000ED36F57EC6D
:1017F60001F0010E0501E56FF1C8C5F9FD0E0901FD
:10180600C66F050EC76FC2EC05F00701C051020A8C
:101816001BE1C50E0901CE6F050ECF6F790ED06F95
:10182600070ED16F100ED26F000ED36F57EC01F07A
:10183600010E0501E56FF8C8C5F9FD0E0901C66F71
:10184600050EC76FC2EC05F00701C051030A1BE184
:10185600C50E0901CE6F050ECF6F680ED06F070E4D
:10186600D16F100ED26F000ED36F57EC01F0010E40
:101876000501E56FF7C8C5F9FD0E0901C66F050E2E
:10188600C76FC2EC05F00701C051040A1BE1C50E83
:101896000901CE6F050ECF6F570ED06F070ED16FB1
:1018A600100ED26F000ED36F57EC01F0010E05013A
:1018B600E56FF6C8C5F9FD0E0901C66F050EC76FBF
:1018C600C2EC05F00701C051050A1BE1C50E09016E
:1018D600CE6F050ECF6F9D0ED06F070ED16F100E17
:1018E600D26F000ED36F57EC01F0010E0501E56FC4
:1018F600EBC8C5F9FD0E0901C66F050EC76FC2EC30
:1019060005F00701C051060A1BE1C50E0901CE6F9D
:10191600050ECF6F130ED06F070ED16F100ED26F5C
:10192600000ED36F57EC01F0010E0501E56FEAC812
:10193600C5F9FD0E0901C66F050EC76FC2EC05F0AD
:101946000701C051070A1BE1C50E0901CE6F050E3E
:10195600CF6FC10ED06F060ED16F100ED26F000E74
:10196600D36F57EC01F0010E0501E56FF0C8C5F91C
:10197600FD0E0901C66F050EC76FC2EC05F0070123
:10198600C051080A1BE1C50E0901CE6F050ECF6FC7
:10199600850ED06F020ED16F100ED26F000ED36F70
:1019A60057EC01F0010E0501E56FEFC8C5F9FD0E14
:1019B6000901C66F050EC76FC2EC05F00701C051DD
:1019C600090A3EE1C50E0901CE6F050ECF6F960ED0
:1019D600D06F020ED16F100ED26F000ED36F57EC80
:1019E60001F0010E0501E56F9AC6CEF9FA0E09015E
:1019F600CF6F050ED06FF5EC02F006019A5107087D
:101A060010E2FE0E0901CE6F050ECF6F770ED06F76
:101A1600020ED16F060ED26F000ED36F57EC01F097
:101A26000FD00901FE0ECE6F050ECF6F7E0ED06F62
:101A3600020ED16F060ED26F000ED36F57EC01F077
:101A46000701C0510A0A3EE1C50E0901CE6F050E17
:101A5600CF6FBF0ED06F020ED16F100ED26F000E79
:101A6600D36F57EC01F0010E0501E56F9BC6CEF969
:101A7600FA0E0901CF6F050ED06FF5EC02F00601E4
:101A86009B51070810E2FE0E0901CE6F050ECF6FBF
:101A9600D00ED06F020ED16F060ED26F000ED36F2E
:101AA60057EC01F00FD00901FE0ECE6F050ECF6F79
:101AB600A70ED06F020ED16F060ED26F000ED36F37
:101AC60057EC01F00701C0510B0A1BE1C50E0901D5
:101AD600CE6F050ECF6FAE0ED06F020ED16F100E09
:101AE600D26F000ED36F57EC01F0010E0501E56FC2
:101AF600F9C8C5F9FD0E0901C66F050EC76FC2EC20
:101B060005F00701C0510C0A1BE1C50E0901CE6F95
:101B1600050ECF6F220ED06F020ED16F100ED26F50
:101B2600000ED36F57EC01F0010E0501E56FFBC8FF
:101B3600C5F9FD0E0901C66F050EC76FC2EC05F0AB
:101B46000701C0510D0A1BE1C50E0901CE6F050E36
:101B5600CF6F330ED06F020ED16F100ED26F000E04
:101B6600D36F57EC01F0010E0501E56FECC8C5F91E
:101B7600FD0E0901C66F050EC76FC2EC05F0070121
:101B8600C0510E0A1DE1C50E0901CE6F050ECF6FBD
:101B9600000ED06F020ED16F100ED26F000ED36FF3
:101BA60057EC01F0010E0501E56FEDC8C5F9EEC869
:101BB600C6F9FB0E0901C76F050EC86FCBEC06F020
:101BC6000701C0510F0A12E1C50E0901CE6F050EBD
:101BD600CF6F110ED06F020ED16F100ED26F000EA6
:101BE600D36F57EC01F0010E0501E56F0701C051F7
:101BF600100A33E1C50E0901CE6F050ECF6F5E0EDA
:101C0600D06F020ED16F100ED26F000ED36F57EC4D
:101C160001F0010E0501E56F09010251000A0FE10D
:101C2600FD0ECE6F050ECF6F6F0ED06F020ED16F09
:101C3600070ED26F000ED36F57EC01F00ED0FD0EDB
:101C4600CE6F050ECF6F440ED06F020ED16F080E09
:101C5600D26F000ED36F57EC01F00701C051110A85
:101C660033E1C50E0901CE6F050ECF6F4D0ED06F55
:101C7600020ED16F100ED26F000ED36F57EC01F02B
:101C8600010E0501E56F09010151000A0FE1FD0E84
:101C9600CE6F050ECF6F860ED06F030ED16F070E77
:101CA600D26F000ED36F57EC01F00ED0FD0ECE6F43
:101CB600050ECF6F8E0ED06F030ED16F080ED26F4A
:101CC600000ED36F57EC01F00701C051120A35E13F
:101CD600C50E0901CE6F050ECF6F6D0ED06F030EC8
:101CE600D16F100ED26F000ED36F57EC01F0010EBC
:101CF6000501E56F0801FA51000A10E1FD0E090120
:101D0600CE6F050ECF6F7E0ED06F030ED16F070E0E
:101D1600D26F000ED36F57EC01F00FD00901FD0E04
:101D2600CE6F050ECF6FA80ED06F030ED16F080EC3
:101D3600D26F000ED36F57EC01F00701C051130AA2
:101D460033E1C50E0901CE6F050ECF6FB10ED06F10
:101D5600030ED16F100ED26F000ED36F57EC01F049
:101D6600010E0501E56F09010351000A0FE1FD0EA1
:101D7600CE6F050ECF6F970ED06F030ED16F070E85
:101D8600D26F000ED36F57EC01F00ED0FD0ECE6F62
:101D9600050ECF6F9F0ED06F030ED16F080ED26F58
:101DA600000ED36F57EC01F00701C051140A1BE176
:101DB600C50E0901CE6F050ECF6FE90ED06F020E6C
:101DC600D16F100ED26F000ED36F57EC01F0010EDB
:101DD6000501E56F00C9C5F9FD0E0901C66F050EBF
:101DE600C76FC2EC05F00701C051150A12E1C50E16
:101DF6000901CE6F050ECF6FFA0ED06F020ED16FAE
:101E0600100ED26F000ED36F57EC01F0010E0501D4
:101E1600E56F0701C051160A12E1C50E0901CE6F22
:101E2600050ECF6FD70ED06F020ED16F100ED26F88
:101E3600000ED36F57EC01F0010E0501E56F650E3C
:061E460006014C6F1200C2
:101E4C000901B751010A17E1B8B102D0829201D051
:101E5C008282060E0B6E130E0C6EAD0E0D6E0D2ED9
:101E6C00FED70C2EFCD70B2EFAD700000000010E6B
:101E7C0008015A6F81860901B751020A17E1B8B1FE
:101E8C0002D0829001D08280060E0B6E130E0C6E67
:101E9C00AD0E0D6E0D2EFED70C2EFCD70B2EFAD7D9
:0E1EAC0000000000010E0801836F8188120003
:101EBA000901B751000A04E0B851000A01E002D052
:101ECA00F28801D0F298B7C99DF6B8C99CF61200FB
:101EDA009E96B7C9C9FFC7A401D0FDD79EB601D047
:101EEA00FDD7C5BC02D0006A03D0C584020E006EBD
:021EFA001200D4
:041EFC00C584120087
:101F000083A003D083A201D006D0050172516408DA
:101F1000D8B0722B02D00501726B7251640805E2D1
:101F200083B003D0010E006E09D07251640805E23F
:0E1F300083B203D0020E006E01D0006A1200D0
:101F3E000901B06B83A8B08183AAB083B0C900F049
:021F4E0012007F
:101F50000901B16B83BA02D0B18101D0B19184B0D3
:101F600002D0B18301D0B19383B802D0B18501D042
:101F7000B195050E0501235D02E20901B16B09016E
:101F8000B151000A20E10301F151000A09E1080101
:101F9000AC6BA76B0301F16B0901B06B0801A66B79
:101FA0000301F151010A0FE1050E0501055D0BE387
:101FB0000801AC6BA76B0301F16B0901B06B080161
:101FC000A66B0501236B0801AC51010A0FE1030167
:101FD000F2510501245D0AE3010E0801A66F050117
:101FE000246B190E0801A75DD8A0A72B0901B151D8
:101FF000000A24E00301F151010A20E10801AC517B
:10200000000A1CE1020EA825016E000EA921026E35
:10201000000EAA21036E000EAB21046E3751041886
:1020200008E13651031805E13551021802E1345137
:10203000011804E1010EAC6F0501246B0901B151D7
:10204000000A0AE00301F151010A06E10801AC515E
:10205000000A02E10901B06B0901B151000A0FE069
:102060000301F151010A0BE10801AC51010A07E13A
:102070000901B1510801A603F3CFB0F9A66B09011C
:10208000B151000A12E00301F151000A0EE1B1C999
:10209000B0F9010EF16F34C8A8F835C8A9F836C8F0
:1020A000AAF837C8ABF80501056B0901B051000A61
:0E20B00003E0010E0601C06FB0C900F012007F
:1020BE000901B46B050EB45D0AE2B451B225E16EAE
:1020CE00000EB321E26E300EE66EB42BF3D7B45190
:1020DE00B225E16E000EB321E26EE66AB407000E81
:1020EE00B11902E1000EB0192CE0B451B225B56F52
:1020FE00000EB321B66F0A0E046E000E056EB0C947
:10210E0000F0B1C901F0CCEC00F008C000F009C03D
:10211E0001F0300E0026B5C9E1FFB6C9E2FF00C0DE
:10212E00E6FFB4070A0E046E000E056EB0C900F08D
:10213E00B1C901F0CCEC00F000C0B0F901C0B1F9AA
:04214E00CED71200D6
:0A21520014EC06F006014C6B1200BD
:10215C000901B06BB76BC7EC09F000C0DDF801C02A
:10216C00DEF8010E0901B76FC7EC09F000C0DFF80B
:10217C0001C0E0F805018451000A03E10601D26BAD
:10218C00D36B06010851000A03E107019B6B9C6BA2
:10219C0006019D51000A1FE00801FD51DE5D02E1C0
:1021AC00FC51DD5D0AE2FF0E0601D35D02E1FA0E81
:1021BC00D25D02E2D24BD32B0DD00601000E006E85
:1021CC00D351005C02E1D251000804E2010ED25F4F
:1021DC00000ED35B02D0D26BD36BD3510801FF5DE1
:1021EC0004E10601D2510801FE5D02E20901B08151
:1021FC0006019C51000A1FE00801F551E05D02E167
:10220C00F451DF5D0AE2FF0E07019C5D02E1FA0E5C
:10221C009B5D02E29B4B9C2B0DD00701000E006EC8
:10222C009C51005C02E19B51000804E2010E9B5F93
:10223C00000E9C5B03D007019B6B9C6B9C510801AF
:10224C00F35D04E107019B510801F25D02E2090113
:08225C00B083B0C900F01200CC
:102264000901B16BB26B3F0EB015026E02C0B0F93A
:10227400540EB16F02C000F00032009E0032009E86
:102284000032009E0032009E540E0010B16F700E9A
:10229400B26F0F0E0214006E700E0010B26F7CEC61
:1022A40009F07C0E0901B76F16DE800E0901B76FC5
:1022B40012DEB1C9B7F90FDE800E0901B76F0BDE6C
:1022C400B2C9B7F908DE18DE0D0E0C6EFB0E0D6EEA
:0E22D4000D2EFED70C2EFCD7000000001200CD
:1022E2007CEC09F07C0E0901B76FF6DD800E090166
:1022F200B76FF2DD0901B051020A03E1380EB76F80
:10230200EBDD0901B051010A03E1340EB76FE4DDE0
:10231200800E0901B76FE0DD0901B051020A03E145
:10232200390EB76FD9DD0901B051010A03E1350E4B
:10233200B76FD2DD800E0901B76FCEDD1C0E090129
:10234200B76FCADD800E0901B76FC6DD720E0901D3
:10235200B76FC2DD800E0901B76FBEDD550E0901F0
:10236200B76FBADD800E0901B76FB6DD6C0E0901D9
:10237200B76FB2DD800E0901B76FAEDD0C0E090139
:10238200B76FAADD800E0901B76FA6DD010E090144
:10239200B76FA2DD800E0901B76F9EDD060E09013F
:1023A200B76F9ADD800E0901B76F96DD020E090143
:0823B200B76F92DDA2DD1200FD
:1023BA00949894968B988B9694889486C79EC79C7B
:0623CA00380EC66E120081
:1023D0000901B46BB56BB051010A03E1B151800F33
:1023E000B56FB051020A03E1B151C00FB56F7CEC7B
:1023F00009F07C0E0901B76F70DD800E0901B76F1F
:102400006CDDB5C9B7F969DD400E0901B76F65DD4F
:102410000901B451B225E96E000EB321EA6EEE5007
:102420000A0A0FE0B45110080CE3B451B225E96E6A
:10243000000EB321EA6EEECFB7F94FDD0901B42BE0
:10244000E7D75CDD0D0E0C6EFB0E0D6E0D2EFED76C
:0A2450000C2EFCD700000000120063
:10245A00010E0201E86F0801E1A323D00201E86B33
:10246A000801386B650E06014C6F9BEC0BF00701F7
:10247A00C051000A16E10901046B0701AE51000AB6
:10248A0006E1C80E06014C6F010E03016C6F0701CD
:10249A00AE51010A06E1C90E06014C6F010E030195
:1024AA006C6F0701C051000A18E10801E1A109D0C7
:1024BA000701AE51000805E2AE079BEC0BF0660E71
:1024CA004C6F0801E1A509D0010E0701AE5D05E2D6
:1024DA00AE2B9BEC0BF0660E4C6F0701C051010A44
:1024EA0016E10801E1A108D0F151000805E2F1075F
:1024FA009BEC0BF0660E4C6F0801E1A508D0FF0EAD
:10250A00F15D05E2F12B9BEC0BF0660E4C6F0701B7
:10251A00C051020A16E10801E1A108D0F8510008E9
:10252A0005E2F8079BEC0BF0660E4C6F0801E1A57B
:10253A0008D0FF0EF85D05E2F82B9BEC0BF0660E57
:10254A004C6F0701C051030A16E10801E1A108D046
:10255A00F751000805E2F7079BEC0BF0660E4C6F8B
:10256A000801E1A508D0FF0EF75D05E2F72B9BEC09
:10257A000BF0660E4C6F0701C051040A16E1080100
:10258A00E1A108D0F651000805E2F6079BEC0BF032
:10259A00660E4C6F0801E1A508D0FF0EF65D05E254
:1025AA00F62B9BEC0BF0660E4C6F0701C051050A27
:1025BA0016E10801E1A108D0EB51000805E2EB079A
:1025CA009BEC0BF0660E4C6F0801E1A508D0FF0EDC
:1025DA00EB5D05E2EB2B9BEC0BF0660E4C6F0701F3
:1025EA00C051060A16E10801E1A108D0EA51000823
:1025FA0005E2EA079BEC0BF0660E4C6F0801E1A5B9
:10260A0008D0FF0EEA5D05E2EA2B9BEC0BF0660EA2
:10261A004C6F0701C051070A16E10801E1A108D071
:10262A00F051000805E2F0079BEC0BF0660E4C6FC8
:10263A000801E1A508D0FF0EF05D05E2F02B9BEC46
:10264A000BF0660E4C6F0701C051080A16E108012B
:10265A00E1A108D0EF51000805E2EF079BEC0BF06F
:10266A00660E4C6F0801E1A508D0FF0EEF5D05E28A
:10267A00EF2B9BEC0BF0660E4C6F0701C051090A59
:10268A0018E10801E1A109D006019A51000805E202
:10269A009A079BEC0BF0660E4C6F0801E1A509D076
:1026AA000F0E06019A5D05E29A2B9BEC0BF0660E63
:1026BA004C6F0701C0510A0A18E10801E1A109D0CB
:1026CA0006019B51000805E29B079BEC0BF0660E86
:1026DA004C6F0801E1A509D00F0E06019B5D05E2CA
:1026EA009B2B9BEC0BF0660E4C6F0701C0510B0A3B
:1026FA0016E10801E1A108D0F951000805E2F9073D
:10270A009BEC0BF0660E4C6F0801E1A508D00A0E8F
:10271A00F95D05E2F92B9BEC0BF0660E4C6F070195
:10272A00C0510C0A16E10801E1A108D0FB510008CA
:10273A0005E2FB079BEC0BF0660E4C6F0801E1A566
:10274A0008D00A0EFB5D05E2FB2B9BEC0BF0660E34
:10275A004C6F0701C0510D0A16E10801E1A108D02A
:10276A00EC51000805E2EC079BEC0BF0660E4C6F8F
:10277A000801E1A508D0FF0EEC5D05E2EC2B9BEC0D
:10278A000BF0660E4C6F0701C0510E0A22E10801D8
:10279A00E1A110D0000E006EEE51005C02E1ED5195
:1027AA00000808E2010EED5F000EEE5B9BEC0BF0F9
:1027BA00660E4C6F0801E1A50CD0FD0EEE5D02E13C
:1027CA00E80EED5D06E2ED4BEE2B9BEC0BF0660E90
:1027DA004C6F0701C0510F0A22E106014C6BC50E6E
:1027EA000901CE6F050ECF6F840ED06F080ED16F20
:1027FA00100ED26F000ED36F57EC01F0010E0501D7
:10280A00946F0201E86B0801386B010E0501E56F50
:10281A00010E03016C6FA5EC0AF014EC06F0070137
:10282A00C051100A18E10801E1A109D009010251B9
:10283A00000805E202079BEC0BF0660E4C6F0801DC
:10284A00E1A509D0010E0901025D05E2022B9BEC0C
:10285A000BF0660E4C6F0701C051110A18E108010E
:10286A00E1A109D009010151000805E201079BEC29
:10287A000BF0660E4C6F0801E1A509D0010E0901A3
:10288A00015D05E2012B9BEC0BF0660E4C6F070114
:10289A00C051120A16E10801E1A108D0FA51000854
:1028AA0005E2FA079BEC0BF0660E4C6F0801E1A5F6
:1028BA0008D0010EFA5D05E2FA2B9BEC0BF0660ECE
:1028CA004C6F0701C051130A18E10801E1A109D0B0
:1028DA0009010351000805E203079BEC0BF0660EA1
:1028EA004C6F0801E1A509D0010E0901035D05E25B
:1028FA00032B9BEC0BF0660E4C6F0701C051140AB8
:10290A0021E10801E1A10DD009010051000809E205
:10291A0000070051090AD8B4006B9BEC0BF0660E55
:10292A004C6F0801E1A50ED0FF0E0901005D0AE215
:10293A00002B0051010A02E10A0E006F9BEC0BF01A
:10294A00660E4C6F0701C051150A1CE1670E06019D
:10295A004C6FC50E0901CE6F050ECF6F840ED06F76
:10296A00080ED16F100ED26F000ED36F57EC01F024
:10297A000201E86B010E0501946F010EE56F010E6D
:10298A0003016C6F0701C051160A1DE106014C6B69
:10299A00C50E0901CE6F050ECF6F840ED06F080EDB
:1029AA00D16F100ED26F000ED36F57EC01F00201F7
:1029BA00E86B010E0501946F010EE56FECEC0AF06D
:0829CA00010E03016C6F120005
:1029D20084D2838E0801E5A108D00901042B020EDE
:1029E2000801D46F010E0601C06F0801E5A309D0EA
:1029F200030E0901046F010E0801D46F010E0601D6
:102A0200C06FC4D2020E0901B76FB86B26EC0FF08B
:102A1200040E080134250901B76F000E08013521A3
:102A22000901B86F000E080136210901B96F000EC5
:102A3200080137210901BA6F150EBB6FD1EC07F0FF
:102A4200042B0601086BA2D20801E6A30CD00601F2
:102A52000851010A08E1086B020E0901B76FDDECAB
:102A62000AF00901042B0901150EB76F02EC09F0F7
:102A7200005203E0010E0601086F88D2010E09011F
:102A8200B76FB86B26EC0FF0040E0801342509016C
:102A9200B76F000E080135210901B86F000E080159
:102AA20036210901B96F000E080137210901BA6FF9
:102AB200140EBB6FD1EC07F0042B0501846B0801E7
:102AC200E6A10CD005018451010A08E1846B010ED4
:102AD2000901B76FDDEC0AF00901042B0901140E9C
:102AE200B76F02EC09F0005203E0010E0501846F9A
:102AF2004DD20801E551000A1AE034C8CAF835C8B7
:102B0200CBF836C8CCF837C8CDF8010E0901B76F3B
:102B1200010EB86F26EC0FF00901B76B9CC6B8F92D
:102B22005DEC0FF0010E0501B36F0901042B2ED2EB
:102B32000801E551000A12E00901042B34C8D5F856
:102B420035C8D6F836C8D7F837C8D8F8010EB76FE7
:102B52009CC6B8F95DEC0FF00501B36B17D2080102
:102B6200E551000A12E00901042B34C8D9F835C82E
:102B7200DAF836C8DBF837C8DCF8B76B9CC6B8F9A8
:102B82005DEC0FF0010E0501B36F00D20801E551B3
:102B9200000A25E0D451020A03E10901042B03D003
:102BA2000901110E046F34C8D0F835C8D1F836C8FF
:102BB200D2F837C8D3F8010EB76FDDEC0AF008017E
:102BC200CA51D05D006E00C0BFF8CA51D55D006E1B
:102BD20000C0C2F8D951D05D006E00C0C3F8D6D192
:102BE2000801E551000A1AE034C8CAF835C8CBF822
:102BF20036C8CCF837C8CDF8020E0901B76F010EFE
:102C0200B86F26EC0FF09DC6B7F90901B86B5DEC01
:102C12000FF0010E06016B6F0901042BB7D10801F9
:102C2200E551000A12E00901042B34C8D5F835C871
:102C3200D6F836C8D7F837C8D8F89DC6B7F9010E06
:102C4200B86F5DEC0FF006016B6BA0D10801E55186
:102C5200000A12E00901042B34C8D9F835C8DAF8A1
:102C620036C8DBF837C8DCF89DC6B7F9B86B5DEC3F
:102C72000FF0010E06016B6F89D10801E551000AC0
:102C82001EE00901042B34C8D0F835C8D1F836C883
:102C9200D2F837C8D3F8020EB76FDDEC0AF008019C
:102CA200CA51D05D006E00C0C1F8CA51D55D006E38
:102CB20000C0C6F8D951D05D006E00C0C7F866D119
:102CC2000801E551000A19E034C8CAF835C8CBF842
:102CD20036C8CCF837C8CDF8020E0901B76FB86B09
:102CE20026EC0FF09DC6B7F90901B86B5DEC0FF049
:102CF200010E06016B6F0901042B48D10801E55151
:102D0200000A12E00901042B34C8D5F835C8D6F8F8
:102D120036C8D7F837C8D8F89DC6B7F9010EB86FCC
:102D22005DEC0FF006016B6B31D10801E551000A31
:102D320012E00901042B34C8D9F835C8DAF836C8CC
:102D4200DBF837C8DCF89DC6B7F9B86B5DEC0FF05D
:102D5200010E06016B6F1AD10801E551000A1EE04F
:102D62000901042B34C8D0F835C8D1F836C8D2F8D6
:102D720037C8D3F8020EB76FDDEC0AF00801CA516A
:102D8200D05D006E00C0C0F8CA51D55D006E00C0B3
:102D9200C8F8D951D05D006E00C0C9F8F7D008015B
:102DA200E551000A19E034C8CAF835C8CBF836C86C
:102DB200CCF837C8CDF8010E0901B76FB86B26EC15
:102DC2000FF00901B76B9CC6B8F95DEC0FF0010E6C
:102DD2000501B36F0901042BD9D00801E551000A9E
:102DE20012E00901042B34C8D5F835C8D6F836C824
:102DF200D7F837C8D8F8010EB76F9CC6B8F95DECA2
:102E02000FF00501B36BC2D00801E551000A12E0D0
:102E12000901042B34C8D9F835C8DAF836C8DBF80A
:102E220037C8DCF8B76B9CC6B8F95DEC0FF0010E41
:102E32000501B36FABD00801E551000A1EE009019C
:102E4200042B34C8D0F835C8D1F836C8D2F837C800
:102E5200D3F8010EB76FDDEC0AF00801CA51D05D5C
:102E6200006E00C0BEF8CA51D55D006E00C0C4F845
:102E7200D951D05D006E00C0C5F888D0BE0E0901E0
:102E8200B76F080EB86FD4C8B9F944EC08F0C50E94
:102E92000901CE6F050ECF6F120ED06F050ED16FE6
:102EA200100ED26F000ED36F57EC01F0F70ECE6FFB
:102EB200050ECF6FDF0ED06F030ED16F100ED26FE3
:102EC200000ED36F57EC01F0020E0501946F010E54
:102ED200E56F839E06014C6B59D009010451000A2B
:102EE200D8B477D50451010AD8B48CD50451020A5A
:102EF200D8B4AAD50451030AD8B4C0D50451040ADF
:102F0200D8B4DDD50451050AD8B4F3D50451060A64
:102F1200D8B40ED60451070AD8B421D60451080AEF
:102F2200D8B434D60451090AD8B45AD604510A0A7C
:102F3200D8B475D604510B0AD8B488D604510C0AF9
:102F4200D8B49BD604510D0AD8B4BAD604510E0A8D
:102F5200D8B4D4D604510F0AD8B4E7D60451100A13
:102F6200D8B4FAD60451110AD8B419D70451120AA6
:102F7200D8B433D70451130AD8B446D70451140A2B
:0E2F8200D8B459D70451150AD8B478D7120024
:102F90008A0E0801A26F010EA36FD50EA46F090E51
:102FA000A56FFF0E9A6FFF0E9B6F000E9C6F000EB9
:102FB0009D6FFF0E9E6FFF0E9F6F000EA06F000EA5
:102FC000A16FFF0E946FFF0E956F000E966F000EAF
:102FD000976FAC8A900EAB6E948E949C9EAA03D091
:082FE000AECF00F0FBD7120098
:102FE8000901B06B0301DDB103D00901B09102D032
:102FF8000901B0810301DEB103D00901B09302D009
:103008000901B0830301DD6BDE6B140E06014C5D14
:1030180015E20901B0B106D00801E1B503D00901F4
:10302800B09102D00901B081B0B306D00801E1B176
:1030380003D00901B09302D00901B083B0C900F0F0
:02304800120074
:10304A000801E1A302D003016B2B03016B51010AB2
:10305A0020E1C50E0901CE6F050ECF6F2B0ED06F82
:10306A00030ED16F100ED26F000ED36F57EC01F022
:10307A00F70ECE6F050ECF6F3B0ED06F030ED16FDA
:10308A00100ED26F000ED36F57EC01F0010E05013E
:10309A00E56F03016B51020A20E1C50E0901CE6FEB
:1030AA00050ECF6F4B0ED06F030ED16F100ED26F7D
:1030BA00000ED36F57EC01F0F70ECE6F050ECF6FEF
:1030CA005B0ED06F030ED16F100ED26F000ED36F4E
:1030DA0057EC01F0010E0501E56F03016B51030A7C
:0A30EA0003E1640E06014C6F1200B2
:1030F400838E010E0601996F010E0901B76F02EC70
:1031040009F0005233E0010E0901B76F010EB86FE8
:1031140026EC0FF0D60E0901B76F050EB86F010E3D
:10312400B96F9DEC09F0839CC50E0901CE6F050EA5
:10313400CF6FB40ED06F050ED16F100ED26F000E8C
:10314400D36F57EC01F0F70ECE6F050ECF6FE60E7E
:10315400D06F050ED16F100ED26F000ED36F57ECE7
:1031640001F0010E0501E56F010E946F020E0901D5
:10317400B76F02EC09F0005211E0020E0901B76FBB
:10318400010EB86F26EC0FF0850E0901B76F050E1E
:10319400B86F010EB96F9DEC09F0839C050E09010F
:1031A400B76F02EC09F0005213E0010E0901B76F8A
:1031B4009CC6B8F95DEC0FF00501846BB36BA40EEB
:1031C4000901B76F050EB86F010EB96F9DEC09F0D8
:1031D400070E0901B76F02EC09F0005212E0090171
:1031E400B76B9CC6B8F95DEC0FF0010E0501B36F27
:1031F400950E0901B76F050EB86F010EB96F9DECFE
:1032040009F0060E0901B76F02EC09F0005213E051
:103214009DC6B7F9010E0901B86F5DEC0FF0060108
:10322400086B6B6B5C0E0901B76F060EB86F010E6D
:10323400B96F9DEC09F0080E0901B76F02EC09F0B3
:10324400005212E09DC6B7F90901B86B5DEC0FF0AE
:10325400010E06016B6F4D0E0901B76F060EB86FB4
:10326400010EB96F9DEC09F00A0E0901B76F02EC6B
:1032740009F0005211E0010E0501846F010E0901ED
:10328400B76F92EC0AF0830E0901B76F060EB86FA0
:10329400010EB96F9DEC09F00B0E0901B76F02EC3A
:1032A40009F0005211E0010E0601086F020E090137
:1032B400B76F92EC0AF06D0E0901B76F060EB86F86
:1032C400010EB96F9DEC09F0030E0901B76F02EC12
:1032D40009F0005210E006016C91010E0901B76F6C
:1032E400DDEC0AF0180E0901B76F060EB86F010E77
:1032F400B96F9DEC09F0040E0901B76F02EC09F0F7
:10330400005210E006016C93020E0901B76FDDEC68
:103314000AF0090E0901B76F060EB86F010EB96FF6
:103324009DEC09F00C0E0901B76F02EC09F0005294
:10333400D8A4838C05018451010A39E10801E6A16E
:1033440036D00501B351000A32E1010E0901B76F0D
:10335400DDEC0AF0020E0901B76FDDEC0AF0050E90
:1033640006014C6F0501846B0601086B380E0901D8
:10337400B76F060EB86F010EB96F9DEC09F0090E18
:103384000901B76FE2EC09F0C50ECE6F050ECF6FE1
:10339400270ED06F060ED16F100ED26F000ED36FB2
:1033A40057EC01F0010E0501E56F010E946F060163
:1033B4000851010A39E10801E6A336D006016B5130
:1033C400000A32E1010E0901B76FDDEC0AF0020ECA
:1033D4000901B76FDDEC0AF0050E06014C6F05011B
:1033E400846B0601086BD60E0901B76F070EB86F20
:1033F400010EB96F9DEC09F0090E0901B76FE2ECFB
:1034040009F0C50ECE6F050ECF6F270ED06F060ED6
:10341400D16F100ED26F000ED36F57EC01F0010E76
:103424000501E56F010E946F0801F851000A05E0EB
:103434000701D451010A01E002D006016C93030E86
:103444000701EB5DD8A0A2D00801E7A133D00901A0
:10345400025330E0010EB76FDDEC0AF0020E0901F1
:10346400B76FDDEC0AF00501846B0601086B050EED
:103474004C6FEC0E0901B76F070EB86F010EB96FF0
:103484009DEC09F0090E0901B76FE2EC09F0C50ED5
:10349400CE6F050ECF6FFD0ED06F070ED16F100EDD
:1034A400D26F000ED36F57EC01F0010E0501E56FEA
:1034B400010E946F0801E551000A31E0010E090183
:1034C400B76FDDEC0AF0020E0901B76FDDEC0AF00C
:1034D4000501846B0601086B050E4C6F230E090170
:1034E400B76F080EB86F010EB96F9DEC09F0090EA5
:1034F4000901B76FE2EC09F0C50ECE6F050ECF6F70
:10350400490ED06F080ED16F100ED26F000ED36F1C
:1035140057EC01F0010E0501E56F010E946F0801EF
:10352400E851010A33E10901015330E0010EB76F9C
:10353400DDEC0AF0020E0901B76FDDEC0AF00501BB
:10354400846B0601086B050E4C6F5B0E0901B76FA7
:10355400080EB86F010EB96F9DEC09F0090E090150
:10356400B76FE2EC09F0C50ECE6F050ECF6F720E89
:10357400D06F080ED16F100ED26F000ED36F57ECC0
:1035840001F0010E0501E56F010E946F06016C5107
:10359400000AD8A48ED00801FA5371E0010E090183
:1035A400B76FB86B26EC0FF0020E0901B76FB86B5A
:1035B40026EC0FF0010E0901B76F9CC6B8F95DEC5B
:1035C4000FF00501846BB36B9DC6B7F9010E0901B9
:1035D400B86F5DEC0FF00601086B6B6B010E080110
:1035E40034250901B76F000E080135210901B86FB0
:1035F400000E080136210901B96F000E08013721B8
:103604000901BA6F030EBB6FD1EC07F0010E08017C
:1036140034250901B76F000E080135210901B86F7F
:10362400000E080136210901B96F000E0801372187
:103634000901BA6F040EBB6FD1EC07F0010E08014B
:1036440034250901B76F000E080135210901B86F4F
:10365400000E080136210901B96F000E0801372157
:103664000901BA6F010EB727000EB823B923BA2394
:103674000D0EBB6FD1EC07F006016C851AD0010E5C
:10368400080134250901B76F000E0801352109012D
:10369400B86F000E080136210901B96F000E080148
:1036A40037210901BA6F0D0EBB6FD1EC07F006018B
:1036B4006C850D0E0901B76F02EC09F000522CE085
:1036C400020E06014C6F0701D56BC26B090E09018E
:1036D400B76FE2EC09F0C50ECE6F050ECF6FC30EC7
:1036E400D06F070ED16F100ED26F000ED36F57EC50
:1036F40001F0F70ECE6F050ECF6FE60ED06F050EFC
:10370400D16F100ED26F000ED36F57EC01F0010E83
:103714000501E56F020E946F06014C51050A04E0A1
:103724004C51060A01E02ED00901B76BE2EC09F016
:10373400000E0801EE1902E1000EED1923E0ED512F
:1037440034250901B76F0801EE5135210901B86F1D
:10375400000E080136210901B96F000E0801372156
:103764000901BA6F090EBB6FD1EC07F00701EA6BD0
:10377400D56B0E0E0901B76F080EB86F010EB96F45
:063784009DEC09F01200AB
:10378A00EDD1838E0801E5A107D0020EB96F0901B8
:10379A00042B010E0601C06F0801E5A308D0010E33
:1037AA00B96F030E0901046F010E0601C06F05010E
:1037BA00846B0601086B0AD2020E0901B76FB86B57
:1037CA0026EC0FF0060E080134250901B76F000E2A
:1037DA00080135210901B86F000E080136210901D7
:1037EA00B96F000E080137210901BA6F150EBB6FB8
:1037FA00D1EC07F0042BEAD10801E6A30CD00601AC
:10380A000851010A08E1086B020E0901B76FDDECE5
:10381A000AF00901042B0901150EB76F02EC09F031
:10382A00005203E0010E0601086FD0D1010E090112
:10383A00B76FB86B26EC0FF0060E080134250901A4
:10384A00B76F000E080135210901B86F000E080193
:10385A0036210901B96F000E080137210901BA6F33
:10386A00140EBB6FD1EC07F0042B0801E6A10CD0B3
:10387A0005018451010A08E1846B010E0901B76F41
:10388A00DDEC0AF00901042B0901140EB76F02ECF2
:10389A0009F0005203E0010E0501846F97D134C884
:1038AA00BAF835C8BBF836C8BCF837C8BDF8010E37
:1038BA000901B76F010EB86F26EC0FF0060E08016A
:1038CA0034250901B76F000E080135210901B86FC7
:1038DA00000E080136210901B96F000E08013721CF
:1038EA000901BA6F140EBB6FD1EC07F0042B6ED12D
:1038FA000801E6A11AD005018451010A16E1846B78
:10390A00010E0901B76FDDEC0AF00801B951010A8D
:10391A0004E10B0E0901046F02D00901042B08010E
:10392A00BA51345D006E00C0AEF8140E0901B76FCB
:10393A0002EC09F0005203E0010E0501846F46D142
:10394A0034C8BAF835C8BBF836C8BCF837C8BDF8A9
:10395A00020E0901B76F010EB86F26EC0FF0060EC2
:10396A00080134250901B76F000E08013521090144
:10397A00B86F000E080136210901B96F000E08015F
:10398A0037210901BA6F150EBB6FD1EC07F0042B72
:10399A001DD10801E6A312D006010851010A0EE161
:1039AA00086B020E0901B76FDDEC0AF00901042B5E
:1039BA000801BA51345D006E00C0B0F8150E090155
:1039CA00B76F02EC09F0005203E0010E0601086F1E
:1039DA00FDD034C8BAF835C8BBF836C8BCF837C801
:1039EA00BDF8020E0901B76FB86B26EC0FF0060E90
:1039FA00080134250901B76F000E080135210901B4
:103A0A00B86F000E080136210901B96F000E0801CE
:103A1A0037210901BA6F150EBB6FD1EC07F0042BE1
:103A2A00D5D00801E6A312D006010851010A0EE119
:103A3A00086B020E0901B76FDDEC0AF00901042BCD
:103A4A000801BA51345D006E00C0AFF8150E0901C5
:103A5A00B76F02EC09F0005203E0010E0601086F8D
:103A6A00B5D034C8BAF835C8BBF836C8BCF837C8B8
:103A7A00BDF8010E0901B76FB86B26EC0FF0060E00
:103A8A00080134250901B76F000E08013521090123
:103A9A00B86F000E080136210901B96F000E08013E
:103AAA0037210901BA6F140EBB6FD1EC07F0042B52
:103ABA008DD00801E6A112D005018451010A0EE158
:103ACA00846B010E0901B76FDDEC0AF00901042BC2
:103ADA000801BA51345D006E00C0ADF8140E090138
:103AEA00B76F02EC09F0005203E0010E0501846F82
:103AFA006DD0AD0E0901B76F080EB86F49EC07F02B
:103B0A00AD0EB76F080EB86FB9C8B9F944EC08F032
:103B1A00C50E0901CE6F050ECF6FAF0ED06F060E20
:103B2A00D16F100ED26F000ED36F57EC01F0F70E63
:103B3A00CE6F050ECF6F9E0ED06F060ED16F100E90
:103B4A00D26F000ED36F57EC01F0020E0501946F8D
:103B5A00010EE56F839E06014C6B38D009010451B2
:103B6A00000AD8B40ED60451010AD8B425D6045195
:103B7A00020AD8B441D60451030AD8B457D604511C
:103B8A00040AD8B472D60451050AD8B488D60451A6
:103B9A00060AD8B4ADD60451070AD8B4D1D604510E
:103BAA00080AD8B4F6D60451090AD8B412D704516F
:103BBA000A0AD8B436D704510B0AD8B452D70451DA
:0E3BCA000C0AD8B476D704510D0A93E012000D
:103BD800030E0901B06F839E0601996B22EC09F070
:103BE80000500701D51921E00801386B22EC09F0D3
:103BF80000C0D5F700C0B7F9020EB86F060EB96F4E
:103C08002DEC07F0F70ECE6F050ECF6FFA0ED06FC2
:103C1800000ED16F0B0ED26F000ED36F57EC01F070
:103C2800010E0501E56F020E946F0801E551000AC7
:103C380004E10101EE5301E145D10101EE6B838EF0
:103C4800010E0601996F0901B76BE2EC09F0080152
:103C5800FA5317E0010E34250901B76F000E080169
:103C680035210901B86F000E080136210901B96F25
:103C7800000E080137210901BA6F0C0EBB6FD1EC99
:103C880007F00901B05108013425006E000E3521F6
:103C9800016E000E3621026E000E3721036E00C041
:103CA80010F901C011F902C012F903C013F900C0DC
:103CB800B7F901C0B8F902C0B9F903C0BAF9010EE1
:103CC8000901BB6FD1EC07F010C9B7F911C9B8F9F0
:103CD80012C9B9F913C9BAF9050EBB6FD1EC07F0CF
:103CE8000501B36B060E08013425006E000E352160
:103CF800016E000E3621026E000E3721036E090197
:103D0800B0510026000E01220222032200C010F941
:103D180001C011F902C012F903C013F900C0B7F9C4
:103D280001C0B8F902C0B9F903C0BAF90A0EBB6FED
:103D3800D1EC07F00801F1513425006E000E352151
:103D4800016E000E3621026E000E3721036E090146
:103D5800B0510026000E01220222032200C010F9F1
:103D680001C011F902C012F903C013F900C0B7F974
:103D780001C0B8F902C0B9F903C0BAF9030EBB6FA4
:103D8800D1EC07F00801F851000AD8B48DD007012A
:103D9800D451020AD8A488D00801EC51342509016D
:103DA800B76F000E080135210901B86F000E080130
:103DB80036210901B96F000E080137210901BA6FD0
:103DC800B051B727000EB823B923BA23020EBB6F30
:103DD800D1EC07F00801EC5134250901B76F000E4A
:103DE800080135210901B86F000E080136210901C3
:103DF800B96F000E080137210901BA6FB051B72712
:103E0800000EB823B923BA23060EBB6FD1EC07F016
:103E180006016B6B0801EC5134250901B76F000EE0
:103E2800080135210901B86F000E08013621090182
:103E3800B96F000E080137210901BA6F060EB727BE
:103E4800000EB823B923BA23B051B727000EB82300
:103E5800B923BA230B0EBB6FD1EC07F00801F85158
:103E680034250901B76F000E080135210901B86F23
:103E7800000E080136210901B96F000E080137212B
:103E88000901BA6F0801EC510901B727000EB823E0
:103E9800B923BA23B051B727000EB823B923BA23E0
:103EA800040EBB6FD1EC07F0030E06016C6F050121
:103EB800846B0601086B0701C26BEB6BEA6B080E9B
:103EC80006014C6F090E0901B76F02EC09F00050AA
:103ED800010AD8A4D9D10801F651000A05E0070162
:103EE800D451010A01E084D00901B76BE2EC09F072
:103EF800B05108013425006E000E3521016E000E08
:103F08003621026E000E3721036E00C010F901C081
:103F180011F902C012F903C013F900C0B7F901C0C2
:103F2800B8F902C0B9F903C0BAF9010E0901BB6FAB
:103F3800D1EC07F010C9B7F911C9B8F912C9B9F924
:103F480013C9BAF9050EBB6FD1EC07F00501B36BC5
:103F5800060E08013425006E000E3521016E000E94
:103F68003621026E000E3721036E0901B05100267A
:103F7800000E01220222032200C010F901C011F92B
:103F880002C012F903C013F900C0B7F901C0B8F9AB
:103F980002C0B9F903C0BAF90A0EBB6FD1EC07F039
:103FA8000801F7513425006E000E3521016E000E10
:103FB8003621026E000E3721036E0901B05100262A
:103FC800000E01220222032200C010F901C011F9DB
:103FD80002C012F903C013F900C0B7F901C0B8F95B
:103FE80002C0B9F903C0BAF9030EBB6FD1EC07F0F0
:103FF8000801F651000AD8B439D10701D451020A90
:10400800D8A434D10901B76BE2EC09F0B05108012A
:104018003425006E000E3521016E000E3621026E29
:10402800000E3721036E00C010F901C011F902C05B
:1040380012F903C013F900C0B7F901C0B8F902C0FA
:10404800B9F903C0BAF9020E0901BB6FD1EC07F048
:1040580010C9B7F911C9B8F912C9B9F913C9BAF928
:10406800060EBB6FD1EC07F00501B36B060E080115
:104078003425006E000E3521016E000E3621026EC9
:10408800000E3721036E0901B0510026000E0122EF
:104098000222032200C010F901C011F902C012F96E
:1040A80003C013F900C0B7F901C0B8F902C0B9F9E3
:1040B80003C0BAF90B0EBB6FD1EC07F00801F7513A
:1040C8003425006E000E3521016E000E3621026E79
:1040D800000E3721036E0901B0510026000E01229F
:1040E8000222032200C010F901C011F902C012F91E
:1040F80003C013F900C0B7F901C0B8F902C0B9F993
:1041080003C0BAF9040EBB6FD1EC07F00801EC51FB
:104118003425006E000E3521016E000E3621026E28
:10412800000E3721036E0901B0510026000E01224E
:104138000222032200C010F901C011F902C012F9CD
:1041480003C013F900C0B7F901C0B8F902C0B9F942
:1041580003C0BAF9010EBB6FD1EC07F00801EC51AE
:104168003425006E000E3521016E000E3621026ED8
:10417800000E3721036E0901B0510026000E0122FE
:104188000222032200C010F901C011F902C012F97D
:1041980003C013F900C0B7F901C0B8F902C0B9F9F2
:1041A80003C0BAF9050EBB6FD1EC07F006016B6BC3
:1041B8000801EC513425006E000E3521016E000E09
:1041C8003621026E000E3721036E060E0026000E01
:1041D8000122022203220901B0510026000E012209
:1041E8000222032200C010F901C011F902C012F91D
:1041F80003C013F900C0B7F901C0B8F902C0B9F992
:1042080003C0BAF90A0EBB6FD1EC07F00801F651EA
:104218003425006E000E3521016E000E3621026E27
:10422800000E3721036E0901B0510026000E01224D
:10423800022203220801EC510026000E012202226C
:10424800032200C010F901C011F902C012F903C01D
:1042580013F900C0B7F901C0B8F902C0B9F903C031
:10426800BAF9030E0901BB6FD1EC07F0030E070181
:10427800C16F0501846B0601086B0701C26BEB6B0C
:10428800EA6B070E06014C6F0801E7A117D0000E74
:10429800EE1902E1000EED1911E00701C251000A02
:1042A8000DE1010EC26F010EEA6F060E0901B76F2C
:1042B800010EB86F010EB96F9DEC09F00701C251EC
:1042C800010A15E10801E7B112D0000EEE1902E16A
:1042D800000EED190CE00701EA6BC26B660E0901CE
:1042E800B76F010EB86F010EB96F9DEC09F012009F
:1042F800020E0901B06F839E0601996B22EC09F04A
:1043080000500701D51921E00801386B22EC09F0AB
:1043180000C0D5F700C0B7F9020EB86F060EB96F26
:104328002DEC07F0F70ECE6F050ECF6FD90ED06FBC
:10433800000ED16F0B0ED26F000ED36F57EC01F049
:10434800010E0501E56F020E946F0801E551000AA0
:1043580009E1090E0901B76F02EC09F00050010AE2
:1043680001E0D9D10801F651000A05E00701D4514E
:10437800010A01E084D00901B76BE2EC09F0B05101
:1043880008013425006E000E3521016E000E36211D
:10439800026E000E3721036E00C010F901C011F93A
:1043A80002C012F903C013F900C0B7F901C0B8F987
:1043B80002C0B9F903C0BAF9010E0901BB6FD1EC0B
:1043C80007F010C9B7F911C9B8F912C9B9F913C971
:1043D800BAF9050EBB6FD1EC07F00501B36B060EF9
:1043E80008013425006E000E3521016E000E3621BD
:1043F800026E000E3721036E0901B0510026000E2F
:1044080001220222032200C010F901C011F902C0E2
:1044180012F903C013F900C0B7F901C0B8F902C016
:10442800B9F903C0BAF90A0EBB6FD1EC07F008015D
:10443800F7513425006E000E3521016E000E36212D
:10444800026E000E3721036E0901B0510026000EDE
:1044580001220222032200C010F901C011F902C092
:1044680012F903C013F900C0B7F901C0B8F902C0C6
:10447800B9F903C0BAF9030EBB6FD1EC07F0080114
:10448800F651000AD8B43AD10701D451020AD8A487
:1044980035D1090E0901B76FE2EC09F0B0510801F6
:1044A8003425006E000E3521016E000E3621026E95
:1044B800000E3721036E00C010F901C011F902C0C7
:1044C80012F903C013F900C0B7F901C0B8F902C066
:1044D800B9F903C0BAF9020E0901BB6FD1EC07F0B4
:1044E80010C9B7F911C9B8F912C9B9F913C9BAF994
:1044F800060EBB6FD1EC07F00501B36B060E080181
:104508003425006E000E3521016E000E3621026E34
:10451800000E3721036E0901B0510026000E01225A
:104528000222032200C010F901C011F902C012F9D9
:1045380003C013F900C0B7F901C0B8F902C0B9F94E
:1045480003C0BAF90B0EBB6FD1EC07F00801F751A5
:104558003425006E000E3521016E000E3621026EE4
:10456800000E3721036E0901B0510026000E01220A
:104578000222032200C010F901C011F902C012F989
:1045880003C013F900C0B7F901C0B8F902C0B9F9FE
:1045980003C0BAF9040EBB6FD1EC07F00801EC5167
:1045A8003425006E000E3521016E000E3621026E94
:1045B800000E3721036E0901B0510026000E0122BA
:1045C8000222032200C010F901C011F902C012F939
:1045D80003C013F900C0B7F901C0B8F902C0B9F9AE
:1045E80003C0BAF9010EBB6FD1EC07F00801EC511A
:1045F8003425006E000E3521016E000E3621026E44
:10460800000E3721036E0901B0510026000E012269
:104618000222032200C010F901C011F902C012F9E8
:1046280003C013F900C0B7F901C0B8F902C0B9F95D
:1046380003C0BAF9050EBB6FD1EC07F006016B6B2E
:104648000801EC513425006E000E3521016E000E74
:104658003621026E000E3721036E060E0026000E6C
:104668000122022203220901B0510026000E012274
:104678000222032200C010F901C011F902C012F988
:1046880003C013F900C0B7F901C0B8F902C0B9F9FD
:1046980003C0BAF90A0EBB6FD1EC07F00801F65156
:1046A8003425006E000E3521016E000E3621026E93
:1046B800000E3721036E0901B0510026000E0122B9
:1046C800022203220801EC510026000E01220222D8
:1046D800032200C010F901C011F902C012F903C089
:1046E80013F900C0B7F901C0B8F902C0B9F903C09D
:1046F800BAF9030E0901BB6FD1EC07F0030E0701ED
:10470800C16F0501846B0601086B0701EB6BEA6B4F
:10471800070E06014C6F0801E7A117D0000EEE192D
:1047280002E1000EED1911E00701C251000A0DE186
:10473800010EC26F010EEA6FE50E0901B76F000E98
:10474800B86F010EB96F9DEC09F00701C251010A5B
:1047580015E10801E7B112D0000EEE1902E1000ED2
:10476800ED190CE00701EA6BC26BB40E0901B76FD3
:0E477800000EB86F010EB96F9DEC09F0120033
:10478600838E010E0601996F010E0901B76F02ECC7
:1047960009F000520FE0010E0901B76FB86B26EC65
:1047A6000FF01D0E0901B76F040EB86F010EB96F39
:1047B6009DEC09F0020E0901B76F02EC09F00052F8
:1047C60031E0020E0901B76FB86B26EC0FF02C0E24
:1047D6000901B76F040EB86F010EB96F9DEC09F0B1
:1047E600C50E0901CE6F050ECF6F530ED06F000EAA
:1047F600D16F100ED26F000ED36F57EC01F0F70E8B
:10480600CE6F050ECF6FE60ED06F050ED16F100E70
:10481600D26F000ED36F57EC01F0010E0501E56F64
:10482600010E946F0A0E0901B76F02EC09F00052EF
:1048360011E0010E0501846F010E0901B76F92ECBC
:104846000AF0F30E0901B76F030EB86F010EB96FC8
:104856009DEC09F00B0E0901B76F02EC09F000524E
:1048660011E0010E0601086F020E0901B76F92EC06
:104876000AF0080E0901B76F040EB86F010EB96F82
:104886009DEC09F0050E0901B76F02EC09F0005224
:1048960012E0010E0901B76F9CC6B8F95DEC0FF086
:1048A6000501B36B550E0901B76F040EB86F010E03
:1048B600B96F9DEC09F0060E0901B76F02EC09F01D
:1048C600005212E09DC6B7F9010E0901B86F5DEC02
:1048D6000FF006016B6B640E0901B76F040EB86F1B
:1048E600010EB96F9DEC09F0030E0901B76F02ECDA
:1048F60009F0005209E105018451010A04E10801A9
:10490600E6A101D001D012D00701C1A10FD0C191FB
:10491600010E0901B76FDDEC0AF03B0E0901B76F16
:10492600040EB86F010EB96F9DEC09F0040E090173
:10493600B76F02EC09F0005209E106010851010ABD
:1049460004E10801E6A301D001D012D00701C1A3FA
:104956000FD0C193020E0901B76FDDEC0AF0480EC5
:104966000901B76F040EB86F010EB96F9DEC09F01F
:104976000801F851000A05E00701D451010A01E0D7
:1049860002D00701C193030EEB5DD8A0A5D00801A4
:10499600E7A134D0010E0901B76FDDEC0AF0020E73
:1049A6000901B76FDDEC0AF00501846B0601086B9F
:1049B600060E4C6F010E0101EE6F4F0E0901B76F27
:1049C600050EB86F010EB96F9DEC09F0090E0901CD
:1049D600B76FE2EC09F0C50ECE6F050ECF6FFD0E78
:1049E600D06F070ED16F100ED26F000ED36F57EC3B
:1049F60001F0010E0501E56F010E946F0801E55106
:104A0600000A32E0010E0901B76FDDEC0AF0020E72
:104A16000901B76FDDEC0AF0060E06014C6F0501C1
:104A2600846B0601086B600E0901B76F050EB86F3F
:104A3600010EB96F9DEC09F0090E0901B76FE2ECA2
:104A460009F0C50ECE6F050ECF6F490ED06F080E5A
:104A5600D16F100ED26F000ED36F57EC01F0010E1E
:104A66000501E56F010E946F0801E851020A34E171
:104A76000901015331E0010EB76FDDEC0AF0020EB9
:104A86000901B76FDDEC0AF0060E06014C6F050151
:104A9600846B0601086B250E0901B76F050EB86F0A
:104AA600010EB96F9DEC09F0090E0901B76FE2EC32
:104AB60009F0F70ECE6F050ECF6F720ED06F080E8F
:104AC600D16F100ED26F000ED36F57EC01F0010EAE
:104AD6000501E56F010E946F0701C151000AD8A4C4
:104AE600A7D00801FA53D8B489D0010E0901B76FCF
:104AF600010EB86F26EC0FF0010E080134250901EE
:104B0600B76F000E080135210901B86F000E0801C4
:104B160036210901B96F000E080137210901BA6F64
:104B26000E0EBB6FD1EC07F0010EB76F9CC6B8F93D
:104B36005DEC0FF00501846BB36B9DC6B7F9010EF2
:104B46000901B86F5DEC0FF00601086B6B6B010E87
:104B5600080134250901B76F000E08013521090146
:104B6600B86F000E080136210901B96F000E080161
:104B760037210901BA6F030EBB6FD1EC07F0010EA6
:104B8600080134250901B76F000E08013521090116
:104B9600B86F000E080136210901B96F000E080131
:104BA60037210901BA6F010EB727000EB823B923C2
:104BB600BA23040EBB6FD1EC07F0010E08013425B1
:104BC6000901B76F000E080135210901B86F000E03
:104BD600080136210901B96F000E080137210901C4
:104BE600BA6F010EB727000EB823B923BA230D0EEC
:104BF600BB6FD1EC07F00701C1851AD0010E080181
:104C060034250901B76F000E080135210901B86F77
:104C1600000E080136210901B96F000E080137217F
:104C26000901BA6F0D0EBB6FD1EC07F00701C18504
:104C36000E0E0901B76F02EC09F0005207E0020EF2
:104C46000901B76F010EB86F26EC0FF00D0E0901C2
:104C5600B76F02EC09F000522CE0010E06014C6F12
:104C66000701C26BD56B090E0901B76FE2EC09F0BB
:104C7600C50ECE6F050ECF6F1B0ED06F010ED16F16
:104C8600100ED26F000ED36F57EC01F0F70ECE6FF9
:104C9600050ECF6FE60ED06F050ED16F100ED26FD8
:104CA600000ED36F57EC01F0010E0501E56F010E02
:104CB600946F06014C51050A04E04C51060A01E0C6
:104CC6002ED00901B76BE2EC09F0000E0801EE19CF
:104CD60002E1000EED1923E0ED5134250901B76F0D
:104CE6000801EE5135210901B86F000E0801362181
:104CF6000901B96F000E080137210901BA6F090EC3
:104D0600BB6FD1EC07F00701EA6BD56B3A0E0901D0
:104D1600B76F050EB86F010EB96F9DEC09F0120062
:104D2600838E010E0601996F010E0901B76F02EC21
:104D360009F000520FE0010E0901B76FB86B26ECBF
:104D46000FF0CA0E0901B76F000EB86F010EB96FEA
:104D56009DEC09F0020E0901B76F02EC09F0005252
:104D660031E0020E0901B76FB86B26EC0FF0440E66
:104D76000901B76F000EB86F010EB96F9DEC09F00F
:104D8600C50E0901CE6F050ECF6F530ED06F000E04
:104D9600D16F100ED26F000ED36F57EC01F0F70EE5
:104DA600CE6F050ECF6FE60ED06F050ED16F100ECB
:104DB600D26F000ED36F57EC01F0010E0501E56FBF
:104DC600010E946F0A0E0901B76F02EC09F000524A
:104DD60011E0010E0501846F010E0901B76F92EC17
:104DE6000AF01A0E0901B76F000EB86F010EB96FFF
:104DF6009DEC09F00B0E0901B76F02EC09F00052A9
:104E060011E0010E0601086F020E0901B76F92EC60
:104E16000AF02F0E0901B76F000EB86F010EB96FB9
:104E26009DEC09F0050E0901B76F02EC09F000527E
:104E360013E0010E0901B76F9CC6B8F95DEC0FF0DF
:104E46000501846BB36B840E0901B76F000EB86F52
:104E5600010EB96F9DEC09F0070E0901B76F02EC60
:104E660009F0005213E00901B76B9CC6B8F95DEC76
:104E76000FF00501846B010EB36F930E0901B76F36
:104E8600000EB86F010EB96F9DEC09F0060E090110
:104E9600B76F02EC09F0005212E09DC6B7F9010E99
:104EA6000901B86F5DEC0FF006016B6B640E09012A
:104EB600B76F000EB86F010EB96F9DEC09F0080EC2
:104EC6000901B76F02EC09F0005212E09DC6B7F96E
:104ED6000901B86B5DEC0FF0010E06016B6F730EE6
:104EE6000901B76F000EB86F010EB96F9DEC09F09E
:104EF600030E0901B76F02EC09F0005210E007013A
:104F0600C191010E0901B76FDDEC0AF0AD0E090182
:104F1600B76F010EB86F010EB96F9DEC09F0040E64
:104F26000901B76F02EC09F0005210E00701C193C6
:104F3600020E0901B76FDDEC0AF0BA0E0901B76F70
:104F4600010EB86F010EB96F9DEC09F00501845191
:104F5600010A39E10801E6A136D00501B351000A7C
:104F660032E1010E0901B76FDDEC0AF0020E09010C
:104F7600B76FDDEC0AF0060E06014C6F0501846B77
:104F86000601086B8B0E0901B76F010EB86F010E93
:104F9600B96F9DEC09F0090E0901B76FE2EC09F053
:104FA600C50ECE6F050ECF6F270ED06F060ED16FD2
:104FB600100ED26F000ED36F57EC01F0010E0501F3
:104FC600E56F010E946F06010851010A39E10801E7
:104FD600E6A336D006016B51000A32E1010E090143
:104FE600B76FDDEC0AF0020E0901B76FDDEC0AF0CF
:104FF600060E06014C6F0501846B0601086B9C0EBC
:105006000901B76F010EB86F010EB96F9DEC09F07B
:10501600090E0901B76FE2EC09F0C50ECE6F050E59
:10502600CF6F270ED06F060ED16F100ED26F000E07
:10503600D36F57EC01F0010E0501E56F010E946F79
:105046000801F851000A05E00701D451010A01E000
:1050560002D00701C193030EEB5DD8A0A4D00801CE
:10506600E7A133D0010E0901B76FDDEC0AF0020E9D
:105076000901B76FDDEC0AF00501846B0601086BC8
:10508600060E4C6F010E0101EE6FEF0E0901B76FB0
:10509600010EB86F010EB96F9DEC09F00901B76BEF
:1050A600E2EC09F0C50ECE6F050ECF6FFD0ED06F88
:1050B600070ED16F100ED26F000ED36F57EC01F0B2
:1050C600010E0501E56F010E946F0801E851020A11
:1050D60034E10901015331E0010EB76FDDEC0AF04E
:1050E600020E0901B76FDDEC0AF0060E06014C6FE1
:1050F6000501846B0601086BC70E0901B76F010E27
:10510600B86F010EB96F9DEC09F0090E0901B76F72
:10511600E2EC09F0C50ECE6F050ECF6F720ED06FA2
:10512600080ED16F100ED26F000ED36F57EC01F040
:10513600010E0501E56F010E946F0801E551000AA5
:1051460032E0010E0901B76FDDEC0AF0020E09012B
:10515600B76FDDEC0AF0060E06014C6F0501846B95
:105166000601086BDC0E0901B76F010EB86F010E60
:10517600B96F9DEC09F0090E0901B76FE2EC09F071
:10518600C50ECE6F050ECF6F490ED06F080ED16FCC
:10519600100ED26F000ED36F57EC01F0010E050111
:1051A600E56F010E946F0701C151000AD8A4A7D07C
:1051B6000801FA53D8B489D0010E0901B76F010E60
:1051C600B86F26EC0FF0010E080134250901B76F00
:1051D600000E080135210901B86F000E08013621BD
:1051E6000901B96F000E080137210901BA6F0E0EC9
:1051F600BB6FD1EC07F0010EB76F9CC6B8F95DEC3A
:105206000FF00501846BB36B9DC6B7F9010E09015A
:10521600B86F5DEC0FF00601086B6B6B010E0801B1
:1052260034250901B76F000E080135210901B86F51
:10523600000E080136210901B96F000E0801372159
:105246000901BA6F030EBB6FD1EC07F0010E08011E
:1052560034250901B76F000E080135210901B86F21
:10526600000E080136210901B96F000E0801372129
:105276000901BA6F010EB727000EB823B923BA2366
:10528600040EBB6FD1EC07F0010E080134250901AD
:10529600B76F000E080135210901B86F000E08012D
:1052A60036210901B96F000E080137210901BA6FCD
:1052B600010EB727000EB823B923BA230D0EBB6F14
:1052C600D1EC07F00701C1851AD0010E080134257B
:1052D6000901B76F000E080135210901B86F000EEC
:1052E600080136210901B96F000E080137210901AD
:1052F600BA6F0D0EBB6FD1EC07F00701C1850E0E1C
:105306000901B76F02EC09F0005207E0020E09012D
:10531600B76F010EB86F26EC0FF00D0E0901B76FCF
:1053260002EC09F000522CE0010E06014C6F070159
:10533600C26BD56B090E0901B76FE2EC09F0C50E19
:10534600CE6F050ECF6F1B0ED06F010ED16F100EF4
:10535600D26F000ED36F57EC01F0F70ECE6F050E2D
:10536600CF6FE60ED06F050ED16F100ED26F000E06
:10537600D36F57EC01F0010E0501E56F010E946F36
:1053860006014C51050A04E04C51060A01E030D0F2
:105396000901B76BE2EC09F0000E0801EE1902E113
:1053A600000EED1925E00701D56B0801ED513425F6
:1053B6000901B76F0801EE5135210901B86F000EDA
:1053C600080136210901B96F000E080137210901CC
:1053D600BA6F090EBB6FD1EC07F00701EA6B2C0E12
:1053E6000901B76F010EB86F010EB96F9DEC09F098
:0253F6001200A3
:1053F8000801E1A10BD00701C051000A03E1160E14
:10540800C06F01D0C007640E06014C6F0801E1A50A
:105418000AD00701C051160A02E1C06B01D0C02BA7
:10542800640E06014C6F0801E1A303D0660E060165
:105438004C6F0801E151050A28E1C50E0901CE6F3C
:10544800050ECF6F0B0ED06F030ED16F100ED26FFB
:10545800000ED36F57EC01F003016B6BF70E0901D7
:10546800CE6F050ECF6F1B0ED06F030ED16F100ECF
:10547800D26F000ED36F57EC01F0020E0501946F46
:0C548800010EE56FFA0E06014C6F1200D9
:10549400030E0901B06FB16BB26BB36BB46B839E37
:1054A4000601996B0801E151020A05E1640E060147
:1054B4004C6F0701C06B0801E55103080701D46F65
:1054C4000801E551000AD8B4E3D2090E0901B76F07
:1054D400E2EC09F0838E010E0601996F0801FA537C
:1054E40017E0010E34250901B76F000E08013521BC
:1054F4000901B86F000E080136210901B96F000EC9
:10550400080137210901BA6F0C0EBB6FD1EC07F00B
:105514000901B05108013425006E000E3521016ED9
:10552400000E3621026E000E3721036E00C010F902
:1055340001C011F902C012F903C013F900C0B7F990
:1055440001C0B8F902C0B9F903C0BAF9010E0901E2
:10555400BB6FD1EC07F00801EB51000A11E010C950
:10556400B7F911C9B8F912C9B9F913C9BAF9070ECB
:105574000901BB6FD1EC07F0010E0501B36F0FD029
:1055840010C9B7F911C9B8F912C9B9F913C9BAF9E7
:10559400050E0901BB6FD1EC07F00501B36B0801DF
:1055A400EB513425006E000E3521016E000E3621BC
:1055B400026E000E3721036E060E0026000E012235
:1055C400022203220901B0510026000E0122022208
:1055D400032200C010F901C011F902C012F903C07E
:1055E40013F900C0B7F901C0B8F902C0B9F903C092
:1055F400BAF90A0EBB6FD1EC07F00801EB51342560
:10560400006E000E3521016E000E3621026E000E72
:105614003721036E0901B0510026000E0122022237
:10562400032200C010F901C011F902C012F903C02D
:1056340013F900C0B7F901C0B8F902C0B9F903C041
:10564400BAF9050EBB6FD1EC07F00801EA51000A64
:105654002DE0F1513425006E000E3521016E000E4F
:105664003621026E000E3721036EEA51005E000EF1
:10567400015A025A035A0901B0510026000E0122B0
:105684000222032200C010F901C011F902C012F96C
:1056940003C013F900C0B7F901C0B8F902C0B9F9E1
:1056A40003C0BAF9070EBB6FD1EC07F00801F15142
:1056B4003425006E000E3521016E000E3621026E77
:1056C400000E3721036E0901B0510026000E01229D
:1056D4000222032200C010F901C011F902C012F91C
:1056E40003C013F900C0B7F901C0B8F902C0B9F991
:1056F40003C0BAF9030EBB6FD1EC07F00801F151F6
:1057040034250901B16F000E080135210901B26F7A
:10571400000E080136210901B36F000E080137217C
:105724000901B46FB051B127000EB223B323B423DF
:105734000801F851000AD8B46FD10701D451020A04
:10574400D8A46AD10801EC513425006E000E35212D
:10575400016E000E3621026E000E3721036E090120
:10576400B0510026000E01220222032200C010F9CB
:1057740001C011F902C012F903C013F900C0B7F94E
:1057840001C0B8F902C0B9F903C0BAF9020EBB6F7F
:10579400D1EC07F00801EB51000A2BE0EC51342561
:1057A400006E000E3521016E000E3621026E000ED1
:1057B4003721036E0901B0510026000E0122022296
:1057C400032200C010F901C011F902C012F903C08C
:1057D40013F900C0B7F901C0B8F902C0B9F903C0A0
:1057E400BAF9080EBB6FD1EC07F0010E06016B6F1E
:1057F4002AD00801EC513425006E000E3521016ECB
:10580400000E3621026E000E3721036E0901B051DD
:105814000026000E01220222032200C010F901C05A
:1058240011F902C012F903C013F900C0B7F901C09D
:10583400B8F902C0B9F903C0BAF9060EBB6FD1ECCE
:1058440007F006016B6B0801EC513425006E000E65
:105854003521016E000E3621026E000E3721036ED3
:10586400EB510026000E012202220322060E00261E
:10587400000E0122022203220901B0510026000E6B
:1058840001220222032200C010F901C011F902C052
:1058940012F903C013F900C0B7F901C0B8F902C086
:1058A400B9F903C0BAF90B0EBB6FD1EC07F00801CC
:1058B400EC513425006E000E3521016E000E3621A8
:1058C400026E000E3721036EEB510026000E0122FA
:1058D400022203220901B0510026000E01220222F5
:1058E400032200C010F901C011F902C012F903C06B
:1058F40013F900C0B7F901C0B8F902C0B9F903C07F
:10590400BAF9060EBB6FD1EC07F00801EA51000AA0
:1059140033E0EC513425006E000E3521016E000E8B
:105924003621026E000E3721036EF8510026000E58
:10593400012202220322EA51005E000E015A025A99
:10594400035A0901B0510026000E0122022203224B
:1059540000C010F901C011F902C012F903C013F913
:1059640000C0B7F901C0B8F902C0B9F903C0BAF967
:10597400080EBB6FD1EC07F00801F8513425006E16
:10598400000E3521016E000E3621026E000E372105
:10599400036EEC510026000E0122022203220901AB
:1059A400B0510026000E01220222032200C010F989
:1059B40001C011F902C012F903C013F900C0B7F90C
:1059C40001C0B8F902C0B9F903C0BAF9040EBB6F3B
:1059D400D1EC07F00801F85134250901B16F000E2C
:1059E400080135210901B26F000E080136210901B1
:1059F400B36F000E080137210901B46F0801EC519F
:105A04000901B127000EB223B323B423B051B12747
:105A1400000EB223B323B423000E0801EE1902E1F1
:105A2400000EED1926E00701EA6B0801ED510901AA
:105A3400B125006E0801EE510901B221016E000E7C
:105A4400B321026E000EB421036E00C010F901C030
:105A540011F902C012F903C013F900C0B7F901C06B
