:0400000044EF42F097
:1000080000C019F001C018F004C017F008C016F0BD
:100018000CC015F0F2A42BD0232A8088010E246E80
:100028002250FF0A03E1226A256A01D0222A02012E
:100038004851FF0A03E1486B276A01D0482B190E83
:10004800235C10E3236A010E01010427000E052337
:10005800062307231B52010ED8A4000E1B6E80989E
:10006800010E296EF30ED76ECA0ED66EF294F0A06A
:1000780016D02550000A03E1252A226A01D0252A34
:10008800050E255C0BE3130E225C07E322501508CE
:1000980004E3010E2B6E256A01D0256AF090F0A2C8
:1000A80018D02750000A04E1272A0201486B01D022
:1000B800272A050E275C0CE30201130E485D07E3AF
:1000C8004851150804E3010E2C6E276A01D0276AEF
:1000D800F092F2A231D0262A2650FF0A02E1020E3F
:1000E800266E030E046E26C000F068D808C000F023
:1000F8000050010A0FE10001DF5305E0B55302E0AB
:10010800818601D08196E05305E0B85302E08188EA
:1001180001D08198030E046E26C000F04FD808C0A5
:1001280000F00050000A07E10001DF5301E081867A
:10013800E05301E08188F29219C000F018C001F084
:0E01480017C004F016C008F015C00CF011002E
:0E015600ACB202D00000FCD706C6ADFF12000E
:1001640006C6C9FFC7B002D00000FCD7C9CF00F053
:02017400120077
:10017600F250026EF29E0500FF6A0150FE6E0050BC
:08018600FD6E02BEF28E1200B4
:10018E00086A096A100E0C6E0134083609360450DE
:10019E00085E0550D8A0053C095ED8B007D00450C3
:1001AE0008260550D8B0053C0926D89000360136F1
:0601BE000C2EEAD712002E
:1001C400086A080E0C6E003408360450085ED8B075
:0E01D40002D00826D89000360C2EF5D7120067
:1001E200A6A202D00000FCD7A69C00C6AAFFFFC5AB
:1001F200A9FF01C6A8FFA69EA684F2CF00F0F29E38
:10020200550EA76EAA0EA76EA68200BE02D0F29E5F
:0802120001D0F28EA694120047
:10021A0001C604F002C605F0FFC502F000C603F0ED
:10022A0003C600F004C601F0010E0601035F000ECA
:10023A00045B005001100FE004C0E9FF05C0EAFFAB
:10024A0002C0E1FF03C0E2FFEECFE6FF024A032A43
:10025A00044A052AE5D7FFC500F000C601F01200DE
:10026A000601036B050E035D0AE203510125E16EE7
:10027A00000E0221E26E200EE66E032BF3D7035125
:10028A000125E16E000E0221E26EE66A03070351C0
:10029A000125046F000E0221056F0A0E046E000E7E
:1002AA00056EFFC500F000C601F06CDF08C000F063
:1002BA0009C001F0300E002604C6E1FF05C6E2FFC0
:1002CA0000C0E6FF0A0E046E000E056EFFC500F0C0
:1002DA0000C601F057DF00C0FFF501C000F6000EAE
:1002EA00011802E1000E001801E102D00307CFD77E
:0202FA001200F0
:1002FC000601026B030E025D0AE202510025E16E5B
:10030C00000E0121E26E200EE66E022BF3D7025195
:10031C000025E16E000E0121E26EE66A0207025131
:10032C000025036F000E0121046F0A0E046EFFC539
:10033C0000F042DF08C000F0300E002603C6E1FFDB
:10034C0004C6E2FF00C0E6FF0A0E046EFFC500F013
:10035C0033DF00C0FFF50050000A01E102D00207B4
:04036C00DED71200C6
:100370005ED00101896B8A6B8BD00101E00E896F21
:10038000010E8A6F85D00101EA0E896F010E8A6F16
:100390007FD00101F40E896F010E8A6F79D00101BF
:1003A000120E896F020E8A6F73D00101260E896FBB
:1003B000020E8A6F6DD001013A0E896F020E8A6FAC
:1003C00067D00101580E896F020E8A6F61D001015A
:1003D000760E896F020E8A6F5BD001018A0E896FDB
:1003E000020E8A6F55D001019E0E896F020E8A6F30
:1003F0004FD00101BC0E896F020E8A6F49D00101F6
:10040000EE0E896F020E8A6F43D00101200E896FB4
:10041000030E8A6F3DD00101520E896F030E8A6F61
:1004200037D00101840E896F030E8A6F31D0050128
:10043000FF51000A9EE0FF51010A9FE0FF51020AAE
:10044000A2E0FF51030AA5E0FF51040AA8E0FF5112
:10045000050AABE0FF51060AAEE0FF51070AB1E022
:10046000FF51080AB4E0FF51090AB7E0FF510A0A38
:10047000BAE0FF510B0ABDE0FF510C0AC0E0FF518A
:100480000D0AC3E0FF510E0AC6E0FF510F0AC9E092
:1004900042D0640E01018B6F000E8C6F5ED00101A3
:1004A000F40E8B6F010E8C6F58D00101E80E8B6F2C
:1004B000030E8C6F52D00101DC0E8B6F050E8C6F1A
:1004C0004CD00101D00E8B6F070E8C6F46D001010E
:1004D000C40E8B6F090E8C6F40D00101B80E8B6F6C
:1004E0000B0E8C6F3AD00101AC0E8B6F0D0E8C6F22
:1004F00034D00101A00E8B6F0F0E8C6F2ED0010136
:10050000940E8B6F110E8C6F28D00101880E8B6FAB
:10051000130E8C6F22D006010051000ABAE0005180
:10052000010ABDE00051020AC0E00051030AC3E025
:100530000051040AC6E00051050AC9E00051060A4C
:10054000CCE00051070ACFE00051080AD2E0005188
:10055000090AD5E000510A0AD8E05ED001018D6B8E
:100560008E6B8BD00101E00E8D6F010E8E6F85D0EA
:100570000101EA0E8D6F010E8E6F7FD00101F40E26
:100580008D6F010E8E6F79D00101120E8D6F020EEC
:100590008E6F73D00101260E8D6F020E8E6F6DD09F
:1005A00001013A0E8D6F020E8E6F67D00101580E59
:1005B0008D6F020E8E6F61D00101760E8D6F020E6F
:1005C0008E6F5BD001018A0E8D6F020E8E6F55D03B
:1005D00001019E0E8D6F020E8E6F4FD00101BC0E79
:1005E0008D6F020E8E6F49D00101EE0E8D6F020EDF
:1005F0008E6F43D00101200E8D6F030E8E6F3DD0A4
:100600000101520E8D6F030E8E6F37D00101840EE3
:100610008D6F030E8E6F31D006010151000A9EE0EE
:100620000151010A9FE00151020AA2E00151030AAF
:10063000A5E00151040AA8E00151050AABE001510F
:10064000060AAEE00151070AB1E00151080AB4E020
:100650000151090AB7E001510A0ABAE001510B0A37
:10066000BDE001510C0AC0E001510D0AC3E0015187
:100670000E0AC6E001510F0AC9E042D0640E010122
:10068000A26F000EA36F5ED00101F40EA26F010EE7
:10069000A36F58D00101E80EA26F030EA36F52D0D2
:1006A0000101DC0EA26F050EA36F4CD00101D00E2C
:1006B000A26F070EA36F46D00101C40EA26F090EF0
:1006C000A36F40D00101B80EA26F0B0EA36F3AD0FA
:1006D0000101AC0EA26F0D0EA36F34D00101A00E6C
:1006E000A26F0F0EA36F2ED00101940EA26F110EF8
:1006F000A36F28D00101880EA26F130EA36F22D022
:1007000006010251000ABAE00251010ABDE002519D
:10071000020AC0E00251030AC3E00251040AC6E023
:100720000251050AC9E00251060ACCE00251070A4B
:10073000CFE00251080AD2E00251090AD5E0025185
:060740000A0AD8E01200D5
:100746000B6A0A6A096A086A0E6A03340836045094
:10075600085E0550D8A0053C095E0650D8A0063CA8
:100766000A5E0750D8A0073C0B5EE86AD8A0010EC7
:100776000E5E0336070E0C6E0334083609360A364B
:100786000B360E36045003A012D0085E0550D8A0D2
:10079600053C095E0650D8A0063C0A5E0750D8A064
:1007A600073C0B5EE86AD8A0010E0E5E11D0082643
:1007B6000550D8B0053C09260650D8B0063C0A2696
:1007C6000750D8B0073C0B26E86AD8B0010E0E26B3
:1007D60003360C2ED1D70234083609360A360B36C4
:1007E6000E36045003A012D0085E0550D8A0053C72
:1007F600095E0650D8A0063C0A5E0750D8A0073C02
:100806000B5EE86AD8A0010E0E5E11D008260550D0
:10081600D8B0053C09260650D8B0063C0A26075033
:10082600D8B0073C0B26E86AD8B0010E0E26023671
:10083600070E0C6E0234083609360A360B360E36AB
:10084600045002A012D0085E0550D8A0053C095EEF
:100856000650D8A0063C0A5E0750D8A0073C0B5E9F
:10086600E86AD8A0010E0E5E11D008260550D8B051
:10087600053C09260650D8B0063C0A260750D8B0D3
:10088600073C0B26E86AD8B0010E0E2602360C2E5F
:10089600D1D70134083609360A360B360E360450DF
:1008A60002A012D0085E0550D8A0053C095E06508D
:1008B600D8A0063C0A5E0750D8A0073C0B5EE86A43
:1008C600D8A0010E0E5E11D008260550D8B0053C02
:1008D60009260650D8B0063C0A260750D8B0073C71
:1008E6000B26E86AD8B0010E0E260136070E0C6EEE
:1008F6000134083609360A360B360E36045001A086
:1009060012D0085E0550D8A0053C095E0650D8A056
:10091600063C0A5E0750D8A0073C0B5EE86AD8A0E2
:10092600010E0E5E11D008260550D8B0053C0926EA
:100936000650D8B0063C0A260750D8B0073C0B260E
:10094600E86AD8B0010E0E2601360C2ED1D7003437
:10095600083609360A360B360E36045001A012D078
:10096600085E0550D8A0053C095E0650D8A0063C96
:100976000A5E0750D8A0073C0B5EE86AD8A0010EB5
:100986000E5E11D008260550D8B0053C0926065043
:10099600D8B0063C0A260750D8B0073C0B26E86AB2
:1009A600D8B0010E0E260036070E0C6E003408363F
:1009B60009360A360B360E36045000A012D0085EF1
:1009C6000550D8A0053C095E0650D8A0063C0A5E34
:1009D6000750D8A0073C0B5EE86AD8A0010E0E5E51
:1009E60011D008260550D8B0053C09260650D8B0C7
:1009F600063C0A260750D8B0073C0B26E86AD8B052
:100A0600010E0E2600360C2ED1D700B00ED00450A3
:100A160008260550D8B0053C09260650D8B0063C35
:0C0A26000A260750D8B0073C0B2612002F
:100A320053C2E1FF54C2E2FFFFC5E6FF51C200F01C
:0A0A420052C201F0BBEC00F01200FC
:0A0A4C00490E0D6E0D2EFED71200AC
:100A56000900F5CFE6FF0006FBE10106F9E1120009
:100A66000501F96B0A0EF95D0AE2F951F725E16E07
:100A7600000EF821E26E300EE66EF92BF3D7F9512F
:100A8600F725E16E000EF821E26EE66AF907000E20
:100A9600006EF61908E10050F51905E10050F41949
:100AA60002E1F351000A3EE0F951F725FA6F000E14
:100AB600F821FB6F0A0E046E000E056E066E076EB9
:100AC600F3C500F0F4C501F0F5C502F0F6C503F074
:100AD60037DE08C000F009C001F00AC002F00BC002
:100AE60003F0300E0026FAC5E1FFFBC5E2FF00C0A9
:100AF600E6FFF9070A0E046E000E056E066E076E17
:100B0600F3C500F0F4C501F0F5C502F0F6C503F033
:100B160017DE00C0F3F501C0F4F502C0F5F503C019
:060B2600F6F5B5D7120040
:100B2C000501F66BF3C5E9FFF4C5EAFFEECFF5F569
:100B3C00F551000A0FE0F5C506F6ABEC00F0050127
:100B4C00F62BF651F325E96E000EF421EA6EEECF8A
:060B5C00F5F5EED71200D2
:100B62000501F66BF3C5E9FFF4C5EAFFEECFF5F533
:100B7200F551000A0EE0F5C5FFF55ADF0501F62B27
:100B8200F651F325E96E000EF421EA6EEECFF5F58B
:040B9200EFD7120087
:100B9600C7B409D01F0EC514016E0150000A03E147
:0A0BA600010E006E01D0006A12007B
:100BB0000B6A0A6A096A00500402F4CF09F0F3CF05
:100BC00008F001500502F4CF0BF0F3CF0AF000500B
:100BD0000502F3500926F4500A22E86A0B2201505C
:100BE0000402F3500926F4500A22E86A0B2208C0D6
:100BF00000F009C001F00AC002F00BC003F01200BF
:100C0000F3C5FFF50501FF33FF9FF4C500F6F5C5F9
:100C100001F67EEC01F0010E0501F315016E0150A5
:100C2000010A1BE1030EF425FF6F000EF5210601FA
:100C3000006F2E0E0501F66F350EF76F730EF86F0D
:100C4000F96BF60E0601016F050E026F040E036FBD
:100C5000000E046F0DEC01F01BD0030E0501F4250E
:100C6000FF6F000EF5210601006F2E0E0501FA6FD1
:100C7000300EFB6F730EFC6FFD6BFA0E0601016FF9
:100C8000050E026F040E036F000E046F0DEC01F0F1
:020C9000120050
:100C9200A69CF4C5AAFFF3C5A9FFA69EA680A8CF6D
:040CA20000F012004C
:100CA600F3C5FFF5F4C500F6060100330501FF3371
:100CB6000601009FF5C501F6F6C502F635EC01F012
:100CC600010E0501F315016EF4C502F0000E0216C1
:100CD600000E021802E1010E01181BE1050EF525B2
:100CE600FF6F000EF6210601006F2E0E0501F76F4D
:100CF600350EF86F730EF96FFA6BF70E0601016F7A
:100D0600050E026F040E036F000E046F0DEC01F06A
:100D16001BD0050E0501F525FF6F000EF621060115
:100D2600006F2E0E0501FB6F300EFC6F730EFD6F0C
:100D3600FE6BFB0E0601016F050E026F040E036FBC
:0A0D4600000E046F0DEC01F0120026
:100D5000010E0501FF6F000E0601006F34C201F69F
:100D6000F1EC00F0020E0501FF6F000E0601006FAE
:100D700098C201F6F1EC00F0030E0501FF6F000EC2
:100D80000601006F35C201F6F1EC00F0040E05011A
:100D9000FF6F000E0601006FA7C101F6F1EC00F035
:100DA000050E0501FF6F000E0601006F47C201F638
:100DB000F1EC00F0060E0501FF6F000E0601006F5A
:100DC000A4C101F6F1EC00F0070E0501FF6F000E63
:100DD0000601006FA5C101F6F1EC00F0080E050157
:100DE000FF6F000E0601006FA6C101F6F1EC00F0E6
:100DF000090E0501FF6F000E0601006F42C201F6E9
:100E0000F1EC00F00A0E0501FF6F000E0601006F05
:100E100096C201F6F1EC00F00B0E0501FF6F000E1B
:100E20000601006F95C201F6F1EC00F00C0E050111
:100E3000FF6F000E0601006F20C001F6F1EC00F01C
:100E40000D0E0501FF6F000E0601006F41C201F695
:100E5000F1EC00F00E0E0501FF6F000E0601006FB1
:100E60008FC101F6F1EC00F00F0E0501FF6F000ECF
:100E70000601006F99C201F6F1EC00F0100E0501B9
:100E8000FF6F000E0601006FA4C201F6F1EC00F046
:100E9000110E0501FF6F000E0601006FA3C201F6DF
:100EA000F1EC00F0120E0501FF6F000E0601006F5D
:100EB00090C101F6F1EC00F0130E0501FF6F000E7A
:100EC0000601006F1AC001F6F1EC00F0140E0501E6
:100ED000FF6F000E0601006F91C101F6F1EC00F00A
:100EE00020C0FFF590C100F61AC001F691C102F6CC
:060EF000B8EC01F0120055
:100EF600010E0501F36F000EF46FC8DE00C034F278
:100F0600020EF36F000EF46FC1DE00C098F2030EFE
:100F1600F36F000EF46FBADE00C035F2040EF36F05
:100F2600000EF46FB3DE00C0A7F1050EF36F000EDE
:100F3600F46FACDE00C047F2060EF36F000EF46FDE
:100F4600A5DE00C0A4F1070EF36F000EF46F9EDE5F
:100F560000C0A5F1080EF36F000EF46F97DE00C017
:100F6600A6F1090EF36F000EF46F90DE00C042F298
:100F76000A0EF36F000EF46F89DE00C095F2000EC4
:100F86000201966F95C296F2956B0B0E0501F36FF3
:100F9600000EF46F7BDE005002019513000E9613CF
:100FA6000C0E0501F36F000EF46F70DE00C020F02A
:100FB6000D0EF36F000EF46F69DE00C041F20E0EE7
:100FC600F36F000EF46F62DE00C08FF10F0EF36F49
:100FD600000EF46F5BDE00C099F2100EF36F000E88
:100FE600F46F54DE00C0A4F2110EF36F000EF46F1E
:100FF6004DDE00C0A3F2120EF36F000EF46F46DE54
:1010060000C090F1130EF36F000EF46F3FDE00C0C8
:101016001AF0140EF36F000EF46F38DE00C091F173
:1010260020C0FFF590C100F61AC001F600C002F616
:06103600B8EC01F012000D
:10103C00010E0301D925016E000EDA21026E01C0EA
:10104C00E9FF02C0EAFF0A0EEE24006E01C0E1FFC8
:10105C0002C0E2FF00C0E6FF030ED925016E000EB0
:10106C00DA21026E01C0E9FF02C0EAFF0A0EEE248B
:10107C00006E01C0E1FF02C0E2FF00C0E6FFD9C371
:10108C00E9FFDAC3EAFFEECF00F0D9C3E1FFDAC320
:10109C00E2FF0A0E0024E66E020ED925016E000E48
:1010AC00DA21026E01C0E9FF02C0EAFF0A0EEE244B
:1010BC00006E01C0E1FF02C0E2FF00C0E6FF040EBB
:1010CC00D925E16E000EDA21E26E040EE66E060EF4
:1010DC00D925E16E000EDA21E26E040EE66E080EE2
:1010EC00D925E16E000EDA21E26E040EE66E0A0ED0
:1010FC00D925E16E000EDA21E26E040EE66E050EC5
:10110C00D925E16E000EDA21E26E0A0EE66E090EAA
:10111C00D925E16E000EDA21E26E0A0EE66E070E9C
:10112C00D925E16E000EDA21E26E0A0EE66E0B0E88
:10113C00D925E16E000EDA21E26E0A0EE66E12007F
:10114C000301D951010A03E10001DF6B8196030110
:0E115C00D951020A03E10001E06B81981200F4
:10116A000301DE6B140EDE5D6DE2DEC300F0000EDD
:10117A00016E070E046E000E056E15DDA80E002620
:10118A00010E0122050E0024E96E000E0120EA6E0E
:10119A00EE50010A55E1DEC300F0000E016E070EA3
:1011AA00046E000E056EFFDCA80E0024E16E010E2F
:1011BA000120E26EDDC3E6FFDEC300F0000E016E21
:1011CA00070E046E000E056EEEDCA80E0026010E58
:1011DA000122010E0024E16E000E0120E26ED9C345
:1011EA00E6FFDAC3E6FFDBC3E6FFDCC3E6FFDEC3E6
:1011FA0000F0000E016E070E046E000E056ED3DCC1
:10120A00A80E0026010E0122050E0024E16E000E32
:10121A000120E26EE66ADEC300F0000E016E070EE0
:10122A00046E000E056EBFDCA80E0026010E012218
:10123A00060E0024E16E000E0120E26EE66A02D07C
:06124A00DE2B90D712001C
:1012500002019B510301D91905E102019B6B010EAB
:10126000006E120002019C510301D91905E102012F
:101270009C6B010E006E120002019D510301D919F1
:1012800005E102019D6B010E006E1200006A120062
:101290000301D96BDA6BDA51120802E1D9518E08D9
:1012A00008E379DC005201E004D00301D94BDA2BCA
:1012B000F2D70301120EDA5D02E18F0ED95D03E36E
:1012C0007B0E006E05D0C580C5A001D0FDD7006A99
:0212D00012000A
:1012D2000301DB5320E004C1F3F505C1F4F506C1B7
:1012E200F5F507C1F6F5DC0E0501F76F030EF86F91
:1012F20033EC05F0DC0EF36F030EF46F31DC3A0EC3
:101302000301E76F200EE86FE96BE70E0501F36F4B
:10131200030EF46F0ADCD9C3F3F5DAC3F4F505DC86
:101322000D0E0601066FABEC00F00A0E0601066F09
:06133200ABEC00F012001C
:101338000301D96B140ED95D50E2D9C300F0000E39
:10134800016E070E046E000E056E2EDCA80E002638
:10135800010E0122050E0024E96E000E0120EA6E3E
:10136800EE50000A38E1D9C300F0000E016E070EF6
:10137800046E000E056E18DCA80E0024E96E010E3E
:101388000120EA6EEECF01F00150090A24E1D9C329
:1013980000F0000E016E070E046E000E056E04DCF0
:1013A800A80E0026010E0122010E0024E96E000E8F
:1013B8000120EA6EEECFDAF3EECFDBF3EECFDCF30B
:1013C800EECFDDF3050E0024E16E000E0120E26E83
:1013D800010EE66E02D0D92BADD7010104510301ED
:1013E800DA5D016E01C0D9F3140E015C01E3D96B1B
:0613F800D9C300F0120051
:1013FE000301D96B140ED95D4BE2D9C300F0000E78
:10140E00016E070E046E000E056ED8EC05F0A80EE8
:10141E000026010E0122050E0024E96E000E0120A9
:10142E00EA6EEE50000A32E1D9C300F0000E016EF2
:10143E00070E046E000E056ED8EC05F0A80E002403
:10144E00E96E010E0120EA6EEECF01F00150090A9D
:10145E001DE1D9C300F0000E016E070E046E000EE2
:10146E00056ED8EC05F0A80E0026010E0122010E25
:10147E000024E96E000E0120EA6EEECFDAF3EECF15
:10148E00DBF3EECFDCF3EECFDDF302D0D92BB2D708
:10149E00140ED95D02E3D96B05D00101045103018D
:0A14AE00DA5DD96FD9C300F0120017
:1014B8000301DA6B140EDA5D44E2DAC300F0000EC1
:1014C800016E070E046E000E056ED8EC05F0A80E2E
:1014D8000026010E0122050E0024E96E000E0120EF
:1014E800EA6EEE50000A2BE1DAC300F0000E016E3E
:1014F800070E046E000E056ED8EC05F0A80E002449
:10150800E96E010E0120EA6EEECF01F00150D91903
:1015180016E0DAC300F0000E016E070E046E000E2E
:10152800056ED8EC05F0A80E0026010E0122050E66
:101538000024E16E000E0120E26E010EE66EDA2B49
:04154800B9D71200FD
:10154C00010E0301D925E96E000EDA21EA6EEECF09
:10155C0034F2D9C3E9FFDAC3EAFFEECF35F2DB513F
:10156C00020AD8A485D0030ED925E96E000EDA2123
:10157C00EA6EEECF98F2020ED925E96E000EDA2152
:10158C00EA6EEECFA7F1040ED925E96E000EDA2132
:10159C00EA6E080ED925D96E000EDA21DA6EDE500D
:1015AC00EE24036E046A000E042203C000F004C093
:1015BC0001F001320032019E01BC018E00C0A4F189
:1015CC00050ED925E96E000EDA21EA6E090ED92531
:1015DC00D96E000EDA21DA6EDE50EE24036E046A48
:1015EC00000E042203C000F004C001F001320032EE
:1015FC00019E01BC018E00C0A5F1060ED925E96E35
:10160C00000EDA21EA6E0A0ED925D96E000EDA2107
:10161C00DA6EDE50EE24036E046A000E042203C060
:10162C0000F004C001F001320032019E01BC018EB9
:10163C0000C0A6F1070ED925E96E000EDA21EA6E7C
:10164C000B0ED925D96E000EDA21DA6EDE50EE249F
:10165C00036E046A000E042203C000F004C001F003
:10166C0001320032019E01BC018E00C042F225D035
:10167C000201986B0101A76B040E0301D925E96ED9
:10168C00000EDA21EA6EEECFA4F1050ED925E96E33
:10169C00000EDA21EA6EEECFA5F1060ED925E96E21
:1016AC00000EDA21EA6EEECFA6F1070ED925E96E0F
:1016BC00000EDA21EA6EEECF42F2A8EC06F0120030
:1016CC000301D951010A05E101011D6B1E6B0201D9
:1016DC009F910301D951020A05E101011A6B1B6BA1
:0616EC0002019F931200B1
:1016F200140E0201346F140E356F140E986F140E0F
:101702000101A76F070E206E020E906F070E1A6E70
:10171200020E916F070E0501FF6F020E0601006FA8
:10172200070E016F020E026FB8EC01F00A0E010102
:10173200A56F040EA46F0A0E0201426F040E01018E
:10174200A66F0C0E0201476F956B966B01018F6BB2
:101752000201996BA46B416B010EA36FA8EC06F01A
:02176200120073
:10176400020E0001B46FA30E0501FF6F000E060107
:10177400006F940EF66E850EF76E000EF86ED90E9D
:10178400E16E030EE26E110E006E010E016E2BEC83
:1017940005F0D90E016F030E026F100E036F000ED9
:1017A400046F0DEC01F01E50000A69E1BD0E050145
:1017B400FF6F000E0601006FA50EF66E850EF76E24
:1017C400000EF86EEA0EE16E030EE26E110E006E6C
:1017D400010E016E2BEC05F0EA0E016F030E026F91
:1017E400100E036F000E046F0DEC01F0010E0001EA
:1017F400A26F1F50000A20E1A30E0501FF6F000E27
:101804000601006FB60EF66E850EF76E000EF86ECA
:10181400FB0EE16E030EE26E110E006E010E016E00
:101824002BEC05F0FB0E016F030E026F100E036F1D
:10183400000E046F0DEC01F01F50010A20E1A30E0D
:101844000501FF6F000E0601006FC70EF66E850ED0
:10185400F76E000EF86E0C0EE16E040EE26E110EC1
:10186400006E010E016E2BEC05F00C0E016F040EE0
:10187400026F100E036F000E046F0DEC01F01E508A
:10188400010A2CE1BD0E0501FF6F000E0601006F79
:10189400D80EF66E850EF76E000EF86E1D0EE16E14
:1018A400040EE26E110E006E010E016E2BEC05F0BB
:1018B4001D0E016F040E026F100E036F000E046FF5
:1018C4000DEC01F0010E0001A26F34C2F3F5A90E74
:1018D4000501F46F000EF56F00EC06F01E50020ACD
:1018E4002CE1BD0E0501FF6F000E0601006FE90E2D
:1018F400F66E850EF76E000EF86E2E0EE16E040E77
:10190400E26E110E006E010E016E2BEC05F02E0E30
:10191400016F040E026F100E036F000E046F0DECC6
:1019240001F0010E0001A26F98C2F3F5A90E0501A2
:10193400F46F000EF56F00EC06F01E50030A2CE164
:10194400BD0E0501FF6F000E0601006FFA0EF66E64
:10195400850EF76E000EF86E3F0EE16E040EE26E19
:10196400110E006E010E016E2BEC05F03F0E016F9F
:10197400040E026F100E036F000E046F0DEC01F0E5
:10198400010E0001A26F35C2F3F5A90E0501F46F33
:10199400000EF56F00EC06F01E50040A2CE1BD0E9B
:1019A4000501FF6F000E0601006F0B0EF66E860E2A
:1019B400F76E000EF86E500EE16E040EE26E110E1C
:1019C400006E010E016E2BEC05F0500E016F040E3B
:1019D400026F100E036F000E046F0DEC01F0010E88
:1019E4000001A26FA7C1F3F5A90E0501F46F000E63
:1019F400F56F00EC06F01E50050A2CE1BD0E050142
:101A0400FF6F000E0601006F1C0EF66E860EF76E59
:101A1400000EF86E610EE16E040EE26E110E006EA1
:101A2400010E016E2BEC05F0610E016F040E026FC6
:101A3400100E036F000E046F0DEC01F0010E000197
:101A4400A26FA4C1F3F5A90E0501F46F000EF56FA2
:101A540000EC06F01E50060A2CE1BD0E0501FF6FD6
:101A6400000E0601006F2D0EF66E860EF76E000E48
:101A7400F86E720EE16E040EE26E110E006E010E2F
:101A8400016E2BEC05F0720E016F040E026F100E46
:101A9400036F000E046F0DEC01F0010E0001A26F44
:101AA400A5C1F3F5A90E0501F46F000EF56F00EC66
:101AB40006F01E50070A2CE1BD0E0501FF6F000E53
:101AC4000601006F3E0EF66E860EF76E000EF86E7F
:101AD400830EE16E040EE26E110E006E010E016EB5
:101AE4002BEC05F0830E016F040E026F100E036FD2
:101AF400000E046F0DEC01F0010E0001A26FA6C1EF
:101B0400F3F5A90E0501F46F000EF56F00EC06F075
:101B14001E50080A2CE1BD0E0501FF6F000E0601E0
:101B2400006F4F0EF66E860EF76E000EF86E940E72
:101B3400E16E040EE26E110E006E010E016E2BECCE
:101B440005F0940E016F040E026F100E036F000E69
:101B5400046F0DEC01F0010E0001A26F42C2F3F517
:101B6400A90E0501F46F000EF56F00EC06F01E508F
:101B7400090A6EE1BD0E0501FF6F000E0601006F3C
:101B8400600EF66E860EF76E000EF86EA50EE16E10
:101B9400040EE26E110E006E010E016E2BEC05F0C8
:101BA400A50E016F040E026F100E036F000E046F7A
:101BB4000DEC01F0010E0001A26F20C0FFF5A60E8E
:101BC4000601006F000E016F7EEC01F02050070843
:101BD40020E2AA0E0501FF6F000E0601006F320E0F
:101BE4000401B66F350EB76F300EB86F4B0EB96F78
:101BF400670EBA6F2D0EBB6FBC6BB60E0601016F7C
:101C0400040E026F060E036F000E046F0DEC01F05C
:101C14001FD0AA0E0501FF6F000E0601006F320EE1
:101C24000401BD6F350EBE6F300EBF6F4B0EC06F1B
:101C3400670EC16F2B0EC26FC36BBD0E0601016F21
:101C4400040E026F060E036F000E046F0DEC01F01C
:101C54001E500A0A6EE1BD0E0501FF6F000E06015B
:101C6400006F7F0EF66E860EF76E000EF86EC40ED1
:101C7400E16E040EE26E110E006E010E016E2BEC8D
:101C840005F0C40E016F040E026F100E036F000EF8
:101C9400046F0DEC01F0010E0001A26F1AC0FFF5F4
:101CA400A60E0601006F000E016F7EEC01F01A50C3
:101CB400070820E2AA0E0501FF6F000E0601006F5F
:101CC400320E0401D56F350ED66F300ED76F4B0E22
:101CD400D86F670ED96F2D0EDA6FDB6BD50E060148
:101CE400016F040E026F060E036F000E046F0DECFD
:101CF40001F01FD0AA0E0501FF6F000E0601006F50
:101D0400320E0401DC6F350EDD6F300EDE6F4B0ECC
:101D1400DF6F670EE06F2B0EE16FE26BDC0E0601E6
:101D2400016F040E026F060E036F000E046F0DECBC
:101D340001F01E500B0A2CE1BD0E0501FF6F000ED1
:101D44000601006F9E0EF66E860EF76E000EF86E9C
:101D5400E30EE16E040EE26E110E006E010E016ED2
:101D64002BEC05F0E30E016F040E026F100E036FEF
:101D7400000E046F0DEC01F0010E0001A26F90C182
:101D8400F3F5A90E0501F46F000EF56F00EC06F0F3
:101D94001E500C0A2CE1BD0E0501FF6F000E06015A
:101DA400006FAF0EF66E860EF76E000EF86EF40E30
:101DB400E16E040EE26E110E006E010E016E2BEC4C
:101DC40005F0F40E016F040E026F100E036F000E87
:101DD400046F0DEC01F0010E0001A26F91C1F3F547
:101DE400A90E0501F46F000EF56F00EC06F01E500D
:101DF4000D0A2CE1BD0E0501FF6F000E0601006FF8
:101E0400C00EF66E860EF76E000EF86E050EE16ECD
:101E1400050EE26E110E006E010E016E2BEC05F044
:101E2400050E016F050E026F100E036F000E046F96
:101E34000DEC01F0010E0001A26F47C2F3F5A90EEB
:101E44000501F46F000EF56F00EC06F01E500E0A4B
:101E54002EE1BD0E0501FF6F000E0601006FD10ECD
:101E6400F66E860EF76E000EF86E160EE16E050E17
:101E7400E26E110E006E010E016E2BEC05F0160ED3
:101E8400016F050E026F100E036F000E046F0DEC50
:101E940001F0010E0001A26F95C2F3F596C2F4F5AC
:101EA400A70E0501F56F000EF66F53EC06F01E50F9
:101EB4000F0A23E1BD0E0501FF6F000E0601006F3E
:101EC400E20EF66E860EF76E000EF86E270EE16EC9
:101ED400050EE26E110E006E010E016E2BEC05F084
:101EE400270E016F050E026F100E036F000E046FB4
:101EF4000DEC01F0010E0001A26F1E50100A6CE1FE
:101F0400BD0E0501FF6F000E0601006FF30EF66EA5
:101F1400860EF76E000EF86E380EE16E050EE26E58
:101F2400110E006E010E016E2BEC05F0380E016FE0
:101F3400050E026F100E036F000E046F0DEC01F01E
:101F4400010E0001A26F02019951000A22E1A90EBB
:101F54000501FF6F000E0601006F4E0E0501496F6B
:101F64006F0E4A6F200E4B6F200E4C6F200E4D6F7C
:101F7400200E4E6F200E4F6F506B490E0601016FFD
:101F8400050E026F070E036F000E046F0DEC01F0D7
:101F940023D0A90E0501FF6F000E0601006F590E34
:101FA4000501516F650E526F730E536F200E546FFF
:101FB400200E556F200E566F200E576F200E586F4F
:101FC400596B510E0601016F050E026F080E036F67
:101FD400000E046F0DEC01F01E50110A6CE1BD0EF1
:101FE4000501FF6F000E0601006F150EF66E870ED9
:101FF400F76E000EF86E5A0EE16E050EE26E110ECB
:10200400006E010E016E2BEC05F05A0E016F050EE9
:10201400026F100E036F000E046F0DEC01F0010E41
:102024000001A26F0201A451000A22E1A90E0501D8
:10203400FF6F000E0601006F4E0E05016B6F6F0EF1
:102044006C6F200E6D6F200E6E6F200E6F6F200E62
:10205400706F200E716F726B6B0E0601016F050EAF
:10206400026F070E036F000E046F0DEC01F023D016
:10207400A90E0501FF6F000E0601006F590E050140
:10208400736F650E746F730E756F200E766F200E6E
:10209400776F200E786F200E796F200E7A6F7B6B2E
:1020A400730E0601016F050E026F080E036F000E1A
:1020B400046F0DEC01F01E50120A6CE1BD0E050117
:1020C400FF6F000E0601006F370EF66E870EF76E77
:1020D400000EF86E7C0EE16E050EE26E110E006EBF
:1020E400010E016E2BEC05F07C0E016F050E026FE4
:1020F400100E036F000E046F0DEC01F0010E0001D1
:10210400A26F0201A351000A22E1A90E0501FF6F8B
:10211400000E0601006F4E0E05018D6F6F0E8E6F5F
:10212400200E8F6F200E906F200E916F200E926FF5
:10213400200E936F946B8D0E0601016F050E026FD6
:10214400070E036F000E046F0DEC01F023D0A90EEF
:102154000501FF6F000E0601006F590E0501956F12
:10216400650E966F730E976F200E986F200E996F01
:10217400200E9A6F200E9B6F200E9C6F9D6B950E08
:102184000601016F050E026F080E036F000E046F47
:102194000DEC01F01E50130A6CE1BD0E0501FF6F3A
:1021A400000E0601006F590EF66E870EF76E000ED4
:1021B400F86E9E0EE16E050EE26E110E006E010EBB
:1021C400016E2BEC05F09E0E016F050E026F100ED2
:1021D400036F000E046F0DEC01F0010E0001A26FFD
:1021E40001018F51000A22E1A90E0501FF6F000EC3
:1021F4000601006F4E0E0501AF6F6F0EB06F200E1B
:10220400B16F200EB26F200EB36F200EB46F200E8C
:10221400B56FB66BAF0E0601016F050E026F070EA8
:10222400036F000E046F0DEC01F023D0A90E05011D
:10223400FF6F000E0601006F590E0501B76F650EA2
:10224400B86F730EB96F200EBA6F200EBB6F200EDD
:10225400BC6F200EBD6F200EBE6FBF6BB70E0601A4
:10226400016F050E026F080E036F000E046F0DEC74
:1022740001F01E50140A2CE1BD0E0501FF6F000E83
:102284000601006F7B0EF66E870EF76E000EF86E79
:10229400C00EE16E050EE26E110E006E010E016EAF
:1022A4002BEC05F0C00E016F050E026F100E036FCC
:1022B400000E046F0DEC01F0010E0001A26F41C28B
:1022C400F3F5A90E0501F46F000EF56F00EC06F0AE
:1022D4001E50150A23E1BD0E0501FF6F000E060115
:1022E400006F8C0EF66E870EF76E000EF86ED10E30
:1022F400E16E050EE26E110E006E010E016E2BEC06
:1023040005F0D10E016F050E026F100E036F000E63
:10231400046F0DEC01F0010E0001A26F1E50160AAD
:1023240023E1BD0E0501FF6F000E0601006F9D0E37
:10233400F66E870EF76E000EF86EE20EE16E050E75
:10234400E26E110E006E010E016E2BEC05F0E20E32
:10235400016F050E026F100E036F000E046F0DEC7B
:1023640001F0010E0001A26F650E0101446F12001D
:102374000301D951000A04E0DA51000A01E002D055
:10238400F28801D0F298D9C3B5F0DAC3B8F01200DC
:102394000301D951010A17E1DAB102D0829201D0C6
:1023A4008282060E0B6E130E0C6EAD0E0D6E0D2E8C
:1023B400FED70C2EFCD70B2EFAD700000000010E1E
:1023C4000001DF6F81860301D951020A17E1DAB1F6
:1023D40002D0829001D08280060E0B6E130E0C6E1A
:1023E400AD0E0D6E0D2EFED70C2EFCD70B2EFAD78C
:0E23F40000000000010E0001E06F8188120061
:102402009E96D9C3C9FFC7A401D0FDD79EB601D0FD
:10241200FDD7C5BC02D0006A03D0C584020E006E8F
:022422001200A6
:04242400C584120059
:10242800D9C3FFF50501FF33FF9FDAC300F6DBC30D
:1024380001F67EEC01F0030E0301DA250501FF6FBA
:10244800000E0301DB210601006F730E0301DC6F30
:10245800200EDD6F200EDE6FDF6BDC0E0601016FD4
:10246800030E026F040E036F000E046F0DEC01F0F3
:02247800120050
:10247A00C26A070EC012C08ED9C300F0003600909F
:10248A00003600900050C212C28026EC05F0C282CB
:10249A00C2A201D0FDD7C4CF01F0006AC350001216
:0824AA00000E0112C2901200A5
:1024B20083A003D083A201D003D0010E006E1200CC
:0424C200006A12009A
:1024C6000201BF6B83B801D0BF8183BA01D0BF833D
:0624D600BFC200F012007D
:1024DC000201C36B050EC35D0AE2C351C125E16E57
:1024EC00000EC221E26E300EE66EC32BF3D7C35141
:1024FC00C125E16E000EC221E26EE66AC307000E32
:10250C00C01902E1000EBF192CE0C351C125C46FE4
:10251C00000EC221C56F0A0E046E000E056EBFC2FE
:10252C0000F0C0C201F0C7EC00F008C000F009C018
:10253C0001F0300E0026C4C2E1FFC5C2E2FF00C0AC
:10254C00E6FFC3070A0E046E000E056EBFC200F054
:10255C00C0C201F0C7EC00F000C0BFF201C0C0F275
:04256C00CED71200B4
:102570000201C06BC16BC26B83BA02D0C28101D0B1
:10258000C29184B002D0C28301D0C29383B802D07A
:10259000C28501D0C295C251000A15E12D50000A32
:1025A00005E1646B826B2D6ABF6B946B2D50010A41
:1025B0000AE1050E00018F5D06E30201646B826B88
:1025C0002D6ABF6B946B02016451010A0EE1000198
:1025D000BB51905D0AE3010E0201946F0001906B04
:1025E000190E0201825D01E2822B0201C251000A32
:1025F00024E02D50010A21E16451000A1EE1020E7F
:102600006025016E000E6121026E000E6221036ED4
:10261000000E6321046E01010751041808E1065100
:10262000031805E10551021802E10451011805E102
:10263000010E0201646F0001906B0201C251000A99
:1026400007E02D50010A04E16451000A01E1BF6B6B
:10265000C251000A0BE02D50010A08E16451010A41
:1026600005E1C2519403F3CFBFF2946BC251000A4B
:1026700011E02D50000A0EE1C2C2BFF2010E2D6E14
:1026800004C160F205C161F206C162F207C163F2E2
:1026900000018F6B0201BF51000A03E0010E01012E
:0826A0001C6FBFC200F0120024
:1026A8000201C36BC46BBF51010A03E1C051800F23
:1026B800C46FBF51020A03E1C051C00FC46F48EC98
:1026C80009F07C0E0301D96F98DE800E0301D96FE3
:1026D80094DEC4C2D9F391DE400E0301D96F8DDEBA
:1026E8000201C351C125E96E000EC221EA6EEE5007
:1026F8000A0A0FE0C35110080CE3C351C125E96E63
:10270800000EC221EA6EEECFD9F377DE0201C32BA9
:10271800E7D784DE0D0E0C6EFB0E0D6E0D2EFED768
:0A2728000C2EFCD700000000120088
:102732000201BF6B2BB002D0BF9101D0BF812CB080
:1027420002D0BF9301D0BF832B6A2C6A140E010101
:10275200445D0FE20201BFB104D09AB502D0BF912D
:1027620001D0BF81BFB304D09AB102D0BF9301D0D0
:08277200BF83BFC200F012009A
:10277A000201C06BC16B3F0EBF15026E02C0BFF2F1
:10278A00540EC06F02C000F00032009E0032009E5C
:10279A000032009E0032009E540E0010C06F700E70
:1027AA00C16F0F0E0214006E700E0010C16F48EC5C
:1027BA0009F07C0E0301D96F1FDE800E0301D96F69
:1027CA001BDEC0C2D9F318DE800E0301D96F14DEF6
:1027DA00C1C2D9F311DE21DE0D0E0C6EFB0E0D6E99
:0E27EA000D2EFED70C2EFCD7000000001200B2
:1027F80002019AA302D000018E2B00018E51010A1A
:1028080023E1BD0E0501FF6F000E0601006F4E0E9D
:10281800016F000E026F100E036F000E046F0DECB7
:1028280001F0A30E0501FF6F000E0601006F5E0E9A
:10283800016F000E026F100E036F000E046F0DEC97
:1028480001F0010E0001A26F8E51020A23E1BD0EB4
:102858000501FF6F000E0601006F6E0E016F000E7E
:10286800026F100E036F000E046F0DEC01F0A30E43
:102878000501FF6F000E0601006F7E0E016F000E4E
:10288800026F100E036F000E046F0DEC01F0010EC5
:102898000001A26F8E51030A03E1640E0101446F27
:0228A80012001C
:1028AA0048EC09F07C0E0301D96FA6DD800E030106
:1028BA00D96FA2DD0201BF51020A04E1380E0301F9
:1028CA00D96F9ADD0201BF51010A04E1340E0301F6
:1028DA00D96F92DD800E0301D96F8EDD0201BF51DF
:1028EA00020A04E1390E0301D96F86DD0201BF51E4
:1028FA00010A04E1350E0301D96F7EDD800E030162
:10290A00D96F7ADD1C0E0301D96F76DD800E0301C3
:10291A00D96F72DD720E0301D96F6EDD800E03016D
:10292A00D96F6ADD550E0301D96F66DD800E03018A
:10293A00D96F62DD6C0E0301D96F5EDD800E030173
:10294A00D96F5ADD0C0E0301D96F56DD800E0301D3
:10295A00D96F52DD010E0301D96F4EDD800E0301DE
:10296A00D96F4ADD060E0301D96F46DD800E0301D9
:10297A00D96F42DD020E0301D96F3EDD4EDD120032
:10298A00949894968B988B9694889486C79EC79CA5
:06299A00380EC66E1200AB
:1029A000010E1D6E02019AA31CD01D6A1B6A650EE2
:1029B0000101446FB2EC0BF01E50000A12E102015B
:1029C000976B1F50000A05E1C80E0101446F010E0C
:1029D0001C6E1F50010A05E10101C90E446F010E72
:1029E0001C6E1E50000A16E102019AA108D01F5069
:1029F000000805E21F06B2EC0BF0660E446F020100
:102A00009AA508D0010E1F5C05E21F2AB2EC0BF05C
:102A1000660E446F1E50010A16E102019AA108D009
:102A20003451000805E23407B2EC0BF0660E446F37
:102A300002019AA508D0FF0E345D05E2342BB2ECFA
:102A40000BF0660E446F1E50020A16E102019AA1B5
:102A500008D09851000805E29807B2EC0BF0660E1A
:102A6000446F02019AA508D0FF0E985D05E2982BED
:102A7000B2EC0BF0660E446F1E50030A16E1020121
:102A80009AA108D03551000805E23507B2EC0BF0E9
:102A9000660E446F02019AA508D0FF0E355D05E26F
:102AA000352BB2EC0BF0660E446F1E50040A18E191
:102AB00002019AA109D00101A751000805E2A70768
:102AC000B2EC0BF0660E446F02019AA509D0FF0E1E
:102AD0000101A75D05E2A72BB2EC0BF0660E446F77
:102AE0001E50050A18E102019AA109D00101A45162
:102AF000000805E2A407B2EC0BF0660E446F020179
:102B00009AA509D0FF0E0101A45D05E2A42BB2EC49
:102B10000BF0660E446F1E50060A18E102019AA1DE
:102B200009D00101A551000805E2A507B2EC0BF0A0
:102B3000660E446F02019AA509D0FF0E0101A55D42
:102B400005E2A52BB2EC0BF0660E446F1E50070A8F
:102B500018E102019AA109D00101A651000805E27D
:102B6000A607B2EC0BF0660E446F02019AA509D0DD
:102B7000FF0E0101A65D05E2A62BB2EC0BF0660E7E
:102B8000446F1E50080A16E102019AA108D0425172
:102B9000000805E24207B2EC0BF0660E446F02013A
:102BA0009AA508D0FF0E425D05E2422BB2EC0BF075
:102BB000660E446F1E50090A16E102019AA108D060
:102BC0002050010805E22006B2EC0BF0660E446FBF
:102BD00002019AA508D00F0E205C05E2202AB2EC73
:102BE0000BF0660E446F1E500A0A16E102019AA10C
:102BF00008D01A50010805E21A06B2EC0BF0660E76
:102C0000446F02019AA508D00F0E1A5C05E21A2A39
:102C1000B2EC0BF0660E446F1E500B0A18E1020175
:102C20009AA109D001019051000805E29007B2EC89
:102C30000BF0660E446F02019AA509D00A0E01013D
:102C4000905D05E2902BB2EC0BF0660E446F1E50C7
:102C50000C0A18E102019AA109D001019151000862
:102C600005E29107B2EC0BF0660E446F02019AA5E3
:102C700009D00A0E0101915D05E2912BB2EC0BF037
:102C8000660E446F1E500D0A16E102019AA108D08B
:102C90004751000805E24707B2EC0BF0660E446F9F
:102CA00002019AA508D0FF0E475D05E2472BB2EC62
:102CB0000BF0660E446F1E500E0A22E102019AA12B
:102CC00010D0000E006E9651005C02E19551000894
:102CD00008E2010E955F000E965BB2EC0BF0660EFB
:102CE000446F02019AA50CD0FD0E965D02E1E80E3C
:102CF000955D06E2954B962BB2EC0BF0660E446F99
:102D00001E500F0A1FE10101446BBD0E0501FF6F4C
:102D1000000E0601006F920E016F010E026F100E81
:102D2000036F000E046F0DEC01F0010E0001B46F93
:102D30001D6A1B6A010EA26F010E1C6E79EC0BF06E
:102D4000A8EC06F01E50100A16E102019AA108D064
:102D50009951000805E29907B2EC0BF0660E446F3A
:102D600002019AA508D0010E995D05E2992BB2ECFB
:102D70000BF0660E446F1E50110A16E102019AA173
:102D800008D0A451000805E2A407B2EC0BF0660ECF
:102D9000446F02019AA508D0010EA45D05E2A42BA0
:102DA000B2EC0BF0660E446F1E50120A16E10201DF
:102DB0009AA108D0A351000805E2A307B2EC0BF0DA
:102DC000660E446F02019AA508D0010EA35D05E2CC
:102DD000A32BB2EC0BF0660E446F1E50130A18E1E1
:102DE00002019AA109D001018F51000805E28F0765
:102DF000B2EC0BF0660E446F02019AA509D0010EE9
:102E000001018F5D05E28F2BB2EC0BF0660E446F73
:102E10001E50140A1FE102019AA10CD04151000872
:102E200009E241074151090A01E1416BB2EC0BF0A3
:102E3000660E446F02019AA50DD0FF0E415D0AE2B5
:102E4000412B4151010A02E10A0E416FB2EC0BF035
:102E5000660E446F1E50150A1BE10101670E446F98
:102E6000BD0E0501FF6F000E0601006F920E016F8F
:102E7000010E026F100E036F000E046F0DEC01F0D7
:102E80001D6A010E0001B46F010EA26F010E1C6ECF
:102E90001E50160A1CE10101446BBD0E0501FF6FB7
:102EA000000E0601006F920E016F010E026F100EF0
:102EB000036F000E046F0DEC01F01D6A010E00019E
:102EC000B46F010EA26F7BEC07F0010E1C6E1200B6
:102ED00002019AA10AD01E50000A03E1160E1E6ECE
:102EE00001D01E06640E0101446F02019AA509D0AB
:102EF0001E50160A02E11E6A01D01E2A640E01014C
:102F0000446F02019AA303D0660E0101446F0201CF
:102F10009A51050A2AE1BD0E0501FF6F000E060158
:102F2000006F2E0E016F000E026F100E036F000E69
:102F3000046F0DEC01F000018E6BA30E0501FF6F15
:102F4000000E0601006F3E0E016F000E026F100EA4
:102F5000036F000E046F0DEC01F0020E0001B46F60
:0C2F6000010EA26FFA0E0101446F120076
:102F6C00560E0201516F010E526F060E536F060E74
:102F7C00546FFF0E4D6FFF0E4E6F000E4F6F000E15
:102F8C00506FFF0E496FFF0E4A6F000E4B6F000E15
:102F9C004C6FFF0E556FFF0E566F000E576F000EE5
:102FAC00586FAC8A900EAB6E948E949C9EAA03D0F4
:082FBC00AECF00F0FBD71200BC
:102FC4000201BF6B0301D96B3DEC12F000C05BF250
:102FD40001C05CF2010E0301D96F3DEC12F000C098
:102FE40059F201C05AF20001B951000A03E101018A
:102FF4001D6B1E6B0001B651000A03E101011A6B3F
:103004001B6B0001B551000A22E001018A51020143
:103014005C5D04E10101895102015B5D0AE2FF0E7E
:1030240001011E5D02E1FA0E1D5D02E21D4B1E2B25
:103034000DD00101000E006E1E51005C02E11D5115
:10304400000804E2010E1D5F000E1E5B03D00101A7
:103054001D6B1E6B1E518C5D02E11D518B5D02E2E6
:103064000201BF810001B851000A22E001018E5122
:1030740002015A5D04E101018D510201595D0AE228
:10308400FF0E01011B5D02E1FA0E1A5D02E21A4B0A
:103094001B2B0DD00101000E006E1B51005C02E1E0
:1030A4001A51000804E2010E1A5F000E1B5B03D0E4
:1030B40001011A6B1B6B1B51A35D02E11A51A25D46
:0C30C40002E20201BF83BFC200F0120054
:1030D000838E010E0001BC6F010E0301D96F28EC35
:1030E00009F000522DE0010E0301D96FDA6BCAEC32
:1030F00011F0530E0201BF6F370EC06F200EC16F6B
:103100004D0EC26F6F0EC36F740EC46F6F0EC56F1E
:10311000720EC66F310EC76F530EC86F740EC96F33
:10312000610ECA6F720ECB6F740ECC6FCD6BBF0E7B
:103130000301D96F020EDA6F010EDB6F69EC09F043
:10314000020E0301D96F28EC09F0005252E0020E82
:103150000301D96FDA6BCAEC11F0530E0201CE6F86
:10316000370ECF6F200ED06F4D0ED16F6F0ED26F16
:10317000740ED36F6F0ED46F720ED56F320ED66F82
:10318000530ED76F740ED86F610ED96F720EDA6F4F
:10319000740EDB6FDC6BCE0E0301D96F020EDA6F9B
:1031A000010EDB6F69EC09F0BD0E0501FF6F000E2B
:1031B0000601006FF30E016F000E026F100E036F19
:1031C000000E046F0DEC01F0A30E0501FF6F000E61
:1031D0000601006F910E016F000E026F100E036F5B
:1031E000000E046F0DEC01F0010E0001A26F010E44
:1031F000B46F0A0E0301D96F28EC09F0005221E0E8
:10320000010E0001B96F010E0301D96F66EC0BF0DE
:10321000410EF66E8C0EF76E000EF86EDD0EE16E4E
:10322000020EE26E150E006E010E016E2BEC05F023
:10323000DD0E0301D96F020EDA6F010EDB6F69EC50
:1032400009F00B0E0301D96F28EC09F0005221E0C0
:10325000010E0001B66F020E0301D96F66EC0BF090
:10326000560EF66E8C0EF76E000EF86EF20EE16ED4
:10327000020EE26E150E006E010E016E2BEC05F0D3
:10328000F20E0301D96F020EDA6F010EDB6F69ECEB
:1032900009F0050E0301D96F28EC09F000522FE068
:1032A000010E0301D96FB8C0DAF3BAEC11F00001D6
:1032B000BA6B530E0301076F370E086F200E096FAC
:1032C0004D0E0A6F310E0B6F200E0C6F530E0D6FEB
:1032D000700E0E6F650E0F6F650E106F640E116F1E
:1032E000200E126F550E136F500E146F156B070ED4
:1032F000D96F030EDA6F010EDB6F69EC09F0060E71
:103300000301D96F28EC09F000522FE0B5C0D9F3C2
:10331000010E0301DA6FBAEC11F00001B76B530E26
:103320000301166F370E176F200E186F4D0E196FB1
:10333000320E1A6F200E1B6F530E1C6F700E1D6F16
:10334000650E1E6F650E1F6F640E206F200E216FBD
:10335000550E226F500E236F246B160ED96F030E7D
:10336000DA6F010EDB6F69EC09F0030E0301D96F10
:1033700028EC09F0005209E10001B951010A04E109
:1033800002019FA101D001D02BD001011FA128D0A3
:103390001F91010E0301D96FA6EC08F0530E030133
:1033A000256F370E266F200E276F4D0E286F310EBA
:1033B000296F200E2A6F530E2B6F740E2C6F6F0E19
:1033C0002D6F700E2E6F650E2F6F640E306F316B88
:1033D000250ED96F030EDA6F010EDB6F69EC09F071
:1033E000040E0301D96F28EC09F0005209E1000135
:1033F000B651010A04E102019FA301D001D02BD0F4
:1034000001011FA328D01F93020E0301D96FA6EC60
:1034100008F0530E0301326F370E336F200E346FF6
:103420004D0E356F320E366F200E376F530E386FDC
:10343000740E396F6F0E3A6F700E3B6F650E3C6FF6
:10344000640E3D6F3E6B320ED96F030EDA6F010EC4
:10345000DB6F69EC09F002019851000A05E00101F7
:103460003251010A01E002D001011F930201A0A123
:1034700055D0010E0301D96FA6EC08F0020E03012E
:10348000D96FA6EC08F00001B96BB66B060E01010E
:10349000446F010E206FA30EF66E8C0EF76E000EB9
:1034A000F86E3F0EE16E030EE26E110E006E010E1D
:1034B000016E2BEC05F03F0E0301D96F030EDA6F9E
:1034C000010EDB6F69EC09F0090E0301D96F5CECAA
:1034D0000AF0BD0E0501FF6F000E0601006F560ECB
:1034E000016F010E026F100E036F000E046F0DECE2
:1034F00001F0A30E0501FF6F000E0601006F330EF1
:10350000016F010E026F100E036F000E046F0DECC1
:1035100001F0010E0001A26F020EB46F02019E5174
:10352000000A53E0010E0301D96FA6EC08F0020E69
:103530000301D96FA6EC08F0060E0101446F0001EB
:10354000B96BB66BB40EF66E8C0EF76E000EF86E9D
:10355000500EE16E030EE26E120E006E010E016E51
:103560002BEC05F0500E0301D96F030EDA6F010E3C
:10357000DB6F69EC09F0090E0301D96F5CEC0AF00E
:10358000BD0E0501FF6F000E0601006F560E016FA4
:10359000010E026F100E036F000E046F0DEC01F0B0
:1035A000A30E0501FF6F000E0601006F670E016F8D
:1035B000010E026F100E036F000E046F0DEC01F090
:1035C000010E0001A26F020EB46F0201A151010AA7
:1035D00055E1A45353E0010E0301D96FA6EC08F0A6
:1035E000020E0301D96FA6EC08F0060E0101446F2C
:1035F0000001B96BB66BC60EF66E8C0EF76E000E40
:10360000F86E620EE16E030EE26E150E006E010E94
:10361000016E2BEC05F0620E0301D96F030EDA6F19
:10362000010EDB6F69EC09F0090E0301D96F5CEC48
:103630000AF0BD0E0501FF6F000E0601006F560E69
:10364000016F010E026F100E036F000E046F0DEC80
:1036500001F0A30E0501FF6F000E0601006F780E4A
:10366000016F010E026F100E036F000E046F0DEC60
:1036700001F0010E0001A26F020EB46F01011F5193
:10368000000AD8A4A7D00201A353D8B489D0010E50
:103690000301D96F010EDA6FCAEC11F0010E0101BE
:1036A00004250301D96F000E010105210301DA6F22
:1036B000000E010106210301DB6F000E010107214D
:1036C0000301DC6F0E0EDD6FB5EC08F0010ED96F53
:1036D000B8C0DAF3BAEC11F00001B96BBA6BB5C03F
:1036E000D9F3010E0301DA6FBAEC11F00001B66BE9
:1036F000B76B010E010104250301D96F000E010112
:1037000005210301DA6F000E010106210301DB6FC1
:10371000000E010107210301DC6F030EDD6FB5EC24
:1037200008F0010E010104250301D96F000E01010B
:1037300005210301DA6F000E010106210301DB6F91
:10374000000E010107210301DC6F010ED927000ED5
:10375000DA23DB23DC23040EDD6FB5EC08F0010E69
:10376000010104250301D96F000E010105210301A8
:10377000DA6F000E010106210301DB6F000E01016B
:1037800007210301DC6F010ED927000EDA23DB23AA
:10379000DC230D0EDD6FB5EC08F001011F851AD09A
:1037A0000101010E04250301D96F000E010105215D
:1037B0000301DA6F000E010106210301DB6F000E29
:1037C000010107210301DC6F0D0EDD6FB5EC08F080
:1037D00001011F850E0E0301D96F28EC09F000527C
:1037E00007E0020E0301D96F010EDA6FCAEC11F087
:1037F0000D0E0301D96F28EC09F000522EE0010EE6
:103800000101446F086B090E0301D96F5CEC0AF0EB
:10381000BD0E0501FF6F000E0601006F210E016F46
:10382000010E026F100E036F000E046F0DEC01F01D
:10383000A30E0501FF6F000E0601006F910E016FD0
:10384000000E026F100E036F000E046F0DEC01F0FE
:10385000010E0001A26F010EB46F01014451050A6F
:1038600004E04451060A01E051D00301D96B5CEC3D
:103870000AF0000E0201961902E1000E951946E0C9
:103880009551010104250301D96F020196510101EF
:1038900005210301DA6F000E010106210301DB6F30
:1038A000000E010107210301DC6F090EDD6FB5EC8D
:1038B00008F0DB0EF66E8C0EF76E000EF86E770ECB
:1038C000E16E030EE26E150E006E010E016E2BEC22
:1038D00005F0770ED96F030EDA6F010EDB6F69EC1E
:1038E00009F0A30E0501FF6F000E0601006FE20E46
:1038F000016F000E026F100E036F000E046F0DECCF
:0E39000001F0010E0001A26F020EB46F120062
:10390E000BD2838E02019EA106D0020E656F972BFD
:10391E00010E01011C6F02019EA307D0010E656FFF
:10392E00030E976F010E01011C6F0001B96BB66B90
:10393E002CD2020E0301D96FDA6BCAEC11F0060E0F
:10394E00010104250301D96F000E010105210301B8
:10395E00DA6F000E010106210301DB6F000E01017B
:10396E0007210301DC6F150EDD6FB5EC08F00201C7
:10397E00972B0BD29FA30CD00001B651010A08E180
:10398E00B66B020E0301D96FA6EC08F00201972B5D
:10399E00150E0301D96F28EC09F0005203E0010E59
:1039AE000001B66FF2D1010E0301D96FDA6BCAECCA
:1039BE0011F0060E010104250301D96F000E01015D
:1039CE0005210301DA6F000E010106210301DB6FF1
:1039DE00000E010107210301DC6F140EDD6FB5EC43
:1039EE0008F00201972B9FA10CD00001B951010ADA
:1039FE0008E1B96B010E0301D96FA6EC08F00201C4
:103A0E00972B140E0301D96F28EC09F0005203E036
:103A1E00010E0001B96FB9D104C166F205C167F29A
:103A2E0006C168F207C169F2010E0301D96F010EDA
:103A3E00DA6FCAEC11F0060E010104250301D96FED
:103A4E00000E010105210301DA6F000E01010621AE
:103A5E000301DB6F000E010107210301DC6F140E61
:103A6E00DD6FB5EC08F00201972B8FD19FA118D016
:103A7E000001B951010A14E1B96B010E0301D96FAE
:103A8E00A6EC08F002016551010A03E10B0E976FD7
:103A9E0001D0972B66510101045D006E00C06BF2E0
:103AAE00140E0301D96F28EC09F0005203E0010E49
:103ABE000001B96F6AD104C166F205C167F206C191
:103ACE0068F207C169F2020E0301D96F010EDA6FB7
:103ADE00CAEC11F0060E010104250301D96F000E88
:103AEE00010105210301DA6F000E01010621030118
:103AFE00DB6F000E010107210301DC6F150EDD6F78
:103B0E00B5EC08F00201972B40D19FA312D0000113
:103B1E00B651010A0EE1B66B020E0301D96FA6EC87
:103B2E0008F00201972B66510101045D006E00C082
:103B3E006DF2150E0301D96F28EC09F0005203E067
:103B4E00010E0001B66F21D104C166F205C167F204
:103B5E0006C168F207C169F2020E0301D96FDA6B72
:103B6E00CAEC11F0060E010104250301D96F000EF7
:103B7E00010105210301DA6F000E01010621030187
:103B8E00DB6F000E010107210301DC6F150EDD6FE7
:103B9E00B5EC08F00201972BF8D09FA312D00001CC
:103BAE00B651010A0EE1B66B020E0301D96FA6ECF7
:103BBE0008F00201972B66510101045D006E00C0F2
:103BCE006CF2150E0301D96F28EC09F0005203E0D8
:103BDE00010E0001B66FD9D004C166F205C167F2BD
:103BEE0006C168F207C169F2010E0301D96FDA6BE3
:103BFE00CAEC11F0060E010104250301D96F000E67
:103C0E00010105210301DA6F000E010106210301F6
:103C1E00DB6F000E010107210301DC6F140EDD6F57
:103C2E00B5EC08F00201972BB0D09FA112D0000185
:103C3E00B951010A0EE1B96B010E0301D96FA6EC61
:103C4E0008F00201972B66510101045D006E00C061
:103C5E006AF2140E0301D96F28EC09F0005203E04A
:103C6E00010E0001B96F91D06A0E0301D96F020ED9
:103C7E00DA6F1EEC08F06A0ED96F020EDA6F65C2AB
:103C8E00DBF3A6EC0AF0BD0E0501FF6F000E060178
:103C9E00006FC40EF66E8D0EF76E000EF86EBF0E30
:103CAE00E16E020EE26E110E006E010E016E2BEC35
:103CBE0005F0BF0E016F020E026F100E036F000EA5
:103CCE00046F0DEC01F0A30E0501FF6F000E06014F
:103CDE00006FD50EF66E8D0EF76E000EF86ED00ECE
:103CEE00E16E020EE26E110E006E010E016E2BECF5
:103CFE0005F0D00E016F020E026F100E036F000E54
:103D0E00046F0DEC01F0020E0001B46F010EA26FF4
:103D1E00839E0101446B39D002019751000AD8B439
:103D2E00F0D59751010AD8B404D69751020AD8B4E7
:103D3E0021D69751030AD8B436D69751040AD8B46F
:103D4E0052D69751050AD8B467D69751060AD8B4F9
:103D5E008DD69751070AD8B4AED69751080AD8B463
:103D6E00D4D69751090AD8B4EFD697510A0AD8B4C7
:103D7E0014D797510B0AD8B42FD797510C0AD8B431
:0C3D8E0054D797510D0AD8B46FD712001B
:0A3D9A00A8EC06F00101446B1200D2
:103DA400838E010E0001BC6F010E0301D96F28EC54
:103DB40009F000522DE0010E0301D96FDA6BCAEC51
:103DC40011F0530E0201BF6F340EC06F200EC16F8D
:103DD4004D0EC26F6F0EC36F740EC46F6F0EC56F3E
:103DE400720EC66F310EC76F530EC86F740EC96F53
:103DF400610ECA6F720ECB6F740ECC6FCD6BBF0E9B
:103E04000301D96F020EDA6F010EDB6F69EC09F062
:103E1400020E0301D96F28EC09F0005252E0020EA1
:103E24000301D96FDA6BCAEC11F0530E0201CE6FA5
:103E3400340ECF6F200ED06F4D0ED16F6F0ED26F38
:103E4400740ED36F6F0ED46F720ED56F320ED66FA1
:103E5400530ED76F740ED86F610ED96F720EDA6F6E
:103E6400740EDB6FDC6BCE0E0301D96F020EDA6FBA
:103E7400010EDB6F69EC09F0BD0E0501FF6F000E4A
:103E84000601006FF30E016F000E026F100E036F38
:103E9400000E046F0DEC01F0A30E0501FF6F000E80
:103EA4000601006F910E016F000E026F100E036F7A
:103EB400000E046F0DEC01F0010E0001A26F010E63
:103EC400B46F0A0E0301D96F28EC09F0005221E007
:103ED400010E0001B96F010E0301D96F66EC0BF0FE
:103EE400550EF66E8A0EF76E000EF86EDD0EE16E5C
:103EF400020EE26E150E006E010E016E2BEC05F043
:103F0400DD0E0301D96F020EDA6F010EDB6F69EC6F
:103F140009F00B0E0301D96F28EC09F0005221E0DF
:103F2400010E0001B66F020E0301D96F66EC0BF0AF
:103F34006A0EF66E8A0EF76E000EF86EF20EE16EE1
:103F4400020EE26E150E006E010E016E2BEC05F0F2
:103F5400F20E0301D96F020EDA6F010EDB6F69EC0A
:103F640009F0050E0301D96F28EC09F0005230E086
:103F7400010E0301D96FB8C0DAF3BAEC11F00001F5
:103F8400B96BBA6B530E0301076F340E086F200E22
:103F9400096F4D0E0A6F310E0B6F200E0C6F530E0E
:103FA4000D6F700E0E6F650E0F6F650E106F640E41
:103FB400116F200E126F550E136F500E146F156B88
:103FC400070ED96F030EDA6F010EDB6F69EC09F08F
:103FD400070E0301D96F28EC09F0005223E0030116
:103FE400D96BB8C0DAF3BAEC11F00001B96B010E69
:103FF400BA6F8E0EF66E8A0EF76E000EF86E160EFF
:10400400E16E030EE26E110E006E010E016E2BECDA
:1040140005F0160E0301D96F030EDA6F010EDB6F84
:1040240069EC09F0060E0301D96F28EC09F000527F
:104034002FE0B5C0D9F3010E0301DA6FBAEC11F029
:104044000001B76B530E0301276F340E286F200E47
:10405400296F4D0E2A6F320E2B6F200E2C6F530ECC
:104064002D6F700E2E6F650E2F6F650E306F640E00
:10407400316F200E326F550E336F500E346F356B27
:10408400270ED96F030EDA6F010EDB6F69EC09F0AE
:10409400080E0301D96F28EC09F0005222E0B5C0E4
:1040A400D9F30301DA6BBAEC11F0010E0001B76F1A
:1040B400AE0EF66E8A0EF76E000EF86E360EE16ED8
:1040C400030EE26E110E006E010E016E2BEC05F074
:1040D400360E0301D96F030EDA6F010EDB6F69EC44
:1040E40009F0030E0301D96F28EC09F0005229E00E
:1040F40001011F91010E0301D96FA6EC08F0530EC4
:104104000301476F340E486F200E496F4D0E4A6FFE
:10411400310E4B6F200E4C6F530E4D6F740E4E6F5D
:104124006F0E4F6F700E506F650E516F640E526FAD
:10413400536B470ED96F030EDA6F010EDB6F69EC18
:1041440009F0040E0301D96F28EC09F0005229E0AC
:1041540001011F93020E0301D96FA6EC08F0530E60
:104164000301546F340E556F200E566F4D0E576F6A
:10417400320E586F200E596F530E5A6F740E5B6FC8
:104184006F0E5C6F700E5D6F650E5E6F640E5F6F19
:10419400606B540ED96F030EDA6F010EDB6F69EC9E
:1041A40009F00001B951010A5AE102019FA157D057
:1041B4000001BA51000A53E1010E0301D96FA6ECC4
:1041C40008F0020E0301D96FA6EC08F0060E0101F7
:1041D400446F0001B96BB66BD90EF66E8A0EF76E9A
:1041E400000EF86E610EE16E030EE26E110E006EAB
:1041F400010E016E2BEC05F0610E0301D96F030E65
:10420400DA6F010EDB6F69EC09F0090E0301D96F57
:104214005CEC0AF0BD0E0501FF6F000E0601006F95
:10422400560E016F010E026F100E036F000E046F25
:104234000DEC01F0A30E0501FF6F000E0601006FE7
:10424400450E016F010E026F100E036F000E046F16
:104254000DEC01F0010E0001A26F020EB46F00011B
:10426400B651010A5AE102019FA357D00001B75188
:10427400000A53E1010E0301D96FA6EC08F0020E07
:104284000301D96FA6EC08F0060E0101446F00018A
:10429400B96BB66BEA0EF66E8A0EF76E000EF86E08
:1042A400720EE16E030EE26E110E006E010E016ECF
:1042B4002BEC05F0720E0301D96F030EDA6F010EB9
:1042C400DB6F69EC09F0090E0301D96F5CEC0AF0AD
:1042D400BD0E0501FF6F000E0601006F560E016F43
:1042E400010E026F100E036F000E046F0DEC01F04F
:1042F400A30E0501FF6F000E0601006F450E016F4E
:10430400010E026F100E036F000E046F0DEC01F02E
:10431400010E0001A26F020EB46F02019851000A4F
:1043240005E001013251010A01E002D001011F93AD
:104334000201A0A155D0010E0301D96FA6EC08F02B
:10434400020E0301D96FA6EC08F00001B96BB66B3D
:10435400060E0101446F010E206FFB0EF66E8A0EED
:10436400F76E000EF86E830EE16E030EE26E110E10
:10437400006E010E016E2BEC05F0830E0301D96F64
:10438400030EDA6F010EDB6F69EC09F0090E03010D
:10439400D96F5CEC0AF0BD0E0501FF6F000E06013B
:1043A400006F560E016F010E026F100E036F000EA8
:1043B400046F0DEC01F0A30E0501FF6F000E060162
:1043C400006F330E016F010E026F100E036F000EAB
:1043D400046F0DEC01F0010E0001A26F020EB46F28
:1043E4000201A151010A55E1A45353E0010E030156
:1043F400D96FA6EC08F0020E0301D96FA6EC08F001
:10440400060E0101446F0001B96BB66B0C0EF66E1B
:104414008B0EF76E000EF86E940EE16E030EE26ED4
:10442400150E006E010E016E2BEC05F0940E0301C7
:10443400D96F030EDA6F010EDB6F69EC09F0090E18
:104444000301D96F5CEC0AF0BD0E0501FF6F000E8D
:104454000601006F560E016F010E026F100E036FFE
:10446400000E046F0DEC01F0A30E0501FF6F000EAA
:104474000601006F780E016F010E026F100E036FBC
:10448400000E046F0DEC01F0010E0001A26F020E8C
:10449400B46F02019E51000A53E0010E0301D96F6B
:1044A400A6EC08F0020E0301D96FA6EC08F0060E84
:1044B4000101446F0001B96BB66B210EF66E8B0ED1
:1044C400F76E000EF86EA90EE16E030EE26E120E88
:1044D400006E010E016E2BEC05F0A90E0301D96FDD
:1044E400030EDA6F010EDB6F69EC09F0090E0301AC
:1044F400D96F5CEC0AF0BD0E0501FF6F000E0601DA
:10450400006F560E016F010E026F100E036F000E46
:10451400046F0DEC01F0A30E0501FF6F000E060100
:10452400006F670E016F010E026F100E036F000E15
:10453400046F0DEC01F0010E0001A26F020EB46FC6
:1045440001011F51000AD8A4A7D00201A353D8B473
:1045540089D0010E0301D96F010EDA6FCAEC11F094
:10456400010E010104250301D96F000E010105218B
:104574000301DA6F000E010106210301DB6F000E57
:10458400010107210301DC6F0E0EDD6FB5EC08F0AD
:10459400010ED96FB8C0DAF3BAEC11F00001B96BAF
:1045A400BA6BB5C0D9F3010E0301DA6FBAEC11F09E
:1045B4000001B66BB76B010E010104250301D96F2D
:1045C400000E010105210301DA6F000E010106212D
:1045D4000301DB6F000E010107210301DC6F030EF1
:1045E400DD6FB5EC08F0010E010104250301D96F5C
:1045F400000E010105210301DA6F000E01010621FD
:104604000301DB6F000E010107210301DC6F010EC2
:10461400D927000EDA23DB23DC23040EDD6FB5EC8F
:1046240008F0010E010104250301D96F000E0101F8
:1046340005210301DA6F000E010106210301DB6F7E
:10464400000E010107210301DC6F010ED927000EC2
:10465400DA23DB23DC230D0EDD6FB5EC08F001015A
:104664001F851AD00101010E04250301D96F000E24
:10467400010105210301DA6F000E01010621030186
:10468400DB6F000E010107210301DC6F0D0EDD6FEE
:10469400B5EC08F001011F850E0E0301D96F28EC5B
:1046A40009F0005207E0020E0301D96F010EDA6F20
:1046B400CAEC11F00D0E0301D96F28EC09F0005279
:1046C4002EE0010E0101446F086B090E0301D96F3E
:1046D4005CEC0AF0BD0E0501FF6F000E0601006FD1
:1046E400210E016F010E026F100E036F000E046F96
:1046F4000DEC01F0A30E0501FF6F000E0601006F23
:10470400910E016F000E026F100E036F000E046F06
:104714000DEC01F0010E0001A26F010EB46F010156
:104724004451050A04E04451060A01E051D0030152
:10473400D96B5CEC0AF0000E0201961902E1000E3E
:10474400951946E09551010104250301D96F020131
:104754009651010105210301DA6F000E01010621C2
:104764000301DB6F000E010107210301DC6F090E59
:10477400DD6FB5EC08F0330EF66E8B0EF76E000E9F
:10478400F86EBB0EE16E030EE26E150E006E010EA6
:10479400016E2BEC05F0BB0ED96F030EDA6F010E20
:1047A400DB6F69EC09F0A30E0501FF6F000E060133
:1047B400006FE20E016F000E026F100E036F000E09
:1047C400046F0DEC01F0010E0001A26F020EB46F34
:0247D4001200D1
:1047D600030E0201F56F839E0001BC6B02019E5120
:1047E600000A04E10101205301E151D10101206BCE
:1047F600838E010E0001BC6F090E0301D96F5CECBC
:104806000AF00201A35318E0010E01010425030179
:10481600D96F000E010105210301DA6F000E0101B7
:1048260006210301DB6F000E010107210301DC6F86
:104836000C0EDD6FB5EC08F00201F55101010425FF
:10484600006E000E0521016E000E0621026E000E9E
:104856000721036E00C043F201C044F202C045F2D4
:1048660003C046F200C0D9F301C0DAF302C0DBF39D
:1048760003C0DCF3010E0301DD6FB5EC08F043C2A3
:10488600D9F344C2DAF345C2DBF346C2DCF3050EC4
:10489600DD6FB5EC08F00001BA6B060E01010425C8
:1048A600006E000E0521016E000E0621026E000E3E
:1048B6000721036E0201F5510026000E0122022295
:1048C600032200C043F201C044F202C045F203C015
:1048D60046F200C0D9F301C0DAF302C0DBF303C02D
:1048E600DCF30A0E0301DD6FB5EC08F0020134516A
:1048F60001010425006E000E0521016E000E062141
:10490600026E000E0721036E0201F5510026000E0D
:1049160001220222032200C043F201C044F202C077
:1049260045F203C046F200C0D9F301C0DAF302C073
:10493600DBF303C0DCF3030E0301DD6FB5EC08F017
:1049460002019851000AD8B499D001013251020AE5
:10495600D8A494D002014751010104250301D96F5F
:10496600000E010105210301DA6F000E0101062187
:104976000301DB6F000E010107210301DC6F020159
:10498600F5510301D927000EDA23DB23DC23020EBF
:10499600DD6FB5EC08F00201475101010425030162
:1049A600D96F000E010105210301DA6F000E010126
:1049B60006210301DB6F000E010107210301DC6FF5
:1049C6000201F5510301D927000EDA23DB23DC238C
:1049D600060EDD6FB5EC08F00001B76B020147511A
:1049E600010104250301D96F000E01010521030110
:1049F600DA6F000E010106210301DB6F000E0101D3
:104A060007210301DC6F060ED927000EDA23DB230C
:104A1600DC230201F5510301D927000EDA23DB233B
:104A2600DC230B0EDD6FB5EC08F002019851010195
:104A360004250301D96F000E010105210301DA6F78
:104A4600000E010106210301DB6F000E01010721A3
:104A56000301DC6F020147510301D927000EDA2357
:104A6600DB23DC230201F5510301D927000EDA23EB
:104A7600DB23DC23040EDD6FB5EC08F0030E00012A
:104A8600E16FB96BB66B0101086B080E446F090E36
:104A96000301D96F28EC09F00050010AD8A430D1DF
:104AA600090E0301D96F5CEC0AF00201F551010110
:104AB6000425006E000E0521016E000E0621026E11
:104AC600000E0721036E00C043F201C044F202C08B
:104AD60045F203C046F200C0D9F301C0DAF302C0C2
:104AE600DBF303C0DCF3010E0301DD6FB5EC08F068
:104AF60043C2D9F344C2DAF345C2DBF346C2DCF360
:104B0600050EDD6FB5EC08F00001BA6B060E01016B
:104B16000425006E000E0521016E000E0621026EB0
:104B2600000E0721036E0201F5510026000E012238
:104B36000222032200C043F201C044F202C045F241
:104B460003C046F200C0D9F301C0DAF302C0DBF3BA
:104B560003C0DCF30A0E0301DD6FB5EC08F00201B9
:104B6600355101010425006E000E0521016E000E6F
:104B76000621026E000E0721036E0201F551002682
:104B8600000E01220222032200C043F201C044F2B9
:104B960002C045F203C046F200C0D9F301C0DAF301
:104BA60002C0DBF303C0DCF3030E0301DD6FB5ECDB
:104BB60008F00101A751000AD8B498D03251020A70
:104BC600D8A494D002014751010104250301D96FED
:104BD600000E010105210301DA6F000E0101062115
:104BE6000301DB6F000E010107210301DC6F0201E7
:104BF600F5510301D927000EDA23DB23DC23020E4D
:104C0600DD6FB5EC08F002014751010104250301EF
:104C1600D96F000E010105210301DA6F000E0101B3
:104C260006210301DB6F000E010107210301DC6F82
:104C36000201F5510301D927000EDA23DB23DC2319
:104C4600060EDD6FB5EC08F00001B76B02014751A7
:104C5600010104250301D96F000E0101052103019D
:104C6600DA6F000E010106210301DB6F000E010160
:104C760007210301DC6F060ED927000EDA23DB239A
:104C8600DC230201F5510301D927000EDA23DB23C9
:104C9600DC230B0EDD6FB5EC08F002013551010186
:104CA60004250301D96F000E010105210301DA6F06
:104CB600000E010106210301DB6F000E0101072131
:104CC6000301DC6F020147510301D927000EDA23E5
:104CD600DB23DC230201F5510301D927000EDA2379
:104CE600DB23DC23040EDD6FB5EC08F0030E0101B7
:104CF6001F6F0001B96BB66B0101086B070E446F9D
:104D06000201A0A128D0000E961902E1000E951905
:104D160022E001010851000A1EE1010E086F9CEC19
:104D260009F000C021F0340EF66E8D0EF76E000EFF
:104D3600F86EBF0EE16E020EE26E160E006E010EEA
:104D4600016E2BEC05F0BF0ED96F020EDA6F010E65
:104D5600DB6F69EC09F001010851010A5EE102010D
:104D6600A0B15BD0000E961902E1000E951955E030
:104D7600215001010425006E000E0521016E000E72
:104D86000621026E000E0721036E00C043F201C029
:104D960044F202C045F203C046F200C0D9F301C096
:104DA600DAF302C0DBF303C0DCF3090E0301DD6FA7
:104DB600B5EC08F00101086B43C2F3F544C2F4F503
:104DC60045C2F5F546C2F6F5360E0501F76F020E39
:104DD600F86F33EC05F04A0EF66E8D0EF76E000E88
:104DE600F86ED50EE16E020EE26E100E006E010E2A
:104DF600016E2BEC05F0D50E0301D96F020EDA6FAA
:104E0600010EDB6F69EC09F0360E0301D96F020E55
:0C4E1600DA6F010EDB6F69EC09F012008E
:104E2200020E0301016F026B839E0001BC6BFFEC5B
:104E320009F00050021939E01B6AFFEC09F000C0CA
:104E420002F300C0D9F3AE0EDA6F000EDB6F14EC82
:104E520012F0A30E0501FF6F000E0601006F430E54
:104E62000201BF6F6C0EC06F6F0EC16F730EC26F07
:104E7200650EC36F200EC46F610EC56F660EC66FDE
:104E8200740EC76F650EC86F720EC96FCA6BBF0E04
:104E92000601016F020E026F0B0E036F000E046F0C
:104EA2000DEC01F0010E0001A26F02019E51000AF9
:104EB20008E1090E0301D96F28EC09F0005201E163
:104EC200BCD30301D96B5CEC0AF00101A751000AC3
:104ED20004E03251010A01E03FD103010151010115
:104EE2000425006E000E0521016E000E0621026EE1
:104EF200000E0721036E00C043F201C044F202C05B
:104F020045F203C046F200C0D9F301C0DAF302C091
:104F1200DBF303C0DCF3010E0301DD6FB5EC08F037
:104F22000101A651000A11E043C2D9F344C2DAF3E7
:104F320045C2DBF346C2DCF3070E0301DD6FB5ECBD
:104F420008F0010E0001BA6F0FD043C2D9F344C278
:104F5200DAF345C2DBF346C2DCF3050E0301DD6F73
:104F6200B5EC08F00001BA6B0101A6510425006EF0
:104F7200000E0521016E000E0621026E000E0721B1
:104F8200036E060E0026000E0122022203220301F6
:104F920001510026000E01220222032200C043F228
:104FA20001C044F202C045F203C046F200C0D9F388
:104FB20001C0DAF302C0DBF303C0DCF30A0EDD6FDB
:104FC200B5EC08F00101A6510425006E000E052182
:104FD200016E000E0621026E000E0721036E030110
:104FE20001510026000E01220222032200C043F2D8
:104FF20001C044F202C045F203C046F200C0D9F338
:1050020001C0DAF302C0DBF303C0DCF3050EDD6F8F
:10501200B5EC08F002014251000A2FE035510101BE
:105022000425006E000E0521016E000E0621026E9F
:10503200000E0721036E02014251005E000E015A6A
:10504200025A035A030101510026000E01220222D4
:10505200032200C043F201C044F202C045F203C081
:1050620046F200C0D9F301C0DAF302C0DBF303C099
:10507200DCF3070EDD6FB5EC08F001018F51000A79
:1050820042E00201355101010425006E000E0521A6
:10509200016E000E0621026E000E0721036E03014F
:1050A20001510026000E01220222032200C043F217
:1050B20001C044F202C045F203C046F200C0D9F377
:1050C20001C0DAF302C0DBF303C0DCF3050EDD6FCF
:1050D200B5EC08F0020E020143250301D96F000E60
:1050E200020144210301DA6F000E0201452103018E
:1050F200DB6F000E020146210301DC6F030EDD6F40
:10510200B5EC08F029D00201355101010425006EE9
:10511200000E0521016E000E0621026E000E07210F
:10512200036E030101510026000E01220222032216
:1051320000C043F201C044F202C045F203C046F28D
:1051420000C0D9F301C0DAF302C0DBF303C0DCF321
:10515200030EDD6FB5EC08F00101A751000AD8B4C7
:1051620063D23251020AD8A45FD203010151010174
:105172000425006E000E0521016E000E0621026E4E
:10518200000E0721036E00C043F201C044F202C0C8
:1051920045F203C046F200C0D9F301C0DAF302C0FF
:1051A200DBF303C0DCF3020E0301DD6FB5EC08F0A4
:1051B2000101A651000A11E043C2D9F344C2DAF355
:1051C20045C2DBF346C2DCF3080E0301DD6FB5EC2A
:1051D20008F0010E0001B76F0FD043C2D9F344C2E9
:1051E200DAF345C2DBF346C2DCF3060E0301DD6FE0
:1051F200B5EC08F00001B76B0101A6510425006E61
:10520200000E0521016E000E0621026E000E07211E
:10521200036E060E0026000E012202220322030163
:1052220001510026000E01220222032200C043F295
:1052320001C044F202C045F203C046F200C0D9F3F5
:1052420001C0DAF302C0DBF303C0DCF30B0EDD6F47
:10525200B5EC08F00101A6510425006E000E0521EF
:10526200016E000E0621026E000E0721036E03017D
:1052720001510026000E01220222032200C043F245
:1052820001C044F202C045F203C046F200C0D9F3A5
:1052920001C0DAF302C0DBF303C0DCF3060EDD6FFC
:1052A200B5EC08F002014251000A2FE00101A751BA
:1052B2000425006E000E0521016E000E0621026E0D
:1052C200000E0721036E02014251005E000E015AD8
:1052D200025A035A030101510026000E0122022242
:1052E200032200C043F201C044F202C045F203C0EF
:1052F20046F200C0D9F301C0DAF302C0DBF303C007
:10530200DCF3080EDD6FB5EC08F00101A7510425AE
:10531200006E000E0521016E000E0621026E000EC7
:105322000721036E030101510026000E0122022211
:10533200032200C043F201C044F202C045F203C09E
:1053420046F200C0D9F301C0DAF302C0DBF303C0B6
:10535200DCF3040EDD6FB5EC08F0020147510101E8
:105362000425006E000E0521016E000E0621026E5C
:10537200000E0721036E030101510026000E0122D7
:105382000222032200C043F201C044F202C045F2ED
:1053920003C046F200C0D9F301C0DAF302C0DBF366
:1053A20003C0DCF3010EDD6FB5EC08F00101A6517C
:1053B200000A11E043C2D9F344C2DAF345C2DBF377
:1053C20046C2DCF3070E0301DD6FB5EC08F0010EF7
:1053D2000001BA6F0FD043C2D9F344C2DAF345C217
:1053E200DBF346C2DCF3050E0301DD6FB5EC08F01A
:1053F2000001BA6B0201475101010425006E000E43
:105402000521016E000E0621026E000E0721036EB9
:10541200A6510026000E012202220322060E0026B9
:10542200000E012202220322030101510026000E76
:1054320001220222032200C043F201C044F202C050
:1054420045F203C046F200C0D9F301C0DAF302C04C
:10545200DBF303C0DCF30A0EDD6FB5EC08F00201EA
:10546200475101010425006E000E0521016E000E58
:105472000621026E000E0721036EA6510026000EC1
:10548200012202220322030101510026000E012201
:105492000222032200C043F201C044F202C045F2DC
:1054A20003C046F200C0D9F301C0DAF302C0DBF355
:1054B20003C0DCF3050EDD6FB5EC08F002014251CA
:1054C200000A35E0475101010425006E000E052156
:1054D200016E000E0621026E000E0721036E02010C
:1054E20035510026000E0122022203224251005EA3
:1054F200000E015A025A035A030101510026000EFE
:1055020001220222032200C043F201C044F202C07F
:1055120045F203C046F200C0D9F301C0DAF302C07B
:10552200DBF303C0DCF3070EDD6FB5EC08F001011D
:105532008F51000A49E00201355101010425006E34
:10554200000E0521016E000E0621026E000E0721DB
:10555200036E020147510026000E0122022203229D
:10556200030101510026000E01220222032200C083
:1055720043F201C044F202C045F203C046F200C049
:10558200D9F301C0DAF302C0DBF303C0DCF3050E8A
:10559200DD6FB5EC08F0020E020143250301D96F5D
:1055A200000E020144210301DA6F000E02014521BF
:1055B2000301DB6F000E020146210301DC6F030EC3
:1055C200DD6FB5EC08F030D0020135510101042540
:1055D200006E000E0521016E000E0621026E000E05
:1055E2000721036E020147510026000E012202220A
:1055F2000322030101510026000E0122022203228E
:1056020000C043F201C044F202C045F203C046F2B8
:1056120000C0D9F301C0DAF302C0DBF303C0DCF34C
:10562200030EDD6FB5EC08F0030E01011F6F0001E0
:10563200B96BB66B040E0101446F0201A0A128D020
:10564200000E961902E1000E951922E0010108519F
:10565200000A1EE1010E086F9CEC09F000C021F067
:10566200FC0EF66E8C0EF76E000EF86ECB0EE16E2F
:10567200020EE26E160E006E010E016E2BEC05F0AC
:10568200CB0ED96F020EDA6F010EDB6F69EC09F0F7
:1056920001010851010AD8A4B9D00201A0B1B6D0C3
:1056A200000E961902E1000E9519D8B4AFD04151FF
:1056B200000A56E1215001010425006E000E052169
:1056C200016E000E0621026E000E0721036E00C05D
:1056D20043F201C044F202C045F203C046F200C0E8
:1056E200D9F301C0DAF302C0DBF303C0DCF3090E25
:1056F2000301DD6FB5EC08F00101086B43C2F3F55D
:1057020044C2F4F545C2F5F546C2F6F5360E05017A
:10571200F76F020EF86F33EC05F0120EF66E8D0E77
:10572200F76E000EF86EE10EE16E020EE26E100EE2
:10573200006E010E016E2BEC05F0E10E0301D96F34
:10574200020EDA6F010EDB6F69EC09F0360E03010F
:10575200D96F020EDA6F010EDB6F69EC09F056D0D9
:105762000201415101010425006E000E0521016E66
:10577200000E0621026E000E0721036E00C043F2E6
:1057820001C044F202C045F203C046F200C0D9F3A0
:1057920001C0DAF302C0DBF303C0DCF3090E03013C
:1057A200DD6FB5EC08F00101086B43C2F3F544C2AA
:1057B200F4F545C2F5F546C2F6F5360E0501F76F6A
:1057C200020EF86F33EC05F0220EF66E8D0EF76EB8
:1057D200000EF86EF10EE16E020EE26E100E006E19
:1057E200010E016E2BEC05F0F10E0301D96F020ED2
:1057F200DA6F010EDB6F69EC09F0360E0301D96F27
:0E580200020EDA6F010EDB6F69EC09F0120086
:10581000020E0201F56F839E0001BC6B02019E51D6
:10582000000A09E1090E0301D96F28EC09F00050C4
:10583000010A01E0E1D10101A751000A04E032515F
:10584000010A01E089D0090E0301D96F5CEC0AF06E
:105850000201F55101010425006E000E0521016EC3
:10586000000E0621026E000E0721036E00C043F2F7
:1058700001C044F202C045F203C046F200C0D9F3B1
:1058800001C0DAF302C0DBF303C0DCF3010E030155
:10589000DD6FB5EC08F043C2D9F344C2DAF345C278
:1058A000DBF346C2DCF3050EDD6FB5EC08F000015A
:1058B000BA6B060E01010425006E000E0521016E73
:1058C000000E0621026E000E0721036E0201F55143
:1058D0000026000E01220222032200C043F201C072
:1058E00044F202C045F203C046F200C0D9F301C041
:1058F000DAF302C0DBF303C0DCF30A0E0301DD6F51
:10590000B5EC08F00201355101010425006E000ECE
:105910000521016E000E0621026E000E0721036EA6
:105920000201F5510026000E01220222032200C0CE
:1059300043F201C044F202C045F203C046F200C087
:10594000D9F301C0DAF302C0DBF303C0DCF3030ECA
:105950000301DD6FB5EC08F00101A751000AD8B4CE
:1059600042D13251020AD8A43ED1090E0301D96FA7
:105970005CEC0AF00201F55101010425006E000EF5
:105980000521016E000E0621026E000E0721036E36
:1059900000C043F201C044F202C045F203C046F227
:1059A00000C0D9F301C0DAF302C0DBF303C0DCF3BB
:1059B000020E0301DD6FB5EC08F043C2D9F344C217
:1059C000DAF345C2DBF346C2DCF3060EDD6FB5EC5D
:1059D00008F00001BA6B060E01010425006E000EEE
:1059E0000521016E000E0621026E000E0721036ED6
:1059F0000201F5510026000E01220222032200C0FE
:105A000043F201C044F202C045F203C046F200C0B6
:105A1000D9F301C0DAF302C0DBF303C0DCF30B0EF1
:105A20000301DD6FB5EC08F00201355101010425D9
:105A3000006E000E0521016E000E0621026E000EA2
:105A40000721036E0201F5510026000E01220222F9
:105A5000032200C043F201C044F202C045F203C079
