:040000001EEF3AF0C5
:1000080000C019F001C018F004C017F008C016F0BD
:100018000CC015F0F2A42AD00101792B8088010EBA
:100028004A6F7B51FF0A03E17B6B7A6B01D07B2B14
:10003800DB51FF0A03E1DB6B826B01D0DB2B190E6E
:10004800795D0FE3796B010E7C27000E7D237E23FB
:100058007F237353010ED8A4000E736F8098010E8E
:10006800436FF30ED76ECA0ED66EF294F0A017D077
:1000780001017A51000A03E17A2B7B6B01D07A2BBC
:10008800050E7A5D0BE3130E7B5D07E37B511508C4
:1000980004E3010E426F7A6B01D07A6BF090F0A204
:1000A80017D001018251000A03E1822BDB6B01D0DA
:1000B800822B050E825D0BE3130EDB5D07E3DB513C
:1000C800150804E3010E446F826B01D0826BF09235
:1000D800F2A233D00101452B4551FF0A02E1020E7D
:1000E800456F030E046E45C100F069D808C000F0E2
:1000F8000050010A10E12B5205E0715302E081869D
:1001080001D0819600019E5306E001016F5302E081
:10011800818801D08198030E046E45C100F04FD844
:1001280008C000F00050000A07E12B5201E0818668
:1001380000019E5301E08188F29219C000F018C0B6
:1001480001F017C004F016C008F015C00CF011003B
:10015800BAC5C9FFC7B002D00000FCD7C9CF00F0AC
:02016800120083
:0E016A00ACB202D00000FCD7BAC5ADFF120047
:10017800086A096A100E0C6E0134083609360450F4
:10018800085E0550D8A0053C095ED8B007D00450D9
:1001980008260550D8B0053C0926D8900036013607
:0601A8000C2EEAD7120044
:1001AE00F250026EF29E0500FF6A0150FE6E005084
:0801BE00FD6E02BEF28E12007C
:1001C600086A080E0C6E003408360450085ED8B073
:0E01D60002D00826D89000360C2EF5D7120065
:1001E4000501B76B050EB75D0AE2B751B525E16E9F
:1001F400000EB621E26E200EE66EB72BF3D7B75190
:10020400B525E16E000EB621E26EE66AB707B75176
:10021400B525B86F000EB621B96F0A0E046E000E34
:10022400056EB3C500F0B4C501F0A4DF08C000F04A
:1002340009C001F0300E0026B8C5E1FFB9C5E2FFE0
:1002440000C0E6FF0A0E046E000E056EB3C500F092
:10025400B4C501F08FDF00C0B3F501C0B4F5000EE2
:10026400011802E1000E001801E102D0B707CFD750
:02027400120076
:10027600B1C1E1FFB2C1E2FFB3C5E6FFAFC100F015
:08028600B0C101F091DF12008C
:10028E00B5C504F0B6C505F0B3C502F0B4C503F0AC
:10029E00B7C500F0B8C501F0010E0501B75F000E3D
:1002AE00B85B005001100FE004C0E9FF05C0EAFF83
:1002BE0002C0E1FF03C0E2FFEECFE6FF024A032ACF
:1002CE00044A052AE5D7B3C500F0B4C501F0120003
:1002DE000B6A0A6A096A086A0E6A03340836045001
:1002EE00085E0550D8A0053C095E0650D8A0063C15
:1002FE000A5E0750D8A0073C0B5EE86AD8A0010E34
:10030E000E5E0336070E0C6E0334083609360A36B7
:10031E000B360E36045003A012D0085E0550D8A03E
:10032E00053C095E0650D8A0063C0A5E0750D8A0D0
:10033E00073C0B5EE86AD8A0010E0E5E11D00826AF
:10034E000550D8B0053C09260650D8B0063C0A2602
:10035E000750D8B0073C0B26E86AD8B0010E0E261F
:10036E0003360C2ED1D70234083609360A360B3630
:10037E000E36045003A012D0085E0550D8A0053CDE
:10038E00095E0650D8A0063C0A5E0750D8A0073C6E
:10039E000B5EE86AD8A0010E0E5E11D0082605503D
:1003AE00D8B0053C09260650D8B0063C0A260750A0
:1003BE00D8B0073C0B26E86AD8B0010E0E260236DE
:1003CE00070E0C6E0234083609360A360B360E3618
:1003DE00045002A012D0085E0550D8A0053C095E5C
:1003EE000650D8A0063C0A5E0750D8A0073C0B5E0C
:1003FE00E86AD8A0010E0E5E11D008260550D8B0BE
:10040E00053C09260650D8B0063C0A260750D8B03F
:10041E00073C0B26E86AD8B0010E0E2602360C2ECB
:10042E00D1D70134083609360A360B360E3604504B
:10043E0002A012D0085E0550D8A0053C095E0650F9
:10044E00D8A0063C0A5E0750D8A0073C0B5EE86AAF
:10045E00D8A0010E0E5E11D008260550D8B0053C6E
:10046E0009260650D8B0063C0A260750D8B0073CDD
:10047E000B26E86AD8B0010E0E260136070E0C6E5A
:10048E000134083609360A360B360E36045001A0F2
:10049E0012D0085E0550D8A0053C095E0650D8A0C3
:1004AE00063C0A5E0750D8A0073C0B5EE86AD8A04F
:1004BE00010E0E5E11D008260550D8B0053C092657
:1004CE000650D8B0063C0A260750D8B0073C0B267B
:1004DE00E86AD8B0010E0E2601360C2ED1D70034A4
:1004EE00083609360A360B360E36045001A012D0E5
:1004FE00085E0550D8A0053C095E0650D8A0063C03
:10050E000A5E0750D8A0073C0B5EE86AD8A0010E21
:10051E000E5E11D008260550D8B0053C09260650AF
:10052E00D8B0063C0A260750D8B0073C0B26E86A1E
:10053E00D8B0010E0E260036070E0C6E00340836AB
:10054E0009360A360B360E36045000A012D0085E5D
:10055E000550D8A0053C095E0650D8A0063C0A5EA0
:10056E000750D8A0073C0B5EE86AD8A0010E0E5EBD
:10057E0011D008260550D8B0053C09260650D8B033
:10058E00063C0A260750D8B0073C0B26E86AD8B0BE
:10059E00010E0E2600360C2ED1D700B00ED0045010
:1005AE0008260550D8B0053C09260650D8B0063CA2
:0C05BE000A260750D8B0073C0B2612009C
:1005CA000501B66B030EB65D0AE2B651B425E16EBB
:1005DA00000EB521E26E200EE66EB62BF3D7B651A9
:1005EA00B425E16E000EB521E26EE66AB607B65191
:1005FA00B425B76F000EB521B86F0A0E046EB3C5E5
:10060A0000F0DCDD08C000F0300E0026B7C5E1FFBF
:10061A00B8C5E2FF00C0E6FF0A0E046EB3C500F0DB
:10062A00CDDD00C0B3F50050000A01E102D0B607E3
:04063A00DED71200F5
:10063E00A6A202D00000FCD7A69CB4C5AAFFB3C5E3
:10064E00A9FFB5C5A8FFA69EA684F2CF00F0F29E24
:10065E00550EA76EAA0EA76EA68200BE02D0F29EFF
:08066E0001D0F28EA6941200E7
:100676009ED0EE0E0101A46F020EA56F320EA66F7C
:10068600000EA76FCBD00101D00EA46F020EA56F8E
:10069600320EA66F000EA76FC1D00101A80EA46F7F
:1006A600020EA56F320EA66F000EA76FB7D001011E
:1006B6008A0EA46F020EA56F320EA66F000EA76FEC
:1006C600ADD00101760EA46F020EA56F320EA66F95
:1006D600000EA76FA3D00101580EA46F020EA56FDE
:1006E600320EA66F000EA76F99D00101260EA46FD9
:1006F600020EA56F640EA66F000EA76F8FD00101C4
:10070600120EA46F020EA56F640EA66F000EA76FE1
:1007160085D00101F40EA46F010EA56F640EA66FBD
:10072600000EA76F7BD00101EA0EA46F010EA56F24
:10073600640EA66F000EA76F71D00101EA0EA46FBA
:10074600010EA56F2C0EA66F010EA76F67D00101D3
:10075600EA0EA46F010EA56FF40EA66F010EA76F29
:100766005DD00101E00EA46F010EA56FE80EA66F25
:10077600030EA76F53D00101E00EA46F010EA56F03
:10078600D00EA66F070EA76F49D00101E00EA46F29
:10079600010EA56FB80EA66F0B0EA76F3FD0010115
:1007A600A46BA56BFF0EA66F000EA76F37D00501D1
:1007B600B351000AD8B45DD7B351010AD8B463D790
:1007C600B351020AD8B469D7B351030AD8B46FD764
:1007D600B351040AD8B475D7B351050AD8B47BD738
:1007E600B351060A82E0B351070A89E0B351080AF9
:1007F60090E0B351090A97E0B3510A0A9EE0B3515B
:100806000B0AA5E0B3510C0AACE0B3510D0AB3E0F4
:0E081600B3510E0ABAE0B3510F0AC1E012004E
:100824000501AA6BA7C5E9FFA8C5EAFFEECFA9F5A4
:10083400A951000A0EE0A9C5B3F51BDD0501AA2BD9
:10084400AA51A725E96E000EA821EA6EEECFA9F5FC
:04085400EFD71200C8
:10085800A7C5B3F50501B333B39FA8C5B4F5A9C5BA
:10086800B5F5AFDE010EA715016E0150010A17E1BB
:10087800030EA825B36F000EA921B46F2E0EAA6F20
:10088800350EAB6F730EAC6FAD6BAA0EB56F050E60
:10089800B66F040EB76F000EB86FF5DC16D0030EF6
:1008A800A825B36F000EA921B46F2E0EAE6F300EBF
:1008B800AF6F730EB06FB16BAE0EB56F050EB66F3E
:0C08C800040EB76F000EB86FDEDC1200EB
:0A08D400490E0D6E0D2EFED7120026
:1008DE000B6A0A6A096A00500402F4CF09F0F3CFDA
:1008EE0008F001500502F4CF0BF0F3CF0AF00050E0
:1008FE000502F3500926F4500A22E86A0B22015031
:10090E000402F3500926F4500A22E86A0B2208C0AA
:10091E0000F009C001F00AC002F00BC003F0120093
:10092E000501AD6B0A0EAD5D0AE2AD51AB25E16E70
:10093E00000EAC21E26E300EE66EAD2BF3D7AD514C
:10094E00AB25E16E000EAC21E26EE66AAD07000E3D
:10095E00006EAA1908E10050A91905E10050A81966
:10096E0002E1A751000A3EE0AD51AB25AE6F000E7D
:10097E00AC21AF6F0A0E046E000E056E066E076E8A
:10098E00A7C500F0A8C501F0A9C502F0AAC503F0DD
:10099E009FDC08C000F009C001F00AC002F00BC0D5
:1009AE0003F0300E0026AEC5E1FFAFC5E2FF00C07A
:1009BE00E6FFAD070A0E046E000E056E066E076E9C
:1009CE00A7C500F0A8C501F0A9C502F0AAC503F09D
:1009DE007FDC00C0A7F501C0A8F502C0A9F503C0D1
:0609EE00AAF5B5D71200C6
:1009F4000900F5CFE6FF0006FBE10106F9E112006C
:100A0400C7B409D01F0EC514016E0150000A03E1DA
:0A0A1400010E006E01D0006A12000E
:100A1E000501AA6BA7C5E9FFA8C5EAFFEECFA9F5A8
:100A2E00A951000A0FE0A9C5BAF5B5EC00F0050111
:100A3E00AA2BAA51A725E96E000EA821EA6EEECFC9
:060A4E00A9F5EED712002D
:100A5400010E0501B36F000EB46F98C2B5F5EDDD5C
:100A6400020E0501B36F000EB46F96C2B5F5E5DD55
:100A7400030E0501B36F000EB46F97C2B5F5DDDD4B
:100A8400040E0501B36F000EB46F99C2B5F5D5DD40
:100A9400050E0501B36F000EB46FECC1B5F5CDDDE5
:100AA400060E0501B36F000EB46F95C2B5F5C5DD32
:100AB400070E0501B36F000EB46FFFC1B5F5BDDDC0
:100AC400080E0501B36F000EB46FFEC1B5F5B5DDB8
:100AD400090E0501B36F000EB46F00C2B5F5ADDDAC
:100AE4000A0E0501B36F000EB46FEBC1B5F5A5DDB9
:100AF4000B0E0501B36F000EB46FEAC1B5F59DDDB1
:100B04000C0E0501B36F000EB46F83C1B5F595DD0E
:100B140083C1B3F5AEDD0D0E0501B36F000EB46FE6
:100B240094C2B5F58ADD0E0E0501B36F000EB46FE5
:100B340006C2B5F582DD0F0E0501B36F000EB46F6A
:100B4400EDC1B5F57ADD100E0501B36F000EB46F7B
:100B540001C2B5F572DD110E0501B36F000EB46F5D
:080B640007C2B5F56ADD1200BD
:100B6C00A7C5B3F5A8C5B4F50501B433B333B49F29
:100B7C00A9C5B5F5AAC5B6F5F2EC00F0010EA7159E
:100B8C00016EA8C502F0000E0216000E021802E15A
:100B9C00010E011818E1050EA925B36F000EAA214C
:100BAC00B46F2E0EAB6F350EAC6F730EAD6FAE6BAC
:100BBC00AB0EB56F050EB66F040EB76F000EB86FA7
:100BCC0047EC01F017D0050EA925B36F000EAA2132
:100BDC00B46F730EAF6F200EB06F200EB16FB26B8F
:100BEC00AF0EB56F050EB66F040EB76F000EB86F73
:060BFC0047EC01F01200BD
:100C0200A69CA8C5AAFFA7C5A9FFA69EA680A8CF95
:040C120000F01200DC
:100C1600010E0301CE25016E000ECF21026E01C02A
:100C2600E9FF02C0EAFF0A0EEE24006E01C0E1FFF2
:100C360002C0E2FF00C0E6FF030ECE25016E000EE5
:100C4600CF21026E01C0E9FF02C0EAFF0A0EEE24C0
:100C5600006E01C0E1FF02C0E2FF00C0E6FFCEC3A6
:100C6600E9FFCFC3EAFFEECF00F0CEC3E1FFCFC36B
:100C7600E2FF0A0E0024E66E020ECE25016E000E7D
:100C8600CF21026E01C0E9FF02C0EAFF0A0EEE2480
:100C9600006E01C0E1FF02C0E2FF00C0E6FF040EE5
:100CA600CE25E16E000ECF21E26E040EE66E060E34
:100CB600CE25E16E000ECF21E26E040EE66E080E22
:100CC600CE25E16E000ECF21E26E040EE66E0A0E10
:100CD600CE25E16E000ECF21E26E040EE66E050E05
:100CE600CE25E16E000ECF21E26E0A0EE66E090EEB
:100CF600CE25E16E000ECF21E26E0A0EE66E070EDD
:100D0600CE25E16E000ECF21E26E0A0EE66E0B0EC8
:100D1600CE25E16E000ECF21E26E0A0EE66E1200BF
:100D2600CEC3B3F50501B333B39FCFC3B4F5D0C378
:100D3600B5F548DC030E0301CF250501B36F000EA0
:100D46000301D0210501B46F730E0301D16F200E8C
:100D5600D26F200ED36FD46BD10E0501B56F030E83
:100D6600B66F040EB76F000EB86F47EC01F01200B5
:100D7600020E0101726F5E0E0501B36F010EB46FB4
:100D8600300EF66E750EF76E000EF86ECE0EE16E34
:100D9600030EE26E110E006E010E016E28DECE0EFF
:100DA600B56F030EB66F100EB76F000EB86F47EC37
:100DB60001F001017451000A64E14D0E0501B36FA3
:100DC600010EB46F410EF66E750EF76E000EF86EDC
:100DD600DF0EE16E030EE26E110E006E010E016E65
:100DE60006DEDF0EB56F030EB66F100EB76F000E80
:100DF600B86F47EC01F0010E0101766F7551000ADC
:100E06001EE15E0E0501B36F010EB46F520EF66E53
:100E1600750EF76E000EF86EF00EE16E030EE26EC2
:100E2600110E006E010E016EE2DDF00EB56F030EBF
:100E3600B66F100EB76F000EB86F47EC01F00101E8
:100E46007551010A1EE15E0E0501B36F010EB46F06
:100E5600630EF66E750EF76E000EF86E010EE16EFD
:100E6600040EE26E110E006E010E016EC0DD010E63
:100E7600B56F040EB66F100EB76F000EB86F47EC65
:100E860001F001017451010A29E14D0E0501B36F0C
:100E9600010EB46F740EF66E750EF76E000EF86ED8
:100EA600120EE16E040EE26E110E006E010E016E60
:100EB6009EDD120EB56F040EB66F100EB76F000EE4
:100EC600B86F47EC01F0010E0101766F98C2A7F5E5
:100ED600640E0501A86F010EA96FBBDC01017451F8
:100EE600020A29E14D0E0501B36F010EB46F850E9E
:100EF600F66E750EF76E000EF86E230EE16E040E9A
:100F0600E26E110E006E010E016E71DD230EB56FDD
:100F1600040EB66F100EB76F000EB86F47EC01F0F7
:100F2600010E0101766F96C2A7F5640E0501A86F42
:100F3600010EA96F8EDC01017451030A29E14D0EE1
:100F46000501B36F010EB46F960EF66E750EF76E51
:100F5600000EF86E340EE16E040EE26E110E006E97
:100F6600010E016E44DD340EB56F040EB66F100E21
:100F7600B76F000EB86F47EC01F0010E0101766FF6
:100F860097C2A7F5640E0501A86F010EA96F61DC73
:100F960001017451040A29E14D0E0501B36F010EDA
:100FA600B46FA70EF66E750EF76E000EF86E450E50
:100FB600E16E040EE26E110E006E010E016E17DD7B
:100FC600450EB56F040EB66F100EB76F000EB86FF4
:100FD60047EC01F0010E0101766F99C2A7F5640E88
:100FE6000501A86F010EA96F34DC01017451050AD1
:100FF60029E14D0E0501B36F010EB46FB80EF66E02
:10100600750EF76E000EF86E560EE16E040EE26E69
:10101600110E006E010E016EEADC560EB56F040E5F
:10102600B66F100EB76F000EB86F47EC01F0010EE9
:101036000101766F95C2A7F5640E0501A86F010E32
:10104600A96F07DC01017451060A2AE14D0E05015C
:10105600B36F010EB46FC90EF66E750EF76E000E05
:10106600F86E670EE16E040EE26E110E006E010E52
:10107600016EBDDC670EB56F040EB66F100EB76F4E
:10108600000EB86F47EC01F0010E0101766FFFC14B
:10109600A7F5640E0501A86F010EA96F2CEC04F0EC
:1010A60001017451070A2AE14D0E0501B36F010EC5
:1010B600B46FDA0EF66E750EF76E000EF86E780ED9
:1010C600E16E040EE26E110E006E010E016E8FDCF3
:1010D600780EB56F040EB66F100EB76F000EB86FB0
:1010E60047EC01F0010E0101766FFEC1A7F5640E13
:1010F6000501A86F010EA96F2CEC04F001017451D3
:10110600080A2AE14D0E0501B36F010EB46FEB0E0E
:10111600F66E750EF76E000EF86E890EE16E040E11
:10112600E26E110E006E010E016E61DC890EB56F66
:10113600040EB66F100EB76F000EB86F47EC01F0D5
:10114600010E0101766F00C2A7F5640E0501A86FB6
:10115600010EA96F2CEC04F001017451090A6BE130
:101166004D0E0501B36F010EB46FFC0EF66E750ED3
:10117600F76E000EF86E9A0EE16E040EE26E110E18
:10118600006E010E016E33DC9A0EB56F040EB66F5B
:10119600100EB76F000EB86F47EC01F0010E01019B
:1011A600766F83C1B3F5610E0501B46F010EB56F9D
:1011B600E5EC02F00101835109081FE2650E050105
:1011C600B36F010EB46F320E0401AB6F350EAC6F08
:1011D600300EAD6F4B0EAE6F670EAF6F2B0EB06F4E
:1011E600B16BAB0E0501B56F040EB66F060EB76F89
:1011F600000EB86F47EC01F01ED00501650EB36F07
:10120600010EB46F320E0401B26F350EB36F300E9D
:10121600B46F4B0EB56F670EB66F2D0EB76FB86B0A
:10122600B20E0501B56F040EB66F060EB76F000E4F
:10123600B86F47EC01F0010174510A0A2BE14D0E1B
:101246000501B36F010EB46F1B0EF66E760EF76EC8
:10125600000EF86EB90EE16E040EE26E110E006E0F
:10126600010E016EFAEC04F0B90EB56F040EB66FFE
:10127600100EB76F000EB86F47EC01F0010E0101BA
:10128600766FECC1A7F5640E0501A86F010EA96F74
:101296002CEC04F0010174510B0A2CE14D0E0501F2
:1012A600B36F010EB46F2C0EF66E760EF76E000E4F
:1012B600F86ECA0EE16E040EE26E110E006E010E9D
:1012C600016EFAEC04F0CA0EB56F040EB66F100E7E
:1012D600B76F000EB86F47EC01F0010E0101766F93
:1012E600EAC1A7F5EBC1A8F5620E0501A96F010ECB
:1012F600AA6F39DC010174510C0A22E14D0E050179
:10130600B36F010EB46F3D0EF66E760EF76E000EDD
:10131600F86EDB0EE16E040EE26E110E006E010E2B
:10132600016EFAEC04F0DB0EB56F040EB66F100E0C
:10133600B76F000EB86F47EC01F0010E0101766F32
:1013460074510D0A66E14D0E0501B36F010EB46FBF
:101356004E0EF66E760EF76E000EF86EEC0EE16E21
:10136600040EE26E110E006E010E016EFAEC04F030
:10137600EC0EB56F040EB66F100EB76F000EB86F99
:1013860047EC01F0010E0101766FED51000A21E1F3
:10139600640E0501B36F010EB46F4E0E0401FD6FAE
:1013A6006F0EFE6F200EFF6F200E0501006F200EE0
:1013B600016F200E026F200E036F046BFD0EB56FDA
:1013C600040EB66F070EB76F000EB86F47EC01F04C
:1013D60020D00501640EB36F010EB46F590E056F70
:1013E600650E066F730E076F200E086F200E096FCD
:1013F600200E0A6F200E0B6F200E0C6F0D6B050E64
:10140600B56F050EB66F080EB76F000EB86F47ECD6
:1014160001F0010174510E0A65E14D0E0501B36F2D
:10142600010EB46F700EF66E760EF76E000EF86E45
:101436000E0EE16E050EE26E110E006E010E016ECD
:10144600FAEC04F00E0EB56F050EB66F100EB76F00
:10145600000EB86F47EC01F0010E0101766F020134
:101466000151000A1FE1640E0501B36F010EB46F4E
:101476004E0E1F6F6F0E206F200E216F200E226FF3
:10148600200E236F200E246F200E256F266B1F0E55
:10149600B56F050EB66F070EB76F000EB86F47EC47
:1014A60001F020D00501640EB36F010EB46F590E22
:1014B600276F650E286F730E296F200E2A6F200E78
:1014C6002B6F200E2C6F200E2D6F200E2E6F2F6B84
:1014D600270EB56F050EB66F080EB76F000EB86F04
:1014E60047EC01F0010174510F0A65E14D0E05014B
:1014F600B36F010EB46F920EF66E760EF76E000E97
:10150600F86E300EE16E050EE26E110E006E010EE3
:10151600016EFAEC04F0300EB56F050EB66F100EC4
:10152600B76F000EB86F47EC01F0010E0101766F40
:1015360002010751000A1FE1640E0501B36F010E97
:10154600B46F4E0E416F6F0E426F200E436F200E2A
:10155600446F200E456F200E466F200E476F486B76
:10156600410EB56F050EB66F070EB76F000EB86F5A
:1015760047EC01F020D00501640EB36F010EB46F85
:10158600590E496F650E4A6F730E4B6F200E4C6FE6
:10159600200E4D6F200E4E6F200E4F6F200E506F97
:1015A600516B490EB56F050EB66F080EB76F000E7C
:1015B600B86F47EC01F001017451100A65E14D0E58
:1015C6000501B36F010EB46FB40EF66E760EF76EAC
:1015D600000EF86E520EE16E050EE26E110E006EF2
:1015E600010E016EFAEC04F0520EB56F050EB66FE1
:1015F600100EB76F000EB86F47EC01F0010E010137
:10160600766F02010651000A1FE1640E0501B36FF1
:10161600010EB46F4E0E636F6F0E646F200E656F12
:10162600200E666F200E676F200E686F200E696FA2
:101636006A6B630EB56F050EB66F070EB76F000EB9
:10164600B86F47EC01F020D00501640EB36F010EB0
:10165600B46F590E6B6F650E6C6F730E6D6F200E47
:101666006E6F200E6F6F200E706F200E716F200E42
:10167600726F736B6B0EB56F050EB66F080EB76F94
:10168600000EB86F47EC01F001017451110A2BE10D
:101696004D0E0501B36F010EB46FD60EF66E760EC3
:1016A600F76E000EF86E740EE16E050EE26E110E08
:1016B600006E010E016EFAEC04F0740EB56F050EA5
:1016C600B66F100EB76F000EB86F47EC01F0010E43
:1016D6000101766F94C2A7F5640E0501A86F010E8D
:1016E600A96F2CEC04F001017451120A22E14D0E8F
:1016F6000501B36F010EB46FE70EF66E760EF76E48
:10170600000EF86E850EE16E050EE26E110E006E8D
:10171600010E016EFAEC04F0850EB56F050EB66F7C
:10172600100EB76F000EB86F47EC01F0010E010105
:10173600766F7451130A22E14D0E0501B36F010E47
:10174600B46FF80EF66E760EF76E000EF86E960E05
:10175600E16E050EE26E110E006E010E016EFAECE0
:1017660004F0960EB56F050EB66F100EB76F000E2D
:10177600B86F47EC01F0010E0101766F650E776FC9
:0217860012004F
:10178800010E0301CE25E96E000ECF21EA6EEECFE1
:1017980098F2CEC3E9FFCFC3EAFFEECF97F2D0515C
:1017A800020AD8A485D0030ECE25E96E000ECF21FB
:1017B800EA6EEECF96F2020ECE25E96E000ECF212C
:1017C800EA6EEECF99F2040ECE25E96E000ECF2117
:1017D800EA6E080ECE25D96E000ECF21DA6EDE50E5
:1017E800EE24036E046A000E042203C000F004C055
:1017F80001F001320032019E01BC018E00C095F259
:10180800050ECE25E96E000ECF21EA6E090ECE2513
:10181800D96E000ECF21DA6EDE50EE24036E046A14
:10182800000E042203C000F004C001F001320032AF
:10183800019E01BC018E00C0FFF1060ECE25E96EA7
:10184800000ECF21EA6E0A0ECE25D96E000ECF21EA
:10185800DA6EDE50EE24036E046A000E042203C022
:1018680000F004C001F001320032019E01BC018E7B
:1018780000C0FEF1070ECE25E96E000ECF21EA6EFC
:101888000B0ECE25D96E000ECF21DA6EDE50EE2477
:10189800036E046A000E042203C000F004C001F0C5
:1018A80001320032019E01BC018E00C000F224D03A
:1018B8000201966B996B040E0301CE25E96E000EAA
:1018C800CF21EA6EEECF95F2050ECE25E96E000E19
:1018D800CF21EA6EEECFFFF1060ECE25E96E000E9F
:1018E800CF21EA6EEECFFEF1070ECE25E96E000E8F
:0E18F800CF21EA6EEECF00F22AEC05F01200CE
:101906000101E2510301CE1905E10101E26B010E6D
:10191600006E12000101E3510301CE1905E1010138
:10192600E36B010E006E12000101E4510301CE19B2
:1019360005E10101E46B010E006E1200006A12005F
:101946000301CE6B140ECE5D53E2CEC300F0000E43
:10195600016E070E046E000E056E6FEC04F0080EA5
:101966000026020E0122050E0024E96E000E01205B
:10197600EA6EEE50000A3AE1CEC300F0000E016EA8
:10198600070E046E000E056E6FEC04F0080E0024C0
:10199600E96E020E0120EA6EEECF01F00150090A4F
:1019A60025E1CEC300F0000E016E070E046E000E98
:1019B600056E6FEC04F0080E0026020E0122010EE1
:1019C6000024E96E000E0120EA6EEECFCFF3EECFD3
:1019D600D0F3EECFD1F3EECFD2F3050E0024E16EB5
:1019E600000E0120E26E010EE66E02D0CE2BAAD7C3
:1019F60001017C510301CF5D016E01C0CEF3140ECF
:0C1A0600015C01E3CE6BCEC300F01200C7
:101A12007CC1A7F57DC1A8F57EC1A9F57FC1AAF554
:101A2200D00E0501AB6F030EAC6F97EC04F0D00E35
:101A3200A76F030EA86F12EC04F03A0E0301DB6FDE
:101A4200200EDC6FDD6BDB0E0501A76F030EA86FA6
:101A52000FEC05F0CEC3A7F5CFC3A8F50FEC05F048
:101A62000A0EBA6FB5EC00F00D0E0501BA6FB5ECB7
:041A720000F012006E
:101A76000301CE51010A05E10001B06BB16B010112
:101A8600E6910301CE51020A05E10001B26BB36B88
:061A96000101E6931200BD
:101A9C000301CF6B140ECF5D44E2CFC300F0000EF8
:101AAC00016E070E046E000E056E6FEC04F0080E4E
:101ABC000026020E0122050E0024E96E000E012004
:101ACC00EA6EEE50000A2BE1CFC300F0000E016E5F
:101ADC00070E046E000E056E6FEC04F0080E002469
:101AEC00E96E020E0120EA6EEECF01F00150CE1924
:101AFC0016E0CFC300F0000E016E070E046E000E50
:101B0C00056E6FEC04F0080E0026020E0122050E85
:101B1C000024E16E000E0120E26E010EE66ECF2B6A
:041B2C00B9D7120013
:101B30000301CE51000A04E0CF51000A01E002D0B7
:101B4000F28801D0F298CEC371F1CFC36FF11200C9
:101B5000010E0501A76F000EA86F01EC06F000C092
:101B600098F2020EA76F000EA86F01EC06F000C0FD
:101B700096F2030EA76F000EA86F01EC06F000C0EE
:101B800097F2040EA76F000EA86F01EC06F000C0DC
:101B900099F2050EA76F000EA86F01EC06F000C0C9
:101BA000ECF1060EA76F000EA86F01EC06F000C066
:101BB00095F2070EA76F000EA86F01EC06F000C0AB
:101BC000FFF1080EA76F000EA86F01EC06F000C031
:101BD000FEF1090EA76F000EA86F01EC06F000C021
:101BE00000F20A0EA76F000EA86F01EC06F000C00D
:101BF000EAF1000E0101EB6FEAC1EBF1EA6B0B0EAB
:101C00000501A76F000EA86F01EC06F0005001015E
:101C1000EA13000EEB130C0E0501A76F000EA86F60
:101C200001EC06F000C083F100C0B3F53BEC03F01B
:101C30000D0E0501A76F000EA86F01EC06F000C0A5
:101C400094F20E0EA76F000EA86F01EC06F000C014
:101C500006F20F0EA76F000EA86F01EC06F000C091
:101C6000EDF1100EA76F000EA86F01EC06F000C09A
:101C700001F2110EA76F000EA86F01EC06F000C074
:041C800007F2120055
:101C84000301D36B140ED35D72E2D3C300F0000ED4
:101C9400016E070E046E000E056E6FEC04F0080E64
:101CA4000026020E0122050E0024E96E000E01201A
:101CB400EA6EEE50010A59E1D3C300F0000E016E42
:101CC400070E046E000E056E6FEC04F0080E00247F
:101CD400E16E020E0120E26ED2C3E6FFD3C300F030
:101CE400000E016E070E046E000E056E6FEC04F01C
:101CF400080E0026020E0122010E0024E16E000EE1
:101D04000120E26ECEC3E6FFCFC3E6FFD0C3E6FFF9
:101D1400D1C3E6FFD3C300F0000E016E070E046EBC
:101D2400000E056E6FEC04F0080E0026020E012270
:101D3400050E0024E16E000E0120E26EE66AD3C3B4
:101D440000F0000E016E070E046E000E056E6FECBF
:101D540004F0080E0026020E0122060E0024E16E95
:101D6400000E0120E26EE66A02D0D32B8BD712005C
:101D7400140E0201986F140E976F140E966F140EC2
:101D8400996F050E0101836F050E0501B36F3BECDE
:101D940003F00A0E0101FF6F040E0201956F0A0E93
:101DA400006F040E0101FE6F0C0EEC6FEA6BEB6B1F
:101DB4000201066B0101ED6B0201016B946B010ED4
:081DC400076F2AEC05F0120084
:101DCC000301CE51010A16E1CFB102D0829201D0AB
:101DDC008282060E0B6E130E0C6EAD0E0D6E0D2E5A
:101DEC00FED70C2EFCD70B2EFAD700000000010EEC
:101DFC002B6E8186CE51020A17E1CFB102D08290B0
:101E0C0001D08280060E0B6E130E0C6EAD0E0D6E95
:101E1C000D2EFED70C2EFCD70B2EFAD7000000008F
:0A1E2C00010E00019E6F8188120074
:101E36000301CE51010A02E12B6A8196CE51020AB4
:0A1E460003E100019E6B8198120079
:101E50009E96CEC3C9FFC7A401D0FDD79EB601D0C0
:101E6000FDD7C5BC02D0006A03D0C584020E006E47
:021E700012005E
:041E7200C584120011
:101E7600C26A070EC012C08ECEC300F000360090B4
:101E8600003600900050C212C2806AEC04F0C28292
:101E9600C2A201D0FDD7C4CF01F0006AC350001220
:081EA600000E0112C2901200AF
:101EAE000301CE6B140ECE5D4BE2CEC300F0000EDE
:101EBE00016E070E046E000E056E6FEC04F0080E38
:101ECE000026020E0122050E0024E96E000E0120EE
:101EDE00EA6EEE50000A32E1CEC300F0000E016E43
:101EEE00070E046E000E056E6FEC04F0080E002453
:101EFE00E96E020E0120EA6EEECF01F00150090AE2
:101F0E001DE1CEC300F0000E016E070E046E000E32
:101F1E00056E6FEC04F0080E0026020E0122010E73
:101F2E000024E96E000E0120EA6EEECFCFF3EECF65
:101F3E00D0F3EECFD1F3EECFD2F302D0CE2BB2D779
:101F4E00140ECE5D02E3CE6B05D001017C51030170
:0A1F5E00CF5DCE6FCEC300F012007D
:101F68000301CE6BCF6BCF51120802E1CE518E0820
:101F780009E302EC05F0005201E004D00301CE4B66
:101F8800CF2BF1D70301120ECF5D02E18F0ECE5D8C
:101F980003E37B0E006E05D0C580C5A001D0FDD738
:041FA800006A1200B9
:101FAC000201B56BB66BB76B83BA02D0B78101D0A7
:101FBC00B79184B002D0B78301D0B79383B802D065
:101FCC00B78501D0B795B751000A18E1010141510D
:101FDC00000A07E1C96BB36B416B0201B46B0101E1
:101FEC00B46B4151010A0AE1050E485D07E3C96B68
:101FFC00B36B416B0201B46B0101B46B0101C951AC
:10200C00010A0AE14651495D07E3010EB46F496BC1
:10201C00190EB35D01E2B32B0201B751000A22E0A5
:10202C0001014151010A1EE1C951000A1BE1020ED6
:10203C00CA25016E000ECB21026E000ECC21036E60
:10204C00000ECD21046E7F51041808E17E51031857
:10205C0005E17D51021802E17C51011803E1010EEA
:10206C00C96F496B0201B751000A09E001014151E6
:10207C00010A05E1C951000A02E10201B46B020137
:10208C00B751000A0EE001014151010A0AE1C951A0
:10209C00010A07E10201B7510101B403F3CFB4F215
:1020AC00B46B0201B751000A11E001014151000A61
:1020BC000DE1B7C2B4F2010E416F7CC1CAF17DC112
:1020CC00CBF17EC1CCF17FC1CDF1486B0201B45193
:1020DC00000A03E0010E0101476FB4C200F01200C8
:1020EC0083A003D083A201D003D0010E006E120096
:0420FC00006A120064
:102100000201B46B010142B103D00201B49102D0CB
:102110000201B481010144B103D00201B49302D0A1
:102120000201B4830101426B446B140E775D15E22A
:102130000201B4B106D00101E1B503D00201B491AE
:1021400002D00201B481B4B306D00101E1B103D0E1
:102150000201B49302D00201B483B4C200F01200B1
:10216000010E0101786FE1A318D0786B736B650ED7
:10217000776FBBEC06F07451000A0FE1E06B75510C
:10218000000A04E1C80E776F010E876F7551010ACE
:1021900004E1C90E776F010E876F7451000A14E1D4
:1021A000E1A108D07551000805E27507BBEC06F007
:1021B000660E776FE1A508D0010E755D05E2752BFF
:1021C000BBEC06F0660E776F7451010A17E1E1A1CE
:1021D00009D002019851000805E29807BBEC06F00F
:1021E000660E776F0101E1A509D0FF0E0201985D2F
:1021F00005E2982BBBEC06F0660E776F0101745177
:10220000020A17E1E1A109D002019651000805E296
:102210009607BBEC06F0660E776F0101E1A509D0C9
:10222000FF0E0201965D05E2962BBBEC06F0660EF2
:10223000776F01017451030A17E1E1A109D002018E
:102240009751000805E29707BBEC06F0660E776F22
:102250000101E1A509D0FF0E0201975D05E2972B70
:10226000BBEC06F0660E776F01017451040A17E1AA
:10227000E1A109D002019951000805E29907BBECE0
:1022800006F0660E776F0101E1A509D0FF0E02018D
:10229000995D05E2992BBBEC06F0660E776F0101A4
:1022A0007451050A17E1E1A109D002019551000816
:1022B00005E29507BBEC06F0660E776F0101E1A51C
:1022C00009D0FF0E0201955D05E2952BBBEC06F0EF
:1022D000660E776F01017451060A14E1E1A108D07E
:1022E000FF51000805E2FF07BBEC06F0660E776FB2
:1022F000E1A508D0FF0EFF5D05E2FF2BBBEC06F069
:10230000660E776F7451070A14E1E1A108D0FE51FF
:10231000000805E2FE07BBEC06F0660E776FE1A54C
:1023200008D0FF0EFE5D05E2FE2BBBEC06F0660E4C
:10233000776F7451080A17E1E1A109D00201005139
:10234000000805E20007BBEC06F0660E776F01019E
:10235000E1A509D0FF0E0201005D05E2002BBBECF8
:1023600006F0660E776F01017451090A14E1E1A1CC
:1023700008D08351010805E28307BBEC06F0660E26
:10238000776FE1A508D00F0E835D05E2832BBBECD0
:1023900006F0660E776F74510A0A14E1E1A108D0C5
:1023A000EC51000805E2EC07BBEC06F0660E776F17
:1023B000E1A508D0FF0EEC5D05E2EC2BBBEC06F0CE
:1023C000660E776F74510B0A20E1E1A110D0000E68
:1023D000006EEB51005C02E1EA51000808E2010ED8
:1023E000EA5F000EEB5BBBEC06F0660E776FE1A5D3
:1023F0000CD0FD0EEB5D02E1E80EEA5D06E2EA4B71
:10240000EB2BBBEC06F0660E776F74510C0A1CE1E7
:10241000776B4D0E0501B36F010EB46FEE0EB56F05
:10242000010EB66F100EB76F000EB86F47EC01F0DB
:10243000010E0101726F786B736B010E766F010EE6
:10244000876F98DC2AEC05F0010174510D0A14E144
:10245000E1A108D0ED51000805E2ED07BBEC06F064
:10246000660E776FE1A508D0010EED5D05E2ED2B5C
:10247000BBEC06F0660E776F74510E0A17E1E1A10E
:1024800009D002010151000805E20107BBEC06F08A
:10249000660E776F0101E1A509D0010E0201015D11
:1024A00005E2012BBBEC06F0660E776F010174515B
:1024B0000F0A17E1E1A109D002010751000805E266
:1024C0000707BBEC06F0660E776F0101E1A509D0A6
:1024D000010E0201075D05E2072BBBEC06F0660E5C
:1024E000776F01017451100A17E1E1A109D00201CF
:1024F0000651000805E20607BBEC06F0660E776F92
:102500000101E1A509D0010E0201065D05E2062BDD
:10251000BBEC06F0660E776F01017451110A20E1E1
:10252000E1A10DD002019451000809E294079451F1
:10253000090A01E1946BBBEC06F0660E776F0101AE
:10254000E1A50ED0FF0E0201945D0AE2942B945196
:10255000010A02E10A0E946FBBEC06F0660E776F7B
:1025600001017451120A19E1670E776F4D0E0501D2
:10257000B36F010EB46FEE0EB56F010EB66F100E95
:10258000B76F000EB86F47EC01F00101786B010ED8
:10259000726F010E766F010E876F7451130A1BE183
:1025A000776B4D0E0501B36F010EB46FEE0EB56F74
:1025B000010EB66F100EB76F000EB86F47EC01F04A
:1025C0000101786B010E726F010E766FA8EC0DF0B1
:0825D000010E0101876F1200EA
:1025D8000201B86B0301CE6B4ADC00C0B4F201C043
:1025E800B5F2010E0301CE6F42DC00C0B6F201C0A5
:1025F800B7F201017151000A21E0A5510201B55D50
:1026080004E10101A4510201B45D0AE2FF0E0001D8
:10261800B15D02E1FA0EB05D02E2B04BB12B0DD014
:102628000001000E006EB151005C02E1B0510008DB
:1026380004E2010EB05F000EB15B03D00001B06B85
:10264800B16BB1510101A75D04E10001B051010175
:10265800A65D02E20201B88101016F51000A21E082
:10266800A5510201B75D04E10101A4510201B65D63
:102678000AE2FF0E0001B35D02E1FA0EB25D02E26A
:10268800B24BB32B0DD00001000E006EB351005CAD
:1026980002E1B251000804E2010EB25F000EB35B22
:1026A80003D00001B26BB36BB3510101A75D04E124
:1026B8000001B2510101A65D02E20201B883B8C26D
:0426C80000F012000C
:1026CC000201B46B83B801D0B48183BA01D0B48356
:0626DC00B4C200F0120080
:0A26E2002AEC05F00101776B1200ED
:1026EC003DDC7C0E0301CE6F28EC0FF0800E030155
:1026FC00CE6F28EC0FF00201B451020A05E1380E3E
:10270C000301CE6F28EC0FF00201B451010A05E170
:10271C00340E0301CE6F28EC0FF0800E0301CE6F48
:10272C0028EC0FF00201B451020A05E1390E030145
:10273C00CE6F28EC0FF00201B451010A05E1350E01
:10274C000301CE6F28EC0FF0800E0301CE6F28EC46
:10275C000FF01C0E0301CE6F28EC0FF0800E03015E
:10276C00CE6F28EC0FF0720E0301CE6F28EC0FF039
:10277C00800E0301CE6F28EC0FF0550E0301CE6FC7
:10278C0028EC0FF0800E0301CE6F28EC0FF06C0ECE
:10279C000301CE6F28EC0FF0800E0301CE6F28ECF6
:1027AC000FF00C0E0301CE6F28EC0FF0800E03011E
:1027BC00CE6F28EC0FF0010E0301CE6F28EC0FF05A
:1027CC00800E0301CE6F28EC0FF0060E0301CE6FC6
:1027DC0028EC0FF0800E0301CE6F28EC0FF0020EE8
:0E27EC000301CE6F28EC0FF039EC0FF0120055
:1027FA00949894968B988B9694889486C79EC79C37
:06280A00380EC66E12003C
:102810000201B86BB96BB451010A03E1B551800FE5
:10282000B96FB451020A03E1B551C00FB96FB4ECEE
:102830000FF07C0E0301CE6F28EC0FF0800E030129
:10284000CE6F28EC0FF0B9C2CEF328EC0FF0400E9B
:102850000301CE6F28EC0FF00201B851B625E96EE6
:10286000000EB721EA6EEE500A0A10E0B8511008C7
:102870000DE3B851B625E96E000EB721EA6EEECF32
:10288000CEF328EC0FF00201B82BE6D739EC0FF0AD
:102890000D0E0C6EFB0E0D6E0D2EFED70C2EFCD702
:0628A00000000000120020
:1028A6006A0E0101AF6F010EB06FBA0EB16F050E61
:1028B600B26FFF0EAB6FFF0EAC6F000EAD6F000E6A
:1028C600AE6FFF0E916FFF0E926F000E936F000EAC
:1028D600946FFF0E8D6FFF0E8E6F000E8F6F000EC2
:1028E600906FAC8A900EAB6E948E949C9EAA03D089
:0828F600AECF00F0FBD7120089
:1028FE000201B56BB66B3F0EB415026E02C0B4F298
:10290E00540EB56F02C000F00032009E0032009EE1
:10291E000032009E0032009E540E0010B56F700EF5
:10292E00B66F0F0E0214006E700E0010B66FB4EC80
:10293E000FF07C0E0301CE6F28EC0FF0800E03011A
:10294E00CE6F28EC0FF0B5C2CEF328EC0FF0800E50
:10295E000301CE6F28EC0FF0B6C2CEF328EC0FF0C9
:10296E0039EC0FF00D0E0C6EFB0E0D6E0D2EFED70C
:0A297E000C2EFCD700000000120030
:10298800838E010E0101856F010E0301CE6F83EC6A
:102998000CF000522BE0010E0301CE6FCF6BE6EC7A
:1029A8000EF0530E0201B46F370EB56F200EB66FDE
:1029B8004D0EB76F6F0EB86F740EB96F6F0EBA6F9A
:1029C800720EBB6F310EBC6F530EBD6F740EBE6FAF
:1029D800610EBF6F720EC06F740EC16FC26BB40E02
:1029E8000301CE6F020ECF6F09EC0DF0020E03014A
:1029F800CE6F83EC0CF000524DE0020E0301CE6F57
:102A0800CF6BE6EC0EF0530E0201C36F370EC46FA6
:102A1800200EC56F4D0EC66F6F0EC76F740EC86F50
:102A28006F0EC96F720ECA6F320ECB6F530ECC6F1A
:102A3800740ECD6F610ECE6F720ECF6F740ED06FA5
:102A4800D16BC30E0301CE6F020ECF6F09EC0DF0F0
:102A58004D0E0501B36F010EB46FB40EB56F000EC5
:102A6800B66F100EB76F000EB86F47EC01F05E0E30
:102A7800B36F010EB46FC50EB56F000EB66F100EB2
:102A8800B76F000EB86F47EC01F0010E0101766FC9
:102A9800010E726F0A0E0301CE6F83EC0CF0005228
:102AA8001FE0010E0101816F010E0301CE6F3BECA7
:102AB8000DF09B0EF66E7B0EF76E000EF86ED20EC2
:102AC800E16E020EE26E150E006E010E016EFAEC5A
:102AD80004F0D20E0301CE6F020ECF6F09EC0DF099
:102AE8000B0E0301CE6F83EC0CF000521FE0010EB9
:102AF8000101806F020E0301CE6F3BEC0DF0B00EAA
:102B0800F66E7B0EF76E000EF86EE70EE16E020EA3
:102B1800E26E150E006E010E016EFAEC04F0E70E7F
:102B28000301CE6F020ECF6F09EC0DF0050E030105
:102B3800CE6F83EC0CF000522EE0010E0301CE6F35
:102B48006FC1CFF398EC0DF00101706B530E0201C9
:102B5800FC6F370EFD6F200EFE6F4D0EFF6F310EAE
:102B68000301006F200E016F530E026F700E036F8A
:102B7800650E046F650E056F640E066F200E076FF5
:102B8800550E086F500E096F0A6BFC0ECE6F020EC1
:102B9800CF6F09EC0DF0060E0301CE6F83EC0CF03D
:102BA80000522DE071C1CEF3010E0301CF6F98ECF6
:102BB8000DF001014C6B530E03010B6F370E0C6FB8
:102BC800200E0D6F4D0E0E6F320E0F6F200E106F10
:102BD800530E116F700E126F650E136F650E146F22
:102BE800640E156F200E166F550E176F500E186F66
:102BF800196B0B0ECE6F030ECF6F09EC0DF0030EA1
:102C08000301CE6F83EC0CF0005208E10101815101
:102C1800010A03E1E6A101D001D029D0010186A172
:102C280026D08691010E0301CE6F1BEC0FF0530ED8
:102C380003011A6F370E1B6F200E1C6F4D0E1D6F90
:102C4800310E1E6F200E1F6F530E206F740E216FF2
:102C58006F0E226F700E236F650E246F640E256F42
:102C6800266B1A0ECE6F030ECF6F09EC0DF0040E13
:102C78000301CE6F83EC0CF0005208E10101805192
:102C8800010A03E1E6A301D001D029D0010186A3FE
:102C980026D08693020E0301CE6F1BEC0FF0530E65
:102CA8000301276F370E286F200E296F4D0E2A6FEC
:102CB800320E2B6F200E2C6F530E2D6F740E2E6F4D
:102CC8006F0E2F6F700E306F650E316F640E326F9E
:102CD800336B270ECE6F030ECF6F09EC0DF0020198
:102CE8009651000A05E001018451010A01E002D071
:102CF80001018693E7A150D0010E0301CE6F1BECB2
:102D08000FF0020E0301CE6F1BEC0FF00101816B77
:102D1800806B060E776F010E0001D66FFD0EF66E02
:102D28007B0EF76E000EF86E340EE16E030EE26E47
:102D3800110E006E010E016EFAEC04F0340E030160
:102D4800CE6F030ECF6F09EC0DF0090E0301CE6FA5
:102D58004EEC0DF04D0E0501B36F010EB46FD90E98
:102D6800B56F000EB66F100EB76F000EB86F47EC58
:102D780001F05E0EB36F010EB46F0D0EB56F010E4C
:102D8800B66F100EB76F000EB86F47EC01F0010E6A
:102D98000101766F020E726FE551000A4DE0010ED7
:102DA8000301CE6F1BEC0FF0020E0301CE6F1BEC7C
:102DB8000FF0060E0101776F816B806B0E0EF66EB9
:102DC8007C0EF76E000EF86E450EE16E030EE26E95
:102DD800120E006E010E016EFAEC04F0450E0301AE
:102DE800CE6F030ECF6F09EC0DF0090E0301CE6F05
:102DF8004EEC0DF04D0E0501B36F010EB46FD90EF8
:102E0800B56F000EB66F100EB76F000EB86F47ECB7
:102E180001F05E0EB36F010EB46F1E0EB56F010E9A
:102E2800B66F100EB76F000EB86F47EC01F0010EC9
:102E38000101766F020E726FE851010A50E102013A
:102E480001534DE0010E0301CE6F1BEC0FF0020E93
:102E58000301CE6F1BEC0FF0060E0101776F816B3B
:102E6800806B200EF66E7C0EF76E000EF86E570E15
:102E7800E16E030EE26E150E006E010E016EFAECA5
:102E880004F0570E0301CE6F030ECF6F09EC0DF05F
:102E9800090E0301CE6F4EEC0DF04D0E0501B36F18
:102EA800010EB46FD90EB56F000EB66F100EB76F66
:102EB800000EB86F47EC01F05E0EB36F010EB46FF1
:102EC8002F0EB56F010EB66F100EB76F000EB86FEC
:102ED80047EC01F0010E0101766F020E726F0101DD
:102EE8008651000A2BE1010E776F0001D76B090E9E
:102EF8000301CE6F4EEC0DF04D0E0501B36F010EC0
:102F0800B46FEA0EB56F000EB66F100EB76F000EF5
:102F1800B86F47EC01F05E0EB36F010EB46FC50ECB
:102F2800B56F000EB66F100EB76F000EB86F47EC96
:102F380001F0010E0101766F010E726F7751050ADB
:102F480004E07751060A01E04CD00301CE6B4EEC49
:102F58000DF0000E0101EB1902E1000EEA1941E043
:102F6800EA517C250301CE6F0101EB517D2103015C
:102F7800CF6F000E01017E210301D06F000E010109
:102F88007F210301D16F090ED26F42EC0EF0350E8E
:102F9800F66E7C0EF76E000EF86E6C0EE16E030E88
:102FA800E26E150E006E010E016EFAEC04F06C0E66
:102FB800CE6F030ECF6F09EC0DF05E0E0501B36FF7
:102FC800010EB46FFB0EB56F000EB66F100EB76F23
:102FD800000EB86F47EC01F0010E0101766F020E8A
:042FE800726F1200F2
:102FEC00838E010E0101856F010E0301CE6F83EC00
:102FFC000CF000524FE0010E0301CE6F010ECF6FAB
:10300C00E6EC0EF0530E0201B46F330EB56F200ECA
:10301C00B66F4D0EB76F6F0EB86F740EB96F6F0E33
:10302C00BA6F720EBB6F310EBC6F530EBD6F740E48
:10303C00BE6F610EBF6F720EC06F740EC16FC26B2C
:10304C00B40E0301CE6F020ECF6F09EC0DF0839C12
:10305C004D0E0501B36F010EB46F8D0EB56F000EE2
:10306C00B66F100EB76F000EB86F47EC01F05E0E26
:10307C00B36F010EB46FC50EB56F000EB66F100EA8
:10308C00B76F000EB86F47EC01F0010E0101766FBF
:10309C00010E726F020E0301CE6F83EC0CF0005226
:1030AC002DE0020E0301CE6F010ECF6FE6EC0EF099
:1030BC00530E0201C36F330EC46F200EC56F4D0E3D
:1030CC00C66F6F0EC76F740EC86F6F0EC96F720E1E
:1030DC00CA6F320ECB6F530ECC6F740ECD6F610E68
:1030EC00CE6F720ECF6F740ED06FD16BC30E030107
:1030FC00CE6F020ECF6F09EC0DF0839C050E030111
:10310C00CE6F83EC0CF000522FE0010E0301CE6F5A
:10311C006FC1CFF398EC0DF00101816B706B530E06
:10312C000201D26F330ED36F200ED46F4D0ED56FBC
:10313C006F0ED66F740ED76F6F0ED86F720ED96F6D
:10314C00310EDA6F200EDB6F460EDC6F610EDD6F19
:10315C00730EDE6F740EDF6FE06BD20E0301CE6F59
:10316C00020ECF6F09EC0DF0070E0301CE6F83EC4E
:10317C000CF000522EE00301CE6B6FC1CFF398EC34
:10318C000DF0010E0101706F530E0201E16F330E51
:10319C00E26F200EE36F4D0EE46F6F0EE56F740E51
:1031AC00E66F6F0EE76F720EE86F310EE96F200E4F
:1031BC00EA6F530EEB6F6C0EEC6F6F0EED6F770EBC
:1031CC00EE6FEF6BE10E0301CE6F020ECF6F09ECC9
:1031DC000DF0060E0301CE6F83EC0CF000522FE0C5
:1031EC0071C1CEF3010E0301CF6F98EC0DF001010C
:1031FC00806B4C6B530E0201F06F330EF16F200E8F
:10320C00F26F4D0EF36F6F0EF46F740EF56F6F0E51
:10321C00F66F720EF76F320EF86F200EF96F460EC6
:10322C00FA6F610EFB6F730EFC6F740EFD6FFE6B0D
:10323C00F00E0301CE6F020ECF6F09EC0DF0080EED
:10324C000301CE6F83EC0CF000522EE071C1CEF373
:10325C000301CF6B98EC0DF0010E01014C6F530E76
:10326C000201FF6F330E0301006F200E016F4D0E34
:10327C00026F6F0E036F740E046F6F0E056F720E7C
:10328C00066F320E076F200E086F530E096F6C0E0F
:10329C000A6F6F0E0B6F770E0C6F0D6BFF0ECE6FF0
:1032AC00020ECF6F09EC0DF00A0E0301CE6F83EC0A
:1032BC000CF000521FE0010E0101816F010E0301A1
:1032CC00CE6F3BEC0DF0D10EF66E780EF76E000E55
:1032DC00F86E0E0EE16E030EE26E160E006E010E0F
:1032EC00016EFAEC04F00E0E0301CE6F030ECF6FDD
:1032FC0009EC0DF00B0E0301CE6F83EC0CF00052B9
:10330C001FE0010E0101806F020E0301CE6F3BEC3A
:10331C000DF0E70EF66E780EF76E000EF86E240EBA
:10332C00E16E030EE26E160E006E010E016EFAECEB
:10333C0004F0240E0301CE6F030ECF6F09EC0DF0D9
:10334C00030E0301CE6F83EC0CF000522BE0010155
:10335C000C91010E0301CE6F1BEC0FF0530E030109
:10336C003A6F330E3B6F200E3C6F4D0E3D6F6F0E60
:10337C003E6F740E3F6F6F0E406F720E416F310EC9
:10338C00426F200E436F530E446F740E456F6F0ED9
:10339C00466F700E476F486B3A0ECE6F030ECF6FB1
:1033AC0009EC0DF0040E0301CE6F83EC0CF000520F
:1033BC002BE001010C93020E0301CE6F1BEC0FF0FE
:1033CC00530E0301496F330E4A6F200E4B6F4D0E97
:1033DC004C6F6F0E4D6F740E4E6F6F0E4F6F720EF3
:1033EC00506F320E516F200E526F530E536F740E7E
:1033FC00546F6F0E556F700E566F576B490ECE6F24
:10340C00030ECF6F09EC0DF00C0E0301CE6F83ECA5
:10341C000CF0005201E0838C01018151010A52E150
:10342C00E6A150D07051000A4DE1010E0301CE6FA0
:10343C001BEC0FF0020E0301CE6F1BEC0FF0050E10
:10344C000101776F816B806B1B0EF66E790EF76E38
:10345C00000EF86E580EE16E030EE26E140E006E46
:10346C00010E016EFAEC04F0580E0301CE6F030E40
:10347C00CF6F09EC0DF0090E0301CE6F4EEC0DF081
:10348C004D0E0501B36F010EB46FD90EB56F000E62
:10349C00B66F100EB76F000EB86F47EC01F05E0EF2
:1034AC00B36F010EB46F9F0EB56F000EB66F100E9A
:1034BC00B76F000EB86F47EC01F0010E0101766F8B
:1034CC00020E726F8051010A52E1E6A350D04C51AA
:1034DC00000A4DE1010E0301CE6F1BEC0FF0020E42
:1034EC000301CE6F1BEC0FF0050E0101776F816BA2
:1034FC00806B2F0EF66E790EF76E000EF86E6C0E5A
:10350C00E16E030EE26E140E006E010E016EFAEC0B
:10351C0004F06C0E0301CE6F030ECF6F09EC0DF0AF
:10352C00090E0301CE6F4EEC0DF04D0E0501B36F7D
:10353C00010EB46FD90EB56F000EB66F100EB76FCB
:10354C00000EB86F47EC01F05E0EB36F010EB46F56
:10355C009F0EB56F000EB66F100EB76F000EB86FE2
:10356C0047EC01F0010E0101766F020E726F020141
:10357C009651000A05E001018451010A01E002D0D4
:10358C0001010C93E7A14FD0ED534DE0010E030167
:10359C00CE6F1BEC0FF0020E0301CE6F1BEC0FF085
:1035AC000101816B806B050E776F430EF66E790E01
:1035BC00F76E000EF86E800EE16E030EE26E110EC9
:1035CC00006E010E016EFAEC04F0800E0301CE6F5A
:1035DC00030ECF6F09EC0DF0090E0301CE6F4EEC0C
:1035EC000DF04D0E0501B36F010EB46FD90EB56F12
:1035FC00000EB66F100EB76F000EB86F47EC01F0EF
:10360C005E0EB36F010EB46F0D0EB56F010EB66F7B
:10361C00100EB76F000EB86F47EC01F0010E0101F0
:10362C00766F020E726FE551000A4DE0010E030138
:10363C00CE6F1BEC0FF0020E0301CE6F1BEC0FF0E4
:10364C000101816B806B050E776F540EF66E790E4F
:10365C00F76E000EF86E910EE16E030EE26E110E17
:10366C00006E010E016EFAEC04F0910E0301CE6FA8
:10367C00030ECF6F09EC0DF0090E0301CE6F4EEC6B
:10368C000DF04D0E0501B36F010EB46FD90EB56F71
:10369C00000EB66F100EB76F000EB86F47EC01F04E
:1036AC005E0EB36F010EB46F1E0EB56F010EB66FCA
:1036BC00100EB76F000EB86F47EC01F0010E010150
:1036CC00766F020E726FE851010A50E1020101534C
:1036DC004DE0010E0301CE6F1BEC0FF0020E030147
:1036EC00CE6F1BEC0FF00101816B806B050E776FB9
:1036FC00650EF66E790EF76E000EF86EA20EE16E88
:10370C00030EE26E170E006E010E016EFAEC04F061
:10371C00A20E0301CE6F030ECF6F09EC0DF0090E54
:10372C000301CE6F4EEC0DF04D0E0501B36F010E83
:10373C00B46FD90EB56F000EB66F100EB76F000ECA
:10374C00B86F47EC01F05E0EB36F010EB46F2F0E25
:10375C00B56F010EB66F100EB76F000EB86F47EC59
:10376C0001F0010E0101766F020E726F01010C5116
:10377C00000A2BE1020E776F0001D76B090E0301D3
:10378C00CE6F4EEC0DF04D0E0501B36F010EB46F04
:10379C001A0EB56F000EB66F100EB76F000EB86F25
:1037AC0047EC01F05E0EB36F010EB46FC50EB56F32
:1037BC00000EB66F100EB76F000EB86F47EC01F02D
:1037CC00010E0101766F020E726F7751050A04E04B
:1037DC007751060A01E04CD00301CE6B4EEC0DF094
:1037EC00000E0101EB1902E1000EEA1941E0EA5169
:1037FC007C250301CE6F0101EB517D210301CF6FBD
:10380C00000E01017E210301D06F000E01017F210A
:10381C000301D16F090ED26F42EC0EF07C0EF66EE6
:10382C00790EF76E000EF86EB90EE16E030EE26EB5
:10383C00150E006E010E016EFAEC04F0B90ECE6F8F
:10384C00030ECF6F09EC0DF05E0E0501B36F010E88
:10385C00B46FFB0EB56F000EB66F100EB76F000E87
:10386C00B86F47EC01F0010E0101766F020E726F1A
:02387C00120038
:10387E000101E1A302D000018C2B00018C51010A41
:10388E0020E14D0E0501B36F010EB46F4C0EB56FF6
:10389E00000EB66F100EB76F000EB86F47EC01F04A
:1038AE005E0EB36F010EB46F5C0EB56F000EB66F89
:1038BE00100EB76F000EB86F47EC01F0010E01014C
:1038CE00766F00018C51020A20E14D0E0501B36F97
:1038DE00010EB46F6C0EB56F000EB66F100EB76F93
:1038EE00000EB86F47EC01F05E0EB36F010EB46FB1
:1038FE007C0EB56F000EB66F100EB76F000EB86F60
:10390E0047EC01F0010E0101766F00018C51030AA4
:0A391E0003E1640E0101776F12004F
:10392800838E010E0101856F010E0301CE6F83ECBA
:103938000CF000522BE0010E0301CE6FCF6BE6ECCA
:103948000EF0530E0201B46F340EB56F200EB66F31
:103958004D0EB76F6F0EB86F740EB96F6F0EBA6FEA
:10396800720EBB6F310EBC6F530EBD6F740EBE6FFF
:10397800610EBF6F720EC06F740EC16FC26BB40E52
:103988000301CE6F020ECF6F09EC0DF0020E03019A
:10399800CE6F83EC0CF000524DE0020E0301CE6FA7
:1039A800CF6BE6EC0EF0530E0201C36F340EC46FFA
:1039B800200EC56F4D0EC66F6F0EC76F740EC86FA1
:1039C8006F0EC96F720ECA6F320ECB6F530ECC6F6B
:1039D800740ECD6F610ECE6F720ECF6F740ED06FF6
:1039E800D16BC30E0301CE6F020ECF6F09EC0DF041
:1039F8004D0E0501B36F010EB46FB40EB56F000E16
:103A0800B66F100EB76F000EB86F47EC01F05E0E80
:103A1800B36F010EB46FC50EB56F000EB66F100E02
:103A2800B76F000EB86F47EC01F0010E0101766F19
:103A3800010E726F0A0E0301CE6F83EC0CF0005278
:103A48001FE0010E0101816F010E0301CE6F3BECF7
:103A58000DF0AF0EF66E790EF76E000EF86ED20E00
:103A6800E16E020EE26E150E006E010E016EFAECAA
:103A780004F0D20E0301CE6F020ECF6F09EC0DF0E9
:103A88000B0E0301CE6F83EC0CF000521FE0010E09
:103A98000101806F020E0301CE6F3BEC0DF0C40EE6
:103AA800F66E790EF76E000EF86EE70EE16E020EF6
:103AB800E26E150E006E010E016EFAEC04F0E70ED0
:103AC8000301CE6F020ECF6F09EC0DF0050E030156
:103AD800CE6F83EC0CF000522FE0010E0301CE6F85
:103AE8006FC1CFF398EC0DF00101816B706B530E31
:103AF8000201FC6F340EFD6F200EFE6F4D0EFF6F3E
:103B0800310E0301006F200E016F530E026F700E0D
:103B1800036F650E046F650E056F640E066F200E49
:103B2800076F550E086F500E096F0A6BFC0ECE6FAB
:103B3800020ECF6F09EC0DF0070E0301CE6F83EC78
:103B48000CF0005221E00301CE6B6FC1CFF398EC6B
:103B58000DF00101816B010E706FE80EF66E790EA3
:103B6800F76E000EF86E0B0EE16E030EE26E110E8C
:103B7800006E010E016EFAEC04F00B0E0301CE6F1D
:103B8800030ECF6F09EC0DF0060E0301CE6F83EC28
:103B98000CF000522DE071C1CEF3010E0301CF6F7E
:103BA80098EC0DF001014C6B530E03011C6F340EA1
:103BB8001D6F200E1E6F4D0E1F6F320E206F200ED0
:103BC800216F530E226F700E236F650E246F650EE2
:103BD800256F640E266F200E276F550E286F500E26
:103BE800296F2A6B1C0ECE6F030ECF6F09EC0DF0F8
:103BF800080E0301CE6F83EC0CF0005220E071C177
:103C0800CEF30301CF6B98EC0DF0010E01014C6F60
:103C1800080EF66E7A0EF76E000EF86E2B0EE16E39
:103C2800030EE26E110E006E010E016EFAEC04F046
:103C38002B0E0301CE6F030ECF6F09EC0DF0030EB0
:103C48000301CE6F83EC0CF0005227E0010186914E
:103C5800010E0301CE6F1BEC0FF0530E03013C6FF6
:103C6800340E3D6F200E3E6F4D0E3F6F310E406F8C
:103C7800200E416F530E426F740E436F6F0E446FE8
:103C8800700E456F650E466F640E476F486B3C0EAD
:103C9800CE6F030ECF6F09EC0DF0040E0301CE6F4B
:103CA80083EC0CF0005227E001018693020E030119
:103CB800CE6F1BEC0FF0530E0301496F340E4A6FA1
:103CC800200E4B6F4D0E4C6F320E4D6F200E4E6F07
:103CD800530E4F6F740E506F6F0E516F700E526F00
:103CE800650E536F640E546F556B490ECE6F030EFD
:103CF800CF6F09EC0DF001018151010A52E1E6A1F3
:103D080050D07051000A4DE1010E0301CE6F1BEC3B
:103D18000FF0020E0301CE6F1BEC0FF0060E01012F
:103D2800776F816B806B330EF66E7A0EF76E000E2E
:103D3800F86E560EE16E030EE26E110E006E010E65
:103D4800016EFAEC04F0560E0301CE6F030ECF6F2E
:103D580009EC0DF0090E0301CE6F4EEC0DF04D0E7F
:103D68000501B36F010EB46FD90EB56F000EB66FB3
:103D7800100EB76F000EB86F47EC01F05E0EB36F10
:103D8800010EB46F9F0EB56F000EB66F100EB76FB1
:103D9800000EB86F47EC01F0010E0101766F020EBC
:103DA800726F8051010A52E1E6A350D04C51000ACB
:103DB8004DE1010E0301CE6F1BEC0FF0020E030163
:103DC800CE6F1BEC0FF0060E0101776F816B806BD5
:103DD800440EF66E7A0EF76E000EF86E670EE16E00
:103DE800030EE26E110E006E010E016EFAEC04F085
:103DF800670E0301CE6F030ECF6F09EC0DF0090EAD
:103E08000301CE6F4EEC0DF04D0E0501B36F010EA0
:103E1800B46FD90EB56F000EB66F100EB76F000EE7
:103E2800B86F47EC01F05E0EB36F010EB46F9F0ED2
:103E3800B56F000EB66F100EB76F000EB86F47EC77
:103E480001F0010E0101766F020E726F02019651A8
:103E5800000A05E001018451010A01E002D00101D4
:103E68008693E7A150D0010E0301CE6F1BEC0FF033
:103E7800020E0301CE6F1BEC0FF00101816B806B0A
:103E8800060E776F010E0001D66F550EF66E7A0E8C
:103E9800F76E000EF86E780EE16E030EE26E110EEC
:103EA800006E010E016EFAEC04F0780E0301CE6F7D
:103EB800030ECF6F09EC0DF0090E0301CE6F4EEC27
:103EC8000DF04D0E0501B36F010EB46FD90EB56F2D
:103ED800000EB66F100EB76F000EB86F47EC01F00A
:103EE8005E0EB36F010EB46F0D0EB56F010EB66F97
:103EF800100EB76F000EB86F47EC01F0010E01010C
:103F0800766F020E726FE851010A50E10201015307
:103F18004DE0010E0301CE6F1BEC0FF0020E030102
:103F2800CE6F1BEC0FF0060E0101776F816B806B73
:103F3800660EF66E7A0EF76E000EF86E890EE16E5A
:103F4800030EE26E150E006E010E016EFAEC04F01F
:103F5800890E0301CE6F030ECF6F09EC0DF0090E29
:103F68000301CE6F4EEC0DF04D0E0501B36F010E3F
:103F7800B46FD90EB56F000EB66F100EB76F000E86
:103F8800B86F47EC01F05E0EB36F010EB46F2F0EE1
:103F9800B56F010EB66F100EB76F000EB86F47EC15
:103FA80001F0010E0101766F020E726F0101E551F9
:103FB800000A4DE0010E0301CE6F1BEC0FF0020E5C
:103FC8000301CE6F1BEC0FF0060E0101776F816BBA
:103FD800806B7B0EF66E7A0EF76E000EF86E9E0EF4
:103FE800E16E030EE26E120E006E010E016EFAEC27
:103FF80004F09E0E0301CE6F030ECF6F09EC0DF097
:10400800090E0301CE6F4EEC0DF04D0E0501B36F96
:10401800010EB46FD90EB56F000EB66F100EB76FE4
:10402800000EB86F47EC01F05E0EB36F010EB46F6F
:104038001E0EB56F010EB66F100EB76F000EB86F7B
:1040480047EC01F0010E0101766F020E726F865186
:10405800000A2BE1010E776F0001D76B090E0301EF
:10406800CE6F4EEC0DF04D0E0501B36F010EB46F1F
:10407800EA0EB56F000EB66F100EB76F000EB86F70
:1040880047EC01F05E0EB36F010EB46FC50EB56F4D
:10409800000EB66F100EB76F000EB86F47EC01F048
:1040A800010E0101766F010E726F7751050A04E067
:1040B8007751060A01E04CD00301CE6B4EEC0DF0AF
:1040C800000E0101EB1902E1000EEA1941E0EA5184
:1040D8007C250301CE6F0101EB517D210301CF6FD8
:1040E800000E01017E210301D06F000E01017F2126
:1040F8000301D16F090ED26F42EC0EF08D0EF66EF1
:104108007A0EF76E000EF86EB00EE16E030EE26ED8
:10411800150E006E010E016EFAEC04F0B00ECE6FB3
:10412800030ECF6F09EC0DF05E0E0501B36F010EA3
:10413800B46FFB0EB56F000EB66F100EB76F000EA2
:10414800B86F47EC01F0010E0101766F020E726F35
:02415800120053
:10415A00020E0201EA6F839E0101856BE551000A96
:10416A0009E1090E0301CE6F83EC0CF00050010A3D
:10417A0001E0DDD102019951000A05E001018451F3
:10418A00010A01E088D0090E0301CE6F4EEC0DF052
:10419A000201EA5101017C25006E000E7D21016EAB
:1041AA00000E7E21026E000E7F21036E00C002F215
:1041BA0001C003F202C004F203C005F200C0CEF34C
:1041CA0001C0CFF302C0D0F303C0D1F3010E030143
:1041DA00D26F42EC0EF002C2CEF303C2CFF304C296
:1041EA00D0F305C2D1F3050ED26F42EC0EF00101F5
:1041FA00706B060E7C25006E000E7D21016E000E8E
:10420A007E21026E000E7F21036E0201EA51002612
:10421A00000E01220222032200C002F201C003F2B0
:10422A0002C004F203C005F200C0CEF301C0CFF30E
:10423A0002C0D0F303C0D1F30A0E0301D26F42ECDD
:10424A000EF00201975101017C25006E000E7D21BE
:10425A00016E000E7E21026E000E7F21036E0201A6
:10426A00EA510026000E01220222032200C002F2B5
:10427A0001C003F202C004F203C005F200C0CEF38B
:10428A0001C0CFF302C0D0F303C0D1F3030E030180
:10429A00D26F42EC0EF002019951000AD8B440D113
:1042AA0001018451020AD8A43BD1090E0301CE6F41
:1042BA004EEC0DF00201EA5101017C25006E000E60
:1042CA007D21016E000E7E21026E000E7F21036E9B
:1042DA0000C002F201C003F202C004F203C005F2F8
:1042EA0000C0CEF301C0CFF302C0D0F303C0D1F3B4
:1042FA00020E0301D26F42EC0EF002C2CEF303C2E9
:10430A00CFF304C2D0F305C2D1F3060ED26F42EC4A
:10431A000EF00101706B060E7C25006E000E7D21E9
:10432A00016E000E7E21026E000E7F21036E0201D5
:10433A00EA510026000E01220222032200C002F2E4
:10434A0001C003F202C004F203C005F200C0CEF3BA
:10435A0001C0CFF302C0D0F303C0D1F30B0E0301A7
:10436A00D26F42EC0EF00201975101017C25006EDA
:10437A00000E7D21016E000E7E21026E000E7F214D
:10438A00036E0201EA510026000E012202220322D4
:10439A0000C002F201C003F202C004F203C005F237
:1043AA0000C0CEF301C0CFF302C0D0F303C0D1F3F3
:1043BA00040E0301D26F42EC0EF00101EC517C2590
:1043CA00006E000E7D21016E000E7E21026E000E2F
:1043DA007F21036E0201EA510026000E0122022209
:1043EA00032200C002F201C003F202C004F203C0B9
:1043FA0005F200C0CEF301C0CFF302C0D0F303C070
:10440A00D1F3010E0301D26F42EC0EF00101EC511F
:10441A007C25006E000E7D21016E000E7E21026E4B
:10442A00000E7F21036E0201EA510026000E0122CE
:10443A000222032200C002F201C003F202C004F207
:10444A0003C005F200C0CEF301C0CFF302C0D0F31F
:10445A0003C0D1F3050E0301D26F42EC0EF0010145
:10446A004C6BEC517C25006E000E7D21016E000E16
:10447A007E21026E000E7F21036E060E0026000EBC
:10448A000122022203220201EA510026000E012221
:10449A000222032200C002F201C003F202C004F2A7
:1044AA0003C005F200C0CEF301C0CFF302C0D0F3BF
:1044BA0003C0D1F30A0E0301D26F42EC0EF00201DF
:1044CA00995101017C25006E000E7D21016E000EBE
:1044DA007E21026E000E7F21036E0201EA51002640
:1044EA00000E0122022203220101EC510026000ED5
:1044FA0001220222032200C002F201C003F202C01A
:10450A0004F203C005F200C0CEF301C0CFF302C02B
:10451A00D0F303C0D1F3030E0301D26F42EC0EF0C5
:10452A00030E0101866F816B806B070E776F0101A5
:10453A00E7A126D0000EEB1902E1000EEA1920E0ED
:10454A000001D751000A1CE1010ED76FA3EC0CF051
:10455A0000C0D8F08E0EF66E7C0EF76E000EF86E66
:10456A00B40EE16E020EE26E160E006E010E016EC0
:10457A00FAEC04F0B40ECE6F020ECF6F09EC0DF018
:10458A000001D751010A5BE10101E7B158D0000EE1
:10459A00EB1902E1000EEA1952E00001D8510101BB
:1045AA007C25006E000E7D21016E000E7E21026EBA
:1045BA00000E7F21036E00C002F201C003F202C0A6
:1045CA0004F203C005F200C0CEF301C0CFF302C06B
:1045DA00D0F303C0D1F3090E0301D26F42EC0EF0FF
:1045EA000001D76B02C2A7F503C2A8F504C2A9F558
:1045FA0005C2AAF5950E0501AB6F010EAC6F97ECDB
:10460A0004F0A40EF66E7C0EF76E000EF86ECA0E5B
:10461A00E16E020EE26E100E006E010E016EFAECF1
:10462A0004F0CA0E0301CE6F020ECF6F09EC0DF033
:10463A00950E0301CE6F010ECF6F09EC0DF012003B
:10464A00030E0201EA6F839E0101856BE551000AA0
:10465A0004E10001D65301E14CD10001D66B838EEF
:10466A00010E0101856F090E0301CE6F4EEC0DF0AC
:10467A000201075318E0010E01017C250301CE6FE8
:10468A00000E01017D210301CF6F000E01017E2181
:10469A000301D06F000E01017F210301D16F0C0EBF
:1046AA00D26F42EC0EF00201EA5101017C25006E44
:1046BA00000E7D21016E000E7E21026E000E7F210A
:1046CA00036E00C002F201C003F202C004F203C08A
:1046DA0005F200C0CEF301C0CFF302C0D0F303C08D
:1046EA00D1F3010E0301D26F42EC0EF002C2CEF3F7
:1046FA0003C2CFF304C2D0F305C2D1F3050ED26FC1
:10470A0042EC0EF00101706B060E7C25006E000E65
:10471A007D21016E000E7E21026E000E7F21036E46
:10472A000201EA510026000E01220222032200C0E1
:10473A0002F201C003F202C004F203C005F200C093
:10474A00CEF301C0CFF302C0D0F303C0D1F30A0EF7
:10475A000301D26F42EC0EF00201985101017C254F
:10476A00006E000E7D21016E000E7E21026E000E8B
:10477A007F21036E0201EA510026000E0122022265
:10478A00032200C002F201C003F202C004F203C015
:10479A0005F200C0CEF301C0CFF302C0D0F303C0CC
:1047AA00D1F3030E0301D26F42EC0EF002019651CF
:1047BA00000AD8B494D001018451020AD8A48FD037
:1047CA00EC517C250301CE6F000E01017D2103010E
:1047DA00CF6F000E01017E210301D06F000E01018F
:1047EA007F210301D16F0201EA510301CE27000E96
:1047FA00CF23D023D123020ED26F42EC0EF0010157
:10480A00EC517C250301CE6F000E01017D210301CD
:10481A00CF6F000E01017E210301D06F000E01014E
:10482A007F210301D16F0201EA510301CE27000E55
:10483A00CF23D023D123060ED26F42EC0EF0010112
:10484A004C6BEC517C250301CE6F000E01017D21DA
:10485A000301CF6F000E01017E210301D06F000E0C
:10486A0001017F210301D16F060ECE27000ECF234F
:10487A00D023D1230201EA510301CE27000ECF2310
:10488A00D023D1230B0ED26F42EC0EF002019651C7
:10489A0001017C250301CE6F000E01017D21030178
:1048AA00CF6F000E01017E210301D06F000E0101BE
:1048BA007F210301D16F0101EC510301CE27000EC4
:1048CA00CF23D023D1230201EA510301CE27000EC0
:1048DA00CF23D023D123040ED26F42EC0EF0030E65
:1048EA0001010C6F816B806B0001D76B080E01010F
:1048FA00776F090E0301CE6F83EC0CF00050010AAA
:10490A00D8A42BD1090E0301CE6F4EEC0DF0020193
:10491A00EA5101017C25006E000E7D21016E000E18
:10492A007E21026E000E7F21036E00C002F201C0DA
:10493A0003F202C004F203C005F200C0CEF301C0C4
:10494A00CFF302C0D0F303C0D1F3010E0301D26F3B
:10495A0042EC0EF002C2CEF303C2CFF304C2D0F38C
:10496A0005C2D1F3050ED26F42EC0EF00101706B55
:10497A00060E7C25006E000E7D21016E000E7E2142
:10498A00026E000E7F21036E0201EA510026000E1C
:10499A0001220222032200C002F201C003F202C075
:1049AA0004F203C005F200C0CEF301C0CFF302C087
:1049BA00D0F303C0D1F30A0E0301D26F42EC0EF01A
:1049CA000201975101017C25006E000E7D21016EC6
:1049DA00000E7E21026E000E7F21036E0201EA5153
:1049EA000026000E01220222032200C002F201C0A8
:1049FA0003F202C004F203C005F200C0CEF301C004
:104A0A00CFF302C0D0F303C0D1F3030E0301D26F78
:104A1A0042EC0EF002019951000AD8B494D0010177
:104A2A008451020AD8A48FD0EC517C250301CE6FA1
:104A3A00000E01017D210301CF6F000E01017E21CD
:104A4A000301D06F000E01017F210301D16F020122
:104A5A00EA510301CE27000ECF23D023D123020E21
:104A6A00D26F42EC0EF00101EC517C250301CE6FAE
:104A7A00000E01017D210301CF6F000E01017E218D
:104A8A000301D06F000E01017F210301D16F0201E2
:104A9A00EA510301CE27000ECF23D023D123060EDD
:104AAA00D26F42EC0EF001014C6BEC517C250301F4
:104ABA00CE6F000E01017D210301CF6F000E0101AF
:104ACA007E210301D06F000E01017F210301D16F06
:104ADA00060ECE27000ECF23D023D1230201EA519E
:104AEA000301CE27000ECF23D023D1230B0ED26F82
:104AFA0042EC0EF00201975101017C250301CE6FB1
:104B0A00000E01017D210301CF6F000E01017E21FC
:104B1A000301D06F000E01017F210301D16F010152
:104B2A00EC510301CE27000ECF23D023D12302015B
:104B3A00EA510301CE27000ECF23D023D123040E3E
:104B4A00D26F42EC0EF0030E0101866F816B806B0F
:104B5A000001D76B070E0101776F0101E7A126D08B
:104B6A00000EEB1902E1000EEA1920E00001D7510C
:104B7A00000A1CE1010ED76FA3EC0CF000C0D8F0BC
:104B8A00C50EF66E7C0EF76E000EF86EB40EE16E70
:104B9A00020EE26E160E006E010E016EFAEC04F0C1
:104BAA00B40ECE6F020ECF6F09EC0DF00001D75193
:104BBA00010A5BE10101E7B158D0000EEB1902E1ED
:104BCA00000EEA1952E00001D85101017C25006E5D
:104BDA00000E7D21016E000E7E21026E000E7F21E5
:104BEA00036E00C002F201C003F202C004F203C065
:104BFA0005F200C0CEF301C0CFF302C0D0F303C068
:104C0A00D1F3090E0301D26F42EC0EF00001D76B0B
:104C1A0002C2A7F503C2A8F504C2A9F505C2AAF5FE
:104C2A00950E0501AB6F010EAC6F97EC04F0DB0E2D
:104C3A00F66E7C0EF76E000EF86ECA0EE16E020E6C
:104C4A00E26E100E006E010E016EFAEC04F0CA0E4E
:104C5A000301CE6F020ECF6F09EC0DF0950E030122
:0C4C6A00CE6F010ECF6F09EC0DF01200B0
:104C7600F5D1838E0101E5A103D0020ECE6FE02BA4
:104C8600E5A304D0010ECE6F030EE06F816B806B3F
:104C96001ED2020E0301CE6FCF6BE6EC0EF0060EAF
:104CA60001017C250301CE6F000E01017D21030168
:104CB600CF6F000E01017E210301D06F000E0101AE
:104CC6007F210301D16F150ED26F42EC0EF0010168
:104CD600E02BFDD1E6A30BD08051010A08E1806BE1
:104CE600020E0301CE6F1BEC0FF00101E02B150E37
:104CF6000301CE6F83EC0CF0005203E0010E0101BC
:104D0600806FE5D1010E0301CE6FCF6BE6EC0EF09E
:104D1600060E01017C250301CE6F000E01017D21E7
:104D26000301CF6F000E01017E210301D06F000E3B
:104D360001017F210301D16F140ED26F42EC0EF0F8
:104D46000101E02BE6A10BD08151010A08E1816B3C
:104D5600010E0301CE6F1BEC0FF00101E02B140EC8
:104D66000301CE6F83EC0CF0005203E0010E01014B
:104D7600816FADD17CC1DCF17DC1DDF17EC1DEF19B
:104D86007FC1DFF1010E0301CE6F010ECF6FE6EC9E
:104D96000EF0060E01017C250301CE6F000E010107
:104DA6007D210301CF6F000E01017E210301D06F2B
:104DB600000E01017F210301D16F140ED26F42EC68
:104DC6000EF00101E02B83D1E6A116D08151010A34
:104DD60013E1816B010E0301CE6F1BEC0FF0010195
:104DE600CE51010A03E10B0EE06F01D0E02BDC513E
:104DF6007C5D006E00C0D0F1140E0301CE6F83EC13
:104E06000CF0005203E0010E0101816F60D17CC1FC
:104E1600DCF17DC1DDF17EC1DEF17FC1DFF1020E85
:104E26000301CE6F010ECF6FE6EC0EF0060E010108
:104E36007C250301CE6F000E01017D210301CF6F9A
:104E4600000E01017E210301D06F000E01017F21BA
:104E56000301D16F150ED26F42EC0EF00101E02B6B
:104E660036D1E6A310D08051010A0DE1806B020E07
:104E76000301CE6F1BEC0FF00101E02BDC517C5DD2
:104E8600006E00C0D2F1150E0301CE6F83EC0CF05C
:104E9600005203E0010E0101806F19D17CC1DCF1E3
:104EA6007DC1DDF17EC1DEF17FC1DFF1020E0301BE
:104EB600CE6FCF6BE6EC0EF0060E01017C250301EA
:104EC600CE6F000E01017D210301CF6F000E01019F
:104ED6007E210301D06F000E01017F210301D16FF6
:104EE600150ED26F42EC0EF00101E02BF0D0E6A3D6
:104EF60010D08051010A0DE1806B020E0301CE6FC6
:104F06001BEC0FF00101E02BDC517C5D006E00C054
:104F1600D1F1150E0301CE6F83EC0CF0005203E0C5
:104F2600010E0101806FD3D07CC1DCF17DC1DDF1C2
:104F36007EC1DEF17FC1DFF1010E0301CE6FCF6BC3
:104F4600E6EC0EF0060E01017C250301CE6F000E85
:104F560001017D210301CF6F000E01017E210301B6
:104F6600D06F000E01017F210301D16F140ED26FA5
:104F760042EC0EF00101E02BAAD0E6A110D081513F
:104F8600010A0DE1816B010E0301CE6F1BEC0FF0E0
:104F96000101E02BDC517C5D006E00C0CFF1140EE8
:104FA6000301CE6F83EC0CF0005203E0010E010109
:104FB600816F8DD0CF0E0301CE6F010ECF6F0BEC3C
:104FC60006F0CF0ECE6F010ECF6FCEC1D0F3C4EC7C
:104FD6000BF04D0E0501B36F010EB46FFC0EF66EAD
:104FE6007C0EF76E000EF86EB40EE16E020EE26EE7
:104FF600110E006E010E016EFAEC04F0B40EB56FE0
:10500600020EB66F100EB76F000EB86F47EC01F0C8
:105016005E0EB36F010EB46F0D0EF66E7D0EF76E5B
:10502600000EF86EC50EE16E020EE26E110E006EF7
:10503600010E016EFAEC04F0C50EB56F020EB66FE6
:10504600100EB76F000EB86F47EC01F0020E0101AB
:10505600726F010E766F839E776B39D00101E05136
:10506600000AD8B406D6E051010AD8B412D6E051E7
:10507600020AD8B42FD6E051030AD8B443D6E05179
:10508600040AD8B45FD6E051050AD8B473D6E05105
:10509600060AD8B499D6E051070AD8B4B8D6E05172
:1050A600080AD8B4DED6E051090AD8B4F7D6E051DA
:1050B6000A0AD8B41CD7E0510B0AD8B435D7E05148
:1050C6000C0AD8B45AD7E0510D0AD8B473D71200D7
:1050D600020E0201F66FF76B839E0101856B57EC9A
:1050E6000FF000500201F71938E00101736B57EC1D
:1050F6000FF000C0F7F200C0CEF3690ECF6F010EBD
:10510600D06F93EC06F05E0EB36F010EB46F430ED4
:105116000201B46F6C0EB56F6F0EB66F730EB76F7C
:10512600650EB86F200EB96F610EBA6F660EBB6F53
:10513600740EBC6F650EBD6F720EBE6FBF6BB40E84
:105146000501B56F020EB66F0B0EB76F000EB86F86
:1051560047EC01F0010E0101766F0101E551000AED
:1051660008E1090E0301CE6F83EC0CF0005201E159
:10517600BFD30301CE6B4EEC0DF002019951000A2C
:1051860005E001018451010A01E041D10201F65115
:1051960001017C25006E000E7D21016E000E7E2130
:1051A600026E000E7F21036E00C002F201C003F200
:1051B60002C004F203C005F200C0CEF301C0CFF373
:1051C60002C0D0F303C0D1F3010E0301D26F42EC4B
:1051D6000EF00101FE51000A11E002C2CEF303C235
:1051E600CFF304C2D0F305C2D1F3070E0301D26F89
:1051F60042EC0EF0010E0101706F0FD002C2CEF329
:1052060003C2CFF304C2D0F305C2D1F3050E0301E6
:10521600D26F42EC0EF00101706BFE517C25006EE0
:10522600000E7D21016E000E7E21026E000E7F2192
:10523600036E060E0026000E012202220322020140
:10524600F6510026000E01220222032200C002F2BD
:1052560001C003F202C004F203C005F200C0CEF39F
:1052660001C0CFF302C0D0F303C0D1F30A0E03018D
:10527600D26F42EC0EF00101FE517C25006E000E4D
:105286007D21016E000E7E21026E000E7F21036ECF
:105296000201F6510026000E01220222032200C05E
:1052A60002F201C003F202C004F203C005F200C01C
:1052B600CEF301C0CFF302C0D0F303C0D1F3050E85
:1052C6000301D26F42EC0EF002010051000A2FE0FA
:1052D600975101017C25006E000E7D21016E000EA6
:1052E6007E21026E000E7F21036E02010051005ED8
:1052F600000E015A025A035AF6510026000E0122E8
:105306000222032200C002F201C003F202C004F22C
:1053160003C005F200C0CEF301C0CFF302C0D0F344
:1053260003C0D1F3070E0301D26F42EC0EF0020167
:105336000651000A42E0975101017C25006E000EDD
:105346007D21016E000E7E21026E000E7F21036E0E
:105356000201F6510026000E01220222032200C09D
:1053660002F201C003F202C004F203C005F200C05B
:10537600CEF301C0CFF302C0D0F303C0D1F3050EC4
:105386000301D26F42EC0EF0020E02010225030168
:10539600CE6F000E020103210301CF6F000E020142
:1053A60004210301D06F000E020105210301D16F14
:1053B600030ED26F42EC0EF02AD002019751010182
:1053C6007C25006E000E7D21016E000E7E21026E90
:1053D600000E7F21036E0201F6510026000E012207
:1053E6000222032200C002F201C003F202C004F24C
:1053F60003C005F200C0CEF301C0CFF302C0D0F364
:1054060003C0D1F3030E0301D26F42EC0EF002018A
:105416009951000AD8B465D201018451020AD8A470
:1054260060D20201F65101017C25006E000E7D213D
:10543600016E000E7E21026E000E7F21036E00C0FB
:1054460002F201C003F202C004F203C005F200C07A
:10545600CEF301C0CFF302C0D0F303C0D1F3020EE6
:105466000301D26F42EC0EF00101FE51000A11E079
:1054760002C2CEF303C2CFF304C2D0F305C2D1F306
:10548600080E0301D26F42EC0EF0010E01014C6FC3
:105496000FD002C2CEF303C2CFF304C2D0F305C2CB
:1054A600D1F3060E0301D26F42EC0EF001014C6BF4
:1054B600FE517C25006E000E7D21016E000E7E21C0
:1054C600026E000E7F21036E060E0026000E0122DC
:1054D600022203220201F6510026000E01220222B8
:1054E600032200C002F201C003F202C004F203C0AC
:1054F60005F200C0CEF301C0CFF302C0D0F303C063
:10550600D1F30B0E0301D26F42EC0EF00101FE51F6
:105516007C25006E000E7D21016E000E7E21026E3E
:10552600000E7F21036E0201F6510026000E0122B5
:105536000222032200C002F201C003F202C004F2FA
:1055460003C005F200C0CEF301C0CFF302C0D0F312
:1055560003C0D1F3060E0301D26F42EC0EF0020136
:105566000051000A2FE0995101017C25006E000EC2
:105576007D21016E000E7E21026E000E7F21036EDC
:1055860002010051005E000E015A025A035AF651FA
:105596000026000E01220222032200C002F201C0F0
:1055A60003F202C004F203C005F200C0CEF301C04C
:1055B600CFF302C0D0F303C0D1F3080E0301D26FBC
:1055C60042EC0EF00201995101017C25006E000E9D
:1055D6007D21016E000E7E21026E000E7F21036E7C
:1055E6000201F6510026000E01220222032200C00B
:1055F60002F201C003F202C004F203C005F200C0C9
:10560600CEF301C0CFF302C0D0F303C0D1F3040E32
:105616000301D26F42EC0EF00101EC517C25006EC5
:10562600000E7D21016E000E7E21026E000E7F218E
:10563600036E0201F6510026000E01220222032209
:1056460000C002F201C003F202C004F203C005F278
:1056560000C0CEF301C0CFF302C0D0F303C0D1F334
:10566600010E0301D26F42EC0EF00101FE51000A59
:1056760011E002C2CEF303C2CFF304C2D0F305C2D7
:10568600D1F3070E0301D26F42EC0EF0010E0101B9
:10569600706F0FD002C2CEF303C2CFF304C2D0F3B1
:1056A60005C2D1F3050E0301D26F42EC0EF00101E3
:1056B600706BEC517C25006E000E7D21016E000E94
:1056C6007E21026E000E7F21036EFE510026000E23
:1056D600012202220322060E0026000E01220222C9
:1056E60003220201F6510026000E012202220322A5
:1056F60000C002F201C003F202C004F203C005F2C8
:1057060000C0CEF301C0CFF302C0D0F303C0D1F383
:105716000A0E0301D26F42EC0EF00101EC517C251A
:10572600006E000E7D21016E000E7E21026E000EBF
:105736007F21036EFE510026000E01220222032263
:105746000201F6510026000E01220222032200C0A9
:1057560002F201C003F202C004F203C005F200C067
:10576600CEF301C0CFF302C0D0F303C0D1F3050ED0
:105776000301D26F42EC0EF002010051000A35E03F
:105786000101EC517C25006E000E7D21016E000E9C
:105796007E21026E000E7F21036E020197510026C4
:1057A600000E0122022203220051005E000E015A61
:1057B600025A035AF6510026000E01220222032243
:1057C60000C002F201C003F202C004F203C005F2F7
:1057D60000C0CEF301C0CFF302C0D0F303C0D1F3B3
:1057E600070E0301D26F42EC0EF002010651000AC9
:1057F60048E0975101017C25006E000E7D21016E67
:10580600000E7E21026E000E7F21036EEC510026F3
:10581600000E0122022203220201F6510026000E8A
:1058260001220222032200C002F201C003F202C0DA
:1058360004F203C005F200C0CEF301C0CFF302C0EC
:10584600D0F303C0D1F3050E0301D26F42EC0EF084
:10585600020E020102250301CE6F000E0201032192
:105866000301CF6F000E020104210301D06F000E69
:10587600020105210301D16F030ED26F42EC0EF037
:1058860030D00201975101017C25006E000E7D216A
:10589600016E000E7E21026E000E7F21036EEC511A
:1058A6000026000E0122022203220201F6510026E2
:1058B600000E01220222032200C002F201C003F2FE
:1058C60002C004F203C005F200C0CEF301C0CFF35C
:1058D60002C0D0F303C0D1F3030E0301D26F42EC32
:1058E6000EF0030E0101866F816B806B040E776FDD
:1058F6000101E7A126D0000EEB1902E1000EEA191C
:1059060020E00001D751000A1CE1010ED76FA3EC7D
:105916000CF000C0D8F0560EF66E7C0EF76E000E38
:10592600F86EC00EE16E020EE26E160E006E010EED
:10593600016EFAEC04F0C00ECE6F020ECF6F09ECCA
:105946000DF00001D751010AD8A4B3D00101E7B187
:10595600B0D0000EEB1902E1000EEA19D8B4A9D0B6
:1059660002019451000A53E10001D85101017C253E
:10597600006E000E7D21016E000E7E21026E000E6D
:105986007F21036E00C002F201C003F202C004F2DE
:1059960003C005F200C0CEF301C0CFF302C0D0F3BE
:1059A60003C0D1F3090E0301D26F42EC0EF00001E1
:1059B600D76B02C2A7F503C2A8F504C2A9F505C2B2
:1059C600AAF5950E0501AB6F010EAC6F97EC04F0CE
:1059D6006C0EF66E7C0EF76E000EF86ED60EE16E4D
:1059E600020EE26E100E006E010E016EFAEC04F06D
:1059F600D60E0301CE6F020ECF6F09EC0DF0950E99
:105A06000301CE6F010ECF6F09EC0DF052D00201EB
:105A1600945101017C25006E000E7D21016E000E61
:105A26007E21026E000E7F21036E00C002F201C0CD
:105A360003F202C004F203C005F200C0CEF301C0B7
:105A4600CFF302C0D0F303C0D1F3090E0301D26F26
:105A560042EC0EF00001D76B02C2A7F503C2A8F50F
