:040000002CEF3AF0B7
:1000080000C019F001C018F004C017F008C016F0BD
:100018000CC015F0F2A430D00301C42B8088010E67
:10002800C76F190EC25D03E3C26BC36B01D0C22B4D
:10003800190E0801B95D04E3B96B0301C66B02D060
:100048000801B92B190E0301C45D11E3C46B010E3D
:1000580008014327000E4423452346238653010EF7
:10006800D8A4000E866F8098010E0301D46FF30E9A
:10007800D76ECA0ED66EF294F0A019D00301C35100
:10008800000A03E1C32BC26B01D0C32B050EC35D6D
:100098000DE3130EC25D09E3C251150806E3010E14
:1000A8000401FB6F0301C36B01D0C36BF090F0A296
:1000B8001ED00301C651000A04E1C62B0801B96B22
:1000C80002D00301C62B0301050EC65D0FE3130E14
:1000D8000801B95D09E3B951150806E3010E0401E9
:1000E800FC6F0301C66B02D00301C66BF092F2A24B
:1000F80035D00301C52BC551FF0A02E1020EC56FB9
:10010800030E046EC5C300F06BD808C000F00050A1
:10011800010A12E10801205306E00601B65302E085
:10012800818601D081960801705306E00601B55317
:1001380002E0818801D08198030E046EC5C300F0E7
:100148004FD808C000F00050000A07E1080120530A
:10015800D8A481867053D8A48188F29219C000F07F
:1001680018C001F017C004F016C008F015C00CF054
:02017800110074
:10017A00F5C9C9FFC7B002D00000FCD7C9CF00F04B
:02018A00120061
:0E018C00ACB202D00000FCD7F5C9ADFF1200E6
:10019A00086A096A100E0C6E0134083609360450D2
:1001AA00085E0550D8A0053C095ED8B007D00450B7
:1001BA0008260550D8B0053C0926D89000360136E5
:0601CA000C2EEAD7120022
:1001D000F250026EF29E0500FF6A0150FE6E005062
:0801E000FD6E02BEF28E12005A
:1001E800086A080E0C6E003408360450085ED8B051
:0E01F80002D00826D89000360C2EF5D7120043
:100206000901F26B050EF25D0AE2F251F025E16E8C
:10021600000EF121E26E200EE66EF22BF3D7F251BC
:10022600F025E16E000EF121E26EE66AF207F25168
:10023600F025F36F000EF121F46F0A0E046E000E26
:10024600056EEEC900F0EFC901F0A4DF08C000F0AA
:1002560009C001F0300E0026F3C9E1FFF4C9E2FF40
:1002660000C0E6FF0A0E046E000E056EEEC900F031
:10027600EFC901F08FDF00C0EEF901C0EFF9000E03
:10028600011802E1000E001801E102D0F207CFD7F3
:02029600120054
:10029800C4C8E1FFC5C8E2FFEEC9E6FFC2C800F066
:0802A800C3C801F091DF120050
:1002B000F0C904F0F1C905F0EEC902F0EFC903F08E
:1002C000F2C900F0F3C901F0010E0901F25F000E5E
:1002D000F35B005001100FE004C0E9FF05C0EAFF26
:1002E00002C0E1FF03C0E2FFEECFE6FF024A032AAD
:1002F000044A052AE5D7EEC900F0EFC901F0120063
:100300000B6A0A6A096A086A0E6A033408360450DE
:10031000085E0550D8A0053C095E0650D8A0063CF2
:100320000A5E0750D8A0073C0B5EE86AD8A0010E11
:100330000E5E0336070E0C6E0334083609360A3695
:100340000B360E36045003A012D0085E0550D8A01C
:10035000053C095E0650D8A0063C0A5E0750D8A0AE
:10036000073C0B5EE86AD8A0010E0E5E11D008268D
:100370000550D8B0053C09260650D8B0063C0A26E0
:100380000750D8B0073C0B26E86AD8B0010E0E26FD
:1003900003360C2ED1D70234083609360A360B360E
:1003A0000E36045003A012D0085E0550D8A0053CBC
:1003B000095E0650D8A0063C0A5E0750D8A0073C4C
:1003C0000B5EE86AD8A0010E0E5E11D0082605501B
:1003D000D8B0053C09260650D8B0063C0A2607507E
:1003E000D8B0073C0B26E86AD8B0010E0E260236BC
:1003F000070E0C6E0234083609360A360B360E36F6
:10040000045002A012D0085E0550D8A0053C095E39
:100410000650D8A0063C0A5E0750D8A0073C0B5EE9
:10042000E86AD8A0010E0E5E11D008260550D8B09B
:10043000053C09260650D8B0063C0A260750D8B01D
:10044000073C0B26E86AD8B0010E0E2602360C2EA9
:10045000D1D70134083609360A360B360E36045029
:1004600002A012D0085E0550D8A0053C095E0650D7
:10047000D8A0063C0A5E0750D8A0073C0B5EE86A8D
:10048000D8A0010E0E5E11D008260550D8B0053C4C
:1004900009260650D8B0063C0A260750D8B0073CBB
:1004A0000B26E86AD8B0010E0E260136070E0C6E38
:1004B0000134083609360A360B360E36045001A0D0
:1004C00012D0085E0550D8A0053C095E0650D8A0A1
:1004D000063C0A5E0750D8A0073C0B5EE86AD8A02D
:1004E000010E0E5E11D008260550D8B0053C092635
:1004F0000650D8B0063C0A260750D8B0073C0B2659
:10050000E86AD8B0010E0E2601360C2ED1D7003481
:10051000083609360A360B360E36045001A012D0C2
:10052000085E0550D8A0053C095E0650D8A0063CE0
:100530000A5E0750D8A0073C0B5EE86AD8A0010EFF
:100540000E5E11D008260550D8B0053C092606508D
:10055000D8B0063C0A260750D8B0073C0B26E86AFC
:10056000D8B0010E0E260036070E0C6E0034083689
:1005700009360A360B360E36045000A012D0085E3B
:100580000550D8A0053C095E0650D8A0063C0A5E7E
:100590000750D8A0073C0B5EE86AD8A0010E0E5E9B
:1005A00011D008260550D8B0053C09260650D8B011
:1005B000063C0A260750D8B0073C0B26E86AD8B09C
:1005C000010E0E2600360C2ED1D700B00ED00450EE
:1005D00008260550D8B0053C09260650D8B0063C80
:0C05E0000A260750D8B0073C0B2612007A
:1005EC000901F16B030EF15D0AE2F151EF25E16EA9
:1005FC00000EF021E26E200EE66EF12BF3D7F151D6
:10060C00EF25E16E000EF021E26EE66AF107F15182
:10061C00EF25F26F000EF021F36F0A0E046EEEC997
:10062C0000F0DCDD08C000F0300E0026F2C9E1FF5E
:10063C00F3C9E2FF00C0E6FF0A0E046EEEC900F03B
:10064C00CDDD00C0EEF90050000A01E102D0F10747
:04065C00DED71200D3
:10066000A6A202D00000FCD7A69CEFC9AAFFEEC943
:10067000A9FFF0C9A8FFA69EA684F2CF00F0F29EC3
:10068000550EA76EAA0EA76EA68200BE02D0F29EDD
:0806900001D0F28EA6941200C5
:100698004FD00901BA6BBB6B7CD0E00EBA6F010E6C
:1006A800BB6F77D0EA0EBA6F010EBB6F72D0F40E33
:1006B800BA6F010EBB6F6DD0120EBA6F020EBB6F10
:1006C80068D0260EBA6F020EBB6F63D03A0EBA6FAF
:1006D800020EBB6F5ED0580EBA6F020EBB6F59D0B8
:1006E800760EBA6F020EBB6F54D08A0EBA6F020E26
:1006F800BB6F4FD09E0EBA6F020EBB6F4AD0BC0EB6
:10070800BA6F020EBB6F45D0EE0EBA6F020EBB6F0A
:1007180040D0200EBA6F030EBB6F3BD0520EBA6F9B
:10072800030EBB6F36D0840EBA6F030EBB6F31D089
:100738000901EE51000AADE0EE51010AAEE0EE51BA
:10074800020AB0E0EE51030AB2E0EE51040AB4E046
:10075800EE51050AB6E0EE51060AB8E0EE51070A76
:10076800BAE0EE51080ABCE0EE51090ABEE0EE51CB
:100778000A0AC0E0EE510B0AC2E0EE510C0AC4E0CE
:10078800EE510D0AC6E0EE510E0AC8E0EE510F0A0E
:10079800CAE037D0640EBC6F000EBD6F53D0F40EA4
:1007A800BC6F010EBD6F4ED0E80EBC6F030EBD6F5F
:1007B80049D0DC0EBC6F050EBD6F44D0D00EBC6FA7
:1007C800070EBD6F3FD0C40EBC6F090EBD6F3AD087
:1007D800B80EBC6F0B0EBD6F35D0AC0EBC6F0D0ED6
:1007E800BD6F30D0A00EBC6F0F0EBD6F2BD0940E16
:1007F800BC6F110EBD6F26D0880EBC6F130EBD6F77
:1008080021D0EF51000AC6E0EF51010AC8E0EF51CC
:10081800020ACAE0EF51030ACCE0EF51040ACEE025
:10082800EF51050AD0E0EF51060AD2E0EF51070A6E
:10083800D4E0EF51080AD6E0EF51090AD8E0EF51A9
:100848000A0ADAE04ED0BE6BBF6B7BD0E00EBE6FFB
:10085800010EBF6F76D0EA0EBE6F010EBF6F71D06A
:10086800F40EBE6F010EBF6F6CD0120EBE6F020E7B
:10087800BF6F67D0260EBE6F020EBF6F62D03A0EF2
:10088800BE6F020EBF6F5DD0580EBE6F020EBF6FF7
:1008980058D0760EBE6F020EBF6F53D08A0EBE6F51
:1008A800020EBF6F4ED09E0EBE6F020EBF6F49D0B4
:1008B800BC0EBE6F020EBF6F44D0EE0EBE6F020EAE
:1008C800BF6F3FD0200EBE6F030EBF6F3AD0520EDF
:1008D800BE6F030EBF6F35D0840EBE6F030EBF6FA1
:1008E80030D0F051000AAFE0F051010AAFE0F0510A
:1008F800020AB1E0F051030AB3E0F051040AB5E08E
:10090800F051050AB7E0F051060AB9E0F051070ABC
:10091800BBE0F051080ABDE0F051090ABFE0F05110
:100928000A0AC1E0F0510B0AC3E0F0510C0AC5E015
:10093800F0510D0AC7E0F0510E0AC9E0F0510F0A54
:10094800CBE037D0640EB86F000EB96F53D0F40EF9
:10095800B86F010EB96F4ED0E80EB86F030EB96FBD
:1009680049D0DC0EB86F050EB96F44D0D00EB86F01
:10097800070EB96F3FD0C40EB86F090EB96F3AD0E1
:10098800B80EB86F0B0EB96F35D0AC0EB86F0D0E30
:10099800B96F30D0A00EB86F0F0EB96F2BD0940E70
:1009A800B86F110EB96F26D0880EB86F130EB96FD5
:1009B80021D0F151000AC6E0F151010AC8E0F15115
:1009C800020ACAE0F151030ACCE0F151040ACEE070
:1009D800F151050AD0E0F151060AD2E0F151070AB7
:1009E800D4E0F151080AD6E0F151090AD8E0F151F2
:0609F8000A0ADAE0120019
:1009FE000B6A0A6A096A00500402F4CF09F0F3CFB9
:100A0E0008F001500502F4CF0BF0F3CF0AF00050BE
:100A1E000502F3500926F4500A22E86A0B2201500F
:100A2E000402F3500926F4500A22E86A0B2208C089
:100A3E0000F009C001F00AC002F00BC003F0120072
:100A4E00E5C9EEF90901EE33EE9FE6C9EFF9E7C904
:100A5E00F0F9C5DD010EE515016E0150010A10E138
:100A6E00030EE625EE6F000EE721EF6FAA0EF06F74
:100A7E00000EF16F040EF26F000EF36F12DC0FD04A
:100A8E00030EE625EE6F000EE721EF6FAE0EF06F50
:100A9E00000EF16F040EF26F000EF36F02DC120007
:0A0AAE00490E0D6E0D2EFED712004A
:100AB8000901E86BE5C9E9FFE6C9EAFFEECFE7F906
:100AC800E751000A0FE0E7C9F5F9C6EC00F00901A3
:100AD800E82BE851E525E96E000EE621EA6EEECF37
:060AE800E7F9EED7120051
:100AEE000901E86BE5C9E9FFE6C9EAFFEECFE7F9D0
:100AFE00E751000A0FE0E7C9EEF94CEC01F00901ED
:100B0E00E82BE851E525E96E000EE621EA6EEECF00
:060B1E00E7F9EED712001A
:100B2400A69CE6C9AAFFE5C9A9FFA69EA680A8CFF0
:040B340000F01200BB
:100B3800C7B409D01F0EC514016E0150000A03E1A5
:0A0B4800010E006E01D0006A1200D9
:100B5200010E0901EE6F000EEF6F16C9F0F97FDD8D
:100B6200020E0901EE6F000EEF6F00C9F0F977DD9A
:100B7200030E0901EE6F000EEF6F12C9F0F96FDD7F
:100B8200040E0901EE6F000EEF6F11C9F0F967DD77
:100B9200050E0901EE6F000EEF6F10C9F0F95FDD6F
:100BA200060E0901EE6F000EEF6F15C9F0F957DD61
:100BB200070E0901EE6F000EEF6F14C9F0F94FDD59
:100BC200080E0901EE6F000EEF6F13C9F0F947DD51
:100BD200090E0901EE6F000EEF6FFFC8F0F93FDD5D
:100BE2000A0E0901EE6F000EEF6F0DC9F0F937DD45
:100BF2000B0E0901EE6F000EEF6F0CC9F0F92FDD3D
:100C02000C0E0901EE6F000EEF6FB4C6F0F927DD8E
:100C12000D0E0901EE6F000EEF6F0FC9F0F91FDD27
:100C22000E0E0901EE6F000EEF6F0EC9F0F917DD1F
:100C32000F0E0901EE6F000EEF6F19C9F0F90FDD0B
:100C4200100E0901EE6F000EEF6F18C9F0F907DD03
:100C5200110E0901EE6F000EEF6F17C9F0F9FFDCFC
:100C6200120E0901EE6F000EEF6F1BC9F0F9F7DCEF
:100C7200130E0901EE6F000EEF6FD9C6F0F9EFDC2B
:100C8200140E0901EE6F000EEF6F1AC9F0F9E7DCDE
:100C9200B4C6EEF91BC9EFF9D9C6F0F91AC9F1F9D0
:040CA200FADC120066
:100CA6000901EB6B0A0EEB5D0AE2EB51E925E16EF9
:100CB600000EEA21E26E300EE66EEB2BF3D7EB5117
:100CC600E925E16E000EEA21E26EE66AEB07000E08
:100CD600006EE81908E10050E71905E10050E61931
:100CE60002E1E551000A40E0EB51E925EC6F000E08
:100CF600EA21ED6F0A0E046E000E056E066E076E93
:100D0600E5C900F0E6C901F0E7C902F0E8C903F059
:100D160080EC01F008C000F009C001F00AC002F042
:100D26000BC003F0300E0026ECC9E1FFEDC9E2FF6F
:100D360000C0E6FFEB070A0E046E000E056E066E97
:100D4600076EE5C900F0E6C901F0E7C902F0E8C997
:100D560003F080EC01F000C0E5F901C0E6F902C03D
:0A0D6600E7F903C0E8F9B3D7120063
:100D7000E5C9EEF9E6C9EFF90901EF33EE33EF9F6C
:100D8000E7C9F0F9E8C9F1F903EC01F0010EE51546
:100D9000016EE6C902F0000E0216000E021802E112
:100DA000010E011811E1050EE725EE6F000EE82196
:100DB000EF6FA20EF06F000EF16F040EF26F000ED7
:100DC000F36F58EC01F010D0050EE725EE6F000E22
:100DD000E821EF6FA60EF06F000EF16F040EF26FB8
:0A0DE000000EF36F58EC01F0120052
:100DEA000901D76BD86BD851120802E1D7518E0886
:100DFA0008E39DDE005201E004D00901D74BD82B4D
:100E0A00F2D70901120ED85D02E18F0ED75D03E316
:100E1A007B0E006E05D0C580C5A001D0FDD7006A43
:020E2A001200B4
:100E2C00010E0901D725016E000ED821026E01C0FA
:100E3C00E9FF02C0EAFF0A0EEE24006E01C0E1FFDA
:100E4C0002C0E2FF00C0E6FF030ED725016E000EC4
:100E5C00D821026E01C0E9FF02C0EAFF0A0EEE249F
:100E6C00006E01C0E1FF02C0E2FF00C0E6FFD7C97F
:100E7C00E9FFD8C9EAFFEECF00F0D7C9E1FFD8C926
:100E8C00E2FF0A0E0024E66E020ED725016E000E5C
:100E9C00D821026E01C0E9FF02C0EAFF0A0EEE245F
:100EAC00006E01C0E1FF02C0E2FF00C0E6FF040ECD
:100EBC00D725E16E000ED821E26E040EE66E060E0A
:100ECC00D725E16E000ED821E26E040EE66E080EF8
:100EDC00D725E16E000ED821E26E040EE66E0A0EE6
:100EEC00D725E16E000ED821E26E040EE66E050EDB
:100EFC00D725E16E000ED821E26E0A0EE66E090EC1
:100F0C00D725E16E000ED821E26E0A0EE66E070EB2
:100F1C00D725E16E000ED821E26E0A0EE66E0B0E9E
:100F2C00D725E16E000ED821E26E0A0EE66E120095
:100F3C00D7C9EEF90901EE33EE9FD8C9EFF9D9C93B
:100F4C00F0F9F6EC02F0030ED825EE6F000ED92165
:100F5C00EF6F820EF06F080EF16F040EF26F000E41
:080F6C00F36F58EC01F01200D4
:100F7400010E0901D725E96E000ED821EA6EEECFE5
:100F840016F9D7C9E9FFD8C9EAFFEECF12F9D9514A
:100F9400020AD8A485D0030ED725E96E000ED82105
:100FA400EA6EEECF00F9020ED725E96E000ED821C5
:100FB400EA6EEECF11F9040ED725E96E000ED821A2
:100FC400EA6E080ED725D96E000ED821DA6EDE50EF
:100FD400EE24036E046A000E042203C000F004C071
:100FE40001F001320032019E01BC018E00C015F9EE
:100FF400050ED725E96E000ED821EA6E090ED72515
:10100400D96E000ED821DA6EDE50EE24036E046A27
:10101400000E042203C000F004C001F001320032CB
:10102400019E01BC018E00C014F9060ED725E96E9D
:10103400000ED821EA6E0A0ED725D96E000ED821EB
:10104400DA6EDE50EE24036E046A000E042203C03E
:1010540000F004C001F001320032019E01BC018E97
:1010640000C013F9070ED725E96E000ED821EA6EE9
:101074000B0ED725D96E000ED821DA6EDE50EE2481
:10108400036E046A000E042203C000F004C001F0E1
:1010940001320032019E01BC018E00C0FFF822D053
:1010A400006B116B040ED725E96E000ED821EA6E91
:1010B400EECF15F9050ED725E96E000ED821EA6E9C
:1010C400EECF14F9060ED725E96E000ED821EA6E8C
:1010D400EECF13F9070ED725E96E000ED821EA6E7C
:0810E400EECFFFF834DD12002D
:0410EC00C5841200A5
:1010F0000901D86B140ED85D41E2070E006E000E98
:10110000016ED8C904F0000E056E79DC280E0026A9
:10111000090E0122050E0024E96E000E0120EA6E80
:10112000EE50000A29E1070E006E000E016ED8C9CC
:1011300004F0000E056E63DC280E0024E96E090E33
:101140000120EA6EEECF01F00150D71915E0070E2D
:10115000006E000E016ED8C904F0000E056E4FDC63
:10116000280E0026090E0122050E0024E16E000E55
:0E1170000120E26E010EE66ED82BBCD71200F5
:10117E000901D76B140ED75D50E2070E006E000EFC
:10118E00016ED7C904F0000E056E32DC280E002663
:10119E00090E0122050E0024E96E000E0120EA6EF2
:1011AE00EE50000A38E1070E006E000E016ED7C930
:1011BE0004F0000E056E1CDC280E0024E96E090EEC
:1011CE000120EA6EEECF01F00150090A24E1070E6C
:1011DE00006E000E016ED7C904F0000E056E08DC1D
:1011EE00280E0026090E0122010E0024E96E000EC3
:1011FE000120EA6EEECFD8F9EECFD9F9EECFDAF9BB
:10120E00EECFDBF9050E0024E16E000E0120E26E3A
:10121E00010EE66E02D0D72BADD70801435109015E
:10122E00D85D016E01C0D7F9140E015CD8B0D76B32
:06123E00D7C900F0120008
:101244000901D95317E043C8E5F944C8E6F945C88C
:10125400E7F946C8E8F9DA0EE96F090EEA6F21DD0D
:10126400DA0EE56F090EE66F40DCEE0EE56F060E52
:10127400E66F20DCD7C9E5F9D8C9E6F91BDC0D0E09
:10128400F56FC6EC00F00A0E0901F56FC6EC00F02C
:02129400120046
:10129600020E0501FC6FDB0E0901EE6F050EEF6F06
:1012A600B30EF06F070EF16F100EF26F000EF36FB4
:1012B60058EC01F00701B251000A38E1B80E0901F5
:1012C600EE6F060EEF6FA10EF06F070EF16F100EA8
:1012D600F26F000EF36F58EC01F0010E0501C96FB5
:1012E6000701E651000A0FE1DB0E0901EE6F050E5C
:1012F600EF6FD50EF06F070EF16F100EF26F000E46
:10130600F36F58EC01F00701E651010A0FE1DB0E1D
:101316000901EE6F050EEF6FC40EF06F070EF16F49
:10132600100EF26F000EF36F58EC01F00701B25188
:10133600010A1BE1B80E0901EE6F060EEF6F5D0E96
:10134600F06F070EF16F100EF26F000EF36F58EC90
:1013560001F0010E0501C96F16C9E5F9E10E090193
:10136600E66F050EE76F27EC05F00701B251020A9A
:101376001BE1B80E0901EE6F060EEF6F4C0EF06F13
:10138600070EF16F100EF26F000EF36F58EC01F0BE
:10139600010E0501C96F00C9E5F9E10E0901E66F05
:1013A600050EE76F27EC05F00701B251030A1BE1B2
:1013B600B80E0901EE6F060EEF6F3B0EF06F070ECB
:1013C600F16F100EF26F000EF36F58EC01F0010E84
:1013D6000501C96F12C9E5F9E10E0901E66F050EAF
:1013E600E76F27EC05F00701B251040A1BE1B80EBE
:1013F6000901EE6F060EEF6F900EF06F070EF16F9C
:10140600100EF26F000EF36F58EC01F0010E05019D
:10141600C96F11C9E5F9E10E0901E66F050EE76F1F
:1014260027EC05F00701B251050A1BE1B80E0901C8
:10143600EE6F060EEF6F7F0EF06F070EF16F100E58
:10144600F26F000EF36F58EC01F0010E0501C96F43
:1014560015C9E5F9E10E0901E66F050EE76F27EC00
:1014660005F00701B251060A1BE1B80E0901EE6F3D
:10147600060EEF6F6E0EF06F070EF16F100EF26F25
:10148600000EF36F58EC01F0010E0501C96F14C987
:10149600E5F9E10E0901E66F050EE76F27EC05F0A9
:1014A6000701B251070A1BE1B80E0901EE6F060EDD
:1014B600EF6F880EF06F050EF16F100EF26F000ED3
:1014C600F36F58EC01F0010E0501C96F13C9E5F978
:1014D600E10E0901E66F050EE76F27EC05F007013F
:1014E600B251080A1BE1B80E0901EE6F060EEF6F46
:1014F600760EF06F020EF16F100EF26F000EF36FA4
:1015060058EC01F0010E0501C96FFFC8E5F9E10EBF
:101516000901E66F050EE76F27EC05F00701B251EA
:10152600090A3EE1B80E0901EE6F060EEF6F870E4F
:10153600F06F020EF16F100EF26F000EF36F58ECA3
:1015460001F0010E0501C96FB4C6EEF9DE0E090100
:10155600EF6F050EF06FF6EC02F00601B4510708C6
:1015660010E2E20E0901EE6F050EEF6F680EF06FE6
:10157600020EF16F060EF26F000EF36F58EC01F0DB
:101586000FD00901E20EEE6F050EEF6F6F0EF06FD2
:10159600020EF16F060EF26F000EF36F58EC01F0BB
:1015A6000701B2510A0A3EE1B80E0901EE6F060EB6
:1015B600EF6FB00EF06F020EF16F100EF26F000EAD
:1015C600F36F58EC01F0010E0501C96FD9C6EEF9AB
:1015D600DE0E0901EF6F050EF06FF6EC02F0060164
:1015E600D951070810E2E20E0901EE6F050EEF6F02
:1015F600C10EF06F020EF16F060EF26F000EF36F62
:1016060058EC01F00FD00901E20EEE6F050EEF6FF8
:10161600980EF06F020EF16F060EF26F000EF36F6A
:1016260058EC01F00701B2510B0A1BE1B80E090193
:10163600EE6F060EEF6F9F0EF06F020EF16F100E3B
:10164600F26F000EF36F58EC01F0010E0501C96F41
:101656001BC9E5F9E10E0901E66F050EE76F27ECF8
:1016660005F00701B2510C0A1BE1B80E0901EE6F35
:10167600060EEF6F130EF06F020EF16F100EF26F83
:10168600000EF36F58EC01F0010E0501C96F1AC97F
:10169600E5F9E10E0901E66F050EE76F27EC05F0A7
:1016A6000701B2510D0A1BE1B80E0901EE6F060ED5
:1016B600EF6F240EF06F020EF16F100EF26F000E38
:1016C600F36F58EC01F0010E0501C96F10C9E5F979
:1016D600E10E0901E66F050EE76F27EC05F007013D
:1016E600B2510E0A1DE1B80E0901EE6F060EEF6F3C
:1016F600F10EF06F010EF16F100EF26F000EF36F28
:1017060058EC01F0010E0501C96F0CC9E5F90DC9C8
:10171600E6F9DF0E0901E76F050EE86FB8EC06F093
:101726000701B2510F0A12E1B80E0901EE6F060E5B
:10173600EF6F020EF06F020EF16F100EF26F000ED9
:10174600F36F58EC01F0010E0501C96F0701B251A4
:10175600100A33E1B80E0901EE6F060EEF6F4F0E59
:10176600F06F020EF16F100EF26F000EF36F58EC71
:1017760001F0010E0501C96F09011951000A0FE1B7
:10178600E10EEE6F050EEF6F600EF06F020EF16F59
:10179600070EF26F000EF36F58EC01F00ED0E10E5B
:1017A600EE6F050EEF6F350EF06F020EF16F080E3D
:1017B600F26F000EF36F58EC01F00701B251110AF7
:1017C60033E1B80E0901EE6F060EEF6F3E0EF06FB5
:1017D600020EF16F100EF26F000EF36F58EC01F06F
:1017E600010E0501C96F09011851000A0FE1E10E4A
:1017F600EE6F050EEF6F770EF06F030EF16F070EAB
:10180600F26F000EF36F58EC01F00ED0E10EEE6FA2
:10181600050EEF6F7F0EF06F030EF16F080EF26F7D
:10182600000EF36F58EC01F00701B251120A33E1D2
:10183600B80E0901EE6F060EEF6F5E0EF06F030E27
:10184600F16F100EF26F000EF36F58EC01F0010EFF
:101856000501C96F09011751000A0FE1E10EEE6F8C
:10186600050EEF6F6F0EF06F030EF16F070EF26F3E
:10187600000EF36F58EC01F00ED0E10EEE6F050E80
:10188600EF6F990EF06F030EF16F080EF26F000EF8
:10189600F36F58EC01F00701B251130A33E1B80EA9
:1018A6000901EE6F060EEF6FA20EF06F030EF16FD9
:1018B600100EF26F000EF36F58EC01F0010E0501E9
:1018C600C96F09010E51000A0FE1E10EEE6F050E18
:1018D600EF6F880EF06F030EF16F070EF26F000EBA
:1018E600F36F58EC01F00ED0E10EEE6F050EEF6FC0
:1018F600900EF06F030EF16F080EF26F000EF36F8D
:1019060058EC01F00701B251140A1BE1B80E0901A7
:10191600EE6F060EEF6FDA0EF06F020EF16F100E1D
:10192600F26F000EF36F58EC01F0010E0501C96F5E
:101936000FC9E5F9E10E0901E66F050EE76F27EC21
:1019460005F00701B251150A12E1B80E0901EE6F52
:10195600060EEF6FEB0EF06F020EF16F100EF26FC8
:10196600000EF36F58EC01F0010E0501C96F070177
:10197600B251160A12E1B80E0901EE6F060EEF6FAC
:10198600C80EF06F020EF16F100EF26F000EF36FBD
:1019960058EC01F0010E0501C96F650E0601B76F1F
:0219A60012002D
:1019A8000901D76B140ED75D4BE2070E006E000ECF
:1019B800016ED7C904F0000E056EFFEC04F0280E86
:1019C8000026090E0122050E0024E96E000E0120F2
:1019D800EA6EEE50000A32E1070E006E000E016E4C
:1019E800D7C904F0000E056EFFEC04F0280E0024A1
:1019F800E96E090E0120EA6EEECF01F00150090AE6
:101A08001DE1070E006E000E016ED7C904F0000E2E
:101A1800056EFFEC04F0280E0026090E0122010EC7
:101A28000024E96E000E0120EA6EEECFD8F9EECF61
:101A3800D9F9EECFDAF9EECFDBF902D0D72BB2D74E
:101A4800140ED75D02E3D76B05D008014351090195
:0A1A5800D85DD76FD7C900F0120067
:101A62000901DC6B140EDC5D72E2070E006E000EE3
:101A7200016EDCC904F0000E056EFFEC04F0280EC6
:101A82000026090E0122050E0024E96E000E012037
:101A9200EA6EEE50010A59E1070E006E000E016E69
:101AA200DCC904F0000E056EFFEC04F0280E0024E1
:101AB200E16E090E0120E26EDBC9E6FF070E006E41
:101AC200000E016EDCC904F0000E056EFFEC04F09E
:101AD200280E0026090E0122010E0024E16E000EDE
:101AE2000120E26ED7C9E6FFD8C9E6FFD9C9E6FFF1
:101AF200DAC9E6FF070E006E000E016EDCC904F0C3
:101B0200000E056EFFEC04F0280E0026090E0122DD
:101B1200050E0024E16E000E0120E26EE66A070E59
:101B2200006E000E016EDCC904F0000E056EFFECC3
:101B320004F0280E0026090E0122060E0024E16E92
:101B4200000E0120E26EE66A02D0DC2B8BD7120077
:101B5200010E0901E56F000EE66F92EC05F000C080
:101B620016F9020EE56F000EE66F92EC05F000C06A
:101B720000F9030EE56F000EE66F92EC05F000C06F
:101B820012F9040EE56F000EE66F92EC05F000C04C
:101B920011F9050EE56F000EE66F92EC05F000C03C
:101BA20010F9060EE56F000EE66F92EC05F000C02C
:101BB20015F9070EE56F000EE66F92EC05F000C016
:101BC20014F9080EE56F000EE66F92EC05F000C006
:101BD20013F9090EE56F000EE66F92EC05F000C0F6
:101BE200FFF80A0EE56F000EE66F92EC05F000C0FA
:101BF2000CF9000E0D6F0CC90DF90C6B0B0EE56F95
:101C0200000EE66F92EC05F000500C13000E0D135F
:101C12000C0EE56F000EE66F92EC05F000C0B4F614
:101C22000D0EE56F000EE66F92EC05F000C00FF9A5
:101C32000E0EE56F000EE66F92EC05F000C00EF995
:101C42000F0EE56F000EE66F92EC05F000C019F979
:101C5200100EE56F000EE66F92EC05F000C018F969
:101C6200110EE56F000EE66F92EC05F000C017F959
:101C7200120EE56F000EE66F92EC05F000C01BF944
:101C8200130EE56F000EE66F92EC05F000C0D9F678
:101C9200140EE56F000EE66F92EC05F000C01AF923
:101CA200B4C6EEF91BC9EFF9D9C6F0F900C0F1F9D3
:061CB2004CEC03F01200EF
:101CB8000901D751000A04E0D851000A01E002D016
:101CC800F28801D0F298D7C9B6F6D8C9B5F612008D
:101CD800140E0901166F140E126F140E006F140EF5
:101CE800116F070E0601B46F020E09011B6F070E74
:101CF8000601D96F020E09011A6F070EEE6F020E68
:101D0800EF6F070EF06F020EF16F4CEC03F00A0E46
:101D1800146F040E156F0A0E0801FF6F040E0901F7
:101D2800136F0C0E106F0C6B0D6B0E6B196B186B21
:0C1D38000F6B010E176FA9EC05F01200F4
:101D44000901D751010A05E10601EC6BED6B0901AC
:101D54000891D751020A05E10701396B3A6B090171
:041D640008931200CE
:101D68000901D751010A03E10801206B8196090195
:0E1D7800D751020A03E10801706B8198120036
:101D86000901D751010A17E1D8B102D0829201D0D8
:101D96008282060E0B6E130E0C6EAD0E0D6E0D2EA0
:101DA600FED70C2EFCD70B2EFAD700000000010E32
:101DB6000801206F81860901D751020A17E1D8B1BF
:101DC60002D0829001D08280060E0B6E130E0C6E2E
:101DD600AD0E0D6E0D2EFED70C2EFCD70B2EFAD7A0
:0E1DE60000000000010E0801706F81881200DD
:101DF4009E96D7C9C9FFC7A401D0FDD79EB601D00E
:101E0400FDD7C5BC02D0006A03D0C584020E006EA3
:021E14001200BA
:101E1600C26A070EC012C08ED7C900F00036009005
:101E2600003600900050C212C28057EC05F0C28204
:101E3600C2A201D0FDD7C4CF01F0006AC350001280
:081E4600000E0112C29012000F
:101E4E0009010451D71904E1046B010E006E0FD085
:101E5E000551D71904E1056B010E006E08D006512D
:101E6E00D71904E1066B010E006E01D0006A120054
:101E7E0083A003D083A201D003D0010E006E01D047
:041E8E00006A1200D4
:101E92000901D06B83A8D08183AAD083D0C900F076
:021EA20012002C
:101EA4000901D16B83BA02D0D18101D0D19184B020
:101EB40002D0D18301D0D19383B802D0D18501D08F
:101EC400D195050E05015C5D02E20901D16B0901A2
:101ED400D151000A20E105015D51000A09E1080120
:101EE400CC6BC76B05015D6B0901D06B0801C66B38
:101EF40005015D51010A0FE1050E0401F95D0BE3D3
:101F04000801CC6BC76B05015D6B0901D06B08013F
:101F1400C66B05015C6B0801CC51010A0FE103019A
:101F2400D5510401FA5D0AE3010E0801C66F0401EC
:101F3400FA6B190E0801C75DD8A0C72B0901D1514E
:101F4400000A24E005015D51010A20E10801CC5199
:101F5400000A1CE1020EC825016E000EC921026EA2
:101F6400000ECA21036E000ECB21046E46510418E4
:101F740008E14551031805E14451021802E14351B7
:101F8400011804E1010ECC6F0401FA6B0901D1516F
:101F9400000A0AE005015D51010A06E10801CC517D
:101FA400000A02E10901D06B0901D151000A0FE0D6
:101FB40005015D51010A0BE10801CC51010A07E159
:101FC4000901D1510801C603F3CFD0F9C66B090149
:101FD400D151000A12E005015D51000A0EE1D1C998
:101FE400D0F9010E5D6F43C8C8F844C8C9F845C8A4
:101FF400CAF846C8CBF80401F96B0901D051000AAC
:0E20040003E0010E0601EB6FD0C900F01200E0
:102012000901D46B050ED45D0AE2D451D225E16EDA
:10202200000ED321E26E300EE66ED42BF3D7D451DC
:10203200D225E16E000ED321E26EE66AD407000ECD
:10204200D11902E1000ED0192CE0D451D225D56F5E
:10205200000ED321D66F0A0E046E000E056ED0C993
:1020620000F0D1C901F0CDEC00F008C000F009C0C9
:1020720001F0300E0026D5C9E1FFD6C9E2FF00C04B
:10208200E6FFD4070A0E046E000E056ED0C900F0FA
:10209200D1C901F0CDEC00F000C0D0F901C0D1F9F6
:0420A200CED7120083
:0A20A600A9EC05F00601B76B12006B
:1020B0000901D06BD76BAFDE00C0FDF801C0FEF8A0
:1020C000010E0901D76FA7DE00C001F901C002F9B6
:1020D0000501EC51000A03E10601EC6BED6B050113
:1020E000C851000A03E10701396B3A6B0601B6518A
:1020F000000A22E00901BB510801FE5D04E109016B
:10210000BA510801FD5D0AE2FF0E0601ED5D02E134
:10211000FA0EEC5D02E2EC4BED2B0DD00601000E49
:10212000006EED51005C02E1EC51000804E2010E8A
:10213000EC5F000EED5B02D0EC6BED6BED51090135
:10214000BD5D04E10601EC510901BC5DD8A0D08160
:102150000601B551000A1FE00901BF51025D02E10D
:10216000BE51015D0AE2FF0E07013A5D02E1FA0E7F
:10217000395D02E2394B3A2B0DD00701000E006E9B
:102180003A51005C02E13951000804E2010E395F66
:10219000000E3A5B03D00701396B3A6B3A510901E3
:1021A000B95D04E1070139510901B85DD8A0D083B8
:0621B000D0C900F012008E
:1021B6000901D16BD26B3F0ED015026E02C0D0F969
:1021C600540ED16F02C000F00032009E0032009E15
:1021D6000032009E0032009E540E0010D16F700E29
:1021E600D26F0F0E0214006E700E0010D26FF5EC57
:1021F60006F07C0E0901D76FFADD800E0901D76F54
:10220600F6DDD1C9D7F9F3DD800E0901D76FEFDD11
:10221600D2C9D7F9ECDD76EC08F00D0E0C6EFB0E8C
:102226000D6E0D2EFED70C2EFCD7000000001200FE
:10223600F5EC06F07C0E0901D76FD9DD800E090199
:10224600D76FD5DD0901D051020A03E1380ED76FE9
:10225600CEDD0901D051010A03E1340ED76FC7DD87
:10226600800E0901D76FC3DD0901D051020A03E1CF
:10227600390ED76FBCDD0901D051010A03E1350ED5
:10228600D76FB5DD800E0901D76FB1DD1C0E0901D0
:10229600D76FADDD800E0901D76FA9DD720E09017A
:1022A600D76FA5DD800E0901D76FA1DD550E090197
:1022B600D76F9DDD800E0901D76F99DD6C0E090180
:1022C600D76F95DD800E0901D76F91DD0C0E0901E0
:1022D600D76F8DDD800E0901D76F89DD010E0901EB
:1022E600D76F85DD800E0901D76F81DD060E0901E6
:1022F600D76F7DDD800E0901D76F79DD020E0901EA
:0A230600D76F75DD76EC08F01200C9
:10231000949894968B988B9694889486C79EC79C25
:06232000380EC66E12002B
:102326000901D46BD56BD051010A03E1D151800F5D
:10233600D56FD051020A03E1D151C00FD56FF5EC2C
:1023460006F07C0E0901D76F52DD800E0901D76FAA
:102356004EDDD5C9D7F94BDD400E0901D76F47DDF4
:102366000901D451D225E96E000ED321EA6EEE5052
:102376000A0A0FE0D45110080CE3D451D225E96EB5
:10238600000ED321EA6EEECFD7F931DD0901D42B49
:10239600E7D776EC08F00D0E0C6EFB0E0D6E0D2ECB
:0C23A600FED70C2EFCD700000000120037
:1023B200010E0201D96F090103A323D00201D96BD7
:1023C2000801866B650E0601B76F4BEC09F0070139
:1023D200B251000A16E109011C6B0701E651000A1D
:1023E20006E1C80E0601B76F010E03015D6F07011A
:1023F200E651010A06E1C90E0601B76F010E03019B
:102402005D6F0701B251000A18E1090103A109D069
:102412000701E651000805E2E6074BEC09F0660EFB
:10242200B76F090103A509D0010E0701E65D05E2B8
:10243200E62B4BEC09F0660EB76F0701B251010AA9
:1024420016E1090103A108D01651000805E216079A
:102452004BEC09F0660EB76F090103A508D0FF0E19
:10246200165D05E2162B4BEC09F0660EB76F0701FD
:10247200B251020A16E1090103A108D00051000875
:1024820005E200074BEC09F0660EB76F090103A5E0
:1024920008D0FF0E005D05E2002B4BEC09F0660E42
:1024A200B76F0701B251030A16E1090103A108D06F
:1024B2001251000805E212074BEC09F0660EB76FE5
:1024C200090103A508D0FF0E125D05E2122B4BECA9
:1024D20009F0660EB76F0701B251040A16E109014D
:1024E20003A108D01151000805E211074BEC09F0D5
:1024F200660EB76F090103A508D0FF0E115D05E254
:10250200112B4BEC09F0660EB76F0701B251050AA9
:1025120016E1090103A108D01551000805E21507CB
:102522004BEC09F0660EB76F090103A508D0FF0E48
:10253200155D05E2152B4BEC09F0660EB76F07012E
:10254200B251060A16E1090103A108D0145100088C
:1025520005E214074BEC09F0660EB76F090103A5FB
:1025620008D0FF0E145D05E2142B4BEC09F0660E49
:10257200B76F0701B251070A16E1090103A108D09A
:102582001351000805E213074BEC09F0660EB76F12
:10259200090103A508D0FF0E135D05E2132B4BECD6
:1025A20009F0660EB76F0701B251080A18E1090176
:1025B20003A109D00801FF51000805E2FF074BEC17
:1025C20009F0660EB76F090103A509D0FF0E0801D5
:1025D200FF5D05E2FF2B4BEC09F0660EB76F0701BA
:1025E200B251090A18E1090103A109D00601B45147
:1025F200000805E2B4074BEC09F0660EB76F09015B
:1026020003A509D00F0E0601B45D05E2B42B4BEC15
:1026120009F0660EB76F0701B2510A0A18E1090103
:1026220003A109D00601D951000805E2D9074BECF4
:1026320009F0660EB76F090103A509D00F0E060156
:10264200D95D05E2D92B4BEC09F0660EB76F070195
:10265200B2510B0A16E1090103A108D01B5100086F
:1026620005E21B074BEC09F0660EB76F090103A5E3
:1026720008D00A0E1B5D05E21B2B4BEC09F0660E1F
:10268200B76F0701B2510C0A16E1090103A108D084
:102692001A51000805E21A074BEC09F0660EB76FF3
:1026A200090103A508D00A0E1A5D05E21A2B4BECAC
:1026B20009F0660EB76F0701B2510D0A16E1090162
:1026C20003A108D01051000805E210074BEC09F0F5
:1026D200660EB76F090103A508D0FF0E105D05E273
:1026E200102B4BEC09F0660EB76F0701B2510E0AC0
:1026F20022E1090103A110D0000E006E0D51005C11
:1027020002E10C51000808E2010E0C5F000E0D5BA5
:102712004BEC09F0660EB76F090103A50CD0FD0E54
:102722000D5D02E1E80E0C5D06E20C4B0D2B4BEC4D
:1027320009F0660EB76F0701B2510F0A22E10601D6
:10274200B76BB80E0901EE6F060EEF6FA40EF06FB5
:10275200080EF16F100EF26F000EF36F58EC01F0DD
:10276200010E0501FC6F0201D96B0801866B010E97
:102772000501C96F010E03015D6F6CEC0EF0A9EC4F
:1027820005F00701B251100A16E1090103A108D0B0
:102792001951000805E219074BEC09F0660EB76FF4
:1027A200090103A508D0010E195D05E2192B4BECB6
:1027B20009F0660EB76F0701B251110A16E109015D
:1027C20003A108D01851000805E218074BEC09F0E4
:1027D200660EB76F090103A508D0010E185D05E268
:1027E200182B4BEC09F0660EB76F0701B251120AB3
:1027F20016E1090103A108D01751000805E21707E5
:102802004BEC09F0660EB76F090103A508D0010E63
:10281200175D05E2172B4BEC09F0660EB76F070147
:10282200B251130A16E1090103A108D00E510008A2
:1028320005E20E074BEC09F0660EB76F090103A51E
:1028420008D0010E0E5D05E20E2B4BEC09F0660E70
:10285200B76F0701B251140A1FE1090103A10CD09D
:102862000F51000809E20F070F51090AD8B40F6B84
:102872004BEC09F0660EB76F090103A50DD0FF0EF0
:102882000F5D0AE20F2B0F51010A02E10A0E0F6FD0
:102892004BEC09F0660EB76F0701B251150A1CE145
:1028A200670E0601B76FB80E0901EE6F060EEF6FE5
:1028B200A40EF06F080EF16F100EF26F000EF36FA0
:1028C20058EC01F00201D96B010E0501FC6F010EFB
:1028D200C96F010E03015D6F0701B251160A1DE1B6
:1028E2000601B76BB80E0901EE6F060EEF6FA40E6C
:1028F200F06F080EF16F100EF26F000EF36F58ECCE
:1029020001F00201D96B010E0501FC6F010EC96FC6
:0C291200A9EC0DF0010E03015D6F120036
:10291E006FD2838E090107A107D01C2B020E08016E
:10292E00F46F010E0601EB6F090107A308D0030E29
:10293E001C6F010E0801F46F010E0601EB6FB1D290
:10294E00020E0901D76FD86BC3EC0EF0040E08010E
:10295E0043250901D76F000E080144210901D86FE4
:10296E00000E080145210901D96F000E080146210C
:10297E000901DA6F150EDB6F31EC0DF01C2B050122
:10298E00C86B8FD2090108A30CD00501C851010AEA
:10299E0008E1C86B020E0901D76FB4EC0EF0090105
:1029AE001C2B0901150ED76F27EC0FF0005203E018
:1029BE00010E0501C86F75D2010E0901D76FD86BD4
:1029CE00C3EC0EF0040E080143250901D76F000E6B
:1029DE00080144210901D86F000E080145210901A3
:1029EE00D96F000E080146210901DA6F140EDB6F54
:1029FE0031EC0DF01C2B0501EC6B090108A10CD07C
:102A0E000501EC51010A08E1EC6B010E0901D76FCB
:102A1E00B4EC0EF009011C2B0901140ED76F27EC34
:102A2E000FF0005203E0010E0501EC6F3AD20901DE
:102A3E000751000A19E043C8EAF844C8EBF845C844
:102A4E00ECF846C8EDF8010ED76F010ED86FC3EC47
:102A5E000EF00901D76BB5C6D8F95CEC0EF0010E7D
:102A6E000501B76F09011C2B1CD20751000A11E09A
:102A7E001C2B43C8F5F844C8F6F845C8F7F846C805
:102A8E00F8F8010ED76FB5C6D8F95CEC0EF005015B
:102A9E00B76B07D209010751000A11E01C2B43C87E
:102AAE00F9F844C8FAF845C8FBF846C8FCF8D76BE5
:102ABE00B5C6D8F95CEC0EF0010E0501B76FF1D179
:102ACE0009010751000A26E00801F451020A03E148
:102ADE0009011C2B03D00901110E1C6F43C8F0F81D
:102AEE0044C8F1F845C8F2F846C8F3F8010ED76F9E
:102AFE00B4EC0EF00801EA51F05D006E00C0DFF894
:102B0E00EA51F55D006E00C0E2F8F951F05D006E1D
:102B1E0000C0E3F8C6D109010751000A19E043C805
:102B2E00EAF844C8EBF845C8ECF846C8EDF8020ED2
:102B3E00D76F010ED86FC3EC0EF0B6C6D7F90901E8
:102B4E00D86B5CEC0EF0010E0501C76F09011C2B52
:102B5E00A8D10751000A11E01C2B43C8F5F844C850
:102B6E00F6F845C8F7F846C8F8F8B6C6D7F9010E14
:102B7E00D86F5CEC0EF00501C76B93D109010751BC
:102B8E00000A11E01C2B43C8F9F844C8FAF845C8EE
:102B9E00FBF846C8FCF8B6C6D7F9D86B5CEC0EF05D
:102BAE00010E0501C76F7DD109010751000A1DE015
:102BBE001C2B43C8F0F844C8F1F845C8F2F846C8D3
:102BCE00F3F8020ED76FB4EC0EF00801EA51F05D87
:102BDE00006E00C0E1F8EA51F55D006E00C0E6F847
:102BEE00F951F05D006E00C0E7F85BD109010751A5
:102BFE00000A18E043C8EAF844C8EBF845C8ECF8F8
:102C0E0046C8EDF8020ED76FD86BC3EC0EF0B6C601
:102C1E00D7F90901D86B5CEC0EF0010E0501C76FF8
:102C2E0009011C2B3ED10751000A11E01C2B43C891
:102C3E00F5F844C8F6F845C8F7F846C8F8F8B6C629
:102C4E00D7F9010ED86F5CEC0EF00501C76B29D1D8
:102C5E0009010751000A11E01C2B43C8F9F844C8BA
:102C6E00FAF845C8FBF846C8FCF8B6C6D7F9D86BD3
:102C7E005CEC0EF0010E0501C76F13D1090107516F
:102C8E00000A1DE01C2B43C8F0F844C8F1F845C8F3
:102C9E00F2F846C8F3F8020ED76FB4EC0EF0080146
:102CAE00EA51F05D006E00C0E0F8EA51F55D006E8D
:102CBE0000C0E8F8F951F05D006E00C0E9F8F1D0FF
:102CCE0009010751000A18E043C8EAF844C8EBF8B6
:102CDE0045C8ECF846C8EDF8010ED76FD86BC3ECBB
:102CEE000EF00901D76BB5C6D8F95CEC0EF0010EEB
:102CFE000501B76F09011C2BD4D00751000A11E052
:102D0E001C2B43C8F5F844C8F6F845C8F7F846C872
:102D1E00F8F8010ED76FB5C6D8F95CEC0EF00501C8
:102D2E00B76BBFD009010751000A11E01C2B43C835
:102D3E00F9F844C8FAF845C8FBF846C8FCF8D76B52
:102D4E00B5C6D8F95CEC0EF0010E0501B76FA9D02F
:102D5E0009010751000A1DE01C2B43C8F0F844C8B6
:102D6E00F1F845C8F2F846C8F3F8010ED76FB4EC87
:102D7E000EF00801EA51F05D006E00C0DEF8EA5177
:102D8E00F55D006E00C0E4F8F951F05D006E00C014
:102D9E00E5F887D0DE0E0901D76F080ED86FF4C89C
:102DAE00D9F9BAEC07F0B80EEE6F060EEF6FFD0E06
:102DBE00F06F040EF16F100EF26F000EF36F58EC01
:102DCE0001F0DB0EEE6F050EEF6F0E0EF06F050EBF
:102DDE00F16F100EF26F000EF36F58EC01F0020E51
:102DEE000501FC6F010EC96F839E0601B76B59D0AA
:102DFE0009011C51000AD8B48CD51C51010AD8B453
:102E0E009FD51C51020AD8B4BDD51C51030AD8B4A3
:102E1E00D3D51C51040AD8B4F0D51C51050AD8B428
:102E2E0006D61C51060AD8B420D61C51070AD8B4AF
:102E3E0031D61C51080AD8B443D61C51090AD8B44D
:102E4E006AD61C510A0AD8B484D61C510B0AD8B4BF
:102E5E0095D61C510C0AD8B4A7D61C510D0AD8B45D
:102E6E00C5D61C510E0AD8B4DED61C510F0AD8B4E2
:102E7E00EFD61C51100AD8B401D71C51110AD8B480
:102E8E001FD71C51120AD8B438D71C51130AD8B404
:102E9E0049D71C51140AD8B45BD71C51150AD8B4A3
:042EAE0079D71200BE
:102EB2008C0E0801C26F010EC36FF50EC46F090EAE
:102EC200C56FFF0EBA6FFF0EBB6F000EBC6F000E18
:102ED200BD6FFF0EBE6FFF0EBF6F000EC06F000E04
:102EE200C16FFF0EB46FFF0EB56F000EB66F000E0E
:102EF200B76FAC8A900EAB6E948E949C9EAA03D050
:082F0200AECF00F0FBD7120076
:102F0A000901D06B0401FBB103D00901D09102D0B1
:102F1A000901D0810401FCB103D00901D09302D088
:102F2A000901D0830401FB6BFC6B140E0601B75D2B
:102F3A000FE20901D0B104D003B502D0D09101D07B
:102F4A00D081D0B304D003B102D0D09301D0D083C2
:062F5A00D0C900F01200D6
:102F6000838E010E0601D86F010E0901D76F27EC81
:102F70000FF000520EE0010ED76FD86BC3EC0EF0CD
:102F8000D60E0901D76F030ED86F010ED96F22EC50
:102F900009F0020E0901D76F27EC0FF0005230E064
:102FA000020ED76FD86BC3EC0EF0E50E0901D76F98
:102FB000030ED86F010ED96F22EC09F0B80E09018B
:102FC000EE6F060EEF6F1A0EF06F000EF16F100E1F
:102FD000F26F000EF36F58EC01F0DB0EEE6F050E92
:102FE000EF6FCA0EF06F050EF16F100EF26F000E4C
:102FF000F36F58EC01F0010E0501C96F010EFC6F73
:103000000A0E0901D76F27EC0FF0005210E0010EF5
:103010000501EC6F010E0901D76FA2EC0EF03C0E1A
:10302000D76F040ED86F010ED96F22EC09F00B0E8A
:103030000901D76F27EC0FF0005210E0010E0501D7
:10304000C86F020E0901D76FA2EC0EF0510ED76FB8
:10305000040ED86F010ED96F22EC09F0050E09019C
:10306000D76F27EC0FF0005211E0010ED76FB5C6F5
:10307000D8F95CEC0EF00501B76B1E0E0901D76F95
:10308000040ED86F010ED96F22EC09F0060E09016B
:10309000D76F27EC0FF0005211E0B6C6D7F9010E3A
:1030A000D86F5CEC0EF00501C76B2D0E0901D76FD0
:1030B000040ED86F010ED96F22EC09F0030E09013E
:1030C000D76F27EC0FF0005209E10501EC51010A1E
:1030D00004E1090108A101D001D012D00701E7A144
:1030E0000FD0E791010E0901D76FB4EC0EF0420E3C
:1030F0000901D76F050ED86F010ED96F22EC09F0C8
:10310000040E0901D76F27EC0FF0005209E1050109
:10311000C851010A04E1090108A301D001D012D06D
:103120000701E7A30FD0E793020E0901D76FB4ECB4
:103130000EF04F0E0901D76F050ED86F010ED96F33
:1031400022EC09F009010051000A05E00601435193
:10315000010A01E002D00701E793030E0601425D78
:10316000D8A0CAD0090109A141D0010ED76FB4EC93
:103170000EF0020E0901D76FB4EC0EF00501EC6BF6
:10318000C86B060E0601B76F010E0101F06F1F0E2E
:103190000901D76F050ED86F010ED96F22EC09F027
:1031A000090E0901D76F78EC08F0B80EEE6F060E25
:1031B000EF6F1D0EF06F060EF16F100EF26F000E26
:1031C000F36F58EC01F0DB0EEE6F050EEF6F930E10
:1031D000F06F080EF16F100EF26F000EF36F58ECE7
:1031E00001F0010E0501C96F020EFC6F09010751C4
:1031F000000A3EE0010ED76FB4EC0EF0020E09019A
:10320000D76FB4EC0EF0060E0601B76F0501EC6B3C
:10321000C86B300E0901D76F050ED86F010ED96F3C
:1032200022EC09F0090E0901D76F78EC08F0B80E0E
:10323000EE6F060EEF6F1D0EF06F060EF16F100EA3
:10324000F26F000EF36F58EC01F0DB0EEE6F050E1F
:10325000EF6F210EF06F080EF16F100EF26F000E7F
:10326000F36F58EC01F0010E0501C96F020EFC6FFF
:1032700009010A51010A40E118533EE0010ED76FDF
:10328000B4EC0EF0020E0901D76FB4EC0EF0060E8E
:103290000601B76F0501EC6BC86B5E0E0901D76FB5
:1032A000050ED86F010ED96F22EC09F0090E090145
:1032B000D76F78EC08F0B80EEE6F060EEF6F1D0EAC
:1032C000F06F060EF16F100EF26F000EF36F58ECF8
:1032D00001F0DB0EEE6F050EEF6F320EF06F080E91
:1032E000F16F100EF26F000EF36F58EC01F0010E4B
:1032F0000501C96F020EFC6F0701E751000AD8A44F
:10330000A6D009011753D8B488D0010ED76F010E8B
:10331000D86FC3EC0EF0010E080143250901D76FE9
:10332000000E080144210901D86F000E0801452153
:103330000901D96F000E080146210901DA6F0E0E4E
:10334000DB6F31EC0DF0010ED76FB5C6D8F95CEC30
:103350000EF00501EC6BB76BB6C6D7F9010E09018B
:10336000D86F5CEC0EF00501C86BC76B010E08014D
:1033700043250901D76F000E080144210901D86FC8
:10338000000E080145210901D96F000E08014621F0
:103390000901DA6F030EDB6F31EC0DF0010E08014D
:1033A00043250901D76F000E080144210901D86F98
:1033B000000E080145210901D96F000E08014621C0
:1033C0000901DA6F010ED727000ED823D923DA239B
:1033D000040EDB6F31EC0DF0010E080143250901ED
:1033E000D76F000E080144210901D86F000E0801B3
:1033F00045210901D96F000E080146210901DA6F44
:10340000010ED727000ED823D923DA230D0EDB6F48
:1034100031EC0DF00701E7851AD0010E08014325B4
:103420000901D76F000E080144210901D86F000E71
:10343000080145210901D96F000E08014621090143
:10344000DA6F0D0EDB6F31EC0DF00701E7850E0E24
:103450000901D76F27EC0FF0005206E0020ED76F7C
:10346000010ED86FC3EC0EF00D0E0901D76F27ECDB
:103470000FF000522DE0010E0601B76F0701E86B57
:103480000801476B090E0901D76F78EC08F0B80EF8
:10349000EE6F060EEF6F270EF06F010EF16F100E3C
:1034A000F26F000EF36F58EC01F0DB0EEE6F050EBD
:1034B000EF6FCA0EF06F050EF16F100EF26F000E77
:1034C000F36F58EC01F0010E0501C96F010EFC6F9E
:1034D0000601B751050A04E0B751060A01E041D0E0
:1034E0000901D76B78EC08F0000E0D1902E1000E0F
:1034F0000C1937E00C51080143250901D76F0D5114
:10350000080144210901D86F000E08014521090175
:10351000D96F000E080146210901DA6F090EDB6F31
:1035200031EC0DF00801476B730E0901D76F050EE2
:10353000D86F010ED96F22EC09F0DB0E0901EE6F96
:10354000050EEF6F5F0EF06F080EF16F100EF26F49
:10355000000EF36F58EC01F0010E0501C96F020E69
:04356000FC6F1200EA
:10356400E7D1838E090107A108D0020E0801D96FA3
:1035740009011C2B010E0601EB6F090107A309D0F9
:10358400010E0801D96F030E09011C6F010E06011B
:10359400EB6F0501EC6BC86B03D2020E0901D76F08
:1035A400D86BC3EC0EF0060E080143250901D76F52
:1035B400000E080144210901D86F000E08014521BD
:1035C4000901D96F000E080146210901DA6F150EB1
:1035D400DB6F31EC0DF01C2BE3D108A30CD00501FB
:1035E400C851010A08E1C86B020E0901D76FB4EC97
:1035F4000EF009011C2B0901150ED76F27EC0FF0F3
:10360400005203E0010E0501C86FCAD1010E090181
:10361400D76FD86BC3EC0EF0060E080143250901E1
:10362400D76F000E080144210901D86F000E08016C
:1036340045210901D96F000E080146210901DA6FFD
:10364400140EDB6F31EC0DF01C2B08A10CD005011E
:10365400EC51010A08E1EC6B010E0901D76FB4ECDF
:103664000EF009011C2B0901140ED76F27EC0FF083
:10367400005203E0010E0501EC6F92D143C8DAF861
:1036840044C8DBF845C8DCF846C8DDF8010E09017A
:10369400D76F010ED86FC3EC0EF0060E0801432558
:1036A4000901D76F000E080144210901D86F000EEB
:1036B400080145210901D96F000E080146210901BD
:1036C400DA6F140EDB6F31EC0DF01C2B69D108A1FD
:1036D4001AD00501EC51010A16E1EC6B010E090147
:1036E400D76FB4EC0EF00801D951010A04E10B0EB6
:1036F40009011C6F02D009011C2B0801DA51435D3A
:10370400006E00C0CEF8140E0901D76F27EC0FF03D
:10371400005203E0010E0501EC6F42D143C8DAF810
:1037240044C8DBF845C8DCF846C8DDF8020E0901D8
:10373400D76F010ED86FC3EC0EF0060E08014325B7
:103744000901D76F000E080144210901D86F000E4A
:10375400080145210901D96F000E0801462109011C
:10376400DA6F150EDB6F31EC0DF01C2B19D108A3A9
:1037740012D00501C851010A0EE1C86B020E0901FD
:10378400D76FB4EC0EF009011C2B0801DA51435D2C
:10379400006E00C0D0F8150E0901D76F27EC0FF0AA
:1037A400005203E0010E0501C86FFAD043C8DAF8ED
:1037B40044C8DBF845C8DCF846C8DDF8020E090148
:1037C400D76FD86BC3EC0EF0060E08014325090130
:1037D400D76F000E080144210901D86F000E0801BB
:1037E40045210901D96F000E080146210901DA6F4C
:1037F400150EDB6F31EC0DF01C2BD2D008A312D0C8
:103804000501C851010A0EE1C86B020E0901D76F08
:10381400B4EC0EF009011C2B0801DA51435D006E73
:1038240000C0CFF8150E0901D76F27EC0FF0005236
:1038340003E0010E0501C86FB3D043C8DAF844C8E9
:10384400DBF845C8DCF846C8DDF8010E0901D76F7E
:10385400D86BC3EC0EF0060E080143250901D76F9F
:10386400000E080144210901D86F000E080145210A
:103874000901D96F000E080146210901DA6F140EFF
:10388400DB6F31EC0DF01C2B8BD008A112D005019D
:10389400EC51010A0EE1EC6B010E0901D76FB4EC97
:1038A4000EF009011C2B0801DA51435D006E00C0C3
:1038B400CDF8140E0901D76F27EC0FF0005203E086
:1038C400010E0501EC6F6CD0CD0E0901D76F080E07
:1038D400D86F16EC07F0CD0ED76F080ED86FD9C885
:1038E400D9F9BAEC07F0B80EEE6F060EEF6FDA0EE8
:1038F400F06F060EF16F100EF26F000EF36F58ECBE
:1039040001F0DB0EEE6F050EEF6FF10EF06F060E99
:10391400F16F100EF26F000EF36F58EC01F0020E0F
:103924000501FC6F010EC96F839E0601B76B38D089
:1039340009011C51000AD8B414D61C51010AD8B488
:103944002CD61C51020AD8B448D61C51030AD8B448
:103954005DD61C51040AD8B478D61C51050AD8B4D3
:103964008DD61C51060AD8B4B2D61C51070AD8B455
:10397400D5D61C51080AD8B4FAD61C51090AD8B4B1
:1039840015D71C510A0AD8B439D71C510B0AD8B41C
:1039940054D71C510C0AD8B478D71C510D0A94E0A2
:0239A40012000F
:1039A600838E010E0601D86F010E0901D76F27EC31
:1039B6000FF0005232E0010ED76F010ED86FC3EC44
:1039C6000EF0C90E0901D76F060ED86F010ED96F1A
:1039D60022EC09F0839CB80E0901EE6F060EEF6F1C
:1039E600A30EF06F060EF16F100EF26F000EF36F5E
:1039F60058EC01F0DB0EEE6F050EEF6FCA0EF06F9E
:103A0600050EF16F100EF26F000EF36F58EC01F019
:103A1600010E0501C96F010EFC6F020E0901D76F79
:103A260027EC0FF0005210E0020ED76F010ED86F90
:103A3600C3EC0EF0ED0E0901D76F050ED86F010E1F
:103A4600D96F22EC09F0839C050E0901D76F27EC8C
:103A56000FF0005212E0010ED76FB5C6D8F95CEC34
:103A66000EF00501EC6BB76BA80E0901D76F050EBA
:103A7600D86F010ED96F22EC09F0070E0901D76F36
:103A860027EC0FF0005211E0D76BB5C6D8F95CEC05
:103A96000EF0010E0501B76F990E0901D76F050EDD
:103AA600D86F010ED96F22EC09F0060E0901D76F07
:103AB60027EC0FF0005212E0B6C6D7F9010ED86F08
:103AC6005CEC0EF00501C86BC76BB80E0901D76F29
:103AD600050ED86F010ED96F22EC09F0080E090108
:103AE600D76F27EC0FF0005211E0B6C6D7F9D86BA6
:103AF6005CEC0EF0010E0501C76FFD0E0901D76FD4
:103B0600050ED86F010ED96F22EC09F00A0E0901D5
:103B1600D76F27EC0FF0005210E0010E0501EC6F95
:103B2600010E0901D76FA2EC0EF06F0ED76F060ECD
:103B3600D86F010ED96F22EC09F00B0E0901D76F71
:103B460027EC0FF0005210E0010E0501C86F020EBF
:103B56000901D76FA2EC0EF0590ED76F060ED86F7B
:103B6600010ED96F22EC09F0030E0901D76F27EC7D
:103B76000FF0005210E006015891010E0901D76FAF
:103B8600B4EC0EF0940E0901D76F060ED86F010E35
:103B9600D96F22EC09F0040E0901D76F27EC0FF05C
:103BA600005210E006015893020E0901D76FB4ECDB
:103BB6000EF0850E0901D76F060ED86F010ED96F6C
:103BC60022EC09F00C0E0901D76F27EC0FF000521A
:103BD600D8A4838C0501EC51010A46E1090108A12C
:103BE60043D00501B751000A3FE1010E0901D76F25
:103BF600B4EC0EF0020E0901D76FB4EC0EF0050E10
:103C06000601B76F0501EC6BC86B2E0E0901D76F65
:103C1600060ED86F010ED96F22EC09F0090E0901C4
:103C2600D76F78EC08F0B80EEE6F060EEF6F1D0E2C
:103C3600F06F060EF16F100EF26F000EF36F58EC78
:103C460001F0DB0EEE6F050EEF6F0C0EF06F060E39
:103C5600F16F100EF26F000EF36F58EC01F0010ECB
:103C66000501C96F020EFC6F0501C851010A46E144
:103C7600090108A343D00501C751000A3FE1010E1F
:103C86000901D76FB4EC0EF0020E0901D76FB4EC40
:103C96000EF0050E0601B76F0501EC6BC86B440EFE
:103CA6000901D76F060ED86F010ED96F22EC09F005
:103CB600090E0901D76F78EC08F0B80EEE6F060E04
:103CC600EF6F1D0EF06F060EF16F100EF26F000E05
:103CD600F36F58EC01F0DB0EEE6F050EEF6F0C0E76
:103CE600F06F060EF16F100EF26F000EF36F58ECC8
:103CF60001F0010E0501C96F020EFC6F09010051AA
:103D0600000A05E006014351010A01E002D006015E
:103D16005893030E425DD8A0C9D0090109A140D02D
:103D260019533EE0010ED76FB4EC0EF0020E0901F6
:103D3600D76FB4EC0EF00501EC6BC86B050E0601EF
:103D4600B76F710E0901D76F080ED86F010ED96FC4
:103D560022EC09F0090E0901D76F78EC08F0B80ECD
:103D6600EE6F060EEF6F1D0EF06F060EF16F100E62
:103D7600F26F000EF36F58EC01F0DB0EEE6F050EDE
:103D8600EF6F930EF06F080EF16F100EF26F000ECC
:103D9600F36F58EC01F0010E0501C96F020EFC6FBE
:103DA60009010751000A3EE0010ED76FB4EC0EF090
:103DB600020E0901D76FB4EC0EF00501EC6BC86B6F
:103DC600050E0601B76FE90E0901D76F070ED86F0A
:103DD600010ED96F22EC09F0090E0901D76F78ECB4
:103DE60008F0B80EEE6F060EEF6F1D0EF06F060EA2
:103DF600F16F100EF26F000EF36F58EC01F0DB0E50
:103E0600EE6F050EEF6F210EF06F080EF16F100EBC
:103E1600F26F000EF36F58EC01F0010E0501C96F49
:103E2600020EFC6F09010A51010A40E118533EE0F7
:103E3600010ED76FB4EC0EF0020E0901D76FB4EC89
:103E46000EF00501EC6BC86B050E0601B76F480E48
:103E56000901D76F080ED86F010ED96F22EC09F051
:103E6600090E0901D76F78EC08F0B80EEE6F060E52
:103E7600EF6F1D0EF06F060EF16F100EF26F000E53
:103E8600F36F58EC01F0DB0EEE6F050EEF6F320E9E
:103E9600F06F080EF16F100EF26F000EF36F58EC14
:103EA60001F0010E0501C96F020EFC6F06015851A3
:103EB600000AD8A48DD00901175370E0010ED76F00
:103EC600D86BC3EC0EF0020E0901D76FD86BC3ECAA
:103ED6000EF0010E0901D76FB5C6D8F95CEC0EF0ED
:103EE6000501EC6BB76BB6C6D7F9010E0901D86FA1
:103EF6005CEC0EF00501C86BC76B010E080143258B
:103F06000901D76F000E080144210901D86F000E80
:103F1600080145210901D96F000E08014621090152
:103F2600DA6F030EDB6F31EC0DF0010E080143254D
:103F36000901D76F000E080144210901D86F000E50
:103F4600080145210901D96F000E08014621090122
:103F5600DA6F040EDB6F31EC0DF0010E080143251C
:103F66000901D76F000E080144210901D86F000E20
:103F7600080145210901D96F000E080146210901F2
:103F8600DA6F010ED727000ED823D923DA230D0EB8
:103F9600DB6F31EC0DF0060158851AD0010E0801D1
:103FA60043250901D76F000E080144210901D86F86
:103FB600000E080145210901D96F000E08014621AE
:103FC6000901DA6F0D0EDB6F31EC0DF00601588535
:103FD6000D0E0901D76F27EC0FF000522DE0020EEF
:103FE6000601B76F0801476B0701E86B090E090167
:103FF600D76F78EC08F0B80EEE6F060EEF6FFA0E7C
:10400600F06F070EF16F100EF26F000EF36F58ECA3
:1040160001F0DB0EEE6F050EEF6FCA0EF06F050EA8
:10402600F16F100EF26F000EF36F58EC01F0010EF7
:104036000501C96F020EFC6F0601B751050A04E0BF
:10404600B751060A01E041D00901D76B78EC08F0B8
:10405600000E0D1902E1000E0C1937E00C51080193
:1040660043250901D76F0D51080144210901D86F75
:10407600000E080145210901D96F000E08014621ED
:104086000901DA6F090EDB6F31EC0DF00801476BA1
:104096000B0E0901D76F080ED86F010ED96F22ECEF
:1040A60009F0DB0E0901EE6F050EEF6F5F0EF06F84
:1040B600080EF16F100EF26F000EF36F58EC01F060
:0C40C600010E0501C96F020EFC6F120014
:1040D200020E0901D06F839E0601D86BD4EC0CF05E
:1040E2000050080147191EE0866BD4EC0CF000C0AA
:1040F20047F800C0D7F9E60ED86F050ED96F9EECCF
:1041020007F0DB0EEE6F050EEF6FD20EF06F000EB2
:10411200F16F0B0EF26F000EF36F58EC01F0010E0F
:104122000501C96F09010751000A08E1090ED76F9D
:1041320027EC0FF00050010A01E0D5D11151000A1D
:1041420005E006014351010A01E085D0090E09018B
:10415200D76F78EC08F0D05108014325006E000EAD
:104162004421016E000E4521026E000E4621036EAF
:1041720000C0B4F901C0B5F902C0B6F903C0B7F97D
:1041820000C0D7F901C0D8F902C0D9F903C0DAF9E1
:10419200010E0901DB6F31EC0DF0B4C9D7F9B5C9D5
:1041A200D8F9B6C9D9F9B7C9DAF9050EDB6F31EC1E
:1041B2000DF00501B76B060E08014325006E000ED7
:1041C2004421016E000E4521026E000E4621036E4F
:1041D2000901D0510026000E01220222032200C052
:1041E200B4F901C0B5F902C0B6F903C0B7F900C00D
:1041F200D7F901C0D8F902C0D9F903C0DAF90A0E19
:10420200DB6F31EC0DF0125108014325006E000EF8
:104212004421016E000E4521026E000E4621036EFE
:104222000901D0510026000E01220222032200C001
:10423200B4F901C0B5F902C0B6F903C0B7F900C0BC
:10424200D7F901C0D8F902C0D9F903C0DAF9030ECF
:10425200DB6F31EC0DF009011151000AD8B439D1EC
:1042620006014351020AD8A434D1090E0901D76FBD
:1042720078EC08F0D05108014325006E000E44216D
:10428200016E000E4521026E000E4621036E00C033
:10429200B4F901C0B5F902C0B6F903C0B7F900C05C
:1042A200D7F901C0D8F902C0D9F903C0DAF9020E70
:1042B2000901DB6F31EC0DF0B4C9D7F9B5C9D8F9F2
:1042C200B6C9D9F9B7C9DAF9060EDB6F31EC0DF0D0
:1042D2000501B76B060E08014325006E000E44214E
:1042E200016E000E4521026E000E4621036E090189
:1042F200D0510026000E01220222032200C0B4F98E
:1043020001C0B5F902C0B6F903C0B7F900C0D7F9C8
:1043120001C0D8F902C0D9F903C0DAF90B0EDB6F7C
:1043220031EC0DF0125108014325006E000E4421BC
:10433200016E000E4521026E000E4621036E090138
:10434200D0510026000E01220222032200C0B4F93D
:1043520001C0B5F902C0B6F903C0B7F900C0D7F978
:1043620001C0D8F902C0D9F903C0DAF9040EDB6F33
:1043720031EC0DF0105108014325006E000E44216E
:10438200016E000E4521026E000E4621036E0901E8
:10439200D0510026000E01220222032200C0B4F9ED
:1043A20001C0B5F902C0B6F903C0B7F900C0D7F928
:1043B20001C0D8F902C0D9F903C0DAF9010EDB6FE6
:1043C20031EC0DF0105108014325006E000E44211E
:1043D200016E000E4521026E000E4621036E090198
:1043E200D0510026000E01220222032200C0B4F99D
:1043F20001C0B5F902C0B6F903C0B7F900C0D7F9D8
:1044020001C0D8F902C0D9F903C0DAF9050EDB6F91
:1044120031EC0DF00501C76B09011051080143256C
:10442200006E000E4421016E000E4521026E000E48
:104432004621036E060E0026000E012202220322EE
:104442000901D0510026000E01220222032200C0DF
:10445200B4F901C0B5F902C0B6F903C0B7F900C09A
:10446200D7F901C0D8F902C0D9F903C0DAF90A0EA6
:10447200DB6F31EC0DF0115108014325006E000E87
:104482004421016E000E4521026E000E4621036E8C
:104492000901D0510026000E0122022203221051EE
:1044A2000026000E01220222032200C0B4F901C03C
:1044B200B5F902C0B6F903C0B7F900C0D7F901C017
:1044C200D8F902C0D9F903C0DAF9030EDB6F31EC77
:1044D2000DF0030E0701E76F0501EC6BC86B0601D7
:1044E200426B070EB76F090109A118D0000E0D1912
:1044F20002E1000E0C1912E00701E851000A0EE178
:10450200010EE86FBFEC08F000C018F7DE0ED76F9F
:10451200000ED86F010ED96F22EC09F00701E851A5
:10452200010A4EE1090109B14BD0000E0D1902E159
:10453200000E0C1945E00701185108014325006ED1
:10454200000E4421016E000E4521026E000E46212E
:10455200036E00C0B4F901C0B5F902C0B6F903C0D8
:10456200B7F900C0D7F901C0D8F902C0D9F903C020
:10457200DAF9090E0901DB6F31EC0DF00701E86B86
:10458200B4C9E5F9B5C9E6F9B6C9E7F9B7C9E8F9B1
:104592001D0E0901E96F090EEA6F53EC06F0B20E27
:1045A200D76F000ED86F010ED96F22EC09F01D0EE5
:1045B2000901D76F090ED86F010ED96F22EC09F0ED
:0245C2001200E5
:1045C400838E010E0601D86F010E0901D76F27EC07
:1045D4000FF000520EE0010ED76FD86BC3EC0EF053
:1045E400400E0901D76F000ED86F010ED96F22EC6F
:1045F40009F0020E0901D76F27EC0FF0005230E0EA
:10460400020ED76FD86BC3EC0EF04F0E0901D76FB3
:10461400000ED86F010ED96F22EC09F0B80E090113
:10462400EE6F060EEF6F1A0EF06F000EF16F100EA4
:10463400F26F000EF36F58EC01F0DB0EEE6F050E17
:10464400EF6FCA0EF06F050EF16F100EF26F000ED1
:10465400F36F58EC01F0010E0501C96F010EFC6FF8
:104664000A0E0901D76F27EC0FF0005210E0010E7B
:104674000501EC6F010E0901D76FA2EC0EF02B0EB1
:10468400D76F000ED86F010ED96F22EC09F00B0E14
:104694000901D76F27EC0FF0005210E0010E05015D
:1046A400C86F020E0901D76FA2EC0EF07E0ED76F11
:1046B400000ED86F010ED96F22EC09F0050E090126
:1046C400D76F27EC0FF0005212E0010ED76FB5C67A
:1046D400D8F95CEC0EF00501EC6BB76B930E090195
:1046E400D76F000ED86F010ED96F22EC09F0070EB8
:1046F4000901D76F27EC0FF0005212E0D76BB5C653
:10470400D8F95CEC0EF00501EC6B010EB76F5E0E90
:104714000901D76F000ED86F010ED96F22EC09F092
:10472400060E0901D76F27EC0FF0005211E0B6C650
:10473400D7F9010ED86F5CEC0EF00501C76B6F0E54
:104744000901D76F000ED86F010ED96F22EC09F062
:10475400080E0901D76F27EC0FF0005211E0B6C61E
:10476400D7F9D86B5CEC0EF0010E0501C76F9B0EF8
:104774000901D76F010ED86F010ED96F22EC09F031
:10478400030E0901D76F27EC0FF0005210E0070168
:10479400E791010E0901D76FB4EC0EF0AC0E0901DC
:1047A400D76F010ED86F010ED96F22EC09F0040EF9
:1047B4000901D76F27EC0FF0005210E00701E793CF
:1047C400020E0901D76FB4EC0EF07D0E0901D76F0C
:1047D400010ED86F010ED96F22EC09F00501EC51DE
:1047E400010A46E1090108A143D00501B751000AB5
:1047F4003FE1010E0901D76FB4EC0EF0020E09017E
:10480400D76FB4EC0EF0060E0601B76F0501EC6B22
:10481400C86B8A0E0901D76F010ED86F010ED96FCC
:1048240022EC09F0090E0901D76F78EC08F0B80EF4
:10483400EE6F060EEF6F1D0EF06F060EF16F100E89
:10484400F26F000EF36F58EC01F0DB0EEE6F050E05
:10485400EF6F0C0EF06F060EF16F100EF26F000E7C
:10486400F36F58EC01F0010E0501C96F020EFC6FE5
:104874000501C851010A46E1090108A343D0050115
:10488400C751000A3FE1010E0901D76FB4EC0EF0E5
:10489400020E0901D76FB4EC0EF0060E0601B76FD5
:1048A4000501EC6BC86BDF0E0901D76F010ED86FE1
:1048B400010ED96F22EC09F0090E0901D76F78ECCB
:1048C40008F0B80EEE6F060EEF6F1D0EF06F060EB9
:1048D400F16F100EF26F000EF36F58EC01F0DB0E67
:1048E400EE6F050EEF6F0C0EF06F060EF16F100EEB
:1048F400F26F000EF36F58EC01F0010E0501C96F61
:10490400020EFC6F09010051000A05E00601435143
:10491400010A01E002D00701E793030E0601425D9C
:10492400D8A0CAD0090109A141D0010ED76FB4ECB7
:104934000EF0020E0901D76FB4EC0EF00501EC6B1A
:10494400C86B060E0601B76F010E0101F06FB90EB8
:104954000901D76F010ED86F010ED96F22EC09F04F
:10496400090E0901D76F78EC08F0B80EEE6F060E49
:10497400EF6F1D0EF06F060EF16F100EF26F000E4A
:10498400F36F58EC01F0DB0EEE6F050EEF6F930E34
:10499400F06F080EF16F100EF26F000EF36F58EC0B
:1049A40001F0010E0501C96F020EFC6F09010A51E5
:1049B400010A40E118533EE0010ED76FB4EC0EF04B
:1049C400020E0901D76FB4EC0EF0060E0601B76FA4
:1049D4000501EC6BC86BCA0E0901D76F010ED86FC5
:1049E400010ED96F22EC09F0090E0901D76F78EC9A
:1049F40008F0B80EEE6F060EEF6F1D0EF06F060E88
:104A0400F16F100EF26F000EF36F58EC01F0DB0E35
:104A1400EE6F050EEF6F320EF06F080EF16F100E91
:104A2400F26F000EF36F58EC01F0010E0501C96F2F
:104A3400020EFC6F09010751000A3EE0010ED76F18
:104A4400B4EC0EF0020E0901D76FB4EC0EF0060EB2
:104A54000601B76F0501EC6BC86B150E0901D76F22
:104A6400010ED86F010ED96F22EC09F0090E09016D
:104A7400D76F78EC08F0B80EEE6F060EEF6F1D0ED0
:104A8400F06F060EF16F100EF26F000EF36F58EC1C
:104A940001F0DB0EEE6F050EEF6F210EF06F080EC6
:104AA400F16F100EF26F000EF36F58EC01F0010E6F
:104AB4000501C96F020EFC6F0701E751000AD8A473
:104AC400A6D009011753D8B488D0010ED76F010EB0
:104AD400D86FC3EC0EF0010E080143250901D76F0E
:104AE400000E080144210901D86F000E0801452178
:104AF4000901D96F000E080146210901DA6F0E0E73
:104B0400DB6F31EC0DF0010ED76FB5C6D8F95CEC54
:104B14000EF00501EC6BB76BB6C6D7F9010E0901AF
:104B2400D86F5CEC0EF00501C86BC76B010E080171
:104B340043250901D76F000E080144210901D86FEC
:104B4400000E080145210901D96F000E0801462114
:104B54000901DA6F030EDB6F31EC0DF0010E080171
:104B640043250901D76F000E080144210901D86FBC
:104B7400000E080145210901D96F000E08014621E4
:104B84000901DA6F010ED727000ED823D923DA23BF
:104B9400040EDB6F31EC0DF0010E08014325090111
:104BA400D76F000E080144210901D86F000E0801D7
:104BB40045210901D96F000E080146210901DA6F68
:104BC400010ED727000ED823D923DA230D0EDB6F6D
:104BD40031EC0DF00701E7851AD0010E08014325D9
:104BE4000901D76F000E080144210901D86F000E96
:104BF400080145210901D96F000E08014621090168
:104C0400DA6F0D0EDB6F31EC0DF00701E7850E0E48
:104C14000901D76F27EC0FF0005206E0020ED76FA0
:104C2400010ED86FC3EC0EF00D0E0901D76F27ECFF
:104C34000FF000522DE0010E0601B76F0701E86B7B
:104C44000801476B090E0901D76F78EC08F0B80E1C
:104C5400EE6F060EEF6F270EF06F010EF16F100E60
:104C6400F26F000EF36F58EC01F0DB0EEE6F050EE1
:104C7400EF6FCA0EF06F050EF16F100EF26F000E9B
:104C8400F36F58EC01F0010E0501C96F010EFC6FC2
:104C94000601B751050A04E0B751060A01E041D004
:104CA4000901D76B78EC08F0000E0D1902E1000E33
:104CB4000C1937E00801476B09010C510801432521
:104CC4000901D76F0D51080144210901D86F000E65
:104CD400080145210901D96F000E08014621090187
:104CE400DA6F090EDB6F31EC0DF0F40ED76F000EA6
:104CF400D86F010ED96F22EC09F0DB0E0901EE6FBB
:104D0400050EEF6F5F0EF06F080EF16F100EF26F6D
:104D1400000EF36F58EC01F0010E0501C96F020E8D
:044D2400FC6F12000E
:104D2800090103A302D003015C2B03015C51010AB2
:104D380020E1B80E0901EE6F060EEF6F1C0EF06F42
:104D4800030EF16F100EF26F000EF36F58EC01F0C6
:104D5800DB0EEE6F050EEF6F2C0EF06F030EF16F8A
:104D6800100EF26F000EF36F58EC01F0010E050102
:104D7800C96F03015C51020A20E1B80E0901EE6F08
:104D8800060EEF6F3C0EF06F030EF16F100EF26F10
:104D9800000EF36F58EC01F0DB0EEE6F050EEF6FAF
:104DA8004C0EF06F030EF16F100EF26F000EF36FE2
:104DB80058EC01F0010E0501C96F03015C51030AAB
:0A4DC80003E1640E0601B76F12004C
:104DD200030E0901D06F839E0601D86BD4EC0CF050
:104DE2000050080147191EE0866BD4EC0CF000C09D
:104DF20047F800C0D7F9E60ED86F050ED96F9EECC2
:104E020007F0DB0EEE6F050EEF6F090EF06F010E6D
:104E1200F16F0B0EF26F000EF36F58EC01F0010E02
:104E22000501C96F09010751000A04E10101F053AC
:104E320001E142D10101F06B838E010E0601D86FB0
:104E4200090E0901D76F78EC08F0175318E0010E2C
:104E5200080143250901D76F000E08014421090109
:104E6200D86F000E080145210901D96F000E080113
:104E720046210901DA6F0C0EDB6F31EC0DF0D051D7
:104E820008014325006E000E4421016E000E4521EB
:104E9200026E000E4621036E00C0B4F901C0B5F9DE
:104EA20002C0B6F903C0B7F900C0D7F901C0D8F9FA
:104EB20002C0D9F903C0DAF9010E0901DB6F31EC46
:104EC2000DF0B4C9D7F9B5C9D8F9B6C9D9F9B7C976
:104ED200DAF9050EDB6F31EC0DF00501B76B060E4A
:104EE20008014325006E000E4421016E000E45218B
:104EF200026E000E4621036E0901D0510026000EFB
:104F020001220222032200C0B4F901C0B5F902C095
:104F1200B6F903C0B7F900C0D7F901C0D8F902C089
:104F2200D9F903C0DAF90A0EDB6F31EC0DF0165134
:104F320008014325006E000E4421016E000E45213A
:104F4200026E000E4621036E0901D0510026000EAA
:104F520001220222032200C0B4F901C0B5F902C045
:104F6200B6F903C0B7F900C0D7F901C0D8F902C039
:104F7200D9F903C0DAF9030EDB6F31EC0DF0005101
:104F8200000AD8B48DD006014351020AD8A488D0B1
:104F920009011051080143250901D76F000E0801CC
:104FA20044210901D86F000E080145210901D96F7A
:104FB200000E080146210901DA6FD051D727000EF1
:104FC200D823D923DA23020EDB6F31EC0DF0105116
:104FD200080143250901D76F000E08014421090188
:104FE200D86F000E080145210901D96F000E080192
:104FF20046210901DA6FD051D727000ED823D923D1
:10500200DA23060EDB6F31EC0DF00501C76B0901E7
:105012001051080143250901D76F000E08014421F0
:105022000901D86F000E080145210901D96F000E50
:10503200080146210901DA6F060ED727000ED82390
:10504200D923DA23D051D727000ED823D923DA2344
:105052000B0EDB6F31EC0DF0005108014325090105
:10506200D76F000E080144210901D86F000E080114
:1050720045210901D96F000E080146210901DA6FA5
:105082001051D727000ED823D923DA23D051D7279E
:10509200000ED823D923DA23040EDB6F31EC0DF096
:1050A200030E0601586F0501EC6BC86B0701E86B34
:1050B2000601426B080EB76F090E0901D76F27EC84
:1050C2000FF00050010AD8A4D7D11151000A05E00F
:1050D20006014351010A01E085D0090E0901D76F8B
:1050E20078EC08F0D05108014325006E000E4421EF
:1050F200016E000E4521026E000E4621036E00C0B5
:10510200B4F901C0B5F902C0B6F903C0B7F900C0DD
:10511200D7F901C0D8F902C0D9F903C0DAF9010EF2
:105122000901DB6F31EC0DF0B4C9D7F9B5C9D8F973
:10513200B6C9D9F9B7C9DAF9050EDB6F31EC0DF052
:105142000501B76B060E08014325006E000E4421CF
:10515200016E000E4521026E000E4621036E09010A
:10516200D0510026000E01220222032200C0B4F90F
:1051720001C0B5F902C0B6F903C0B7F900C0D7F94A
:1051820001C0D8F902C0D9F903C0DAF90A0EDB6FFF
:1051920031EC0DF0125108014325006E000E44213E
:1051A200016E000E4521026E000E4621036E0901BA
:1051B200D0510026000E01220222032200C0B4F9BF
:1051C20001C0B5F902C0B6F903C0B7F900C0D7F9FA
:1051D20001C0D8F902C0D9F903C0DAF9030EDB6FB6
:1051E20031EC0DF009011151000AD8B439D1060190
:1051F2004351020AD8A434D1090E0901D76F78ECC1
:1052020008F0D05108014325006E000E4421016EC2
:10521200000E4521026E000E4621036E00C0B4F955
:1052220001C0B5F902C0B6F903C0B7F900C0D7F999
:1052320001C0D8F902C0D9F903C0DAF9020E090196
:10524200DB6F31EC0DF0B4C9D7F9B5C9D8F9B6C9DD
:10525200D9F9B7C9DAF9060EDB6F31EC0DF00501A9
:10526200B76B060E08014325006E000E4421016E45
:10527200000E4521026E000E4621036E0901D05137
:105282000026000E01220222032200C0B4F901C04E
:10529200B5F902C0B6F903C0B7F900C0D7F901C029
:1052A200D8F902C0D9F903C0DAF90B0EDB6F31EC81
:1052B2000DF0125108014325006E000E4421016ECB
:1052C200000E4521026E000E4621036E0901D051E7
:1052D2000026000E01220222032200C0B4F901C0FE
:1052E200B5F902C0B6F903C0B7F900C0D7F901C0D9
:1052F200D8F902C0D9F903C0DAF9040EDB6F31EC38
:105302000DF0105108014325006E000E4421016E7C
:10531200000E4521026E000E4621036E0901D05196
:105322000026000E01220222032200C0B4F901C0AD
:10533200B5F902C0B6F903C0B7F900C0D7F901C088
:10534200D8F902C0D9F903C0DAF9010EDB6F31ECEA
:105352000DF0105108014325006E000E4421016E2C
:10536200000E4521026E000E4621036E0901D05146
:105372000026000E01220222032200C0B4F901C05D
:10538200B5F902C0B6F903C0B7F900C0D7F901C038
:10539200D8F902C0D9F903C0DAF9050EDB6F31EC96
:1053A2000DF00501C76B0901105108014325006E7C
:1053B200000E4421016E000E4521026E000E4621B0
:1053C200036E060E0026000E0122022203220901AC
:1053D200D0510026000E01220222032200C0B4F99D
:1053E20001C0B5F902C0B6F903C0B7F900C0D7F9D8
:1053F20001C0D8F902C0D9F903C0DAF90A0EDB6F8D
:1054020031EC0DF0115108014325006E000E4421CC
:10541200016E000E4521026E000E4621036E090147
:10542200D0510026000E0122022203221051002632
:10543200000E01220222032200C0B4F901C0B5F914
:1054420002C0B6F903C0B7F900C0D7F901C0D8F954
:1054520002C0D9F903C0DAF9030EDB6F31EC0DF0AB
:10546200030E0701E76F0501EC6BC86B0701E86BE0
:105472000601426B070EB76F090109A118D0000E91
:105482000D1902E1000E0C1912E00701E851000AA1
:105492000EE1010EE86FBFEC08F000C018F7570EDE
:1054A200D76F010ED86F010ED96F22EC09F00701F8
:1054B200E851010A4EE1090109B14BD0000E0D1964
:1054C20002E1000E0C1945E00701185108014325BD
:1054D200006E000E4421016E000E4521026E000E88
:1054E2004621036E00C0B4F901C0B5F902C0B6F995
:1054F20003C0B7F900C0D7F901C0D8F902C0D9F981
:1055020003C0DAF9090E0901DB6F31EC0DF0070176
:10551200E86BB4C9E5F9B5C9E6F9B6C9E7F9B7C99F
:10552200E8F91D0E0901E96F090EEA6F53EC06F066
:105532006D0ED76F010ED86F010ED96F22EC09F0F4
:105542001D0E0901D76F090ED86F010ED96F22EC1B
:0455520009F012004A
:10555600090103A10BD00701B251000A03E1160E9F
:10556600B26F01D0B207640E0601B76F090103A539
:105576000AD00701B251160A02E1B26B01D0B22B72
:10558600640E0601B76F090103A303D0660E060178
:10559600B76F09010351050A27E1B80EEE6F060E33
:1055A600EF6FFC0EF06F020EF16F100EF26F000E31
:1055B600F36F58EC01F003015C6BDB0E0901EE6F33
:1055C600050EEF6F0C0EF06F030EF16F100EF26FFB
:1055D600000EF36F58EC01F0020E0501FC6F010E90
:0A55E600C96FFA0E0601B76F12003C
:1055F000030E0901D06FD16BD26BD36BD46B839E3A
:105600000601D86B09010351020A05E1640E060187
:10561000B76F0701B26B0901075103080601436F19
:1056200009010751000AD8B4D8D2090ED76F78EC17
:1056300008F0838E010E0601D86F0901175318E098
:10564000010E080143250901D76F000E080144210E
:105650000901D86F000E080145210901D96F000E1C
:10566000080146210901DA6F0C0EDB6F31EC0DF0F9
:10567000D05108014325006E000E4421016E000E3A
:105680004521026E000E4621036E00C0B4F901C030
:10569000B5F902C0B6F903C0B7F900C0D7F901C027
:1056A000D8F902C0D9F903C0DAF9010E0901DB6F9C
:1056B00031EC0DF01551000A10E0B4C9D7F9B5C9A5
:1056C000D8F9B6C9D9F9B7C9DAF9070EDB6F31ECE9
:1056D0000DF0010E0501B76F0FD0B4C9D7F9B5C9E8
:1056E000D8F9B6C9D9F9B7C9DAF9050E0901DB6FDE
:1056F00031EC0DF00501B76B090115510801432587
:10570000006E000E4421016E000E4521026E000E57
:105710004621036E060E0026000E012202220322FD
:105720000901D0510026000E01220222032200C0EE
:10573000B4F901C0B5F902C0B6F903C0B7F900C0A9
:10574000D7F901C0D8F902C0D9F903C0DAF90A0EB5
:10575000DB6F31EC0DF0155108014325006E000E92
:105760004421016E000E4521026E000E4621036E9B
:105770000901D0510026000E01220222032200C09E
:10578000B4F901C0B5F902C0B6F903C0B7F900C059
:10579000D7F901C0D8F902C0D9F903C0DAF9050E6A
:1057A000DB6F31EC0DF01451000A2EE016510801A8
:1057B0004325006E000E4421016E000E4521026E4D
:1057C000000E4621036E09011451005E000E015ABD
:1057D000025A035AD0510026000E0122022203224F
:1057E00000C0B4F901C0B5F902C0B6F903C0B7F9F9
:1057F00000C0D7F901C0D8F902C0D9F903C0DAF95D
:10580000070EDB6F31EC0DF0165108014325006ED9
:10581000000E4421016E000E4521026E000E46214D
:10582000036E0901D0510026000E0122022203223C
:1058300000C0B4F901C0B5F902C0B6F903C0B7F9A8
:1058400000C0D7F901C0D8F902C0D9F903C0DAF90C
:10585000030EDB6F31EC0DF01651080143250901F1
:10586000D16F000E080144210901D26F000E08011A
:1058700045210901D36F000E080146210901D46FAB
:10588000D051D127000ED223D323D4230051000AB4
:10589000D8B470D106014351020AD8A46BD10901D2
:1058A000105108014325006E000E4421016E000EC8
:1058B0004521026E000E4621036E0901D0510026DB
:1058C000000E01220222032200C0B4F901C0B5F982
:1058D00002C0B6F903C0B7F900C0D7F901C0D8F9C2
:1058E00002C0D9F903C0DAF9020EDB6F31EC0DF01A
:1058F0001551000A2CE0105108014325006E000EDE
:105900004421016E000E4521026E000E4621036EF9
:105910000901D0510026000E01220222032200C0FC
:10592000B4F901C0B5F902C0B6F903C0B7F900C0B7
:10593000D7F901C0D8F902C0D9F903C0DAF9080EC5
:10594000DB6F31EC0DF0010E0501C76F2BD00901A3
:10595000105108014325006E000E4421016E000E17
:105960004521026E000E4621036E0901D05100262A
:10597000000E01220222032200C0B4F901C0B5F9D1
:1059800002C0B6F903C0B7F900C0D7F901C0D8F911
:1059900002C0D9F903C0DAF9060EDB6F31EC0DF065
:1059A0000501C76B0901105108014325006E000E67
:1059B0004421016E000E4521026E000E4621036E49
:1059C000090115510026000E012202220322060EB3
:1059D0000026000E012202220322D0510026000ED2
:1059E00001220222032200C0B4F901C0B5F902C0AD
:1059F000B6F903C0B7F900C0D7F901C0D8F902C0A1
:105A0000D9F903C0DAF90B0EDB6F31EC0DF0105150
:105A100008014325006E000E4421016E000E452151
:105A2000026E000E4621036E090115510026000E7C
:105A3000012202220322D0510026000E012202225E
:105A4000032200C0B4F901C0B5F902C0B6F903C021
:105A5000B7F900C0D7F901C0D8F902C0D9F903C01D
