:040000007DEF3CF064
:1000080000C015F0F2A433D00301B32B8088010E91
:100018000401CD6F190E0301B55D03E3B56BB66B33
:1000280001D0B52B190E0801FF5D04E3FF6B030136
:10003800B46B02D00801FF2B190E0301B35D12E364
:10004800B36B010E0501BB27000EBC23BD23BE23E5
:100058000701C953010ED8A4000EC96F8098010E7C
:100068000401CC6FF30ED76ECA0ED66EF294F0A0D0
:1000780019D00301B651000A03E1B62BB56B01D0C4
:10008800B62B050EB65D0DE3130EB55D09E3B5514C
:10009800150806E3010E0501336F0301B66B01D0A5
:1000A800B66BF090F0A21ED00301B451000A04E12F
:1000B800B42B0801FF6B02D00301B42B0301050E1A
:1000C800B45D0FE3130E0801FF5D09E3FF51150846
:1000D80006E3010E0501346F0301B46B02D003017E
:1000E800B46BF0929EA007D00801D453D8A481869F
:1000F8009D90CD909E90A1A207D00801D553D8A479
:100108008188A092B190A192F2A204D0CC6ACA844C
:100118009D82F2929EA221D00801D4530CE00701DF
:10012800335302E0818607D08196F1C8CFFFF2C829
:10013800CEFFCD809D800801D5530CE00601B75352
:1001480002E0818807D08198F1C8B3FFF2C8B2FFF6
:10015800B180A082CA949D929E9215C000F01100B1
:0E016800ACB202D00000FCD742CAADFF1200BC
:1001760042CAC9FFC7B002D00000FCD7C9CF00F001
:02018600120065
:10018800086A096A100E0C6E0134083609360450E4
:10019800085E0550D8A0053C095ED8B007D00450C9
:1001A80008260550D8B0053C0926D89000360136F7
:0601B8000C2EEAD7120034
:1001BE00F250026EF29E0500FF6A0150FE6E005074
:0801CE00FD6E02BEF28E12006C
:1001D600086A080E0C6E003408360450085ED8B063
:0E01E60002D00826D89000360C2EF5D7120055
:1001F4000A013E6B030E3E5D0AE23E513C25E16E70
:10020400000E3D21E26E200EE66E3E2BF3D73E51EA
:100214003C25E16E000E3D21E26EE66A3E073E514A
:100224003C253F6F000E3D21406F0A0E046E3BCA11
:1002340000F0CFDF08C000F0300E00263FCAE1FF17
:1002440040CAE2FF00C0E6FF0A0E046E3BCA00F09B
:10025400C0DF00C03BFA0050000A01E102D03E07B3
:04026400DED71200CF
:10026800A6A202D00000FCD7A69C3CCAAAFF3BCAA3
:10027800A9FF3DCAA8FFA69EA684F2CF00F0F29E71
:10028800550EA76EAA0EA76EA68200BE02D0F29ED9
:0802980001D0F28EA6941200C1
:1002A0003DCA04F03ECA05F03BCA02F03CCA03F066
:1002B0003FCA00F040CA01F0010E0A013F5F000E84
:1002C000405B005001100FE004C0E9FF05C0EAFFE9
:1002D00002C0E1FF03C0E2FFEECFE6FF024A032ABD
:1002E000044A052AE5D73BCA00F03CCA01F01200D7
:1002F0000A013F6B050E3F5D0AE23F513D25E16E6D
:10030000000E3E21E26E200EE66E3F2BF3D73F51EA
:100310003D25E16E000E3E21E26EE66A3F073F5149
:100320003D25406F000E3E21416F0A0E046E000E07
:10033000056E3BCA00F03CCA01F026DF08C000F0A1
:1003400009C001F0300E002640CAE1FF41CAE2FFB9
:1003500000C0E6FF0A0E046E000E056E3BCA00F0F8
:100360003CCA01F011DF00C03BFA01C03CFA000EAC
:10037000011802E1000E001801E102D03F07CFD7BB
:02038000120069
:100382005ED00801EB6BEC6B8BD00801E00EEB6FDB
:10039200010EEC6F85D00801EA0EEB6F010EEC6FD7
:1003A2007FD00801F40EEB6F010EEC6F79D00801DB
:1003B200120EEB6F020EEC6F73D00801260EEB6F7C
:1003C200020EEC6F6DD008013A0EEB6F020EEC6F6D
:1003D20067D00801580EEB6F020EEC6F61D0080176
:1003E200760EEB6F020EEC6F5BD008018A0EEB6F9C
:1003F200020EEC6F55D008019E0EEB6F020EEC6FF1
:100402004FD00801BC0EEB6F020EEC6F49D0080111
:10041200EE0EEB6F020EEC6F43D00801200EEB6F75
:10042200030EEC6F3DD00801520EEB6F030EEC6F22
:1004320037D00801840EEB6F030EEC6F31D00A0146
:100442003B51000A9EE03B51010A9FE03B51020AE8
:10045200A2E03B51030AA5E03B51040AA8E03B514C
:10046200050AABE03B51060AAEE03B51070AB1E098
:100472003B51080AB4E03B51090AB7E03B510A0A72
:10048200BAE03B510B0ABDE03B510C0AC0E03B51C4
:100492000D0AC3E03B510E0AC6E03B510F0AC9E008
:1004A20042D0640E0801ED6F000EEE6F5ED00801BF
:1004B200F40EED6F010EEE6F58D00801E80EED6FED
:1004C200030EEE6F52D00801DC0EED6F050EEE6FDB
:1004D2004CD00801D00EED6F070EEE6F46D008012A
:1004E200C40EED6F090EEE6F40D00801B80EED6F2D
:1004F2000B0EEE6F3AD00801AC0EED6F0D0EEE6FE3
:1005020034D00801A00EED6F0F0EEE6F2ED0080151
:10051200940EED6F110EEE6F28D00801880EED6F6C
:10052200130EEE6F22D00A013C51000ABAE03C5190
:10053200010ABDE03C51020AC0E03C51030AC3E09B
:100542003C51040AC6E03C51050AC9E03C51060A86
:10055200CCE03C51070ACFE03C51080AD2E03C51C2
:10056200090AD5E03C510A0AD8E05ED00801E76BDF
:10057200E86B8BD00801E00EE76F010EE86F85D0C3
:100582000801EA0EE76F010EE86F7FD00801F40E52
:10059200E76F010EE86F79D00801120EE76F020EC5
:1005A200E86F73D00801260EE76F020EE86F6DD078
:1005B20008013A0EE76F020EE86F67D00801580E85
:1005C200E76F020EE86F61D00801760EE76F020E48
:1005D200E86F5BD008018A0EE76F020EE86F55D014
:1005E20008019E0EE76F020EE86F4FD00801BC0EA5
:1005F200E76F020EE86F49D00801EE0EE76F020EB8
:10060200E86F43D00801200EE76F030EE86F3DD07C
:100612000801520EE76F030EE86F37D00801840E0F
:10062200E76F030EE86F31D00A013D51000A9EE0E8
:100632003D51010A9FE03D51020AA2E03D51030AE9
:10064200A5E03D51040AA8E03D51050AABE03D5149
:10065200060AAEE03D51070AB1E03D51080AB4E096
:100662003D51090AB7E03D510A0ABAE03D510B0A71
:10067200BDE03D510C0AC0E03D510D0AC3E03D51C1
:100682000E0AC6E03D510F0AC9E042D0640E0801CD
:10069200E96F000EEA6F5ED00801F40EE96F010EF9
:1006A200EA6F58D00801E80EE96F030EEA6F52D0E4
:1006B2000801DC0EE96F050EEA6F4CD00801D00E7E
:1006C200E96F070EEA6F46D00801C40EE96F090E02
:1006D200EA6F40D00801B80EE96F0B0EEA6F3AD00C
:1006E2000801AC0EE96F0D0EEA6F34D00801A00EBE
:1006F200E96F0F0EEA6F2ED00801940EE96F110E0A
:10070200EA6F28D00801880EE96F130EEA6F22D033
:100712000A013E51000ABAE03E51010ABDE03E51D3
:10072200020AC0E03E51030AC3E03E51040AC6E099
:100732003E51050AC9E03E51060ACCE03E51070A85
:10074200CFE03E51080AD2E03E51090AD5E03E51BF
:060752000A0AD8E01200C3
:100758000B6A0A6A096A086A0E6A03340836045082
:10076800085E0550D8A0053C095E0650D8A0063C96
:100778000A5E0750D8A0073C0B5EE86AD8A0010EB5
:100788000E5E0336070E0C6E0334083609360A3639
:100798000B360E36045003A012D0085E0550D8A0C0
:1007A800053C095E0650D8A0063C0A5E0750D8A052
:1007B800073C0B5EE86AD8A0010E0E5E11D0082631
:1007C8000550D8B0053C09260650D8B0063C0A2684
:1007D8000750D8B0073C0B26E86AD8B0010E0E26A1
:1007E80003360C2ED1D70234083609360A360B36B2
:1007F8000E36045003A012D0085E0550D8A0053C60
:10080800095E0650D8A0063C0A5E0750D8A0073CEF
:100818000B5EE86AD8A0010E0E5E11D008260550BE
:10082800D8B0053C09260650D8B0063C0A26075021
:10083800D8B0073C0B26E86AD8B0010E0E2602365F
:10084800070E0C6E0234083609360A360B360E3699
:10085800045002A012D0085E0550D8A0053C095EDD
:100868000650D8A0063C0A5E0750D8A0073C0B5E8D
:10087800E86AD8A0010E0E5E11D008260550D8B03F
:10088800053C09260650D8B0063C0A260750D8B0C1
:10089800073C0B26E86AD8B0010E0E2602360C2E4D
:1008A800D1D70134083609360A360B360E360450CD
:1008B80002A012D0085E0550D8A0053C095E06507B
:1008C800D8A0063C0A5E0750D8A0073C0B5EE86A31
:1008D800D8A0010E0E5E11D008260550D8B0053CF0
:1008E80009260650D8B0063C0A260750D8B0073C5F
:1008F8000B26E86AD8B0010E0E260136070E0C6EDC
:100908000134083609360A360B360E36045001A073
:1009180012D0085E0550D8A0053C095E0650D8A044
:10092800063C0A5E0750D8A0073C0B5EE86AD8A0D0
:10093800010E0E5E11D008260550D8B0053C0926D8
:100948000650D8B0063C0A260750D8B0073C0B26FC
:10095800E86AD8B0010E0E2601360C2ED1D7003425
:10096800083609360A360B360E36045001A012D066
:10097800085E0550D8A0053C095E0650D8A0063C84
:100988000A5E0750D8A0073C0B5EE86AD8A0010EA3
:100998000E5E11D008260550D8B0053C0926065031
:1009A800D8B0063C0A260750D8B0073C0B26E86AA0
:1009B800D8B0010E0E260036070E0C6E003408362D
:1009C80009360A360B360E36045000A012D0085EDF
:1009D8000550D8A0053C095E0650D8A0063C0A5E22
:1009E8000750D8A0073C0B5EE86AD8A0010E0E5E3F
:1009F80011D008260550D8B0053C09260650D8B0B5
:100A0800063C0A260750D8B0073C0B26E86AD8B03F
:100A1800010E0E2600360C2ED1D700B00ED0045091
:100A280008260550D8B0053C09260650D8B0063C23
:0C0A38000A260750D8B0073C0B2612001D
:100A440003C9E1FF04C9E2FF3BCAE6FF01C900F0A4
:0A0A540002C901F0DFEC00F012000F
:100A5E003BD0500E0801F16F370EF26F72D00801C5
:100A6E00630EF16FBF0EF26F6CD00801770EF16F4F
:100A7E00470EF26F66D008018A0EF16FCF0EF26F3D
:100A8E0060D008019E0EF16F570EF26F5AD008011A
:100A9E00B10EF16FDF0EF26F54D00801C50EF16F7B
:100AAE00670EF26F4ED00801D80EF16FEF0EF26F97
:100ABE0048D00801EC0EF16F770EF26F42D00801AC
:100ACE00FF0EF16FF26B3DD0000E0A01061902E126
:100ADE00010E0519BEE0000E061902E1020E0519FF
:100AEE00BEE0000E061902E1030E0519BEE0000E6F
:100AFE00061902E1040E0519BEE0000E061902E108
:100B0E00050E0519BEE0000E061902E1060E0519C6
:100B1E00BEE0000E061902E1070E0519BEE0000E3A
:100B2E00061902E1080E0519BEE0000E061902E1D3
:100B3E00090E0519BEE0000E061902E10A0E05198E
:100B4E00BEE03BD0500E0801EF6F370EF06F72D043
:100B5E000801630EEF6FBF0EF06F6CD00801770EB9
:100B6E00EF6F470EF06F66D008018A0EEF6FCF0E53
:100B7E00F06F60D008019E0EEF6F570EF06F5AD0D7
:100B8E000801B10EEF6FDF0EF06F54D00801C50EE5
:100B9E00EF6F670EF06F4ED00801D80EEF6FEF0EAD
:100BAE00F06F48D00801EC0EEF6F770EF06F42D069
:100BBE000801FF0EEF6FF06B3DD0000E0A01081911
:100BCE0002E1010E0719BEE0000E081902E1020E45
:100BDE000719BEE0000E081902E1030E0719BEE068
:100BEE00000E081902E1040E0719BEE0000E0819E6
:100BFE0002E1050E0719BEE0000E081902E1060E0D
:100C0E000719BEE0000E081902E1070E0719BEE033
:100C1E00000E081902E1080E0719BEE0000E0819B1
:100C2E0002E1090E0719BEE0000E081902E10A0ED4
:060C3E000719BEE01200E0
:100C44000B6A0A6A096A00500402F4CF09F0F3CF70
:100C540008F001500502F4CF0BF0F3CF0AF0005076
:100C64000502F3500926F4500A22E86A0B220150C7
:100C74000402F3500926F4500A22E86A0B2208C041
:100C840000F009C001F00AC002F00BC003F012002A
:0A0C9400490E0D6E0D2EFED7120062
:100C9E00C7B409D01F0EC514016E0150000A03E13E
:0A0CAE00010E006E01D0006A120072
:100CB8000A01356B32CAE9FF33CAEAFFEECF34FACC
:100CC8003451000A0EE034CA3BFAB8DE0A01352B6B
:100CD80035513225E96E000E3321EA6EEECF34FA33
:040CE800EFD7120030
:100CEC000A01386B0A0E385D0AE238513625E16E7E
:100CFC00000E3721E26E300EE66E382BF3D73851EA
:100D0C003625E16E000E3721E26EE66A3807000EDA
:100D1C00006E351908E10050341905E10050331903
:100D2C0002E13251000A3EE038513625396F000E8F
:100D3C0037213A6F0A0E046E000E056E066E076EB2
:100D4C0032CA00F033CA01F034CA02F035CA03F0DB
:100D5C00FDDC08C000F009C001F00AC002F00BC0B5
:100D6C0003F0300E002639CAE1FF3ACAE2FF00C098
:100D7C00E6FF38070A0E046E000E056E066E076E4F
:100D8C0032CA00F033CA01F034CA02F035CA03F09B
:100D9C00DDDC00C032FA01C033FA02C034FA03C001
:060DAC0035FAB5D7120074
:100DB2000A01356B32CAE9FF33CAEAFFEECF34FAD1
:100DC2003451000A0FE034CA42FAB4EC00F00A01CE
:100DD200352B35513225E96E000E3321EA6EEECF06
:060DE20034FAEED7120006
:100DE80032CA3BFA0A013B333B9F33CA3CFA34CA46
:100DF8003DFAFAEC00F0010E3215016E0150010ABD
:100E080011E1030E33253B6F000E34213C6F7E0E3B
:100E18003D6F020E3E6F040E3F6F000E406F50ECA8
:100E280001F010D0030E33253B6F000E34213C6FC8
:100E3800280E3D6F020E3E6F040E3F6F000E406F8E
:060E480050EC01F0120065
:100E4E00A69C33CAAAFF32CAA9FFA69EA680A8CF27
:040E5E0000F012008E
:100E6200010E0A013B6F000E3C6FFDC93DFA34ECE6
:100E720001F0020E0A013B6F000E3C6F5EC93DFAA3
:100E820034EC01F0030E0A013B6F000E3C6FFCC90B
:100E92003DFA34EC01F0040E0A013B6F000E3C6F88
:100EA200F8C93DFA34EC01F0050E0A013B6F000E61
:100EB2003C6FFFC93DFA34EC01F0060E0A013B6FAC
:100EC200000E3C6FF7C93DFA34EC01F0070E0A013F
:100ED2003B6F000E3C6FFBC93DFA34EC01F0080E8B
:100EE2000A013B6F000E3C6FFAC93DFA34EC01F087
:100EF200090E0A013B6F000E3C6FF9C93DFA34EC52
:100F020001F00A0E0A013B6F000E3C6FEDC93DFA7B
:100F120034EC01F00B0E0A013B6F000E3C6FECC982
:100F22003DFA34EC01F00C0E0A013B6F000E3C6FEF
:100F3200E0C73DFA34EC01F00D0E0A013B6F000EE2
:100F42003C6FFEC93DFA34EC01F00E0E0A013B6F14
:100F5200000E3C6F00CA3DFA34EC01F00F0E0A019C
:100F62003B6F000E3C6F5FC93DFA34EC01F0100E8E
:100F72000A013B6F000E3C6F5CC93DFA34EC01F094
:100F8200110E0A013B6F000E3C6F5DC93DFA34EC55
:100F920001F0120E0A013B6F000E3C6F09CA3DFAC6
:100FA20034EC01F0130E0A013B6F000E3C6FFAC7DE
:100FB2003DFA34EC01F0140E0A013B6F000E3C6F57
:100FC2000ACA3DFA34EC01F0150E0A013B6F000E1D
:100FD2003C6F05CA3DFA34EC01F0160E0A013B6F74
:100FE200000E3C6F07CA3DFA34EC01F0170E0A01FD
:100FF2003B6F000E3C6F0BCA3DFA34EC01F0E0C7C8
:101002003BFA09CA3CFAFAC73DFA0ACA3EFAC1ECEF
:0610120001F024DD1200D4
:1010180032CA3BFA33CA3CFA0A013C333B333C9FA1
:1010280034CA3DFA35CA3EFA78EC01F0010E3215A1
:10103800016E33CA02F0000E0216000E021802E119
:10104800010E011811E1050E34253B6F000E352104
:101058003C6FF60E3D6F070E3E6F040E3F6F000E9D
:10106800406F50EC01F010D0050E34253B6F000E98
:1010780035213C6F350E3D6F050E3E6F040E3F6FF8
:0A108800000E406F50EC01F0120062
:10109200010E0A012425016E000E2521026E01C0F7
:1010A200E9FF02C0EAFF0A0EEE24006E01C0E1FF72
:1010B20002C0E2FF00C0E6FF030E2425016E000E0F
:1010C2002521026E01C0E9FF02C0EAFF0A0EEE24EA
:1010D200006E01C0E1FF02C0E2FF00C0E6FF24CAC9
:1010E200E9FF25CAEAFFEECF00F024CAE1FF25CAD4
:1010F200E2FF0A0E0024E66E020E2425016E000EA7
:101102002521026E01C0E9FF02C0EAFF0A0EEE24A9
:10111200006E01C0E1FF02C0E2FF00C0E6FF040E64
:101122002425E16E000E2521E26E040EE66E060E07
:101132002425E16E000E2521E26E040EE66E080EF5
:101142002425E16E000E2521E26E040EE66E0A0EE3
:101152002425E16E000E2521E26E040EE66E050ED8
:101162002425E16E000E2521E26E0A0EE66E090EBE
:101172002425E16E000E2521E26E0A0EE66E070EB0
:101182002425E16E000E2521E26E0A0EE66E0B0E9C
:101192002425E16E000E2521E26E0A0EE66E120093
:1011A2000A01265317E0BBC532FABCC533FABDC5E6
:1011B20034FABEC535FA270E366F0A0E376F95DD43
:1011C200270E326F0A0E336F76DD9C0E326F080ED9
:1011D200336FEEDD24CA32FA25CA33FAE9DD0D0E89
:1011E200426FB4EC00F00A0E0A01426FB4EC00F058
:0211F2001200E9
:1011F4000A012451010A03E10801D46B81960A0112
:0E1204002451020A03E10801D56B8198120003
:10121200010E0A01326F000E336F18DE00C0FDF9B5
:10122200020E326F000E336F11DE00C05EF9030E44
:10123200326F000E336F0ADE00C0FCF9040E326F0B
:10124200000E336F03DE00C0F8F9050E326F000E98
:10125200336FFCDD00C0FFF9060E326F000E336FF4
:10126200F5DD00C0F7F9070E326F000E336FEEDDC9
:1012720000C0FBF9080E326F000E336FE7DD00C0CD
:10128200FAF9090E326F000E336FE0DD00C0F9F992
:101292000A0E326F000E336FD9DD00C0ECF9000E7A
:1012A2000901ED6FECC9EDF9EC6B0B0E0A01326F1F
:1012B200000E336FCBDD00500901EC13000EED136D
:1012C2000C0E0A01326F000E336FC0DD00C0E0F772
:1012D2000D0E326F000E336FB9DD00C0FEF90E0E37
:1012E200326F000E336FB2DD00C000FA0F0E326FA4
:1012F200000E336FABDD00C05FF9100E326F000ECF
:10130200336FA4DD00C05CF9110E326F000E336F33
:101312009DDD00C05DF9120E326F000E336F96DD57
:1013220000C009FA130E326F000E336F8FDD00C05A
:10133200FAF7140E326F000E336F88DD00C00AFA1E
:10134200150E326F000E336F81DD00C005FA000EFC
:10135200066F160E326F000E336F78DD00C007FA8B
:10136200000E086F170E326F000E336F6FDD00C074
:101372000BFA2FEC05F0E0C73BFA09CA3CFAFAC7B0
:0C1382003DFA0ACA3EFAC1EC01F012006C
:10138E009E9624CAC9FFC7A401D0FDD79EB601D030
:10139E00FDD7C5BC02D0006A03D0C584020E006E14
:0213AE0012002B
:1013B0000A01296B140E295D6FE2070E006E000E04
:1013C000016E29CA04F0000E056E3CDC600E00269A
:1013D000090E0122050E0024E96E000E0120EA6EBE
:1013E000EE50010A57E1070E006E000E016E29CA89
:1013F00004F0000E056E26DC600E0024E16E090E7E
:101400000120E26E28CAE6FF070E006E000E016E94
:1014100029CA04F0000E056E15DC600E0026090EC8
:101420000122010E0024E16E000E0120E26E24CAAA
:10143000E6FF25CAE6FF26CAE6FF27CAE6FF070E33
:10144000006E000E016E29CA04F0000E056E22EC3B
:1014500006F0600E0026090E0122050E0024E16E42
:10146000000E0120E26EE66A070E006E000E016EAD
:1014700029CA04F0000E056E22EC06F0600E00266C
:10148000090E0122060E0024E16E000E0120E26E1C
:0A149000E66A02D0292B8ED7120065
:10149A000901EF510A01241905E10901EF6B010E57
:1014AA00006E15D00901F0510A01241905E109015C
:1014BA00F06B010E006E0BD00901F1510A012419DB
:1014CA0005E10901F16B010E006E01D0006A1200FC
:1014DA0024CA3BFA0A013B333B9F25CA3CFA26CA77
:1014EA003DFAFAEC00F0030E25253B6F000E26218B
:1014FA003C6FB00E3D6F080E3E6F040E3F6F000E3C
:08150A00406F50EC01F01200EB
:10151200020E0601B56F610E0A013B6F060E3C6FAB
:10152200C50E3D6F000E3E6F100E3F6F000E406FF6
:1015320050EC01F001010951000A38E1930E0A0151
:101542003B6F060E3C6F0A0E3D6F010E3E6F100E92
:101552003F6F000E406F50EC01F0010E0601836FE9
:101562000001F751000A0FE1610E0A013B6F060EFE
:101572003C6FF80E3D6F000E3E6F100E3F6F000E77
:10158200406F50EC01F00001F751010A0FE1610ECA
:101592000A013B6F060E3C6F9E0E3D6F000E3E6FC2
:1015A200100E3F6F000E406F50EC01F00101095127
:1015B200010A1BE1930E0A013B6F060E3C6F380EC7
:1015C2003D6F000E3E6F100E3F6F000E406F50ECED
:1015D20001F0010E0601836FFDC932FA670E0A019E
:1015E200336F060E346FF4EC06F001010951020A62
:1015F2001BE1930E0A013B6F060E3C6F490E3D6FD5
:10160200000E3E6F100E3F6F000E406F50EC01F067
:10161200010E0601836F5EC932FA670E0A01336F4B
:10162200060E346FF4EC06F001010951030A1BE1C6
:10163200930E0A013B6F060E3C6F160E3D6F000EB5
:101642003E6F100E3F6F000E406F50EC01F0010E26
:101652000601836FFCC932FA670E0A01336F060E68
:10166200346FF4EC06F001010951040A1BE1930EF8
:101672000A013B6F060E3C6F270E3D6F000E3E6F58
:10168200100E3F6F000E406F50EC01F0010E06018C
:10169200836FF8C932FA670E0A01336F060E346F90
:1016A200F4EC06F001010951050A1BE1930E0A014F
:1016B2003B6F060E3C6F7C0E3D6F000E3E6F100EB0
:1016C2003F6F000E406F50EC01F0010E0601836F78
:1016D200F7C932FA670E0A01336F060E346FF4EC63
:1016E20006F001010951060A1BE1930E0A013B6F44
:1016F200060E3C6F8D0E3D6F000E3E6F100E3F6F5B
:10170200000E406F50EC01F0010E0601836FFBC921
:1017120032FA670E0A01336F060E346FF4EC06F0EC
:1017220001010951070A1BE1930E0A013B6F060EE4
:101732003C6F5A0E3D6F000E3E6F100E3F6F000E53
:10174200406F50EC01F0010E0601836FFAC932FAC4
:10175200670E0A01336F060E346FF4EC06F00101D6
:101762000951080A1BE1930E0A013B6F060E3C6FFA
:101772006B0E3D6F000E3E6F100E3F6F000E406FFE
:1017820050EC01F0010E0601836FF9C932FA670EBF
:101792000A01336F060E346FF4EC06F001010951B1
:1017A200090A1BE1930E0A013B6F060E3C6FBB0E4A
:1017B2003D6F010E3E6F100E3F6F000E406F50ECFA
:1017C20001F0010E0601836F05CA3BFA670E0A019A
:1017D2003C6F060E3D6FFAEC00F0010109510A0A56
:1017E2001BE1930E0A013B6F060E3C6FCC0E3D6F60
:1017F200010E3E6F100E3F6F000E406F50EC01F075
:10180200010E0601836F07CA3BFA670E0A013C6F9D
:10181200060E3D6FFAEC00F0010109510B0A3EE1A0
:10182200930E0A013B6F060E3C6FA30E3D6F010E35
:101832003E6F100E3F6F000E406F50EC01F0010E34
:101842000601836FE0C73BFA640E0A013C6F060E85
:101852003D6FFAEC00F00701E051070810E2680E54
:101862000A013B6F060E3C6FB40E3D6F010E3E6FD8
:10187200060E3F6F000E406F50EC01F00FD00A01D0
:10188200680E3B6F060E3C6FEB0E3D6F010E3E6F16
:10189200060E3F6F000E406F50EC01F0010109513E
:1018A2000C0A3EE1930E0A013B6F060E3C6FF20EEC
:1018B2003D6F010E3E6F100E3F6F000E406F50ECF9
:1018C20001F0010E0601836FFAC73BFA640E0A01AA
:1018D2003C6F060E3D6FFAEC00F00701FA51070863
:1018E20010E2680E0A013B6F060E3C6FDD0E3D6F83
:1018F200010E3E6F060E3F6F000E406F50EC01F07E
:101902000FD00A01680E3B6F060E3C6FE40E3D6F6E
:10191200010E3E6F060E3F6F000E406F50EC01F05D
:10192200010109510D0A1BE1930E0A013B6F060EDC
:101932003C6F920E3D6F010E3E6F100E3F6F000E18
:10194200406F50EC01F0010E0601836F09CA32FAB2
:10195200670E0A01336F060E346FF4EC06F00101D4
:1019620009510E0A1BE1930E0A013B6F060E3C6FF2
:101972003D0E3D6F010E3E6F100E3F6F000E406F29
:1019820050EC01F0010E0601836F0ACA32FA670EAB
:101992000A01336F060E346FF4EC06F001010951AF
:1019A2000F0A1BE1930E0A013B6F060E3C6F4E0EAF
:1019B2003D6F010E3E6F100E3F6F000E406F50ECF8
:1019C20001F0010E0601836FFFC932FA670E0A01A8
:1019D200336F060E346FF4EC06F001010951100A60
:1019E2001DE1930E0A013B6F060E3C6F1B0E3D6F0D
:1019F200010E3E6F100E3F6F000E406F50EC01F073
:101A0200010E0601836FECC932FAEDC933FA650E95
:101A12000A01346F060E356F0CEC08F00101095112
:101A2200110A12E1930E0A013B6F060E3C6F2C0E57
:101A32003D6F010E3E6F100E3F6F000E406F50EC77
:101A420001F0010E0601836F01010951120A35E10D
:101A5200930E0A013B6F060E3C6F790E3D6F010E2D
:101A62003E6F100E3F6F000E406F50EC01F0010E02
:101A72000601836F09015F51000A10E1670E0A0136
:101A82003B6F060E3C6F8A0E3D6F010E3E6F070ED6
:101A92003F6F000E406F50EC01F00FD00A01670E4D
:101AA2003B6F060E3C6F5F0E3D6F010E3E6F080EE0
:101AB2003F6F000E406F50EC01F001010951130A13
:101AC20035E1930E0A013B6F060E3C6F680E3D6FC7
:101AD200010E3E6F100E3F6F000E406F50EC01F092
:101AE200010E0601836F09015C51000A10E1670EC5
:101AF2000A013B6F060E3C6F720E3D6F040E3E6F85
:101B0200070E3F6F000E406F50EC01F00FD00A013C
:101B1200670E3B6F060E3C6F7A0E3D6F040E3E6FF2
:101B2200080E3F6F000E406F50EC01F001010951A9
:101B3200140A35E1930E0A013B6F060E3C6F590EF3
:101B42003D6F040E3E6F100E3F6F000E406F50EC63
:101B520001F0010E0601836F09015D51000A10E1D7
:101B6200670E0A013B6F060E3C6F6A0E3D6F040E54
:101B72003E6F070E3F6F000E406F50EC01F00FD02A
:101B82000A01670E3B6F060E3C6F940E3D6F040E0A
:101B92003E6F080E3F6F000E406F50EC01F00101E6
:101BA2000951150A33E1930E0A013B6F060E3C6F91
:101BB2009D0E3D6F040E3E6F100E3F6F000E406F84
:101BC20050EC01F0010E0601836F0A010B51000A6D
:101BD2000FE1670E3B6F060E3C6F830E3D6F040EE6
:101BE2003E6F070E3F6F000E406F50EC01F00ED0BB
:101BF200670E3B6F060E3C6F8B0E3D6F040E3E6F01
:101C0200080E3F6F000E406F50EC01F001010951C8
:101C1200160A33E1930E0A013B6F060E3C6F480E23
:101C22003D6F040E3E6F100E3F6F000E406F50EC82
:101C320001F0010E0601836F0A010051000A0FE153
:101C4200670E3B6F060E3C6F240E3D6F040E3E6F17
:101C5200070E3F6F000E406F50EC01F00ED0670E82
:101C62003B6F060E3C6F2C0E3D6F040E3E6F080E4E
:101C72003F6F000E406F50EC01F001010951170A4D
:101C82001BE1930E0A013B6F060E3C6F020E3D6F85
:101C9200040E3E6F100E3F6F000E406F50EC01F0CD
:101CA200010E0601836FFEC932FA670E0A01336F15
:101CB200060E346FF4EC06F001010951180A12E124
:101CC200930E0A013B6F060E3C6F130E3D6F040E1E
:101CD2003E6F100E3F6F000E406F50EC01F0010E90
:101CE2000601836F01010951190A12E1930E0A01DB
:101CF2003B6F060E3C6F360E3D6F040E3E6F100EAC
:101D02003F6F000E406F50EC01F0010E0601836F31
:081D1200650E07011A6F1200B3
:101D1A00010E0A012425E96E000E2521EA6EEECF96
:101D2A00FDF924CAE9FF25CAEAFFEECFFCF92651DC
:101D3A00020AD8A485D0030E2425E96E000E2521B7
:101D4A00EA6EEECF5EF9020E2425E96E000E252119
:101D5A00EA6EEECFF8F9040E2425E96E000E25216D
:101D6A00EA6E080E2425D96E000E2521DA6EDE50A1
:101D7A00EE24036E046A000E042203C000F004C0BD
:101D8A0001F001320032019E01BC018E00C0F7F958
:101D9A00050E2425E96E000E2521EA6E090E24257A
:101DAA00D96E000E2521DA6EDE50EE24036E046A27
:101DBA00000E042203C000F004C001F00132003218
:101DCA00019E01BC018E00C0FBF9060E2425E96EB6
:101DDA00000E2521EA6E0A0E2425D96E000E252151
:101DEA00DA6EDE50EE24036E046A000E042203C08B
:101DFA0000F004C001F001320032019E01BC018EE4
:101E0A0000C0FAF9070E2425E96E000E2521EA6EB4
:101E1A000B0E2425D96E000E2521DA6EDE50EE2433
:101E2A00036E046A000E042203C000F004C001F02D
:101E3A0001320032019E01BC018E00C0F9F924D0A2
:101E4A0009015E6BF86B040E0A012425E96E000E87
:101E5A002521EA6EEECFF7F9050E2425E96E000E6C
:101E6A002521EA6EEECFFBF9060E2425E96E000E57
:101E7A002521EA6EEECFFAF9070E2425E96E000E47
:0E1E8A002521EA6EEECFF9F931EC07F01200D7
:101E98000A01246B140E245D4BE2070E006E000E3F
:101EA800016E24CA04F0000E056E22EC06F0600EE6
:101EB8000026090E0122050E0024E96E000E0120FD
:101EC800EA6EEE50000A32E1070E006E000E016E57
:101ED80024CA04F0000E056E22EC06F0600E002401
:101EE800E96E090E0120EA6EEECF01F00150090AF1
:101EF8001DE1070E006E000E016E24CA04F0000EEC
:101F0800056E22EC06F0600E0026090E0122010E75
:101F18000024E96E000E0120EA6EEECF25FAEECF1E
:101F280026FAEECF27FAEECF28FA02D0242BB2D722
:101F3800140E245D02E3246B05D00501BB510A0190
:0A1F4800255D246F24CA00F012008A
:101F5200140E0901FD6F140EFC6F140E5E6F140E49
:101F6200F86F070E0701E06F020E0A01096F070EF4
:101F72000701FA6F020E0A010A6F070E3B6F020E8B
:101F82003C6F070E3D6F020E3E6FC1EC01F00A0E70
:101F92000901FB6F040EF76F0A0EF96F040EFA6F58
:101FA2000C0EFF6FEC6BED6B0A01006B09015F6BAE
:101FB2005C6BFE6B5D6B0A010B6B31EC07F0120080
:101FC2000A012451000A04E02551000A01E002D06E
:101FD200F28801D0F29824CA33F725CAB7F6120064
:101FE2000A012451010A17E125B102D0829201D0DF
:101FF2008282060E0B6E130E0C6EAD0E0D6E0D2E42
:10200200FED70C2EFCD70B2EFAD700000000010ED3
:102012000801D46F81860A012451020A17E125B111
:1020220002D0829001D08280060E0B6E130E0C6ECF
:10203200AD0E0D6E0D2EFED70C2EFCD70B2EFAD741
:0E20420000000000010E0801D56F8188120019
:102050000A012451010A05E108019A6B9B6B0901F1
:10206000F3910A012451020A05E10801986B996B6A
:062070000901F3931200C8
:102076000A01256B140E255D44E2070E006E000E64
:10208600016E25CA04F0000E056E22EC06F0600E05
:102096000026090E0122050E0024E96E000E01201D
:1020A600EA6EEE50000A2BE1070E006E000E016E7E
:1020B60025CA04F0000E056E22EC06F0600E002420
:1020C600E96E090E0120EA6EEECF01F001502419E7
:1020D60016E0070E006E000E016E25CA04F0000E13
:1020E600056E22EC06F0600E0026090E0122050E92
:1020F6000024E16E000E0120E26E010EE66E252B35
:04210600B9D7120033
:10210A000A01246B140E245D53E2070E006E000EC2
:10211A00016E24CA04F0000E056E22EC06F0600E71
:10212A000026090E0122050E0024E96E000E012088
:10213A00EA6EEE50000A3AE1070E006E000E016EDA
:10214A0024CA04F0000E056E22EC06F0600E00248C
:10215A00E96E090E0120EA6EEECF01F00150090A7C
:10216A0025E1070E006E000E016E24CA04F0000E6F
:10217A00056E22EC06F0600E0026090E0122010E01
:10218A000024E96E000E0120EA6EEECF25FAEECFAA
:10219A0026FAEECF27FAEECF28FA050E0024E16ED2
:1021AA00000E0120E26E010EE66E02D0242BAAD7A1
:1021BA000501BB510A01255D016E01C024FA140E06
:0C21CA00015CD8B0246B24CA00F01200A5
:1021D6000A01246B256B2551120802E124518E0851
:1021E60009E34FEC06F0005201E004D00A01244B4B
:1021F600252BF1D70A01120E255D02E18F0E245D13
:1022060003E37B0E006E05D0C580C5A001D0FDD7C7
:04221600006A120048
:10221A00C26A070EC012C08E24CA00F000360090AF
:10222A00003600900050C212C2804AEC06F0C28208
:10223A00C2A201D0FDD7C4CF01F0006AC350001278
:08224A00000E0112C290120007
:04225200C58412002D
:102256000A011D6B83A81D8183AA1D831DCA00F078
:02226600120064
:102268000A01216B226B1D51010A03E11E51800FE7
:10227800226F1D51020A03E11E51C00F226FA7DF12
:102288007C0E0A01246FC7EC09F0800E0A01246F46
:10229800C7EC09F022CA24FAC7EC09F0400E0A017B
:1022A800246FC7EC09F00A0121511F25E96E000EC1
:1022B8002021EA6EEE500A0A10E0215110080DE3C1
:1022C80021511F25E96E000E2021EA6EEECF24FA77
:1022D800C7EC09F00A01212BE6D7B7DF0D0E0C6E0B
:1022E800FB0E0D6E0D2EFED70C2EFCD70000000045
:0222F8001200D2
:1022FA000A01216B050E215D0AE221511F25E16EBB
:10230A00000E2021E26E300EE66E212BF3D721510A
:10231A001F25E16E000E2021E26EE66A2107000EFB
:10232A001E1902E1000E1D192CE021511F25226FF2
:10233A00000E2021236F0A0E046E000E056E1DCAC0
:10234A0000F01ECA01F0C4EC00F008C000F009C099
:10235A0001F0300E002622CAE1FF23CAE2FF00C0C4
:10236A00E6FF21070A0E046E000E056E1DCA00F074
:10237A001ECA01F0C4EC00F000C01DFA01C01EFA2A
:04238A00CED7120098
:10238E000A011E6B83BA02D01E8101D01E9184B049
:10239E0002D01E8301D01E9383B802D01E8501D0B9
:1023AE001E95050E0501315D02E20A011E6B0A0142
:1023BE001E51000A20E105013251000A09E109010E
:1023CE00456B446B0501326B0A011D6B0901466BAF
:1023DE0005013251010A0FE1050E0401CF5D0BE339
:1023EE000901456B446B0501326B0A011D6B090136
:1023FE00466B0501316B09014551010A0EE10401DD
:10240E000151CA5D0AE3010E0901466F0401CA6B50
:10241E00190E0901445DD8A0442B0A011E51000A71
:10242E0026E005013251010A22E109014551000A57
:10243E001EE1020E3E25016E000E3F21026E000EC1
:10244E004021036E000E4121046E0501BE51041899
:10245E0008E1BD51031805E1BC51021802E1BB5160
:10246E00011805E1010E0901456F0401CA6B0A014D
:10247E001E51000A0AE005013251010A06E1090166
:10248E004551000A02E10A011D6B0A011E51000AA4
:10249E000FE005013251010A0BE109014551010A14
:1024AE0007E10A011E5109014603F3CF1DFA466BDF
:1024BE000A011E51000A12E005013251000A0EE116
:1024CE001ECA1DFA010E326FBBC53EF9BCC53FF9DF
:1024DE00BDC540F9BEC541F90401CF6B0A011D51BE
:1024EE00000A03E0010E0701FB6F1DCA00F0120087
:1024FE000A011D6B050133B103D00A011D9102D0F3
:10250E000A011D81050134B103D00A011D9302D0C9
:10251E000A011D830501336B346B140E07011A5D1E
:10252E0015E20A011DB106D00901EEB503D00A016C
:10253E001D9102D00A011D811DB306D00901EEB115
:10254E0003D00A011D9302D00A011D831DCA00F09B
:02255E00120069
:1025600083A003D083A201D006D00401CB5164081C
:10257000D8B0CB2B02D00401CB6BCB51640805E261
:1025800083B003D0010E006E09D0CB51640805E280
:0E25900083B203D0020E006E01D0006A12006A
:10259E00680E0901016F010E026F420E036F0A0EE3
:1025AE00046FFF0E0801F76FFF0EF86F000EF96F44
:1025BE00000EFA6FFF0EFB6FFF0EFC6F000EFD6F2D
:1025CE00000EFE6FFF0EF36FFF0EF46F000EF56F31
:1025DE00000EF66FAC8A900EAB6E948E949C9EAAF3
:0A25EE0003D0AECF00F0FBD71200BF
:1025F8000901EEA302D00501302B05013051010A73
:1026080020E1930E0A013B6F060E3C6FF00E3D6F02
:10261800040E3E6F100E3F6F000E406F50EC01F03D
:10262800610E3B6F060E3C6F000E3D6F050E3E6F50
:10263800100E3F6F000E406F50EC01F0010E0601C6
:10264800836F05013051020A20E1930E0A013B6FA6
:10265800060E3C6F100E3D6F050E3E6F100E3F6F5D
:10266800000E406F50EC01F0610E3B6F060E3C6FA0
:10267800200E3D6F050E3E6F100E3F6F000E406F2F
:1026880050EC01F0010E0601836F05013051030A79
:0A26980003E1640E07011A6F12003F
:1026A20099DD7C0E0A01246FC7EC09F0800E0A0145
:1026B200246FC7EC09F00A011D51020A04E1380E29
:1026C200246FC7EC09F00A011D51010A04E1340E1E
:1026D200246FC7EC09F0800E0A01246FC7EC09F0E1
:1026E2000A011D51020A04E1390E246FC7EC09F0F8
:1026F2000A011D51010A04E1350E246FC7EC09F0ED
:10270200800E0A01246FC7EC09F01C0E0A01246F27
:10271200C7EC09F0800E0A01246FC7EC09F0720EB3
:102722000A01246FC7EC09F0800E0A01246FC7EC7E
:1027320009F0550E0A01246FC7EC09F0800E0A0158
:10274200246FC7EC09F06C0E0A01246FC7EC09F084
:10275200800E0A01246FC7EC09F00C0E0A01246FE7
:10276200C7EC09F0800E0A01246FC7EC09F0010ED4
:102772000A01246FC7EC09F0800E0A01246FC7EC2E
:1027820009F0060E0A01246FC7EC09F0800E0A0157
:10279200246FC7EC09F0020E0A01246FC7EC09F09E
:0427A20057DD1200ED
:1027A600949894968B988B9694889486C79EC79C8B
:0627B600380EC66E120091
:1027BC000A011E6B1F6B3F0E1D15026E02C01DFA27
:1027CC00540E1E6F02C000F00032009E0032009EBC
:1027DC000032009E0032009E540E00101E6F700ED0
:1027EC001F6F0F0E0214006E700E00101F6FEDDCC9
:1027FC007C0E0A01246FC7EC09F0800E0A01246FCD
:10280C00C7EC09F01ECA24FAC7EC09F0800E0A01C5
:10281C00246FC7EC09F01FCA24FAC7EC09F013DDCA
:10282C000D0E0C6EFB0E0D6E0D2EFED70C2EFCD766
:06283C0000000000120084
:102842000901EEA10BD001010951000A03E1190EA1
:10285200096F01D00907640E07011A6F0901EEA57D
:102862000AD001010951190A02E1096B01D0092BB1
:10287200640E07011A6F0901EEA303D0660E070169
:102882001A6F0901EE51050A28E1930E0A013B6F06
:10289200060E3C6FD00E3D6F040E3E6F100E3F6F62
:1028A200000E406F50EC01F00501306B610E0A0121
:1028B2003B6F060E3C6FE00E3D6F040E3E6F100E36
:1028C2003F6F000E406F50EC01F0020E0601B56F33
:0C28D200010E836FFA0E07011A6F12004E
:1028DE00010E0401476F0901EEA322D00401476BDC
:1028EE000701C96B650E1A6F89EC0AF001010951D7
:1028FE00000A16E10A010C6B0001F751000A06E10D
:10290E00C80E07011A6F010E0401356F0001F75151
:10291E00010A06E1C90E07011A6F010E0401356F97
:10292E0001010951000A18E10901EEA109D00001C7
:10293E00F751000805E2F70789EC0AF0660E1A6FE8
:10294E000901EEA509D0010E0001F75D05E2F72B96
:10295E0089EC0AF0660E1A6F01010951010A16E19F
:10296E000901EEA108D0FD51000805E2FD0789EC32
:10297E000AF0660E1A6F0901EEA508D0FF0EFD5D76
:10298E0005E2FD2B89EC0AF0660E1A6F0101095162
:10299E00020A16E10901EEA108D05E51000805E217
:1029AE005E0789EC0AF0660E1A6F0901EEA508D0D3
:1029BE00FF0E5E5D05E25E2B89EC0AF0660E1A6F65
:1029CE0001010951030A16E10901EEA108D0FC51DB
:1029DE00000805E2FC0789EC0AF0660E1A6F090181
:1029EE00EEA508D0FF0EFC5D05E2FC2B89EC0AF08B
:1029FE00660E1A6F01010951040A16E10901EEA1D2
:102A0E0008D0F851000805E2F80789EC0AF0660EC6
:102A1E001A6F0901EEA508D0FF0EF85D05E2F82B3E
:102A2E0089EC0AF0660E1A6F01010951050A16E1CA
:102A3E000901EEA108D0F751000805E2F70789EC6D
:102A4E000AF0660E1A6F0901EEA508D0FF0EF75DAB
:102A5E0005E2F72B89EC0AF0660E1A6F0101095197
:102A6E00060A16E10901EEA108D0FB51000805E2A5
:102A7E00FB0789EC0AF0660E1A6F0901EEA508D065
:102A8E00FF0EFB5D05E2FB2B89EC0AF0660E1A6F5A
:102A9E0001010951070A16E10901EEA108D0FA5108
:102AAE00000805E2FA0789EC0AF0660E1A6F0901B2
:102ABE00EEA508D0FF0EFA5D05E2FA2B89EC0AF0BE
:102ACE00660E1A6F01010951080A16E10901EEA1FD
:102ADE0008D0F951000805E2F90789EC0AF0660EF4
:102AEE001A6F0901EEA508D0FF0EF95D05E2F92B6C
:102AFE0089EC0AF0660E1A6F01010951090A24E1E8
:102B0E000901EEA111D0000E006E0A010651005C03
:102B1E0002E10551010808E2010E055F000E065B99
:102B2E0089EC0AF0660E1A6F0901EEA50DD0000EA3
:102B3E000A01065D02E10A0E055D06E2054B062B53
:102B4E0089EC0AF0660E1A6F010109510A0A24E196
:102B5E000901EEA111D0000E006E0A010851005CB1
:102B6E0002E10751010808E2010E075F000E085B43
:102B7E0089EC0AF0660E1A6F0901EEA50DD0000E53
:102B8E000A01085D02E10A0E075D06E2074B082BFB
:102B9E0089EC0AF0660E1A6F010109510B0A18E151
:102BAE000901EEA109D00701E051000805E2E00796
:102BBE0089EC0AF0660E1A6F0901EEA509D00F0E08
:102BCE000701E05D05E2E02B89EC0AF0660E1A6F54
:102BDE00010109510C0A18E10901EEA109D0070102
:102BEE00FA51000805E2FA0789EC0AF0660E1A6F30
:102BFE000901EEA509D00F0E0701FA5D05E2FA2BC9
:102C0E0089EC0AF0660E1A6F010109510D0A18E1DE
:102C1E000901EEA109D00A010951000805E20907D0
:102C2E0089EC0AF0660E1A6F0901EEA509D00A0E9C
:102C3E000A01095D05E2092B89EC0AF0660E1A6F8E
:102C4E00010109510E0A18E10901EEA109D00A018C
:102C5E000A51000805E20A0789EC0AF0660E1A6F9F
:102C6E000901EEA509D00A0E0A010A5D05E20A2B3A
:102C7E0089EC0AF0660E1A6F010109510F0A16E16E
:102C8E000901EEA108D0FF51000805E2FF0789EC0B
:102C9E000AF0660E1A6F0901EEA508D0FF0EFF5D51
:102CAE0005E2FF2B89EC0AF0660E1A6F010109513D
:102CBE00100A22E10901EEA110D0000E006EED51B6
:102CCE00005C02E1EC51000808E2010EEC5F000E20
:102CDE00ED5B89EC0AF0660E1A6F0901EEA50CD0B9
:102CEE00FD0EED5D02E1E80EEC5D06E2EC4BED2B28
:102CFE0089EC0AF0660E1A6F01010951110A22E1E0
:102D0E0007011A6B930E0A013B6F060E3C6F470EBE
:102D1E003D6F090E3E6F100E3F6F000E406F50EC70
:102D2E0001F0010E0601B56F0401476B0701C96B77
:102D3E00010E0601836F010E0401356FA9EC0FF031
:102D4E0031EC07F001010951120A16E10901EEA159
:102D5E0008D05F51000805E25F0789EC0AF0660EA5
:102D6E001A6F0901EEA508D0010E5F5D05E25F2B1B
:102D7E0089EC0AF0660E1A6F01010951130A16E169
:102D8E000901EEA108D05C51000805E25C0789EC50
:102D9E000AF0660E1A6F0901EEA508D0010E5C5DF1
:102DAE0005E25C2B89EC0AF0660E1A6F01010951DF
:102DBE00140A16E10901EEA108D05D51000805E2E2
:102DCE005D0789EC0AF0660E1A6F0901EEA508D0B0
:102DDE00010E5D5D05E25D2B89EC0AF0660E1A6F41
:102DEE0001010951150A18E10901EEA109D00A01E4
:102DFE000B51000805E20B0789EC0AF0660E1A6FFC
:102E0E000901EEA509D0010E0A010B5D05E20B2B9F
:102E1E0089EC0AF0660E1A6F01010951160A18E1C3
:102E2E000901EEA109D00A010051000805E20007D0
:102E3E0089EC0AF0660E1A6F0901EEA509D0010E93
:102E4E000A01005D05E2002B89EC0AF0660E1A6F8E
:102E5E0001010951170A1FE10901EEA10CD0FE5123
:102E6E00000809E2FE07FE51090AD8B4FE6B89EC90
:102E7E000AF0660E1A6F0901EEA50DD0FF0EFE5D6B
:102E8E000AE2FE2BFE51010A02E10A0EFE6F89ECE8
:102E9E000AF0660E1A6F01010951180A1CE1670E3D
:102EAE0007011A6F930E0A013B6F060E3C6F470E19
:102EBE003D6F090E3E6F100E3F6F000E406F50ECCF
:102ECE0001F00401476B010E0601B56F010E836F11
:102EDE00010E0401356F01010951190A1DE10701A7
:102EEE001A6B930E0A013B6F060E3C6F470E3D6F39
:102EFE00090E3E6F100E3F6F000E406F50EC01F04A
:102F0E000401476B010E0601B56F010E836F09ECCC
:0A2F1E0009F0010E0401356F1200E6
:102F28000A011D6B246B0DEC11F000C058F901C0AB
:102F380059F9010E0A01246F0DEC11F000C05AF97D
:102F480001C05BF90601B651000A03E108019A6B5A
:102F58009B6B07013251000A03E10801986B996BDA
:102F680007013351000A22E00801EC510901595DBB
:102F780004E10801EB510901585D0AE2FF0E08015E
:102F88009B5D02E1FA0E9A5D02E29A4B9B2B0DD0F3
:102F98000801000E006E9B51005C02E19A51000886
:102FA80004E2010E9A5F000E9B5B03D008019A6B46
:102FB8009B6B9B51EE5D02E19A51ED5D02E20A01C5
:102FC8001D810601B751000A22E00801E8510901F4
:102FD8005B5D04E10801E75109015A5D0AE2FF0E51
:102FE8000801995D02E1FA0E985D02E2984B992B6F
:102FF8000DD00801000E006E9951005C02E1985155
:10300800000804E2010E985F000E995B03D00801E6
:10301800986B996B9951EA5D02E19851E95D02E27A
:0A3028000A011D831DCA00F012000A
:10303200838E010E0601E66F010E0A01246F4DEC2C
:103042000AF0005233E0010E0A01246F010E256FCF
:10305200F1EC0FF02C0E0A01246F020E256F010E07
:10306200266FD1EC08F0839C930E0A013B6F060E8B
:103072003C6FA40E3D6F060E3E6F100E3F6F000EAA
:10308200406F50EC01F0610E3B6F060E3C6F720E0A
:103092003D6F060E3E6F100E3F6F000E406F50ECFC
:1030A20001F0010E0601836F010EB56F020E0A01D7
:1030B200246F4DEC0AF0005211E0020E0A01246F57
:1030C200010E256FF1EC0FF0030E0A01246F020EC0
:1030D200256F010E266FD1EC08F0839C0A0E0A01BF
:1030E200246F4DEC0AF0005211E0010E0601B66F9A
:1030F200010E0A01246F28EC10F0120E0A01246F4F
:10310200020E256F010E266FD1EC08F00B0E0A019C
:10311200246F4DEC0AF0005211E0010E0701326FEC
:10312200020E0A01246F28EC10F0590E0A01246FD6
:10313200020E256F010E266FD1EC08F0050E0A0172
:10314200246F4DEC0AF0005212E0010E0A01246FC6
:10315200B7C625FAE1EC0FF00601E56B6F0E0A0126
:10316200246F020E256F010E266FD1EC08F0060EB9
:103172000A01246F4DEC0AF0005212E033C724FA20
:10318200010E0A01256FE1EC0FF00701316B3B0ED6
:103192000A01246F020E256F010E266FD1EC08F092
:1031A200030E0A01246F4DEC0AF0005209E10601F8
:1031B200B651010A04E10901F3A101D001D012D0F4
:1031C200070105A10FD00591010E0A01246FFAEC47
:1031D20008F04A0E0A01246F020E256F010E266FB7
:1031E200D1EC08F0040E0A01246F4DEC0AF00052F3
:1031F20009E107013251010A04E10901F3A301D0F7
:1032020001D012D0070105A30FD00593020E0A01C7
:10321200246FFAEC08F04B0E0A01246F030E256F9F
:10322200010E266FD1EC08F00C0E0A01246F4DEC52
:103232000AF00052D8A4838C09015E51000A05E00D
:1032420005019451010A01E002D007010593030E22
:103252000501BA5DD8A0A4D00901F4A133D05F530F
:1032620031E0010E0A01246FFAEC08F0020E0A01A5
:10327200246FFAEC08F00601B66B0701326B050EFB
:103282001A6F5A0E0A01246F030E256F010E266F64
:10329200D1EC08F0090E0A01246F3BEC10F0930EFA
:1032A2003B6F060E3C6F830E3D6F050E3E6F100E98
:1032B2003F6F000E406F50EC01F0010E0601836F6C
:1032C200010EB56F0901F251000A32E0010E0A0146
:1032D200246FFAEC08F0020E0A01246FFAEC08F0EF
:1032E200050E07011A6F0601B66B0701326B1C0E41
:1032F2000A01246F030E256F010E266FD1EC08F030
:10330200090E0A01246F3BEC10F0930E3B6F060E80
:103312003C6F390E3D6F050E3E6F100E3F6F000E73
:10332200406F50EC01F0010E0601836F010EB56F84
:103332000901F551010A34E15C5332E0010E0A0140
:10334200246FFAEC08F0020E0A01246FFAEC08F07E
:10335200050E07011A6F0601B66B0701326B360EB6
:103362000A01246F030E256F010E266FD1EC08F0BF
:10337200090E0A01246F3BEC10F0930E3B6F060E10
:103382003C6F5B0E3D6F050E3E6F100E3F6F000EE1
:10339200406F50EC01F0010E0601836F010EB56F14
:1033A20007010551000AD8A4AED0000E0901ED199B
:1033B20002E1000EEC1919E0EC510501BB250A01EE
:1033C200246F0901ED510501BC210A01256F000E90
:1033D2000501BD210A01266F000E0501BE210A0169
:1033E200276F090E286FD8EC09F009015D5371E0CF
:1033F200010E0A01246F256BF1EC0FF0020E0A0197
:10340200246F256BF1EC0FF0010E0A01246FB7C691
:1034120025FAE1EC0FF00601B66BE56B33C724FA2F
:10342200010E0A01256FE1EC0FF00701326B316BDF
:10343200010E0501BB250A01246F000E0501BC2106
:103442000A01256F000E0501BD210A01266F000E3B
:103452000501BE210A01276F030E286FD8EC09F07F
:10346200010E0501BB250A01246F000E0501BC21D6
:103472000A01256F000E0501BD210A01266F000E0B
:103482000501BE210A01276F040E286FD8EC09F04E
:10349200010E0501BB250A01246F000E0501BC21A6
:1034A2000A01256F000E0501BD210A01266F000EDB
:1034B2000501BE210A01276F010E2427000E2523D4
:1034C200262327230D0E286FD8EC09F00701058566
:1034D2001AD0010E0501BB250A01246F000E050159
:1034E200BC210A01256F000E0501BD210A01266FCC
:1034F200000E0501BE210A01276F0D0E286FD8ECC0
:1035020009F0070105850D0E0A01246F4DEC0AF042
:1035120000522CE0020E07011A6F0601386B396B5C
:10352200090E0A01246F3BEC10F0930E3B6F060E5E
:103532003C6F270E3D6F060E3E6F100E3F6F000E62
:10354200406F50EC01F0610E3B6F060E3C6F720E45
:103552003D6F060E3E6F100E3F6F000E406F50EC37
:1035620001F0010E0601836F010EB56F07011A51BA
:10357200050A04E01A51060A01E030D00A01246B60
:103582003BEC10F0000E0901ED1902E1000EEC19FE
:1035920025E0EC510501BB250A01246F0901ED511B
:1035A2000501BC210A01256F000E0501BD210A019A
:1035B200266F000E0501BE210A01276F090E286F32
:1035C200D8EC09F006014F6B396B8F0E0A01246F9C
:0E35D200030E256F010E266FD1EC08F01200DB
:1035E000838E010E0601E66F010E0A01246F4DEC79
:1035F0000AF000520FE0010E0A01246F256BF1EC76
:103600000FF0DF0E0A01246F050E256F010E266FE5
:10361000D1EC08F0020E0A01246F4DEC0AF00052C2
:1036200031E0020E0A01246F256BF1EC0FF0D00E91
:103630000A01246F050E256F010E266FD1EC08F0EC
:10364000930E0A013B6F060E3C6FBF0E3D6F050ED9
:103650003E6F100E3F6F000E406F50EC01F0610E98
:103660003B6F060E3C6F720E3D6F060E3E6F100EE6
:103670003F6F000E406F50EC01F0010E0601836FAA
:10368000010EB56F0A0E0A01246F4DEC0AF00052CC
:1036900011E0010E0601B66F010E0A01246F28EC3D
:1036A00010F0120E0A01246F060E256F010E266F10
:1036B000D1EC08F00B0E0A01246F4DEC0AF0005219
:1036C00011E0010E0701326F020E0A01246F28EC8F
:1036D00010F0FD0E0A01246F050E256F010E266FF6
:1036E000D1EC08F0050E0A01246F4DEC0AF00052EF
:1036F00013E0010E0A01246FB7C625FAE1EC0FF0C2
:103700000601B66BE56BEE0E0A01246F050E256F00
:10371000010E266FD1EC08F0070E0A01246F4DEC64
:103720000AF0005213E00A01246BB7C625FAE1EC57
:103730000FF00601B66B010EE56FD60E0A01246F7D
:10374000080E256F010E266FD1EC08F0060E0A0157
:10375000246F4DEC0AF0005212E033C724FA010E38
:103760000A01256FE1EC0FF00701316BB40E0A017D
:10377000246F080E256F010E266FD1EC08F0080E9D
:103780000A01246F4DEC0AF0005212E033C724FA0C
:103790000A01256BE1EC0FF0010E0701316FC30E3A
:1037A0000A01246F080E256F010E266FD1EC08F078
:1037B000030E0A01246F4DEC0AF0005210E00801DC
:1037C0004991010E0A01246FFAEC08F08B0E0A01F0
:1037D000246F080E256F010E266FD1EC08F0040E41
:1037E0000A01246F4DEC0AF0005210E008014993E1
:1037F000020E0A01246FFAEC08F04A0E0A01246F47
:10380000080E256F010E266FD1EC08F00601B651A7
:10381000010A39E10901F3A136D00601E551000A98
:1038200032E1010E0A01246FFAEC08F0020E0A01DF
:10383000246FFAEC08F0060E07011A6F0601B66B4A
:103840000701326B680E0A01246F080E256F010E06
:10385000266FD1EC08F0090E0A01246F3BEC10F042
:10386000930E3B6F060E3C6F500E3D6F060E3E6F83
:10387000100E3F6F000E406F50EC01F0010E06017C
:10388000836F010EB56F07013251010A39E1090159
:10389000F3A336D007013151000A32E1010E0A01CB
:1038A000246FFAEC08F0020E0A01246FFAEC08F01B
:1038B000060E07011A6F0601B66B0701326B570E31
:1038C0000A01246F080E256F010E266FD1EC08F057
:1038D000090E0A01246F3BEC10F0930E3B6F060EAD
:1038E0003C6F500E3D6F060E3E6F100E3F6F000E88
:1038F000406F50EC01F0010E0601836F010EB56FB1
:1039000009015E51000A05E005019451010A01E038
:1039100002D008014993030E0501BA5DD8A0A4D0D6
:103920000901F4A133D0010E0A01246FFAEC08F06A
:10393000020E0A01246FFAEC08F00601B66B0701CB
:10394000326B060E1A6F010E08018A6F790E0A019A
:10395000246F080E256F010E266FD1EC08F00A01C6
:10396000246B3BEC10F0930E3B6F060E3C6F830E06
:103970003D6F050E3E6F100E3F6F000E406F50EC16
:1039800001F0010E0601836F010EB56F0901F551BB
:10399000020A34E15C5332E0010E0A01246FFAECB2
:1039A00008F0020E0A01246FFAEC08F0060E070177
:1039B0001A6F0601B66B0701326B0E0E0A01246FF7
:1039C000080E256F010E266FD1EC08F0090E0A01D2
:1039D000246F3BEC10F0930E3B6F060E3C6F5B0EBA
:1039E0003D6F050E3E6F100E3F6F000E406F50ECA6
:1039F00001F0010E0601836F010EB56F0901F2514E
:103A0000000A32E0010E0A01246FFAEC08F0020EFF
:103A10000A01246FFAEC08F0060E07011A6F06017E
:103A2000B66B0701326BFC0E0A01246F070E256F7F
:103A3000010E266FD1EC08F0090E0A01246F3BEC51
:103A400010F0930E3B6F060E3C6F390E3D6F050E66
:103A50003E6F100E3F6F000E406F50EC01F0010EF4
:103A60000601836F010EB56F08014951000AD8A401
:103A7000A6D00A010B53D8B488D0010E246F010ED2
:103A8000256FF1EC0FF0010E0501BB250A01246F33
:103A9000000E0501BC210A01256F000E0501BD21A4
:103AA0000A01266F000E0501BE210A01276F0E0EC6
:103AB000286FD8EC09F0010E246FB7C625FAE1ECA7
:103AC0000FF00601B66BE56B33C724FA010E0A014D
:103AD000256FE1EC0FF00701326B316B010E050130
:103AE000BB250A01246F000E0501BC210A01256FC8
:103AF000000E0501BD210A01266F000E0501BE2141
:103B00000A01276F030E286FD8EC09F0010E05019A
:103B1000BB250A01246F000E0501BC210A01256F97
:103B2000000E0501BD210A01266F000E0501BE2110
:103B30000A01276F010E2427000E252326232723A1
:103B4000040E286FD8EC09F0010E0501BB250A010F
:103B5000246F000E0501BC210A01256F000E05012E
:103B6000BD210A01266F000E0501BE210A01276F43
:103B7000010E2427000E2523262327230D0E286F50
:103B8000D8EC09F0080149851AD0010E0501BB25C2
:103B90000A01246F000E0501BC210A01256F000EE9
:103BA0000501BD210A01266F000E0501BE210A0193
:103BB000276F0D0E286FD8EC09F0080149850E0E0D
:103BC0000A01246F4DEC0AF0005207E0020E0A01D0
:103BD000246F010E256FF1EC0FF00D0E0A01246F1A
:103BE0004DEC0AF000522CE0010E07011A6F06019D
:103BF000386B396B090E0A01246F3BEC10F0930E01
:103C00003B6F060E3C6F380E3D6F080E3E6F100E78
:103C10003F6F000E406F50EC01F0610E3B6F060EDF
:103C20003C6F720E3D6F060E3E6F100E3F6F000E22
:103C3000406F50EC01F0010E0601836F010EB56F6D
:103C400007011A51050A04E01A51060A01E032D0B0
:103C50000A01246B3BEC10F0000E0901ED1902E1A2
:103C6000000EEC1927E00601396B0901EC51050142
:103C7000BB250A01246F0901ED510501BC210A0190
:103C8000256F000E0501BD210A01266F000E0501FA
:103C9000BE210A01276F090E286FD8EC09F0060132
:103CA0004F6B230E0A01246F080E256F010E266F3D
:063CB000D1EC08F0120047
:103CB6000901EEA326D0010E07011A6F839E930E0B
:103CC6000A013B6F060E3C6F270E3D6F060E3E6FD8
:103CD600100E3F6F000E406F50EC01F0610E3B6F0F
:103CE600060E3C6F9F0E3D6F080E3E6F100E3F6F27
:103CF600000E406F50EC01F0020E0601B56F010E8A
:103D0600836FF1D1838E0901F2A107D0020E006FF5
:103D16000A010C2B010E0701FB6F0901F2A308D063
:103D2600010E006F030E0A010C6F010E0701FB6FF7
:103D36000601B66B0701326B0ED2020E0A01246F22
:103D4600256BF1EC0FF0060E0501BB250A01246F69
:103D5600000E0501BC210A01256F000E0501BD21DB
:103D66000A01266F000E0501BE210A01276F150EF6
:103D7600286FD8EC09F00C2BEED10901F3A30CD077
:103D860007013251010A08E1326B020E0A01246F63
:103D9600FAEC08F00A010C2B0A01150E246F4DEC03
:103DA6000AF0005203E0010E0701326FD4D1010E72
:103DB6000A01246F256BF1EC0FF0060E0501BB25F9
:103DC6000A01246F000E0501BC210A01256F000EB1
:103DD6000501BD210A01266F000E0501BE210A015B
:103DE600276F140E286FD8EC09F00C2B0901F3A1EC
:103DF6000CD00601B651010A08E1B66B010E0A01A4
:103E0600246FFAEC08F00A010C2B0A01140E246F39
:103E16004DEC0AF0005203E0010E0601B66F9BD18D
:103E2600BBC52DF9BCC52EF9BDC52FF9BEC530F9E8
:103E3600010E0A01246F010E256FF1EC0FF0060E3C
:103E46000501BB250A01246F000E0501BC210A01EC
:103E5600256F000E0501BD210A01266F000E050122
:103E6600BE210A01276F140E286FD8EC09F00C2B1F
:103E760072D10901F3A11BD00601B651010A17E15F
:103E8600B66B010E0A01246FFAEC08F00901005125
:103E9600010A04E10B0E0A010C6F02D00A010C2B79
:103EA60009012D510501BB5D006E00C021F9140EFC
:103EB6000A01246F4DEC0AF0005203E0010E0601E0
:103EC600B66F49D1BBC52DF9BCC52EF9BDC52FF9B5
:103ED600BEC530F9020E0A01246F010E256FF1EC02
:103EE6000FF0060E0501BB250A01246F000E050121
:103EF600BC210A01256F000E0501BD210A01266FAE
:103F0600000E0501BE210A01276F150E286FD8EC99
:103F160009F00C2B20D10901F3A313D0070132516C
:103F2600010A0FE1326B020E0A01246FFAEC08F067
:103F36000A010C2B09012D510501BB5D006E00C065
:103F460023F9150E0A01246F4DEC0AF0005203E026
:103F5600010E0701326FFFD0BBC52DF9BCC52EF986
:103F6600BDC52FF9BEC530F9020E0A01246F256BB7
:103F7600F1EC0FF0060E0501BB250A01246F000EB9
:103F86000501BC210A01256F000E0501BD210A01AC
:103F9600266F000E0501BE210A01276F150E286F38
:103FA600D8EC09F00C2BD7D00901F3A313D00701E5
:103FB6003251010A0FE1326B020E0A01246FFAEC4C
:103FC60008F00A010C2B09012D510501BB5D006E9D
:103FD60000C022F9150E0A01246F4DEC0AF00052BA
:103FE60003E0010E0701326FB6D0BBC52DF9BCC583
:103FF6002EF9BDC52FF9BEC530F9010E0A01246F91
:10400600256BF1EC0FF0060E0501BB250A01246FA6
:10401600000E0501BC210A01256F000E0501BD2118
:104026000A01266F000E0501BE210A01276F140E34
:10403600286FD8EC09F00C2B8ED00901F3A113D010
:104046000601B651010A0FE1B66B010E0A01246F93
:10405600FAEC08F00A010C2B09012D510501BB5D94
:10406600006E00C020F9140E0A01246F4DEC0AF010
:10407600005203E0010E0601B66F6DD0200E0A0154
:10408600246F090E256F49EC08F0200E246F090EE7
:10409600256F00C926FA8DEC0EF0930E0A013B6FD0
:1040A600060E3C6F960E3D6F070E3E6F100E3F6F6D
:1040B600000E406F50EC01F0610E3B6F060E3C6F38
:1040C600850E3D6F070E3E6F100E3F6F000E406F60
:1040D60050EC01F0020E0601B56F010E836F839E50
:1040E60007011A6B38D00A010C51000AD8B40AD657
:1040F6000C51010AD8B421D60C51020AD8B43DD6C7
:104106000C51030AD8B453D60C51040AD8B46ED64F
:104116000C51050AD8B484D60C51060AD8B4A9D6CF
:104126000C51070AD8B4CED60C51080AD8B4F3D627
:104136000C51090AD8B410D70C510A0AD8B434D78E
:104146000C510B0AD8B451D70C510C0AD8B475D7F8
:084156000C510D0A93E0120068
:10415E00020E0A011D6F839E0601E66B4CEC0FF0FA
:10416E0000500601391921E00701C96B4CEC0FF024
:10417E0000C039F600C024FA6C0E256F060E266FAD
:10418E006DEC0AF0610E3B6F060E3C6F680E3D6FD4
:10419E00070E3E6F0B0E3F6F000E406F50EC01F09E
:1041AE00010E0601836F020EB56F0901F251000A6E
:1041BE0009E1090E0A01246F4DEC0AF00050010AC4
:1041CE0001E0E0D10901F851000A05E00501945122
:1041DE00010A01E085D00A01246B3BEC10F01D5161
:1041EE000501BB25006E000EBC21016E000EBD2127
:1041FE00026E000EBE21036E00C001FA01C002FA6B
:10420E0002C003FA03C004FA00C024FA01C025FA62
:10421E0002C026FA03C027FA010E0A01286FD8EC55
:10422E0009F001CA24FA02CA25FA03CA26FA04CAF8
:10423E0027FA050E286FD8EC09F00601E56B060E7D
:10424E000501BB25006E000EBC21016E000EBD21C6
:10425E00026E000EBE21036E0A011D510026000ED5
:10426E0001220222032200C001FA01C002FA02C09A
:10427E0003FA03C004FA00C024FA01C025FA02C0F2
:10428E0026FA03C027FA0A0E286FD8EC09F00901A6
:10429E00FC510501BB25006E000EBC21016E000E07
:1042AE00BD21026E000EBE21036E0A011D510026B5
:1042BE00000E01220222032200C001FA01C002FAFE
:1042CE0002C003FA03C004FA00C024FA01C025FAA2
:1042DE0002C026FA03C027FA030E286FD8EC09F0A5
:1042EE000901F851000AD8B43FD105019451020AD0
:1042FE00D8A43AD1090E0A01246F3BEC10F01D51DF
:10430E000501BB25006E000EBC21016E000EBD2105
:10431E00026E000EBE21036E00C001FA01C002FA49
:10432E0002C003FA03C004FA00C024FA01C025FA41
:10433E0002C026FA03C027FA020E0A01286FD8EC33
:10434E0009F001CA24FA02CA25FA03CA26FA04CAD7
:10435E0027FA060E286FD8EC09F00601E56B060E5B
:10436E000501BB25006E000EBC21016E000EBD21A5
:10437E00026E000EBE21036E0A011D510026000EB4
:10438E0001220222032200C001FA01C002FA02C079
:10439E0003FA03C004FA00C024FA01C025FA02C0D1
:1043AE0026FA03C027FA0B0E286FD8EC09F0090184
:1043BE00FC510501BB25006E000EBC21016E000EE6
:1043CE00BD21026E000EBE21036E0A011D51002694
:1043DE00000E01220222032200C001FA01C002FADD
:1043EE0002C003FA03C004FA00C024FA01C025FA81
:1043FE0002C026FA03C027FA040E286FD8EC09F083
:10440E000901FF510501BB25006E000EBC21016E96
:10441E00000EBD21026E000EBE21036E0A011D515B
:10442E000026000E01220222032200C001FA01C062
:10443E0002FA02C003FA03C004FA00C024FA01C053
:10444E0025FA02C026FA03C027FA010E286FD8EC0F
:10445E0009F00901FF510501BB25006E000EBC21BC
:10446E00016E000EBD21026E000EBE21036E0A010A
:10447E001D510026000E01220222032200C001FA65
:10448E0001C002FA02C003FA03C004FA00C024FA03
:10449E0001C025FA02C026FA03C027FA050E286FBE
:1044AE00D8EC09F00701316B0901FF510501BB255D
:1044BE00006E000EBC21016E000EBD21026E000EBC
:1044CE00BE21036E060E0026000E012202220322DA
:1044DE000A011D510026000E01220222032200C0F5
:1044EE0001FA01C002FA02C003FA03C004FA00C0C6
:1044FE0024FA01C025FA02C026FA03C027FA0A0ED2
:10450E00286FD8EC09F00901F8510501BB25006EA2
:10451E00000EBC21016E000EBD21026E000EBE21EA
:10452E00036E0A011D510026000E012202220322F3
:10453E000901FF510026000E01220222032200C0B3
:10454E0001FA01C002FA02C003FA03C004FA00C065
:10455E0024FA01C025FA02C026FA03C027FA030E78
:10456E000A01286FD8EC09F0030E0801496F060105
:10457E00B66B0701326B0501BA6B06014F6B070E66
:10458E0007011A6F0901F4A117D0000EED1902E10F
:10459E00000EEC1911E006013851000A0DE1010E72
:1045AE00386F010E4F6FE10E0A01246F070E256F53
:1045BE00010E266FD1EC08F006013851010A15E103
:1045CE000901F4B112D0000EED1902E1000EEC1942
:1045DE000CE006014F6B386BCA0E0A01246F070EF2
:0C45EE00256F010E266FD1EC08F01200C2
:1045FA00030E0A011D6F839E0601E66B4CEC0FF059
:10460A0000500601391921E00701C96B4CEC0FF083
:10461A0000C039F600C024FA6C0E256F060E266F0C
:10462A006DEC0AF0610E3B6F060E3C6FD60E3D6FC5
:10463A00000E3E6F0B0E3F6F000E406F50EC01F004
:10464A00010E0601836F020EB56F0901F251000ACD
:10465A0004E108018A5301E149D108018A6B838E7A
:10466A00010E0601E66F0A01246B3BEC10F0010E05
:10467A000501BB250A01246F000E0501BC210A01B0
:10468A00256F000E0501BD210A01266F000E0501E6
:10469A00BE210A01276F0C0E286FD8EC09F01D51B4
:1046AA000501BB25006E000EBC21016E000EBD2166
:1046BA00026E000EBE21036E00C001FA01C002FAAA
:1046CA0002C003FA03C004FA00C024FA01C025FAA2
:1046DA0002C026FA03C027FA010E0A01286FD8EC95
:1046EA0009F001CA24FA02CA25FA03CA26FA04CA38
:1046FA0027FA050E286FD8EC09F00601E56B060EBD
:10470A000501BB25006E000EBC21016E000EBD2105
:10471A00026E000EBE21036E0A011D510026000E14
:10472A0001220222032200C001FA01C002FA02C0D9
:10473A0003FA03C004FA00C024FA01C025FA02C031
:10474A0026FA03C027FA0A0E286FD8EC09F00901E5
:10475A00FD510501BB25006E000EBC21016E000E45
:10476A00BD21026E000EBE21036E0A011D510026F4
:10477A00000E01220222032200C001FA01C002FA3D
:10478A0002C003FA03C004FA00C024FA01C025FAE1
:10479A0002C026FA03C027FA030E286FD8EC09F0E4
:1047AA0009015E51000AD8B491D005019451020A58
:1047BA00D8A48CD00901FF510501BB250A01246F39
:1047CA00000E0501BC210A01256F000E0501BD215D
:1047DA000A01266F000E0501BE210A01276F1D512D
:1047EA002427000E252326232723020E286FD8EC20
:1047FA0009F00901FF510501BB250A01246F000ECA
:10480A000501BC210A01256F000E0501BD210A011F
:10481A00266F000E0501BE210A01276F1D512427AC
:10482A00000E252326232723060E286FD8EC09F02D
:10483A000701316B0901FF510501BB250A01246FEC
:10484A00000E0501BC210A01256F000E0501BD21DC
:10485A000A01266F000E0501BE210A01276F060E06
:10486A002427000E2523262327231D512427000E43
:10487A002523262327230B0E286FD8EC09F00901DC
:10488A005E510501BB250A01246F000E0501BC21FA
:10489A000A01256F000E0501BD210A01266F000ECF
:1048AA000501BE210A01276F0901FF510A012427C8
:1048BA00000E2523262327231D512427000E2523F6
:1048CA0026232723040E286FD8EC09F0030E0701CC
:1048DA00056F0601B66B0701326B0601386B0501DD
:1048EA00BA6B06014F6B080E07011A6F090E0A010F
:1048FA00246F4DEC0AF00050010AD8A4E1D1090155
:10490A00F851000A05E005019451010A01E085D039
:10491A000A01246B3BEC10F01D510501BB25006E0A
:10492A00000EBC21016E000EBD21026E000EBE21DA
:10493A00036E00C001FA01C002FA02C003FA03C002
:10494A0004FA00C024FA01C025FA02C026FA03C0FC
:10495A0027FA010E0A01286FD8EC09F001CA24FAD5
:10496A0002CA25FA03CA26FA04CA27FA050E286FCC
:10497A00D8EC09F00601E56B060E0501BB25006EB1
:10498A00000EBC21016E000EBD21026E000EBE217A
:10499A00036E0A011D510026000E01220222032283
:1049AA0000C001FA01C002FA02C003FA03C004FA05
:1049BA0000C024FA01C025FA02C026FA03C027FA69
:1049CA000A0E286FD8EC09F00901FC510501BB2534
:1049DA00006E000EBC21016E000EBD21026E000E9B
:1049EA00BE21036E0A011D510026000E0122022279
:1049FA00032200C001FA01C002FA02C003FA03C08E
:104A0A0004FA00C024FA01C025FA02C026FA03C03B
:104A1A0027FA030E286FD8EC09F00901F851000AA9
:104A2A00D8B43ED105019451020AD8A439D10A0159
:104A3A00246B3BEC10F01D510501BB25006E000EE6
:104A4A00BC21016E000EBD21026E000EBE21036E56
:104A5A0000C001FA01C002FA02C003FA03C004FA54
:104A6A0000C024FA01C025FA02C026FA03C027FAB8
:104A7A00020E0A01286FD8EC09F001CA24FA02CA08
:104A8A0025FA03CA26FA04CA27FA060E286FD8ECB2
:104A9A0009F00601E56B060E0501BB25006E000E46
:104AAA00BC21016E000EBD21026E000EBE21036EF6
:104ABA000A011D510026000E01220222032200C013
:104ACA0001FA01C002FA02C003FA03C004FA00C0E4
:104ADA0024FA01C025FA02C026FA03C027FA0B0EEF
:104AEA00286FD8EC09F00901FC510501BB25006EBD
:104AFA00000EBC21016E000EBD21026E000EBE2109
:104B0A00036E0A011D510026000E01220222032211
:104B1A0000C001FA01C002FA02C003FA03C004FA93
:104B2A0000C024FA01C025FA02C026FA03C027FAF7
:104B3A00040E286FD8EC09F00901FF510501BB25C5
:104B4A00006E000EBC21016E000EBD21026E000E29
:104B5A00BE21036E0A011D510026000E0122022207
:104B6A00032200C001FA01C002FA02C003FA03C01C
:104B7A0004FA00C024FA01C025FA02C026FA03C0CA
:104B8A0027FA010E286FD8EC09F00901FF51050137
:104B9A00BB25006E000EBC21016E000EBD21026E07
:104BAA00000EBE21036E0A011D510026000E0122CD
:104BBA000222032200C001FA01C002FA02C003FA6B
:104BCA0003C004FA00C024FA01C025FA02C026FA7A
:104BDA0003C027FA050E286FD8EC09F00701316BDC
:104BEA000901FF510501BB25006E000EBC21016EB3
:104BFA00000EBD21026E000EBE21036E060E0026B7
:104C0A00000E0122022203220A011D510026000E73
:104C1A0001220222032200C001FA01C002FA02C0E4
:104C2A0003FA03C004FA00C024FA01C025FA02C03C
:104C3A0026FA03C027FA0A0E286FD8EC09F00901F0
:104C4A00F8510501BB25006E000EBC21016E000E55
:104C5A00BD21026E000EBE21036E0A011D510026FF
:104C6A00000E0122022203220901FF510026000E32
:104C7A0001220222032200C001FA01C002FA02C084
:104C8A0003FA03C004FA00C024FA01C025FA02C0DC
:104C9A0026FA03C027FA030E0A01286FD8EC09F096
:104CAA00030E0801496F0601B66B0701326B060154
:104CBA00386B0501BA6B06014F6B070E07011A6FB5
:104CCA000901F4A117D0000EED1902E1000EEC194A
:104CDA0011E006013851000A0DE1010E386F010E8C
:104CEA004F6FE20E0A01246F000E256F010E266F28
:104CFA00D1EC08F006013851010A15E10901F4B1B5
:104D0A0012D0000EED1902E1000EEC190CE00601BA
:104D1A004F6B386BAF0E0A01246F000E256F010E20
:084D2A00266FD1EC08F0120025
:104D3200838E010E0601E66F010E0A01246F4DEC0F
:104D42000AF000520FE0010E0A01246F256BF1EC0C
:104D52000FF0A40E0A01246F030E256F010E266FB9
:104D6200D1EC08F0020E0A01246F4DEC0AF0005259
:104D720031E0020E0A01246F256BF1EC0FF06B0E8D
:104D82000A01246F030E256F010E266FD1EC08F085
:104D9200930E0A013B6F060E3C6FBF0E3D6F050E70
:104DA2003E6F100E3F6F000E406F50EC01F0610E2F
:104DB2003B6F060E3C6F720E3D6F060E3E6F100E7D
:104DC2003F6F000E406F50EC01F0010E0601836F41
:104DD200010EB56F0A0E0A01246F4DEC0AF0005263
:104DE20011E0010E0601B66F010E0A01246F28ECD4
:104DF20010F07A0E0A01246F030E256F010E266F42
:104E0200D1EC08F00B0E0A01246F4DEC0AF00052AF
:104E120011E0010E0701326F020E0A01246F28EC25
:104E220010F0070E0A01246F030E256F010E266F84
:104E3200D1EC08F0050E0A01246F4DEC0AF0005285
:104E420012E0010E0A01246FB7C625FAE1EC0FF059
:104E52000601E56B9C0E0A01246F020E256F010EFE
:104E6200266FD1EC08F0060E0A01246F4DEC0AF011
:104E7200005212E033C724FA010E0A01256FE1EC59
:104E82000FF00701316BAB0E0A01246F020E256F82
:104E9200010E266FD1EC08F0030E0A01246F4DECCF
:104EA2000AF0005209E10601B651010A04E10901C2
:104EB200F3A101D001D012D0080149A10FD049912C
:104EC200010E0A01246FFAEC08F0820E0A01246F27
:104ED200020E256F010E266FD1EC08F0040E0A01B6
:104EE200246F4DEC0AF0005209E107013251010A28
:104EF20004E10901F3A301D001D012D0080149A3B2
:104F02000FD04993020E0A01246FFAEC08F08F0EBB
:104F12000A01246F020E256F010E266FD1EC08F0F4
:104F220009015E51000A05E005019451010A01E000
:104F320002D008014993030E0501BA5DD8A0A5D09D
:104F42000901F4A134D0010E0A01246FFAEC08F031
:104F5200020E0A01246FFAEC08F00601B66B070193
:104F6200326B060E1A6F010E08018A6FE40E0A01F7
:104F7200246F020E256F010E266FD1EC08F0090E88
:104F82000A01246F3BEC10F0930E3B6F060E3C6F50
:104F9200830E3D6F050E3E6F100E3F6F000E406F89
:104FA20050EC01F0010E0601836F010EB56F09018D
:104FB200F251000A32E0010E0A01246FFAEC08F005
:104FC200020E0A01246FFAEC08F0060E07011A6FAE
:104FD2000601B66B0701326BF50E0A01246F020E51
:104FE200256F010E266FD1EC08F0090E0A01246F1D
:104FF2003BEC10F0930E3B6F060E3C6F390E3D6F8B
:10500200050E3E6F100E3F6F000E406F50EC01F028
:10501200010E0601836F010EB56F0901F551020AF7
:1050220034E15C5332E0010E0A01246FFAEC08F01D
:10503200020E0A01246FFAEC08F0060E07011A6F3D
:105042000601B66B0701326BBA0E0A01246F020E1B
:10505200256F010E266FD1EC08F0090E0A01246FAC
:105062003BEC10F0610E3B6F060E3C6F5B0E3D6F2A
:10507200050E3E6F100E3F6F000E406F50EC01F0B8
:10508200010E0601836F010EB56F08014951000A36
:10509200D8A4A6D00A010B53D8B488D0010E246F2D
:1050A200010E256FF1EC0FF0010E0501BB250A017F
:1050B200246F000E0501BC210A01256F000E0501B7
:1050C200BD210A01266F000E0501BE210A01276FCC
:1050D2000E0E286FD8EC09F0010E246FB7C625FA20
:1050E200E1EC0FF00601B66BE56B33C724FA010E53
:1050F2000A01256FE1EC0FF00701326B316B010EF3
:105102000501BB250A01246F000E0501BC210A011D
:10511200256F000E0501BD210A01266F000E050153
:10512200BE210A01276F030E286FD8EC09F0010E89
:105132000501BB250A01246F000E0501BC210A01ED
:10514200256F000E0501BD210A01266F000E050123
:10515200BE210A01276F010E2427000E25232623D4
:105162002723040E286FD8EC09F0010E0501BB2598
:105172000A01246F000E0501BC210A01256F000EF1
:105182000501BD210A01266F000E0501BE210A019B
:10519200276F010E2427000E2523262327230D0E19
:1051A200286FD8EC09F0080149851AD0010E0501D3
:1051B200BB250A01246F000E0501BC210A01256FDF
:1051C200000E0501BD210A01266F000E0501BE2158
:1051D2000A01276F0D0E286FD8EC09F008014985E6
:1051E2000E0E0A01246F4DEC0AF0005207E0020E87
:1051F2000A01246F010E256FF1EC0FF00D0E0A016A
:10520200246F4DEC0AF000522CE0010E07011A6FD8
:105212000601386B396B090E0A01246F3BEC10F062
:10522200930E3B6F060E3C6F380E3D6F080E3E6FBD
:10523200100E3F6F000E406F50EC01F0610E3B6F9D
:10524200060E3C6F720E3D6F060E3E6F100E3F6FE4
:10525200000E406F50EC01F0010E0601836F010E4B
:10526200B56F07011A51050A04E01A51060A01E056
:1052720030D00A01246B3BEC10F0000E0901ED194D
:1052820002E1000EEC1925E0EC510501BB250A01F3
:10529200246F0901ED510501BC210A01256F000EA1
:1052A2000501BD210A01266F000E0501BE210A017A
:1052B200276F090E286FD8EC09F006014F6B396B86
:1052C200CF0E0A01246F020E256F010E266FD1EC5C
:0452D20008F01200CE
:1052D600020E0A011D6F839E0601E66B4CEC0FF071
:1052E60000500601391921E00701C96B4CEC0FF09B
:1052F60000C039F600C024FA6C0E256F060E266F24
:105306006DEC0AF0610E3B6F060E3C6FB70E3D6FFB
:10531600030E3E6F0B0E3F6F000E406F50EC01F018
:10532600010E0601836F020EB56F0901F251000AE4
:1053360008E1090E0A01246F4DEC0AF0005201E162
:10534600BAD30A01246B3BEC10F00901F851000AAC
:1053560005E005019451010A01E039D10A011D5108
:105366000501BB25006E000EBC21016E000EBD219D
:10537600026E000EBE21036E00C001FA01C002FAE1
:1053860002C003FA03C004FA00C024FA01C025FAD9
:1053960002C026FA03C027FA010E0A01286FD8ECCC
:1053A60009F00901FA51000A11E001CA24FA02CAF9
:1053B60025FA03CA26FA04CA27FA070E0A01286F35
:1053C600D8EC09F0010E0601E56F0FD001CA24FAE8
:1053D60002CA25FA03CA26FA04CA27FA050E0A01E2
:1053E600286FD8EC09F00601E56B0901FA510501B1
:1053F600BB25006E000EBC21016E000EBD21026EA3
:10540600000EBE21036E060E0026000E01220222A9
:1054160003220A011D510026000E01220222032248
:1054260000C001FA01C002FA02C003FA03C004FA7E
:1054360000C024FA01C025FA02C026FA03C027FAE2
:105446000A0E286FD8EC09F00901FA510501BB25AF
:10545600006E000EBC21016E000EBD21026E000E14
:10546600BE21036E0A011D510026000E01220222F2
:10547600032200C001FA01C002FA02C003FA03C007
:1054860004FA00C024FA01C025FA02C026FA03C0B5
:1054960027FA050E286FD8EC09F00901F951000A20
:1054A6002FE0FC510501BB25006E000EBC21016EEC
:1054B600000EBD21026E000EBE21036E0901F951D8
:1054C600005E000E015A025A035A0A011D510026B7
:1054D600000E01220222032200C001FA01C002FAD4
:1054E60002C003FA03C004FA00C024FA01C025FA78
:1054F60002C026FA03C027FA070E286FD8EC09F077
:105506000A010051000A3AE00901FC510501BB25D8
:10551600006E000EBC21016E000EBD21026E000E53
:10552600BE21036E0A011D510026000E0122022231
:10553600032200C001FA01C002FA02C003FA03C046
:1055460004FA00C024FA01C025FA02C026FA03C0F4
:1055560027FA050E286FD8EC09F0020E0125246FF4
:10556600000E0221256F000E0321266F000E042176
:10557600276F030E286FD8EC09F029D00901FC51DA
:105586000501BB25006E000EBC21016E000EBD217B
:10559600026E000EBE21036E0A011D510026000E8A
:1055A60001220222032200C001FA01C002FA02C04F
:1055B60003FA03C004FA00C024FA01C025FA02C0A7
:1055C60026FA03C027FA030E286FD8EC09F0090162
:1055D600F851000AD8B461D205019451020AD8A440
:1055E6005CD20A011D510501BB25006E000EBC21CF
:1055F600016E000EBD21026E000EBE21036E00C0BC
:1056060001FA01C002FA02C003FA03C004FA00C09C
:1056160024FA01C025FA02C026FA03C027FA020EB0
:105626000A01286FD8EC09F00901FA51000A11E0C5
:1056360001CA24FA02CA25FA03CA26FA04CA27FAB4
:10564600080E0A01286FD8EC09F0010E0701316F28
:105656000FD001CA24FA02CA25FA03CA26FA04CAD6
:1056660027FA060E0A01286FD8EC09F00701316BFC
:105676000901FA510501BB25006E000EBC21016E21
:10568600000EBD21026E000EBE21036E060E002620
:10569600000E0122022203220A011D510026000EDD
:1056A60001220222032200C001FA01C002FA02C04E
:1056B60003FA03C004FA00C024FA01C025FA02C0A6
:1056C60026FA03C027FA0B0E286FD8EC09F0090159
:1056D600FA510501BB25006E000EBC21016E000EBD
:1056E600BD21026E000EBE21036E0A011D51002669
:1056F600000E01220222032200C001FA01C002FAB2
:1057060002C003FA03C004FA00C024FA01C025FA55
:1057160002C026FA03C027FA060E286FD8EC09F055
:105726000901F951000A2FE0F8510501BB25006E69
:10573600000EBC21016E000EBD21026E000EBE21C0
:10574600036E0901F951005E000E015A025A035A0E
:105756000A011D510026000E01220222032200C06A
:1057660001FA01C002FA02C003FA03C004FA00C03B
:1057760024FA01C025FA02C026FA03C027FA080E49
:10578600286FD8EC09F00901F8510501BB25006E18
:10579600000EBC21016E000EBD21026E000EBE2160
:1057A600036E0A011D510026000E01220222032269
:1057B60000C001FA01C002FA02C003FA03C004FAEB
:1057C60000C024FA01C025FA02C026FA03C027FA4F
:1057D600040E286FD8EC09F00901FF510501BB251D
:1057E600006E000EBC21016E000EBD21026E000E81
:1057F600BE21036E0A011D510026000E012202225F
:10580600032200C001FA01C002FA02C003FA03C073
:1058160004FA00C024FA01C025FA02C026FA03C021
:1058260027FA010E286FD8EC09F00901FA51000A8F
:1058360011E001CA24FA02CA25FA03CA26FA04CAE2
:1058460027FA070E0A01286FD8EC09F0010E0601A7
:10585600E56F0FD001CA24FA02CA25FA03CA26FA4E
:1058660004CA27FA050E0A01286FD8EC09F00601CA
:10587600E56B0901FF510501BB25006E000EBC2139
:10588600016E000EBD21026E000EBE21036E0901DF
:10589600FA510026000E012202220322060E0026DD
:1058A600000E0122022203220A011D510026000ECB
:1058B60001220222032200C001FA01C002FA02C03C
:1058C60003FA03C004FA00C024FA01C025FA02C094
:1058D60026FA03C027FA0A0E286FD8EC09F0090148
:1058E600FF510501BB25006E000EBC21016E000EA6
:1058F600BD21026E000EBE21036E0901FA5100267B
:10590600000E0122022203220A011D510026000E6A
:1059160001220222032200C001FA01C002FA02C0DB
:1059260003FA03C004FA00C024FA01C025FA02C033
:1059360026FA03C027FA050E286FD8EC09F00901EC
:10594600F951000A35E0FF510501BB25006E000E36
:10595600BC21016E000EBD21026E000EBE21036E3B
:105966000901FC510026000E012202220322F951F0
:10597600005E000E015A025A035A0A011D51002602
:10598600000E01220222032200C001FA01C002FA1F
:1059960002C003FA03C004FA00C024FA01C025FAC3
:1059A60002C026FA03C027FA070E286FD8EC09F0C2
:1059B6000A010051000A41E00901FC510501BB251D
:1059C600006E000EBC21016E000EBD21026E000E9F
:1059D600BE21036E0901FF510026000E012202229C
:1059E60003220A011D510026000E01220222032273
:1059F60000C001FA01C002FA02C003FA03C004FAA9
:105A060000C024FA01C025FA02C026FA03C027FA0C
:105A1600050E286FD8EC09F0020E0125246F000E42
:105A26000221256F000E0321266F000E0421276F29
:105A3600030E286FD8EC09F030D00901FC5105019E
:105A4600BB25006E000EBC21016E000EBD21026E4C
:105A5600000EBE21036E0901FF510026000E012231
