:0400000008EF3DF0D8
:1000080000C019F001C018F004C017F008C016F0BD
:100018000CC015F0F2A430D00001832B8088010EAB
:10002800846F8251FF0A03E1826B866B01D0822BB9
:1000380002014351FF0A04E1436B0001856B02D0C2
:100048000201432B190E0001835D11E3836B010E3E
:1000580001010327000E0423052306237F52010E06
:10006800D8A4000E7F6E8098010E0001886FF30EF1
:10007800D76ECA0ED66EF294F0A017D00001865142
:10008800000A03E1862B826B01D0862B050E865D64
:100098000BE3130E825D07E38251150804E3010E9A
:1000A8008B6F866B01D0866BF090F0A21DD000019B
:1000B8008551000A04E1852B0201436B02D000013F
:1000C800852B0001050E855D0EE3130E0201435DCD
:1000D80008E34351150805E3010E00018C6F856B99
:1000E80002D00001856BF092F2A230D000018A2B79
:1000F8008A51FF0A02E1020E8A6F030E046E8AC05B
:1001080000F066D808C000F00050010A0EE1DF5385
:1001180005E0D85302E0818601D08196DD5305E0E1
:10012800DB5302E0818801D08198030E046E8AC0F7
:1001380000F04ED808C000F00050000A06E1DF5376
:1001480001E08186DD5301E08188F29219C000F058
:1001580018C001F017C004F016C008F015C00CF064
:02016800110084
:0E016A00ACB202D00000FCD7CFC5ADFF120032
:10017800CFC5C9FFC7B002D00000FCD7C9CF00F077
:02018800120063
:10018A00F250026EF29E0500FF6A0150FE6E0050A8
:08019A00FD6E02BEF28E1200A0
:1001A200086A096A100E0C6E0134083609360450CA
:1001B200085E0550D8A0053C095ED8B007D00450AF
:1001C20008260550D8B0053C0926D89000360136DD
:0601D2000C2EEAD712001A
:1001D800086A080E0C6E003408360450085ED8B061
:0E01E80002D00826D89000360C2EF5D7120053
:1001F600A6A202D00000FCD7A69CC9C5AAFFC8C506
:10020600A9FFCAC5A8FFA69EA684F2CF00F0F29E5B
:10021600550EA76EAA0EA76EA68200BE02D0F29E4B
:0802260001D0F28EA694120033
:10022E00CAC504F0CBC505F0C8C502F0C9C503F0B8
:10023E00CCC500F0CDC501F0010E0501CC5F000E5E
:10024E00CD5B005001100FE004C0E9FF05C0EAFFCE
:10025E0002C0E1FF03C0E2FFEECFE6FF024A032A2F
:10026E00044A052AE5D7C8C500F0C9C501F0120039
:10027E000501CC6B050ECC5D0AE2CC51CA25E16EB0
:10028E00000ECB21E26E200EE66ECC2BF3D7CC51B6
:10029E00CA25E16E000ECB21E26EE66ACC07CC5188
:1002AE00CA25CD6F000ECB21CE6F0A0E046E000E46
:1002BE00056EC8C500F0C9C501F06CDF08C000F0BE
:1002CE0009C001F0300E0026CDC5E1FFCEC5E2FF1C
:1002DE0000C0E6FF0A0E046E000E056EC8C500F0E3
:1002EE00C9C501F057DF00C0C8F501C0C9F5000E41
:1002FE00011802E1000E001801E102D0CC07CFD7A1
:02030E001200DB
:100310000501CB6B030ECB5D0AE2CB51C925E16E23
:10032000000ECA21E26E200EE66ECB2BF3D7CB5126
:10033000C925E16E000ECA21E26EE66ACB07CB51F9
:10034000C925CC6F000ECA21CD6F0A0E046EC8C538
:1003500000F042DF08C000F0300E0026CCC5E1FFFF
:10036000CDC5E2FF00C0E6FF0A0E046EC8C500F06E
:1003700033DF00C0C8F50050000A01E102D0CB070E
:04038000DED71200B2
:100384005ED00101896B8A6B8BD00101E00E896F0D
:10039400010E8A6F85D00101EA0E896F010E8A6F02
:1003A4007FD00101F40E896F010E8A6F79D00101AB
:1003B400120E896F020E8A6F73D00101260E896FA7
:1003C400020E8A6F6DD001013A0E896F020E8A6F98
:1003D40067D00101580E896F020E8A6F61D0010146
:1003E400760E896F020E8A6F5BD001018A0E896FC7
:1003F400020E8A6F55D001019E0E896F020E8A6F1C
:100404004FD00101BC0E896F020E8A6F49D00101E1
:10041400EE0E896F020E8A6F43D00101200E896FA0
:10042400030E8A6F3DD00101520E896F030E8A6F4D
:1004340037D00101840E896F030E8A6F31D0050114
:10044400C851000A9EE0C851010A9FE0C851020A3F
:10045400A2E0C851030AA5E0C851040AA8E0C851A3
:10046400050AABE0C851060AAEE0C851070AB1E07C
:10047400C851080AB4E0C851090AB7E0C8510A0AC9
:10048400BAE0C8510B0ABDE0C8510C0AC0E0C8511B
:100494000D0AC3E0C8510E0AC6E0C8510F0AC9E0EC
:1004A40042D0640E01018B6F000E8C6F5ED001018F
:1004B400F40E8B6F010E8C6F58D00101E80E8B6F18
:1004C400030E8C6F52D00101DC0E8B6F050E8C6F06
:1004D4004CD00101D00E8B6F070E8C6F46D00101FA
:1004E400C40E8B6F090E8C6F40D00101B80E8B6F58
:1004F4000B0E8C6F3AD00101AC0E8B6F0D0E8C6F0E
:1005040034D00101A00E8B6F0F0E8C6F2ED0010121
:10051400940E8B6F110E8C6F28D00101880E8B6F97
:10052400130E8C6F22D00501C951000ABAE0C951DB
:10053400010ABDE0C951020AC0E0C951030AC3E07F
:10054400C951040AC6E0C951050AC9E0C951060ADD
:10055400CCE0C951070ACFE0C951080AD2E0C95119
:0C056400090AD5E0C9510A0AD8E01200CB
:100570000B6A0A6A096A086A0E6A0334083604506C
:10058000085E0550D8A0053C095E0650D8A0063C80
:100590000A5E0750D8A0073C0B5EE86AD8A0010E9F
:1005A0000E5E0336070E0C6E0334083609360A3623
:1005B0000B360E36045003A012D0085E0550D8A0AA
:1005C000053C095E0650D8A0063C0A5E0750D8A03C
:1005D000073C0B5EE86AD8A0010E0E5E11D008261B
:1005E0000550D8B0053C09260650D8B0063C0A266E
:1005F0000750D8B0073C0B26E86AD8B0010E0E268B
:1006000003360C2ED1D70234083609360A360B369B
:100610000E36045003A012D0085E0550D8A0053C49
:10062000095E0650D8A0063C0A5E0750D8A0073CD9
:100630000B5EE86AD8A0010E0E5E11D008260550A8
:10064000D8B0053C09260650D8B0063C0A2607500B
:10065000D8B0073C0B26E86AD8B0010E0E26023649
:10066000070E0C6E0234083609360A360B360E3683
:10067000045002A012D0085E0550D8A0053C095EC7
:100680000650D8A0063C0A5E0750D8A0073C0B5E77
:10069000E86AD8A0010E0E5E11D008260550D8B029
:1006A000053C09260650D8B0063C0A260750D8B0AB
:1006B000073C0B26E86AD8B0010E0E2602360C2E37
:1006C000D1D70134083609360A360B360E360450B7
:1006D00002A012D0085E0550D8A0053C095E065065
:1006E000D8A0063C0A5E0750D8A0073C0B5EE86A1B
:1006F000D8A0010E0E5E11D008260550D8B0053CDA
:1007000009260650D8B0063C0A260750D8B0073C48
:100710000B26E86AD8B0010E0E260136070E0C6EC5
:100720000134083609360A360B360E36045001A05D
:1007300012D0085E0550D8A0053C095E0650D8A02E
:10074000063C0A5E0750D8A0073C0B5EE86AD8A0BA
:10075000010E0E5E11D008260550D8B0053C0926C2
:100760000650D8B0063C0A260750D8B0073C0B26E6
:10077000E86AD8B0010E0E2601360C2ED1D700340F
:10078000083609360A360B360E36045001A012D050
:10079000085E0550D8A0053C095E0650D8A0063C6E
:1007A0000A5E0750D8A0073C0B5EE86AD8A0010E8D
:1007B0000E5E11D008260550D8B0053C092606501B
:1007C000D8B0063C0A260750D8B0073C0B26E86A8A
:1007D000D8B0010E0E260036070E0C6E0034083617
:1007E00009360A360B360E36045000A012D0085EC9
:1007F0000550D8A0053C095E0650D8A0063C0A5E0C
:100800000750D8A0073C0B5EE86AD8A0010E0E5E28
:1008100011D008260550D8B0053C09260650D8B09E
:10082000063C0A260750D8B0073C0B26E86AD8B029
:10083000010E0E2600360C2ED1D700B00ED004507B
:1008400008260550D8B0053C09260650D8B0063C0D
:0C0850000A260750D8B0073C0B26120007
:10085C004EC2E1FF4FC2E2FFC8C5E6FF4CC200F03A
:08086C004DC201F08CDC12000A
:0A087400490E0D6E0D2EFED7120086
:10087E000900F5CFE6FF0006FBE10106F9E11200E3
:10088E000501C26B0A0EC25D0AE2C251C025E16EBD
:10089E00000EC121E26E300EE66EC22BF3D7C251AE
:1008AE00C025E16E000EC121E26EE66AC207000E9F
:1008BE00006EBF1908E10050BE1905E10050BD19C8
:1008CE0002E1BC51000A3EE0C251C025C36F000ECA
:1008DE00C121C46F0A0E046E000E056E066E076E01
:1008EE00BCC500F0BDC501F0BEC502F0BFC503F02A
:1008FE0038DE08C000F009C001F00AC002F00BC0DB
:10090E0003F0300E0026C3C5E1FFC4C5E2FF00C0F0
:10091E00E6FFC2070A0E046E000E056E066E076E27
:10092E00BCC500F0BDC501F0BEC502F0BFC503F0E9
:10093E0018DE00C0BCF501C0BDF502C0BEF503C097
:06094E00BFF5B5D7120051
:100954000501BF6BBCC5E9FFBDC5EAFFEECFBEF51F
:10096400BE51000A0FE0BEC5CFF5B5EC00F005019D
:10097400BF2BBF51BC25E96E000EBD21EA6EEECF40
:06098400BEF5EED71200E3
:10098A000501BF6BBCC5E9FFBDC5EAFFEECFBEF5E9
:10099A00BE51000A0EE0BEC5C8F55BDF0501BF2BDC
:1009AA00BF51BC25E96E000EBD21EA6EEECFBEF541
:0409BA00EFD7120061
:1009BE00C7B409D01F0EC514016E0150000A03E121
:0A09CE00010E006E01D0006A120055
:1009D8000B6A0A6A096A00500402F4CF09F0F3CFDF
:1009E80008F001500502F4CF0BF0F3CF0AF00050E5
:1009F8000502F3500926F4500A22E86A0B22015036
:100A08000402F3500926F4500A22E86A0B2208C0AF
:100A180000F009C001F00AC002F00BC003F0120098
:100A2800BCC5C8F50501C833C89FBDC5C9F5BEC555
:100A3800CAF56ADC010EBC15016E0150010A18E105
:100A4800030EBD25C86F000EBE21C96F2E0EBF6FE5
:100A5800350EC06F730EC16FC26BBF0ECA6F050E25
:100A6800CB6F040ECC6F000ECD6F17EC01F017D0D2
:100A7800030EBD25C86F000EBE21C96F2E0EC36FB1
:100A8800300EC46F730EC56FC66BC30ECA6F050EEA
:100A9800CB6F040ECC6F000ECD6F17EC01F0120077
:100AA800A69CBDC5AAFFBCC5A9FFA69EA680A8CFC7
:040AB80000F0120038
:100ABC00BCC5C8F5BDC5C9F50501C933C833C99F47
:100ACC00BEC5CAF5BFC5CBF53FEC01F0010EBC1598
:100ADC00016EBDC502F0000E0216000E021802E1F6
:100AEC00010E011818E1050EBE25C86F000EBF21BE
:100AFC00C96F2E0EC06F350EC16F730EC26FC36BF4
:100B0C00C00ECA6F050ECB6F040ECC6F000ECD6FEE
:100B1C0017EC01F017D0050EBE25C86F000EBF21D3
:100B2C00C96F2E0EC46F300EC56F730EC66FC76BB8
:100B3C00C40ECA6F050ECB6F040ECC6F000ECD6FBA
:060B4C0017EC01F012009D
:100B5200010E0501C86F000EC96F2FC2CAF5FBEC6A
:100B620000F0020E0501C86F000EC96F9EC2CAF5E1
:100B7200FBEC00F0030E0501C86F000EC96FA0C1A7
:100B8200CAF5FBEC00F0040E0501C86F000EC96F38
:100B9200A1C1CAF5FBEC00F0050E0501C86F000EFD
:100BA200C96F31C2CAF5FBEC00F0060E0501C86F31
:100BB200000EC96FA2C1CAF5FBEC00F0070E0501D9
:100BC200C86F000EC96F30C2CAF5FBEC00F0080E08
:100BD2000501C86F000EC96F3DC2CAF5FBEC00F0FB
:100BE200090E0501C86F000EC96F3EC2CAF5FBECC3
:100BF20000F00A0E0501C86F000EC96F90C2CAF557
:100C0200FBEC00F00B0E0501C86F000EC96F8FC21E
:100C1200CAF5FBEC00F00C0E0501C86F000EC96F9F
:100C22001AC0CAF5FBEC00F00D0E0501C86F000EEC
:100C3200C96F9FC1CAF5FBEC00F00E0E0501C86F2B
:100C4200000EC96F8EC1CAF5FBEC00F00F0E050154
:100C5200C86F000EC96F94C2CAF5FBEC00F0100E0B
:100C62000501C86F000EC96F91C2CAF5FBEC00F016
:100C7200110E0501C86F000EC96F88C1CAF5FBECE1
:100C820000F0120E0501C86F000EC96F8DC1CAF5C2
:100C9200FBEC00F01AC0C8F58DC1C9F5C2EC01F039
:020CA20012003E
:100CA400010E0501BC6F000EBD6FFCDE00C02FF20B
:100CB400020EBC6F000EBD6FF5DE00C09EF2030E87
:100CC400BC6F000EBD6FEEDE00C0A0F1040EBC6F61
:100CD400000EBD6FE7DE00C0A1F1050EBC6F000E73
:100CE400BD6FE0DE00C031F2060EBC6F000EBD6FBA
:100CF400D9DE00C0A2F1070EBC6F000EBD6FD2DEBC
:100D040000C030F2080EBC6F000EBD6FCBDE00C019
:100D14003DF2090EBC6F000EBD6FC4DE00C03EF292
:100D24000A0EBC6F000EBD6FBDDE00C08FF2000E58
:100D34000201906F8FC290F28F6B0B0E0501BC6F96
:100D4400000EBD6FAFDE005002018F13000E901332
:100D54000C0E0501BC6F000EBD6FA4DE00C01AF0BE
:100D64000D0EBC6F000EBD6F9DDE00C09FF10E0E18
:100D7400BC6F000EBD6F96DE00C08EF10F0EBC6F0F
:100D8400000EBD6F8FDE00C094F2100EBC6F000E1B
:100D9400BD6F88DE00C091F2110EBC6F000EBD6FF6
:100DA40081DE00C088F1120EBC6F000EBD6F7ADECA
:100DB40000C08DF11AC0C8F500C0C9F5C2EC01F03D
:020DC40012001B
:100DC600010E0301D325016E000ED421026E01C06F
:100DD600E9FF02C0EAFF0A0EEE24006E01C0E1FF41
:100DE60002C0E2FF00C0E6FF030ED325016E000E2F
:100DF600D421026E01C0E9FF02C0EAFF0A0EEE240A
:100E0600006E01C0E1FF02C0E2FF00C0E6FFD3C3EF
:100E1600E9FFD4C3EAFFEECF00F0D3C3E1FFD4C3AA
:100E2600E2FF0A0E0024E66E020ED325016E000EC6
:100E3600D421026E01C0E9FF02C0EAFF0A0EEE24C9
:100E4600006E01C0E1FF02C0E2FF00C0E6FF040E33
:100E5600D325E16E000ED421E26E040EE66E060E78
:100E6600D325E16E000ED421E26E040EE66E080E66
:100E7600D325E16E000ED421E26E040EE66E0A0E54
:100E8600D325E16E000ED421E26E040EE66E050E49
:100E9600D325E16E000ED421E26E0A0EE66E090E2F
:100EA600D325E16E000ED421E26E0A0EE66E070E21
:100EB600D325E16E000ED421E26E0A0EE66E0B0E0D
:100EC600D325E16E000ED421E26E0A0EE66E120004
:100ED6000301D351010A03E10001DF6B819603018F
:0E0EE600D351020A03E10001DD6B8198120076
:100EF4000301D86B140ED85D6DE2D8C300F0000E68
:100F0400016E070E046E000E056E64DDA30E00264E
:100F1400010E0122050E0024E96E000E0120EA6E86
:100F2400EE50010A55E1D8C300F0000E016E070E21
:100F3400046E000E056E4EDDA30E0024E16E010E5C
:100F44000120E26ED7C3E6FFD8C300F0000E016EA5
:100F5400070E046E000E056E3DDDA30E0026010E85
:100F64000122010E0024E16E000E0120E26ED3C3C3
:100F7400E6FFD4C3E6FFD5C3E6FFD6C3E6FFD8C376
:100F840000F0000E016E070E046E000E056E22DDE9
:100F9400A30E0026010E0122050E0024E16E000EB0
:100FA4000120E26EE66AD8C300F0000E016E070E5F
:100FB400046E000E056E0EDDA30E0026010E012246
:100FC400060E0024E16E000E0120E26EE66A02D0F5
:060FD400D82B90D712009B
:100FDA00020196510301D31905E10201966B010E34
:100FEA00006E1200020197510301D31905E10201B3
:100FFA00976B010E006E1200020198510301D3197A
:10100A0005E10201986B010E006E1200006A1200DF
:10101A000301D36BD46BD451120802E1D3518E0869
:10102A0008E3C8DC005201E004D00301D34BD42BFF
:10103A00F2D70301120ED45D02E18F0ED35D03E3F2
:10104A007B0E006E05D0C580C5A001D0FDD7006A11
:02105A00120082
:10105C000301D5531FE003C1BCF504C1BDF505C1A7
:10106C00BEF506C1BFF5D60E0501C06F030EC16FEC
:10107C0008DCD60EBC6F030EBD6F81DC3A0E03018B
:10108C00E16F200EE26FE36BE10E0501BC6F030E06
:10109C00BD6F5ADCD3C3BCF5D4C3BDF555DC0D0E06
:1010AC00CF6FB5EC00F00A0E0501CF6FB5EC00F078
:0210BC00120020
:1010BE000301D36B140ED35D50E2D3C300F0000EC8
:1010CE00016E070E046E000E056E7FDCA30E002669
:1010DE00010E0122050E0024E96E000E0120EA6EBB
:1010EE00EE50000A38E1D3C300F0000E016E070E79
:1010FE00046E000E056E69DCA30E0024E96E010E6F
:10110E000120EA6EEECF01F00150090A24E1D3C3AB
:10111E0000F0000E016E070E046E000E056E55DC1B
:10112E00A30E0026010E0122010E0024E96E000E10
:10113E000120EA6EEECFD4F3EECFD5F3EECFD6F399
:10114E00EECFD7F3050E0024E16E000E0120E26E05
:10115E00010EE66E02D0D32BADD701010351030170
:10116E00D45D016E01C0D3F3140E015C01E3D36BA9
:06117E00D3C300F01200D3
:101184000301D36B140ED35D49E2D3C300F0000E08
:10119400016E070E046E000E056E1CDCA30E002605
:1011A400010E0122050E0024E96E000E0120EA6EF4
:1011B400EE50000A31E1D3C300F0000E016E070EB9
:1011C400046E000E056E06DCA30E0024E96E010E0B
:1011D4000120EA6EEECF01F00150090A1DE1D3C3EC
:1011E40000F0000E016E070E046E000E056EECECAE
:1011F40004F0A30E0026010E0122010E0024E96E64
:10120400000E0120EA6EEECFD4F3EECFD5F3EECF8D
:10121400D6F3EECFD7F302D0D32BB4D7140ED35DCD
:1012240002E3D36B05D0010103510301D45DD36FF5
:06123400D3C300F012001C
:10123A000301D46B140ED45D44E2D4C300F0000E53
:10124A00016E070E046E000E056EECEC04F0A30EA0
:10125A000026010E0122050E0024E96E000E01206F
:10126A00EA6EEE50000A2BE1D4C300F0000E016EC4
:10127A00070E046E000E056EECEC04F0A30E0024BB
:10128A00E96E010E0120EA6EEECF01F00150D3198A
:10129A0016E0D4C300F0000E016E070E046E000EB5
:1012AA00056EECEC04F0A30E0026010E0122050ED9
:1012BA000024E16E000E0120E26E010EE66ED42BD0
:0412CA00B9D712007E
:1012CE00010E0301D325E96E000ED421EA6EEECF96
:1012DE002FF2D3C3E9FFD4C3EAFFEECFA0F1D5516D
:1012EE00020AD8A485D0030ED325E96E000ED421B0
:1012FE00EA6EEECF9EF2020ED325E96E000ED421D9
:10130E00EA6EEECFA1F1040ED325E96E000ED421C4
:10131E00EA6E080ED325D96E000ED421DA6EDE5099
:10132E00EE24036E046A000E042203C000F004C013
:10133E0001F001320032019E01BC018E00C0A2F10B
:10134E00050ED325E96E000ED421EA6E090ED325C3
:10135E00D96E000ED421DA6EDE50EE24036E046ACE
:10136E00000E042203C000F004C001F0013200326E
:10137E00019E01BC018E00C030F2060ED325E96E2F
:10138E00000ED421EA6E0A0ED325D96E000ED4219A
:10139E00DA6EDE50EE24036E046A000E042203C0E1
:1013AE0000F004C001F001320032019E01BC018E3A
:1013BE0000C03DF2070ED325E96E000ED421EA6E71
:1013CE000B0ED325D96E000ED421DA6EDE50EE242C
:1013DE00036E046A000E042203C000F004C001F084
:1013EE0001320032019E01BC018E00C03EF225D0BA
:1013FE0002019E6B0101A16B040E0301D325E96E60
:10140E00000ED421EA6EEECFA2F1050ED325E96EC1
:10141E00000ED421EA6EEECF30F2060ED325E96E21
:10142E00000ED421EA6EEECF3DF2070ED325E96E03
:10143E00000ED421EA6EEECF3EF2A9EC05F01200BA
:10144E000301D351010A05E101012A6B2B6B020145
:10145E009A910301D351020A05E101013D6B3E6BE6
:06146E0002019A93120036
:10147400140E02012F6F140E0101A06F140E02014D
:101484009E6F140E0101A16F070E1A6E020E8D6F6E
:10149400070E0501C86F020EC96FC2EC01F00A0EF7
:1014A4000201306F040E0101A26F0A0E02013E6FA9
:1014B400040E3D6F0C0E316F8F6B906B01018E6BC0
:1014C4000201946B916B01019F6B010E886FA9EC73
:0414D40005F012000D
:1014D800020E0001DA6F910E0501C86F000EC96F88
:1014E800100EF66E7B0EF76E000EF86ED30EE16EE0
:1014F800030EE26E110E006E010E016E3FEC04F059
:10150800D30ECA6F030ECB6F100ECC6F000ECD6FCB
:1015180017EC01F01B50000A65E1B50EC86F000E0C
:10152800C96F210EF66E7B0EF76E000EF86EE40E94
:10153800E16E030EE26E110E006E010E016E3FECBD
:1015480004F0E40ECA6F030ECB6F100ECC6F000EC2
:10155800CD6F17EC01F0010E0001B36F7D50000A4A
:101568001FE1910E0501C86F000EC96F320EF66EAD
:101578007B0EF76E000EF86EF50EE16E030EE26E4E
:10158800110E006E010E016E3FEC04F0F50ECA6FED
:10159800030ECB6F100ECC6F000ECD6F17EC01F061
:1015A8007D50010A1FE10501910EC86F000EC96F39
:1015B800430EF66E7B0EF76E000EF86E060EE16EA9
:1015C800040EE26E110E006E010E016E3FEC04F087
:1015D800060ECA6F040ECB6F100ECC6F000ECD6FC7
:1015E80017EC01F01B50010A2BE10501B50EC86F7D
:1015F800000EC96F540EF66E7B0EF76E000EF86E75
:10160800170EE16E040EE26E110E006E010E016EF1
:101618003FEC04F0170ECA6F040ECB6F100ECC6FA0
:10162800000ECD6F17EC01F0010E0001B36F2FC251
:10163800BCF5970E0501BD6F000EBE6F14EC05F0EA
:101648001B50020A2BE10501B50EC86F000EC96FC9
:10165800650EF66E7B0EF76E000EF86E280EE16EC4
:10166800040EE26E110E006E010E016E3FEC04F0E6
:10167800280ECA6F040ECB6F100ECC6F000ECD6F04
:1016880017EC01F0010E0001B36F9EC2BCF5970E76
:101698000501BD6F000EBE6F14EC05F01B50030A68
:1016A8002BE10501B50EC86F000EC96F760EF66EF8
:1016B8007B0EF76E000EF86E390EE16E040EE26EC8
:1016C800110E006E010E016E3FEC04F0390ECA6F68
:1016D800040ECB6F100ECC6F000ECD6F17EC01F01F
:1016E800010E0001B36FA0C1BCF5970E0501BD6FD7
:1016F800000EBE6F14EC05F01B50040A2BE1050127
:10170800B50EC86F000EC96F870EF66E7B0EF76EAA
:10171800000EF86E4A0EE16E040EE26E110E006EB7
:10172800010E016E3FEC04F04A0ECA6F040ECB6F37
:10173800100ECC6F000ECD6F17EC01F0010E0001FA
:10174800B36FA1C1BCF5970E0501BD6F000EBE6F4A
:1017580014EC05F01B50050A2BE10501B50EC86F06
:10176800000EC96F980EF66E7B0EF76E000EF86EBF
:101778005B0EE16E040EE26E110E006E010E016E3C
:101788003FEC04F05B0ECA6F040ECB6F100ECC6FEB
:10179800000ECD6F17EC01F0010E0001B36FA2C16E
:1017A800BCF5970E0501BD6F000EBE6F14EC05F079
:1017B8001B50060A2BE10501B50EC86F000EC96F54
:1017C800A90EF66E7B0EF76E000EF86E6C0EE16ECB
:1017D800040EE26E110E006E010E016E3FEC04F075
:1017E8006C0ECA6F040ECB6F100ECC6F000ECD6F4F
:1017F80017EC01F0010E0001B36F30C2BCF5970E73
:101808000501BD6F000EBE6F14EC05F01B50070AF2
:101818002BE10501B50EC86F000EC96FBA0EF66E42
:101828007B0EF76E000EF86E7D0EE16E040EE26E12
:10183800110E006E010E016E3FEC04F07D0ECA6FB2
:10184800040ECB6F100ECC6F000ECD6F17EC01F0AD
:10185800010E0001B36F3DC2BCF5970E0501BD6FC7
:10186800000EBE6F14EC05F01B50080A2BE10501B1
:10187800B50EC86F000EC96FCB0EF66E7B0EF76EF5
:10188800000EF86E8E0EE16E040EE26E110E006E02
:10189800010E016E3FEC04F08E0ECA6F040ECB6F82
:1018A800100ECC6F000ECD6F17EC01F0010E000189
:1018B800B36F3EC2BCF5970E0501BD6F000EBE6F3B
:1018C80014EC05F01B50090A69E10501B50EC86F53
:1018D800000EC96FDC0EF66E7B0EF76E000EF86E0A
:1018E8009F0EE16E040EE26E110E006E010E016E87
:1018F8003FEC04F09F0ECA6F040ECB6F100ECC6F36
:10190800000ECD6F17EC01F0010E0001B36F1AC085
:10191800C8F5940E0501C96F000ECA6F88EC01F076
:101928001A5007081EE2980EC86F000EC96F320ED3
:101938000401B06F350EB16F300EB26F4B0EB36F3E
:10194800670EB46F2D0EB56FB66BB00E0501CA6F7A
:10195800040ECB6F060ECC6F000ECD6F17EC01F0A6
:101968001DD0980EC86F000EC96F320E0401B76FF4
:10197800350EB86F300EB96F4B0EBA6F670EBB6F6E
:101988002B0EBC6FBD6BB70E0501CA6F040ECB6F73
:10199800060ECC6F000ECD6F17EC01F01B500A0A33
:1019A8002BE10501B50EC86F000EC96FFB0EF66E70
:1019B8007B0EF76E000EF86EBE0EE16E040EE26E40
:1019C800100E006E010E016E3FEC04F0BE0ECA6FE1
:1019D800040ECB6F100ECC6F000ECD6F17EC01F01C
:1019E800010E0001B36F8DC1BCF5970E0501BD6FE7
:1019F800000EBE6F14EC05F01B500B0A2BE105011D
:101A0800B50EC86F000EC96F0B0EF66E7C0EF76E22
:101A1800000EF86ECE0EE16E040EE26E110E006E30
:101A2800010E016E3FEC04F0CE0ECA6F040ECB6FB0
:101A3800100ECC6F000ECD6F17EC01F0010E0001F7
:101A4800B36F31C2BCF5970E0501BD6F000EBE6FB6
:101A580014EC05F01B500C0A2DE10501B50EC86FFA
:101A6800000EC96F1C0EF66E7C0EF76E000EF86E37
:101A7800DF0EE16E040EE26E110E006E010E016EB5
:101A88003FEC04F0DF0ECA6F040ECB6F100ECC6F64
:101A9800000ECD6F17EC01F0010E0001B36F8FC27D
:101AA800BCF590C2BDF5950E0501BE6F000EBF6F67
:101AB8005EEC05F01B500D0A22E10501B50EC86F5A
:101AC800000EC96F2D0EF66E7C0EF76E000EF86EC6
:101AD800F00EE16E040EE26E110E006E010E016E44
:101AE8003FEC04F0F00ECA6F040ECB6F100ECC6FF3
:101AF800000ECD6F17EC01F0010E0001B36F1B5003
:101B08000E0A65E1B50E0501C86F000EC96F3E0EDD
:101B1800F66E7C0EF76E000EF86E010EE16E050E85
:101B2800E26E110E006E010E016E3FEC04F0010E24
:101B3800CA6F050ECB6F100ECC6F000ECD6F17EC71
:101B480001F0010E0001B36F02019451000A1FE178
:101B5800970E0501C86F000EC96F4E0E126F6F0EFB
:101B6800136F200E146F200E156F200E166F200EA7
:101B7800176F200E186F196B120ECA6F050ECB6FF8
:101B8800070ECC6F000ECD6F17EC01F020D00501C9
:101B9800970EC86F000EC96F590E1A6F650E1B6F2E
:101BA800730E1C6F200E1D6F200E1E6F200E1F6FF0
:101BB800200E206F200E216F226B1A0ECA6F050EA1
:101BC800CB6F080ECC6F000ECD6F17EC01F01B50D9
:101BD8000F0A65E10501B50EC86F000EC96F600EEA
:101BE800F66E7C0EF76E000EF86E230EE16E050E93
:101BF800E26E110E006E010E016E3FEC04F0230E32
:101C0800CA6F050ECB6F100ECC6F000ECD6F17ECA0
:101C180001F0010E0001B36F02019151000A1FE1AA
:101C2800970E0501C86F000EC96F4E0E346F6F0E08
:101C3800356F200E366F200E376F200E386F200E4E
:101C4800396F200E3A6F3B6B340ECA6F050ECB6F9F
:101C5800070ECC6F000ECD6F17EC01F020D00501F8
:101C6800970EC86F000EC96F590E3C6F650E3D6F19
:101C7800730E3E6F200E3F6F200E406F200E416F97
:101C8800200E426F200E436F446B3C0ECA6F050E48
:101C9800CB6F080ECC6F000ECD6F17EC01F01B5008
:101CA800100A65E10501B50EC86F000EC96F820EF6
:101CB800F66E7C0EF76E000EF86E450EE16E050EA0
:101CC800E26E110E006E010E016E3FEC04F0450E3F
:101CD800CA6F050ECB6F100ECC6F000ECD6F17ECD0
:101CE80001F0010E0001B36F01018851000A1FE1E4
:101CF800970E0501C86F000EC96F4E0E566F6F0E16
:101D0800576F200E586F200E596F200E5A6F200EF5
:101D18005B6F200E5C6F5D6B560ECA6F050ECB6F46
:101D2800070ECC6F000ECD6F17EC01F020D0050127
:101D3800970EC86F000EC96F590E5E6F650E5F6F04
:101D4800730E606F200E616F200E626F200E636F3E
:101D5800200E646F200E656F666B5E0ECA6F050EEF
:101D6800CB6F080ECC6F000ECD6F17EC01F01B5037
:101D7800110A65E10501B50EC86F000EC96FA40E02
:101D8800F66E7C0EF76E000EF86E670EE16E050EAD
:101D9800E26E110E006E010E016E3FEC04F0670E4C
:101DA800CA6F050ECB6F100ECC6F000ECD6F17ECFF
:101DB80001F0010E0001B36F01018E51000A1FE10D
:101DC800970E0501C86F000EC96F4E0E786F6F0E23
:101DD800796F200E7A6F200E7B6F200E7C6F200E9D
:101DE8007D6F200E7E6F7F6B780ECA6F050ECB6FEE
:101DF800070ECC6F000ECD6F17EC01F020D0050157
:101E0800970EC86F000EC96F590E806F650E816FEF
:101E1800730E826F200E836F200E846F200E856FE5
:101E2800200E866F200E876F886B800ECA6F050E96
:101E3800CB6F080ECC6F000ECD6F17EC01F01B5066
:101E4800120A2BE10501B50EC86F000EC96FC60E48
:101E5800F66E7C0EF76E000EF86E890EE16E050EBA
:101E6800E26E110E006E010E016E3FEC04F0890E59
:101E7800CA6F050ECB6F100ECC6F000ECD6F17EC2E
:101E880001F0010E0001B36F9FC1BCF5970E05016B
:101E9800BD6F000EBE6F14EC05F01B50130A22E153
:101EA8000501B50EC86F000EC96FD70EF66E7C0E11
:101EB800F76E000EF86E9A0EE16E050EE26E110EC8
:101EC800006E010E016E3FEC04F09A0ECA6F050E0B
:101ED800CB6F100ECC6F000ECD6F17EC01F0010E1A
:101EE8000001B36F1B50140A22E1B50E0501C86F3B
:101EF800000EC96FE80EF66E7C0EF76E000EF86ED7
:101F0800AB0EE16E050EE26E110E006E010E016E53
:101F18003FEC04F0AB0ECA6F050ECB6F100ECC6F02
:101F2800000ECD6F17EC01F0010E0001B36F650EC6
:061F38000101636F1200BD
:101F3E000301D351000A04E0D451000A01E002D09B
:101F4E00F28801D0F298D3C3D8F0D4C3DBF01200DC
:101F5E000301D351010A17E1D4B102D0829201D00C
:101F6E008282060E0B6E130E0C6EAD0E0D6E0D2EC6
:101F7E00FED70C2EFCD70B2EFAD700000000010E58
:101F8E000001DF6F81860301D351020A17E1D4B13C
:101F9E0002D0829001D08280060E0B6E130E0C6E54
:101FAE00AD0E0D6E0D2EFED70C2EFCD70B2EFAD7C6
:0E1FBE0000000000010E0001DD6F818812009E
:101FCC009E96D3C3C9FFC7A401D0FDD79EB601D03E
:101FDC00FDD7C5BC02D0006A03D0C584020E006ECA
:021FEC001200E1
:041FEE00C584120094
:101FF200D3C3C8F50501C833C89FD4C3C9F5D5C337
:10200200CAF588EC01F0030E0301D4250501C86F5F
:10201200000E0301D5210501C96F730E0301D66FAE
:10202200200ED76F200ED86FD96BD60E0501CA6F5E
:10203200030ECB6F040ECC6F000ECD6F17EC01F0C8
:0220420012008A
:10204400C26A070EC012C08ED3C300F000360090DF
:10205400003600900050C212C2803AEC04F0C282F2
:10206400C2A201D0FDD7C4CF01F0006AC350001250
:08207400000E0112C2901200DF
:10207C0083A003D083A201D003D0010E006E120006
:04208C00006A1200D4
:102090000201B96B83B801D0B98183BA01D0B98389
:0620A000B9C200F01200BD
:1020A6000201BD6B050EBD5D0AE2BD51BB25E16EA9
:1020B600000EBC21E26E300EE66EBD2BF3D7BD518D
:1020C600BB25E16E000EBC21E26EE66ABD07000E7E
:1020D600BA1902E1000EB9192CE0BD51BB25BE6F3D
:1020E600000EBC21BF6F0A0E046E000E056EB9C24B
:1020F60000F0BAC201F0D1EC00F008C000F009C04F
:1021060001F0300E0026BEC2E1FFBFC2E2FF00C0F2
:10211600E6FFBD070A0E046E000E056EB9C200F09A
:10212600BAC201F0D1EC00F000C0B9F201C0BAF2B7
:04213600CED71200EE
:10213A000201BA6BBB6BBC6B83BA02D0BC8101D003
:10214A00BC9184B002D0BC8301D0BC9383B802D0C6
:10215A00BC8501D0BC95BC51000A1BE100018D5120
:10216A00000A08E102015B6B7A6B00018D6B0201C8
:10217A00B96B936B00018D51010A0BE1050E8F5D5E
:10218A0008E302015B6B7A6B00018D6B0201B96B8C
:10219A00936B02015B51010A0EE10001DE51905D71
:1021AA000AE3010E0201936F0001906B190E0201FE
:1021BA007A5D01E27A2B0201BC51000A26E0000195
:1021CA008D51010A22E102015B51000A1EE1020E51
:1021DA005C25016E000E5D21026E000E5E21036E0B
:1021EA00000E5F21046E01010651041808E1055131
:1021FA00031805E10451021802E10351011805E12F
:10220A00010E02015B6F0001906B0201BC51000AD2
:10221A0009E000018D51010A05E102015B51000A42
:10222A0001E1B96B0201BC51000A0DE000018D51B8
:10223A00010A09E102015B51010A05E1BC5193035C
:10224A00F3CFB9F2936B0201BC51000A11E000010D
:10225A008D51000A0DE1BCC2B9F2010E8D6F03C1A6
:10226A005CF204C15DF205C15EF206C15FF28F6BDA
:10227A000201B951000A03E0010E0001806FB9C2E0
:04228A0000F012004E
:10228E000201BD6BBE6BB951010A03E1BA51800F59
:10229E00BE6FB951020A03E1BA51C00FBE6F0DEC09
:1022AE0008F07C0E0301D36F8ADE800E0301D36F1C
:1022BE0086DEBEC2D3F383DE400E0301D36F7FDE14
:1022CE000201BD51BB25E96E000EBC21EA6EEE5037
:1022DE000A0A0FE0BD5110080CE3BD51BB25E96E93
:1022EE00000EBC21EA6EEECFD3F369DE0201BD2BE8
:1022FE00E7D776DE0D0E0C6EFB0E0D6E0D2EFED795
:0A230E000C2EFCD7000000001200A6
:102318000201B96B00018BB103D00201B99102D05F
:102328000201B98100018CB103D00201B99302D036
:102338000201B98300018B6B8C6B140E0101635D84
:102348000FE20201B9B104D095B502D0B99101D01C
:10235800B981B9B304D095B102D0B99301D0B9838A
:06236800B9C200F01200F2
:10236E000201BA6BBB6B3F0EB915026E02C0B9F219
:10237E00540EBA6F02C000F00032009E0032009E72
:10238E000032009E0032009E540E0010BA6F700E86
:10239E00BB6F0F0E0214006E700E0010BB6F0DECB3
:1023AE0008F07C0E0301D36F0ADE800E0301D36F9B
:1023BE0006DEBAC2D3F303DE800E0301D36FFFDD58
:1023CE00BBC2D3F3FCDD0CDE0D0E0C6EFB0E0D6EE0
:0E23DE000D2EFED70C2EFCD7000000001200C2
:1023EC00020195A302D000018E2B00018E51010A2F
:1023FC0020E1B50E0501C86F000EC96F3D0ECA6F06
:10240C00000ECB6F100ECC6F000ECD6F17EC01F0E1
:10241C00910EC86F000EC96F4D0ECA6F000ECB6FB8
:10242C00100ECC6F000ECD6F17EC01F0010E0001F9
:10243C00B36F8E51020A20E1B50E0501C86F000E74
:10244C00C96F5D0ECA6F000ECB6F100ECC6F000EF5
:10245C00CD6F17EC01F0910EC86F000EC96F6D0EA9
:10246C00CA6F000ECB6F100ECC6F000ECD6F17EC39
:10247C0001F0010E0001B36F8E51030A03E1640EEB
:06248C000101636F120064
:102492000DEC08F07C0E0301D36F97DD800E030173
:1024A200D36F93DD0201B951020A04E1380E030130
:1024B200D36F8BDD0201B951010A04E1340E03012D
:1024C200D36F83DD800E0301D36F7FDD0201B9512B
:1024D200020A04E1390E0301D36F77DD0201B9511B
:1024E200010A04E1350E0301D36F6FDD800E030193
:1024F200D36F6BDD1C0E0301D36F67DD800E03010A
:10250200D36F63DD720E0301D36F5FDD800E0301B3
:10251200D36F5BDD550E0301D36F57DD800E0301D0
:10252200D36F53DD6C0E0301D36F4FDD800E0301B9
:10253200D36F4BDD0C0E0301D36F47DD800E030119
:10254200D36F43DD010E0301D36F3FDD800E030124
:10255200D36F3BDD060E0301D36F37DD800E03011F
:10256200D36F33DD020E0301D36F2FDD3FDD120087
:10257200949894968B988B9694889486C79EC79CC1
:06258200380EC66E1200C7
:10258800010E7E6E020195A31CD07E6A7F6A650EDD
:102598000101636F6CEC0AF01B50000A12E10201A2
:1025A800926B7D50000A05E1C80E0101636F010EB0
:1025B8001C6E7D50010A05E10101C90E636F010E11
:1025C8001C6E1B50000A16E1020195A108D07D502F
:1025D800000805E27D066CEC0AF0660E636F0201E6
:1025E80095A508D0010E7D5C05E27D2A6CEC0AF009
:1025F800660E636F1B50010A16E1020195A108D00F
:102608002F51000805E22F076CEC0AF0660E636F85
:10261800020195A508D0FF0E2F5D05E22F2B6CEC6B
:102628000AF0660E636F1B50020A16E1020195A1BB
:1026380008D09E51000805E29E076CEC0AF0660E71
:10264800636F020195A508D0FF0E9E5D05E29E2BE3
:102658006CEC0AF0660E636F1B50030A18E1020166
:1026680095A109D00101A051000805E2A0076CEC72
:102678000AF0660E636F020195A509D0FF0E0101ED
:10268800A05D05E2A02B6CEC0AF0660E636F1B5090
:10269800040A18E1020195A109D00101A15100081D
:1026A80005E2A1076CEC0AF0660E636F020195A5BE
:1026B80009D0FF0E0101A15D05E2A12B6CEC0AF027
:1026C800660E636F1B50050A18E1020195A109D037
:1026D8000101A251000805E2A2076CEC0AF0660E9F
:1026E800636F020195A509D0FF0E0101A25D05E205
:1026F800A22B6CEC0AF0660E636F1B50060A16E1FB
:10270800020195A108D03051000805E230076CECB1
:102718000AF0660E636F020195A508D0FF0E305DC2
:1027280005E2302B6CEC0AF0660E636F1B50070A4B
:1027380016E1020195A108D03D51000805E23D07C8
:102748006CEC0AF0660E636F020195A508D0FF0EC7
:102758003D5D05E23D2B6CEC0AF0660E636F1B5085
:10276800080A16E1020195A108D03E51000805E2C9
:102778003E076CEC0AF0660E636F020195A508D05F
:10278800FF0E3E5D05E23E2B6CEC0AF0660E636FB1
:102798001B50090A16E1020195A108D01A50010838
:1027A80005E21A066CEC0AF0660E636F020195A545
:1027B80008D00F0E1A5C05E21A2A6CEC0AF0660EB5
:1027C800636F1B500A0A18E1020195A109D00101A3
:1027D8008D51010805E28D076CEC0AF0660E636FF7
:1027E800020195A509D00A0E01018D5D05E28D2B28
:1027F8006CEC0AF0660E636F1B500B0A16E10201BF
:1028080095A108D03151000805E231076CEC0AF0B7
:10281800660E636F020195A508D0FF0E315D05E2D3
:10282800312B6CEC0AF0660E636F1B500C0A22E128
:10283800020195A110D0000E006E9051005C02E1DB
:102848008F51000808E2010E8F5F000E905B6CEC60
:102858000AF0660E636F020195A50CD0FD0E905D1F
:1028680002E1E80E8F5D06E28F4B902B6CEC0AF0CC
:10287800660E636F1B500D0A1EE10101636BB50EF6
:102888000501C86F000EC96F8F0ECA6F010ECB6F9E
:10289800100ECC6F000ECD6F17EC01F0010E000189
:1028A800DA6F7E6A7F6A010EB36F010E1C6E3AEC16
:1028B8000AF0A9EC05F01B500E0A16E1020195A1D9
:1028C80008D09451000805E294076CEC0AF0660EF3
:1028D800636F020195A508D0010E945D05E2942B63
:1028E8006CEC0AF0660E636F1B500F0A16E10201CA
:1028F80095A108D09151000805E291076CEC0AF007
:10290800660E636F020195A508D0010E915D05E280
:10291800912B6CEC0AF0660E636F1B50100A18E1DD
:10292800020195A109D001018851000805E2880734
:102938006CEC0AF0660E636F020195A509D0010ED2
:102948000101885D05E2882B6CEC0AF0660E636F66
:102958001B50110A18E1020195A109D001018E51FD
:10296800000805E28E076CEC0AF0660E636F020140
:1029780095A509D0010E01018E5D05E28E2B6CEC48
:102988000AF0660E636F1B50120A21E1020195A13D
:102998000DD001019F51000809E29F079F51090AC4
:1029A80001E19F6B6CEC0AF0660E636F020195A55E
:1029B8000ED0FF0E01019F5D0AE29F2B9F51010A75
:1029C80002E10A0E9F6F6CEC0AF0660E636F1B50F3
:1029D800130A1AE10101670E636FB50E0501C86F8E
:1029E800000EC96F8F0ECA6F010ECB6F100ECC6F21
:1029F800000ECD6F17EC01F07E6A010E0001DA6F50
:102A0800010EB36F010E1C6E1B50140A1BE101016D
:102A1800636BB50E0501C86F000EC96F8F0ECA6FC4
:102A2800010ECB6F100ECC6F000ECD6F17EC01F0BE
:102A38007E6A010E0001DA6F010EB36F52EC06F0E8
:062A4800010E1C6E1200DD
:102A4E00020195A10AD01B50000A03E1140E1B6E61
:102A5E0001D01B06640E0101636F020195A509D01A
:102A6E001B50140A02E11B6A01D01B2A640E0101DD
:102A7E00636F020195A303D0660E0101636F02011D
:102A8E009551050A28E1B50E0501C86F000EC96FF4
:102A9E001D0ECA6F000ECB6F100ECC6F000ECD6FD9
:102AAE0017EC01F000018E6B910E0501C86F000E40
:102ABE00C96F2D0ECA6F000ECB6F100ECC6F000EAD
:102ACE00CD6F17EC01F0020E0001DA6F010EB36F3D
:082ADE00FA0E0101636F120002
:102AE6006A0E02014C6F010E4D6FCF0E4E6F050E32
:102AF6004F6FFF0E486FFF0E496F000E4A6F000EB4
:102B06004B6FFF0E446FFF0E456F000E466F000EB3
:102B1600476FFF0E506FFF0E516F000E526F000E83
:102B2600536FAC8A900EAB6E948E949C9EAA03D083
:082B3600AECF00F0FBD7120046
:102B3E000201B96B0301D36B22EC10F000C054F20A
:102B4E0001C055F2010E0301D36F22EC10F000C04C
:102B5E0056F201C057F20001DC51000A03E10101F7
:102B6E002A6B2B6B0001D951000A03E101013D6B69
:102B7E003E6B0001D851000A22E001018A51020188
:102B8E00555D04E1010189510201545D0AE2FF0E17
:102B9E0001012B5D02E1FA0E2A5D02E22A4B2B2B7C
:102BAE000DD00101000E006E2B51005C02E12A5186
:102BBE00000804E2010E2A5F000E2B5B03D0010118
:102BCE002A6B2B6B2B518C5D02E12A518B5D02E23D
:102BDE000201B9810001DB51000A22E001018A5194
:102BEE000201575D04E1010189510201565D0AE2BD
:102BFE00FF0E01013E5D02E1FA0E3D5D02E23D4B2C
:102C0E003E2B0DD00101000E006E3E51005C02E124
:102C1E003D51000804E2010E3D5F000E3E5B03D005
:102C2E0001013D6B3E6B3E518C5D02E13D518B5D72
:0C2C3E0002E20201B983B9C200F01200EA
:102C4A00838E010E0001B46F010E0301D36FEDEC08
:102C5A0007F000522DE0010E0301D36FD46BAFECE5
:102C6A000FF0530E0201B96F370EBA6F200EBB6F09
:102C7A004D0EBC6F6F0EBD6F740EBE6F6F0EBF6FC1
:102C8A00720EC06F310EC16F530EC26F740EC36FD6
:102C9A00610EC46F720EC56F740EC66FC76BB90E24
:102CAA000301D36F020ED46F010ED56F2EEC08F01C
:102CBA00020E0301D36FEDEC07F000524FE0020E53
:102CCA000301D36FD46BAFEC0FF0530E0201C86F40
:102CDA00370EC96F200ECA6F4D0ECB6F6F0ECC6FB9
:102CEA00740ECD6F6F0ECE6F720ECF6F320ED06F25
:102CFA00530ED16F740ED26F610ED36F720ED46FF2
:102D0A00740ED56FD66BC80E0301D36F020ED46F43
:102D1A00010ED56F2EEC08F0B50E0501C86F000E36
:102D2A00C96F3F0ECA6F010ECB6F100ECC6F000E2B
:102D3A00CD6F17EC01F0910EC86F000EC96FA20E8D
:102D4A00CA6F000ECB6F100ECC6F000ECD6F17EC52
:102D5A0001F0010E0001B36F010EDA6F0A0E0301D2
:102D6A00D36FEDEC07F0005221E0010E0001DC6F99
:102D7A00010E0301D36F27EC0AF08B0EF66E810E5B
:102D8A00F76E000EF86ED70EE16E020EE26E150EA9
:102D9A00006E010E016E3FEC04F0D70E0301D36FF3
:102DAA00020ED46F010ED56F2EEC08F00B0E030144
:102DBA00D36FEDEC07F0005221E0010E0001D96F4C
:102DCA00020E0301D36F27EC0AF0A00EF66E810EF5
:102DDA00F76E000EF86EEC0EE16E020EE26E150E44
:102DEA00006E010E016E3FEC04F0EC0E0301D36F8E
:102DFA00020ED46F010ED56F2EEC08F0050E0301FA
:102E0A00D36FEDEC07F000522FE0010E0301D36FF0
:102E1A00DBC0D4F39FEC0FF00001D76B530E030114
:102E2A00016F370E026F200E036F4D0E046F310EC5
:102E3A00056F200E066F530E076F700E086F650E32
:102E4A00096F650E0A6F640E0B6F200E0C6F550E1C
:102E5A000D6F500E0E6F0F6B010ED36F030ED46FF2
:102E6A00010ED56F2EEC08F0060E0301D36FEDECC0
:102E7A0007F000522FE0D8C0D3F3010E0301D46F3C
:102E8A009FEC0FF00001E06B530E0301106F370E39
:102E9A00116F200E126F4D0E136F320E146F200E2B
:102EAA00156F530E166F700E176F650E186F650E3D
:102EBA00196F640E1A6F200E1B6F550E1C6F500E81
:102ECA001D6F1E6B100ED36F030ED46F010ED56FDC
:102EDA002EEC08F0030E0301D36FEDEC07F000525D
:102EEA0009E10001DC51010A04E102019AA101D0C1
:102EFA0001D02BD0010151A128D05191010E03011B
:102F0A00D36F6BEC07F0530E03011F6F370E206F60
:102F1A00200E216F4D0E226F310E236F200E246F6B
:102F2A00530E256F740E266F6F0E276F700E286F63
:102F3A00650E296F640E2A6F2B6B1F0ED36F030E5B
:102F4A00D46F010ED56F2EEC08F0040E0301D36F77
:102F5A00EDEC07F0005209E10001D951010A04E140
:102F6A0002019AA301D001D02BD0010151A328D08C
:102F7A005193020E0301D36F6BEC07F0530E03015A
:102F8A002C6F370E2D6F200E2E6F4D0E2F6F320EB7
:102F9A00306F200E316F530E326F740E336F6F0E17
:102FAA00346F700E356F650E366F640E376F386B7F
:102FBA002C0ED36F030ED46F010ED56F2EEC08F0D2
:102FCA0002019E51000A05E001018651010A01E051
:102FDA0002D00101519302019BA152D0010E0301BB
:102FEA00D36F6BEC07F0020E0301D36F6BEC07F0A3
:102FFA000001DC6BD96B060E0101636F010E506F85
:10300A00ED0EF66E810EF76E000EF86E390EE16E59
:10301A00030EE26E110E006E010E016E3FEC04F01B
:10302A00390E0301D36F030ED46F010ED56F2EEC48
:10303A0008F0090E0301D36F1DEC09F0B50E050166
:10304A00C86F000EC96F750ECA6F010ECB6F100ED6
:10305A00CC6F000ECD6F17EC01F0910EC86F000E09
:10306A00C96F520ECA6F010ECB6F100ECC6F000ED5
:10307A00CD6F17EC01F0010E0001B36F020EDA6F8B
:10308A0002019951000A50E0010E0301D36F6BEC63
:10309A0007F0020E0301D36F6BEC07F0060E010175
:1030AA00636F0001DC6BD96BFE0EF66E810EF76E54
:1030BA00000EF86E4A0EE16E030EE26E120E006EFC
:1030CA00010E016E3FEC04F04A0E0301D36F030EAA
:1030DA00D46F010ED56F2EEC08F0090E0301D36FE1
:1030EA001DEC09F0B50E0501C86F000EC96F750E0B
:1030FA00CA6F010ECB6F100ECC6F000ECD6F17EC9E
:10310A0001F0910EC86F000EC96F070ECA6F010E4B
:10311A00CB6F100ECC6F000ECD6F17EC01F0010EC5
:10312A000001B36F020EDA6F02019C51010A52E1EB
:10313A00915350E0010E0301D36F6BEC07F0020EBE
:10314A000301D36F6BEC07F0060E0101636F0001F8
:10315A00DC6BD96B100EF66E820EF76E000EF86EEF
:10316A005C0EE16E030EE26E150E006E010E016E2C
:10317A003FEC04F05C0E0301D36F030ED46F010E13
:10318A00D56F2EEC08F0090E0301D36F1DEC09F080
:10319A00B50E0501C86F000EC96F750ECA6F010E14
:1031AA00CB6F100ECC6F000ECD6F17EC01F0910EA5
:1031BA00C86F000EC96F190ECA6F010ECB6F100EC1
:1031CA00CC6F000ECD6F17EC01F0010E0001B36F4A
:1031DA00020EDA6F01015151000A2AE1010E636FF2
:1031EA00186B090E0301D36F1DEC09F0B50E05012A
:1031FA00C86F000EC96F2C0ECA6F010ECB6F100E6E
:10320A00CC6F000ECD6F17EC01F0910EC86F000E57
:10321A00C96FA20ECA6F000ECB6F100ECC6F000ED4
:10322A00CD6F17EC01F0010E0001B36F010EDA6FDA
:10323A0001016351050A04E06351060A01E050D016
:10324A000301D36B1DEC09F0000E0201901902E193
:10325A00000E8F1945E08F51010103250301D36F39
:10326A0002019051010104210301D46F000E0101F2
:10327A0005210301D56F000E010106210301D66F56
:10328A00090ED76F7AEC07F0250EF66E820EF76EEE
:10329A00000EF86E710EE16E030EE26E150E006EF0
:1032AA00010E016E3FEC04F0710ED36F030ED46F62
:1032BA00010ED56F2EEC08F0910E0501C86F000EB5
:1032CA00C96FF20ECA6F000ECB6F100ECC6F000ED4
:1032DA00CD6F17EC01F0010E0001B36F020EDA6F29
:0232EA001200D0
:1032EC0008D2838E020199A106D0020E696F922B2F
:1032FC00010E0001806F020199A307D0010E696FC6
:10330C00030E926F010E0001806F0001DC6BD96B14
:10331C0029D2020E0301D36FD46BAFEC0FF0060E63
:10332C00010103250301D36F000E010104210301E8
:10333C00D46F000E010105210301D56F000E0101B0
:10334C0006210301D66F150ED76F7AEC07F0020138
:10335C00922B08D29AA30CD00001D951010A08E192
:10336C00D96B020E0301D36F6BEC07F00201922BA9
:10337C00150E0301D36FEDEC07F0005203E0010EC4
:10338C000001D96FEFD1010E0301D36FD46BAFECF9
:10339C000FF0060E010103250301D36F000E01018E
:1033AC0004210301D46F000E010105210301D56F27
:1033BC00000E010106210301D66F140ED76F7AECB3
:1033CC0007F00201922B9AA10CD00001DC51010AEA
:1033DC0008E1DC6B010E0301D36F6BEC07F002010B
:1033EC00922B140E0301D36FEDEC07F0005203E0A7
:1033FC00010E0001DC6FB6D103C176F204C177F285
:10340C0005C178F206C179F2010E0301D36F010EEA
:10341C00D46FAFEC0FF0060E010103250301D36F3F
:10342C00000E010104210301D46F000E01010521DE
:10343C000301D56F000E010106210301D66F140E96
:10344C00D76F7AEC07F00201922B8CD19AA118D08D
:10345C000001DC51010A14E1DC6B010E0301D36F96
:10346C006BEC07F002016951010A03E10B0E926F3C
:10347C0001D0922B76510101035D006E00C06BF2FE
:10348C00140E0301D36FEDEC07F0005203E0010EB4
:10349C000001DC6F67D103C176F204C177F205C17C
:1034AC0078F206C179F2020E0301D36F010ED46FCC
:1034BC00AFEC0FF0060E010103250301D36F000ED4
:1034CC00010104210301D46F000E01010521030148
:1034DC00D56F000E010106210301D66F150ED76FB3
:1034EC007AEC07F00201922B3DD19AA312D0000185
:1034FC00D951010A0EE1D96B020E0301D36F6BECAB
:10350C0007F00201922B76510101035D006E00C0A1
:10351C006DF2150E0301D36FEDEC07F0005203E0D2
:10352C00010E0001D96F1ED103C176F204C177F2EE
:10353C0005C178F206C179F2020E0301D36FD46B88
:10354C00AFEC0FF0060E010103250301D36F000E43
:10355C00010104210301D46F000E010105210301B7
:10356C00D56F000E010106210301D66F150ED76F22
:10357C007AEC07F00201922BF5D09AA312D000013D
:10358C00D951010A0EE1D96B020E0301D36F6BEC1A
:10359C0007F00201922B76510101035D006E00C011
:1035AC006CF2150E0301D36FEDEC07F0005203E043
:1035BC00010E0001D96FD6D003C176F204C177F2A7
:1035CC0005C178F206C179F2010E0301D36FD46BF9
:1035DC00AFEC0FF0060E010103250301D36F000EB3
:1035EC00010104210301D46F000E01010521030127
:1035FC00D56F000E010106210301D66F140ED76F93
:10360C007AEC07F00201922BADD09AA112D00001F6
:10361C00DC51010A0EE1DC6B010E0301D36F6BEC84
:10362C0007F00201922B76510101035D006E00C080
:10363C006AF2140E0301D36FEDEC07F0005203E0B5
:10364C00010E0001DC6F8ED06A0E0301D36F020EE7
:10365C00D46FE3EC06F06A0ED36F020ED46F69C21E
:10366C00D5F367EC09F0B50E0501C86F000EC96FF4
:10367C000E0EF66E830EF76E000EF86EB90EE16E3E
:10368C00020EE26E110E006E010E016E3FEC04F0A4
:10369C00B90ECA6F020ECB6F100ECC6F000ECD6F31
:1036AC0017EC01F0910EC86F000EC96F1F0EF66E6D
:1036BC00830EF76E000EF86ECA0EE16E020EE26E0D
:1036CC00110E006E010E016E3FEC04F0CA0ECA6FB3
:1036DC00020ECB6F100ECC6F000ECD6F17EC01F0FD
:1036EC00020E0001DA6F010EB36F839E0101636B52
:1036FC0039D002019251000AD8B4F3D59251010A83
:10370C00D8B407D69251020AD8B424D69251030ADF
:10371C00D8B439D69251040AD8B455D69251050A68
:10372C00D8B46AD69251060AD8B490D69251070AE8
:10373C00D8B4B1D69251080AD8B4D7D69251090A46
:10374C00D8B4F2D692510A0AD8B417D792510B0AB0
:10375C00D8B432D792510C0AD8B457D792510D0A1B
:06376C00D8B472D7120070
:0A377200A9EC05F00101636B1200E1
:10377C00838E010E0001B46F010E0301D36FEDECCB
:10378C0007F000522DE0010E0301D36FD46BAFECA8
:10379C000FF0530E0201B96F340EBA6F200EBB6FCF
:1037AC004D0EBC6F6F0EBD6F740EBE6F6F0EBF6F84
:1037BC00720EC06F310EC16F530EC26F740EC36F99
:1037CC00610EC46F720EC56F740EC66FC76BB90EE7
:1037DC000301D36F020ED46F010ED56F2EEC08F0DF
:1037EC00020E0301D36FEDEC07F000524FE0020E16
:1037FC000301D36FD46BAFEC0FF0530E0201C86F03
:10380C00340EC96F200ECA6F4D0ECB6F6F0ECC6F7E
:10381C00740ECD6F6F0ECE6F720ECF6F320ED06FE7
:10382C00530ED16F740ED26F610ED36F720ED46FB4
:10383C00740ED56FD66BC80E0301D36F020ED46F06
:10384C00010ED56F2EEC08F0B50E0501C86F000EF9
:10385C00C96F3F0ECA6F010ECB6F100ECC6F000EEE
:10386C00CD6F17EC01F0910EC86F000EC96FA20E50
:10387C00CA6F000ECB6F100ECC6F000ECD6F17EC15
:10388C0001F0010E0001B36F010EDA6F0A0E030195
:10389C00D36FEDEC07F0005221E0010E0001DC6F5C
:1038AC00010E0301D36F27EC0AF09F0EF66E7F0E0C
:1038BC00F76E000EF86ED70EE16E020EE26E150E6C
:1038CC00006E010E016E3FEC04F0D70E0301D36FB6
:1038DC00020ED46F010ED56F2EEC08F00B0E030107
:1038EC00D36FEDEC07F0005221E0010E0001D96F0F
:1038FC00020E0301D36F27EC0AF0B40EF66E7F0EA6
:10390C00F76E000EF86EEC0EE16E020EE26E150E06
:10391C00006E010E016E3FEC04F0EC0E0301D36F50
:10392C00020ED46F010ED56F2EEC08F0050E0301BC
:10393C00D36FEDEC07F0005230E0010E0301D36FB2
:10394C00DBC0D4F39FEC0FF00001DC6BD76B530E94
:10395C000301016F340E026F200E036F4D0E046FC6
:10396C00310E056F200E066F530E076F700E086F29
:10397C00650E096F650E0A6F640E0B6F200E0C6FCF
:10398C00550E0D6F500E0E6F0F6B010ED36F030E95
:10399C00D46F010ED56F2EEC08F0070E0301D36F18
:1039AC00EDEC07F0005223E00301D36BDBC0D4F342
:1039BC009FEC0FF00001DC6B010ED76FD80EF66E8A
:1039CC007F0EF76E000EF86E100EE16E030EE26EB7
:1039DC00110E006E010E016E3FEC04F0100E03018F
:1039EC00D36F030ED46F010ED56F2EEC08F0060EBC
:1039FC000301D36FEDEC07F000522FE0D8C0D3F3E6
:103A0C00010E0301D46F9FEC0FF00001E06B530E1D
:103A1C000301216F340E226F200E236F4D0E246F85
:103A2C00320E256F200E266F530E276F700E286FE7
:103A3C00650E296F650E2A6F640E2B6F200E2C6F8E
:103A4C00550E2D6F500E2E6F2F6B210ED36F030E54
:103A5C00D46F010ED56F2EEC08F0080E0301D36F56
:103A6C00EDEC07F0005222E0D8C0D3F30301D46B85
:103A7C009FEC0FF0010E0001E06FF80EF66E7F0E5A
:103A8C00F76E000EF86E300EE16E030EE26E110E44
:103A9C00006E010E016E3FEC04F0300E0301D36F8B
:103AAC00030ED46F010ED56F2EEC08F0030E03013C
:103ABC00D36FEDEC07F0005229E001015191010E9A
:103ACC000301D36F6BEC07F0530E0301416F340EFF
:103ADC00426F200E436F4D0E446F310E456F200E1A
:103AEC00466F530E476F740E486F6F0E496F700E12
:103AFC004A6F650E4B6F640E4C6F4D6B410ED36F5E
:103B0C00030ED46F010ED56F2EEC08F0040E0301DA
:103B1C00D36FEDEC07F0005229E001015193020E36
:103B2C000301D36F6BEC07F0530E03014E6F340E91
:103B3C004F6F200E506F4D0E516F320E526F200E84
:103B4C00536F530E546F740E556F6F0E566F700E7D
:103B5C00576F650E586F640E596F5A6B4E0ED36FBC
:103B6C00030ED46F010ED56F2EEC08F00001DC5162
:103B7C00010A57E102019AA154D00001D751000A61
:103B8C0050E1010E0301D36F6BEC07F0020E030141
:103B9C00D36F6BEC07F0060E0101636F0001DC6B59
:103BAC00D96B230EF66E800EF76E000EF86E5B0E60
:103BBC00E16E030EE26E110E006E010E016E3FEC13
:103BCC0004F05B0E0301D36F030ED46F010ED56F9F
:103BDC002EEC08F0090E0301D36F1DEC09F0B50EA5
:103BEC000501C86F000EC96F750ECA6F010ECB6F41
:103BFC00100ECC6F000ECD6F17EC01F0910EC86F4C
:103C0C00000EC96F640ECA6F010ECB6F100ECC6F15
:103C1C00000ECD6F17EC01F0010E0001B36F020E18
:103C2C00DA6F0001D951010A57E102019AA354D06D
:103C3C000001E051000A50E1010E0301D36F6BEC5F
:103C4C0007F0020E0301D36F6BEC07F0060E0101B7
:103C5C00636F0001DC6BD96B340EF66E800EF76E61
:103C6C00000EF86E6C0EE16E030EE26E110E006E1D
:103C7C00010E016E3FEC04F06C0E0301D36F030ECA
:103C8C00D46F010ED56F2EEC08F0090E0301D36F23
:103C9C001DEC09F0B50E0501C86F000EC96F750E4D
:103CAC00CA6F010ECB6F100ECC6F000ECD6F17ECE0
:103CBC0001F0910EC86F000EC96F640ECA6F010E31
:103CCC00CB6F100ECC6F000ECD6F17EC01F0010E08
:103CDC000001B36F020EDA6F02019E51000A05E07B
:103CEC0001018651010A01E002D001015193020148
:103CFC009BA152D0010E0301D36F6BEC07F0020EA7
:103D0C000301D36F6BEC07F00001DC6BD96B060E73
:103D1C000101636F010E506F450EF66E800EF76E4B
:103D2C00000EF86E7D0EE16E030EE26E110E006E4B
:103D3C00010E016E3FEC04F07D0E0301D36F030EF8
:103D4C00D46F010ED56F2EEC08F0090E0301D36F62
:103D5C001DEC09F0B50E0501C86F000EC96F750E8C
:103D6C00CA6F010ECB6F100ECC6F000ECD6F17EC1F
:103D7C0001F0910EC86F000EC96F520ECA6F010E82
:103D8C00CB6F100ECC6F000ECD6F17EC01F0010E47
:103D9C000001B36F020EDA6F02019C51010A52E16D
:103DAC00915350E0010E0301D36F6BEC07F0020E40
:103DBC000301D36F6BEC07F0060E0101636F00017A
:103DCC00DC6BD96B560EF66E800EF76E000EF86E2D
:103DDC008E0EE16E030EE26E150E006E010E016E7C
:103DEC003FEC04F08E0E0301D36F030ED46F010E63
:103DFC00D56F2EEC08F0090E0301D36F1DEC09F002
:103E0C00B50E0501C86F000EC96F750ECA6F010E95
:103E1C00CB6F100ECC6F000ECD6F17EC01F0910E26
:103E2C00C86F000EC96F190ECA6F010ECB6F100E42
:103E3C00CC6F000ECD6F17EC01F0010E0001B36FCB
:103E4C00020EDA6F02019951000A50E0010E0301D3
:103E5C00D36F6BEC07F0020E0301D36F6BEC07F022
:103E6C00060E0101636F0001DC6BD96B6B0EF66EF5
:103E7C00800EF76E000EF86EA30EE16E030EE26E6E
:103E8C00120E006E010E016E3FEC04F0A30E030146
:103E9C00D36F030ED46F010ED56F2EEC08F0090E04
:103EAC000301D36F1DEC09F0B50E0501C86F000EB0
:103EBC00C96F750ECA6F010ECB6F100ECC6F000E52
:103ECC00CD6F17EC01F0910EC86F000EC96F070E85
:103EDC00CA6F010ECB6F100ECC6F000ECD6F17ECAE
:103EEC0001F0010E0001B36F020EDA6F01015151A6
:103EFC00000A2AE1010E636F186B090E0301D36FE0
:103F0C001DEC09F0B50E0501C86F000EC96F2C0E23
:103F1C00CA6F010ECB6F100ECC6F000ECD6F17EC6D
:103F2C0001F0910EC86F000EC96FA20ECA6F000E81
:103F3C00CB6F100ECC6F000ECD6F17EC01F0010E95
:103F4C000001B36F010EDA6F01016351050A04E041
:103F5C006351060A01E050D00301D36B1DEC09F04C
:103F6C00000E0201901902E1000E8F1945E08F51ED
:103F7C00010103250301D36F0201905101010421BA
:103F8C000301D46F000E010105210301D56F000E52
:103F9C00010106210301D66F090ED76F7AEC07F0E9
:103FAC007D0EF66E800EF76E000EF86EB50EE16E9D
:103FBC00030EE26E150E006E010E016E3FEC04F066
:103FCC00B50ED36F030ED46F010ED56F2EEC08F027
:103FDC00910E0501C86F000EC96FF20ECA6F000E6C
:103FEC00CB6F100ECC6F000ECD6F17EC01F0010EE5
:0A3FFC000001B36F020EDA6F12002D
:10400600030E0201EF6F839E0001B46B020199510A
:10401600000A04E10101505301E151D10101506B45
:10402600838E010E0001B46F090E0301D36F1DECE0
:1040360009F00101885317E0010E03250301D36F30
:10404600000E010104210301D46F000E01010521B8
:104056000301D56F000E010106210301D66F0C0E78
:10406600D76F7AEC07F00201EF5101010325006ECC
:10407600000E0421016E000E0521026E000E0621BF
:10408600036E00C03FF201C040F202C041F203C01D
:1040960042F200C0D3F301C0D4F302C0D5F303C08B
:1040A600D6F3010E0301D76F7AEC07F03FC2D3F3C4
:1040B60040C2D4F341C2D5F342C2D6F3050ED76F40
:1040C6007AEC07F00001D76B060E01010325006E9E
:1040D600000E0421016E000E0521026E000E06215F
:1040E600036E0201EF510026000E01220222032276
:1040F60000C03FF201C040F202C041F203C042F2EA
:1041060000C0D3F301C0D4F302C0D5F303C0D6F385
:104116000A0E0301D76F7AEC07F002012F51010155
:104126000325006E000E0421016E000E0521026EAD
:10413600000E0621036E0201EF510026000E012239
:104146000222032200C03FF201C040F202C041F247
:1041560003C042F200C0D3F301C0D4F302C0D5F3CA
:1041660003C0D6F3030E0301D76F7AEC07F0020102
:104176009E51000AD8B499D001018651020AD8A4EA
:1041860094D002013151010103250301D36F000EC2
:10419600010104210301D46F000E01010521030171
:1041A600D56F000E010106210301D66F0201EF5102
:1041B6000301D327000ED423D523D623020ED76FAF
:1041C6007AEC07F002013151010103250301D36F97
:1041D600000E010104210301D46F000E0101052127
:1041E6000301D56F000E010106210301D66F0201FE
:1041F600EF510301D327000ED423D523D623060E71
:10420600D76F7AEC07F00001E06B02013151010132
:1042160003250301D36F000E010104210301D46FAE
:10422600000E010105210301D56F000E01010621D3
:104236000301D66F060ED327000ED423D523D6232B
:104246000201EF510301D327000ED423D523D62331
:104256000B0ED76F7AEC07F002019E510101032580
:104266000301D36F000E010104210301D46F000E78
:10427600010105210301D56F000E0101062103018D
:10428600D66F020131510301D327000ED423D52363
:10429600D6230201EF510301D327000ED423D523E1
:1042A600D623040ED76F7AEC07F0030E0101876F51
:1042B6000001DC6BD96B0101186B080E636F090EE8
:1042C6000301D36FEDEC07F00050010AD8A42ED1FC
:1042D600090E0301D36F1DEC09F00201EF51010134
:1042E6000325006E000E0421016E000E0521026EEC
:1042F600000E0621036E00C03FF201C040F202C06C
:1043060041F203C042F200C0D3F301C0D4F302C0AD
:10431600D5F303C0D6F3010E0301D76F7AEC07F08D
:104326003FC2D3F340C2D4F341C2D5F342C2D6F35F
:10433600050ED76F7AEC07F00001D76B060E010168
:104346000325006E000E0421016E000E0521026E8B
:10435600000E0621036E0201EF510026000E012217
:104366000222032200C03FF201C040F202C041F225
:1043760003C042F200C0D3F301C0D4F302C0D5F3A8
:1043860003C0D6F30A0E0301D76F7AEC07F00101DA
:10439600A0510325006E000E0421016E000E0521BA
:1043A600026E000E0621036E0201EF510026000E7A
:1043B60001220222032200C03FF201C040F202C0E5
:1043C60041F203C042F200C0D3F301C0D4F302C0ED
:1043D600D5F303C0D6F3030E0301D76F7AEC07F0CB
:1043E6000101A151000AD8B497D08651020AD8A477
:1043F60093D002013151010103250301D36F000E51
:10440600010104210301D46F000E010105210301FE
:10441600D56F000E010106210301D66F0201EF518F
:104426000301D327000ED423D523D623020ED76F3C
:104436007AEC07F002013151010103250301D36F24
:10444600000E010104210301D46F000E01010521B4
:104456000301D56F000E010106210301D66F02018B
:10446600EF510301D327000ED423D523D623060EFE
:10447600D76F7AEC07F00001E06B020131510101C0
:1044860003250301D36F000E010104210301D46F3C
:10449600000E010105210301D56F000E0101062161
:1044A6000301D66F060ED327000ED423D523D623B9
:1044B6000201EF510301D327000ED423D523D623BF
:1044C6000B0ED76F7AEC07F00101A051032503010B
:1044D600D36F000E010104210301D46F000E010108
:1044E60005210301D56F000E010106210301D66FD8
:1044F600020131510301D327000ED423D523D6233D
:104506000201EF510301D327000ED423D523D6236E
:10451600040ED76F7AEC07F0030E0101516F00010C
:10452600DC6BD96B0101186B070E636F02019BA14F
:1045360028D0000E901902E1000E8F1922E0010129
:104546001851000A1EE1010E186F5FEC08F000C05A
:1045560081F07E0EF66E820EF76E000EF86EB90EC4
:10456600E16E020EE26E160E006E010E016E3FEC5B
:1045760004F0B90ED36F020ED46F010ED56F2EEC78
:1045860008F001011851010A5FE102019BB15CD0FC
:10459600000E901902E1000E8F1956E000018151BC
:1045A60001010325006E000E0421016E000E052197
:1045B600026E000E0621036E00C03FF201C040F2FB
:1045C60002C041F203C042F200C0D3F301C0D4F3EB
:1045D60002C0D5F303C0D6F3090E0301D76F7AECF8
:1045E60007F00101186B3FC2BCF540C2BDF541C2E0
:1045F600BEF542C2BFF5320E0501C06F020EC16F95
:1046060047EC04F0940EF66E820EF76E000EF86E0E
:10461600CF0EE16E020EE26E100E006E010E016EFE
:104626003FEC04F0CF0E0301D36F020ED46F010EE0
:10463600D56F2EEC08F0320E0301D36F020ED46F45
:0A464600010ED56F2EEC08F01200F3
:10465000020E0201FB6FFC6B839E0001B46BC2EC87
:1046600008F000500201FC1937E07F6AC2EC08F044
:1046700000C0FCF200C0D3F39C0ED46F000ED56FC7
:10468000F9EC0FF0910EC86F000EC96F430E0201D6
:10469000B96F6C0EBA6F6F0EBB6F730EBC6F650E89
:1046A000BD6F200EBE6F610EBF6F660EC06F740EC1
:1046B000C16F650EC26F720EC36FC46BB90E050178
:1046C000CA6F020ECB6F0B0ECC6F000ECD6F17ECC6
:1046D00001F0010E0001B36F02019951000A08E1D7
:1046E000090E0301D36FEDEC07F0005201E1C4D3D2
:1046F0000301D36B1DEC09F00101A151000A04E094
:104700008651010A01E042D10201FB51010103255A
:10471000006E000E0421016E000E0521026E000ED7
:104720000621036E00C03FF201C040F202C041F218
:1047300003C042F200C0D3F301C0D4F302C0D5F3EA
:1047400003C0D6F3010E0301D76F7AEC07F0020124
:104750003D51000A11E03FC2D3F340C2D4F341C23D
:10476000D5F342C2D6F3070E0301D76F7AEC07F0F8
:10477000010E0001D76F0FD03FC2D3F340C2D4F374
:1047800041C2D5F342C2D6F3050E0301D76F7AECCE
:1047900007F00001D76B02013D5101010325006EB6
:1047A000000E0421016E000E0521026E000E06218E
:1047B000036E060E0026000E0122022203220201D1
:1047C000FB510026000E01220222032200C03FF20C
:1047D00001C040F202C041F203C042F200C0D3F374
:1047E00001C0D4F302C0D5F303C0D6F30A0E03010F
:1047F000D76F7AEC07F002013D5101010325006EED
:10480000000E0421016E000E0521026E000E06212D
:10481000036E0201FB510026000E01220222032238
:1048200000C03FF201C040F202C041F203C042F2B8
:1048300000C0D3F301C0D4F302C0D5F303C0D6F354
:10484000050E0301D76F7AEC07F002013E51000A12
:104850002FE00101A0510325006E000E0421016E1E
:10486000000E0521026E000E0621036E02013E516C
:10487000005E000E015A025A035AFB510026000E38
:1048800001220222032200C03FF201C040F202C016
:1048900041F203C042F200C0D3F301C0D4F302C01E
:1048A000D5F303C0D6F3070E0301D76F7AEC07F0F8
:1048B00001018E51000A41E0A0510325006E000E57
:1048C0000421016E000E0521026E000E0621036E0A
:1048D0000201FB510026000E01220222032200C029
:1048E0003FF201C040F202C041F203C042F200C0F8
:1048F000D3F301C0D4F302C0D5F303C0D6F3050E41
:104900000301D76F7AEC07F0020E02013F25030185
:10491000D36F000E020140210301D46F000E02018B
:1049200041210301D56F000E020142210301D66F20
:10493000030ED76F7AEC07F029D00101A0510325AF
:10494000006E000E0421016E000E0521026E000EA5
:104950000621036E0201FB510026000E01220222F5
:10496000032200C03FF201C040F202C041F203C086
:1049700042F200C0D3F301C0D4F302C0D5F303C0A8
:10498000D6F3030E0301D76F7AEC07F00101A151B2
:10499000000AD8B468D28651020AD8A464D20201AF
:1049A000FB5101010325006E000E0421016E000E73
:1049B0000521026E000E0621036E00C03FF201C009
:1049C00040F202C041F203C042F200C0D3F301C082
:1049D000D4F302C0D5F303C0D6F3020E0301D76FA0
:1049E0007AEC07F002013D51000A11E03FC2D3F317
:1049F00040C2D4F341C2D5F342C2D6F3080E03013C
:104A0000D76F7AEC07F0010E0001E06F0FD03FC2C4
:104A1000D3F340C2D4F341C2D5F342C2D6F3060E5B
:104A20000301D76F7AEC07F00001E06B02013D5102
:104A300001010325006E000E0421016E000E052108
:104A4000026E000E0621036E060E0026000E0122E5
:104A5000022203220201FB510026000E0122022243
:104A6000032200C03FF201C040F202C041F203C085
:104A700042F200C0D3F301C0D4F302C0D5F303C0A7
:104A8000D6F30B0E0301D76F7AEC07F002013D510C
:104A900001010325006E000E0421016E000E0521A8
:104AA000026E000E0621036E0201FB510026000E6D
:104AB00001220222032200C03FF201C040F202C0E4
:104AC00041F203C042F200C0D3F301C0D4F302C0EC
:104AD000D5F303C0D6F3060E0301D76F7AEC07F0C7
:104AE00002013E51000A2FE00101A1510325006E91
:104AF000000E0421016E000E0521026E000E06213B
:104B0000036E02013E51005E000E015A025A035A22
:104B1000FB510026000E01220222032200C03FF2B8
:104B200001C040F202C041F203C042F200C0D3F320
:104B300001C0D4F302C0D5F303C0D6F3080E0301BD
:104B4000D76F7AEC07F00101A1510325006E000E2A
:104B50000421016E000E0521026E000E0621036E77
:104B60000201FB510026000E01220222032200C096
:104B70003FF201C040F202C041F203C042F200C065
:104B8000D3F301C0D4F302C0D5F303C0D6F3040EAF
:104B90000301D76F7AEC07F00201315101010325BF
:104BA000006E000E0421016E000E0521026E000E43
:104BB0000621036E0201FB510026000E0122022293
:104BC000032200C03FF201C040F202C041F203C024
:104BD00042F200C0D3F301C0D4F302C0D5F303C046
:104BE000D6F3010E0301D76F7AEC07F002013D51B5
:104BF000000A11E03FC2D3F340C2D4F341C2D5F35F
:104C000042C2D6F3070E0301D76F7AEC07F0010E0C
:104C10000001D76F0FD03FC2D3F340C2D4F341C2DB
:104C2000D5F342C2D6F3050E0301D76F7AEC07F035
:104C30000001D76B0201315101010325006E000E06
:104C40000421016E000E0521026E000E0621036E86
:104C500002013D510026000E012202220322060E0F
:104C60000026000E012202220322FB510026000E24
:104C700001220222032200C03FF201C040F202C022
:104C800041F203C042F200C0D3F301C0D4F302C02A
:104C9000D5F303C0D6F30A0E0301D76F7AEC07F001
:104CA0000201315101010325006E000E0421016E45
:104CB000000E0521026E000E0621036E02013D5119
:104CC0000026000E012202220322FB510026000EC4
:104CD00001220222032200C03FF201C040F202C0C2
:104CE00041F203C042F200C0D3F301C0D4F302C0CA
:104CF000D5F303C0D6F3050E0301D76F7AEC07F0A6
:104D000002013E51000A35E0315101010325006ED8
:104D1000000E0421016E000E0521026E000E062118
:104D2000036EA0510026000E01220222032202017E
:104D30003E51005E000E015A025A035AFB510026F2
:104D4000000E01220222032200C03FF201C040F205
:104D500002C041F203C042F200C0D3F301C0D4F359
:104D600002C0D5F303C0D6F3070E0301D76F7AEC68
:104D700007F001018E51000A47E0A0510325006EA3
:104D8000000E0421016E000E0521026E000E0621A8
:104D9000036E020131510026000E0122022203227D
:104DA000FB510026000E01220222032200C03FF226
:104DB00001C040F202C041F203C042F200C0D3F38E
:104DC00001C0D4F302C0D5F303C0D6F3050E03012E
:104DD000D76F7AEC07F0020E02013F250301D36F73
:104DE000000E020140210301D46F000E0201412197
:104DF0000301D56F000E020142210301D66F030E9D
:104E0000D76F7AEC07F02FD00101A0510325006E77
:104E1000000E0421016E000E0521026E000E062117
:104E2000036E020131510026000E012202220322EC
:104E3000FB510026000E01220222032200C03FF295
:104E400001C040F202C041F203C042F200C0D3F3FD
:104E500001C0D4F302C0D5F303C0D6F3030E03019F
:104E6000D76F7AEC07F0030E0101516F0001DC6B84
:104E7000D96B040E0101636F02019BA128D0000EC3
:104E8000901902E1000E8F1922E001011851000A69
:104E90001EE1010E186F5FEC08F000C081F0460EB5
:104EA000F66E820EF76E000EF86EC50EE16E020E03
:104EB000E26E160E006E010E016E3FEC04F0C50EA0
:104EC000D36F020ED46F010ED56F2EEC08F00101E6
:104ED0001851010AD8A4BAD002019BB1B7D0000E74
:104EE000901902E1000E8F19D8B4B0D001019F5182
:104EF000000A57E10001815101010325006E000EF7
:104F00000421016E000E0521026E000E0621036EC3
:104F100000C03FF201C040F202C041F203C042F2C1
:104F200000C0D3F301C0D4F302C0D5F303C0D6F35D
:104F3000090E0301D76F7AEC07F00101186B3FC22D
:104F4000BCF540C2BDF541C2BEF542C2BFF5320E4E
:104F50000501C06F020EC16F47EC04F05C0EF66EE7
:104F6000820EF76E000EF86EDB0EE16E020EE26E40
:104F7000100E006E010E016E3FEC04F0DB0E03011B
:104F8000D36F020ED46F010ED56F2EEC08F0320EE7
:104F90000301D36F020ED46F010ED56F2EEC08F013
:104FA00055D001019F510325006E000E0421016EB2
:104FB000000E0521026E000E0621036E00C03FF2B6
:104FC00001C040F202C041F203C042F200C0D3F37C
:104FD00001C0D4F302C0D5F303C0D6F3090E030118
:104FE000D76F7AEC07F00101186B3FC2BCF540C2E5
:104FF000BDF541C2BEF542C2BFF5320E0501C06F1C
:10500000020EC16F47EC04F06C0EF66E820EF76E66
:10501000000EF86EEB0EE16E020EE26E100E006EE8
:10502000010E016E3FEC04F0EB0E0301D36F020E94
:10503000D46F010ED56F2EEC08F0320E0301D36F42
:0E504000020ED46F010ED56F2EEC08F0120098
:10504E00020E0201EF6F839E0001B46B02019951B3
:10505E00000A09E1090E0301D36FEDEC07F00050D1
:10506E00010A01E0DFD10101A151000A04E08651DD
:10507E00010A01E088D0090E0301D36F1DEC09F07F
:10508E000201EF5101010325006E000E0421016E95
:10509E00000E0521026E000E0621036E00C03FF2C7
:1050AE0001C040F202C041F203C042F200C0D3F38D
:1050BE0001C0D4F302C0D5F303C0D6F3010E030131
:1050CE00D76F7AEC07F03FC2D3F340C2D4F341C29C
:1050DE00D5F342C2D6F3050ED76F7AEC07F0000176
:1050EE00D76B060E01010325006E000E0421016E22
:1050FE00000E0521026E000E0621036E0201EF5115
:10510E000026000E01220222032200C03FF201C03F
:10511E0040F202C041F203C042F200C0D3F301C01C
:10512E00D4F302C0D5F303C0D6F30A0E0301D76F32
:10513E007AEC07F00101A0510325006E000E042148
:10514E00016E000E0521026E000E0621036E020195
:10515E00EF510026000E01220222032200C03FF270
:10516E0001C040F202C041F203C042F200C0D3F3CC
:10517E0001C0D4F302C0D5F303C0D6F3030E03016E
:10518E00D76F7AEC07F00101A151000AD8B441D1D2
:10519E008651020AD8A43DD1090E0301D36F1DEC2E
:1051AE0009F00201EF5101010325006E000E0421EA
:1051BE00016E000E0521026E000E0621036E00C068
:1051CE003FF201C040F202C041F203C042F200C001
:1051DE00D3F301C0D4F302C0D5F303C0D6F3020E4D
:1051EE000301D76F7AEC07F03FC2D3F340C2D4F37A
:1051FE0041C2D5F342C2D6F3060ED76F7AEC07F052
:10520E000001D76B060E01010325006E000E04216E
:10521E00016E000E0521026E000E0621036E0201C4
:10522E00EF510026000E01220222032200C03FF29F
:10523E0001C040F202C041F203C042F200C0D3F3FB
:10524E0001C0D4F302C0D5F303C0D6F30B0E030195
:10525E00D76F7AEC07F00101A0510325006E000E06
:10526E000421016E000E0521026E000E0621036E52
:10527E000201EF510026000E01220222032200C07D
:10528E003FF201C040F202C041F203C042F200C040
:10529E00D3F301C0D4F302C0D5F303C0D6F3040E8A
:1052AE000301D76F7AEC07F002013151010103259A
:1052BE00006E000E0421016E000E0521026E000E1E
:1052CE000621036E0201EF510026000E012202227A
:1052DE00032200C03FF201C040F202C041F203C0FF
:1052EE0042F200C0D3F301C0D4F302C0D5F303C021
:1052FE00D6F3010E0301D76F7AEC07F0020131519C
:10530E0001010325006E000E0421016E000E052121
:10531E00026E000E0621036E0201EF510026000EF2
:10532E0001220222032200C03FF201C040F202C05D
:10533E0041F203C042F200C0D3F301C0D4F302C065
:10534E00D5F303C0D6F3050E0301D76F7AEC07F041
:10535E000001E06B0201315101010325006E000EC8
:10536E000421016E000E0521026E000E0621036E51
:10537E00060E0026000E0122022203220201EF5128
:10538E000026000E01220222032200C03FF201C0BD
:10539E0040F202C041F203C042F200C0D3F301C09A
:1053AE00D4F302C0D5F303C0D6F30A0E0301D76FB0
:1053BE007AEC07F00101A1510325006E000E0421C5
:1053CE00016E000E0521026E000E0621036E020113
:1053DE00EF510026000E0122022203223151002637
:1053EE00000E01220222032200C03FF201C040F251
:1053FE0002C041F203C042F200C0D3F301C0D4F3A5
:10540E0002C0D5F303C0D6F3030E0301D76F7AECB7
:10541E0007F0030E0101516F0001DC6BD96B070E13
:10542E000101636F02019BA128D0000E901902E1C9
:10543E00000E8F1922E001011851000A1EE1010E23
:10544E00186F5FEC08F000C081F0B50EF66E820E9C
:10545E00F76E000EF86EB90EE16E020EE26E160ECB
:10546E00006E010E016E3FEC04F0B90ED36F020E0A
:10547E00D46F010ED56F2EEC08F001011851010A00
:10548E005FE102019BB15CD0000E901902E1000EAB
:10549E008F1956E00001815101010325006E000EA7
:1054AE000421016E000E0521026E000E0621036E10
:1054BE0000C03FF201C040F202C041F203C042F20E
:1054CE0000C0D3F301C0D4F302C0D5F303C0D6F3AA
:1054DE00090E0301D76F7AEC07F00101186B3FC27A
:1054EE00BCF540C2BDF541C2BEF542C2BFF5320E9B
:1054FE000501C06F020EC16F47EC04F0CB0EF66EC5
:10550E00820EF76E000EF86ECF0EE16E020EE26E98
:10551E00100E006E010E016E3FEC04F0CF0E030173
:10552E00D36F020ED46F010ED56F2EEC08F0320E33
:10553E000301D36F020ED46F010ED56F2EEC08F05F
:02554E00120049
:10555000030E0201B96FBA6BBB6BBC6BBD6B839E54
:105560000001B46B02019551020A04E1640E0101CD
:10557000636F1B6A0201995103080101866F0201E2
:105580009951000AD8B4EDD2090E0301D36F1DEC76
:1055900009F0838E010E0001B46F0101885317E0FA
:1055A000010E03250301D36F000E01010421030145
:1055B000D46F000E010105210301D56F000E01011A
:1055C00006210301D66F0C0ED76F7AEC07F00201AB
:1055D000B95101010325006E000E0421016E000E79
:1055E0000521026E000E0621036E00C03FF201C0CD
:1055F00040F202C041F203C042F200C0D3F301C046
:10560000D4F302C0D5F303C0D6F3010E0301D76F64
:105610007AEC07F00101A251000A11E03FC2D3F376
:1056200040C2D4F341C2D5F342C2D6F3070E030100
:10563000D76F7AEC07F0010E0001D76F0FD03FC291
:10564000D3F340C2D4F341C2D5F342C2D6F3050E20
:105650000301D76F7AEC07F00001D76B0101A2516B
:105660000325006E000E0421016E000E0521026E5E
:10567000000E0621036E060E0026000E01220222F5
:1056800003220201B9510026000E01220222032248
:1056900000C03FF201C040F202C041F203C042F23A
:1056A00000C0D3F301C0D4F302C0D5F303C0D6F3D6
:1056B0000A0E0301D76F7AEC07F00101A25103250E
:1056C000006E000E0421016E000E0521026E000E18
:1056D0000621036E0201B9510026000E01220222AA
:1056E000032200C03FF201C040F202C041F203C0F9
:1056F00042F200C0D3F301C0D4F302C0D5F303C01B
:10570000D6F3050E0301D76F7AEC07F00201305192
:10571000000A2FE02F5101010325006E000E042125
:10572000016E000E0521026E000E0621036E0201BD
:105730003051005E000E015A025A035AB951002638
:10574000000E01220222032200C03FF201C040F2FB
:1057500002C041F203C042F200C0D3F301C0D4F34F
:1057600002C0D5F303C0D6F3070E0301D76F7AEC5E
:1057700007F002012F5101010325006E000E0421E4
:10578000016E000E0521026E000E0621036E02015D
:10579000B9510026000E01220222032200C03FF26E
:1057A00001C040F202C041F203C042F200C0D3F394
:1057B00001C0D4F302C0D5F303C0D6F3030E030136
:1057C000D76F7AEC07F002012F5101010325020186
:1057D000BA6F000E010104210201BB6F000E01012E
:1057E00005210201BC6F000E010106210201BD6FFF
:1057F000B951BA27000EBB23BC23BD239E51000A1A
:10580000D8B47DD101018651020AD8A478D1020111
:10581000315101010325006E000E0421016E000EBE
:105820000521026E000E0621036E0201B951002609
:10583000000E01220222032200C03FF201C040F20A
:1058400002C041F203C042F200C0D3F301C0D4F35E
:1058500002C0D5F303C0D6F3020E0301D76F7AEC72
:1058600007F00101A251000A2EE0020131510101AD
:105870000325006E000E0421016E000E0521026E4C
:10588000000E0621036E0201B9510026000E01220E
:105890000222032200C03FF201C040F202C041F2E6
:1058A00003C042F200C0D3F301C0D4F302C0D5F369
:1058B00003C0D6F3080E0301D76F7AEC07F0010E90
:1058C0000001E06F2CD00201315101010325006E6F
:1058D000000E0421016E000E0521026E000E06214D
:1058E000036E0201B9510026000E0122022203229A
:1058F00000C03FF201C040F202C041F203C042F2D8
:1059000000C0D3F301C0D4F302C0D5F303C0D6F373
:10591000060E0301D76F7AEC07F00001E06B02017D
:10592000315101010325006E000E0421016E000EAD
:105930000521026E000E0621036EA2510026000E04
:10594000012202220322060E0026000E012202225C
:1059500003220201B9510026000E01220222032275
:1059600000C03FF201C040F202C041F203C042F267
:1059700000C0D3F301C0D4F302C0D5F303C0D6F303
:105980000B0E0301D76F7AEC07F0020131510101D0
:105990000325006E000E0421016E000E0521026E2B
:1059A000000E0621036EA2510026000E01220222E3
:1059B00003220201B9510026000E01220222032215
:1059C00000C03FF201C040F202C041F203C042F207
:1059D00000C0D3F301C0D4F302C0D5F303C0D6F3A3
:1059E000060E0301D76F7AEC07F002013051000A6E
:1059F00035E0315101010325006E000E0421016ED6
:105A0000000E0521026E000E0621036E02019E515A
:105A10000026000E0122022203223051005E000EF9
:105A2000015A025A035AB9510026000E01220222DD
:105A3000032200C03FF201C040F202C041F203C0A5
:105A400042F200C0D3F301C0D4F302C0D5F303C0C7
