:0400000017EF3AF0CC
:1000080000C019F001C018F004C017F008C016F0BD
:100018000CC015F0F2A432D00301D52B8088010E54
:100028000501146F190E0301D35D03E3D36BD46B81
:1000380001D0D32B190E0801BA5D04E3BA6B030192
:10004800D76B02D00801BA2B190E0301D55D11E355
:10005800D56B010E08013F27000E402341234223A0
:100068005953010ED8A4000E596F8098010E05014E
:10007800156FF30ED76ECA0ED66EF294F0A017D095
:100088000301D451000A03E1D42BD36B01D0D42B44
:10009800050ED45D0BE3130ED35D07E3D3511508AA
:1000A80004E3010ED86FD46B01D0D46BF090F0A2AA
:1000B8001DD00301D751000A04E1D72B0801BA6B00
:1000C80002D00301D72B0301050ED75D0EE3130EF3
:1000D8000801BA5D08E3BA51150805E3010E0301EA
:1000E800D96FD76B02D00301D76BF092F2A235D04B
:1000F8000301D62BD651FF0A02E1020ED66F030E7A
:10010800046ED6C300F06BD808C000F00050010A96
:1001180012E10801A45306E00601BE5302E08186FD
:1001280001D081960801435306E00601BD5302E061
:10013800818801D08198030E046ED6C300F04FD891
:1001480008C000F00050000A07E10801A453D8A431
:1001580081864353D8A48188F29219C000F018C050
:1001680001F017C004F016C008F015C00CF011001B
:10017800F6C9C9FFC7B002D00000FCD7C9CF00F04C
:02018800120063
:0E018A00ACB202D00000FCD7F6C9ADFF1200E7
:10019800086A096A100E0C6E0134083609360450D4
:1001A800085E0550D8A0053C095ED8B007D00450B9
:1001B80008260550D8B0053C0926D89000360136E7
:0601C8000C2EEAD7120024
:1001CE00F250026EF29E0500FF6A0150FE6E005064
:0801DE00FD6E02BEF28E12005C
:1001E600086A080E0C6E003408360450085ED8B053
:0E01F60002D00826D89000360C2EF5D7120045
:100204000901F36B050EF35D0AE2F351F125E16E8A
:10021400000EF221E26E200EE66EF32BF3D7F351BB
:10022400F125E16E000EF221E26EE66AF307F35166
:10023400F125F46F000EF221F56F0A0E046E000E24
:10024400056EEFC900F0F0C901F0A4DF08C000F0AA
:1002540009C001F0300E0026F4C9E1FFF5C9E2FF40
:1002640000C0E6FF0A0E046E000E056EEFC900F032
:10027400F0C901F08FDF00C0EFF901C0F0F9000E02
:10028400011802E1000E001801E102D0F307CFD7F4
:02029400120056
:10029600C5C8E1FFC6C8E2FFEFC9E6FFC3C800F064
:0802A600C4C801F091DF120051
:1002AE00F1C904F0F2C905F0EFC902F0F0C903F08C
:1002BE00F3C900F0F4C901F0010E0901F35F000E5D
:1002CE00F45B005001100FE004C0E9FF05C0EAFF27
:1002DE0002C0E1FF03C0E2FFEECFE6FF024A032AAF
:1002EE00044A052AE5D7EFC900F0F0C901F0120063
:1002FE000B6A0A6A096A086A0E6A033408360450E1
:10030E00085E0550D8A0053C095E0650D8A0063CF4
:10031E000A5E0750D8A0073C0B5EE86AD8A0010E13
:10032E000E5E0336070E0C6E0334083609360A3697
:10033E000B360E36045003A012D0085E0550D8A01E
:10034E00053C095E0650D8A0063C0A5E0750D8A0B0
:10035E00073C0B5EE86AD8A0010E0E5E11D008268F
:10036E000550D8B0053C09260650D8B0063C0A26E2
:10037E000750D8B0073C0B26E86AD8B0010E0E26FF
:10038E0003360C2ED1D70234083609360A360B3610
:10039E000E36045003A012D0085E0550D8A0053CBE
:1003AE00095E0650D8A0063C0A5E0750D8A0073C4E
:1003BE000B5EE86AD8A0010E0E5E11D0082605501D
:1003CE00D8B0053C09260650D8B0063C0A26075080
:1003DE00D8B0073C0B26E86AD8B0010E0E260236BE
:1003EE00070E0C6E0234083609360A360B360E36F8
:1003FE00045002A012D0085E0550D8A0053C095E3C
:10040E000650D8A0063C0A5E0750D8A0073C0B5EEB
:10041E00E86AD8A0010E0E5E11D008260550D8B09D
:10042E00053C09260650D8B0063C0A260750D8B01F
:10043E00073C0B26E86AD8B0010E0E2602360C2EAB
:10044E00D1D70134083609360A360B360E3604502B
:10045E0002A012D0085E0550D8A0053C095E0650D9
:10046E00D8A0063C0A5E0750D8A0073C0B5EE86A8F
:10047E00D8A0010E0E5E11D008260550D8B0053C4E
:10048E0009260650D8B0063C0A260750D8B0073CBD
:10049E000B26E86AD8B0010E0E260136070E0C6E3A
:1004AE000134083609360A360B360E36045001A0D2
:1004BE0012D0085E0550D8A0053C095E0650D8A0A3
:1004CE00063C0A5E0750D8A0073C0B5EE86AD8A02F
:1004DE00010E0E5E11D008260550D8B0053C092637
:1004EE000650D8B0063C0A260750D8B0073C0B265B
:1004FE00E86AD8B0010E0E2601360C2ED1D7003484
:10050E00083609360A360B360E36045001A012D0C4
:10051E00085E0550D8A0053C095E0650D8A0063CE2
:10052E000A5E0750D8A0073C0B5EE86AD8A0010E01
:10053E000E5E11D008260550D8B0053C092606508F
:10054E00D8B0063C0A260750D8B0073C0B26E86AFE
:10055E00D8B0010E0E260036070E0C6E003408368B
:10056E0009360A360B360E36045000A012D0085E3D
:10057E000550D8A0053C095E0650D8A0063C0A5E80
:10058E000750D8A0073C0B5EE86AD8A0010E0E5E9D
:10059E0011D008260550D8B0053C09260650D8B013
:1005AE00063C0A260750D8B0073C0B26E86AD8B09E
:1005BE00010E0E2600360C2ED1D700B00ED00450F0
:1005CE0008260550D8B0053C09260650D8B0063C82
:0C05DE000A260750D8B0073C0B2612007C
:1005EA000901F26B030EF25D0AE2F251F025E16EA7
:1005FA00000EF121E26E200EE66EF22BF3D7F251D5
:10060A00F025E16E000EF121E26EE66AF207F25180
:10061A00F025F36F000EF121F46F0A0E046EEFC994
:10062A0000F0DCDD08C000F0300E0026F3C9E1FF5F
:10063A00F4C9E2FF00C0E6FF0A0E046EEFC900F03B
:10064A00CDDD00C0EFF90050000A01E102D0F20747
:04065A00DED71200D5
:10065E00A6A202D00000FCD7A69CF0C9AAFFEFC943
:10066E00A9FFF1C9A8FFA69EA684F2CF00F0F29EC4
:10067E00550EA76EAA0EA76EA68200BE02D0F29EDF
:08068E0001D0F28EA6941200C7
:100696004FD009011D6B1E6B7CD0E00E1D6F010E45
:1006A6001E6F77D0EA0E1D6F010E1E6F72D0F40E0C
:1006B6001D6F010E1E6F6DD0120E1D6F020E1E6F86
:1006C60068D0260E1D6F020E1E6F63D03A0E1D6F88
:1006D600020E1E6F5ED0580E1D6F020E1E6F59D091
:1006E600760E1D6F020E1E6F54D08A0E1D6F020EFF
:1006F6001E6F4FD09E0E1D6F020E1E6F4AD0BC0E8F
:100706001D6F020E1E6F45D0EE0E1D6F020E1E6F80
:1007160040D0200E1D6F030E1E6F3BD0520E1D6F74
:10072600030E1E6F36D0840E1D6F030E1E6F31D062
:100736000901EF51000AADE0EF51010AAEE0EF51B9
:10074600020AB0E0EF51030AB2E0EF51040AB4E046
:10075600EF51050AB6E0EF51060AB8E0EF51070A75
:10076600BAE0EF51080ABCE0EF51090ABEE0EF51CA
:100776000A0AC0E0EF510B0AC2E0EF510C0AC4E0CE
:10078600EF510D0AC6E0EF510E0AC8E0EF510F0A0D
:10079600CAE037D0640E1F6F000E206F53D0F40EE0
:1007A6001F6F010E206F4ED0E80E1F6F030E206FD5
:1007B60049D0DC0E1F6F050E206F44D0D00E1F6F80
:1007C600070E206F3FD0C40E1F6F090E206F3AD060
:1007D600B80E1F6F0B0E206F35D0AC0E1F6F0D0EAF
:1007E600206F30D0A00E1F6F0F0E206F2BD0940EEF
:1007F6001F6F110E206F26D0880E1F6F130E206FED
:1008060021D0F051000AC6E0F051010AC8E0F051CB
:10081600020ACAE0F051030ACCE0F051040ACEE025
:10082600F051050AD0E0F051060AD2E0F051070A6D
:10083600D4E0F051080AD6E0F051090AD8E0F051A8
:100846000A0ADAE04ED0156B166B7BD0E00E156FF8
:10085600010E166F76D0EA0E156F010E166F71D067
:10086600F40E156F010E166F6CD0120E156F020E78
:10087600166F67D0260E156F020E166F62D03A0EEF
:10088600156F020E166F5DD0580E156F020E166F9D
:1008960058D0760E156F020E166F53D08A0E156F4E
:1008A600020E166F4ED09E0E156F020E166F49D0B1
:1008B600BC0E156F020E166F44D0EE0E156F020EAB
:1008C600166F3FD0200E156F030E166F3AD0520EDC
:1008D600156F030E166F35D0840E156F030E166F47
:1008E60030D0F151000AAFE0F151010AAFE0F15109
:1008F600020AB1E0F151030AB3E0F151040AB5E08E
:10090600F151050AB7E0F151060AB9E0F151070ABB
:10091600BBE0F151080ABDE0F151090ABFE0F1510F
:100926000A0AC1E0F1510B0AC3E0F1510C0AC5E015
:10093600F1510D0AC7E0F1510E0AC9E0F1510F0A53
:10094600CBE037D0640E136F000E146F53D0F40E45
:10095600136F010E146F4ED0E80E136F030E146F53
:1009660049D0DC0E136F050E146F44D0D00E136FF2
:10097600070E146F3FD0C40E136F090E146F3AD0D2
:10098600B80E136F0B0E146F35D0AC0E136F0D0E21
:10099600146F30D0A00E136F0F0E146F2BD0940E61
:1009A600136F110E146F26D0880E136F130E146F6B
:1009B60021D0F251000AC6E0F251010AC8E0F25114
:1009C600020ACAE0F251030ACCE0F251040ACEE070
:1009D600F251050AD0E0F251060AD2E0F251070AB6
:1009E600D4E0F251080AD6E0F251090AD8E0F251F1
:0609F6000A0ADAE012001B
:1009FC000901EC6B0A0EEC5D0AE2EC51EA25E16EA2
:100A0C00000EEB21E26E300EE66EEC2BF3D7EC51C0
:100A1C00EA25E16E000EEB21E26EE66AEC07000EB1
:100A2C00006EE91908E10050E81905E10050E719DA
:100A3C0002E1E651000A3EE0EC51EA25ED6F000EB2
:100A4C00EB21EE6F0A0E046E000E056E066E076E3D
:100A5C00E6C900F0E7C901F0E8C902F0E9C903F002
:100A6C0048DC08C000F009C001F00AC002F00BC05D
:100A7C0003F0300E0026EDC9E1FFEEC9E2FF00C025
:100A8C00E6FFEC070A0E046E000E056E066E076E8E
:100A9C00E6C900F0E7C901F0E8C902F0E9C903F0C2
:100AAC0028DC00C0E6F901C0E7F902C0E8F903C090
:060ABC00E9F9B5D71200B4
:100AC2000B6A0A6A096A00500402F4CF09F0F3CFF4
:100AD20008F001500502F4CF0BF0F3CF0AF00050FA
:100AE2000502F3500926F4500A22E86A0B2201504B
:100AF2000402F3500926F4500A22E86A0B2208C0C5
:100B020000F009C001F00AC002F00BC003F01200AD
:100B1200E6C9EFF90901EF33EF9FE7C9F0F9E8C938
:100B2200F1F962DD010EE615016E0150010A11E1D3
:100B3200030EE725EF6F000EE821F06FAB0EF16FA9
:100B4200000EF26F040EF36F000EF46F57EC01F01B
:100B520010D0030EE725EF6F000EE821F06FA20E12
:100B6200F16F000EF26F040EF36F000EF46F57EC8C
:040B720001F012007C
:0A0B7600490E0D6E0D2EFED7120081
:100B80000901E96BE6C9E9FFE7C9EAFFEECFE8F939
:100B9000E851000A0FE0E8C9EFF94BEC01F0090158
:100BA000E92BE951E625E96E000EE721EA6EEECF6A
:060BB000E8F9EED7120087
:100BB600010E0901EF6F000EF06F12C9F1F94CDD5D
:100BC600020E0901EF6F000EF06F19C9F1F944DD4D
:100BD600030E0901EF6F000EF06F18C9F1F93CDD45
:100BE600040E0901EF6F000EF06F17C9F1F934DD3D
:100BF600050E0901EF6F000EF06F0DC9F1F92CDD3E
:100C0600060E0901EF6F000EF06F0CC9F1F924DD35
:100C1600070E0901EF6F000EF06F00C9F1F91CDD38
:100C2600080E0901EF6F000EF06F11C9F1F914DD1E
:100C3600090E0901EF6F000EF06F10C9F1F90CDD16
:100C46000A0E0901EF6F000EF06F0FC9F1F904DD0E
:100C56000B0E0901EF6F000EF06F0EC9F1F9FCDC07
:100C66000C0E0901EF6F000EF06FBBC6F1F9F4DC54
:100C76000D0E0901EF6F000EF06F21C9F1F9ECDCE2
:100C86000E0E0901EF6F000EF06F24C9F1F9E4DCD6
:100C96000F0E0901EF6F000EF06F23C9F1F9DCDCCE
:100CA600100E0901EF6F000EF06F22C9F1F9D4DCC6
:100CB600110E0901EF6F000EF06F1BC9F1F9CCDCC4
:100CC600120E0901EF6F000EF06F1AC9F1F9C4DCBC
:100CD600130E0901EF6F000EF06FBCC6F1F9BCDC14
:100CE600140E0901EF6F000EF06F1CC9F1F9B4DCA8
:100CF600BBC6EFF91AC9F0F9BCC6F1F91CC9F2F97D
:040D0600C7DC120034
:100D0A00C7B409D01F0EC514016E0150000A03E1D1
:0A0D1A00010E006E01D0006A120005
:100D2400E6C9EFF9E7C9F0F90901F033EF33F09FB1
:100D3400E8C9F1F9E9C9F2F902EC01F0010EE6158E
:100D4400016EE7C902F0000E0216000E021802E15D
:100D5400010E011811E1050EE825EF6F000EE921DF
:100D6400F06FA60EF16F000EF26F040EF36F000E1B
:100D7400F46F57EC01F010D0050EE825EF6F000E6C
:100D8400E921F06FDA0EF16F000EF26F040EF36FCB
:0A0D9400000EF46F57EC01F012009E
:100D9E000901E96BE6C9E9FFE7C9EAFFEECFE8F919
:100DAE00E851000A0FE0E8C9F6F9C5EC00F00901B8
:100DBE00E92BE951E625E96E000EE721EA6EEECF4A
:060DCE00E8F9EED7120067
:100DD400A69CE7C9AAFFE6C9A9FFA69EA680A8CF3C
:040DE40000F0120009
:100DE800D8C9EFF90901EF33EF9FD9C9F0F9DAC98A
:100DF800F1F9F5EC02F0030ED925EF6F000EDA21B8
:100E0800F06F440EF16F080EF26F040EF36F000ED0
:080E1800F46F57EC01F0120029
:100E2000010E0901D825016E000ED921026E01C004
:100E3000E9FF02C0EAFF0A0EEE24006E01C0E1FFE6
:100E400002C0E2FF00C0E6FF030ED825016E000ECF
:100E5000D921026E01C0E9FF02C0EAFF0A0EEE24AA
:100E6000006E01C0E1FF02C0E2FF00C0E6FFD8C98A
:100E7000E9FFD9C9EAFFEECF00F0D8C9E1FFD9C92F
:100E8000E2FF0A0E0024E66E020ED825016E000E67
:100E9000D921026E01C0E9FF02C0EAFF0A0EEE246A
:100EA000006E01C0E1FF02C0E2FF00C0E6FF040ED9
:100EB000D825E16E000ED921E26E040EE66E060E14
:100EC000D825E16E000ED921E26E040EE66E080E02
:100ED000D825E16E000ED921E26E040EE66E0A0EF0
:100EE000D825E16E000ED921E26E040EE66E050EE5
:100EF000D825E16E000ED921E26E0A0EE66E090ECB
:100F0000D825E16E000ED921E26E0A0EE66E070EBC
:100F1000D825E16E000ED921E26E0A0EE66E0B0EA8
:100F2000D825E16E000ED921E26E0A0EE66E12009F
:100F30000901DD6B140EDD5D6DE2070E006E000E23
:100F4000016EDDC904F0000E056EBBDD350E002616
:100F5000090E0122050E0024E96E000E0120EA6E42
:100F6000EE50010A55E1070E006E000E016EDDC95C
:100F700004F0000E056EA5DD350E0024E16E090EAD
:100F80000120E26EDCC9E6FF070E006E000E016E66
:100F9000DDC904F0000E056E94DD350E0026090E45
:100FA0000122010E0024E16E000E0120E26ED8C97C
:100FB000E6FFD9C9E6FFDAC9E6FFDBC9E6FF070E9F
:100FC000006E000E016EDDC904F0000E056E79DDC5
:100FD000350E0026090E0122050E0024E16E000EDA
:100FE0000120E26EE66A070E006E000E016EDDC99A
:100FF00004F0000E056E65DD350E0026090E012297
:10100000060E0024E16E000E0120E26EE66A02D0B8
:06101000DD2B90D7120059
:10101600010E0901D825E96E000ED921EA6EEECF40
:1010260012F9D8C9E9FFD9C9EAFFEECF18F9DA51A2
:10103600020AD8A485D0030ED825E96E000ED92160
:10104600EA6EEECF19F9020ED825E96E000ED92107
:10105600EA6EEECF17F9040ED825E96E000ED921F7
:10106600EA6E080ED825D96E000ED921DA6EDE504A
:10107600EE24036E046A000E042203C000F004C0CE
:1010860001F001320032019E01BC018E00C00CF954
:10109600050ED825E96E000ED921EA6E090ED8256F
:1010A600D96E000ED921DA6EDE50EE24036E046A84
:1010B600000E042203C000F004C001F00132003229
:1010C600019E01BC018E00C000F9060ED825E96E0E
:1010D600000ED921EA6E0A0ED825D96E000ED92146
:1010E600DA6EDE50EE24036E046A000E042203C09C
:1010F60000F004C001F001320032019E01BC018EF5
:1011060000C011F9070ED825E96E000ED921EA6E46
:101116000B0ED825D96E000ED921DA6EDE50EE24DC
:10112600036E046A000E042203C000F004C001F03E
:1011360001320032019E01BC018E00C010F922D09E
:10114600196B176B040ED825E96E000ED921EA6ECD
:10115600EECF0CF9050ED825E96E000ED921EA6E00
:10116600EECF00F9060ED825E96E000ED921EA6EFB
:10117600EECF11F9070ED825E96E000ED921EA6ED9
:08118600EECF10F915DD120097
:10118E0009010451D81904E1046B010E006E0FD051
:10119E000551D81904E1056B010E006E08D00651F9
:1011AE00D81904E1066B010E006E01D0006A120020
:1011BE000901D86B140ED85D48E2070E006E000EC2
:1011CE00016ED8C904F0000E056E74DC350E0026D3
:1011DE00090E0122050E0024E96E000E0120EA6EB2
:1011EE00EE50000A30E1070E006E000E016ED8C9F7
:1011FE0004F0000E056E5EDC350E0024E96E090E5D
:10120E000120EA6EEECF01F00150090A1CE1070E33
:10121E00006E000E016ED8C904F0000E056E4ADC99
:10122E00350E0026090E0122010E0024E96E000E75
:10123E000120EA6EEECFD9F9EECFDAF9EECFDBF977
:10124E00EECFDCF902D0D82BB5D7140ED85D02E361
:10125E00D86B05D008013F510901D95DD86FD8C9A7
:04126E0000F012007A
:101272000901D86BD96BD951120802E1D8518E08F5
:1012820008E342DD005201E004D00901D84BD92B1A
:10129200F2D70901120ED95D02E18F0ED85D03E388
:1012A2007B0E006E05D0C580C5A001D0FDD7006AB7
:0212B200120028
:1012B4000901DA5318E03FC8E6F940C8E7F941C824
:1012C400E8F942C8E9F9DB0EEA6F090EEB6FFEECB0
:1012D40004F0DB0EE66F090EE76F50DC990EE66F43
:1012E400070EE76F5ADDD8C9E6F9D9C9E7F955DD24
:1012F4000D0EF66FC5EC00F00A0E0901F66FC5EC91
:0413040000F01200E3
:10130800C26A070EC012C08ED8C900F0003600901D
:10131800003600900050C212C28029DCC282C2A2EC
:1013280001D0FDD7C4CF01F0006AC3500012000EEF
:061338000112C290120038
:10133E000901D96B140ED95D44E2070E006E000E42
:10134E00016ED9C904F0000E056E61EC05F0350E84
:10135E000026090E0122050E0024E96E000E012062
:10136E00EA6EEE50000A2BE1070E006E000E016EC3
:10137E00D9C904F0000E056E61EC05F0350E00249F
:10138E00E96E090E0120EA6EEECF01F00150D81978
:10139E0016E0070E006E000E016ED9C904F0000EA5
:1013AE00056E61EC05F0350E0026090E0122050EC4
:1013BE000024E16E000E0120E26E010EE66ED92BC6
:0413CE00B9D7120079
:1013D2000901D86B140ED85D53E2070E006E000EA1
:1013E200016ED8C904F0000E056E61EC05F0350EF1
:1013F2000026090E0122050E0024E96E000E0120CE
:10140200EA6EEE50000A3AE1070E006E000E016E1F
:10141200D8C904F0000E056E61EC05F0350E00240B
:10142200E96E090E0120EA6EEECF01F00150090AC1
:1014320025E1070E006E000E016ED8C904F0000E01
:10144200056E61EC05F0350E0026090E0122010E33
:101452000024E96E000E0120EA6EEECFD9F9EECF3C
:10146200DAF9EECFDBF9EECFDCF9050E0024E16EFE
:10147200000E0120E26E010EE66E02D0D82BAAD732
:1014820008013F510901D95D016E01C0D8F9140E5E
:0C149200015CD8B0D86BD8C900F0120083
:10149E000901D851010A05E10701976B986B090103
:1014AE000891D851020A05E10701BF6BC06B090113
:0414BE00089312007D
:1014C200140E0901126F140E186F140E196F140EF8
:1014D200176F070E0601BB6F020E09011A6F070E86
:1014E2000601BC6F020E09011C6F070EEF6F020EA0
:1014F200F06F070EF16F020EF26F4BEC03F00A0E63
:10150200006F040E0C6F0A0E106F040E116F0C0E9A
:101512000D6F0E6B0F6B246B236B226B216B010E15
:081522001B6FDBEC05F0120069
:10152A000901D851010A03E10801A46B8196090156
:0E153A00D851020A03E10801436B81981200A8
:10154800010E0901E66F000EE76F40DC00C012F9DA
:10155800020EE66F000EE76F39DC00C019F9030EC2
:10156800E66F000EE76F32DC00C018F9040EE66F74
:10157800000EE76F2BDC00C017F9050EE66F000EB2
:10158800E76F24DC00C00DF9060EE66F000EE76F6A
:101598001DDC00C00CF9070EE66F000EE76F16DCC5
:1015A80000C000F9080EE66F000EE76F0FDC00C000
:1015B80011F9090EE66F000EE76F08DC00C010F99C
:1015C8000A0EE66F000EE76F01DC00C00EF9000E90
:1015D8000F6F0EC90FF90E6B0B0EE66F000EE76F5B
:1015E800EAEC06F000500E13000E0F130C0EE66F17
:1015F800000EE76FEAEC06F000C0BBF60D0EE66FD2
:10160800000EE76FEAEC06F000C021F90E0EE66F57
:10161800000EE76FEAEC06F000C024F90F0EE66F43
:10162800000EE76FEAEC06F000C023F9100EE66F33
:10163800000EE76FEAEC06F000C022F9110EE66F23
:10164800000EE76FEAEC06F000C01BF9120EE66F19
:10165800000EE76FEAEC06F000C01AF9130EE66F09
:10166800000EE76FEAEC06F000C0BCF6140EE66F59
:10167800000EE76FEAEC06F000C01CF9BBC6EFF9F4
:101688001AC9F0F9BCC6F1F900C0F2F94BEC03F045
:0216980012003E
:10169A00020E0501B56F180E0901EF6F060EF06F05
:1016AA00AE0EF16F070EF26F100EF36F000EF46FAD
:1016BA0057EC01F00701AD51000A38E1E60E0901C5
:1016CA00EF6F050EF06F530EF16F070EF26F100EEB
:1016DA00F36F000EF46F57EC01F0010E0601066F6E
:1016EA0007015251000A0FE1180E0901EF6F060EA9
:1016FA00F06F410EF16F070EF26F100EF36F000ECE
:10170A00F46F57EC01F007015251010A0FE1180E6C
:10171A000901EF6F060EF06F860EF16F070EF26F7A
:10172A00100EF36F000EF46F57EC01F00701AD5184
:10173A00010A1BE1E60E0901EF6F050EF06F750E47
:10174A00F16F070EF26F100EF36F000EF46F57EC85
:10175A0001F0010E0601066F12C9E6F91E0E090113
:10176A00E76F060EE86F89EC05F00701AD51020A32
:10177A001BE1E60E0901EF6F050EF06F640EF16FC3
:10178A00070EF26F100EF36F000EF46F57EC01F0B4
:10179A00010E0601066F19C9E6F91E0E0901E76F67
:1017AA00060EE86F89EC05F00701AD51030A1BE14B
:1017BA00E60E0901EF6F050EF06F9C0EF16F070E32
:1017CA00F26F100EF36F000EF46F57EC01F0010E7A
:1017DA000601066F18C9E6F91E0E0901E76F060E23
:1017EA00E86F89EC05F00701AD51040A1BE1E60E2A
:1017FA000901EF6F050EF06F300EF16F070EF26FF1
:10180A00100EF36F000EF46F57EC01F0010E060193
:10181A00066F17C9E6F91E0E0901E76F060EE86F93
:10182A0089EC05F00701AD51050A1BE1E60E090135
:10183A00EF6F050EF06FD00EF16F060EF26F100EFD
:10184A00F36F000EF46F57EC01F0010E0601066FFC
:10185A000CC9E6F91E0E0901E76F060EE86F89EC5E
:10186A0005F00701AD51060A1BE1E60E0901EF6F0B
:10187A00050EF06F940EF16F050EF26F100EF36FF6
:10188A00000EF46F57EC01F0010E0601066F00C955
:10189A00E6F91E0E0901E76F060EE86F89EC05F0FE
:1018AA000701AD51070A1BE1E60E0901EF6F050EAC
:1018BA00F06F7A0EF16F020EF26F100EF36F000ED8
:1018CA00F46F57EC01F0010E0601066F11C9E6F933
:1018DA001E0E0901E76F060EE86F89EC05F0070195
:1018EA00AD51080A1BE1E60E0901EF6F050EF06F14
:1018FA008B0EF16F020EF26F100EF36F000EF46F83
:10190A0057EC01F0010E0601066F10C9E6F91E0E2A
:10191A000901E76F060EE86F89EC05F00701AD5182
:10192A00090A3EE1E60E0901EF6F050EF06F620E3D
:10193A00F16F020EF26F100EF36F000EF46F57EC98
:10194A0001F0010E0601066FBBC6EFF91B0E090175
:10195A00F06F060EF16FF5EC02F00601BB510708B5
:10196A0010E21F0E0901EF6F060EF06F730EF16F92
:10197A00020EF26F060EF36F000EF46F57EC01F0D1
:10198A000FD009011F0EEF6F060EF06FAA0EF16F4E
:10199A00020EF26F060EF36F000EF46F57EC01F0B1
:1019AA000701AD510A0A3EE1E60E0901EF6F050E85
:1019BA00F06FB10EF16F020EF26F100EF36F000EA0
:1019CA00F46F57EC01F0010E0601066FBCC6EFF981
:1019DA001B0E0901F06F060EF16FF5EC02F006011D
:1019EA00BC51070810E21F0E0901EF6F060EF06FD7
:1019FA009C0EF16F020EF26F060EF36F000EF46F7B
:101A0A0057EC01F00FD009011F0EEF6F060EF06FB1
:101A1A00A30EF16F020EF26F060EF36F000EF46F53
:101A2A0057EC01F00701AD510B0A1BE1E60E090163
:101A3A00EF6F050EF06F0D0EF16F020EF26F100EC2
:101A4A00F36F000EF46F57EC01F0010E0601066FFA
:101A5A001AC9E6F91E0E0901E76F060EE86F89EC4E
:101A6A0005F00701AD510C0A1BE1E60E0901EF6F03
:101A7A00050EF06F1E0EF16F020EF26F100EF36F6D
:101A8A00000EF46F57EC01F0010E0601066F1CC937
:101A9A00E6F91E0E0901E76F060EE86F89EC05F0FC
:101AAA000701AD510D0A1BE1E60E0901EF6F050EA4
:101ABA00F06FEB0EF16F010EF26F100EF36F000E66
:101ACA00F46F57EC01F0010E0601066F0DC9E6F935
:101ADA001E0E0901E76F060EE86F89EC05F0070193
:101AEA00AD510E0A1DE1E60E0901EF6F050EF06F0A
:101AFA00FC0EF16F010EF26F100EF36F000EF46F11
:101B0A0057EC01F0010E0601066F0EC9E6F90FC97E
:101B1A00E7F91C0E0901E86F060EE96F92EC06F070
:101B2A000701AD510F0A12E1E60E0901EF6F050E2A
:101B3A00F06F400EF16F020EF26F100EF36F000E8F
:101B4A00F46F57EC01F0010E0601066F0701AD5163
:101B5A00100A33E1E60E0901EF6F050EF06F510E20
:101B6A00F16F020EF26F100EF36F000EF46F57EC66
:101B7A0001F0010E0601066F09012351000A0FE167
:101B8A001E0EEF6F060EF06F2F0EF16F020EF26F40
:101B9A00070EF36F000EF46F57EC01F00ED01E0E15
:101BAA00EF6F060EF06F370EF16F020EF26F080E2E
:101BBA00F36F000EF46F57EC01F00701AD51110AF3
:101BCA0033E1E60E0901EF6F050EF06F7A0EF16F41
:101BDA00030EF26F100EF36F000EF46F57EC01F064
:101BEA00010E0601066F09012251000A0FE11E0EBD
:101BFA00EF6F060EF06F8B0EF16F030EF26F070E8A
:101C0A00F36F000EF46F57EC01F00ED01E0EEF6F5B
:101C1A00060EF06F600EF16F030EF26F080EF36F8F
:101C2A00000EF46F57EC01F00701AD51120A33E1CF
:101C3A00E60E0901EF6F050EF06F690EF16F030EE4
:101C4A00F26F100EF36F000EF46F57EC01F0010EF5
:101C5A000601066F09011B51000A0FE11E0EEF6F04
:101C6A00060EF06FAC0EF16F030EF26F070EF36FF4
:101C7A00000EF46F57EC01F00ED01E0EEF6F060E39
:101C8A00F06FB40EF16F030EF26F080EF36F000ED1
:101C9A00F46F57EC01F00701AD51130A33E1E60E78
:101CAA000901EF6F050EF06F930EF16F030EF26FDD
:101CBA00100EF36F000EF46F57EC01F0010E0601DF
:101CCA00066F09012451000A0FE11E0EEF6F060E7E
:101CDA00F06FA40EF16F030EF26F070EF36F000E92
:101CEA00F46F57EC01F00ED01E0EEF6F060EF06F78
:101CFA00E40EF16F020EF26F080EF36F000EF46F2E
:101D0A0057EC01F00701AD51140A1BE1E60E090177
:101D1A00EF6F050EF06FED0EF16F020EF26F100EFF
:101D2A00F36F000EF46F57EC01F0010E0601066F17
:101D3A0021C9E6F91E0E0901E76F060EE86F89EC64
:101D4A0005F00701AD51150A12E1E60E0901EF6F20
:101D5A00050EF06FC20EF16F020EF26F100EF36FE6
:101D6A00000EF46F57EC01F0010E0601066F070131
:101D7A00AD51160A12E1E60E0901EF6F050EF06F7A
:101D8A00D30EF16F020EF26F100EF36F000EF46FA6
:101D9A0057EC01F0010E0601066F0601650E6D6F24
:021DAA00120025
:101DAC000901D851010A17E1D9B102D0829201D0B0
:101DBC008282060E0B6E130E0C6EAD0E0D6E0D2E7A
:101DCC00FED70C2EFCD70B2EFAD700000000010E0C
:101DDC000801A46F81860901D851020A17E1D9B113
:101DEC0002D0829001D08280060E0B6E130E0C6E08
:101DFC00AD0E0D6E0D2EFED70C2EFCD70B2EFAD77A
:0E1E0C0000000000010E0801436F81881200E3
:101E1A000901D851000A04E0D951000A01E002D0B0
:101E2A00F28801D0F298D8C9BEF6D9C9BDF6120017
:101E3A009E96D8C9C9FFC7A401D0FDD79EB601D0C6
:101E4A00FDD7C5BC02D0006A03D0C584020E006E5D
:021E5A00120074
:041E5C00C584120027
:101E600083A003D083A201D003D0010E006E01D065
:041E7000006A1200F2
:101E74000901D16B83A8D18183AAD183D1C900F090
:021E840012004A
:101E86000901D26B83BA02D0D28101D0D29184B03B
:101E960002D0D28301D0D29383B802D0D28501D0AA
:101EA600D295050E0501275D02E20901D26B0901F3
:101EB600D251000A20E10301EC51000A09E10801B0
:101EC600CD6BC86B0301EC6B0901D16B0801C76BC5
:101ED6000301EC51010A0FE1050E0501095D0BE353
:101EE6000801CD6BC86B0301EC6B0901D16B0801CE
:101EF600C76B0501276B0801CD51010A0FE10301EC
:101F0600ED510501285D0AE3010E0801C76F0501C1
:101F1600286B190E0801C85DD8A0C82B0901D2513B
:101F2600000A24E00301EC51010A20E10801CD5129
:101F3600000A1CE1020EC925016E000ECA21026EBE
:101F4600000ECB21036E000ECC21046E4251041804
:101F560008E14151031805E14051021802E13F51E1
:101F6600011804E1010ECD6F0501286B0901D2515C
:101F7600000A0AE00301EC51010A06E10801CD510D
:101F8600000A02E10901D16B0901D251000A0FE0F2
:101F96000301EC51010A0BE10801CD51010A07E1E9
:101FA6000901D2510801C703F3CFD1F9C76B090163
:101FB600D251000A12E00301EC51000A0EE1D2C927
:101FC600D1F9010EEC6F3FC8C9F840C8CAF841C83C
:101FD600CBF842C8CCF80501096B0901D151000ABA
:0E1FE60003E0010E0601BF6FD1C900F012002A
:101FF4000901D56B050ED55D0AE2D551D325E16EF5
:10200400000ED421E26E300EE66ED52BF3D7D551F7
:10201400D325E16E000ED421E26EE66AD507000EE8
:10202400D21902E1000ED1192CE0D551D325D66F77
:10203400000ED421D76F0A0E046E000E056ED1C9AE
:1020440000F0D2C901F0CCEC00F008C000F009C0E7
:1020540001F0300E0026D6C9E1FFD7C9E2FF00C067
:10206400E6FFD5070A0E046E000E056ED1C900F016
:10207400D2C901F0CCEC00F000C0D1F901C0D2F912
:04208400CED71200A1
:0A208800DBEC05F006016D6B1200A1
:102092000901D16BD86B84EC09F000C001F901C0D1
:1020A20002F9010E0901D86F84EC09F000C0FEF8B4
:1020B20001C0FFF80501A551000A03E10701976B72
:1020C200986B06012951000A03E10701BF6BC06B3F
:1020D2000601BE51000A1FE009011E51025D02E124
:1020E2001D51015D0AE2FF0E0701985D02E1FA0E41
:1020F200975D02E2974B982B0DD00701000E006E00
:102102009851005C02E19751000804E2010E975FCA
:10211200000E985B03D00701976B986B98510901E9
:10212200205D04E10701975109011F5DD8A0D1810B
:102132000601BD51000A22E0090116510801FF5DA6
:1021420004E1090115510801FE5D0AE2FF0E0701D3
:10215200C05D02E1FA0EBF5D02E2BF4BC02B0DD0A3
:102162000701000E006EC051005C02E1BF51000881
:1021720004E2010EBF5F000EC05B03D00701BF6B1C
:10218200C06BC0510901145D04E10701BF5109018F
:0C219200135DD8A0D183D1C900F0120069
:10219E000901D26BD36B3F0ED115026E02C0D1F97D
:1021AE00540ED26F02C000F00032009E0032009E2C
:1021BE000032009E0032009E540E0010D26F700E40
:1021CE00D36F0F0E0214006E700E0010D36F39EC29
:1021DE0009F07C0E0901D86F29DE800E0901D86F37
:1021EE0025DED2C9D8F922DE800E0901D86F1EDE97
:1021FE00D3C9D8F91BDE2BDE0D0E0C6EFB0E0D6E49
:0E220E000D2EFED70C2EFCD700000000120093
:10221C0039EC09F07C0E0901D86F09DE800E09013A
:10222C00D86F05DE0901D151020A03E1380ED86FCF
:10223C00FEDD0901D151010A03E1340ED86FF7DD3F
:10224C00800E0901D86FF3DD0901D151020A03E1B7
:10225C00390ED86FECDD0901D151010A03E1350EBD
:10226C00D86FE5DD800E0901D86FE1DD1C0E090188
:10227C00D86FDDDD800E0901D86FD9DD720E090132
:10228C00D86FD5DD800E0901D86FD1DD550E09014F
:10229C00D86FCDDD800E0901D86FC9DD6C0E090138
:1022AC00D86FC5DD800E0901D86FC1DD0C0E090198
:1022BC00D86FBDDD800E0901D86FB9DD010E0901A3
:1022CC00D86FB5DD800E0901D86FB1DD060E09019E
:1022DC00D86FADDD800E0901D86FA9DD020E0901A2
:0822EC00D86FA5DDB5DD12007D
:1022F400949894968B988B9694889486C79EC79C42
:06230400380EC66E120047
:10230A000901D56BD66BD151010A03E1D251800F75
:10231A00D66FD151020A03E1D251C00FD66F39EC00
:10232A0009F07C0E0901D86F83DD800E0901D86F90
:10233A007FDDD6C9D8F97CDD400E0901D86F78DD7A
:10234A000901D551D325E96E000ED421EA6EEE506B
:10235A000A0A0FE0D55110080CE3D551D325E96ECE
:10236A00000ED421EA6EEECFD8F962DD0901D52B31
:10237A00E7D76FDD0D0E0C6EFB0E0D6E0D2EFED720
:0A238A000C2EFCD70000000012002A
:10239400010E03015E6F090103A323D003015E6BE9
:1023A4000801596B650E06016D6F4DEC0BF00701CA
:1023B400AD51000A16E10901256B07015251000ACB
:1023C40006E1C80E06016D6F010E03015F6F070180
:1023D4005251010A06E1C90E06016D6F010E030197
:1023E4005F6F0701AD51000A18E1090103A109D08B
:1023F40007015251000805E252074DEC0BF0660E3E
:102404006D6F090103A509D0010E0701525D05E2B4
:10241400522B4DEC0BF0660E6D6F0701AD51010AA6
:1024240016E1090103A108D01251000805E21207C0
:102434004DEC0BF0660E6D6F090103A508D0FF0E7D
:10244400125D05E2122B4DEC0BF0660E6D6F070169
:10245400AD51020A16E1090103A108D0195100087F
:1024640005E219074DEC0BF0660E6D6F090103A52B
:1024740008D0FF0E195D05E2192B4DEC0BF0660E2A
:102484006D6F0701AD51030A16E1090103A108D0DC
:102494001851000805E218074DEC0BF0660E6D6F3D
:1024A400090103A508D0FF0E185D05E2182B4DECB9
:1024B4000BF0660E6D6F0701AD51040A16E10901B8
:1024C40003A108D01751000805E217074DEC0BF0E3
:1024D400660E6D6F090103A508D0FF0E175D05E2B6
:1024E400172B4DEC0BF0660E6D6F0701AD51050A0D
:1024F40016E1090103A108D00C51000805E20C07FC
:102504004DEC0BF0660E6D6F090103A508D0FF0EAC
:102514000C5D05E20C2B4DEC0BF0660E6D6F0701A4
:10252400AD51060A16E1090103A108D000510008C3
:1025340005E200074DEC0BF0660E6D6F090103A573
:1025440008D0FF0E005D05E2002B4DEC0BF0660E8B
:102554006D6F0701AD51070A16E1090103A108D007
:102564001151000805E211074DEC0BF0660E6D6F7A
:10257400090103A508D0FF0E115D05E2112B4DECF6
:102584000BF0660E6D6F0701AD51080A16E10901E3
:1025940003A108D01051000805E210074DEC0BF020
:1025A400660E6D6F090103A508D0FF0E105D05E2EC
:1025B400102B4DEC0BF0660E6D6F0701AD51090A3F
:1025C40018E1090103A109D00601BB51000805E285
:1025D400BB074DEC0BF0660E6D6F090103A509D026
:1025E4000F0E0601BB5D05E2BB2B4DEC0BF0660E36
:1025F4006D6F0701AD510A0A18E1090103A109D061
:102604000601BC51000805E2BC074DEC0BF0660E58
:102614006D6F090103A509D00F0E0601BC5D05E22B
:10262400BC2B4DEC0BF0660E6D6F0701AD510B0A20
:1026340016E1090103A108D01A51000805E21A079E
:102644004DEC0BF0660E6D6F090103A508D00A0E60
:102654001A5D05E21A2B4DEC0BF0660E6D6F070147
:10266400AD510C0A16E1090103A108D01C51000860
:1026740005E21C074DEC0BF0660E6D6F090103A516
:1026840008D00A0E1C5D05E21C2B4DEC0BF0660E07
:102694006D6F0701AD510D0A16E1090103A108D0C0
:1026A4000D51000805E20D074DEC0BF0660E6D6F41
:1026B400090103A508D0FF0E0D5D05E20D2B4DECBD
:1026C4000BF0660E6D6F0701AD510E0A22E1090190
:1026D40003A110D0000E006E0F51005C02E10E51F8
:1026E400000808E2010E0E5F000E0F5B4DEC0BF0CC
:1026F400660E6D6F090103A50CD0FD0E0F5D02E19E
:10270400E80E0E5D06E20E4B0F2B4DEC0BF0660E41
:102714006D6F0701AD510F0A22E106016D6BE60EE4
:102724000901EF6F050EF06FA50EF16F080EF26F41
:10273400100EF36F000EF46F57EC01F0010E05015B
:10274400B56F03015E6B0801596B010E0601066F3C
:10275400010E03015F6F61EC0AF0DBEC05F0070189
:10276400AD51100A16E1090103A108D02351000854
:1027740005E223074DEC0BF0660E6D6F090103A50E
:1027840008D0010E235D05E2232B4DEC0BF0660E01
:102794006D6F0701AD51110A16E1090103A108D0BB
:1027A4002251000805E222074DEC0BF0660E6D6F16
:1027B400090103A508D0010E225D05E2222B4DEC90
:1027C4000BF0660E6D6F0701AD51120A16E1090197
:1027D40003A108D01B51000805E21B074DEC0BF0C8
:1027E400660E6D6F090103A508D0010E1B5D05E29D
:1027F4001B2B4DEC0BF0660E6D6F0701AD51130AE8
:1028040016E1090103A108D02451000805E22407B8
:102814004DEC0BF0660E6D6F090103A508D0010E97
:10282400245D05E2242B4DEC0BF0660E6D6F070161
:10283400AD51140A1FE1090103A10CD02151000874
:1028440009E221072151090AD8B4216B4DEC0BF0A0
:10285400660E6D6F090103A50DD0FF0E215D0AE21E
:10286400212B2151010A02E10A0E216F4DEC0BF0DC
:10287400660E6D6F0701AD51150A1DE1670E060165
:102884006D6FE60E0901EF6F050EF06FA50EF16F87
:10289400080EF26F100EF36F000EF46F57EC01F098
:1028A40003015E6B010E0501B56F010E0601066F93
:1028B400010E03015F6F0701AD51160A1EE1060107
:1028C4006D6BE60E0901EF6F050EF06FA50EF16F4B
:1028D400080EF26F100EF36F000EF46F57EC01F058
:1028E40003015E6B010E0501B56F010E0601066F53
:0C28F400A4EC0AF0010E03015F6F12005B
:102900006FD2838E090107A107D0252B020E080183
:10291000F56F010E0601BF6F090107A308D0030E72
:10292000256F010E0801F56F010E0601BF6FB1D2D0
:10293000020E0901D86FD96BD6EC0EF0040E080117
:102940003F250901D86F000E080140210901D96F08
:10295000000E080141210901DA6F000E0801422131
:102960000901DB6F150EDC6F98EC07F0252B0601D3
:10297000296B8FD2090108A30CD006012951010A45
:1029800008E1296B020E0901D86F95EC0AF00901E4
:10299000252B0901150ED86FC7EC08F0005203E093
:1029A000010E0601296F75D2010E0901D86FD96B8E
:1029B000D6EC0EF0040E08013F250901D86F000E79
:1029C000080140210901D96F000E080141210901C8
:1029D000DA6F000E080142210901DB6F140EDC6F73
:1029E00098EC07F0252B0501A56B090108A10CD077
:1029F0000501A551010A08E1A56B010E0901D86F77
:102A000095EC0AF00901252B0901140ED86FC7ECCB
:102A100008F0005203E0010E0501A56F3AD209014A
:102A20000751000A19E03FC8EBF840C8ECF841C86C
:102A3000EDF842C8EEF8010ED86F010ED96FD6EC52
:102A40000EF00901D86BBDC6D9F90DEC0FF0010EDF
:102A50000501D46F0901252B1CD20751000A11E092
:102A6000252B3FC8F6F840C8F7F841C8F8F842C827
:102A7000F9F8010ED86FBDC6D9F90DEC0FF00501BC
:102A8000D46B07D209010751000A11E0252B3FC87A
:102A9000FAF840C8FBF841C8FCF842C8FDF8D86B0A
:102AA000BDC6D9F90DEC0FF0010E0501D46FF1D1BF
:102AB00009010751000A26E00801F551020A03E165
:102AC0000901252B03D00901110E256F3FC8F1F82C
:102AD00040C8F2F841C8F3F842C8F4F8010ED86FC4
:102AE00095EC0AF00801EB51F15D006E00C0E0F8D2
:102AF000EB51F65D006E00C0E3F8FA51F15D006E37
:102B000000C0E4F8C6D109010751000A19E03FC826
:102B1000EBF840C8ECF841C8EDF842C8EEF8020EF8
:102B2000D86F010ED96FD6EC0EF0BEC6D8F90901E8
:102B3000D96B0DEC0FF0010E06018C6F0901252BEE
:102B4000A8D10751000A11E0252B3FC8F6F840C86C
:102B5000F7F841C8F8F842C8F9F8BEC6D8F9010E2E
:102B6000D96F0DEC0FF006018C6B93D10901075161
:102B7000000A11E0252B3FC8FAF840C8FBF841C80D
:102B8000FCF842C8FDF8BEC6D8F9D96B0DEC0FF0C1
:102B9000010E06018C6F7DD109010751000A1DE06D
:102BA000252B3FC8F1F840C8F2F841C8F3F842C8F5
:102BB000F4F8020ED86F95EC0AF00801EB51F15DC4
:102BC000006E00C0E2F8EB51F65D006E00C0E7F861
:102BD000FA51F15D006E00C0E8F85BD109010751C0
:102BE000000A18E03FC8EBF840C8ECF841C8EDF81F
:102BF00042C8EEF8020ED86FD96BD6EC0EF0BEC606
:102C0000D8F90901D96B0DEC0FF0010E06018C6F9C
:102C10000901252B3ED10751000A11E0252B3FC8A1
:102C2000F6F840C8F7F841C8F8F842C8F9F8BEC647
:102C3000D8F9010ED96F0DEC0FF006018C6B29D17C
:102C400009010751000A11E0252B3FC8FAF840C8D6
:102C5000FBF841C8FCF842C8FDF8BEC6D8F9D96BEC
:102C60000DEC0FF0010E06018C6F13D10901075115
:102C7000000A1DE0252B3FC8F1F840C8F2F841C812
:102C8000F3F842C8F4F8020ED86F95EC0AF0080188
:102C9000EB51F15D006E00C0E1F8EB51F65D006EA6
:102CA00000C0E9F8FA51F15D006E00C0EAF8F1D019
:102CB00009010751000A18E03FC8EBF840C8ECF8DA
:102CC00041C8EDF842C8EEF8010ED86FD96BD6ECCA
:102CD0000EF00901D86BBDC6D9F90DEC0FF0010E4D
:102CE0000501D46F0901252BD4D00751000A11E04A
:102CF000252B3FC8F6F840C8F7F841C8F8F842C895
:102D0000F9F8010ED86FBDC6D9F90DEC0FF0050129
:102D1000D46BBFD009010751000A11E0252B3FC831
:102D2000FAF840C8FBF841C8FCF842C8FDF8D86B77
:102D3000BDC6D9F90DEC0FF0010E0501D46FA9D075
:102D400009010751000A1DE0252B3FC8F1F840C8D2
:102D5000F2F841C8F3F842C8F4F8010ED86F95ECC8
:102D60000AF00801EB51F15D006E00C0DFF8EB5195
:102D7000F65D006E00C0E5F8FA51F15D006E00C02E
:102D8000E6F887D0DF0E0901D86F080ED96FF5C8B5
:102D9000DAF90BEC08F0E60EEF6F050EF06F160E89
:102DA000F16F050EF26F100EF36F000EF46F57EC1B
:102DB00001F0180EEF6F060EF06FDA0EF16F030ED2
:102DC000F26F100EF36F000EF46F57EC01F0020E6D
:102DD0000501B56F010E0601066F839E6D6B59D01C
:102DE00009012551000AD8B48CD52551010AD8B45F
:102DF0009FD52551020AD8B4BDD52551030AD8B4B0
:102E0000D3D52551040AD8B4F0D52551050AD8B434
:102E100006D62551060AD8B420D62551070AD8B4BB
:102E200031D62551080AD8B443D62551090AD8B459
:102E30006AD625510A0AD8B484D625510B0AD8B4CB
:102E400095D625510C0AD8B4A7D625510D0AD8B469
:102E5000C5D625510E0AD8B4DED625510F0AD8B4EE
:102E6000EFD62551100AD8B401D72551110AD8B48C
:102E70001FD72551120AD8B438D72551130AD8B410
:102E800049D72551140AD8B45BD72551150AD8B4AF
:042E900079D71200DC
:102E94008A0E0801C36F010EC46FF60EC56F090ECA
:102EA400C66FFF0EBB6FFF0EBC6F000EBD6F000E32
:102EB400BE6FFF0EBF6FFF0EC06F000EC16F000E1E
:102EC400C26FFF0EB56FFF0EB66F000EB76F000E28
:102ED400B86FAC8A900EAB6E948E949C9EAA03D06D
:082EE400AECF00F0FBD7120095
:102EEC000901D16B0301D8B103D00901D19102D0F2
:102EFC000901D1810301D9B103D00901D19302D0C9
:102F0C000901D1830301D86BD96B140E06016D5DD9
:102F1C000FE20901D1B104D003B502D0D19101D097
:102F2C00D181D1B304D003B102D0D19301D0D183DC
:062F3C00D1C900F01200F3
:102F4200090103A302D00001AA2B0001AA51010A20
:102F520020E1E60E0901EF6F050EF06F1E0EF16F14
:102F6200030EF26F100EF36F000EF46F57EC01F0C8
:102F7200180EEF6F060EF06F2E0EF16F030EF26F4A
:102F8200100EF36F000EF46F57EC01F0010E060104
:102F9200066F0001AA51020A20E1E60E0901EF6F55
:102FA200050EF06F3E0EF16F030EF26F100EF36F0F
:102FB200000EF46F57EC01F0180EEF6F060EF06F73
:102FC2004E0EF16F030EF26F100EF36F000EF46FE0
:102FD20057EC01F0010E0601066F0001AA51030A27
:0A2FE20003E1640E06016D6F12009A
:102FEC00838E010E0601BA6F010E0901D86FC7EC72
:102FFC0008F0005233E0010ED86F010ED96FD6ECF9
:10300C000EF0F70E0901D86F050ED96F010EDA6FAD
:10301C005AEC09F0839CE60E0901EF6F050EF06F78
:10302C00D50EF16F050EF26F100EF36F000EF46FEC
:10303C0057EC01F0180EEF6F060EF06F070EF16FE4
:10304C00060EF26F100EF36F000EF46F57EC01F0DA
:10305C00010E0601066F010E0501B56F020E090186
:10306C00D86FC7EC08F0005210E0020ED86F010EBA
:10307C00D96FD6EC0EF0A60E0901D86F050ED96FDC
:10308C00010EDA6F5AEC09F0839C050E0901D86F1A
:10309C00C7EC08F0005212E0010ED86FBDC6D9F98A
:1030AC000DEC0FF00501A56BD46BC50E0901D86FA3
:1030BC00050ED96F010EDA6F5AEC09F0070E0901F3
:1030CC00D86FC7EC08F0005211E0D86BBDC6D9F927
:1030DC000DEC0FF0010E0501D46FB60E0901D86F7F
:1030EC00050ED96F010EDA6F5AEC09F0060E0901C4
:1030FC00D86FC7EC08F0005212E0BEC6D8F9010E2A
:10310C00D96F0DEC0FF00601296B8C6B7D0E09014C
:10311C00D86F060ED96F010EDA6F5AEC09F0080E53
:10312C000901D86FC7EC08F0005211E0BEC6D8F9FF
:10313C00D96B0DEC0FF0010E06018C6F6E0E0901B0
:10314C00D86F060ED96F010EDA6F5AEC09F00A0E21
:10315C000901D86FC7EC08F0005210E0010E050110
:10316C00A56F010E0901D86F4FEC0AF0A40ED86FB1
:10317C00060ED96F010EDA6F5AEC09F00B0E09012D
:10318C00D86FC7EC08F0005210E0010E0601296F51
:10319C00020E0901D86F4FEC0AF08E0ED86F060E96
:1031AC00D96F010EDA6F5AEC09F0030E0901D86FD2
:1031BC00C7EC08F0005210E006018D91010E0901D8
:1031CC00D86F95EC0AF0390E0901D86F060ED96F3D
:1031DC00010EDA6F5AEC09F0040E0901D86FC7EC36
:1031EC0008F0005210E006018D93020E0901D86F11
:1031FC0095EC0AF02A0E0901D86F060ED96F010E54
:10320C00DA6F5AEC09F00C0E0901D86FC7EC08F014
:10321C000052D8A4838C0501A551010A48E109018B
:10322C0008A145D00501D451000A41E1010E090164
:10323C00D86F95EC0AF0020E0901D86F95EC0AF0E4
:10324C00050E06016D6F0501A56B0601296B590E64
:10325C000901D86F060ED96F010EDA6F5AEC09F01E
:10326C00090E0901D86F9FEC09F0E60EEF6F050E01
:10327C00F06F480EF16F060EF26F100EF36F000E2A
:10328C00F46F57EC01F0180EEF6F060EF06FF40EA2
:10329C00F16F070EF26F100EF36F000EF46F57EC18
:1032AC0001F0010E0601066F020E0501B56F060155
:1032BC002951010A48E1090108A345D006018C51A6
:1032CC00000A41E1010E0901D86F95EC0AF0020EDB
:1032DC000901D86F95EC0AF0050E06016D6F05011A
:1032EC00A56B0601296BDF0E0901D86F070ED96F8C
:1032FC00010EDA6F5AEC09F0090E0901D86F9FEC38
:10330C0009F0E60EEF6F050EF06F480EF16F060E2A
:10331C00F26F100EF36F000EF46F57EC01F0180EF5
:10332C00EF6F060EF06FF40EF16F070EF26F100ECA
:10333C00F36F000EF46F57EC01F0010E0601066FEF
:10334C00020E0501B56F09011951000A05E00801CB
:10335C000651010A01E002D006018D93030E08010B
:10336C00075DD8A0CCD0090109A141D023533FE07F
:10337C00010ED86F95EC0AF0020E0901D86F95EC8E
:10338C000AF00501A56B0601296B050E6D6F080E81
:10339C000901D86F080ED96F010EDA6F5AEC09F0DB
:1033AC00090E0901D86F9FEC09F0E60EEF6F050EC0
:1033BC00F06F480EF16F060EF26F100EF36F000EE9
:1033CC00F46F57EC01F0180EEF6F060EF06F2E0E27
:1033DC00F16F080EF26F100EF36F000EF46F57ECD6
:1033EC0001F0010E0601066F020E0501B56F090111
:1033FC000751000A3FE0010ED86F95EC0AF0020E5F
:10340C000901D86F95EC0AF00501A56B0601296B33
:10341C00050E6D6F480E0901D86F080ED96F010E9D
:10342C00DA6F5AEC09F0090E0901D86F9FEC09F01C
:10343C00E60EEF6F050EF06F480EF16F060EF26F91
:10344C00100EF36F000EF46F57EC01F0180EEF6FC7
:10345C00060EF06F930EF16F080EF26F100EF36FF5
:10346C00000EF46F57EC01F0010E0601066F020E10
:10347C000501B56F09010A51010A41E122533FE0F0
:10348C00010ED86F95EC0AF0020E0901D86F95EC7D
:10349C000AF00501A56B0601296B050E6D6F6B0E0D
:1034AC000901D86F080ED96F010EDA6F5AEC09F0CA
:1034BC00090E0901D86F9FEC09F0E60EEF6F050EAF
:1034CC00F06F480EF16F060EF26F100EF36F000ED8
:1034DC00F46F57EC01F0180EEF6F060EF06F5A0EEA
:1034EC00F16F080EF26F100EF36F000EF46F57ECC5
:1034FC0001F0010E0601066F020E0501B56F060103
:10350C008D51000AD8A48DD009011B5370E0010E17
:10351C00D86FD96BD6EC0EF0020E0901D86FD96BAF
:10352C00D6EC0EF0010E0901D86FBDC6D9F90DEC21
:10353C000FF00501A56BD46BBEC6D8F9010E0901BD
:10354C00D96F0DEC0FF00601296B8C6B010E080185
:10355C003F250901D86F000E080140210901D96FE0
:10356C00000E080141210901DA6F000E0801422109
:10357C000901DB6F030EDC6F98EC07F0010E0801FC
:10358C003F250901D86F000E080140210901D96FB0
:10359C00000E080141210901DA6F000E08014221D9
:1035AC000901DB6F040EDC6F98EC07F0010E0801CB
:1035BC003F250901D86F000E080140210901D96F80
:1035CC00000E080141210901DA6F000E08014221A9
:1035DC000901DB6F010ED827000ED923DA23DB2378
:1035EC000D0EDC6F98EC07F006018D851AD0010EDC
:1035FC0008013F250901D86F000E0801402109017F
:10360C00D96F000E080141210901DA6F000E080183
:10361C0042210901DB6F0D0EDC6F98EC07F00601FF
:10362C008D850D0E0901D86FC7EC08F000522DE006
:10363C00020E06016D6F0701F36BCD6B090E0901CC
:10364C00D86F9FEC09F0E60EEF6F050EF06FCE0E03
:10365C00F16F070EF26F100EF36F000EF46F57EC54
:10366C0001F0180EEF6F060EF06F070EF16F060EDD
:10367C00F26F100EF36F000EF46F57EC01F0010EA9
:10368C000601066F020E0501B56F06016D51050AA4
:10369C0004E06D51060A01E044D00901D86B9FEC9F
:1036AC0009F0000E0F1902E1000E0E193AE00E514E
:1036BC0008013F250901D86F0F510801402109016C
:1036CC00D96F000E080141210901DA6F000E0801C3
:1036DC0042210901DB6F090EDC6F98EC07F0080141
:1036EC00056B0701F36B190E0901D86F080ED96F22
:1036FC00010EDA6F5AEC09F0180E0901EF6F060E85
:10370C00F06F820EF16F080EF26F100EF36F000E59
:10371C00F46F57EC01F0010E0601066F020E050165
:04372C00B56F120063
:10373000E8D1838E090107A108D0020E0801DA6FD3
:103740000901252B010E0601BF6F090107A309D04E
:10375000010E0801DA6F030E0901256F010E060143
:10376000BF6F0501A56B0601296B03D2020E09018B
:10377000D86FD96BD6EC0EF0060E08013F25090173
:10378000D86F000E080140210901D96F000E080111
:1037900041210901DA6F000E080142210901DB6FA6
:1037A000150EDC6F98EC07F0252BE3D108A30CD0A5
:1037B00006012951010A08E1296B020E0901D86F9F
:1037C00095EC0AF00901252B0901150ED86FC7ECFD
:1037D00008F0005203E0010E0601296FCAD1010E64
:1037E0000901D86FD96BD6EC0EF0060E08013F2503
:1037F0000901D86F000E080140210901D96F000EA0
:10380000080141210901DA6F000E08014221090176
:10381000DB6F140EDC6F98EC07F0252B08A10CD0A1
:103820000501A551010A08E1A56B010E0901D86F38
:1038300095EC0AF00901252B0901140ED86FC7EC8D
:1038400008F0005203E0010E0501A56F92D13FC8B8
:10385000DBF840C8DCF841C8DDF842C8DEF8010EEC
:103860000901D86F010ED96FD6EC0EF0060E0801D3
:103870003F250901D86F000E080140210901D96FC9
:10388000000E080141210901DA6F000E08014221F2
:103890000901DB6F140EDC6F98EC07F0252B69D162
:1038A00008A11AD00501A551010A16E1A56B010E68
:1038B0000901D86F95EC0AF00801DA51010A04E118
:1038C0000B0E0901256F02D00901252B0801DB51E0
:1038D0003F5D006E00C0CFF8140E0901D86FC7EC31
:1038E00008F0005203E0010E0501A56F42D13FC868
:1038F000DBF840C8DCF841C8DDF842C8DEF8020E4B
:103900000901D86F010ED96FD6EC0EF0060E080132
:103910003F250901D86F000E080140210901D96F28
:10392000000E080141210901DA6F000E0801422151
:103930000901DB6F150EDC6F98EC07F0252B19D110
:1039400008A312D006012951010A0EE1296B020ECB
:103950000901D86F95EC0AF00901252B0801DB510C
:103960003F5D006E00C0D1F8150E0901D86FC7EC9D
:1039700008F0005203E0010E0601296FFAD03FC89B
:10398000DBF840C8DCF841C8DDF842C8DEF8020EBA
:103990000901D86FD96BD6EC0EF0060E08013F2551
:1039A0000901D86F000E080140210901D96F000EEE
:1039B000080141210901DA6F000E080142210901C5
:1039C000DB6F150EDC6F98EC07F0252BD2D008A327
:1039D00012D006012951010A0EE1296B020E0901DC
:1039E000D86F95EC0AF00901252B0801DB513F5DEA
:1039F000006E00C0D0F8150E0901D86FC7EC08F0B2
:103A0000005203E0010E0601296FB3D03FC8DBF876
:103A100040C8DCF841C8DDF842C8DEF8010E0901F3
:103A2000D86FD96BD6EC0EF0060E08013F250901C0
:103A3000D86F000E080140210901D96F000E08015E
:103A400041210901DA6F000E080142210901DB6FF3
:103A5000140EDC6F98EC07F0252B8BD008A112D048
:103A60000501A551010A0EE1A56B010E0901D86FF0
:103A700095EC0AF00901252B0801DB513F5D006E32
:103A800000C0CEF8140E0901D86FC7EC08F0005240
:103A900003E0010E0501A56F6CD0CE0E0901D86FB1
:103AA000080ED96F10EC07F0CE0ED86F080ED96F44
:103AB000DAC8DAF90BEC08F0E60EEF6F050EF06FDE
:103AC000F20EF16F060EF26F100EF36F000EF46F30
:103AD00057EC01F0180EEF6F060EF06FE10EF16F6C
:103AE000060EF26F100EF36F000EF46F57EC01F03C
:103AF000020E0501B56F010E0601066F839E6D6B08
:103B000038D009012551000AD8B413D62551010A2D
:103B1000D8B42CD62551020AD8B448D62551030A68
:103B2000D8B45DD62551040AD8B478D62551050AF3
:103B3000D8B48DD62551060AD8B4B2D62551070A75
:103B4000D8B4D5D62551080AD8B4FAD62551090AD1
:103B5000D8B415D725510A0AD8B439D725510B0A3C
:103B6000D8B454D725510C0AD8B478D725510D0AAA
:043B700094E01200CB
:103B7400030E0901D16F839E0601BA6BDFEC08F0D6
:103B840000500701F3191FE00801596BDFEC08F03E
:103B940000C0F3F700C0D8F9230ED96F060EDA6F10
:103BA400F4EC06F0180EEF6F060EF06FFF0EF16FD7
:103BB400000EF26F0B0EF36F000EF46F57EC01F072
:103BC400010E0601066F09010751000A04E1010113
:103BD400EA5301E144D10101EA6B838E010E06012F
:103BE400BA6F0901D86B9FEC09F01B5318E0010E62
:103BF40008013F250901D86F000E08014021090181
:103C0400D96F000E080141210901DA6F000E080185
:103C140042210901DB6F0C0EDC6F98EC07F0D151E7
:103C240008013F25006E000E4021016E000E412167
:103C3400026E000E4221036E00C026F901C027F96E
:103C440002C028F903C029F900C0D8F901C0D9F984
:103C540002C0DAF903C0DBF9010E0901DC6F98EC4C
:103C640007F026C9D8F927C9D9F928C9DAF929C921
:103C7400DBF9050EDC6F98EC07F00501D46B060E3A
:103C840008013F25006E000E4021016E000E412107
:103C9400026E000E4221036E0901D1510026000E6E
:103CA40001220222032200C026F901C027F902C022
:103CB40028F903C029F900C0D8F901C0D9F902C014
:103CC400DAF903C0DBF90A0EDC6F98EC07F0125145
:103CD40008013F25006E000E4021016E000E4121B7
:103CE400026E000E4221036E0901D1510026000E1E
:103CF40001220222032200C026F901C027F902C0D2
:103D040028F903C029F900C0D8F901C0D9F902C0C3
:103D1400DAF903C0DBF9030EDC6F98EC07F01951F4
:103D2400000AD8B48DD008010651020AD8A488D05C
:103D340009010D5108013F250901D86F000E080142
:103D440040210901D96F000E080141210901DA6FF0
:103D5400000E080142210901DB6FD151D827000E62
:103D6400D923DA23DB23020EDC6F98EC07F00D5124
:103D740008013F250901D86F000E080140210901FF
:103D8400D96F000E080141210901DA6F000E080104
:103D940042210901DB6FD151D827000ED923DA2340
:103DA400DB23060EDC6F98EC07F006018C6B09012F
:103DB4000D5108013F250901D86F000E080140216B
:103DC4000901D96F000E080141210901DA6F000EC3
:103DD400080142210901DB6F060ED827000ED92302
:103DE400DA23DB23D151D827000ED923DA23DB23AE
:103DF4000B0EDC6F98EC07F0195108013F250901FF
:103E0400D86F000E080140210901D96F000E080186
:103E140041210901DA6F000E080142210901DB6F1B
:103E24000D51D827000ED923DA23DB23D151D8270B
:103E3400000ED923DA23DB23040EDC6F98EC07F0A1
:103E4400030E06018D6F0501A56B0601296B0701A1
:103E5400CD6B0801076B056B080E06016D6F090E2B
:103E64000901D86FC7EC08F00050010AD8A4D8D1D2
:103E74001751000A05E008010651010A01E084D047
:103E84000901D86B9FEC09F0D15108013F25006E60
:103E9400000E4021016E000E4121026E000E4221EF
:103EA400036E00C026F901C027F902C028F903C037
:103EB40029F900C0D8F901C0D9F902C0DAF903C060
:103EC400DBF9010E0901DC6F98EC07F026C9D8F97B
:103ED40027C9D9F928C9DAF929C9DBF9050EDC6F34
:103EE40098EC07F00501D46B060E08013F25006E1F
:103EF400000E4021016E000E4121026E000E42218F
:103F0400036E0901D1510026000E01220222032270
:103F140000C026F901C027F902C028F903C029F915
:103F240000C0D8F901C0D9F902C0DAF903C0DBF93D
:103F34000A0EDC6F98EC07F0185108013F25006E5B
:103F4400000E4021016E000E4121026E000E42213E
:103F5400036E0901D1510026000E01220222032220
:103F640000C026F901C027F902C028F903C029F9C5
:103F740000C0D8F901C0D9F902C0DAF903C0DBF9ED
:103F8400030EDC6F98EC07F009011751000AD8B44E
:103F940038D108010651020AD8A433D10901D86BDB
:103FA4009FEC09F0D15108013F25006E000E40211D
:103FB400016E000E4121026E000E4221036E00C00C
:103FC40026F901C027F902C028F903C029F900C065
:103FD400D8F901C0D9F902C0DAF903C0DBF9020E3D
:103FE4000901DC6F98EC07F026C9D8F927C9D9F97B
:103FF40028C9DAF929C9DBF9060EDC6F98EC07F059
:104004000501D46B060E08013F25006E000E402109
:10401400016E000E4121026E000E4221036E090161
:10402400D1510026000E01220222032200C026F9EB
:1040340001C027F902C028F903C029F900C0D8F942
:1040440001C0D9F902C0DAF903C0DBF90B0EDC6F49
:1040540098EC07F0185108013F25006E000E40212E
:10406400016E000E4121026E000E4221036E090111
:10407400D1510026000E01220222032200C026F99B
:1040840001C027F902C028F903C029F900C0D8F9F2
:1040940001C0D9F902C0DAF903C0DBF9040EDC6F00
:1040A40098EC07F00D5108013F25006E000E4021E9
:1040B400016E000E4121026E000E4221036E0901C1
:1040C400D1510026000E01220222032200C026F94B
:1040D40001C027F902C028F903C029F900C0D8F9A2
:1040E40001C0D9F902C0DAF903C0DBF9010EDC6FB3
:1040F40098EC07F00D5108013F25006E000E402199
:10410400016E000E4121026E000E4221036E090170
:10411400D1510026000E01220222032200C026F9FA
:1041240001C027F902C028F903C029F900C0D8F951
:1041340001C0D9F902C0DAF903C0DBF9050EDC6F5E
:1041440098EC07F006018C6B09010D5108013F251D
:10415400006E000E4021016E000E4121026E000E21
:104164004221036E060E0026000E012202220322C3
:104174000901D1510026000E01220222032200C0AF
:1041840026F901C027F902C028F903C029F900C0A3
:10419400D8F901C0D9F902C0DAF903C0DBF90A0E73
:1041A400DC6F98EC07F0175108013F25006E000EF4
:1041B4004021016E000E4121026E000E4221036E69
:1041C4000901D1510026000E0122022203220D51C1
:1041D4000026000E01220222032200C026F901C09B
:1041E40027F902C028F903C029F900C0D8F901C091
:1041F400D9F902C0DAF903C0DBF9030EDC6F98ECDD
:1042040007F0030E0701186F0501A56B0601296B62
:104214000701CD6B0801076B056B070E06016D6F77
:10422400090109A118D0000E0F1902E1000E0E19A0
:1042340012E00701CD51000A0EE1010ECD6F010E0F
:104244000801056F4C0E0901D86F010ED96F010EDC
:10425400DA6F5AEC09F00701CD51010A16E10901A0
:1042640009B113D0000E0F1902E1000E0E190DE072
:104274000801056B0701CD6B610E0901D86F010EB2
:0C428400D96F010EDA6F5AEC09F012003D
:10429000020E0901D16F839E0601BA6BDFEC08F0B4
:1042A00000500701F3191FE00801596BDFEC08F01B
:1042B00000C0F3F700C0D8F9230ED96F060EDA6FED
:1042C000F4EC06F0180EEF6F060EF06FDE0EF16FD5
:1042D000000EF26F0B0EF36F000EF46F57EC01F04F
:1042E000010E0601066F09010751000A08E1090ED7
:1042F000D86FC7EC08F00050010A01E0D7D1175180
:10430000000A05E008010651010A01E084D0090114
:10431000D86B9FEC09F0D15108013F25006E000ECB
:104320004021016E000E4121026E000E4221036EFB
:1043300000C026F901C027F902C028F903C029F9F5
:1043400000C0D8F901C0D9F902C0DAF903C0DBF91D
:10435000010E0901DC6F98EC07F026C9D8F927C9CE
:10436000D9F928C9DAF929C9DBF9050EDC6F98EC0F
:1043700007F00501D46B060E08013F25006E000E04
:104380004021016E000E4121026E000E4221036E9B
:104390000901D1510026000E01220222032200C091
:1043A00026F901C027F902C028F903C029F900C085
:1043B000D8F901C0D9F902C0DAF903C0DBF90A0E55
:1043C000DC6F98EC07F0185108013F25006E000ED5
:1043D0004021016E000E4121026E000E4221036E4B
:1043E0000901D1510026000E01220222032200C041
:1043F00026F901C027F902C028F903C029F900C035
:10440000D8F901C0D9F902C0DAF903C0DBF9030E0B
:10441000DC6F98EC07F009011751000AD8B439D1C4
:1044200008010651020AD8A434D1090E0901D86F37
:104430009FEC09F0D15108013F25006E000E40218C
:10444000016E000E4121026E000E4221036E00C07B
:1044500026F901C027F902C028F903C029F900C0D4
:10446000D8F901C0D9F902C0DAF903C0DBF9020EAC
:104470000901DC6F98EC07F026C9D8F927C9D9F9EA
:1044800028C9DAF929C9DBF9060EDC6F98EC07F0C8
:104490000501D46B060E08013F25006E000E402179
:1044A000016E000E4121026E000E4221036E0901D1
:1044B000D1510026000E01220222032200C026F95B
:1044C00001C027F902C028F903C029F900C0D8F9B2
:1044D00001C0D9F902C0DAF903C0DBF90B0EDC6FB9
:1044E00098EC07F0185108013F25006E000E40219E
:1044F000016E000E4121026E000E4221036E090181
:10450000D1510026000E01220222032200C026F90A
:1045100001C027F902C028F903C029F900C0D8F961
:1045200001C0D9F902C0DAF903C0DBF9040EDC6F6F
:1045300098EC07F00D5108013F25006E000E402158
:10454000016E000E4121026E000E4221036E090130
:10455000D1510026000E01220222032200C026F9BA
:1045600001C027F902C028F903C029F900C0D8F911
:1045700001C0D9F902C0DAF903C0DBF9010EDC6F22
:1045800098EC07F00D5108013F25006E000E402108
:10459000016E000E4121026E000E4221036E0901E0
:1045A000D1510026000E01220222032200C026F96A
:1045B00001C027F902C028F903C029F900C0D8F9C1
:1045C00001C0D9F902C0DAF903C0DBF9050EDC6FCE
:1045D00098EC07F006018C6B09010D5108013F258D
:1045E000006E000E4021016E000E4121026E000E91
:1045F0004221036E060E0026000E01220222032233
:104600000901D1510026000E01220222032200C01E
:1046100026F901C027F902C028F903C029F900C012
:10462000D8F901C0D9F902C0DAF903C0DBF90A0EE2
:10463000DC6F98EC07F0175108013F25006E000E63
:104640004021016E000E4121026E000E4221036ED8
:104650000901D1510026000E0122022203220D5130
:104660000026000E01220222032200C026F901C00A
:1046700027F902C028F903C029F900C0D8F901C000
:10468000D9F902C0DAF903C0DBF9030EDC6F98EC4C
:1046900007F0030E0701186F0501A56B0601296BD2
:1046A0000801076B056B070E06016D6F090109A173
:1046B00018D0000E0F1902E1000E0E1912E00701CA
:1046C000CD51000A0EE1010ECD6F010E0801056FFC
:1046D000AF0E0901D86F000ED96F010EDA6F5AECD8
:1046E00009F00701CD51010A16E1090109B113D002
:1046F000000E0F1902E1000E0E190DE00801056B06
:104700000701CD6BC40E0901D86F000ED96F010EE1
:08471000DA6F5AEC09F0120007
:10471800838E010E0601BA6F010E0901D86FC7EC2E
:1047280008F000520EE0010ED86FD96BD6EC0EF0EF
:10473800270E0901D86F040ED96F010EDA6F5AECF3
:1047480009F0020E0901D86FC7EC08F0005231E0F9
:10475800020ED86FD96BD6EC0EF0EE0E0901D86FA9
:10476800030ED96F010EDA6F5AEC09F0E60E090153
:10477800EF6F050EF06F1A0EF16F000EF26F100E4C
:10478800F36F000EF46F57EC01F0180EEF6F060E82
:10479800F06F070EF16F060EF26F100EF36F000E3A
:1047A800F46F57EC01F0010E0601066F010E0501CA
:1047B800B56F0A0E0901D86FC7EC08F0005210E077
:1047C800010E0501A56F010E0901D86F4FEC0AF023
:1047D800FD0ED86F030ED96F010EDA6F5AEC09F08F
:1047E8000B0E0901D86FC7EC08F0005210E0010E5B
:1047F8000601296F020E0901D86F4FEC0AF0520E1C
:10480800D86F040ED96F010EDA6F5AEC09F0050E55
:104818000901D86FC7EC08F0005211E0010ED86FFB
:10482800BDC6D9F90DEC0FF00501D46B670E09016F
:10483800D86F040ED96F010EDA6F5AEC09F0060E24
:104848000901D86FC7EC08F0005211E0BEC6D8F9CC
:10485800010ED96F0DEC0FF006018C6B360E0901B5
:10486800D86F040ED96F010EDA6F5AEC09F0030EF7
:104878000901D86FC7EC08F0005209E10501A551FC
:10488800010A04E1090108A101D001D012D00701F1
:1048980018A10FD01891010E0901D86F95EC0AF0F4
:1048A800450E0901D86F040ED96F010EDA6F5AEC64
:1048B80009F0040E0901D86FC7EC08F0005209E1AD
:1048C80006012951010A04E1090108A301D001D018
:1048D80012D0070118A30FD01893020E0901D86F40
:1048E80095EC0AF0500E0901D86F050ED96F010E2C
:1048F800DA6F5AEC09F009011951000A05E00801BC
:104908000651010A01E002D007011893030E0801BD
:10491800075DD8A0CFD0090109A142D0010ED86FF8
:1049280095EC0AF0020E0901D86F95EC0AF0050122
:10493800A56B0601296B060E6D6F010E0101EA6F6A
:104948005D0E0901D86F050ED96F010EDA6F5AECAA
:1049580009F0090E0901D86F9FEC09F0E60EEF6F18
:10496800050EF06F480EF16F060EF26F100EF36F22
:10497800000EF46F57EC01F0180EEF6F060EF06F93
:104988002E0EF16F080EF26F100EF36F000EF46F1B
:1049980057EC01F0010E0601066F020E0501B56F16
:1049A80009010751000A40E0010ED86F95EC0AF0A2
:1049B800020E0901D86F95EC0AF0060E06016D6F1C
:1049C8000501A56B0601296B290E0901D86F050E93
:1049D800D96F010EDA6F5AEC09F0090E0901D86F88
:1049E8009FEC09F0E60EEF6F050EF06F480EF16FC1
:1049F800060EF26F100EF36F000EF46F57EC01F015
:104A0800180EEF6F060EF06F930EF16F080EF26F2F
:104A1800100EF36F000EF46F57EC01F0010E060153
:104A2800066F020E0501B56F09010A51010A42E13C
:104A3800225340E0010ED86F95EC0AF0020E0901EE
:104A4800D86F95EC0AF0060E06016D6F0501A56B8F
:104A58000601296B3B0E0901D86F050ED96F010EAF
:104A6800DA6F5AEC09F0090E0901D86F9FEC09F0CA
:104A7800E60EEF6F050EF06F480EF16F060EF26F3F
:104A8800100EF36F000EF46F57EC01F0180EEF6F75
:104A9800060EF06F5A0EF16F080EF26F100EF36FDC
:104AA800000EF46F57EC01F0010E0601066F020EBE
:104AB8000501B56F07011851000AD8A4A6D009014D
:104AC8001B53D8B488D0010ED86F010ED96FD6EC1D
:104AD8000EF0010E08013F250901D86F000E0801EC
:104AE80040210901D96F000E080141210901DA6F3F
:104AF800000E080142210901DB6F0E0EDC6F98ECF5
:104B080007F0010ED86FBDC6D9F90DEC0FF00501FD
:104B1800A56BD46BBEC6D8F9010E0901D96F0DEC8F
:104B28000FF00601296B8C6B010E08013F25090166
:104B3800D86F000E080140210901D96F000E080145
:104B480041210901DA6F000E080142210901DB6FDA
:104B5800030EDC6F98EC07F0010E08013F250901F0
:104B6800D86F000E080140210901D96F000E080115
:104B780041210901DA6F000E080142210901DB6FAA
:104B8800010ED827000ED923DA23DB23040EDC6FAD
:104B980098EC07F0010E08013F250901D86F000EB7
:104BA800080140210901D96F000E080141210901BE
:104BB800DA6F000E080142210901DB6F010ED827C8
:104BC800000ED923DA23DB230D0EDC6F98EC07F0F7
:104BD800070118851AD0010E08013F250901D86F71
:104BE800000E080140210901D96F000E080141217A
:104BF8000901DA6F000E080142210901DB6F0D0E71
:104C0800DC6F98EC07F0070118850E0E0901D86FC4
:104C1800C7EC08F0005206E0020ED86F010ED96FFB
:104C2800D6EC0EF00D0E0901D86FC7EC08F0005253
:104C38002DE0010E06016D6F0701CD6BF36B090EB8
:104C48000901D86F9FEC09F0E60EEF6F050EF06FC3
:104C58001D0EF16F010EF26F100EF36F000EF46F60
:104C680057EC01F0180EEF6F060EF06F070EF16F9C
:104C7800060EF26F100EF36F000EF46F57EC01F092
:104C8800010E0601066F010E0501B56F06016D5193
:104C9800050A04E06D51060A01E044D00901D86B09
:104CA8009FEC09F0000E0F1902E1000E0E193AE010
:104CB8000E5108013F250901D86F0F510801402105
:104CC8000901D96F000E080141210901DA6F000EB0
:104CD800080142210901DB6F090EDC6F98EC07F02F
:104CE8000801056B0701F36B7F0E0901D86F050EEC
:104CF800D96F010EDA6F5AEC09F0180E0901EF6F3F
:104D0800060EF06F820EF16F080EF26F100EF36F41
:104D1800000EF46F57EC01F0010E0601066F020E4B
:064D28000501B56F120049
:104D2E00838E010E0601BA6F010E0901D86FC7EC12
:104D3E0008F000520EE0010ED86FD96BD6EC0EF0D3
:104D4E00400E0901D86F000ED96F010EDA6F5AECC2
:104D5E0009F0020E0901D86FC7EC08F0005231E0DD
:104D6E00020ED86FD96BD6EC0EF04F0E0901D86F2C
:104D7E00000ED96F010EDA6F5AEC09F0E60E09013A
:104D8E00EF6F050EF06F1A0EF16F000EF26F100E30
:104D9E00F36F000EF46F57EC01F0180EEF6F060E66
:104DAE00F06F070EF16F060EF26F100EF36F000E1E
:104DBE00F46F57EC01F0010E0601066F010E0501AE
:104DCE00B56F0A0E0901D86FC7EC08F0005210E05B
:104DDE00010E0501A56F010E0901D86F4FEC0AF007
:104DEE002B0ED86F000ED96F010EDA6F5AEC09F048
:104DFE000B0E0901D86FC7EC08F0005210E0010E3F
:104E0E000601296F020E0901D86F4FEC0AF07E0ED3
:104E1E00D86F000ED96F010EDA6F5AEC09F0050E3D
:104E2E000901D86FC7EC08F0005212E0010ED86FDE
:104E3E00BDC6D9F90DEC0FF00501A56BD46B930E21
:104E4E000901D86F000ED96F010EDA6F5AEC09F016
:104E5E00070E0901D86FC7EC08F0005212E0D86BAC
:104E6E00BDC6D9F90DEC0FF00501A56B010ED46F7F
:104E7E005E0E0901D86F000ED96F010EDA6F5AEC73
:104E8E0009F0060E0901D86FC7EC08F0005211E0C8
:104E9E00BEC6D8F9010ED96F0DEC0FF006018C6B62
:104EAE006F0E0901D86F000ED96F010EDA6F5AEC32
:104EBE0009F0080E0901D86FC7EC08F0005211E096
:104ECE00BEC6D8F9D96B0DEC0FF0010E06018C6F32
:104EDE00950E0901D86F010ED96F010EDA6F5AECDB
:104EEE0009F0030E0901D86FC7EC08F0005210E06C
:104EFE0007011891010E0901D86F95EC0AF0A60E64
:104F0E000901D86F010ED96F010EDA6F5AEC09F054
:104F1E00040E0901D86FC7EC08F0005210E007012B
:104F2E001893020E0901D86F95EC0AF0770E09015D
:104F3E00D86F010ED96F010EDA6F5AEC09F0050128
:104F4E00A551010A48E1090108A145D00501D45136
:104F5E00000A41E1010E0901D86F95EC0AF0020E2C
:104F6E000901D86F95EC0AF0060E06016D6F05016A
:104F7E00A56B0601296B840E0901D86F010ED96F3E
:104F8E00010EDA6F5AEC09F0090E0901D86F9FEC89
:104F9E0009F0E60EEF6F050EF06F480EF16F060E7C
:104FAE00F26F100EF36F000EF46F57EC01F0180E47
:104FBE00EF6F060EF06FF40EF16F070EF26F100E1C
:104FCE00F36F000EF46F57EC01F0010E0601066F41
:104FDE00020E0501B56F06012951010A48E10901CA
:104FEE0008A345D006018C51000A41E1010E0901CA
:104FFE00D86F95EC0AF0020E0901D86F95EC0AF005
:10500E00060E06016D6F0501A56B0601296BD90E03
:10501E000901D86F010ED96F010EDA6F5AEC09F043
:10502E00090E0901D86F9FEC09F0E60EEF6F050E21
:10503E00F06F480EF16F060EF26F100EF36F000E4A
:10504E00F46F57EC01F0180EEF6F060EF06FF40EC2
:10505E00F16F070EF26F100EF36F000EF46F57EC38
:10506E0001F0010E0601066F020E0501B56F090172
:10507E001951000A05E008010651010A01E002D0AB
:10508E0007011893030E0801075DD8A0CED00901C1
:10509E0009A141D0010ED86F95EC0AF0020E09015C
:1050AE00D86F95EC0AF00501A56B0601296B060E6B
:1050BE006D6F010E0101EA6FB30E0901D86F010E7B
:1050CE00D96F010EDA6F5AEC09F00901D86B9FEC1B
:1050DE0009F0E60EEF6F050EF06F480EF16F060E3B
:1050EE00F26F100EF36F000EF46F57EC01F0180E06
:1050FE00EF6F060EF06F2E0EF16F080EF26F100EA0
:10510E00F36F000EF46F57EC01F0010E0601066FFF
:10511E00020E0501B56F09010A51010A42E122533F
:10512E0040E0010ED86F95EC0AF0020E0901D86F1F
:10513E0095EC0AF0060E06016D6F0501A56B0601D2
:10514E00296BC40E0901D86F010ED96F010EDA6FEB
:10515E005AEC09F0090E0901D86F9FEC09F0E60E22
:10516E00EF6F050EF06F480EF16F060EF26F100E18
:10517E00F36F000EF46F57EC01F0180EEF6F060E82
:10518E00F06F5A0EF16F080EF26F100EF36F000EE5
:10519E00F46F57EC01F0010E0601066F020E0501C9
:1051AE00B56F09010751000A40E0010ED86F95EC6A
:1051BE000AF0020E0901D86F95EC0AF0060E0601F0
:1051CE006D6F0501A56B0601296B0B0E0901D86FDA
:1051DE00010ED96F010EDA6F5AEC09F0090E0901B2
:1051EE00D86F9FEC09F0E60EEF6F050EF06F480ECC
:1051FE00F16F060EF26F100EF36F000EF46F57EC98
:10520E0001F0180EEF6F060EF06F930EF16F080E91
:10521E00F26F100EF36F000EF46F57EC01F0010EEB
:10522E000601066F020E0501B56F07011851000A3F
:10523E00D8A4A6D009011B53D8B488D0010ED86FBC
:10524E00010ED96FD6EC0EF0010E08013F250901B3
:10525E00D86F000E080140210901D96F000E080118
:10526E0041210901DA6F000E080142210901DB6FAD
:10527E000E0EDC6F98EC07F0010ED86FBDC6D9F993
:10528E000DEC0FF00501A56BD46BBEC6D8F9010E5F
:10529E000901D96F0DEC0FF00601296B8C6B010E15
:1052AE0008013F250901D86F000E080140210901B0
:1052BE00D96F000E080141210901DA6F000E0801B5
:1052CE0042210901DB6F030EDC6F98EC07F0010E33
:1052DE0008013F250901D86F000E08014021090180
:1052EE00D96F000E080141210901DA6F000E080185
:1052FE0042210901DB6F010ED827000ED923DA23D4
:10530E00DB23040EDC6F98EC07F0010E08013F253D
:10531E000901D86F000E080140210901D96F000E56
:10532E00080141210901DA6F000E0801422109012D
:10533E00DB6F010ED827000ED923DA23DB230D0EE7
:10534E00DC6F98EC07F0070118851AD0010E0801E2
:10535E003F250901D86F000E080140210901D96FC0
:10536E00000E080141210901DA6F000E08014221E9
:10537E000901DB6F0D0EDC6F98EC07F00701188545
:10538E000E0E0901D86FC7EC08F0005206E0020EAF
:10539E00D86F010ED96FD6EC0EF00D0E0901D86F35
:1053AE00C7EC08F000522DE0010E06016D6F0701EB
:1053BE00CD6BF36B090E0901D86F9FEC09F0E60E69
:1053CE00EF6F050EF06F1D0EF16F010EF26F100EE6
:1053DE00F36F000EF46F57EC01F0180EEF6F060E20
:1053EE00F06F070EF16F060EF26F100EF36F000ED8
:1053FE00F46F57EC01F0010E0601066F010E050168
:10540E00B56F06016D51050A04E06D51060A01E003
:10541E0045D00901D86B9FEC09F0000E0F1902E17F
:10542E00000E0E193BE00701F36B09010E51080146
:10543E003F250901D86F0F51080140210901D96F8D
:10544E00000E080141210901DA6F000E0801422108
:10545E000901DB6F090EDC6F98EC07F00801056B94
:10546E00EA0E0901D86F000ED96F010EDA6F5AECF1
:10547E0009F0180E0901EF6F060EF06F820EF16F34
:10548E00080EF26F100EF36F000EF46F57EC01F072
:0E549E00010E0601066F020E0501B56F120029
:1054AC00090103A10BD00701AD51000A03E1160E4F
:1054BC00AD6F01D0AD07640E06016D6F090103A538
:1054CC000AD00701AD51160A02E1AD6B01D0AD2B2C
:1054DC00640E06016D6F090103A303D0660E06016D
:1054EC006D6F09010351050A27E1E60EEF6F050EFA
:1054FC00F06FFE0EF16F020EF26F100EF36F000ED6
:10550C00F46F57EC01F00001AA6B180E0901EF6F54
:10551C00060EF06F0E0EF16F030EF26F100EF36F9E
:10552C00000EF46F57EC01F0020E0501B56F010E81
:0A553C000601066FFA0E6D6F1200F3
:10554600030E0901D16FD26BD36BD46BD56B839EDF
:105556000601BA6B09010351020A05E1640E060150
:105566006D6F0701AD6B0901075103080801066F4E
:1055760009010751000AD8B4DFD2090ED86F9FEC93
:1055860009F0838E010E0601BA6F09011B5318E05C
:10559600010E08013F250901D86F000E08014021C0
:1055A6000901D96F000E080141210901DA6F000EC9
:1055B600080142210901DB6F0C0EDC6F98EC07F045
:1055C600D15108013F25006E000E4021016E000EEC
:1055D6004121026E000E4221036E00C026F901C071
:1055E60027F902C028F903C029F900C0D8F901C07B
:1055F600D9F902C0DAF903C0DBF9010E0901DC6F43
:1056060098EC07F00C51000A10E026C9D8F927C912
:10561600D9F928C9DAF929C9DBF9070EDC6F98EC44
:1056260007F0010E0501D46F0FD026C9D8F927C996
:10563600D9F928C9DAF929C9DBF9050E0901DC6FA0
:1056460098EC07F00501D46B09010C5108013F25C0
:10565600006E000E4021016E000E4121026E000E0A
:105666004221036E060E0026000E012202220322AC
:105676000901D1510026000E01220222032200C098
:1056860026F901C027F902C028F903C029F900C08C
:10569600D8F901C0D9F902C0DAF903C0DBF90A0E5C
:1056A600DC6F98EC07F00C5108013F25006E000EE8
:1056B6004021016E000E4121026E000E4221036E52
:1056C6000901D1510026000E01220222032200C048
:1056D60026F901C027F902C028F903C029F900C03C
:1056E600D8F901C0D9F902C0DAF903C0DBF9050E11
:1056F600DC6F98EC07F00051000A2EE01251080109
:105706003F25006E000E4021016E000E4121026E03
:10571600000E4221036E09010051005E000E015A7F
:10572600025A035AD1510026000E012202220322F8
:1057360000C026F901C027F902C028F903C029F9DB
:1057460000C0D8F901C0D9F902C0DAF903C0DBF903
:10575600070EDC6F98EC07F0125108013F25006E2A
:10576600000E4021016E000E4121026E000E422104
:10577600036E0901D1510026000E012202220322E6
:1057860000C026F901C027F902C028F903C029F98B
:1057960000C0D8F901C0D9F902C0DAF903C0DBF9B3
:1057A600030EDC6F98EC07F0125108013F25090142
:1057B600D26F000E080140210901D36F000E0801C7
:1057C60041210901D46F000E080142210901D56F5C
:1057D600D151D227000ED323D423D5231951000A41
:1057E600D8B470D108010651020AD8A46BD10901B8
:1057F6000D5108013F25006E000E4021016E000E7E
:105806004121026E000E4221036E0901D15100268C
:10581600000E01220222032200C026F901C027F948
:1058260002C028F903C029F900C0D8F901C0D9F986
:1058360002C0DAF903C0DBF9020EDC6F98EC07F060
:105846000C51000A2CE00D5108013F25006E000E98
:105856004021016E000E4121026E000E4221036EB0
:105866000901D1510026000E01220222032200C0A6
:1058760026F901C027F902C028F903C029F900C09A
:10588600D8F901C0D9F902C0DAF903C0DBF9080E6C
:10589600DC6F98EC07F0010E06018C6F2BD0090126
:1058A6000D5108013F25006E000E4021016E000ECD
:1058B6004121026E000E4221036E0901D1510026DC
:1058C600000E01220222032200C026F901C027F998
:1058D60002C028F903C029F900C0D8F901C0D9F9D6
:1058E60002C0DAF903C0DBF9060EDC6F98EC07F0AC
:1058F60006018C6B09010D5108013F25006E000E53
:105906004021016E000E4121026E000E4221036EFF
:1059160009010C510026000E012202220322060E66
:105926000026000E012202220322D1510026000E7B
:1059360001220222032200C026F901C027F902C073
:1059460028F903C029F900C0D8F901C0D9F902C065
:10595600DAF903C0DBF90B0EDC6F98EC07F00D519A
:1059660008013F25006E000E4021016E000E412108
:10597600026E000E4221036E09010C510026000E34
:10598600012202220322D1510026000E0122022208
:10599600032200C026F901C027F902C028F903C076
:1059A60029F900C0D8F901C0D9F902C0DAF903C053
:1059B600DBF9060EDC6F98EC07F00051000A34E0C4
:1059C6000D5108013F25006E000E4021016E000EAC
:1059D6004121026E000E4221036E09011951002673
:1059E600000E0122022203220051005E000E015A1F
:1059F600025A035AD1510026000E01220222032226
:105A060000C026F901C027F902C028F903C029F908
:105A160000C0D8F901C0D9F902C0DAF903C0DBF930
:105A2600080EDC6F98EC07F0195108013F25006E4F
:105A3600000E4021016E000E4121026E000E422131
:105A4600036E09010D510026000E012202220322D7
