:0400000097EF3CF04A
:1000080000C019F001C018F004C017F008C016F0BD
:100018000CC015F0F2A42ED00001842B8088010EAC
:10002800856F8351FF0A03E1836B876B01D0832BB4
:1000380002014251FF0A04E1426B0001866B02D0C3
:100048000201422B190E0001845D0FE3846B010E3F
:10005800F227000EF323F423F5237F52010ED8A4D0
:10006800000E7F6E8098010E896FF30ED76ECA0E50
:10007800D66EF294F0A017D000018751000A03E170
:10008800872B836B01D0872B050E875D0BE3130E3F
:10009800835D07E38351150804E3010E8E6F876BB8
:1000A80001D0876BF090F0A21DD000018651000AA4
:1000B80004E1862B0201426B02D00001862B00016D
:1000C800050E865D0EE3130E0201425D08E3425100
:1000D800150805E3010E00018B6F866B02D0000145
:1000E800866BF092F2A230D00001902B9051FF0A5B
:1000F80002E1020E906F030E046E90C000F066D805
:1001080008C000F00050010A0EE1DF5305E0D853A3
:1001180002E0818601D08196DD5305E0DB5302E0E1
:10012800818801D08198030E046E90C000F04ED8EB
:1001380008C000F00050000A06E1DF5301E08186A4
:10014800DD5301E08188F29219C000F018C001F077
:0E01580017C004F016C008F015C00CF011001E
:0E016600ACB202D00000FCD7BEC5ADFF120047
:10017400BEC5C9FFC7B002D00000FCD7C9CF00F08C
:02018400120067
:10018600F250026EF29E0500FF6A0150FE6E0050AC
:08019600FD6E02BEF28E1200A4
:10019E00086A096A100E0C6E0134083609360450CE
:1001AE00085E0550D8A0053C095ED8B007D00450B3
:1001BE0008260550D8B0053C0926D89000360136E1
:0601CE000C2EEAD712001E
:1001D400086A080E0C6E003408360450085ED8B065
:0E01E40002D00826D89000360C2EF5D7120057
:1001F200A6A202D00000FCD7A69CB8C5AAFFB7C52C
:10020200A9FFB9C5A8FFA69EA684F2CF00F0F29E70
:10021200550EA76EAA0EA76EA68200BE02D0F29E4F
:0802220001D0F28EA694120037
:10022A00B9C504F0BAC505F0B7C502F0B8C503F000
:10023A00BBC500F0BCC501F0010E0501BB5F000E95
:10024A00BC5B005001100FE004C0E9FF05C0EAFFE3
:10025A0002C0E1FF03C0E2FFEECFE6FF024A032A33
:10026A00044A052AE5D7B7C500F0B8C501F012005F
:10027A000501BB6B050EBB5D0AE2BB51B925E16EF8
:10028A00000EBA21E26E200EE66EBB2BF3D7BB51ED
:10029A00B925E16E000EBA21E26EE66ABB07BB51D0
:1002AA00B925BC6F000EBA21BD6F0A0E046E000E8E
:1002BA00056EB7C500F0B8C501F06CDF08C000F0E4
:1002CA0009C001F0300E0026BCC5E1FFBDC5E2FF42
:1002DA0000C0E6FF0A0E046E000E056EB7C500F0F8
:1002EA00B8C501F057DF00C0B7F501C0B8F5000E78
:1002FA00011802E1000E001801E102D0BB07CFD7B6
:02030A001200DF
:10030C000501BA6B030EBA5D0AE2BA51B825E16E6B
:10031C00000EB921E26E200EE66EBA2BF3D7BA515D
:10032C00B825E16E000EB921E26EE66ABA07BA5141
:10033C00B825BB6F000EB921BC6F0A0E046EB7C591
:10034C0000F042DF08C000F0300E0026BBC5E1FF14
:10035C00BCC5E2FF00C0E6FF0A0E046EB7C500F094
:10036C0033DF00C0B7F50050000A01E102D0BA0734
:04037C00DED71200B6
:100380009ED0EE0E0101896F020E8A6F320E8B6FC6
:10039000000E8C6FCBD00101D00E896F020E8A6FD8
:1003A000320E8B6F000E8C6FC1D00101A80E896FC9
:1003B000020E8A6F320E8B6F000E8C6FB7D0010168
:1003C0008A0E896F020E8A6F320E8B6F000E8C6F51
:1003D000ADD00101760E896F020E8A6F320E8B6FDF
:1003E000000E8C6FA3D00101580E896F020E8A6F28
:1003F000320E8B6F000E8C6F99D00101260E896F23
:10040000020E8A6F640E8B6F000E8C6F8FD001010D
:10041000120E896F020E8A6F640E8B6F000E8C6F46
:1004200085D00101F40E896F010E8A6F640E8B6F07
:10043000000E8C6F7BD00101EA0E896F010E8A6F6E
:10044000640E8B6F000E8C6F71D00101EA0E896F04
:10045000010E8A6F2C0E8B6F010E8C6F67D001011D
:10046000EA0E896F010E8A6FF40E8B6F010E8C6F8E
:100470005DD00101E00E896F010E8A6FE80E8B6F6F
:10048000030E8C6F53D00101E00E896F010E8A6F4D
:10049000D00E8B6F070E8C6F49D00101E00E896F73
:1004A000010E8A6FB80E8B6F0B0E8C6F3FD001015F
:1004B000896B8A6BFF0E8B6F000E8C6F37D0050136
:1004C000B751000AD8B45DD7B751010AD8B463D781
:1004D000B751020AD8B469D7B751030AD8B46FD755
:1004E000B751040AD8B475D7B751050AD8B47BD729
:1004F000B751060A82E0B751070A89E0B751080AE6
:1005000090E0B751090A97E0B7510A0A9EE0B75147
:100510000B0AA5E0B7510C0AACE0B7510D0AB3E0E5
:0E052000B7510E0ABAE0B7510F0AC1E012003F
:10052E000B6A0A6A096A086A0E6A033408360450AE
:10053E00085E0550D8A0053C095E0650D8A0063CC2
:10054E000A5E0750D8A0073C0B5EE86AD8A0010EE1
:10055E000E5E0336070E0C6E0334083609360A3665
:10056E000B360E36045003A012D0085E0550D8A0EC
:10057E00053C095E0650D8A0063C0A5E0750D8A07E
:10058E00073C0B5EE86AD8A0010E0E5E11D008265D
:10059E000550D8B0053C09260650D8B0063C0A26B0
:1005AE000750D8B0073C0B26E86AD8B0010E0E26CD
:1005BE0003360C2ED1D70234083609360A360B36DE
:1005CE000E36045003A012D0085E0550D8A0053C8C
:1005DE00095E0650D8A0063C0A5E0750D8A0073C1C
:1005EE000B5EE86AD8A0010E0E5E11D008260550EB
:1005FE00D8B0053C09260650D8B0063C0A2607504E
:10060E00D8B0073C0B26E86AD8B0010E0E2602368B
:10061E00070E0C6E0234083609360A360B360E36C5
:10062E00045002A012D0085E0550D8A0053C095E09
:10063E000650D8A0063C0A5E0750D8A0073C0B5EB9
:10064E00E86AD8A0010E0E5E11D008260550D8B06B
:10065E00053C09260650D8B0063C0A260750D8B0ED
:10066E00073C0B26E86AD8B0010E0E2602360C2E79
:10067E00D1D70134083609360A360B360E360450F9
:10068E0002A012D0085E0550D8A0053C095E0650A7
:10069E00D8A0063C0A5E0750D8A0073C0B5EE86A5D
:1006AE00D8A0010E0E5E11D008260550D8B0053C1C
:1006BE0009260650D8B0063C0A260750D8B0073C8B
:1006CE000B26E86AD8B0010E0E260136070E0C6E08
:1006DE000134083609360A360B360E36045001A0A0
:1006EE0012D0085E0550D8A0053C095E0650D8A071
:1006FE00063C0A5E0750D8A0073C0B5EE86AD8A0FD
:10070E00010E0E5E11D008260550D8B0053C092604
:10071E000650D8B0063C0A260750D8B0073C0B2628
:10072E00E86AD8B0010E0E2601360C2ED1D7003451
:10073E00083609360A360B360E36045001A012D092
:10074E00085E0550D8A0053C095E0650D8A0063CB0
:10075E000A5E0750D8A0073C0B5EE86AD8A0010ECF
:10076E000E5E11D008260550D8B0053C092606505D
:10077E00D8B0063C0A260750D8B0073C0B26E86ACC
:10078E00D8B0010E0E260036070E0C6E0034083659
:10079E0009360A360B360E36045000A012D0085E0B
:1007AE000550D8A0053C095E0650D8A0063C0A5E4E
:1007BE000750D8A0073C0B5EE86AD8A0010E0E5E6B
:1007CE0011D008260550D8B0053C09260650D8B0E1
:1007DE00063C0A260750D8B0073C0B26E86AD8B06C
:1007EE00010E0E2600360C2ED1D700B00ED00450BE
:1007FE0008260550D8B0053C09260650D8B0063C50
:0C080E000A260750D8B0073C0B26120049
:10081A004DC2E1FF4EC2E2FFB7C5E6FF4BC200F090
:08082A004CC201F0ABDC12002E
:0A083200490E0D6E0D2EFED71200C8
:10083C000900F5CFE6FF0006FBE10106F9E1120025
:10084C000501B16B0A0EB15D0AE2B151AF25E16E43
:10085C00000EB021E26E300EE66EB12BF3D7B15123
:10086C00AF25E16E000EB021E26EE66AB107000E14
:10087C00006EAE1908E10050AD1905E10050AC193D
:10088C0002E1AB51000A3EE0B151AF25B26F000E50
:10089C00B021B36F0A0E046E000E056E066E076E65
:1008AC00ABC500F0ACC501F0ADC502F0AEC503F0B0
:1008BC0038DE08C000F009C001F00AC002F00BC01D
:1008CC0003F0300E0026B2C5E1FFB3C5E2FF00C055
:1008DC00E6FFB1070A0E046E000E056E066E076E7B
:1008EC00ABC500F0ACC501F0ADC502F0AEC503F070
:1008FC0018DE00C0ABF501C0ACF502C0ADF503C00D
:06090C00AEF5B5D71200A4
:100912000501AE6BABC5E9FFACC5EAFFEECFADF5A5
:10092200AD51000A0EE0ADC5BEF51CDC0501AE2BD3
:10093200AE51AB25E96E000EAC21EA6EEECFADF5FD
:04094200EFD71200D9
:100946000501AE6BABC5E9FFACC5EAFFEECFADF571
:10095600AD51000A0EE0ADC5B7F55CDF0501AE2B63
:10096600AE51AB25E96E000EAC21EA6EEECFADF5C9
:04097600EFD71200A5
:10097A00C7B409D01F0EC514016E0150000A03E165
:0A098A00010E006E01D0006A120099
:100994000B6A0A6A096A00500402F4CF09F0F3CF23
:1009A40008F001500502F4CF0BF0F3CF0AF0005029
:1009B4000502F3500926F4500A22E86A0B2201507A
:1009C4000402F3500926F4500A22E86A0B2208C0F4
:1009D40000F009C001F00AC002F00BC003F01200DD
:1009E400ABC5B7F50501B733B79FACC5B8F5ADC511
:1009F400B9F58ADC010EAB15016E0150010A18E14C
:100A0400030EAC25B76F000EAD21B86F2E0EAE6F7E
:100A1400350EAF6F730EB06FB16BAE0EB96F050EBE
:100A2400BA6F040EBB6F000EBC6F15EC01F017D04B
:100A3400030EAC25B76F000EAD21B86F2E0EB26F4A
:100A4400300EB36F730EB46FB56BB20EB96F050E83
:100A5400BA6F040EBB6F000EBC6F15EC01F01200F0
:100A6400A69CACC5AAFFABC5A9FFA69EA680A8CF2D
:040A740000F012007C
:100A7800ABC5B7F5ACC5B8F50501B833B733B89F02
:100A8800ADC5B9F5AEC5BAF53DEC01F0010EAB1533
:100A9800016EACC502F0000E0216000E021802E14B
:100AA800010E011818E1050EAD25B76F000EAE2135
:100AB800B86F2E0EAF6F350EB06F730EB16FB26B8D
:100AC800AF0EB96F050EBA6F040EBB6F000EBC6F88
:100AD80015EC01F017D0050EAD25B76F000EAE214D
:100AE800B86F2E0EB36F300EB46F730EB56FB66B52
:100AF800B30EB96F050EBA6F040EBB6F000EBC6F54
:060B080015EC01F01200E3
:100B0E00010E0501B76F000EB86F2EC2B9F5F9ECE4
:100B1E0000F0020E0501B76F000EB86F93C2B9F563
:100B2E00F9EC00F0030E0501B76F000EB86F9FC110
:100B3E00B9F5F9EC00F0040E0501B76F000EB86FB1
:100B4E00A0C1B9F5F9EC00F0050E0501B76F000E66
:100B5E00B86F30C2B9F5F9EC00F0060E0501B76FAB
:100B6E00000EB86FA1C1B9F5F9EC00F0070E050142
:100B7E00B76F000EB86F2FC2B9F5F9EC00F0080E82
:100B8E000501B76F000EB86F3CC2B9F5F9EC00F075
:100B9E00090E0501B76F000EB86F3DC2B9F5F9EC3D
:100BAE0000F00A0E0501B76F000EB86F90C2B9F5CE
:100BBE00F9EC00F00B0E0501B76F000EB86F8FC287
:100BCE00B9F5F9EC00F00C0E0501B76F000EB86F19
:100BDE001AC0B9F5F9EC00F01AC0B7F5C0EC01F087
:100BEE000D0E0501B76F000EB86F8DC1B9F5F9EC9A
:100BFE0000F00E0E0501B76F000EB86F8EC1B9F57D
:100C0E00F9EC00F00F0E0501B76F000EB86F94C22D
:100C1E00B9F5F9EC00F0100E0501B76F000EB86FC4
:100C2E0091C2B9F5F9EC00F0110E0501B76F000E87
:0C0C3E00B86F88C1B9F5F9EC00F01200A5
:100C4A00010E0501AB6F000EAC6F07DF00C02EF27C
:100C5A00020EAB6F000EAC6F00DF00C093F2030E02
:100C6A00AB6F000EAC6FF9DE00C09FF1040EAB6FE4
:100C7A00000EAC6FF2DE00C0A0F1050EAB6F000EE5
:100C8A00AC6FEBDE00C030F2060EAB6F000EAC6F3D
:100C9A00E4DE00C0A1F1070EAB6F000EAC6FDDDE23
:100CAA0000C02FF2080EAB6F000EAC6FD6DE00C08C
:100CBA003CF2090EAB6F000EAC6FCFDE00C03DF206
:100CCA000A0EAB6F000EAC6FC8DE00C08FF2000ECA
:100CDA000201906F8FC290F28F6B0B0E0501AB6F02
:100CEA00000EAC6FBADE005002018F13000E901393
:100CFA000C0E0501AB6F000EAC6FAFDE00C01AF030
:100D0A0000C0B7F5C0EC01F00D0E0501AB6F000E87
:100D1A00AC6FA3DE00C08DF10E0EAB6F000EAC6F90
:100D2A009CDE00C08EF10F0EAB6F000EAC6F95DE2D
:100D3A0000C094F2100EAB6F000EAC6F8EDE00C0D6
:100D4A0091F2110EAB6F000EAC6F87DE00C088F116
:020D5A00120085
:100D5C00010E0301D225016E000ED321026E01C0DB
:100D6C00E9FF02C0EAFF0A0EEE24006E01C0E1FFAB
:100D7C0002C0E2FF00C0E6FF030ED225016E000E9A
:100D8C00D321026E01C0E9FF02C0EAFF0A0EEE2475
:100D9C00006E01C0E1FF02C0E2FF00C0E6FFD2C35B
:100DAC00E9FFD3C3EAFFEECF00F0D2C3E1FFD3C318
:100DBC00E2FF0A0E0024E66E020ED225016E000E32
:100DCC00D321026E01C0E9FF02C0EAFF0A0EEE2435
:100DDC00006E01C0E1FF02C0E2FF00C0E6FF040E9E
:100DEC00D225E16E000ED321E26E040EE66E060EE5
:100DFC00D225E16E000ED321E26E040EE66E080ED3
:100E0C00D225E16E000ED321E26E040EE66E0A0EC0
:100E1C00D225E16E000ED321E26E040EE66E050EB5
:100E2C00D225E16E000ED321E26E0A0EE66E090E9B
:100E3C00D225E16E000ED321E26E0A0EE66E070E8D
:100E4C00D225E16E000ED321E26E0A0EE66E0B0E79
:100E5C00D225E16E000ED321E26E0A0EE66E120070
:100E6C000301D251010A03E10001DF6B81960301FA
:0E0E7C00D251020A03E10001DD6B81981200E1
:100E8A000301D76B140ED75D6DE2D7C300F0000ED5
:100E9A00016E070E046E000E056E77DDA20E0026A7
:100EAA00010E0122050E0024E96E000E0120EA6EF1
:100EBA00EE50010A55E1D7C300F0000E016E070E8D
:100ECA00046E000E056E61DDA20E0024E16E010EB5
:100EDA000120E26ED6C3E6FFD7C300F0000E016E12
:100EEA00070E046E000E056E50DDA20E0026010EDE
:100EFA000122010E0024E16E000E0120E26ED2C32F
:100F0A00E6FFD3C3E6FFD4C3E6FFD5C3E6FFD7C3E4
:100F1A0000F0000E016E070E046E000E056E35DD40
:100F2A00A20E0026010E0122050E0024E16E000E1B
:100F3A000120E26EE66AD7C300F0000E016E070ECA
:100F4A00046E000E056E21DDA20E0026010E01229E
:100F5A00060E0024E16E000E0120E26EE66A02D05F
:060F6A00D72B90D7120006
:100F7000020196510301D21905E10201966B010E9F
:100F8000006E1200020197510301D21905E102011E
:100F9000976B010E006E1200020198510301D219E5
:100FA00005E10201986B010E006E1200006A12004A
:100FB0000301D26BD36BD351120802E1D2518E08D8
:100FC00008E3DBDC005201E004D00301D24BD32B59
:100FD000F2D70301120ED35D02E18F0ED25D03E35F
:100FE0007B0E006E05D0C580C5A001D0FDD7006A7C
:020FF0001200ED
:100FF2000301D4531FE0F2C0ABF5F3C0ACF5F4C06B
:10100200ADF5F5C0AEF5D50E0501AF6F030EB06FAD
:101012001CDCD50EAB6F030EAC6F94DC3A0E0301F1
:10102200E06F200EE16FE26BE00E0501AB6F030E85
:10103200AC6F6EDCD2C3ABF5D3C3ACF569DC0D0E7D
:10104200BE6FB3EC00F00A0E0501BE6FB3EC00F008
:0210520012008A
:101054000301D26B140ED25D50E2D2C300F0000E35
:10106400016E070E046E000E056E92DCA20E0026C1
:10107400010E0122050E0024E96E000E0120EA6E25
:10108400EE50000A38E1D2C300F0000E016E070EE4
:10109400046E000E056E7CDCA20E0024E96E010EC7
:1010A4000120EA6EEECF01F00150090A24E1D2C317
:1010B40000F0000E016E070E046E000E056E68DC73
:1010C400A20E0026010E0122010E0024E96E000E7C
:1010D4000120EA6EEECFD3F3EECFD4F3EECFD5F307
:1010E400EECFD6F3050E0024E16E000E0120E26E71
:1010F400010EE66E02D0D22BADD70001F2510301EE
:10110400D35D016E01C0D2F3140E015C01E3D26B16
:06111400D2C300F012003E
:10111A000301D26B140ED25D48E2D2C300F0000E76
:10112A00016E070E046E000E056E2FDCA20E00265D
:10113A00010E0122050E0024E96E000E0120EA6E5E
:10114A00EE50000A30E1D2C300F0000E016E070E25
:10115A00046E000E056E19DCA20E0024E96E010E63
:10116A000120EA6EEECF01F00150090A1CE1D2C358
:10117A0000F0000E016E070E046E000E056E05DC0F
:10118A00A20E0026010E0122010E0024E96E000EB5
:10119A000120EA6EEECFD3F3EECFD4F3EECFD5F340
:1011AA00EECFD6F302D0D22BB5D7140ED25D02E31E
:1011BA00D26B05D00001F2510301D35DD26FD2C3C5
:0411CA0000F012001F
:1011CE000301D36B140ED35D44E2D3C300F0000EC3
:1011DE00016E070E046E000E056ECAEC04F0A20E30
:1011EE000026010E0122050E0024E96E000E0120DC
:1011FE00EA6EEE50000A2BE1D3C300F0000E016E32
:10120E00070E046E000E056ECAEC04F0A20E00244A
:10121E00E96E010E0120EA6EEECF01F00150D219F7
:10122E0016E0D3C300F0000E016E070E046E000E22
:10123E00056ECAEC04F0A20E0026010E0122050E68
:10124E000024E16E000E0120E26E010EE66ED32B3D
:04125E00B9D71200EA
:10126200010E0301D225E96E000ED321EA6EEECF04
:101272002EF2D2C3E9FFD3C3EAFFEECF9FF1D451DE
:10128200020AD8A485D0030ED225E96E000ED3211E
:10129200EA6EEECF93F2020ED225E96E000ED32152
:1012A200EA6EEECFA0F1040ED225E96E000ED32134
:1012B200EA6E080ED225D96E000ED321DA6EDE5008
:1012C200EE24036E046A000E042203C000F004C080
:1012D20001F001320032019E01BC018E00C0A1F179
:1012E200050ED225E96E000ED321EA6E090ED22533
:1012F200D96E000ED321DA6EDE50EE24036E046A3C
:10130200000E042203C000F004C001F001320032DA
:10131200019E01BC018E00C02FF2060ED225E96E9D
:10132200000ED321EA6E0A0ED225D96E000ED32109
:10133200DA6EDE50EE24036E046A000E042203C04D
:1013420000F004C001F001320032019E01BC018EA6
:1013520000C03CF2070ED225E96E000ED321EA6EE0
:101362000B0ED225D96E000ED321DA6EDE50EE249A
:10137200036E046A000E042203C000F004C001F0F0
:1013820001320032019E01BC018E00C03DF225D027
:101392000201936B0101A06B040E0301D225E96ED9
:1013A200000ED321EA6EEECFA1F1050ED225E96E31
:1013B200000ED321EA6EEECF2FF2060ED225E96E91
:1013C200000ED321EA6EEECF3CF2070ED225E96E73
:1013D200000ED321EA6EEECF3DF287EC05F012004B
:1013E2000301D251010A05E101013D6B3E6B02018D
:1013F2009A910301D251020A05E101013B6B3C6B58
:0614020002019A931200A2
:10140800140E02012E6F140E01019F6F140E0201BB
:10141800936F140E0101A06F050E1A6E050E0501DB
:10142800B76FC0EC01F00A0E02012F6F040E010124
:10143800A16F0A0E02013D6F040E3C6F0C0E306F57
:101448008F6B906B01018E6B0201946B916B0101A4
:0C1458008D6B010E886F87EC05F0120010
:10146400020E0001DA6F910E0501B76F000EB86F1E
:101474002E0EF66E7A0EF76E000EF86ED20EE16E38
:10148400030EE26E110E006E010E016E1EEC04F0EE
:10149400D20EB96F030EBA6F100EBB6F000EBC6F85
:1014A40015EC01F01B50000A65E1B50EB76F000E94
:1014B400B86F3F0EF66E7A0EF76E000EF86EE30EFE
:1014C400E16E030EE26E110E006E010E016E1EEC53
:1014D40004F0E30EB96F030EBA6F100EBB6F000E6B
:1014E400BC6F15EC01F0010E0001B36F7D50000AD2
:1014F4001FE1910E0501B76F000EB86F500EF66E26
:101504007A0EF76E000EF86EF40EE16E030EE26EC4
:10151400110E006E010E016E1EEC04F0F40EB96F94
:10152400030EBA6F100EBB6F000EBC6F15EC01F00A
:101534007D50010A1FE10501910EB76F000EB86FCF
:10154400610EF66E7A0EF76E000EF86E050EE16E01
:10155400040EE26E110E006E010E016E1EEC04F01C
:10156400050EB96F040EBA6F100EBB6F000EBC6F80
:1015740015EC01F01B50010A2BE10501B50EB76F04
:10158400000EB86F720EF66E7A0EF76E000EF86EDD
:10159400160EE16E040EE26E110E006E010E016E67
:1015A4001EEC04F0160EB96F040EBA6F100EBB6F6A
:1015B400000EBC6F15EC01F0010E0001B36F2EC2DA
:1015C400ABF5970E0501AC6F000EAD6FF2EC04F0B5
:1015D4001B50020A2BE10501B50EB76F000EB86F60
:1015E400830EF66E7A0EF76E000EF86E270EE16E1D
:1015F400040EE26E110E006E010E016E1EEC04F07C
:10160400270EB96F040EBA6F100EBB6F000EBC6FBD
:1016140015EC01F0010E0001B36F93C2ABF5970E08
:101624000501AC6F000EAD6FF2EC04F01B50030A21
:101634002BE10501B50EB76F000EB86F940EF66E70
:101644007A0EF76E000EF86E380EE16E040EE26E3E
:10165400110E006E010E016E1EEC04F0380EB96F0F
:10166400040EBA6F100EBB6F000EBC6F15EC01F0C8
:10167400010E0001B36F9FC1ABF5970E0501AC6F6E
:10168400000EAD6FF2EC04F01B50040A2BE10501CF
:10169400B50EB76F000EB86FA50EF66E7A0EF76E24
:1016A400000EF86E490EE16E040EE26E110E006E2D
:1016B400010E016E1EEC04F0490EB96F040EBA6FF0
:1016C400100EBB6F000EBC6F15EC01F0010E000193
:1016D400B36FA0C1ABF5970E0501AC6F000EAD6FF3
:1016E400F2EC04F01B50050A2BE10501B50EB76FAF
:1016F400000EB86FB60EF66E7A0EF76E000EF86E28
:101704005A0EE16E040EE26E110E006E010E016EB1
:101714001EEC04F05A0EB96F040EBA6F100EBB6FB4
:10172400000EBC6F15EC01F0010E0001B36FA1C1F6
:10173400ABF5970E0501AC6F000EAD6FF2EC04F043
:101744001B50060A2BE10501B50EB76F000EB86FEA
:10175400C70EF66E7A0EF76E000EF86E6B0EE16E23
:10176400040EE26E110E006E010E016E1EEC04F00A
:101774006B0EB96F040EBA6F100EBB6F000EBC6F08
:1017840015EC01F0010E0001B36F2FC2ABF5970EFB
:101794000501AC6F000EAD6FF2EC04F01B50070AAC
:1017A4002BE10501B50EB76F000EB86FD80EF66EBB
:1017B4007A0EF76E000EF86E7C0EE16E040EE26E89
:1017C400110E006E010E016E1EEC04F07C0EB96F5A
:1017D400040EBA6F100EBB6F000EBC6F15EC01F057
:1017E400010E0001B36F3CC2ABF5970E0501AC6F5F
:1017F400000EAD6FF2EC04F01B50080A2BE105015A
:10180400B50EB76F000EB86FE90EF66E7A0EF76E6E
:10181400000EF86E8D0EE16E040EE26E110E006E77
:10182400010E016E1EEC04F08D0EB96F040EBA6F3A
:10183400100EBB6F000EBC6F15EC01F0010E000121
:10184400B36F3DC2ABF5970E0501AC6F000EAD6FE3
:10185400F2EC04F01B50090A69E10501B50EB76FFB
:10186400000EB86FFA0EF66E7A0EF76E000EF86E72
:101874009E0EE16E040EE26E110E006E010E016EFC
:101884001EEC04F09E0EB96F040EBA6F100EBB6FFF
:10189400000EBC6F15EC01F0010E0001B36F1AC00D
:1018A400B7F5940E0501B86F000EB96F86EC01F020
:1018B4001A5009081EE2980EB76F000EB86F320E68
:1018C4000401AF6F350EB06F300EB16F4B0EB26FB7
:1018D400670EB36F2B0EB46FB56BAF0E0501B96F06
:1018E400040EBA6F060EBB6F000EBC6F15EC01F050
:1018F4001DD0980EB76F000EB86F320E0401B66F8C
:10190400350EB76F300EB86F4B0EB96F670EBA6FE6
:101914002D0EBB6FBC6BB60E0501B96F040EBA6F0A
:10192400060EBB6F000EBC6F15EC01F01B500A0ACB
:101934002BE10501B50EB76F000EB86F190EF66EE8
:101944007B0EF76E000EF86EBD0EE16E040EE26EB5
:10195400110E006E010E016E1EEC04F0BD0EB96F87
:10196400040EBA6F100EBB6F000EBC6F15EC01F0C5
:10197400010E0001B36F30C2ABF5970E0501AC6FD9
:10198400000EAD6FF2EC04F01B500B0A2DE10501C3
:10199400B50EB76F000EB86F2A0EF66E7B0EF76E9B
:1019A400000EF86ECE0EE16E040EE26E110E006EA5
:1019B400010E016E1EEC04F0CE0EB96F040EBA6F68
:1019C400100EBB6F000EBC6F15EC01F0010E000190
:1019D400B36F8FC2ABF590C2ACF5950E0501AD6F38
:1019E400000EAE6F3CEC05F01B500C0A22E1050121
:1019F400B50EB76F000EB86F3B0EF66E7B0EF76E2A
:101A0400000EF86EDF0EE16E040EE26E110E006E33
:101A1400010E016E1EEC04F0DF0EB96F040EBA6FF6
:101A2400100EBB6F000EBC6F15EC01F0010E00012F
:101A3400B36F1B500D0A65E1B50E0501B76F000EBB
:101A4400B86F4C0EF66E7B0EF76E000EF86EF00E4D
:101A5400E16E040EE26E110E006E010E016E1EECBC
:101A640004F0F00EB96F040EBA6F100EBB6F000EC7
:101A7400BC6F15EC01F0010E0001B36F020194512B
:101A8400000A1FE1970E0501B76F000EB86F4E0EE6
:101A9400016F6F0E026F200E036F200E046F200E75
:101AA400056F200E066F200E076F086B010EB96FCD
:101AB400050EBA6F070EBB6F000EBC6F15EC01F07C
:101AC40020D00501970EB76F000EB86F590E096F3D
:101AD400650E0A6F730E0B6F200E0C6F200E0D6FC8
:101AE400200E0E6F200E0F6F200E106F116B090E5B
:101AF400B96F050EBA6F080EBB6F000EBC6F15EC04
:101B040001F01B500E0A65E10501B50EB76F000E1A
:101B1400B86F6E0EF66E7B0EF76E000EF86E120E38
:101B2400E16E050EE26E110E006E010E016E1EECEA
:101B340004F0120EB96F050EBA6F100EBB6F000ED3
:101B4400BC6F15EC01F0010E0001B36F020191515D
:101B5400000A1FE1970E0501B76F000EB86F4E0E15
:101B6400236F6F0E246F200E256F200E266F200E1C
:101B7400276F200E286F200E296F2A6B230EB96F52
:101B8400050EBA6F070EBB6F000EBC6F15EC01F0AB
:101B940020D00501970EB76F000EB86F590E2B6F4A
:101BA400650E2C6F730E2D6F200E2E6F200E2F6F6F
:101BB400200E306F200E316F200E326F336B2B0EE0
:101BC400B96F050EBA6F080EBB6F000EBC6F15EC33
:101BD40001F01B500F0A65E10501B50EB76F000E49
:101BE400B86F900EF66E7B0EF76E000EF86E340E24
:101BF400E16E050EE26E110E006E010E016E1EEC1A
:101C040004F0340EB96F050EBA6F100EBB6F000EE0
:101C1400BC6F15EC01F0010E0001B36F0101885196
:101C2400000A1FE1970E0501B76F000EB86F4E0E44
:101C3400456F6F0E466F200E476F200E486F200EC3
:101C4400496F200E4A6F200E4B6F4C6B450EB96FD7
:101C5400050EBA6F070EBB6F000EBC6F15EC01F0DA
:101C640020D00501970EB76F000EB86F590E4D6F57
:101C7400650E4E6F730E4F6F200E506F200E516F16
:101C8400200E526F200E536F200E546F556B4D0E65
:101C9400B96F050EBA6F080EBB6F000EBC6F15EC62
:101CA40001F01B50100A65E10501B50EB76F000E77
:101CB400B86FB20EF66E7B0EF76E000EF86E560E0F
:101CC400E16E050EE26E110E006E010E016E1EEC49
:101CD40004F0560EB96F050EBA6F100EBB6F000EEE
:101CE400BC6F15EC01F0010E0001B36F01018E51C0
:101CF400000A1FE1970E0501B76F000EB86F4E0E74
:101D0400676F6F0E686F200E696F200E6A6F200E6A
:101D14006B6F200E6C6F200E6D6F6E6B670EB96F5C
:101D2400050EBA6F070EBB6F000EBC6F15EC01F009
:101D340020D00501970EB76F000EB86F590E6F6F64
:101D4400650E706F730E716F200E726F200E736FBD
:101D5400200E746F200E756F200E766F776B6F0EEA
:101D6400B96F050EBA6F080EBB6F000EBC6F15EC91
:101D740001F01B50110A2BE10501B50EB76F000EDF
:101D8400B86FD40EF66E7B0EF76E000EF86E780EFA
:101D9400E16E050EE26E110E006E010E016E1EEC78
:101DA40004F0780EB96F050EBA6F100EBB6F000EFB
:101DB400BC6F15EC01F0010E0001B36F8DC1ABF5E2
:101DC400970E0501AC6F000EAD6FF2EC04F01B50E2
:101DD400120A22E10501B50EB76F000EB86FE50EC9
:101DE400F66E7B0EF76E000EF86E890EE16E050E30
:101DF400E26E110E006E010E016E1EEC04F0890EEF
:101E0400B96F050EBA6F100EBB6F000EBC6F15ECE8
:101E140001F0010E0001B36F1B50130A22E1B50E4D
:101E24000501B76F000EB86FF60EF66E7B0EF76EF7
:101E3400000EF86E9A0EE16E050EE26E110E006E43
:101E4400010E016E1EEC04F09A0EB96F050EBA6F06
:101E5400100EBB6F000EBC6F15EC01F0010E0001FB
:0A1E6400B36F650E0101876F1200D5
:101E6E000301D251000A04E0D351000A01E002D06E
:101E7E00F28801D0F298D2C3D8F0D3C3DBF01200AF
:101E8E000301D251010A17E1D3B102D0829201D0DF
:101E9E008282060E0B6E130E0C6EAD0E0D6E0D2E97
:101EAE00FED70C2EFCD70B2EFAD700000000010E29
:101EBE000001DF6F81860301D251020A17E1D3B10F
:101ECE0002D0829001D08280060E0B6E130E0C6E25
:101EDE00AD0E0D6E0D2EFED70C2EFCD70B2EFAD797
:0E1EEE0000000000010E0001DD6F818812006F
:101EFC009E96D2C3C9FFC7A401D0FDD79EB601D010
:101F0C00FDD7C5BC02D0006A03D0C584020E006E9A
:021F1C001200B1
:041F1E00C584120064
:101F2200D2C3B7F50501B733B79FD3C3B8F5D4C34E
:101F3200B9F586EC01F0030E0301D3250501B76F55
:101F4200000E0301D4210501B86F730E0301D56F92
:101F5200200ED66F200ED76FD86BD50E0501B96F44
:101F6200030EBA6F040EBB6F000EBC6F15EC01F0CE
:021F720012005B
:101F7400C26A070EC012C08ED2C300F000360090B1
:101F8400003600900050C212C28019EC04F0C282E4
:101F9400C2A201D0FDD7C4CF01F0006AC350001221
:081FA400000E0112C2901200B0
:101FAC0083A003D083A201D003D0010E006E1200D7
:041FBC00006A1200A5
:101FC0000201B86B83B801D0B88183BA01D0B8835D
:061FD000B8C200F012008F
:101FD6000201BC6B050EBC5D0AE2BC51BA25E16E7E
:101FE600000EBB21E26E300EE66EBC2BF3D7BC5161
:101FF600BA25E16E000EBB21E26EE66ABC07000E52
:10200600B91902E1000EB8192CE0BC51BA25BD6F12
:10201600000EBB21BE6F0A0E046E000E056EB8C21E
:1020260000F0B9C201F0CFEC00F008C000F009C022
:1020360001F0300E0026BDC2E1FFBEC2E2FF00C0C5
:10204600E6FFBC070A0E046E000E056EB8C200F06D
:10205600B9C201F0CFEC00F000C0B8F201C0B9F28D
:04206600CED71200BF
:10206A000201B96BBA6BBB6B83BA02D0BB8101D0D8
:10207A00BB9184B002D0BB8301D0BB9383B802D09A
:10208A00BB8501D0BB95BB51000A1BE100018C51F5
:10209A00000A08E10201596B7D6B00018C6B020199
:1020AA00B86B926B00018C51010A0BE1050E8D5D34
:1020BA0008E30201596B7D6B00018C6B0201B86B5E
:1020CA00926B02015951010A0EE10001DE518F5D46
:1020DA000AE3010E0201926F00018F6B190E0201D1
:1020EA007D5D01E27D2B0201BB51000A26E0000161
:1020FA008C51010A22E102015951000A1EE1020E25
:10210A005A25016E000E5B21026E000E5C21036EE1
:10211A00000E5D21046E0001F551041808E1F45126
:10212A00031805E1F351021802E1F251011805E121
:10213A00010E0201596F00018F6B0201BB51000AA7
:10214A0009E000018C51010A05E102015951000A16
:10215A0001E1B86B0201BB51000A0DE000018C518C
:10216A00010A09E102015951010A05E1BB51920331
:10217A00F3CFB8F2926B0201BB51000A11E00001E1
:10218A008C51000A0DE1BBC2B8F2010E8C6FF2C08D
:10219A005AF2F3C05BF2F4C05CF2F5C05DF28D6BEB
:1021AA000201B851000A03E0010E0001806FB8C2B3
:0421BA0000F012001F
:1021BE000201BC6BBD6BB851010A03E1B951800F2E
:1021CE00BD6FB851020A03E1B951C00FBD6FD8EC13
:1021DE0007F07C0E0301D26F8ADE800E0301D26FF0
:1021EE0086DEBDC2D2F383DE400E0301D26F7FDEE8
:1021FE000201BC51BA25E96E000EBB21EA6EEE500B
:10220E000A0A0FE0BC5110080CE3BC51BA25E96E66
:10221E00000EBB21EA6EEECFD2F369DE0201BC2BBB
:10222E00E7D776DE0D0E0C6EFB0E0D6E0D2EFED765
:0A223E000C2EFCD700000000120077
:102248000201B86B00018EB103D00201B89102D02F
:102258000201B88100018BB103D00201B89302D00A
:102268000201B88300018E6B8B6B140E0101875D30
:102278000FE20201B8B104D095B502D0B89101D0EF
:10228800B881B8B304D095B102D0B89301D0B8835F
:06229800B8C200F01200C4
:10229E000201B96BBA6B3F0EB815026E02C0B8F2EE
:1022AE00540EB96F02C000F00032009E0032009E44
:1022BE000032009E0032009E540E0010B96F700E58
:1022CE00BA6F0F0E0214006E700E0010BA6FD8ECBB
:1022DE0007F07C0E0301D26F0ADE800E0301D26F6F
:1022EE0006DEB9C2D2F303DE800E0301D26FFFDD2C
:1022FE00BAC2D2F3FCDD0CDE0D0E0C6EFB0E0D6EB3
:0E230E000D2EFED70C2EFCD700000000120092
:10231C00020195A302D00001822B00018251010A17
:10232C0020E1B50E0501B76F000EB86F3D0EB96F09
:10233C00000EBA6F100EBB6F000EBC6F15EC01F0E7
:10234C00910EB76F000EB86F4D0EB96F000EBA6FCD
:10235C00100EBB6F000EBC6F15EC01F0010E0001EE
:10236C00B36F8251020A20E1B50E0501B76F000E62
:10237C00B86F5D0EB96F000EBA6F100EBB6F000E0A
:10238C00BC6F15EC01F0910EB76F000EB86F6D0EAF
:10239C00B96F000EBA6F100EBB6F000EBC6F15EC50
:1023AC0001F0010E0001B36F8251030A03E1640EC8
:0623BC000101876F120011
:1023C200D8EC07F07C0E0301D26F97DD800E03017B
:1023D200D26F93DD0201B851020A04E1380E030103
:1023E200D26F8BDD0201B851010A04E1340E030100
:1023F200D26F83DD800E0301D26F7FDD0201B851FF
:10240200020A04E1390E0301D26F77DD0201B851ED
:10241200010A04E1350E0301D26F6FDD800E030164
:10242200D26F6BDD1C0E0301D26F67DD800E0301DC
:10243200D26F63DD720E0301D26F5FDD800E030186
:10244200D26F5BDD550E0301D26F57DD800E0301A3
:10245200D26F53DD6C0E0301D26F4FDD800E03018C
:10246200D26F4BDD0C0E0301D26F47DD800E0301EC
:10247200D26F43DD010E0301D26F3FDD800E0301F7
:10248200D26F3BDD060E0301D26F37DD800E0301F2
:10249200D26F33DD020E0301D26F2FDD3FDD12005A
:1024A200949894968B988B9694889486C79EC79C92
:0624B200380EC66E120098
:1024B800010E7E6E020195A31CD07E6A7F6A650EAE
:1024C8000101876F32EC0AF01B50000A12E1020189
:1024D8005F6B7D50000A05E1C80E0101876F010E90
:1024E8001C6E7D50010A05E10101C90E876F010EBE
:1024F8001C6E1B50000A16E1020195A108D07D5000
:10250800000805E27D0632EC0AF0660E876F0201CC
:1025180095A508D0010E7D5C05E27D2A32EC0AF013
:10252800660E876F1B50010A16E1020195A108D0BB
:102538002E51000805E22E0732EC0AF0660E876F6E
:10254800020195A508D0FF0E2E5D05E22E2B32EC78
:102558000AF0660E876F1B50020A16E1020195A168
:1025680008D09351000805E2930732EC0AF0660E92
:10257800876F020195A508D0FF0E935D05E2932BA6
:1025880032EC0AF0660E876F1B50030A18E102014D
:1025980095A109D001019F51000805E29F0732EC7F
:1025A8000AF0660E876F020195A509D0FF0E01019A
:1025B8009F5D05E29F2B32EC0AF0660E876F1B5079
:1025C800040A18E1020195A109D00101A0510008EF
:1025D80005E2A00732EC0AF0660E876F020195A5A6
:1025E80009D0FF0E0101A05D05E2A02B32EC0AF034
:1025F800660E876F1B50050A18E1020195A109D0E4
:102608000101A151000805E2A10732EC0AF0660EAB
:10261800876F020195A509D0FF0E0101A15D05E2B2
:10262800A12B32EC0AF0660E876F1B50060A16E1E2
:10263800020195A108D02F51000805E22F0732ECBE
:102648000AF0660E876F020195A508D0FF0E2F5D70
:1026580005E22F2B32EC0AF0660E876F1B50070A33
:1026680016E1020195A108D03C51000805E23C079B
:1026780032EC0AF0660E876F020195A508D0FF0EAE
:102688003C5D05E23C2B32EC0AF0660E876F1B506E
:10269800080A16E1020195A108D03D51000805E29B
:1026A8003D0732EC0AF0660E876F020195A508D047
:1026B800FF0E3D5D05E23D2B32EC0AF0660E876F9A
:1026C8001B50090A16E1020195A108D01A50010809
:1026D80005E21A0632EC0AF0660E876F020195A52C
:1026E80008D00F0E1A5C05E21A2A32EC0AF0660EC0
:1026F800876F1B500A0A16E1020195A108D03051D4
:10270800000805E2300732EC0AF0660E876F020116
:1027180095A508D0FF0E305D05E2302B32EC0AF0AB
:10272800660E876F1B500B0A22E1020195A110D09B
:10273800000E006E9051005C02E18F51000808E223
:10274800010E8F5F000E905B32EC0AF0660E876F09
:10275800020195A50CD0FD0E905D02E1E80E8F5D9B
:1027680006E28F4B902B32EC0AF0660E876F1B50F7
:102778000C0A1EE10101876BB50E0501B76F000E4B
:10278800B86F8F0EB96F010EBA6F100EBB6F000EC7
:10279800BC6F15EC01F0010E0001DA6F7E6A7F6AEA
:1027A800010EB36F010E1C6E04EC0AF087EC05F005
:1027B8001B500D0A16E1020195A108D0945100089A
:1027C80005E2940732EC0AF0660E876F020195A5C0
:1027D80008D0010E945D05E2942B32EC0AF0660EE7
:1027E800876F1B500E0A16E1020195A108D091517E
:1027F800000805E2910732EC0AF0660E876F0201C5
:1028080095A508D0010E915D05E2912B32EC0AF0F6
:10281800660E876F1B500F0A18E1020195A109D0B7
:1028280001018851000805E2880732EC0AF0660EBB
:10283800876F020195A509D0010E0101885D05E2A7
:10284800882B32EC0AF0660E876F1B50100A18E1CD
:10285800020195A109D001018E51000805E28E07F9
:1028680032EC0AF0660E876F020195A509D0010EB9
:1028780001018E5D05E28E2B32EC0AF0660E876F41
:102888001B50110A21E1020195A10DD001018D51C2
:10289800000809E28D078D51090A01E18D6B32ECC0
:1028A8000AF0660E876F020195A50ED0FF0E010192
:1028B8008D5D0AE28D2B8D51010A02E10A0E8D6FA2
:1028C80032EC0AF0660E876F1B50120A1AE10101FA
:1028D800670E876FB50E0501B76F000EB86F8F0EC4
:1028E800B96F010EBA6F100EBB6F000EBC6F15ECFE
:1028F80001F07E6A010E0001DA6F010EB36F010E5E
:102908001C6E1B50130A1BE10101876BB50E0501F4
:10291800B76F000EB86F8F0EB96F010EBA6F100E39
:10292800BB6F000EBC6F15EC01F07E6A010E000152
:10293800DA6F010EB36F25EC06F0010E1C6E120063
:10294800020195A10AD01B50000A03E1130E1B6E69
:1029580001D01B06640E0101876F020195A509D0FD
:102968001B50130A02E11B6A01D01B2A640E0101E5
:10297800876F020195A303D0660E0101876F0201DC
:102988009551050A28E1B50E0501B76F000EB86F1D
:102998001D0EB96F000EBA6F100EBB6F000EBC6F24
:1029A80015EC01F00001826B910E0501B76F000E66
:1029B800B86F2D0EB96F000EBA6F100EBB6F000EF8
:1029C800BC6F15EC01F0020E0001DA6F010EB36F57
:0829D800FA0E0101876F1200E5
:1029E000660E02014B6F010E4C6FBE0E4D6F050E51
:1029F0004E6FFF0E476FFF0E486F000E496F000EBF
:102A00004A6FFF0E436FFF0E446F000E456F000EBE
:102A1000466FFF0E4F6FFF0E506F000E516F000E8E
:102A2000526FAC8A900EAB6E948E949C9EAA03D08B
:082A3000AECF00F0FBD712004D
:102A38000201B86B0301D26BBAEC0FF000C053F27D
:102A480001C054F2010E0301D26FBAEC0FF000C0BE
:102A580055F201C056F20001DC51000A03E1010100
:102A68003D6B3E6B0001D951000A03E101013B6B4C
:102A78003C6B0001D851000A22E001018A51020191
:102A8800545D04E1010189510201535D0AE2FF0E20
:102A980001013E5D02E1FA0E3D5D02E23D4B3E2B37
:102AA8000DD00101000E006E3E51005C02E13D5167
:102AB800000804E2010E3D5F000E3E5B03D00101F9
:102AC8003D6B3E6B3E518C5D02E13D518B5D02E2F8
:102AD8000201B8810001DB51000A22E001018A519C
:102AE8000201565D04E1010189510201555D0AE2C6
:102AF800FF0E01013C5D02E1FA0E3B5D02E23B4B39
:102B08003C2B0DD00101000E006E3C51005C02E12F
:102B18003B51000804E2010E3B5F000E3C5B03D012
:102B280001013B6B3C6B3C518C5D02E13B518B5D81
:0C2B380002E20201B883B8C200F01200F3
:102B4400838E010E0001B46F010E0301D26FB8EC45
:102B540007F000522DE0010E0301D26FD36B47EC56
:102B64000FF0530E0201B86F370EB96F200EBA6F13
:102B74004D0EBB6F6F0EBC6F740EBD6F6F0EBE6FCC
:102B8400720EBF6F310EC06F530EC16F740EC26FE1
:102B9400610EC36F720EC46F740EC56FC66BB80E30
:102BA4000301D26F020ED36F010ED46FF9EC07F05C
:102BB400020E0301D26FB8EC07F000524FE0020E90
:102BC4000301D26FD36B47EC0FF0530E0201C76FB2
:102BD400370EC86F200EC96F4D0ECA6F6F0ECB6FC4
:102BE400740ECC6F6F0ECD6F720ECE6F320ECF6F30
:102BF400530ED06F740ED16F610ED26F720ED36FFD
:102C0400740ED46FD56BC70E0301D26F020ED36F4F
:102C1400010ED46FF9EC07F0B50E0501B76F000E85
:102C2400B86F510EB96F010EBA6F100EBB6F000E64
:102C3400BC6F15EC01F0910EB76F000EB86FA20EC9
:102C4400B96F000EBA6F100EBB6F000EBC6F15EC9F
:102C540001F0010E0001B36F010EDA6F0A0E0301D9
:102C6400D26FB8EC07F0005221E0010E0001DC6FD6
:102C7400010E0301D26FF1EC09F0990EF66E800E8D
:102C8400F76E000EF86ED60EE16E020EE26E150EB1
:102C9400006E010E016E1EEC04F0D60E0301D26F1D
:102CA400020ED36F010ED46FF9EC07F00B0E030183
:102CB400D26FB8EC07F0005221E0010E0001D96F89
:102CC400020E0301D26FF1EC09F0AE0EF66E800E27
:102CD400F76E000EF86EEB0EE16E020EE26E150E4C
:102CE400006E010E016E1EEC04F0EB0E0301D26FB8
:102CF400020ED36F010ED46FF9EC07F0050E030139
:102D0400D26FB8EC07F000522FE0010E0301D26F2E
:102D1400DBC0D3F337EC0FF00001D76B530E030184
:102D2400006F370E016F200E026F4D0E036F310ED0
:102D3400046F200E056F530E066F700E076F650E3D
:102D4400086F650E096F640E0A6F200E0B6F550E27
:102D54000C6F500E0D6F0E6B000ED26F030ED36FFF
:102D6400010ED46FF9EC07F0060E0301D26FB8EC34
:102D740007F000522FE0D8C0D2F3010E0301D36F45
:102D840037EC0FF00101866B530E03010F6F370E02
:102D9400106F200E116F4D0E126F320E136F200E36
:102DA400146F530E156F700E166F650E176F650E48
:102DB400186F640E196F200E1A6F550E1B6F500E8C
:102DC4001C6F1D6B0F0ED26F030ED36F010ED46FE9
:102DD400F9EC07F0030E0301D26FB8EC07F00052D0
:102DE40009E10001DC51010A04E102019AA101D0C8
:102DF40001D02BD0010150A128D05091010E030124
:102E0400D26F36EC07F0530E03011E6F370E1F6F9F
:102E1400200E206F4D0E216F310E226F200E236F76
:102E2400530E246F740E256F6F0E266F700E276F6E
:102E3400650E286F640E296F2A6B1E0ED26F030E67
:102E4400D36F010ED46FF9EC07F0040E0301D26FB7
:102E5400B8EC07F0005209E10001D951010A04E17C
:102E640002019AA301D001D02BD0010150A328D094
:102E74005093020E0301D26F36EC07F0530E030198
:102E84002B6F370E2C6F200E2D6F4D0E2E6F320EC2
:102E94002F6F200E306F530E316F740E326F6F0E22
:102EA400336F700E346F650E356F640E366F376B8B
:102EB4002B0ED26F030ED36F010ED46FF9EC07F013
:102EC40002019351000A05E001017351010A01E076
:102ED40002D00101509302019BA152D0010E0301C3
:102EE400D26F36EC07F0020E0301D26F36EC07F016
:102EF4000001DC6BD96B060E0101876F010E3A6F7E
:102F0400FB0EF66E800EF76E000EF86E380EE16E54
:102F1400030EE26E110E006E010E016E1EEC04F043
:102F2400380E0301D26F030ED36F010ED46FF9EC88
:102F340007F0090E0301D26FE7EC08F0B50E0501A6
:102F4400B76F000EB86F740EB96F010EBA6F100E22
:102F5400BB6F000EBC6F15EC01F0910EB76F000E45
:102F6400B86F070EB96F010EBA6F100EBB6F000E6B
:102F7400BC6F15EC01F0010E0001B36F020EDA6FA5
:102F840002019951000A50E0010E0301D26F36ECA0
:102F940007F0020E0301D26F36EC07F0060E0101B2
:102FA400876F0001DC6BD96B0C0EF66E810EF76E29
:102FB400000EF86E490EE16E030EE26E120E006E04
:102FC400010E016E1EEC04F0490E0301D26F030ED4
:102FD400D36F010ED46FF9EC07F0090E0301D26F21
:102FE400E7EC08F0B50E0501B76F000EB86F740E6C
:102FF400B96F010EBA6F100EBB6F000EBC6F15ECEB
:1030040001F0910EB76F000EB86FF60EB96F000E97
:10301400BA6F100EBB6F000EBC6F15EC01F0010E01
:103024000001B36F020EDA6F02019C51010A52E1F2
:10303400915350E0010E0301D26F36EC07F0020EFB
:103044000301D26F36EC07F0060E0101876F000111
:10305400DC6BD96B1E0EF66E810EF76E000EF86EE9
:103064005B0EE16E030EE26E150E006E010E016E34
:103074001EEC04F05B0E0301D26F030ED36F010E3E
:10308400D46FF9EC07F0090E0301D26FE7EC08F0F6
:10309400B50E0501B76F000EB86F740EB96F010E4F
:1030A400BA6F100EBB6F000EBC6F15EC01F0910EE1
:1030B400B76F000EB86F180EB96F010EBA6F100E0D
:1030C400BB6F000EBC6F15EC01F0010E0001B36F75
:1030D400020EDA6F01015051000A2BE1010E876FD5
:1030E4000001F16B090E0301D26FE7EC08F0B50E95
:1030F4000501B76F000EB86F290EB96F010EBA6FD4
:10310400100EBB6F000EBC6F15EC01F0910EB76F83
:10311400000EB86FA20EB96F000EBA6F100EBB6F1F
:10312400000EBC6F15EC01F0010E0001B36F010E2F
:10313400DA6F01018751050A04E08751060A01E0AC
:1031440050D00301D26BE7EC08F0000E0201901995
:1031540002E1000E8F1945E08F510001F2250301B1
:10316400D26F020190510001F3210301D36F000ECD
:103174000001F4210301D46F000E0001F5210301C5
:10318400D56F090ED66F45EC07F0330EF66E810E3F
:10319400F76E000EF86E700EE16E030EE26E150E01
:1031A400006E010E016E1EEC04F0700ED26F030E61
:1031B400D36F010ED46FF9EC07F0910E0501B76FD0
:1031C400000EB86F3F0EB96F010EBA6F100EBB6FD1
:1031D400000EBC6F15EC01F0010E0001B36F020E7E
:0431E400DA6F12008C
:1031E80008D2838E020199A106D0020E826F5F2B4E
:1031F800010E0001806F020199A307D0010E826FB2
:10320800030E5F6F010E0001806F0001DC6BD96B4C
:1032180029D2020E0301D26FD36B47EC0FF0060ED2
:103228000001F2250301D26F000E0001F321030112
:10323800D36F000E0001F4210301D46F000E0001CA
:10324800F5210301D56F150ED66F45EC07F0020185
:103258005F2B08D29AA30CD00001D951010A08E1CA
:10326800D96B020E0301D26F36EC07F002015F2B17
:10327800150E0301D26FB8EC07F0005203E0010EFF
:103288000001D96FEFD1010E0301D26FD36B47EC68
:103298000FF0060E0001F2250301D26F000E0001A7
:1032A800F3210301D36F000E0001F4210301D46F51
:1032B800000E0001F5210301D56F140ED66F45EC01
:1032C80007F002015F2B9AA10CD00001DC51010A22
:1032D80008E1DC6B010E0301D26F36EC07F0020146
:1032E8005F2B140E0301D26FB8EC07F0005203E015
:1032F800010E0001DC6FB6D1F2C06DF2F3C06EF2C0
:10330800F4C06FF2F5C070F2010E0301D26F010E26
:10331800D36F47EC0FF0060E0001F2250301D26FC0
:10332800000E0001F3210301D36F000E0001F42108
:103338000301D46F000E0001F5210301D56F140EAF
:10334800D66F45EC07F002015F2B8CD19AA118D0FB
:103358000001DC51010A14E1DC6B010E0301D26F9C
:1033680036EC07F002018251010A03E10B0E5F6F90
:1033780001D05F2B6D510001F25D006E00C072F24A
:10338800140E0301D26FB8EC07F0005203E0010EEF
:103398000001DC6F67D1F2C06DF2F3C06EF2F4C0C9
:1033A8006FF2F5C070F2020E0301D26F010ED36FF7
:1033B80047EC0FF0060E0001F2250301D26F000E54
:1033C8000001F3210301D36F000E0001F421030172
:1033D800D46F000E0001F5210301D56F150ED66FCD
:1033E80045EC07F002015F2B3DD19AA312D00001F2
:1033F800D951010A0EE1D96B020E0301D26F36ECE6
:1034080007F002015F2B6D510001F25D006E00C0F4
:1034180074F2150E0301D26FB8EC07F0005203E006
:10342800010E0001D96F1ED1F2C06DF2F3C06EF229
:10343800F4C06FF2F5C070F2020E0301D26FD36BC5
:1034480047EC0FF0060E0001F2250301D26F000EC3
:103458000001F3210301D36F000E0001F4210301E1
:10346800D46F000E0001F5210301D56F150ED66F3C
:1034780045EC07F002015F2BF5D09AA312D00001AA
:10348800D951010A0EE1D96B020E0301D26F36EC55
:1034980007F002015F2B6D510001F25D006E00C064
:1034A80073F2150E0301D26FB8EC07F0005203E077
:1034B800010E0001D96FD6D0F2C06DF2F3C06EF2E2
:1034C800F4C06FF2F5C070F2010E0301D26FD36B36
:1034D80047EC0FF0060E0001F2250301D26F000E33
:1034E8000001F3210301D36F000E0001F421030151
:1034F800D46F000E0001F5210301D56F140ED66FAD
:1035080045EC07F002015F2BADD09AA112D0000163
:10351800DC51010A0EE1DC6B010E0301D26F36ECBF
:1035280007F002015F2B6D510001F25D006E00C0D3
:1035380071F2140E0301D26FB8EC07F0005203E0E9
:10354800010E0001DC6F8ED0710E0301D26F020EE6
:10355800D36FAEEC06F0710ED26F020ED36F82C23B
:10356800D4F331EC09F0B50E0501B76F000EB86F52
:103578001C0EF66E820EF76E000EF86EB80EE16E37
:10358800020EE26E110E006E010E016E1EEC04F0CA
:10359800B80EB96F020EBA6F100EBB6F000EBC6F7B
:1035A80015EC01F0910EB76F000EB86F2D0EF66E88
:1035B800820EF76E000EF86EC90EE16E020EE26E14
:1035C800110E006E010E016E1EEC04F0C90EB96FEB
:1035D800020EBA6F100EBB6F000EBC6F15EC01F037
:1035E800020E0001DA6F010EB36F839E0101876B33
:1035F80039D002015F51000AD8B4F3D55F51010AEE
:10360800D8B407D65F51020AD8B424D65F51030A4A
:10361800D8B439D65F51040AD8B455D65F51050AD3
:10362800D8B46AD65F51060AD8B490D65F51070A53
:10363800D8B4B1D65F51080AD8B4D7D65F51090AB1
:10364800D8B4F2D65F510A0AD8B417D75F510B0A1B
:10365800D8B432D75F510C0AD8B457D75F510D0A86
:06366800D8B472D7120075
:0A366E0087EC05F00101876B1200E4
:10367800838E010E0001B46F010E0301D26FB8EC06
:1036880007F000522DE0010E0301D26FD36B47EC17
:103698000FF0530E0201B86F340EB96F200EBA6FD7
:1036A8004D0EBB6F6F0EBC6F740EBD6F6F0EBE6F8D
:1036B800720EBF6F310EC06F530EC16F740EC26FA2
:1036C800610EC36F720EC46F740EC56FC66BB80EF1
:1036D8000301D26F020ED36F010ED46FF9EC07F01D
:1036E800020E0301D26FB8EC07F000524FE0020E51
:1036F8000301D26FD36B47EC0FF0530E0201C76F73
:10370800340EC86F200EC96F4D0ECA6F6F0ECB6F87
:10371800740ECC6F6F0ECD6F720ECE6F320ECF6FF0
:10372800530ED06F740ED16F610ED26F720ED36FBD
:10373800740ED46FD56BC70E0301D26F020ED36F10
:10374800010ED46FF9EC07F0B50E0501B76F000E46
:10375800B86F510EB96F010EBA6F100EBB6F000E25
:10376800BC6F15EC01F0910EB76F000EB86FA20E8A
:10377800B96F000EBA6F100EBB6F000EBC6F15EC60
:1037880001F0010E0001B36F010EDA6F0A0E03019A
:10379800D26FB8EC07F0005221E0010E0001DC6F97
:1037A800010E0301D26FF1EC09F0AD0EF66E7E0E3C
:1037B800F76E000EF86ED60EE16E020EE26E150E72
:1037C800006E010E016E1EEC04F0D60E0301D26FDE
:1037D800020ED36F010ED46FF9EC07F00B0E030144
:1037E800D26FB8EC07F0005221E0010E0001D96F4A
:1037F800020E0301D26FF1EC09F0C20EF66E7E0ED6
:10380800F76E000EF86EEB0EE16E020EE26E150E0C
:10381800006E010E016E1EEC04F0EB0E0301D26F78
:10382800020ED36F010ED46FF9EC07F0050E0301F9
:10383800D26FB8EC07F0005230E0010E0301D26FEE
:10384800DBC0D3F337EC0FF00001DC6BD76B530E02
:103858000301006F340E016F200E026F4D0E036FCF
:10386800310E046F200E056F530E066F700E076F32
:10387800650E086F650E096F640E0A6F200E0B6FD8
:10388800550E0C6F500E0D6F0E6B000ED26F030E9F
:10389800D36F010ED46FF9EC07F0070E0301D26F56
:1038A800B8EC07F0005223E00301D26BDBC0D3F37E
:1038B80037EC0FF00001DC6B010ED76FE60EF66EE9
:1038C8007E0EF76E000EF86E0F0EE16E030EE26EBE
:1038D800110E006E010E016E1EEC04F00F0E0301B6
:1038E800D26F030ED36F010ED46FF9EC07F0060EFA
:1038F8000301D26FB8EC07F000522FE0D8C0D2F322
:10390800010E0301D36F37EC0FF00101866B530EE4
:103918000301206F340E216F200E226F4D0E236F8E
:10392800320E246F200E256F530E266F700E276FF0
:10393800650E286F650E296F640E2A6F200E2B6F97
:10394800550E2C6F500E2D6F2E6B200ED26F030E5E
:10395800D36F010ED46FF9EC07F0080E0301D26F94
:10396800B8EC07F0005222E0D8C0D2F30301D36BC1
:1039780037EC0FF0010E0101866F060EF66E7F0E12
:10398800F76E000EF86E2F0EE16E030EE26E110E4A
:10399800006E010E016E1EEC04F02F0E0301D26FB3
:1039A800030ED36F010ED46FF9EC07F0030E030179
:1039B800D26FB8EC07F0005229E001015091010ED6
:1039C8000301D26F36EC07F0530E0301406F340E3B
:1039D800416F200E426F4D0E436F310E446F200E23
:1039E800456F530E466F740E476F6F0E486F700E1B
:1039F800496F650E4A6F640E4B6F4C6B400ED26F69
:103A0800030ED36F010ED46FF9EC07F0040E030117
:103A1800D26FB8EC07F0005229E001015093020E72
:103A28000301D26F36EC07F0530E03014D6F340ECD
:103A38004E6F200E4F6F4D0E506F320E516F200E8D
:103A4800526F530E536F740E546F6F0E556F700E86
:103A5800566F650E576F640E586F596B4D0ED26FC7
:103A6800030ED36F010ED46FF9EC07F00001DC519F
:103A7800010A57E102019AA154D00001D751000A66
:103A880050E1010E0301D26F36EC07F0020E03017C
:103A9800D26F36EC07F0060E0101876F0001DC6B70
:103AA800D96B310EF66E7F0EF76E000EF86E5A0E59
:103AB800E16E030EE26E110E006E010E016E1EEC39
:103AC80004F05A0E0301D26F030ED36F010ED46FA8
:103AD800F9EC07F0090E0301D26FE7EC08F0B50E18
:103AE8000501B76F000EB86F740EB96F010EBA6F8B
:103AF800100EBB6F000EBC6F15EC01F0910EB76F86
:103B0800000EB86F620EB96F010EBA6F100EBB6F60
:103B1800000EBC6F15EC01F0010E0001B36F020E30
:103B2800DA6F0001D951010A57E102019AA354D072
:103B380001018651000A50E1010E0301D26F36ECF3
:103B480007F0020E0301D26F36EC07F0060E0101F2
:103B5800876F0001DC6BD96B420EF66E7F0EF76E35
:103B6800000EF86E6B0EE16E030EE26E110E006E23
:103B7800010E016E1EEC04F06B0E0301D26F030EF2
:103B8800D36F010ED46FF9EC07F0090E0301D26F61
:103B9800E7EC08F0B50E0501B76F000EB86F740EAC
:103BA800B96F010EBA6F100EBB6F000EBC6F15EC2B
:103BB80001F0910EB76F000EB86F620EB96F010E6B
:103BC800BA6F100EBB6F000EBC6F15EC01F0010E42
:103BD8000001B36F020EDA6F02019351000A05E08B
:103BE80001017351010A01E002D001015093020161
:103BF8009BA152D0010E0301D26F36EC07F0020EE2
:103C08000301D26F36EC07F00001DC6BD96B060EAE
:103C18000101876F010E3A6F530EF66E7F0EF76E35
:103C2800000EF86E7C0EE16E030EE26E110E006E51
:103C3800010E016E1EEC04F07C0E0301D26F030E20
:103C4800D36F010ED46FF9EC07F0090E0301D26FA0
:103C5800E7EC08F0B50E0501B76F000EB86F740EEB
:103C6800B96F010EBA6F100EBB6F000EBC6F15EC6A
:103C780001F0910EB76F000EB86F070EB96F010E05
:103C8800BA6F100EBB6F000EBC6F15EC01F0010E81
:103C98000001B36F020EDA6F02019C51010A52E172
:103CA800915350E0010E0301D26F36EC07F0020E7B
:103CB8000301D26F36EC07F0060E0101876F000191
:103CC800DC6BD96B640EF66E7F0EF76E000EF86E25
:103CD8008D0EE16E030EE26E150E006E010E016E82
:103CE8001EEC04F08D0E0301D26F030ED36F010E8C
:103CF800D46FF9EC07F0090E0301D26FE7EC08F076
:103D0800B50E0501B76F000EB86F740EB96F010ECE
:103D1800BA6F100EBB6F000EBC6F15EC01F0910E60
:103D2800B76F000EB86F180EB96F010EBA6F100E8C
:103D3800BB6F000EBC6F15EC01F0010E0001B36FF4
:103D4800020EDA6F02019951000A50E0010E0301D8
:103D5800D26F36EC07F0020E0301D26F36EC07F093
:103D6800060E0101876F0001DC6BD96B790EF66EC8
:103D78007F0EF76E000EF86EA20EE16E030EE26E75
:103D8800120E006E010E016E1EEC04F0A20E03016D
:103D9800D26F030ED36F010ED46FF9EC07F0090E42
:103DA8000301D26FE7EC08F0B50E0501B76F000EFE
:103DB800B86F740EB96F010EBA6F100EBB6F000E9C
:103DC800BC6F15EC01F0910EB76F000EB86FF60ED0
:103DD800B96F000EBA6F100EBB6F000EBC6F15ECFA
:103DE80001F0010E0001B36F020EDA6F01015051AC
:103DF800000A2BE1010E876F0001F16B090E030128
:103E0800D26FE7EC08F0B50E0501B76F000EB86F7A
:103E1800290EB96F010EBA6F100EBB6F000EBC6F82
:103E280015EC01F0910EB76F000EB86FA20EB96FC6
:103E3800000EBA6F100EBB6F000EBC6F15EC01F0D0
:103E4800010E0001B36F010EDA6F01018751050AF7
:103E580004E08751060A01E050D00301D26BE7EC79
:103E680008F0000E0201901902E1000E8F1945E0DA
:103E78008F510001F2250301D26F02019051000118
:103E8800F3210301D36F000E0001F4210301D46F65
:103E9800000E0001F5210301D56F090ED66F45EC20
:103EA80007F08B0EF66E7F0EF76E000EF86EB40EEE
:103EB800E16E030EE26E150E006E010E016E1EEC31
:103EC80004F0B40ED26F030ED36F010ED46FF9EC69
:103ED80007F0910E0501B76F000EB86F3F0EB96F6E
:103EE800010EBA6F100EBB6F000EBC6F15EC01F01F
:0C3EF800010E0001B36F020EDA6F120021
:103F0400030E0201EE6F839E0001B46B020199510E
:103F1400000A04E101013A5301E151D101013A6B74
:103F2400838E010E0001B46F090E0301D26FE7EC1A
:103F340008F00101885318E0010E0001F225030185
:103F4400D26F000E0001F3210301D36F000E0001B4
:103F5400F4210301D46F000E0001F5210301D56F94
:103F64000C0ED66F45EC07F00201EE510001F2256C
:103F7400006E000EF321016E000EF421026E000E9D
:103F8400F521036E00C03EF201C03FF202C040F2D0
:103F940003C041F200C0D2F301C0D3F302C0D4F392
:103FA40003C0D5F3010E0301D66F45EC07F03EC202
:103FB400D2F33FC2D3F340C2D4F341C2D5F3050ECA
:103FC400D66F45EC07F00001D76B060EF225006EA4
:103FD400000EF321016E000EF421026E000EF52195
:103FE400036E0201EE510026000E0122022203227A
:103FF40000C03EF201C03FF202C040F203C041F2F1
:1040040000C0D2F301C0D3F302C0D4F303C0D5F38C
:104014000A0E0301D66F45EC07F002012E51000190
:10402400F225006E000EF321016E000EF421026EE3
:10403400000EF521036E0201EE510026000E01224E
:104044000222032200C03EF201C03FF202C040F24D
:1040540003C041F200C0D2F301C0D3F302C0D4F3D1
:1040640003C0D5F3030E0301D66F45EC07F002013C
:104074009351000AD8B499D001017351020AD8A40B
:1040840094D0020130510001F2250301D26F000ED9
:104094000001F3210301D36F000E0001F421030199
:1040A400D46F000E0001F5210301D56F0201EE511A
:1040B4000301D227000ED323D423D523020ED66FB7
:1040C40045EC07F0020130510001F2250301D26FE3
:1040D400000E0001F3210301D36F000E0001F4214F
:1040E4000301D46F000E0001F5210301D56F020115
:1040F400EE510301D227000ED323D423D523060E79
:10410400D66F45EC07F00101866B020130510001C6
:10411400F2250301D26F000E0001F3210301D36FD6
:10412400000E0001F4210301D46F000E0001F521FB
:104134000301D56F060ED227000ED323D423D52333
:104144000201EE510301D227000ED323D423D52339
:104154000B0ED66F45EC07F0020193510001F225D6
:104164000301D26F000E0001F3210301D36F000E8F
:104174000001F4210301D46F000E0001F5210301B5
:10418400D56F020130510301D227000ED323D4236B
:10419400D5230201EE510301D227000ED323D423E9
:1041A400D523040ED66F45EC07F0030E0101856F8D
:1041B4000001DC6BD96BF16B080E0101876F090EEE
:1041C4000301D26FB8EC07F00050010AD8A42FD134
:1041D400090E0301D26FE7EC08F00201EE51000171
:1041E400F225006E000EF321016E000EF421026E22
:1041F400000EF521036E00C03EF201C03FF202C082
:1042040040F203C041F200C0D2F301C0D3F302C0B4
:10421400D4F303C0D5F3010E0301D66F45EC07F0C8
:104224003EC2D2F33FC2D3F340C2D4F341C2D5F36A
:10423400050ED66F45EC07F00001D76B060EF2258C
:10424400006E000EF321016E000EF421026E000ECA
:10425400F521036E0201EE510026000E0122022216
:10426400032200C03EF201C03FF202C040F203C08C
:1042740041F200C0D2F301C0D3F302C0D4F303C0AF
:10428400D5F30A0E0301D66F45EC07F001019F51E7
:104294000001F225006E000EF321016E000EF421E0
:1042A400026E000EF521036E0201EE510026000E8F
:1042B40001220222032200C03EF201C03FF202C0EA
:1042C40040F203C041F200C0D2F301C0D3F302C0F4
:1042D400D4F303C0D5F3030E0301D66F45EC07F006
:1042E4000101A051000AD8B498D07351020AD8A48D
:1042F40094D0020130510001F2250301D26F000E67
:104304000001F3210301D36F000E0001F421030126
:10431400D46F000E0001F5210301D56F0201EE51A7
:104324000301D227000ED323D423D523020ED66F44
:1043340045EC07F0020130510001F2250301D26F70
:10434400000E0001F3210301D36F000E0001F421DC
:104354000301D46F000E0001F5210301D56F0201A2
:10436400EE510301D227000ED323D423D523060E06
:10437400D66F45EC07F00101866B02013051000154
:10438400F2250301D26F000E0001F3210301D36F64
:10439400000E0001F4210301D46F000E0001F52189
:1043A4000301D56F060ED227000ED323D423D523C1
:1043B4000201EE510301D227000ED323D423D523C7
:1043C4000B0ED66F45EC07F001019F510001F22559
:1043D4000301D26F000E0001F3210301D36F000E1D
:1043E4000001F4210301D46F000E0001F521030143
:1043F400D56F020130510301D227000ED323D423F9
:10440400D5230201EE510301D227000ED323D42376
:10441400D523040ED66F45EC07F0030E0101506F4F
:104424000001DC6BD96BF16B070E0101876F020190
:104434009BA128D0000E901902E1000E8F1922E0F2
:104444000001F151000A1EE1010EF16F2AEC08F09F
:1044540000C081F08C0EF66E810EF76E000EF86EC1
:10446400B80EE16E020EE26E160E006E010E016EC3
:104474001EEC04F0B80ED26F020ED36F010ED46F8F
:10448400F9EC07F00001F151010A5EE102019BB170
:104494005BD0000E901902E1000E8F1955E0000167
:1044A4008151F225006E000EF321016E000EF421FD
:1044B400026E000EF521036E00C03EF201C03FF211
:1044C40002C040F203C041F200C0D2F301C0D3F3F2
:1044D40002C0D4F303C0D5F3090E0301D66F45EC33
:1044E40007F00001F16B3EC2ABF53FC2ACF540C230
:1044F400ADF541C2AEF5310E0501AF6F020EB06FDE
:1045040026EC04F0A20EF66E810EF76E000EF86E25
:10451400CE0EE16E020EE26E100E006E010E016E02
:104524001EEC04F0CE0E0301D26F020ED36F010E07
:10453400D46FF9EC07F0310E0301D26F020ED36F82
:0A454400010ED46FF9EC07F012002D
:10454E00020E0201FA6FFB6B839E0001B46B8DECC1
:10455E0008F000500201FB1937E07F6A8DEC08F07D
:10456E0000C0FBF200C0D2F39C0ED36F000ED46FCE
:10457E0091EC0FF0910EB76F000EB86F430E020163
:10458E00B86F6C0EB96F6F0EBA6F730EBB6F650E90
:10459E00BC6F200EBD6F610EBE6F660EBF6F740EC8
:1045AE00C06F650EC16F720EC26FC36BB80E050180
:1045BE00B96F020EBA6F0B0EBB6F000EBC6F15EC0F
:1045CE0001F0010E0001B36F02019951000A08E1DA
:1045DE00090E0301D26FB8EC07F0005201E1CCD303
:1045EE000301D26BE7EC08F00101A051000A04E0D0
:1045FE007351010A01E045D10201FA510001F22581
:10460E00006E000EF321016E000EF421026E000EFC
:10461E00F521036E00C03EF201C03FF202C040F22F
:10462E0003C041F200C0D2F301C0D3F302C0D4F3F1
:10463E0003C0D5F3010E0301D66F45EC07F002015E
:10464E003C51000A11E03EC2D2F33FC2D3F340C246
:10465E00D4F341C2D5F3070E0301D66F45EC07F034
:10466E00010E0001D76F0FD03EC2D2F33FC2D3F37B
:10467E0040C2D4F341C2D5F3050E0301D66F45EC0B
:10468E0007F00001D76B02013C510001F225006ECC
:10469E00000EF321016E000EF421026E000EF521C4
:1046AE00036E060E0026000E0122022203220201D4
:1046BE00FA510026000E01220222032200C03EF211
:1046CE0001C03FF202C040F203C041F200C0D2F37B
:1046DE0001C0D3F302C0D4F303C0D5F30A0E030115
:1046EE00D66F45EC07F002013C510001F225006E39
:1046FE00000EF321016E000EF421026E000EF52164
:10470E00036E0201FA510026000E0122022203223C
:10471E0000C03EF201C03FF202C040F203C041F2BF
:10472E0000C0D2F301C0D3F302C0D4F303C0D5F35B
:10473E00050E0301D66F45EC07F002013D51000A4C
:10474E0030E001019F510001F225006E000EF321B1
:10475E00016E000EF421026E000EF521036E0201B1
:10476E003D51005E000E015A025A035AFA510026BC
:10477E00000E01220222032200C03EF201C03FF2CF
:10478E0002C040F203C041F200C0D2F301C0D3F325
:10479E0002C0D4F303C0D5F3070E0301D66F45EC68
:1047AE0007F001018E51000A42E09F510001F225EF
:1047BE00006E000EF321016E000EF421026E000E4B
:1047CE00F521036E0201FA510026000E012202228B
:1047DE00032200C03EF201C03FF202C040F203C00D
:1047EE0041F200C0D2F301C0D3F302C0D4F303C030
:1047FE00D5F3050E0301D66F45EC07F0020E02014C
:10480E003E250301D26F000E02013F210301D36F3B
:10481E00000E020140210301D46F000E020141215E
:10482E000301D56F030ED66F45EC07F02AD00101B8
:10483E009F510001F225006E000EF321016E000E55
:10484E00F421026E000EF521036E0201FA510026CC
:10485E00000E01220222032200C03EF201C03FF2EE
:10486E0002C040F203C041F200C0D2F301C0D3F344
:10487E0002C0D4F303C0D5F3030E0301D66F45EC8B
:10488E0007F00101A051000AD8B46DD27351020A8B
:10489E00D8A469D20201FA510001F225006E000E71
:1048AE00F321016E000EF421026E000EF521036E4F
:1048BE0000C03EF201C03FF202C040F203C041F21E
:1048CE0000C0D2F301C0D3F302C0D4F303C0D5F3BA
:1048DE00020E0301D66F45EC07F002013C51000AAF
:1048EE0011E03EC2D2F33FC2D3F340C2D4F341C271
:1048FE00D5F3080E0301D66F45EC07F0010E01014A
:10490E00866F0FD03EC2D2F33FC2D3F340C2D4F370
:10491E0041C2D5F3060E0301D66F45EC07F0010137
:10492E00866B02013C510001F225006E000EF32150
:10493E00016E000EF421026E000EF521036E060EBE
:10494E000026000E0122022203220201FA51002645
:10495E00000E01220222032200C03EF201C03FF2ED
:10496E0002C040F203C041F200C0D2F301C0D3F343
:10497E0002C0D4F303C0D5F30B0E0301D66F45EC82
:10498E0007F002013C510001F225006E000EF321EA
:10499E00016E000EF421026E000EF521036E02016F
:1049AE00FA510026000E01220222032200C03EF21E
:1049BE0001C03FF202C040F203C041F200C0D2F388
:1049CE0001C0D3F302C0D4F303C0D5F3060E030126
:1049DE00D66F45EC07F002013D51000A30E00101AF
:1049EE00A0510001F225006E000EF321016E000EA3
:1049FE00F421026E000EF521036E02013D51005EA0
:104A0E00000E015A025A035AFA510026000E0122D4
:104A1E000222032200C03EF201C03FF202C040F269
:104A2E0003C041F200C0D2F301C0D3F302C0D4F3ED
:104A3E0003C0D5F3080E0301D66F45EC07F0010154
:104A4E00A0510001F225006E000EF321016E000E42
:104A5E00F421026E000EF521036E0201FA510026BA
:104A6E00000E01220222032200C03EF201C03FF2DC
:104A7E0002C040F203C041F200C0D2F301C0D3F332
:104A8E0002C0D4F303C0D5F3040E0301D66F45EC78
:104A9E0007F0020130510001F225006E000EF321E5
:104AAE00016E000EF421026E000EF521036E02015E
:104ABE00FA510026000E01220222032200C03EF20D
:104ACE0001C03FF202C040F203C041F200C0D2F377
:104ADE0001C0D3F302C0D4F303C0D5F3010E03011A
:104AEE00D66F45EC07F002013C51000A11E03EC2C0
:104AFE00D2F33FC2D3F340C2D4F341C2D5F3070E73
:104B0E000301D66F45EC07F0010E0001D76F0FD0F1
:104B1E003EC2D2F33FC2D3F340C2D4F341C2D5F367
:104B2E00050E0301D66F45EC07F00001D76B0201AD
:104B3E0030510001F225006E000EF321016E000EC1
:104B4E00F421026E000EF521036E02013C51002687
:104B5E00000E012202220322060E0026000E012262
:104B6E0002220322FA510026000E01220222032203
:104B7E0000C03EF201C03FF202C040F203C041F25B
:104B8E0000C0D2F301C0D3F302C0D4F303C0D5F3F7
:104B9E000A0E0301D66F45EC07F0020130510001F9
:104BAE00F225006E000EF321016E000EF421026E4E
:104BBE00000EF521036E02013C510026000E01226B
:104BCE0002220322FA510026000E012202220322A3
:104BDE0000C03EF201C03FF202C040F203C041F2FB
:104BEE0000C0D2F301C0D3F302C0D4F303C0D5F397
:104BFE00050E0301D66F45EC07F002013D51000A88
:104C0E0036E030510001F225006E000EF321016EE8
:104C1E00000EF421026E000EF521036E01019F516C
:104C2E000026000E01220222032202013D51005EE7
:104C3E00000E015A025A035AFA510026000E0122A2
:104C4E000222032200C03EF201C03FF202C040F237
:104C5E0003C041F200C0D2F301C0D3F302C0D4F3BB
:104C6E0003C0D5F3070E0301D66F45EC07F0010123
:104C7E008E51000A48E09F510001F225006E000E91
:104C8E00F321016E000EF421026E000EF521036E6B
:104C9E00020130510026000E012202220322FA5197
:104CAE000026000E01220222032200C03EF201C0A5
:104CBE003FF202C040F203C041F200C0D2F301C085
:104CCE00D3F302C0D4F303C0D5F3050E0301D66FA0
:104CDE0045EC07F0020E02013E250301D26F000ED5
:104CEE0002013F210301D36F000E02014021030197
:104CFE00D46F000E020141210301D56F030ED66F52
:104D0E0045EC07F030D001019F510001F225006EF5
:104D1E00000EF321016E000EF421026E000EF5213D
:104D2E00036E020130510026000E012202220322E0
:104D3E00FA510026000E01220222032200C03EF28A
:104D4E0001C03FF202C040F203C041F200C0D2F3F4
:104D5E0001C0D3F302C0D4F303C0D5F3030E030195
:104D6E00D66F45EC07F0030E0101506F0001DC6BAE
:104D7E00D96B040E0101876F02019BA128D0000E92
:104D8E00901902E1000E8F1922E00001F151000A84
:104D9E001EE1010EF16F2AEC08F000C081F0540EF6
:104DAE00F66E810EF76E000EF86EC40EE16E020EF8
:104DBE00E26E160E006E010E016E1EEC04F0C40EB5
:104DCE00D26F020ED36F010ED46FF9EC07F0000113
:104DDE00F151010AD8A4BAD002019BB1B7D0000E8E
:104DEE00901902E1000E8F19D8B4B0D001018D5187
:104DFE00000A56E100018151F225006E000EF321EA
:104E0E00016E000EF421026E000EF521036E00C03D
:104E1E003EF201C03FF202C040F203C041F200C0B8
:104E2E00D2F301C0D3F302C0D4F303C0D5F3090EFD
:104E3E000301D66F45EC07F00001F16B3EC2ABF5F6
:104E4E003FC2ACF540C2ADF541C2AEF5310E050123
:104E5E00AF6F020EB06F26EC04F06A0EF66E810E86
:104E6E00F76E000EF86EDA0EE16E020EE26E100EA6
:104E7E00006E010E016E1EEC04F0DA0E0301D26F0D
:104E8E00020ED36F010ED46FF9EC07F0310E030151
:104E9E00D26F020ED36F010ED46FF9EC07F056D01D
:104EAE0001018D510001F225006E000EF321016EFD
:104EBE00000EF421026E000EF521036E00C03EF2CC
:104ECE0001C03FF202C040F203C041F200C0D2F373
:104EDE0001C0D3F302C0D4F303C0D5F3090E03010E
:104EEE00D66F45EC07F00001F16B3EC2ABF53FC249
:104EFE00ACF540C2ADF541C2AEF5310E0501AF6F56
:104F0E00020EB06F26EC04F07A0EF66E810EF76E7E
:104F1E00000EF86EEA0EE16E020EE26E100E006EDC
:104F2E00010E016E1EEC04F0EA0E0301D26F020EAA
:104F3E00D36F010ED46FF9EC07F0310E0301D26F6F
:0E4F4E00020ED36F010ED46FF9EC07F01200C3
:104F5C00020E0201EE6F839E0001B46B02019951A7
:104F6C00000A09E1090E0301D26FB8EC07F00050FA
:104F7C00010A01E0E0D10101A051000A04E07351E3
:104F8C00010A01E088D0090E0301D26FE7EC08F0AA
:104F9C000201EE510001F225006E000EF321016EAC
:104FAC00000EF421026E000EF521036E00C03EF2DD
:104FBC0001C03FF202C040F203C041F200C0D2F384
:104FCC0001C0D3F302C0D4F303C0D5F3010E030127
:104FDC00D66F45EC07F03EC2D2F33FC2D3F340C2CA
:104FEC00D4F341C2D5F3050ED66F45EC07F00001A2
:104FFC00D76B060EF225006E000EF321016E000E2B
:10500C00F421026E000EF521036E0201EE51002612
:10501C00000E01220222032200C03EF201C03FF228
:10502C0002C040F203C041F200C0D2F301C0D3F37E
:10503C0002C0D4F303C0D5F30A0E0301D66F45ECBE
:10504C0007F001019F510001F225006E000EF321C3
:10505C00016E000EF421026E000EF521036E0201AA
:10506C00EE510026000E01220222032200C03EF265
:10507C0001C03FF202C040F203C041F200C0D2F3C3
:10508C0001C0D3F302C0D4F303C0D5F3030E030164
:10509C00D66F45EC07F00101A051000AD8B442D1FB
:1050AC007351020AD8A43ED1090E0301D26FE7EC6A
:1050BC0008F00201EE510001F225006E000EF32102
:1050CC00016E000EF421026E000EF521036E00C07D
:1050DC003EF201C03FF202C040F203C041F200C0F8
:1050EC00D2F301C0D3F302C0D4F303C0D5F3020E44
:1050FC000301D66F45EC07F03EC2D2F33FC2D3F3A7
:10510C0040C2D4F341C2D5F3060ED66F45EC07F07E
:10511C000001D76B060EF225006E000EF321016E16
:10512C00000EF421026E000EF521036E0201EE5109
:10513C000026000E01220222032200C03EF201C012
:10514C003FF202C040F203C041F200C0D2F301C0F2
:10515C00D3F302C0D4F303C0D5F30B0E0301D66F07
:10516C0045EC07F001019F510001F225006E000E85
:10517C00F321016E000EF421026E000EF521036E78
:10518C000201EE510026000E01220222032200C071
:10519C003EF201C03FF202C040F203C041F200C037
:1051AC00D2F301C0D3F302C0D4F303C0D5F3040E81
:1051BC000301D66F45EC07F0020130510001F225D6
:1051CC00006E000EF321016E000EF421026E000E33
:1051DC00F521036E0201EE510026000E012202227F
:1051EC00032200C03EF201C03FF202C040F203C0F5
:1051FC0041F200C0D2F301C0D3F302C0D4F303C018
:10520C00D5F3010E0301D66F45EC07F002013051C6
:10521C000001F225006E000EF321016E000EF42148
:10522C00026E000EF521036E0201EE510026000EF7
:10523C0001220222032200C03EF201C03FF202C052
:10524C0040F203C041F200C0D2F301C0D3F302C05C
:10525C00D4F303C0D5F3050E0301D66F45EC07F06C
:10526C000101866B020130510001F225006E000E27
:10527C00F321016E000EF421026E000EF521036E77
:10528C00060E0026000E0122022203220201EE511C
:10529C000026000E01220222032200C03EF201C0B1
:1052AC003FF202C040F203C041F200C0D2F301C091
:1052BC00D3F302C0D4F303C0D5F30A0E0301D66FA7
:1052CC0045EC07F00101A0510001F225006E000E23
:1052DC00F321016E000EF421026E000EF521036E17
:1052EC000201EE510026000E01220222032230514F
:1052FC000026000E01220222032200C03EF201C051
:10530C003FF202C040F203C041F200C0D2F301C030
:10531C00D3F302C0D4F303C0D5F3030E0301D66F4D
:10532C0045EC07F0030E0101506F0001DC6BD96BEB
:10533C00070E0101876F02019BA128D0000E901966
:10534C0002E1000E8F1922E00001F151000A1EE16A
:10535C00010EF16F2AEC08F000C081F0C30EF66E5E
:10536C00810EF76E000EF86EB80EE16E020EE26E54
:10537C00160E006E010E016E1EEC04F0B80ED26F0C
:10538C00020ED36F010ED46FF9EC07F00001F1514E
:10539C00010A5EE102019BB15BD0000E901902E1A3
:1053AC00000E8F1955E000018151F225006E000EA0
:1053BC00F321016E000EF421026E000EF521036E36
:1053CC0000C03EF201C03FF202C040F203C041F205
:1053DC0000C0D2F301C0D3F302C0D4F303C0D5F3A1
:1053EC00090E0301D66F45EC07F00001F16B3EC2CC
:1053FC00ABF53FC2ACF540C2ADF541C2AEF5310ED6
:10540C000501AF6F020EB06F26EC04F0D90EF66EEC
:10541C00810EF76E000EF86ECE0EE16E020EE26E8D
:10542C00100E006E010E016E1EEC04F0CE0E030188
:10543C00D26F020ED36F010ED46FF9EC07F0310E60
:10544C000301D26F020ED36F010ED46FF9EC07F08B
:02545C0012003C
:10545E00030E0201B86FB96BBA6BBB6BBC6B839E4C
:10546E000001B46B02019551020A04E1640E0101C0
:10547E00876F1B6A0201995103080101736F0201C4
:10548E009951000AD8B4F3D2090E0301D26FE7EC9A
:10549E0008F0838E010E0001B46F0101885318E0ED
:1054AE00010E0001F2250301D26F000E0001F3215F
:1054BE000301D36F000E0001F4210301D46F000E1F
:1054CE000001F5210301D56F0C0ED66F45EC07F0E8
:1054DE000201B8510001F225006E000EF321016E9B
:1054EE00000EF421026E000EF521036E00C03EF296
:1054FE0001C03FF202C040F203C041F200C0D2F33D
:10550E0001C0D3F302C0D4F303C0D5F3010E0301DF
:10551E00D66F45EC07F00101A151000A11E03EC221
:10552E00D2F33FC2D3F340C2D4F341C2D5F3070E38
:10553E000301D66F45EC07F0010E0001D76F0FD0B7
:10554E003EC2D2F33FC2D3F340C2D4F341C2D5F32D
:10555E00050E0301D66F45EC07F00001D76B010174
:10556E00A1510001F225006E000EF321016E000E16
:10557E00F421026E000EF521036E060E0026000EBB
:10558E000122022203220201B8510026000E01223E
:10559E000222032200C03EF201C03FF202C040F2DE
:1055AE0003C041F200C0D2F301C0D3F302C0D4F362
:1055BE0003C0D5F30A0E0301D66F45EC07F00101C7
:1055CE00A1510001F225006E000EF321016E000EB6
:1055DE00F421026E000EF521036E0201B851002671
:1055EE00000E01220222032200C03EF201C03FF251
:1055FE0002C040F203C041F200C0D2F301C0D3F3A7
:10560E0002C0D4F303C0D5F3050E0301D66F45ECEB
:10561E0007F002012F51000A2FE02E510001F22552
:10562E00006E000EF321016E000EF421026E000ECC
:10563E00F521036E02012F51005E000E015A025A2F
:10564E00035AB8510026000E01220222032200C086
:10565E003EF201C03FF202C040F203C041F200C070
:10566E00D2F301C0D3F302C0D4F303C0D5F3070EB7
:10567E000301D66F45EC07F002012E510001F22511
:10568E00006E000EF321016E000EF421026E000E6C
:10569E00F521036E0201B8510026000E01220222EE
:1056AE00032200C03EF201C03FF202C040F203C02E
:1056BE0041F200C0D2F301C0D3F302C0D4F303C051
:1056CE00D5F3030E0301D66F45EC07F002012E5100
:1056DE000001F2250201B96F000E0001F321020153
:1056EE00BA6F000E0001F4210201BB6F000E000123
:1056FE00F5210201BC6FB851B927000EBA23BB23A6
:10570E00BC239351000AD8B47FD101017351020A10
:10571E00D8A47AD1020130510001F225006E000E9C
:10572E00F321016E000EF421026E000EF521036EC0
:10573E000201B8510026000E01220222032200C0EF
:10574E003EF201C03FF202C040F203C041F200C07F
:10575E00D2F301C0D3F302C0D4F303C0D5F3020ECB
:10576E000301D66F45EC07F00101A151000A2EE0AE
:10577E00020130510001F225006E000EF321016E80
:10578E00000EF421026E000EF521036E0201B851D7
:10579E000026000E01220222032200C03EF201C0AA
:1057AE003FF202C040F203C041F200C0D2F301C08A
:1057BE00D3F302C0D4F303C0D5F3080E0301D66FA2
:1057CE0045EC07F0010E0101866F2CD0020130511D
:1057DE000001F225006E000EF321016E000EF42181
:1057EE00026E000EF521036E0201B8510026000E66
:1057FE0001220222032200C03EF201C03FF202C08B
:10580E0040F203C041F200C0D2F301C0D3F302C094
:10581E00D4F303C0D5F3060E0301D66F45EC07F0A3
:10582E000101866B020130510001F225006E000E5F
:10583E00F321016E000EF421026E000EF521036EAF
:10584E000101A1510026000E012202220322060EA2
:10585E000026000E0122022203220201B851002668
:10586E00000E01220222032200C03EF201C03FF2CE
:10587E0002C040F203C041F200C0D2F301C0D3F324
:10588E0002C0D4F303C0D5F30B0E0301D66F45EC63
:10589E0007F0020130510001F225006E000EF321D7
:1058AE00016E000EF421026E000EF521036E010151
:1058BE00A1510026000E0122022203220201B8513C
:1058CE000026000E01220222032200C03EF201C079
:1058DE003FF202C040F203C041F200C0D2F301C059
:1058EE00D3F302C0D4F303C0D5F3060E0301D66F73
:1058FE0045EC07F002012F51000A35E0305100014E
:10590E00F225006E000EF321016E000EF421026EE0
:10591E00000EF521036E020193510026000E0122A6
:10592E00022203222F51005E000E015A025A035A20
:10593E00B8510026000E01220222032200C03EF2C0
:10594E0001C03FF202C040F203C041F200C0D2F3E8
:10595E0001C0D3F302C0D4F303C0D5F3080E030184
:10596E00D66F45EC07F0020193510001F225006E4F
:10597E00000EF321016E000EF421026E000EF521D1
:10598E00036E020130510026000E01220222032274
:10599E00B8510026000E01220222032200C03EF260
:1059AE0001C03FF202C040F203C041F200C0D2F388
:1059BE0001C0D3F302C0D4F303C0D5F3040E030128
:1059CE00D66F45EC07F0020193510001F22502015A
:1059DE00B96F000E0001F3210201BA6F000E000133
:1059EE00F4210201BB6F000E0001F5210201BC6F14
:1059FE003051B927000EBA23BB23BC23B851B927A7
:105A0E00000EBA23BB23BC230201000E901902E143
:105A1E00000E8F1921E08F51B925006E9051BA21D9
:105A2E00016E000EBB21026E000EBC21036E00C083
:105A3E003EF201C03FF202C040F203C041F200C08C
:105A4E00D2F301C0D3F302C0D4F303C0D5F3090ED1
