:0400000032EF3AF0B1
:1000080000C019F001C018F004C017F008C016F0BD
:100018000CC015F0F2A433D00301E92B8088010E3F
:100028000501266F190E0301E75D03E3E76BE86B33
:1000380001D0E72B190E0801BD5D04E3BD6B030178
:10004800EB6B02D00801BD2B190E0301E95D12E329
:10005800E96B010E0701E927000EEA23EB23EC23E5
:1000680008014B53010ED8A4000E4B6F8098010E67
:100078000501446FF30ED76ECA0ED66EF294F0A047
:1000880017D00301E851000A03E1E82BE76B01D020
:10009800E82B050EE85D0BE3130EE75D07E3E75178
:1000A800150804E3010EEC6FE86B01D0E86BF090E3
:1000B800F0A21DD00301EB51000A04E1EB2B08016B
:1000C800BD6B02D00301EB2B0301050EEB5D0EE3C4
:1000D800130E0801BD5D08E3BD51150805E3010EC7
:1000E8000301ED6FEB6B02D00301EB6BF092F2A210
:1000F80035D00301EA2BEA51FF0A02E1020EEA6F4A
:10010800030E046EEAC300F06BD808C000F000507C
:10011800010A12E108015E5306E00601B05302E04D
:10012800818601D0819608015D5306E00601AF5330
:1001380002E0818801D08198030E046EEAC300F0C2
:100148004FD808C000F00050000A07E108015E53CC
:10015800D8A481865D53D8A48188F29219C000F092
:1001680018C001F017C004F016C008F015C00CF054
:02017800110074
:10017A00F9C9C9FFC7B002D00000FCD7C9CF00F047
:02018A00120061
:0E018C00ACB202D00000FCD7F9C9ADFF1200E2
:10019A00086A096A100E0C6E0134083609360450D2
:1001AA00085E0550D8A0053C095ED8B007D00450B7
:1001BA0008260550D8B0053C0926D89000360136E5
:0601CA000C2EEAD7120022
:1001D000F250026EF29E0500FF6A0150FE6E005062
:0801E000FD6E02BEF28E12005A
:1001E800086A080E0C6E003408360450085ED8B051
:0E01F80002D00826D89000360C2EF5D7120043
:100206000901F66B050EF65D0AE2F651F425E16E7C
:10021600000EF521E26E200EE66EF62BF3D7F651B0
:10022600F425E16E000EF521E26EE66AF607F65158
:10023600F425F76F000EF521F86F0A0E046E000E16
:10024600056EF2C900F0F3C901F0A4DF08C000F0A2
:1002560009C001F0300E0026F7C9E1FFF8C9E2FF38
:1002660000C0E6FF0A0E046E000E056EF2C900F02D
:10027600F3C901F08FDF00C0F2F901C0F3F9000EF7
:10028600011802E1000E001801E102D0F607CFD7EF
:02029600120054
:10029800C8C8E1FFC9C8E2FFF2C9E6FFC6C800F056
:0802A800C7C801F091DF12004C
:1002B000F4C904F0F5C905F0F2C902F0F3C903F07E
:1002C000F6C900F0F7C901F0010E0901F65F000E52
:1002D000F75B005001100FE004C0E9FF05C0EAFF22
:1002E00002C0E1FF03C0E2FFEECFE6FF024A032AAD
:1002F000044A052AE5D7F2C900F0F3C901F012005B
:100300000B6A0A6A096A086A0E6A033408360450DE
:10031000085E0550D8A0053C095E0650D8A0063CF2
:100320000A5E0750D8A0073C0B5EE86AD8A0010E11
:100330000E5E0336070E0C6E0334083609360A3695
:100340000B360E36045003A012D0085E0550D8A01C
:10035000053C095E0650D8A0063C0A5E0750D8A0AE
:10036000073C0B5EE86AD8A0010E0E5E11D008268D
:100370000550D8B0053C09260650D8B0063C0A26E0
:100380000750D8B0073C0B26E86AD8B0010E0E26FD
:1003900003360C2ED1D70234083609360A360B360E
:1003A0000E36045003A012D0085E0550D8A0053CBC
:1003B000095E0650D8A0063C0A5E0750D8A0073C4C
:1003C0000B5EE86AD8A0010E0E5E11D0082605501B
:1003D000D8B0053C09260650D8B0063C0A2607507E
:1003E000D8B0073C0B26E86AD8B0010E0E260236BC
:1003F000070E0C6E0234083609360A360B360E36F6
:10040000045002A012D0085E0550D8A0053C095E39
:100410000650D8A0063C0A5E0750D8A0073C0B5EE9
:10042000E86AD8A0010E0E5E11D008260550D8B09B
:10043000053C09260650D8B0063C0A260750D8B01D
:10044000073C0B26E86AD8B0010E0E2602360C2EA9
:10045000D1D70134083609360A360B360E36045029
:1004600002A012D0085E0550D8A0053C095E0650D7
:10047000D8A0063C0A5E0750D8A0073C0B5EE86A8D
:10048000D8A0010E0E5E11D008260550D8B0053C4C
:1004900009260650D8B0063C0A260750D8B0073CBB
:1004A0000B26E86AD8B0010E0E260136070E0C6E38
:1004B0000134083609360A360B360E36045001A0D0
:1004C00012D0085E0550D8A0053C095E0650D8A0A1
:1004D000063C0A5E0750D8A0073C0B5EE86AD8A02D
:1004E000010E0E5E11D008260550D8B0053C092635
:1004F0000650D8B0063C0A260750D8B0073C0B2659
:10050000E86AD8B0010E0E2601360C2ED1D7003481
:10051000083609360A360B360E36045001A012D0C2
:10052000085E0550D8A0053C095E0650D8A0063CE0
:100530000A5E0750D8A0073C0B5EE86AD8A0010EFF
:100540000E5E11D008260550D8B0053C092606508D
:10055000D8B0063C0A260750D8B0073C0B26E86AFC
:10056000D8B0010E0E260036070E0C6E0034083689
:1005700009360A360B360E36045000A012D0085E3B
:100580000550D8A0053C095E0650D8A0063C0A5E7E
:100590000750D8A0073C0B5EE86AD8A0010E0E5E9B
:1005A00011D008260550D8B0053C09260650D8B011
:1005B000063C0A260750D8B0073C0B26E86AD8B09C
:1005C000010E0E2600360C2ED1D700B00ED00450EE
:1005D00008260550D8B0053C09260650D8B0063C80
:0C05E0000A260750D8B0073C0B2612007A
:1005EC000901F56B030EF55D0AE2F551F325E16E99
:1005FC00000EF421E26E200EE66EF52BF3D7F551CA
:10060C00F325E16E000EF421E26EE66AF507F55172
:10061C00F325F66F000EF421F76F0A0E046EF2C983
:10062C0000F0DCDD08C000F0300E0026F6C9E1FF5A
:10063C00F7C9E2FF00C0E6FF0A0E046EF2C900F033
:10064C00CDDD00C0F2F90050000A01E102D0F5073F
:04065C00DED71200D3
:10066000A6A202D00000FCD7A69CF3C9AAFFF2C93B
:10067000A9FFF4C9A8FFA69EA684F2CF00F0F29EBF
:10068000550EA76EAA0EA76EA68200BE02D0F29EDD
:0806900001D0F28EA6941200C5
:100698004FD00901206B216B7CD0E00E206F010E3A
:1006A800216F77D0EA0E206F010E216F72D0F40E01
:1006B800206F010E216F6DD0120E206F020E216F78
:1006C80068D0260E206F020E216F63D03A0E206F7D
:1006D800020E216F5ED0580E206F020E216F59D086
:1006E800760E206F020E216F54D08A0E206F020EF4
:1006F800216F4FD09E0E206F020E216F4AD0BC0E84
:10070800206F020E216F45D0EE0E206F020E216F72
:1007180040D0200E206F030E216F3BD0520E206F69
:10072800030E216F36D0840E206F030E216F31D057
:100738000901F251000AADE0F251010AAEE0F251AE
:10074800020AB0E0F251030AB2E0F251040AB4E03E
:10075800F251050AB6E0F251060AB8E0F251070A6A
:10076800BAE0F251080ABCE0F251090ABEE0F251BF
:100778000A0AC0E0F2510B0AC2E0F2510C0AC4E0C6
:10078800F2510D0AC6E0F2510E0AC8E0F2510F0A02
:10079800CAE037D0640E226F000E236F53D0F40ED8
:1007A800226F010E236F4ED0E80E226F030E236FC7
:1007B80049D0DC0E226F050E236F44D0D00E226F75
:1007C800070E236F3FD0C40E226F090E236F3AD055
:1007D800B80E226F0B0E236F35D0AC0E226F0D0EA4
:1007E800236F30D0A00E226F0F0E236F2BD0940EE4
:1007F800226F110E236F26D0880E226F130E236FDF
:1008080021D0F351000AC6E0F351010AC8E0F351C0
:10081800020ACAE0F351030ACCE0F351040ACEE01D
:10082800F351050AD0E0F351060AD2E0F351070A62
:10083800D4E0F351080AD6E0F351090AD8E0F3519D
:100848000A0ADAE04ED0186B196B7BD0E00E186FED
:10085800010E196F76D0EA0E186F010E196F71D05C
:10086800F40E186F010E196F6CD0120E186F020E6D
:10087800196F67D0260E186F020E196F62D03A0EE4
:10088800186F020E196F5DD0580E186F020E196F8F
:1008980058D0760E186F020E196F53D08A0E186F43
:1008A800020E196F4ED09E0E186F020E196F49D0A6
:1008B800BC0E186F020E196F44D0EE0E186F020EA0
:1008C800196F3FD0200E186F030E196F3AD0520ED1
:1008D800186F030E196F35D0840E186F030E196F39
:1008E80030D0F451000AAFE0F451010AAFE0F451FE
:1008F800020AB1E0F451030AB3E0F451040AB5E086
:10090800F451050AB7E0F451060AB9E0F451070AB0
:10091800BBE0F451080ABDE0F451090ABFE0F45104
:100928000A0AC1E0F4510B0AC3E0F4510C0AC5E00D
:10093800F4510D0AC7E0F4510E0AC9E0F4510F0A48
:10094800CBE037D0640E166F000E176F53D0F40E3D
:10095800166F010E176F4ED0E80E166F030E176F45
:1009680049D0DC0E166F050E176F44D0D00E166FE7
:10097800070E176F3FD0C40E166F090E176F3AD0C7
:10098800B80E166F0B0E176F35D0AC0E166F0D0E16
:10099800176F30D0A00E166F0F0E176F2BD0940E56
:1009A800166F110E176F26D0880E166F130E176F5D
:1009B80021D0F551000AC6E0F551010AC8E0F55109
:1009C800020ACAE0F551030ACCE0F551040ACEE068
:1009D800F551050AD0E0F551060AD2E0F551070AAB
:1009E800D4E0F551080AD6E0F551090AD8E0F551E6
:0609F8000A0ADAE0120019
:1009FE000901EF6B0A0EEF5D0AE2EF51ED25E16E94
:100A0E00000EEE21E26E300EE66EEF2BF3D7EF51B5
:100A1E00ED25E16E000EEE21E26EE66AEF07000EA6
:100A2E00006EEC1908E10050EB1905E10050EA19CF
:100A3E0002E1E951000A3EE0EF51ED25F06F000EA4
:100A4E00EE21F16F0A0E046E000E056E066E076E35
:100A5E00E9C900F0EAC901F0EBC902F0ECC903F0F4
:100A6E0048DC08C000F009C001F00AC002F00BC05B
:100A7E0003F0300E0026F0C9E1FFF1C9E2FF00C01D
:100A8E00E6FFEF070A0E046E000E056E066E076E89
:100A9E00E9C900F0EAC901F0EBC902F0ECC903F0B4
:100AAE0028DC00C0E9F901C0EAF902C0EBF903C085
:060ABE00ECF9B5D71200AF
:100AC4000B6A0A6A096A00500402F4CF09F0F3CFF2
:100AD40008F001500502F4CF0BF0F3CF0AF00050F8
:100AE4000502F3500926F4500A22E86A0B22015049
:100AF4000402F3500926F4500A22E86A0B2208C0C3
:100B040000F009C001F00AC002F00BC003F01200AB
:100B1400E9C9F2F90901F233F29FEAC9F3F9EBC921
:100B2400F4F962DD010EE915016E0150010A11E1CB
:100B3400030EEA25F26F000EEB21F36F120EF46F31
:100B4400020EF56F040EF66F000EF76F58EC01F00D
:100B540010D0030EEA25F26F000EEB21F36FB20EF4
:100B6400F46F000EF56F040EF66F000EF76F58EC7D
:040B740001F012007A
:0A0B7800490E0D6E0D2EFED712007F
:100B82000901EC6BE9C9E9FFEAC9EAFFEECFEBF92B
:100B9200EB51000A0FE0EBC9F2F94CEC01F009014C
:100BA200EC2BEC51E925E96E000EEA21EA6EEECF5C
:060BB200EBF9EED7120082
:100BB800010E0901F26F000EF36F15C9F4F94CDD4F
:100BC800020E0901F26F000EF36F1CC9F4F944DD3F
:100BD800030E0901F26F000EF36F1BC9F4F93CDD37
:100BE800040E0901F26F000EF36F1AC9F4F934DD2F
:100BF800050E0901F26F000EF36F14C9F4F92CDD2C
:100C0800060E0901F26F000EF36F10C9F4F924DD26
:100C1800070E0901F26F000EF36F00C9F4F91CDD2D
:100C2800080E0901F26F000EF36FFFC8F4F914DD26
:100C3800090E0901F26F000EF36F13C9F4F90CDD08
:100C48000A0E0901F26F000EF36F12C9F4F904DD00
:100C58000B0E0901F26F000EF36F11C9F4F9FCDCF9
:100C68000C0E0901F26F000EF36FACC6F4F9F4DC58
:100C78000D0E0901F26F000EF36F24C9F4F9ECDCD4
:100C88000E0E0901F26F000EF36F27C9F4F9E4DCC8
:100C98000F0E0901F26F000EF36F26C9F4F9DCDCC0
:100CA800100E0901F26F000EF36F25C9F4F9D4DCB8
:100CB800110E0901F26F000EF36F1FC9F4F9CCDCB5
:100CC800120E0901F26F000EF36F1EC9F4F9C4DCAD
:100CD800130E0901F26F000EF36FADC6F4F9BCDC18
:100CE800140E0901F26F000EF36F1DC9F4F9B4DC9C
:100CF800ACC6F2F91EC9F3F9ADC6F4F91DC9F5F988
:040D0800C7DC120032
:100D0C00C7B409D01F0EC514016E0150000A03E1CF
:0A0D1C00010E006E01D0006A120003
:100D2600E9C9F2F9EAC9F3F90901F333F233F39F9A
:100D3600EBC9F4F9ECC9F5F903EC01F0010EE9157C
:100D4600016EEAC902F0000E0216000E021802E158
:100D5600010E011811E1050EEB25F26F000EEC21D4
:100D6600F36FB60EF46F000EF56F040EF66F000EFD
:100D7600F76F58EC01F010D0050EEB25F26F000E60
:100D8600EC21F36FA20EF46F000EF56F040EF66FF2
:0A0D9600000EF76F58EC01F0120098
:100DA0000901EC6BE9C9E9FFEAC9EAFFEECFEBF90B
:100DB000EB51000A0FE0EBC9F9F9C6EC00F00901AC
:100DC000EC2BEC51E925E96E000EEA21EA6EEECF3C
:060DD000EBF9EED7120062
:100DD600A69CEAC9AAFFE9C9A9FFA69EA680A8CF34
:040DE60000F0120007
:100DEA00DBC9F2F90901F233F29FDCC9F3F9DDC973
:100DFA00F4F9F6EC02F0030EDC25F26F000EDD21A9
:100E0A00F36F470EF46F080EF56F040EF66F000EBF
:080E1A00F76F58EC01F0120023
:100E2200010E0901DB25016E000EDC21026E01C0FC
:100E3200E9FF02C0EAFF0A0EEE24006E01C0E1FFE4
:100E420002C0E2FF00C0E6FF030EDB25016E000ECA
:100E5200DC21026E01C0E9FF02C0EAFF0A0EEE24A5
:100E6200006E01C0E1FF02C0E2FF00C0E6FFDBC985
:100E7200E9FFDCC9EAFFEECF00F0DBC9E1FFDCC924
:100E8200E2FF0A0E0024E66E020EDB25016E000E62
:100E9200DC21026E01C0E9FF02C0EAFF0A0EEE2465
:100EA200006E01C0E1FF02C0E2FF00C0E6FF040ED7
:100EB200DB25E16E000EDC21E26E040EE66E060E0C
:100EC200DB25E16E000EDC21E26E040EE66E080EFA
:100ED200DB25E16E000EDC21E26E040EE66E0A0EE8
:100EE200DB25E16E000EDC21E26E040EE66E050EDD
:100EF200DB25E16E000EDC21E26E0A0EE66E090EC3
:100F0200DB25E16E000EDC21E26E0A0EE66E070EB4
:100F1200DB25E16E000EDC21E26E0A0EE66E0B0EA0
:100F2200DB25E16E000EDC21E26E0A0EE66E120097
:100F32000901E06B140EE05D6DE2070E006E000E1B
:100F4200016EE0C904F0000E056EBBDD380E00260E
:100F5200090E0122050E0024E96E000E0120EA6E40
:100F6200EE50010A55E1070E006E000E016EE0C957
:100F720004F0000E056EA5DD380E0024E16E090EA8
:100F82000120E26EDFC9E6FF070E006E000E016E61
:100F9200E0C904F0000E056E94DD380E0026090E3D
:100FA2000122010E0024E16E000E0120E26EDBC977
:100FB200E6FFDCC9E6FFDDC9E6FFDEC9E6FF070E94
:100FC200006E000E016EE0C904F0000E056E79DDC0
:100FD200380E0026090E0122050E0024E16E000ED5
:100FE2000120E26EE66A070E006E000E016EE0C995
:100FF20004F0000E056E65DD380E0026090E012292
:10100200060E0024E16E000E0120E26EE66A02D0B6
:06101200E02B90D7120054
:10101800010E0901DB25E96E000EDC21EA6EEECF38
:1010280015F9DBC9E9FFDCC9EAFFEECF1BF9DD5191
:10103800020AD8A485D0030EDB25E96E000EDC2158
:10104800EA6EEECF1CF9020EDB25E96E000EDC21FC
:10105800EA6EEECF1AF9040EDB25E96E000EDC21EC
:10106800EA6E080EDB25D96E000EDC21DA6EDE5042
:10107800EE24036E046A000E042203C000F004C0CC
:1010880001F001320032019E01BC018E00C010F94E
:10109800050EDB25E96E000EDC21EA6E090EDB2564
:1010A800D96E000EDC21DA6EDE50EE24036E046A7F
:1010B800000E042203C000F004C001F00132003227
:1010C800019E01BC018E00C000F9060EDB25E96E09
:1010D800000EDC21EA6E0A0EDB25D96E000EDC213B
:1010E800DA6EDE50EE24036E046A000E042203C09A
:1010F80000F004C001F001320032019E01BC018EF3
:1011080000C0FFF8070EDB25E96E000EDC21EA6E51
:101118000B0EDB25D96E000EDC21DA6EDE50EE24D4
:10112800036E046A000E042203C000F004C001F03C
:1011380001320032019E01BC018E00C013F922D099
:101148001C6B1A6B040EDB25E96E000EDC21EA6EBF
:10115800EECF10F9050EDB25E96E000EDC21EA6EF4
:10116800EECF00F9060EDB25E96E000EDC21EA6EF3
:10117800EECFFFF8070EDB25E96E000EDC21EA6EE4
:08118800EECF13F915DD120092
:1011900009010851DB1904E1086B010E006E0FD044
:1011A0000951DB1904E1096B010E006E08D00A51E8
:1011B000DB1904E10A6B010E006E01D0006A120017
:1011C0000901DB6B140EDB5D48E2070E006E000EBA
:1011D000016EDBC904F0000E056E74DC380E0026CB
:1011E000090E0122050E0024E96E000E0120EA6EB0
:1011F000EE50000A30E1070E006E000E016EDBC9F2
:1012000004F0000E056E5EDC380E0024E96E090E57
:101210000120EA6EEECF01F00150090A1CE1070E31
:10122000006E000E016EDBC904F0000E056E4ADC94
:10123000380E0026090E0122010E0024E96E000E70
:101240000120EA6EEECFDCF9EECFDDF9EECFDEF96C
:10125000EECFDFF902D0DB2BB5D7140EDB5D02E356
:10126000DB6B05D00701E9510901DC5DDB6FDBC9F0
:0412700000F0120078
:101274000901DB6BDC6BDC51120802E1DB518E08E7
:1012840008E342DD005201E004D00901DB4BDC2B12
:10129400F2D70901120EDC5D02E18F0EDB5D03E380
:1012A4007B0E006E05D0C580C5A001D0FDD7006AB5
:0212B400120026
:1012B6000901DD5318E0E9C7E9F9EAC7EAF9EBC71E
:1012C600EBF9ECC7ECF9DE0EED6F090EEE6FFFECF5
:1012D60004F0DE0EE96F090EEA6F50DC450EE96F89
:1012E600070EEA6F5ADDDBC9E9F9DCC9EAF955DD13
:1012F6000D0EF96FC6EC00F00A0E0901F96FC6EC87
:0413060000F01200E1
:10130A00C26A070EC012C08EDBC900F00036009018
:10131A00003600900050C212C28029DCC282C2A2EA
:10132A0001D0FDD7C4CF01F0006AC3500012000EED
:06133A000112C290120036
:101340000901DC6B140EDC5D44E2070E006E000E3A
:10135000016EDCC904F0000E056E62EC05F0380E7B
:101360000026090E0122050E0024E96E000E012060
:10137000EA6EEE50000A2BE1070E006E000E016EC1
:10138000DCC904F0000E056E62EC05F0380E002496
:10139000E96E090E0120EA6EEECF01F00150DB1973
:1013A00016E0070E006E000E016EDCC904F0000EA0
:1013B000056E62EC05F0380E0026090E0122050EBE
:1013C0000024E16E000E0120E26E010EE66EDC2BC1
:0413D000B9D7120077
:1013D4000901DB6B140EDB5D53E2070E006E000E99
:1013E400016EDBC904F0000E056E62EC05F0380EE8
:1013F4000026090E0122050E0024E96E000E0120CC
:10140400EA6EEE50000A3AE1070E006E000E016E1D
:10141400DBC904F0000E056E62EC05F0380E002402
:10142400E96E090E0120EA6EEECF01F00150090ABF
:1014340025E1070E006E000E016EDBC904F0000EFC
:10144400056E62EC05F0380E0026090E0122010E2D
:101454000024E96E000E0120EA6EEECFDCF9EECF37
:10146400DDF9EECFDEF9EECFDFF9050E0024E16EF3
:10147400000E0120E26E010EE66E02D0DB2BAAD72D
:101484000701E9510901DC5D016E01C0DBF9140EAD
:0C149400015CD8B0DB6BDBC900F012007B
:1014A0000901DB51010A05E10701486B496B09019C
:1014B0000C91DB51020A05E107014A6B4B6B0901F4
:0414C0000C93120077
:1014C400140E0901156F140E1B6F140E1C6F140EED
:1014D4001A6F070E0601AC6F020E09011E6F070E8C
:1014E4000601AD6F020E09011D6F070EF26F020EA9
:1014F400F36F070EF46F020EF56F4CEC03F00A0E57
:10150400006F040E106F0A0E136F040E0801FF6FB4
:101514000C0E0901146F116B126B276B266B256B74
:0C152400246B010E1F6FDCEC05F01200C0
:101530000901DB51010A03E108015E6B8196090193
:0E154000DB51020A03E108015D6B8198120085
:10154E00010E0901E96F000EEA6F3EDC00C015F9CD
:10155E00020EE96F000EEA6F37DC00C01CF9030EB5
:10156E00E96F000EEA6F30DC00C01BF9040EE96F64
:10157E00000EEA6F29DC00C01AF9050EE96F000EA5
:10158E00EA6F22DC00C014F9060EE96F000EEA6F56
:10159E001BDC00C010F9070EE96F000EEA6F14DCB9
:1015AE0000C000F9080EE96F000EEA6F0DDC00C0F6
:1015BE00FFF8090EE96F000EEA6F06DC00C013F9A2
:1015CE000A0EE96F000EEA6FEBEC06F000C011F99F
:1015DE00000E126F11C912F9116B0B0EE96F000E8E
:1015EE00EA6FEBEC06F000501113000E12130C0E06
:1015FE00E96F000EEA6FEBEC06F000C0ACF60D0ED4
:10160E00E96F000EEA6FEBEC06F000C024F90E0E47
:10161E00E96F000EEA6FEBEC06F000C027F90F0E33
:10162E00E96F000EEA6FEBEC06F000C026F9100E23
:10163E00E96F000EEA6FEBEC06F000C025F9110E13
:10164E00E96F000EEA6FEBEC06F000C01FF9120E08
:10165E00E96F000EEA6FEBEC06F000C01EF9130EF8
:10166E00E96F000EEA6FEBEC06F000C0ADF6140E5B
:10167E00E96F000EEA6FEBEC06F000C01DF9ACC688
:10168E00F2F91EC9F3F9ADC6F4F900C0F5F94CEC48
:04169E0003F0120043
:1016A200020E0501B66FFA0E0901F26F050EF36F15
:1016B200220EF46F070EF56F100EF66F000EF76F25
:1016C20058EC01F007013351000A38E1C80E090154
:1016D200F26F050EF36F340EF46F070EF56F100EF6
:1016E200F66F000EF76F58EC01F0010E0501E86F7E
:1016F20007017F51000A0FE1FA0E0901F26F050E90
:10170200F36F800EF46F070EF56F100EF66F000E7A
:10171200F76F58EC01F007017F51010A0FE1FA0E51
:101722000901F26F050EF36F910EF46F070EF56F5C
:10173200100EF66F000EF76F58EC01F007013351EF
:10174200010A1BE1C80E0901F26F050EF36F4C0E80
:10175200F46F070EF56F100EF66F000EF76F58EC70
:1017620001F0010E0501E86F15C9E9F9000E090142
:10177200EA6F060EEB6F8AEC05F007013351020A9D
:101782001BE1C80E0901F26F050EF36F5D0EF46FD7
:10179200070EF56F100EF66F000EF76F58EC01F0A2
:1017A200010E0501E86F1CC9E9F9000E0901EA6F93
:1017B200060EEB6F8AEC05F007013351030A1BE1B9
:1017C200C80E0901F26F050EF36F6E0EF46F070E6D
:1017D200F56F100EF66F000EF76F58EC01F0010E68
:1017E2000501E86F1BC9E9F9000E0901EA6F060E4F
:1017F200EB6F8AEC05F007013351040A1BE1C80EB6
:101802000901F26F050EF36FE40EF46F060EF56F29
:10181200100EF66F000EF76F58EC01F0010E050185
:10182200E86F1AC9E9F9000E0901EA6F060EEB6FBB
:101832008AEC05F007013351050A1BE1C80E0901C4
:10184200F26F050EF36F4C0EF46F080EF56F100E6B
:10185200F66F000EF76F58EC01F0010E0501E86F0C
:1018620010C9E9F9000E0901EA6F060EEB6F8AEC66
:1018720005F007013351060A1BE1C80E0901F26F98
:10188200050EF36F860EF46F080EF56F100EF66FED
:10189200000EF76F58EC01F0010E0501E86F00C968
:1018A200E9F9000E0901EA6F060EEB6F8AEC05F00A
:1018B20007013351070A1BE1C80E0901F26F050E39
:1018C200F36F970EF46F080EF56F100EF66F000EA1
:1018D200F76F58EC01F0010E0501E86FFFC8E9F956
:1018E200000E0901EA6F060EEB6F8AEC05F00701A4
:1018F2003351080A1BE1C80E0901F26F050EF36F9E
:101902009B0EF46F020EF56F100EF66F000EF76F5E
:1019120058EC01F0010E0501E86F13C9E9F9000E58
:101922000901EA6F060EEB6F8AEC05F007013351ED
:10193200090A3EE1C80E0901F26F050EF36FAC0E03
:10194200F46F020EF56F100EF66F000EF76F58EC83
:1019520001F0010E0501E86FACC6F2F9FD0E0901B6
:10196200F36F050EF46FF6EC02F00601AC510708B6
:1019720010E2010E0901F26F060EF36F8D0EF46F85
:10198200020EF56F060EF66F000EF76F58EC01F0BF
:101992000FD00901010EF26F060EF36F940EF46F71
:1019A200020EF56F060EF66F000EF76F58EC01F09F
:1019B200070133510A0A3EE1C80E0901F26F050E12
:1019C200F36FD50EF46F020EF56F100EF66F000E68
:1019D200F76F58EC01F0010E0501E86FADC6F2F9A0
:1019E200FD0E0901F36F050EF46FF6EC02F006012D
:1019F200AD51070810E2010E0901F26F060EF36FF6
:101A0200E60EF46F020EF56F060EF66F000EF76F1C
:101A120058EC01F00FD00901010EF26F060EF36FC0
:101A2200BD0EF46F020EF56F060EF66F000EF76F25
:101A320058EC01F0070133510B0A1BE1C80E0901F2
:101A4200F26F050EF36FC40EF46F020EF56F100EF7
:101A5200F66F000EF76F58EC01F0010E0501E86F0A
:101A62001EC9E9F9000E0901EA6F060EEB6F8AEC56
:101A720005F0070133510C0A1BE1C80E0901F26F90
:101A8200050EF36F380EF46F020EF56F100EF66F3F
:101A9200000EF76F58EC01F0010E0501E86F1DC949
:101AA200E9F9000E0901EA6F060EEB6F8AEC05F008
:101AB200070133510D0A1BE1C80E0901F26F050E31
:101AC200F36F490EF46F020EF56F100EF66F000EF3
:101AD200F76F58EC01F0010E0501E86F14C9E9F93E
:101AE200000E0901EA6F060EEB6F8AEC05F00701A2
:101AF20033510E0A1DE1C80E0901F26F050EF36F94
:101B0200160EF46F020EF56F100EF66F000EF76FE1
:101B120058EC01F0010E0501E86F11C9E9F912C98B
:101B2200EAF9FE0E0901EB6F050EEC6F93EC06F07D
:101B3200070133510F0A12E1C80E0901F26F050EB7
:101B4200F36F270EF46F020EF56F100EF66F000E94
:101B5200F76F58EC01F0010E0501E86F07013351F0
:101B6200100A33E1C80E0901F26F050EF36F740E0D
:101B7200F46F020EF56F100EF66F000EF76F58EC51
:101B820001F0010E0501E86F09012651000A0FE17B
:101B9200000EF26F060EF36F850EF46F020EF56FF4
:101BA200070EF66F000EF76F58EC01F00ED0000E24
:101BB200F26F060EF36F5A0EF46F020EF56F080EF7
:101BC200F66F000EF76F58EC01F007013351110A5E
:101BD20033E1C80E0901F26F050EF36F630EF46F65
:101BE200020EF56F100EF66F000EF76F58EC01F053
:101BF200010E0501E86F09012551000A0FE1000EEF
:101C0200F26F060EF36F9C0EF46F030EF56F070E64
:101C1200F66F000EF76F58EC01F00ED0000EF26F67
:101C2200060EF36FA40EF46F030EF56F080EF66F37
:101C3200000EF76F58EC01F007013351120A33E13D
:101C4200C80E0901F26F050EF36F830EF46F030ED7
:101C5200F56F100EF66F000EF76F58EC01F0010EE3
:101C62000501E86F09011F51000A0FE1000EF26F32
:101C7200060EF36F940EF46F030EF56F070EF66FF8
:101C8200000EF76F58EC01F00ED0000EF26F060E48
:101C9200F36FBE0EF46F030EF56F080EF66F000EB3
:101CA200F76F58EC01F007013351130A33E1C80E04
:101CB2000901F26F050EF36FC70EF46F030EF56F95
:101CC200100EF66F000EF76F58EC01F0010E0501D1
:101CD200E86F09012751000A0FE1000EF26F060EAC
:101CE200F36FAD0EF46F030EF56F070EF66F000E75
:101CF200F76F58EC01F00ED0000EF26F060EF36F84
:101D0200B50EF46F030EF56F080EF66F000EF76F47
:101D120058EC01F007013351140A1BE1C80E090106
:101D2200F26F050EF36FFF0EF46F020EF56F100ED9
:101D3200F66F000EF76F58EC01F0010E0501E86F27
:101D420024C9E9F9000E0901EA6F060EEB6F8AEC6D
:101D520005F007013351150A12E1C80E0901F26FAD
:101D6200050EF36F100EF46F030EF56F100EF66F83
:101D7200000EF76F58EC01F0010E0501E86F070144
:101D82003351160A12E1C80E0901F26F050EF36F04
:101D9200ED0EF46F020EF56F100EF66F000EF76F78
:101DA20058EC01F0010E0501E86F650E06010B6F9C
:021DB20012001D
:101DB4000901DB51010A17E1DCB102D0829201D0A2
:101DC4008282060E0B6E130E0C6EAD0E0D6E0D2E72
:101DD400FED70C2EFCD70B2EFAD700000000010E04
:101DE40008015E6F81860901DB51020A17E1DCB14B
:101DF40002D0829001D08280060E0B6E130E0C6E00
:101E0400AD0E0D6E0D2EFED70C2EFCD70B2EFAD771
:0E1E140000000000010E08015D6F81881200C1
:101E22000901DB51000A04E0DC51000A01E002D0A2
:101E3200F28801D0F298DBC9B0F6DCC9AFF6120025
:101E42009E96DBC9C9FFC7A401D0FDD79EB601D0BB
:101E5200FDD7C5BC02D0006A03D0C584020E006E55
:021E620012006C
:041E6400C58412001F
:101E680083A003D083A201D006D005018551C808FC
:101E780002E3852B02D00501856BC80E855D03E35F
:0A1E8800010E006E01D0006A120086
:101E92000901D46B83B806D005018351C80802E357
:101EA200832B02D00501836BC80E835D02E3090117
:101EB200D48183BA06D005018451C80802E3842B79
:101EC20002D00501846BC80E845D02E30901D4834C
:061ED200D4C900F012006B
:101ED8000901D56B83BA02D0D58101D0D59184B0E0
:101EE80002D0D58301D0D59383B802D0D58501D04F
:101EF800D595050E0501465D02E20901D56B09017C
:101F0800D551000A20E104010051000A09E1080145
:101F1800D06BCB6B0401006B0901D46B0801CA6B51
:101F280004010051010A0FE1050E0501455D0BE3AF
:101F38000801D06BCB6B0401006B0901D46B08015D
:101F4800CA6B0501466B0801D051010A0FE1040173
:101F580001510501435D0AE3010E0801CA6F05013D
:101F6800436B190E0801CB5DD8A0CB2B0901D551C5
:101F7800000A26E004010051010A22E10801D051BB
:101F8800000A1EE1020ECC25016E000ECD21026E64
:101F9800000ECE21036E000ECF21046E0701EC5116
:101FA800041808E1EB51031805E1EA51021802E1AF
:101FB800E951011805E1010E0801D06F0501436BD5
:101FC8000901D551000A0AE004010051010A06E19D
:101FD8000801D051000A02E10901D46B0901D55169
:101FE800000A0FE004010051010A0BE10801D05179
:101FF800010A07E10901D5510801CA03F3CFD4F951
:10200800CA6B0901D551000A12E004010051000A07
:102018000EE1D5C9D4F9010E006FE9C7CCF8EAC7BB
:10202800CDF8EBC7CEF8ECC7CFF80501456B090131
:10203800D451000A03E0010E0601E36FD4C900F091
:02204800120084
:10204A000901D86B050ED85D0AE2D851D625E16E92
:10205A00000ED721E26E300EE66ED82BF3D7D85198
:10206A00D625E16E000ED721E26EE66AD807000E89
:10207A00D51902E1000ED4192CE0D851D625D96F12
:10208A00000ED721DA6F0A0E046E000E056ED4C94F
:10209A0000F0D5C901F0CDEC00F008C000F009C08D
:1020AA0001F0300E0026D9C9E1FFDAC9E2FF00C00B
:1020BA00E6FFD8070A0E046E000E056ED4C900F0BA
:1020CA00D5C901F0CDEC00F000C0D4F901C0D5F9B2
:0420DA00CED712004B
:0A20DE00DCEC05F006010B6B1200AC
:1020E8000901D46BDB6B85EC09F000C0FDF801C079
:1020F800FEF8010E0901DB6F85EC09F000C005F957
:1021080001C006F905018751000A03E10701486B80
:10211800496B05019751000A03E107014A6B4B6BB4
:102128000601B051000A22E0090121510801FE5DB3
:1021380004E1090120510801FD5D0AE2FF0E0701D3
:10214800495D02E1FA0E485D02E2484B492B0DD089
:102158000701000E006E4951005C02E14851000879
:1021680004E2010E485F000E495B03D00701486B8B
:10217800496B49510901235D04E1070148510901EF
:10218800225DD8A0D4810601AF51000A1FE00901E1
:102198001951065D02E11851055D0AE2FF0E0701BB
:1021A8004B5D02E1FA0E4A5D02E24A4B4B2B0DD021
:1021B8000701000E006E4B51005C02E14A51000815
:1021C80004E2010E4A5F000E4B5B03D007014A6B25
:1021D8004B6B4B510901175D04E107014A51090195
:0C21E800165DD8A0D483D4C900F012000A
:1021F4000901D56BD66B3F0ED415026E02C0D4F91B
:10220400540ED56F02C000F00032009E0032009ED2
:102214000032009E0032009E540E0010D56F700EE6
:10222400D66F0F0E0214006E700E0010D66F3AECCB
:1022340009F07C0E0901DB6F02DE800E0901DB6F01
:10224400FEDDD5C9DBF9FBDD800E0901DB6FF7DDAF
:10225400D6C9DBF9F4DD04DE0D0E0C6EFB0E0D6E3B
:0E2264000D2EFED70C2EFCD70000000012003D
:102272003AEC09F07C0E0901DB6FE2DD800E090108
:10228200DB6FDEDD0901D451020A03E1380EDB6F98
:10229200D7DD0901D451010A03E1340EDB6FD0DD31
:1022A200800E0901DB6FCCDD0901D451020A03E182
:1022B200390EDB6FC5DD0901D451010A03E1350E88
:1022C200DB6FBEDD800E0901DB6FBADD1C0E09017A
:1022D200DB6FB6DD800E0901DB6FB2DD720E090124
:1022E200DB6FAEDD800E0901DB6FAADD550E090141
:1022F200DB6FA6DD800E0901DB6FA2DD6C0E09012A
:10230200DB6F9EDD800E0901DB6F9ADD0C0E090189
:10231200DB6F96DD800E0901DB6F92DD010E090194
:10232200DB6F8EDD800E0901DB6F8ADD060E09018F
:10233200DB6F86DD800E0901DB6F82DD020E090193
:08234200DB6F7EDD8EDD120071
:10234A00949894968B988B9694889486C79EC79CEB
:06235A00380EC66E1200F1
:102360000901D86BD96BD451010A03E1D551800F13
:10237000D96FD451020A03E1D551C00FD96F3AEC9D
:1023800009F07C0E0901DB6F5CDD800E0901DB6F5B
:1023900058DDD9C9DBF955DD400E0901DB6F51DD90
:1023A0000901D851D625E96E000ED721EA6EEE500C
:1023B0000A0A0FE0D85110080CE3D851D625E96E6F
:1023C000000ED721EA6EEECFDBF93BDD0901D82BF9
:1023D000E7D748DD0D0E0C6EFB0E0D6E0D2EFED7F1
:0A23E0000C2EFCD7000000001200D4
:1023EA00010E0201FE6F090107A323D00201FE6B51
:1023FA0008014B6B650E06010B6F51EC0BF00701E0
:10240A003351000A16E10901286B07017F51000ABE
:10241A0006E1C80E06010B6F010E0301826F070168
:10242A007F51010A06E1C90E06010B6F010E030175
:10243A00826F07013351000A18E1090107A109D087
:10244A0007017F51000805E27F0751EC0BF0660E89
:10245A000B6F090107A509D0010E07017F5D05E28F
:10246A007F2B51EC0BF0660E0B6F07013351010AFB
:10247A0016E1090107A108D01551000805E2150760
:10248A0051EC0BF0660E0B6F090107A508D0FF0E81
:10249A00155D05E2152B51EC0BF0660E0B6F07016B
:1024AA003351020A16E1090107A108D01C5100089C
:1024BA0005E21C0751EC0BF0660E0B6F090107A52C
:1024CA0008D0FF0E1C5D05E21C2B51EC0BF0660ECA
:1024DA000B6F07013351030A16E1090107A108D05E
:1024EA001B51000805E21B0751EC0BF0660E0B6F3F
:1024FA00090107A508D0FF0E1B5D05E21B2B51EC55
:10250A000BF0660E0B6F07013351040A16E109013D
:10251A0007A108D01A51000805E21A0751EC0BF07E
:10252A00660E0B6F090107A508D0FF0E1A5D05E2BA
:10253A001A2B51EC0BF0660E0B6F07013351050A8B
:10254A0016E1090107A108D01051000805E2100799
:10255A0051EC0BF0660E0B6F090107A508D0FF0EB0
:10256A00105D05E2102B51EC0BF0660E0B6F0701A4
:10257A003351060A16E1090107A108D000510008E3
:10258A0005E2000751EC0BF0660E0B6F090107A577
:10259A0008D0FF0E005D05E2002B51EC0BF0660E31
:1025AA000B6F07013351070A18E1090107A109D086
:1025BA000801FF51000805E2FF0751EC0BF0660E17
:1025CA000B6F090107A509D0FF0E0801FF5D05E29F
:1025DA00FF2B51EC0BF0660E0B6F07013351080A03
:1025EA0016E1090107A108D01351000805E21307F3
:1025FA0051EC0BF0660E0B6F090107A508D0FF0E10
:10260A00135D05E2132B51EC0BF0660E0B6F0701FD
:10261A003351090A18E1090107A109D00601AC5191
:10262A00000805E2AC0751EC0BF0660E0B6F0901CE
:10263A0007A509D00F0E0601AC5D05E2AC2B51ECE3
:10264A000BF0660E0B6F070133510A0A18E10901F4
:10265A0007A109D00601AD51000805E2AD0751EC0A
:10266A000BF0660E0B6F090107A509D00F0E0601C4
:10267A00AD5D05E2AD2B51EC0BF0660E0B6F070159
:10268A0033510B0A16E1090107A108D01E510008AF
:10269A0005E21E0751EC0BF0660E0B6F090107A548
:1026AA0008D00A0E1E5D05E21E2B51EC0BF0660ED9
:1026BA000B6F070133510C0A16E1090107A108D073
:1026CA001D51000805E21D0751EC0BF0660E0B6F59
:1026DA00090107A508D00A0E1D5D05E21D2B51EC64
:1026EA000BF0660E0B6F070133510D0A16E1090153
:1026FA0007A108D01451000805E2140751EC0BF0A9
:10270A00660E0B6F090107A508D0FF0E145D05E2DE
:10271A00142B51EC0BF0660E0B6F070133510E0AA6
:10272A0022E1090107A110D0000E006E1251005CCF
:10273A0002E11151000808E2010E115F000E125B5E
:10274A0051EC0BF0660E0B6F090107A50CD0FD0EBC
:10275A00125D02E1E80E115D06E2114B122B51ECFB
:10276A000BF0660E0B6F070133510F0A22E10601C7
:10277A000B6BC80E0901F26F050EF36FA80EF46F0A
:10278A00080EF56F100EF66F000EF76F58EC01F099
:10279A00010E0501B66F0201FE6B08014B6B010EBB
:1027AA000501E86F010E0301826F62EC0AF0DCECAE
:1027BA0005F007013351100A16E1090107A108D0F3
:1027CA002651000805E2260751EC0BF0660E0B6F46
:1027DA00090107A508D0010E265D05E2262B51EC5A
:1027EA000BF0660E0B6F07013351110A16E109014E
:1027FA0007A108D02551000805E2250751EC0BF086
:10280A00660E0B6F090107A508D0010E255D05E2CA
:10281A00252B51EC0BF0660E0B6F07013351120A90
:10282A0016E1090107A108D01F51000805E21F0798
:10283A0051EC0BF0660E0B6F090107A508D0010ECB
:10284A001F5D05E21F2B51EC0BF0660E0B6F0701A3
:10285A003351130A16E1090107A108D027510008CC
:10286A0005E2270751EC0BF0660E0B6F090107A56D
:10287A0008D0010E275D05E2272B51EC0BF0660EFE
:10288A000B6F07013351140A1FE1090107A10CD08C
:10289A002451000809E224072451090AD8B4246BF8
:1028AA0051EC0BF0660E0B6F090107A50DD0FF0E58
:1028BA00245D0AE2242B2451010A02E10A0E246F44
:1028CA0051EC0BF0660E0B6F07013351150A1CE130
:1028DA00670E06010B6FC80E0901F26F050EF36F42
:1028EA00A80EF46F080EF56F100EF66F000EF76F54
:1028FA0058EC01F00201FE6B010E0501B66F010EE4
:10290A00E86F010E0301826F07013351160A1DE1B8
:10291A0006010B6BC80E0901F26F050EF36FA80EC4
:10292A00F46F080EF56F100EF66F000EF76F58EC85
:10293A0001F00201FE6B010E0501B66F010EE86F90
:0C294A00A7EC0AF0010E0301826F1200DE
:1029560077D2838E09010BA107D0282B020E08011E
:10296600F86F010E0601E36F09010BA308D0030EF1
:10297600286F010E0801F86F010E0601E36FB9D248
:10298600020E0901DB6FDC6BDAEC0EF0040E0701B8
:10299600E9250901DB6F000E0701EA210901DC6F59
:1029A600000E0701EB210901DD6F000E0701EC2186
:1029B6000901DE6F150EDF6F99EC07F0282B050174
:1029C600976B97D209010CA30CD005019751010A08
:1029D60008E1976B020E0901DB6F98EC0AF009011A
:1029E600282B0901150EDB6FC8EC08F0005203E036
:1029F600010E0501976F7DD2010E0901DB6FDC6BBD
:102A0600DAEC0EF0040E0701E9250901DB6F000E72
:102A16000701EA210901DC6F000E0701EB2109011C
:102A2600DD6F000E0701EC210901DE6F140EDF6F6A
:102A360099EC07F0282B0501876B09010CA10CD036
:102A460005018751010A08E1876B010E0901DB6F59
:102A560098EC0AF00901282B0901140EDB6FC8EC6B
:102A660008F0005203E0010E0501876F42D209010A
:102A76000B51000A19E0E9C7EEF8EAC7EFF8EBC711
:102A8600F0F8ECC7F1F8010EDB6F010EDC6FDAEC43
:102A96000EF00901DB6BAFC6DCF911EC0FF0010E8D
:102AA6000501866F0901282B24D20B51000A11E07B
:102AB600282BE9C7F9F8EAC7FAF8EBC7FBF8ECC721
:102AC600FCF8010EDB6FAFC6DCF911EC0FF0050167
:102AD600866B0FD209010B51000A11E0282BE9C7BA
:102AE60001F9EAC702F9EBC703F9ECC704F9DB6B96
:102AF600AFC6DCF911EC0FF0010E0501866FF9D1B6
:102B060009010B51000A28E00801F851020A03E105
:102B16000901282B03D00901110E286FE9C7F4F823
:102B2600EAC7F5F8EBC7F6F8ECC7F7F8010EDB6F66
:102B360098EC0AF00801EE51F45D006E00C0E3F86F
:102B4600EE51F95D006E00C0E6F809010151080179
:102B5600F45D006E00C0E7F8CCD109010B51000A04
:102B660019E0E9C7EEF8EAC7EFF8EBC7F0F8ECC7EB
:102B7600F1F8020EDB6F010EDC6FDAEC0EF0B0C678
:102B8600DBF90901DC6B11EC0FF0010E06017E6F1B
:102B96000901282BAED10B51000A11E0282BE9C7F9
:102BA600F9F8EAC7FAF8EBC7FBF8ECC7FCF8B0C6C9
:102BB600DBF9010EDC6F11EC0FF006017E6B99D18B
:102BC60009010B51000A11E0282BE9C701F9EAC7F0
:102BD60002F9EBC703F9ECC704F9B0C6DBF9DC6B05
:102BE60011EC0FF0010E06017E6F83D109010B5126
:102BF600000A1FE0282BE9C7F4F8EAC7F5F8EBC787
:102C0600F6F8ECC7F7F8020EDB6F98EC0AF008014D
:102C1600EE51F45D006E00C0E5F8EE51F95D006E10
:102C260000C0EAF8090101510801F45D006E00C018
:102C3600EBF85FD109010B51000A18E0E9C7EEF87D
:102C4600EAC7EFF8EBC7F0F8ECC7F1F8020EDB6F56
:102C5600DC6BDAEC0EF0B0C6DBF90901DC6B11ECCB
:102C66000FF0010E06017E6F0901282B42D10B5190
:102C7600000A11E0282BE9C7F9F8EAC7FAF8EBC70A
:102C8600FBF8ECC7FCF8B0C6DBF9010EDC6F11EC03
:102C96000FF006017E6B2DD109010B51000A11E0E0
:102CA600282BE9C701F9EAC702F9EBC703F9ECC714
:102CB60004F9B0C6DBF9DC6B11EC0FF0010E06016E
:102CC6007E6F17D109010B51000A1FE0282BE9C7B7
:102CD600F4F8EAC7F5F8EBC7F6F8ECC7F7F8020E12
:102CE600DB6F98EC0AF00801EE51F45D006E00C04F
:102CF600E4F8EE51F95D006E00C0ECF809010151EF
:102D06000801F45D006E00C0EDF8F3D009010B5127
:102D1600000A18E0E9C7EEF8EAC7EFF8EBC7F0F8E3
:102D2600ECC7F1F8010EDB6FDC6BDAEC0EF0090193
:102D3600DB6BAFC6DCF911EC0FF0010E0501866FF7
:102D46000901282BD6D00B51000A11E0282BE9C720
:102D5600F9F8EAC7FAF8EBC7FBF8ECC7FCF8010E7E
:102D6600DB6FAFC6DCF911EC0FF00501866BC1D045
:102D760009010B51000A11E0282BE9C701F9EAC73E
:102D860002F9EBC703F9ECC704F9DB6BAFC6DCF954
:102D960011EC0FF0010E0501866FABD009010B5146
:102DA600000A1FE0282BE9C7F4F8EAC7F5F8EBC7D5
:102DB600F6F8ECC7F7F8010EDB6F98EC0AF008019D
:102DC600EE51F45D006E00C0E2F8EE51F95D006E62
:102DD60000C0E8F8090101510801F45D006E00C069
:102DE600E9F887D0E20E0901DB6F080EDC6FF8C840
:102DF600DDF90CEC08F0C80EF26F050EF36F020E4B
:102E0600F46F040EF56F100EF66F000EF76F58ECA8
:102E160001F0FA0EF26F050EF36FEE0EF46F030E6D
:102E2600F56F100EF66F000EF76F58EC01F0020EFC
:102E36000501B66F010EE86F839E06010B6B59D034
:102E460009012851000AD8B484D52851010AD8B4FA
:102E560097D52851020AD8B4B5D52851030AD8B453
:102E6600CBD52851040AD8B4E8D52851050AD8B4D8
:102E7600FED52851060AD8B418D62851070AD8B460
:102E860029D62851080AD8B43BD62851090AD8B4FD
:102E960064D628510A0AD8B47ED628510B0AD8B46B
:102EA6008FD628510C0AD8B4A1D628510D0AD8B409
:102EB600C1D628510E0AD8B4DAD628510F0AD8B48A
:102EC600EBD62851100AD8B4FDD62851110AD8B429
:102ED6001DD72851120AD8B436D72851130AD8B4A8
:102EE60047D72851140AD8B459D72851150AD8B447
:042EF60079D7120076
:102EFA008C0E0801C66F010EC76FF90EC86F090E56
:102F0A00C96FFF0EBE6FFF0EBF6F000EC06F000EBF
:102F1A00C16FFF0EC26FFF0EC36F000EC46F000EAB
:102F2A00C56FFF0EB86FFF0EB96F000EBA6F000EB5
:102F3A00BB6FAC8A900EAB6E948E949C9EAA03D003
:082F4A00AECF00F0FBD712002E
:102F52000901D46B0301ECB103D00901D49102D071
:102F62000901D4810301EDB103D00901D49302D048
:102F72000901D4830301EC6BED6B140E06010B5DAA
:102F82000FE20901D4B104D007B502D0D49101D027
:102F9200D481D4B304D007B102D0D49301D0D48366
:062FA200D4C900F012008A
:102FA800090107A302D00301812B03018151010A02
:102FB80020E1C80E0901F26F050EF36F410EF46FA0
:102FC800030EF56F100EF66F000EF76F58EC01F058
:102FD800FA0EF26F050EF36F510EF46F030EF56FD4
:102FE800100EF66F000EF76F58EC01F0010E050198
:102FF800E86F03018151020A20E1C80E0901F26F4E
:10300800050EF36F610EF46F030EF56F100EF66F79
:10301800000EF76F58EC01F0FA0EF26F050EF36F21
:10302800710EF46F030EF56F100EF66F000EF76F4A
:1030380058EC01F0010E0501E86F03018151030A04
:0A30480003E1640E06010B6F120095
:10305200838E010E0601AE6F010E0901DB6FC8EC13
:1030620008F0005232E0010EDB6F010EDC6FDAEC89
:103072000EF0D90E0901DB6F050EDC6F010EDD6F5C
:103082005BEC09F0839CC80E0901F26F050EF36F29
:10309200B70EF46F050EF56F100EF66F000EF76F98
:1030A20058EC01F0FA0EF26F050EF36FE90EF46FB1
:1030B200050EF56F100EF66F000EF76F58EC01F06B
:1030C200010E0501E86F010EB66F020E0901DB6FFA
:1030D200C8EC08F0005210E0020EDB6F010EDC6F4C
:1030E200DAEC0EF0880E0901DB6F050EDC6F010EC3
:1030F200DD6F5BEC09F0839C050E0901DB6FC8EC08
:1031020008F0005212E0010EDB6FAFC6DCF911ECE1
:103112000FF00501876B866BA70E0901DB6F050EA9
:10312200DC6F010EDD6F5BEC09F0070E0901DB6F4E
:10313200C8EC08F0005211E0DB6BAFC6DCF911EC11
:103142000FF0010E0501866F980E0901DB6F050E67
:10315200DC6F010EDD6F5BEC09F0060E0901DB6F1F
:10316200C8EC08F0005213E0B0C6DBF9010EDC6FC8
:1031720011EC0FF00501976B06017E6B6F0E0901D2
:10318200DB6F060EDC6F010EDD6F5BEC09F0080EE3
:103192000901DB6FC8EC08F0005211E0B0C6DBF9A0
:1031A200DC6B11EC0FF0010E06017E6F600E09015F
:1031B200DB6F060EDC6F010EDD6F5BEC09F00A0EB1
:1031C2000901DB6FC8EC08F0005210E0010E0501A6
:1031D200876F010E0901DB6F50EC0AF0960EDB6F70
:1031E200060EDC6F010EDD6F5BEC09F00B0E0901C0
:1031F200DB6FC8EC08F0005210E0010E0501976F7A
:10320200020E0901DB6F50EC0AF0800EDB6F060E36
:10321200DC6F010EDD6F5BEC09F0030E0901DB6F61
:10322200C8EC08F0005210E006017F91010E09017E
:10323200DB6F98EC0AF0510E0901DB6F060EDC6FB2
:10324200010EDD6F5BEC09F0040E0901DB6FC8ECC7
:1032520008F0005210E006017F93020E0901DB6FB5
:1032620098EC0AF00C0E0901DB6F060EDC6F010E02
:10327200DD6F5BEC09F00C0E0901DB6FC8EC08F0A6
:103282000052D8A4838C05018751010A46E1090145
:103292000CA143D005018651000A3FE1010E09014C
:1032A200DB6F98EC0AF0020E0901DB6F98EC0AF072
:1032B200050E06010B6F0501876B976B3D0E090129
:1032C200DB6F060EDC6F010EDD6F5BEC09F0090EA1
:1032D2000901DB6FA0EC09F0C80EF26F050EF36F67
:1032E2002C0EF46F060EF56F100EF66F000EF76FD0
:1032F20058EC01F0FA0EF26F050EF36F1B0EF46F2D
:10330200060EF56F100EF66F000EF76F58EC01F017
:10331200010E0501E86F020EB66F05019751010A11
:1033220046E109010CA343D006017E51000A3FE1A8
:10333200010E0901DB6F98EC0AF0020E0901DB6F46
:1033420098EC0AF0050E06010B6F0501876B976B6F
:10335200EF0E0901DB6F070EDC6F010EDD6F5BEC18
:1033620009F0090E0901DB6FA0EC09F0C80EF26F3B
:10337200050EF36F2C0EF46F060EF56F100EF66F3E
:10338200000EF76F58EC01F0FA0EF26F050EF36FB4
:103392001B0EF46F060EF56F100EF66F000EF76F30
:1033A20058EC01F0010E0501E86F020EB66F09013B
:1033B2001C51000A05E00701EE51010A01E002D0AA
:1033C20006017F93030E0701ED5DD8A0C9D0090164
:1033D2000DA140D026533EE0010EDB6F98EC0AF0BF
:1033E200020E0901DB6F98EC0AF00501876B976BFF
:1033F200050E06010B6F250E0901DB6F080EDC6F4F
:10340200010EDD6F5BEC09F0090E0901DB6FA0EC28
:1034120009F0C80EF26F050EF36F2C0EF46F060E54
:10342200F56F100EF66F000EF76F58EC01F0FA0E02
:10343200F26F050EF36F140EF46F080EF56F100E97
:10344200F66F000EF76F58EC01F0010E0501E86F00
:10345200020EB66F09010B51000A3EE0010EDB6F4E
:1034620098EC0AF0020E0901DB6F98EC0AF00501F4
:10347200876B976B050E06010B6F030E0901DB6F5D
:10348200080EDC6F010EDD6F5BEC09F0090E09011D
:10349200DB6FA0EC09F0C80EF26F050EF36F2C0E75
:1034A200F46F060EF56F100EF66F000EF76F58EC04
:1034B20001F0FA0EF26F050EF36FD60EF46F070EDF
:1034C200F56F100EF66F000EF76F58EC01F0010E5B
:1034D2000501E86F020EB66F09010E51010A40E1C3
:1034E20025533EE0010EDB6F98EC0AF0020E090153
:1034F200DB6F98EC0AF00501876B976B050E0601EE
:103502000B6FBF0E0901DB6F070EDC6F010EDD6F63
:103512005BEC09F0090E0901DB6FA0EC09F0C80EA3
:10352200F26F050EF36F2C0EF46F060EF56F100E90
:10353200F66F000EF76F58EC01F0FA0EF26F050EFF
:10354200F36FAE0EF46F070EF56F100EF66F000EEE
:10355200F76F58EC01F0010E0501E86F020EB66F2D
:1035620006017F51000AD8A48ED009011F5371E0D1
:10357200010EDB6FDC6BDAEC0EF0020E0901DB6F81
:10358200DC6BDAEC0EF0010E0901DB6FAFC6DCF981
:1035920011EC0FF00501876B866BB0C6DBF9010EEB
:1035A2000901DC6F11EC0FF00501976B06017E6BD0
:1035B200010E0701E9250901DB6F000E0701EA216F
:1035C2000901DC6F000E0701EB210901DD6F000E1E
:1035D2000701EC210901DE6F030EDF6F99EC07F0A2
:1035E200010E0701E9250901DB6F000E0701EA213F
:1035F2000901DC6F000E0701EB210901DD6F000EEE
:103602000701EC210901DE6F040EDF6F99EC07F070
:10361200010E0701E9250901DB6F000E0701EA210E
:103622000901DC6F000E0701EB210901DD6F000EBD
:103632000701EC210901DE6F010EDB27000EDC23FE
:10364200DD23DE230D0EDF6F99EC07F006017F8587
:103652001AD0010E0701E9250901DB6F000E0701EF
:10366200EA210901DC6F000E0701EB210901DD6F80
:10367200000E0701EC210901DE6F0D0EDF6F99ECE0
:1036820007F006017F850D0E0901DB6FC8EC08F01B
:1036920000522CE0020E06010B6F0701E86BE76B8C
:1036A200090E0901DB6FA0EC09F0C80EF26F050EDE
:1036B200F36F360EF46F080EF56F100EF66F000EF4
:1036C200F76F58EC01F0FA0EF26F050EF36FE90E88
:1036D200F46F050EF56F100EF66F000EF76F58ECD3
:1036E20001F0010E0501E86F020EB66F06010B51E3
:1036F200050A04E00B51060A01E043D00901DB6B25
:10370200A0EC09F0000E121902E1000E111939E0C5
:1037120011510701E9250901DB6F12510701EA2165
:103722000901DC6F000E0701EB210901DD6F000EBC
:103732000701EC210901DE6F090EDF6F99EC07F03A
:103742000801746B0701E86B5F0E0901DB6F080E5D
:10375200DC6F010EDD6F5BEC09F0FA0E0901F26F0E
:10376200050EF36F750EF46F080EF56F100EF66FFF
:10377200000EF76F58EC01F0010E0501E86F020E22
:04378200B66F12000C
:10378600EBD1838E09010BA108D0020E0801DD6F73
:103796000901282B010E0601E36F09010BA309D0CD
:1037A600010E0801DD6F030E0901286F010E0601E7
:1037B600E36F0501876B976B07D2020E0901DB6F7A
:1037C600DC6BDAEC0EF0060E0701E9250901DB6F6A
:1037D600000E0701EA210901DC6F000E0701EB214B
:1037E6000901DD6F000E0701EC210901DE6F150EE0
:1037F600DF6F99EC07F0282BE7D10CA30CD005015D
:103806009751010A08E1976B020E0901DB6F98ECEC
:103816000AF00901282B0901150EDB6FC8EC08F028
:10382600005203E0010E0501976FCED1010E09018A
:10383600DB6FDC6BDAEC0EF0060E0701E9250901F9
:10384600DB6F000E0701EA210901DC6F000E07019C
:10385600EB210901DD6F000E0701EC210901DE6F86
:10386600140EDF6F99EC07F0282B0CA10CD0050184
:103876008751010A08E1876B010E0901DB6F98EC9D
:103886000AF00901282B0901140EDB6FC8EC08F0B9
:10389600005203E0010E0501876F96D1E9C7DEF8F5
:1038A600EAC7DFF8EBC7E0F8ECC7E1F8010E09015B
:1038B600DB6F010EDC6FDAEC0EF0060E0701E92570
:1038C6000901DB6F000E0701EA210901DC6F000E1A
:1038D6000701EB210901DD6F000E0701EC2109014B
:1038E600DE6F140EDF6F99EC07F0282B6DD10CA15B
:1038F6001BD005018751010A17E1876B010E0901EB
:10390600DB6F98EC0AF00801DD51010A04E10B0EA9
:103916000901286F02D00901282B0801DE51070191
:10392600E95D006E00C0D2F8140E0901DB6FC8EC29
:1039360008F0005203E0010E0501876F45D1E9C783
:10394600DEF8EAC7DFF8EBC7E0F8ECC7E1F8020EED
:103956000901DB6F010EDC6FDAEC0EF0060E0701D3
:10396600E9250901DB6F000E0701EA210901DC6F79
:10397600000E0701EB210901DD6F000E0701EC21A6
:103986000901DE6F150EDF6F99EC07F0282B1CD1AD
:103996000CA313D005019751010A0FE1976B020E94
:1039A6000901DB6F98EC0AF00901282B0801DE51AA
:1039B6000701E95D006E00C0D4F8150E0901DB6F42
:1039C600C8EC08F0005203E0010E0501976FFCD029
:1039D600E9C7DEF8EAC7DFF8EBC7E0F8ECC7E1F8BD
:1039E600020E0901DB6FDC6BDAEC0EF0060E070146
:1039F600E9250901DB6F000E0701EA210901DC6FE9
:103A0600000E0701EB210901DD6F000E0701EC2115
:103A16000901DE6F150EDF6F99EC07F0282BD4D065
:103A26000CA313D005019751010A0FE1976B020E03
:103A36000901DB6F98EC0AF00901282B0801DE5119
:103A46000701E95D006E00C0D3F8150E0901DB6FB2
:103A5600C8EC08F0005203E0010E0501976FB4D0E0
:103A6600E9C7DEF8EAC7DFF8EBC7E0F8ECC7E1F82C
:103A7600010E0901DB6FDC6BDAEC0EF0060E0701B6
:103A8600E9250901DB6F000E0701EA210901DC6F58
:103A9600000E0701EB210901DD6F000E0701EC2185
:103AA6000901DE6F140EDF6F99EC07F0282B8CD01E
:103AB6000CA113D005018751010A0FE1876B010E96
:103AC6000901DB6F98EC0AF00901282B0801DE5189
:103AD6000701E95D006E00C0D1F8140E0901DB6F25
:103AE600C8EC08F0005203E0010E0501876F6CD0A8
:103AF600D10E0901DB6F080EDC6F11EC07F0D10E59
:103B0600DB6F080EDC6FDDC8DDF90CEC08F0C80EC3
:103B1600F26F050EF36FD20EF46F060EF56F100EF0
:103B2600F66F000EF76F58EC01F0FA0EF26F050E05
:103B3600F36FC10EF46F060EF56F100EF66F000EE2
:103B4600F76F58EC01F0020E0501B66F010EE86F33
:103B5600839E06010B6B38D009012851000AD8B4A0
:103B660010D62851010AD8B428D62851020AD8B44A
:103B760044D62851030AD8B459D62851040AD8B4D1
:103B860074D62851050AD8B489D62851060AD8B45D
:103B9600AED62851070AD8B4D2D62851080AD8B4C6
:103BA600F7D62851090AD8B413D728510A0AD8B427
:103BB60037D728510B0AD8B453D728510C0AD8B492
:0A3BC60077D728510D0A94E0120091
:103BD000030E0901D46F839E0601AE6BE0EC08F082
:103BE00000500701E8191FE008014B6BE0EC08F0FA
:103BF00000C0E8F700C0DBF9050EDC6F060EDD6FD4
:103C0000F5EC06F0FA0EF26F050EF36F430EF46F4B
:103C1000010EF56F0B0EF66F000EF76F58EC01F00A
:103C2000010E0501E86F09010B51000A04E10101D1
:103C3000AA5301E143D10101AA6B838E010E060153
:103C4000AE6F0901DB6BA0EC09F01F5318E0010E09
:103C50000701E9250901DB6F000E0701EA210901CF
:103C6000DC6F000E0701EB210901DD6F000E07017B
:103C7000EC210901DE6F0C0EDF6F99EC07F0D451D7
:103C80000701E925006E000EEA21016E000EEB210E
:103C9000026E000EEC21036E00C034F901C035F94C
:103CA00002C036F903C037F900C0DBF901C0DCF906
:103CB00002C0DDF903C0DEF9010E0901DF6F99ECE6
:103CC00007F034C9DBF935C9DCF936C9DDF937C984
:103CD000DEF9050EDF6F99EC07F00501866B060E25
:103CE0000701E925006E000EEA21016E000EEB21AE
:103CF000026E000EEC21036E0901D4510026000E65
:103D000001220222032200C034F901C035F902C0A9
:103D100036F903C037F900C0DBF901C0DCF902C095
:103D2000DDF903C0DEF90A0EDF6F99EC07F01551DB
:103D30000701E925006E000EEA21016E000EEB215D
:103D4000026E000EEC21036E0901D4510026000E14
:103D500001220222032200C034F901C035F902C059
:103D600036F903C037F900C0DBF901C0DCF902C045
:103D7000DDF903C0DEF9030EDF6F99EC07F01C518B
:103D8000000AD8B48DD00701EE51020AD8A488D019
:103D9000090114510701E9250901DB6F000E070134
:103DA000EA210901DC6F000E0701EB210901DD6F3B
:103DB000000E0701EC210901DE6FD451DB27000E54
:103DC000DC23DD23DE23020EDF6F99EC07F01451B4
:103DD0000701E9250901DB6F000E0701EA2109014E
:103DE000DC6F000E0701EB210901DD6F000E0701FA
:103DF000EC210901DE6FD451DB27000EDC23DD232B
:103E0000DE23060EDF6F99EC07F006017E6B0901D9
:103E100014510701E9250901DB6F000E0701EA21B2
:103E20000901DC6F000E0701EB210901DD6F000EB7
:103E30000701EC210901DE6F060EDB27000EDC23F3
:103E4000DD23DE23D451DB27000EDC23DD23DE233C
:103E50000B0EDF6F99EC07F01C510701E9250901F2
:103E6000DB6F000E0701EA210901DC6F000E07017C
:103E7000EB210901DD6F000E0701EC210901DE6F66
:103E80001451DB27000EDC23DD23DE23D451DB2796
:103E9000000EDC23DD23DE23040EDF6F99EC07F038
:103EA000030E06017F6F0501876B976B0701E76BB8
:103EB000ED6B0801746B080E06010B6F090E09010A
:103EC000DB6FC8EC08F00050010AD8A4D7D11A5112
:103ED000000A05E00701EE51010A01E084D0090162
:103EE000DB6BA0EC09F0D4510701E925006E000E50
:103EF000EA21016E000EEB21026E000EEC21036E32
:103F000000C034F901C035F902C036F903C037F9F1
:103F100000C0DBF901C0DCF902C0DDF903C0DEF945
:103F2000010E0901DF6F99EC07F034C9DBF935C9DF
:103F3000DCF936C9DDF937C9DEF9050EDF6F99EC1A
:103F400007F00501866B060E0701E925006E000EDD
:103F5000EA21016E000EEB21026E000EEC21036ED1
:103F60000901D4510026000E01220222032200C0C2
:103F700034F901C035F902C036F903C037F900C081
:103F8000DBF901C0DCF902C0DDF903C0DEF90A0E7D
:103F9000DF6F99EC07F01B510701E925006E000E59
:103FA000EA21016E000EEB21026E000EEC21036E81
:103FB0000901D4510026000E01220222032200C072
:103FC00034F901C035F902C036F903C037F900C031
:103FD000DBF901C0DCF902C0DDF903C0DEF9030E34
:103FE000DF6F99EC07F009011A51000AD8B438D1F3
:103FF0000701EE51020AD8A433D10901DB6BA0EC12
:1040000009F0D4510701E925006E000EEA21016E86
:10401000000EEB21026E000EEC21036E00C034F99D
:1040200001C035F902C036F903C037F900C0DBF929
:1040300001C0DCF902C0DDF903C0DEF9020E09019E
:10404000DF6F99EC07F034C9DBF935C9DCF936C903
:10405000DDF937C9DEF9060EDF6F99EC07F00501CF
:10406000866B060E0701E925006E000EEA21016E3F
:10407000000EEB21026E000EEC21036E0901D451FB
:104080000026000E01220222032200C034F901C0E2
:1040900035F902C036F903C037F900C0DBF901C0B9
:1040A000DCF902C0DDF903C0DEF90B0EDF6F99EC1D
:1040B00007F01B510701E925006E000EEA21016E91
:1040C000000EEB21026E000EEC21036E0901D451AB
:1040D0000026000E01220222032200C034F901C092
:1040E00035F902C036F903C037F900C0DBF901C069
:1040F000DCF902C0DDF903C0DEF9040EDF6F99ECD4
:1041000007F014510701E925006E000EEA21016E47
:10411000000EEB21026E000EEC21036E0901D4515A
:104120000026000E01220222032200C034F901C041
:1041300035F902C036F903C037F900C0DBF901C018
:10414000DCF902C0DDF903C0DEF9010EDF6F99EC86
:1041500007F014510701E925006E000EEA21016EF7
:10416000000EEB21026E000EEC21036E0901D4510A
:104170000026000E01220222032200C034F901C0F1
:1041800035F902C036F903C037F900C0DBF901C0C8
:10419000DCF902C0DDF903C0DEF9050EDF6F99EC32
:1041A00007F006017E6B090114510701E925006E35
:1041B000000EEA21016E000EEB21026E000EEC21D2
:1041C000036E060E0026000E0122022203220901C0
:1041D000D4510026000E01220222032200C034F92D
:1041E00001C035F902C036F903C037F900C0DBF968
:1041F00001C0DCF902C0DDF903C0DEF90A0EDF6F91
:1042000099EC07F01A510701E925006E000EEA212A
:10421000016E000EEB21026E000EEC21036E09010F
:10422000D4510026000E012202220322145100263E
:10423000000E01220222032200C034F901C035F928
:1042400002C036F903C037F900C0DBF901C0DCF960
:1042500002C0DDF903C0DEF9030EDF6F99EC07F051
:10426000030E0601F56F0501876B976B0701E76B7E
:10427000ED6B0801746B070E06010B6F09010DA1B0
:1042800018D0000E121902E1000E111912E00701F8
:10429000E751000A0EE1010EE76F010E0801746F8D
:1042A000030E0901DB6F010EDC6F010EDD6F5BECAD
:1042B00009F00701E751010A16E109010DB113D018
:1042C000000E121902E1000E11190DE00801746BC5
:1042D0000701E76B180E0901DB6F010EDC6F010EA1
:0842E000DD6F5BEC09F0120038
:1042E800020E0901D46F839E0601AE6BE0EC08F064
:1042F80000500701E8191FE008014B6BE0EC08F0DB
:1043080000C0E8F700C0DBF9050EDC6F060EDD6FB4
:10431800F5EC06F0FA0EF26F050EF36FA60EF46FC9
:10432800000EF56F0B0EF66F000EF76F58EC01F0EC
:10433800010E0501E86F09010B51000A08E1090E99
:10434800DB6FC8EC08F00050010A01E0D7D11A5120
:10435800000A05E00701EE51010A01E084D00901D5
:10436800DB6BA0EC09F0D4510701E925006E000EC3
:10437800EA21016E000EEB21026E000EEC21036EA5
:1043880000C034F901C035F902C036F903C037F965
:1043980000C0DBF901C0DCF902C0DDF903C0DEF9B9
:1043A800010E0901DF6F99EC07F034C9DBF935C953
:1043B800DCF936C9DDF937C9DEF9050EDF6F99EC8E
:1043C80007F00501866B060E0701E925006E000E51
:1043D800EA21016E000EEB21026E000EEC21036E45
:1043E8000901D4510026000E01220222032200C036
:1043F80034F901C035F902C036F903C037F900C0F5
:10440800DBF901C0DCF902C0DDF903C0DEF90A0EF0
:10441800DF6F99EC07F01B510701E925006E000ECC
:10442800EA21016E000EEB21026E000EEC21036EF4
:104438000901D4510026000E01220222032200C0E5
:1044480034F901C035F902C036F903C037F900C0A4
:10445800DBF901C0DCF902C0DDF903C0DEF9030EA7
:10446800DF6F99EC07F009011A51000AD8B439D165
:104478000701EE51020AD8A434D1090E0901DB6FF5
:10448800A0EC09F0D4510701E925006E000EEA21DD
:10449800016E000EEB21026E000EEC21036E00C0CF
:1044A80034F901C035F902C036F903C037F900C044
:1044B800DBF901C0DCF902C0DDF903C0DEF9020E48
:1044C8000901DF6F99EC07F034C9DBF935C9DCF96C
:1044D80036C9DDF937C9DEF9060EDF6F99EC07F04A
:1044E8000501866B060E0701E925006E000EEA211C
:1044F800016E000EEB21026E000EEC21036E090125
:10450800D4510026000E01220222032200C034F9F1
:1045180001C035F902C036F903C037F900C0DBF92C
:1045280001C0DCF902C0DDF903C0DEF90B0EDF6F54
:1045380099EC07F01B510701E925006E000EEA21EE
:10454800016E000EEB21026E000EEC21036E0901D4
:10455800D4510026000E01220222032200C034F9A1
:1045680001C035F902C036F903C037F900C0DBF9DC
:1045780001C0DCF902C0DDF903C0DEF9040EDF6F0B
:1045880099EC07F014510701E925006E000EEA21A5
:10459800016E000EEB21026E000EEC21036E090184
:1045A800D4510026000E01220222032200C034F951
:1045B80001C035F902C036F903C037F900C0DBF98C
:1045C80001C0DCF902C0DDF903C0DEF9010EDF6FBE
:1045D80099EC07F014510701E925006E000EEA2155
:1045E800016E000EEB21026E000EEC21036E090134
:1045F800D4510026000E01220222032200C034F901
:1046080001C035F902C036F903C037F900C0DBF93B
:1046180001C0DCF902C0DDF903C0DEF9050EDF6F69
:1046280099EC07F006017E6B090114510701E92591
:10463800006E000EEA21016E000EEB21026E000EE4
:10464800EC21036E060E0026000E01220222032230
:104658000901D4510026000E01220222032200C0C3
:1046680034F901C035F902C036F903C037F900C082
:10467800DBF901C0DCF902C0DDF903C0DEF90A0E7E
:10468800DF6F99EC07F01A510701E925006E000E5B
:10469800EA21016E000EEB21026E000EEC21036E82
:1046A8000901D4510026000E0122022203221451CE
:1046B8000026000E01220222032200C034F901C0A4
:1046C80035F902C036F903C037F900C0DBF901C07B
:1046D800DCF902C0DDF903C0DEF9030EDF6F99ECE7
:1046E80007F0030E0601F56F0501876B976B07014D
:1046F800ED6B0801746B070E06010B6F09010DA124
:1047080018D0000E121902E1000E111912E007016B
:10471800E751000A0EE1010EE76F010E0801746F00
:10472800D80E0901DB6F000EDC6F010EDD6F5BEC4C
:1047380009F00701E751010A16E109010DB113D08B
:10474800000E121902E1000E11190DE00801746B38
:104758000701E76BED0E0901DB6F000EDC6F010E40
:08476800DD6F5BEC09F01200AB
:10477000838E010E0601AE6F010E0901DB6FC8ECDE
:1047800008F000520EE0010EDB6FDC6BDAEC0EF08D
:10479000E80E0901DB6F040EDC6F010EDD6F5BECD0
:1047A00009F0020E0901DB6FC8EC08F0005230E09E
:1047B000020EDB6FDC6BDAEC0EF0370E0901DB6FFB
:1047C000040EDC6F010EDD6F5BEC09F0C80E090111
:1047D000F26F050EF36F3E0EF46F000EF56F100EC4
:1047E000F66F000EF76F58EC01F0FA0EF26F050E3F
:1047F000F36FE90EF46F050EF56F100EF66F000EF5
:10480000F76F58EC01F0010E0501E86F010EB66F6D
:104810000A0E0901DB6FC8EC08F0005210E0010E2F
:104820000501876F010E0901DB6F50EC0AF0460E9F
:10483000DB6F040EDC6F010EDD6F5BEC09F00B0E1D
:104840000901DB6FC8EC08F0005210E0010E050111
:10485000976F020E0901DB6F50EC0AF0130EDB6F4D
:10486000040EDC6F010EDD6F5BEC09F0050E090133
:10487000DB6FC8EC08F0005211E0010EDB6FAFC631
:10488000DCF911EC0FF00501866B280E0901DB6FD6
:10489000040EDC6F010EDD6F5BEC09F0060E090102
:1048A000DB6FC8EC08F0005211E0B0C6DBF9010E76
:1048B000DC6F11EC0FF006017E6B790E0901DB6FE6
:1048C000040EDC6F010EDD6F5BEC09F0030E0901D5
:1048D000DB6FC8EC08F0005209E105018751010ABD
:1048E00004E109010CA101D001D012D00601F5A10B
:1048F0000FD0F591010E0901DB6F98EC0AF0880EDC
:104900000901DB6F040EDC6F010EDD6F5BEC09F05B
:10491000040E0901DB6FC8EC08F0005209E1050143
:104920009751010A04E109010CA301D001D012D072
:104930000601F5A30FD0F593020E0901DB6F98EC89
:104940000AF05B0E0901DB6F040EDC6F010EDD6FF8
:104950005BEC09F009011C51000A05E00701EE516A
:10496000010A01E002D00601F593030E0701ED5D97
:10497000D8A0CAD009010DA141D0010EDB6F98EC7F
:104980000AF0020E0901DB6F98EC0AF00501876B53
:10499000976B060E06010B6F010E0101AA6F680EE0
:1049A0000901DB6F040EDC6F010EDD6F5BEC09F0BB
:1049B000090E0901DB6FA0EC09F0C80EF26F050EBD
:1049C000F36F2C0EF46F060EF56F100EF66F000EDF
:1049D000F76F58EC01F0FA0EF26F050EF36F140E3C
:1049E000F46F080EF56F100EF66F000EF76F58ECAF
:1049F00001F0010E0501E86F020EB66F09010B51BF
:104A0000000A3EE0010EDB6F98EC0AF0020E09018D
:104A1000DB6F98EC0AF0060E06010B6F0501876B41
:104A2000976B5C0E0901DB6F050EDC6F010EDD6F0D
:104A30005BEC09F0090E0901DB6FA0EC09F0C80E70
:104A4000F26F050EF36F2C0EF46F060EF56F100E5D
:104A5000F66F000EF76F58EC01F0FA0EF26F050ECC
:104A6000F36FD60EF46F070EF56F100EF66F000E93
:104A7000F76F58EC01F0010E0501E86F020EB66FFA
:104A800009010E51010A40E125533EE0010EDB6FA2
:104A900098EC0AF0020E0901DB6F98EC0AF0060EA2
:104AA00006010B6F0501876B976B6E0E0901DB6FBB
:104AB000050EDC6F010EDD6F5BEC09F0090E0901DC
:104AC000DB6FA0EC09F0C80EF26F050EF36F2C0E31
:104AD000F46F060EF56F100EF66F000EF76F58ECC0
:104AE00001F0FA0EF26F050EF36FAE0EF46F070EC3
:104AF000F56F100EF66F000EF76F58EC01F0010E17
:104B00000501E86F020EB66F0601F551000AD8A440
:104B1000A7D009011F53D8B489D0010EDB6F010E55
:104B2000DC6FDAEC0EF0010E0701E9250901DB6FFD
:104B3000000E0701EA210901DC6F000E0701EB21DD
:104B40000901DD6F000E0701EC210901DE6F0E0E79
:104B5000DF6F99EC07F0010EDB6FAFC6DCF911ECEB
:104B60000FF00501876B866BB0C6DBF9010E0901FA
:104B7000DC6F11EC0FF00501976B06017E6B010EE7
:104B80000701E9250901DB6F000E0701EA21090190
:104B9000DC6F000E0701EB210901DD6F000E07013C
:104BA000EC210901DE6F030EDF6F99EC07F0010EB7
:104BB0000701E9250901DB6F000E0701EA21090160
:104BC000DC6F000E0701EB210901DD6F000E07010C
:104BD000EC210901DE6F010EDB27000EDC23DD2353
:104BE000DE23040EDF6F99EC07F0010E0701E925C3
:104BF0000901DB6F000E0701EA210901DC6F000EDD
:104C00000701EB210901DD6F000E0701EC2109010D
:104C1000DE6F010EDB27000EDC23DD23DE230D0E0D
:104C2000DF6F99EC07F00601F5851AD0010E070138
:104C3000E9250901DB6F000E0701EA210901DC6F9C
:104C4000000E0701EB210901DD6F000E0701EC21C9
:104C50000901DE6F0D0EDF6F99EC07F00601F58597
:104C60000E0E0901DB6FC8EC08F0005206E0020EE0
:104C7000DB6F010EDC6FDAEC0EF00D0E0901DB6F5D
:104C8000C8EC08F000522CE0010E06010B6F070182
:104C9000E76BE86B090E0901DB6FA0EC09F0C80EA9
:104CA000F26F050EF36FDB0EF46F010EF56F100E51
:104CB000F66F000EF76F58EC01F0FA0EF26F050E6A
:104CC000F36FE90EF46F050EF56F100EF66F000E20
:104CD000F76F58EC01F0010E0501E86F010EB66F99
:104CE00006010B51050A04E00B51060A01E043D00E
:104CF0000901DB6BA0EC09F0000E121902E1000EB5
:104D0000111939E011510701E9250901DB6F125131
:104D10000701EA210901DC6F000E0701EB210901FF
:104D2000DD6F000E0701EC210901DE6F090EDF6F58
:104D300099EC07F00801746B0701E86B470E090155
:104D4000DB6F050EDC6F010EDD6F5BEC09F0FA0E18
:104D50000901F26F050EF36F750EF46F080EF56F13
:104D6000100EF66F000EF76F58EC01F0010E050102
:084D7000E86F020EB66F12009D
:104D7800838E010E0601AE6F010E0901DB6FC8ECD0
:104D880008F000520EE0010EDB6FDC6BDAEC0EF07F
:104D9800BA0E0901DB6F000EDC6F010EDD6F5BECF4
:104DA80009F0020E0901DB6FC8EC08F0005230E090
:104DB800020EDB6FDC6BDAEC0EF0C90E0901DB6F5B
:104DC800000EDC6F010EDD6F5BEC09F0C80E090107
:104DD800F26F050EF36F3E0EF46F000EF56F100EB6
:104DE800F66F000EF76F58EC01F0FA0EF26F050E31
:104DF800F36FE90EF46F050EF56F100EF66F000EE7
:104E0800F76F58EC01F0010E0501E86F010EB66F5F
:104E18000A0E0901DB6FC8EC08F0005210E0010E21
:104E28000501876F010E0901DB6F50EC0AF04F0E88
:104E3800DB6F000EDC6F010EDD6F5BEC09F00B0E13
:104E48000901DB6FC8EC08F0005210E0010E050103
:104E5800976F020E0901DB6F50EC0AF01A0EDB6F38
:104E6800000EDC6F010EDD6F5BEC09F0050E090129
:104E7800DB6FC8EC08F0005212E0010EDB6FAFC622
:104E8800DCF911EC0FF00501876B866B2F0E090119
:104E9800DB6F000EDC6F010EDD6F5BEC09F0070EB7
:104EA8000901DB6FC8EC08F0005212E0DB6BAFC6FB
:104EB800DCF911EC0FF00501876B010E866F820E8D
:104EC8000901DB6F000EDC6F010EDD6F5BEC09F092
:104ED800060E0901DB6FC8EC08F0005211E0B0C6FD
:104EE800DBF9010EDC6F11EC0FF006017E6B930EFF
:104EF8000901DB6F000EDC6F010EDD6F5BEC09F062
:104F0800080E0901DB6FC8EC08F0005211E0B0C6CA
:104F1800DBF9DC6B11EC0FF0010E06017E6F640EFD
:104F28000901DB6F000EDC6F010EDD6F5BEC09F031
:104F3800030E0901DB6FC8EC08F0005210E006010F
:104F4800F591010E0901DB6F98EC0AF0750E090165
:104F5800DB6F000EDC6F010EDD6F5BEC09F0040EF9
:104F68000901DB6FC8EC08F0005210E00601F59368
:104F7800020E0901DB6F98EC0AF0AB0E0901DB6F3A
:104F8800010EDC6F010EDD6F5BEC09F00501875146
:104F9800010A46E109010CA143D005018651000A26
:104FA8003FE1010E0901DB6F98EC0AF0020E0901DE
:104FB800DB6F98EC0AF0060E06010B6F0501876B94
:104FC800976BB80E0901DB6F010EDC6F010EDD6F08
:104FD8005BEC09F0090E0901DB6FA0EC09F0C80EC3
:104FE800F26F050EF36F2C0EF46F060EF56F100EB0
:104FF800F66F000EF76F58EC01F0FA0EF26F050E1F
:10500800F36F1B0EF46F060EF56F100EF66F000EA1
:10501800F76F58EC01F0010E0501E86F020EB66F4C
:1050280005019751010A46E109010CA343D0060185
:105038007E51000A3FE1010E0901DB6F98EC0AF08E
:10504800020E0901DB6F98EC0AF0060E06010B6FE1
:105058000501876B976B990E0901DB6F010EDC6FF9
:10506800010EDD6F5BEC09F0090E0901DB6FA0ECA6
:1050780009F0C80EF26F050EF36F2C0EF46F060ED2
:10508800F56F100EF66F000EF76F58EC01F0FA0E80
:10509800F26F050EF36F1B0EF46F060EF56F100E10
:1050A800F66F000EF76F58EC01F0010E0501E86F7E
:1050B800020EB66F09011C51000A05E00701EE5106
:1050C800010A01E002D00601F593030E0701ED5D28
:1050D800D8A0C9D009010DA140D0010EDB6F98EC12
:1050E8000AF0020E0901DB6F98EC0AF00501876BE4
:1050F800976B060E06010B6F010E0101AA6FEC0EED
:105108000901DB6F010EDC6F010EDD6F5BEC09F04E
:105118000901DB6BA0EC09F0C80EF26F050EF36F06
:105128002C0EF46F060EF56F100EF66F000EF76F6B
:1051380058EC01F0FA0EF26F050EF36F140EF46FCF
:10514800080EF56F100EF66F000EF76F58EC01F0B1
:10515800010E0501E86F020EB66F09010E51010A32
:1051680040E125533EE0010EDB6F98EC0AF0020E99
:105178000901DB6F98EC0AF0060E06010B6F0501BA
:10518800876B976BFD0E0901DB6F010EDC6F010E5B
:10519800DD6F5BEC09F0090E0901DB6FA0EC09F08B
:1051A800C80EF26F050EF36F2C0EF46F060EF56F36
:1051B800100EF66F000EF76F58EC01F0FA0EF26F52
:1051C800050EF36FAE0EF46F070EF56F100EF66F47
:1051D800000EF76F58EC01F0010E0501E86F020EA2
:1051E800B66F09010B51000A3EE0010EDB6F98EC27
:1051F8000AF0020E0901DB6F98EC0AF0060E0601B0
:105208000B6F0501876B976BC90E0901DB6F010EE8
:10521800DC6F010EDD6F5BEC09F0090E0901DB6F35
:10522800A0EC09F0C80EF26F050EF36F2C0EF46FA8
:10523800060EF56F100EF66F000EF76F58EC01F0C2
:10524800FA0EF26F050EF36FD60EF46F070EF56FB8
:10525800100EF66F000EF76F58EC01F0010E050105
:10526800E86F020EB66F0601F551000AD8A4A7D060
:1052780009011F53D8B489D0010EDB6F010EDC6F12
:10528800DAEC0EF0010E0701E9250901DB6F000ECB
:105298000701EA210901DC6F000E0701EB21090172
:1052A800DD6F000E0701EC210901DE6F0E0EDF6FC6
:1052B80099EC07F0010EDB6FAFC6DCF911EC0FF0CB
:1052C8000501876B866BB0C6DBF9010E0901DC6F3F
:1052D80011EC0FF00501976B06017E6B010E0701BB
:1052E800E9250901DB6F000E0701EA210901DC6FDE
:1052F800000E0701EB210901DD6F000E0701EC210B
:105308000901DE6F030EDF6F99EC07F0010E07014C
:10531800E9250901DB6F000E0701EA210901DC6FAD
:10532800000E0701EB210901DD6F000E0701EC21DA
:105338000901DE6F010EDB27000EDC23DD23DE23EF
:10534800040EDF6F99EC07F0010E0701E92509014A
:10535800DB6F000E0701EA210901DC6F000E07016F
:10536800EB210901DD6F000E0701EC210901DE6F59
:10537800010EDB27000EDC23DD23DE230D0EDF6F9D
:1053880099EC07F00601F5851AD0010E0701E92509
:105398000901DB6F000E0701EA210901DC6F000E2D
:1053A8000701EB210901DD6F000E0701EC2109015E
:1053B800DE6F0D0EDF6F99EC07F00601F5850E0E16
:1053C8000901DB6FC8EC08F0005206E0020EDB6F43
:1053D800010EDC6FDAEC0EF00D0E0901DB6FC8EC84
:1053E80008F000522CE0010E06010B6F0701E76B75
:1053F800E86B090E0901DB6FA0EC09F0C80EF26F2B
:10540800050EF36FDB0EF46F010EF56F100EF66FDD
:10541800000EF76F58EC01F0FA0EF26F050EF36FFD
:10542800E90EF46F050EF56F100EF66F000EF76FAC
:1054380058EC01F0010E0501E86F010EB66F060188
:105448000B51050A04E00B51060A01E044D009019A
:10545800DB6BA0EC09F0000E121902E1000E111925
:105468003AE00701E86B090111510701E925090133
:10547800DB6F12510701EA210901DC6F000E0701F9
:10548800EB210901DD6F000E0701EC210901DE6F38
:10549800090EDF6F99EC07F00801746B2E0E0901F5
:1054A800DB6F010EDC6F010EDD6F5BEC09F0FA0EAD
:1054B8000901F26F050EF36F750EF46F080EF56FA4
:1054C800100EF66F000EF76F58EC01F0010E050193
:0854D800E86F020EB66F12002E
:1054E000090107A10BD007013351000A03E1160E91
:1054F000336F01D03307640E06010B6F090107A556
:105500000AD007013351160A02E1336B01D0332B65
:10551000640E06010B6F090107A303D0660E060196
:105520000B6F09010751050A27E1C80EF26F050E3E
:10553000F36F210EF46F030EF56F100EF66F000E71
:10554000F76F58EC01F00301816BFA0E0901F26F5D
:10555000050EF36F310EF46F030EF56F100EF66F3C
:10556000000EF76F58EC01F0020E0501B66F010E48
:0A557000E86FFA0E06010B6F12003F
:10557A00030E0901D46FD56BD66BD76BD86B839E9C
:10558A000601AE6B09010751020A05E1640E060124
:10559A000B6F0701336B09010B5103080701EE6F0B
:1055AA0009010B51000AD8B4DED2090EDB6FA0EC58
:1055BA0009F0838E010E0601AE6F09011F5318E030
:1055CA00010E0701E9250901DB6F000E0701EA2137
:1055DA000901DC6F000E0701EB210901DD6F000EE6
:1055EA000701EC210901DE6F0C0EDF6F99EC07F061
:1055FA00D4510701E925006E000EEA21016E000E62
:10560A00EB21026E000EEC21036E00C034F901C0DA
:10561A0035F902C036F903C037F900C0DBF901C019
:10562A00DCF902C0DDF903C0DEF9010E0901DF6F02
:10563A0099EC07F01051000A10E034C9DBF935C9BA
:10564A00DCF936C9DDF937C9DEF9070EDF6F99ECE7
:10565A0007F0010E0501866F0FD034C9DBF935C991
:10566A00DCF936C9DDF937C9DEF9050E0901DF6F44
:10567A0099EC07F00501866B090110510701E9252C
:10568A00006E000EEA21016E000EEB21026E000E82
:10569A00EC21036E060E0026000E012202220322CE
:1056AA000901D4510026000E01220222032200C061
:1056BA0034F901C035F902C036F903C037F900C020
:1056CA00DBF901C0DCF902C0DDF903C0DEF90A0E1C
:1056DA00DF6F99EC07F010510701E925006E000E03
:1056EA00EA21016E000EEB21026E000EEC21036E20
:1056FA000901D4510026000E01220222032200C011
:10570A0034F901C035F902C036F903C037F900C0CF
:10571A00DBF901C0DCF902C0DDF903C0DEF9050ED0
:10572A00DF6F99EC07F00051000A2EE015510701CE
:10573A00E925006E000EEA21016E000EEB21026ED1
:10574A00000EEC21036E09010051005E000E015AA1
:10575A00025A035AD4510026000E012202220322C1
:10576A0000C034F901C035F902C036F903C037F96F
:10577A0000C0DBF901C0DCF902C0DDF903C0DEF9C3
:10578A00070EDF6F99EC07F015510701E925006E46
:10579A00000EEA21016E000EEB21026E000EEC21D2
:1057AA00036E0901D4510026000E012202220322AF
:1057BA0000C034F901C035F902C036F903C037F91F
:1057CA0000C0DBF901C0DCF902C0DDF903C0DEF973
:1057DA00030EDF6F99EC07F015510701E92509015E
:1057EA00D56F000E0701EA210901D66F000E0701E5
:1057FA00EB210901D76F000E0701EC210901D86FCF
:10580A00D451D527000ED623D723D8231C51000AFA
:10581A00D8B470D10701EE51020AD8A46BD109019C
:10582A0014510701E925006E000EEA21016E000EEF
:10583A00EB21026E000EEC21036E0901D451002601
:10584A00000E01220222032200C034F901C035F9F8
:10585A0002C036F903C037F900C0DBF901C0DCF930
:10586A0002C0DDF903C0DEF9020EDF6F99EC07F022
:10587A001051000A2CE014510701E925006E000EB0
:10588A00EA21016E000EEB21026E000EEC21036E7E
:10589A000901D4510026000E01220222032200C06F
:1058AA0034F901C035F902C036F903C037F900C02E
:1058BA00DBF901C0DCF902C0DDF903C0DEF9080E2C
:1058CA00DF6F99EC07F0010E06017E6F2BD00901FC
:1058DA0014510701E925006E000EEA21016E000E3F
:1058EA00EB21026E000EEC21036E0901D451002651
:1058FA00000E01220222032200C034F901C035F948
:10590A0002C036F903C037F900C0DBF901C0DCF97F
:10591A0002C0DDF903C0DEF9060EDF6F99EC07F06D
:10592A0006017E6B090114510701E925006E000E7C
:10593A00EA21016E000EEB21026E000EEC21036ECD
:10594A00090110510026000E012202220322060E2E
:10595A000026000E012202220322D4510026000E44
:10596A0001220222032200C034F901C035F902C023
:10597A0036F903C037F900C0DBF901C0DCF902C00F
:10598A00DDF903C0DEF90B0EDF6F99EC07F0145155
:10599A000701E925006E000EEA21016E000EEB21D7
:1059AA00026E000EEC21036E090110510026000E52
:1059BA00012202220322D4510026000E01220222D1
:1059CA00032200C034F901C035F902C036F903C018
:1059DA0037F900C0DBF901C0DCF902C0DDF903C008
:1059EA00DEF9060EDF6F99EC07F00051000A34E089
:1059FA0014510701E925006E000EEA21016E000E1E
:105A0A00EB21026E000EEC21036E09011C510026E7
:105A1A00000E0122022203220051005E000E015AEA
:105A2A00025A035AD4510026000E012202220322EE
:105A3A0000C034F901C035F902C036F903C037F99C
:105A4A0000C0DBF901C0DCF902C0DDF903C0DEF9F0
