:0400000088EF3FF056
:1000080000C019F001C018F004C017F008C016F0BD
:100018000CC015F0F2A42AD0232A8088010E246E81
:100028002250FF0A03E1226A256A01D0222A01012F
:10003800BD51FF0A03E1BD6B276A01D0BD2B190E24
:10004800235C0FE3236A010E1627000E17231823DB
:1000580019231B52010ED8A4000E1B6E8098010EA6
:10006800296EF30ED76ECA0ED66EF294F0A016D093
:100078002550000A03E1252A226A01D0252A050E07
:10008800255C0BE3130E225C07E32250150804E3FA
:10009800010E2B6E256A01D0256AF090F0A218D0C7
:1000A8002750000A04E10101272ABD6B01D0272A45
:1000B800050E275C0CE30101130EBD5D07E3BD517E
:1000C800150804E3010E2C6E276A01D0276AF09206
:1000D800F2A231D0262A2650FF0A02E1020E266E2D
:1000E800030E046E26C000F068D808C000F0005067
:1000F800010A0FE10001DF5305E0B55302E08186F4
:1001080001D08196E05305E0B85302E0818801D020
:100118008198030E046E26C000F04FD808C000F086
:100128000050000A07E10001DF5301E08186E05337
:1001380001E08188F29219C000F018C001F017C0E0
:0C01480004F016C008F015C00CF0110007
:0E015400ACB202D00000FCD706C6ADFF120010
:1001620006C6C9FFC7B002D00000FCD7C9CF00F055
:02017200120079
:10017400F250026EF29E0500FF6A0150FE6E0050BE
:08018400FD6E02BEF28E1200B6
:10018C00086A096A100E0C6E0134083609360450E0
:10019C00085E0550D8A0053C095ED8B007D00450C5
:1001AC0008260550D8B0053C0926D89000360136F3
:0601BC000C2EEAD7120030
:1001C200086A080E0C6E003408360450085ED8B077
:0E01D20002D00826D89000360C2EF5D7120069
:1001E000A6A202D00000FCD7A69C00C6AAFFFFC5AD
:1001F000A9FF01C6A8FFA69EA684F2CF00F0F29E3A
:10020000550EA76EAA0EA76EA68200BE02D0F29E61
:0802100001D0F28EA694120049
:1002180001C604F002C605F0FFC502F000C603F0EF
:1002280003C600F004C601F0010E0601035F000ECC
:10023800045B005001100FE004C0E9FF05C0EAFFAD
:1002480002C0E1FF03C0E2FFEECFE6FF024A032A45
:10025800044A052AE5D7FFC500F000C601F01200E0
:100268000601036B050E035D0AE203510125E16EE9
:10027800000E0221E26E200EE66E032BF3D7035127
:100288000125E16E000E0221E26EE66A03070351C2
:100298000125046F000E0221056F0A0E046E000E80
:1002A800056EFFC500F000C601F06CDF08C000F065
:1002B80009C001F0300E002604C6E1FF05C6E2FFC2
:1002C80000C0E6FF0A0E046E000E056EFFC500F0C2
:1002D80000C601F057DF00C0FFF501C000F6000EB0
:1002E800011802E1000E001801E102D00307CFD780
:0202F8001200F2
:1002FA000601026B030E025D0AE202510025E16E5D
:10030A00000E0121E26E200EE66E022BF3D7025197
:10031A000025E16E000E0121E26EE66A0207025133
:10032A000025036F000E0121046F0A0E046EFFC53B
:10033A0000F042DF08C000F0300E002603C6E1FFDD
:10034A0004C6E2FF00C0E6FF0A0E046EFFC500F015
:10035A0033DF00C0FFF50050000A01E102D00207B6
:04036A00DED71200C8
:10036E005ED00101896B8A6B8BD00101E00E896F23
:10037E00010E8A6F85D00101EA0E896F010E8A6F18
:10038E007FD00101F40E896F010E8A6F79D00101C1
:10039E00120E896F020E8A6F73D00101260E896FBD
:1003AE00020E8A6F6DD001013A0E896F020E8A6FAE
:1003BE0067D00101580E896F020E8A6F61D001015C
:1003CE00760E896F020E8A6F5BD001018A0E896FDD
:1003DE00020E8A6F55D001019E0E896F020E8A6F32
:1003EE004FD00101BC0E896F020E8A6F49D00101F8
:1003FE00EE0E896F020E8A6F43D00101200E896FB7
:10040E00030E8A6F3DD00101520E896F030E8A6F63
:10041E0037D00101840E896F030E8A6F31D005012A
:10042E00FF51000A9EE0FF51010A9FE0FF51020AB0
:10043E00A2E0FF51030AA5E0FF51040AA8E0FF5114
:10044E00050AABE0FF51060AAEE0FF51070AB1E024
:10045E00FF51080AB4E0FF51090AB7E0FF510A0A3A
:10046E00BAE0FF510B0ABDE0FF510C0AC0E0FF518C
:10047E000D0AC3E0FF510E0AC6E0FF510F0AC9E094
:10048E0042D0640E01018B6F000E8C6F5ED00101A5
:10049E00F40E8B6F010E8C6F58D00101E80E8B6F2E
:1004AE00030E8C6F52D00101DC0E8B6F050E8C6F1C
:1004BE004CD00101D00E8B6F070E8C6F46D0010110
:1004CE00C40E8B6F090E8C6F40D00101B80E8B6F6E
:1004DE000B0E8C6F3AD00101AC0E8B6F0D0E8C6F24
:1004EE0034D00101A00E8B6F0F0E8C6F2ED0010138
:1004FE00940E8B6F110E8C6F28D00101880E8B6FAE
:10050E00130E8C6F22D006010051000ABAE0005182
:10051E00010ABDE00051020AC0E00051030AC3E027
:10052E000051040AC6E00051050AC9E00051060A4E
:10053E00CCE00051070ACFE00051080AD2E000518A
:10054E00090AD5E000510A0AD8E05ED001018D6B90
:10055E008E6B8BD00101E00E8D6F010E8E6F85D0EC
:10056E000101EA0E8D6F010E8E6F7FD00101F40E28
:10057E008D6F010E8E6F79D00101120E8D6F020EEE
:10058E008E6F73D00101260E8D6F020E8E6F6DD0A1
:10059E0001013A0E8D6F020E8E6F67D00101580E5B
:1005AE008D6F020E8E6F61D00101760E8D6F020E71
:1005BE008E6F5BD001018A0E8D6F020E8E6F55D03D
:1005CE0001019E0E8D6F020E8E6F4FD00101BC0E7B
:1005DE008D6F020E8E6F49D00101EE0E8D6F020EE1
:1005EE008E6F43D00101200E8D6F030E8E6F3DD0A6
:1005FE000101520E8D6F030E8E6F37D00101840EE6
:10060E008D6F030E8E6F31D006010151000A9EE0F0
:10061E000151010A9FE00151020AA2E00151030AB1
:10062E00A5E00151040AA8E00151050AABE0015111
:10063E00060AAEE00151070AB1E00151080AB4E022
:10064E000151090AB7E001510A0ABAE001510B0A39
:10065E00BDE001510C0AC0E001510D0AC3E0015189
:10066E000E0AC6E001510F0AC9E042D0640E010124
:10067E00A26F000EA36F5ED00101F40EA26F010EE9
:10068E00A36F58D00101E80EA26F030EA36F52D0D4
:10069E000101DC0EA26F050EA36F4CD00101D00E2E
:1006AE00A26F070EA36F46D00101C40EA26F090EF2
:1006BE00A36F40D00101B80EA26F0B0EA36F3AD0FC
:1006CE000101AC0EA26F0D0EA36F34D00101A00E6E
:1006DE00A26F0F0EA36F2ED00101940EA26F110EFA
:1006EE00A36F28D00101880EA26F130EA36F22D024
:1006FE0006010251000ABAE00251010ABDE00251A0
:10070E00020AC0E00251030AC3E00251040AC6E025
:10071E000251050AC9E00251060ACCE00251070A4D
:10072E00CFE00251080AD2E00251090AD5E0025187
:06073E000A0AD8E01200D7
:100744000B6A0A6A096A086A0E6A03340836045096
:10075400085E0550D8A0053C095E0650D8A0063CAA
:100764000A5E0750D8A0073C0B5EE86AD8A0010EC9
:100774000E5E0336070E0C6E0334083609360A364D
:100784000B360E36045003A012D0085E0550D8A0D4
:10079400053C095E0650D8A0063C0A5E0750D8A066
:1007A400073C0B5EE86AD8A0010E0E5E11D0082645
:1007B4000550D8B0053C09260650D8B0063C0A2698
:1007C4000750D8B0073C0B26E86AD8B0010E0E26B5
:1007D40003360C2ED1D70234083609360A360B36C6
:1007E4000E36045003A012D0085E0550D8A0053C74
:1007F400095E0650D8A0063C0A5E0750D8A0073C04
:100804000B5EE86AD8A0010E0E5E11D008260550D2
:10081400D8B0053C09260650D8B0063C0A26075035
:10082400D8B0073C0B26E86AD8B0010E0E26023673
:10083400070E0C6E0234083609360A360B360E36AD
:10084400045002A012D0085E0550D8A0053C095EF1
:100854000650D8A0063C0A5E0750D8A0073C0B5EA1
:10086400E86AD8A0010E0E5E11D008260550D8B053
:10087400053C09260650D8B0063C0A260750D8B0D5
:10088400073C0B26E86AD8B0010E0E2602360C2E61
:10089400D1D70134083609360A360B360E360450E1
:1008A40002A012D0085E0550D8A0053C095E06508F
:1008B400D8A0063C0A5E0750D8A0073C0B5EE86A45
:1008C400D8A0010E0E5E11D008260550D8B0053C04
:1008D40009260650D8B0063C0A260750D8B0073C73
:1008E4000B26E86AD8B0010E0E260136070E0C6EF0
:1008F4000134083609360A360B360E36045001A088
:1009040012D0085E0550D8A0053C095E0650D8A058
:10091400063C0A5E0750D8A0073C0B5EE86AD8A0E4
:10092400010E0E5E11D008260550D8B0053C0926EC
:100934000650D8B0063C0A260750D8B0073C0B2610
:10094400E86AD8B0010E0E2601360C2ED1D7003439
:10095400083609360A360B360E36045001A012D07A
:10096400085E0550D8A0053C095E0650D8A0063C98
:100974000A5E0750D8A0073C0B5EE86AD8A0010EB7
:100984000E5E11D008260550D8B0053C0926065045
:10099400D8B0063C0A260750D8B0073C0B26E86AB4
:1009A400D8B0010E0E260036070E0C6E0034083641
:1009B40009360A360B360E36045000A012D0085EF3
:1009C4000550D8A0053C095E0650D8A0063C0A5E36
:1009D4000750D8A0073C0B5EE86AD8A0010E0E5E53
:1009E40011D008260550D8B0053C09260650D8B0C9
:1009F400063C0A260750D8B0073C0B26E86AD8B054
:100A0400010E0E2600360C2ED1D700B00ED00450A5
:100A140008260550D8B0053C09260650D8B0063C37
:0C0A24000A260750D8B0073C0B26120031
:100A3000C8C1E1FFC9C1E2FFFFC5E6FFC6C100F0C2
:0A0A4000C7C101F0BAEC00F012008B
:0A0A4A00490E0D6E0D2EFED71200AE
:100A54000900F5CFE6FF0006FBE10106F9E112000B
:100A64000501F96B0A0EF95D0AE2F951F725E16E09
:100A7400000EF821E26E300EE66EF92BF3D7F95131
:100A8400F725E16E000EF821E26EE66AF907000E22
:100A9400006EF61908E10050F51905E10050F4194B
:100AA40002E1F351000A3EE0F951F725FA6F000E16
:100AB400F821FB6F0A0E046E000E056E066E076EBB
:100AC400F3C500F0F4C501F0F5C502F0F6C503F076
:100AD40037DE08C000F009C001F00AC002F00BC004
:100AE40003F0300E0026FAC5E1FFFBC5E2FF00C0AB
:100AF400E6FFF9070A0E046E000E056E066E076E19
:100B0400F3C500F0F4C501F0F5C502F0F6C503F035
:100B140017DE00C0F3F501C0F4F502C0F5F503C01B
:060B2400F6F5B5D7120042
:100B2A000501F66BF3C5E9FFF4C5EAFFEECFF5F56B
:100B3A00F551000A0FE0F5C506F6AAEC00F005012A
:100B4A00F62BF651F325E96E000EF421EA6EEECF8C
:060B5A00F5F5EED71200D4
:100B60000501F66BF3C5E9FFF4C5EAFFEECFF5F535
:100B7000F551000A0EE0F5C5FFF55ADF0501F62B29
:100B8000F651F325E96E000EF421EA6EEECFF5F58D
:040B9000EFD7120089
:100B9400C7B409D01F0EC514016E0150000A03E149
:0A0BA400010E006E01D0006A12007D
:100BAE000B6A0A6A096A00500402F4CF09F0F3CF07
:100BBE0008F001500502F4CF0BF0F3CF0AF000500D
:100BCE000502F3500926F4500A22E86A0B2201505E
:100BDE000402F3500926F4500A22E86A0B2208C0D8
:100BEE0000F009C001F00AC002F00BC003F01200C1
:100BFE00F3C5FFF50501FF33FF9FF4C500F6F5C5FC
:100C0E0001F67DEC01F0010E0501F315016E0150A8
:100C1E00010A1BE1030EF425FF6F000EF5210601FC
:100C2E00006F2E0E0501F66F350EF76F730EF86F0F
:100C3E00F96BF60E0601016F050E026F040E036FBF
:100C4E00000E046F0CEC01F01BD0030E0501F42511
:100C5E00FF6F000EF5210601006F2E0E0501FA6FD3
:100C6E00300EFB6F730EFC6FFD6BFA0E0601016FFB
:100C7E00050E026F040E036F000E046F0CEC01F0F4
:020C8E00120052
:100C9000A69CF4C5AAFFF3C5A9FFA69EA680A8CF6F
:040CA00000F012004E
:100CA400F3C5FFF5F4C500F6060100330501FF3373
:100CB4000601009FF5C501F6F6C502F634EC01F015
:100CC400010E0501F315016EF4C502F0000E0216C3
:100CD400000E021802E1010E01181BE1050EF525B4
:100CE400FF6F000EF6210601006F2E0E0501F76F4F
:100CF400350EF86F730EF96FFA6BF70E0601016F7C
:100D0400050E026F040E036F000E046F0CEC01F06D
:100D14001BD0050E0501F525FF6F000EF621060117
:100D2400006F2E0E0501FB6F300EFC6F730EFD6F0E
:100D3400FE6BFB0E0601016F050E026F040E036FBE
:0A0D4400000E046F0CEC01F0120029
:100D4E00010E0501FF6F000E0601006FA8C101F62E
:100D5E00F0EC00F0020E0501FF6F000E0601006FB1
:100D6E0099C201F6F0EC00F0030E0501FF6F000EC4
:100D7E000601006FA9C101F6F0EC00F0040E0501AA
:100D8E00FF6F000E0601006FAAC101F6F0EC00F035
:100D9E00050E0501FF6F000E0601006FBCC101F6C6
:100DAE00F0EC00F0060E0501FF6F000E0601006F5D
:100DBE00A7C101F6F0EC00F0070E0501FF6F000E63
:100DCE000601006FA4C101F6F0EC00F0080E05015B
:100DDE00FF6F000E0601006FA5C101F6F0EC00F0EA
:100DEE00090E0501FF6F000E0601006FA6C101F688
:100DFE00F0EC00F00A0E0501FF6F000E0601006F09
:100E0E000BC201F6F0EC00F00B0E0501FF6F000EA9
:100E1E000601006F0AC201F6F0EC00F00C0E05019F
:100E2E00FF6F000E0601006F20C001F6F0EC00F01F
:100E3E000D0E0501FF6F000E0601006FABC101F62E
:100E4E00F0EC00F00E0E0501FF6F000E0601006FB4
:100E5E0091C101F6F0EC00F00F0E0501FF6F000ED0
:100E6E000601006F9AC201F6F0EC00F0100E0501BB
:100E7E00FF6F000E0601006FA4C201F6F0EC00F049
:100E8E00110E0501FF6F000E0601006F8FC101F6F6
:100E9E00F0EC00F0120E0501FF6F000E0601006F60
:100EAE00ACC101F6F0EC00F0130E0501FF6F000E61
:100EBE000601006F1AC001F6F0EC00F0140E0501E9
:100ECE00FF6F000E0601006F90C101F6F0EC00F00E
:100EDE0020C0FFF5ACC100F61AC001F690C102F6B3
:060EEE00B7EC01F0120058
:100EF400010E0501F36F000EF46FC8DE00C0A8F107
:100F0400020EF36F000EF46FC1DE00C099F2030EFF
:100F1400F36F000EF46FBADE00C0A9F1040EF36F94
:100F2400000EF46FB3DE00C0AAF1050EF36F000EDD
:100F3400F46FACDE00C0BCF1060EF36F000EF46F6C
:100F4400A5DE00C0A7F1070EF36F000EF46F9EDE5E
:100F540000C0A4F1080EF36F000EF46F97DE00C01A
:100F6400A5F1090EF36F000EF46F90DE00C0A6F138
:100F74000A0EF36F000EF46F89DE00C00AF2000E51
:100F840002010B6F0AC20BF20A6B0B0E0501F36F21
:100F9400000EF46F7BDE005002010A13000E0B13E7
:100FA4000C0E0501F36F000EF46F70DE00C020F02C
:100FB4000D0EF36F000EF46F69DE00C0ABF10E0E80
:100FC400F36F000EF46F62DE00C091F10F0EF36F49
:100FD400000EF46F5BDE00C09AF2100EF36F000E89
:100FE400F46F54DE00C0A4F2110EF36F000EF46F20
:100FF4004DDE00C08FF1120EF36F000EF46F46DE6B
:1010040000C0ACF1130EF36F000EF46F3FDE00C0AE
:101014001AF0140EF36F000EF46F38DE00C090F176
:1010240020C0FFF5ACC100F61AC001F600C002F6FC
:06103400B7EC01F0120010
:10103A00010E0301D925016E000EDA21026E01C0EC
:10104A00E9FF02C0EAFF0A0EEE24006E01C0E1FFCA
:10105A0002C0E2FF00C0E6FF030ED925016E000EB2
:10106A00DA21026E01C0E9FF02C0EAFF0A0EEE248D
:10107A00006E01C0E1FF02C0E2FF00C0E6FFD9C373
:10108A00E9FFDAC3EAFFEECF00F0D9C3E1FFDAC322
:10109A00E2FF0A0E0024E66E020ED925016E000E4A
:1010AA00DA21026E01C0E9FF02C0EAFF0A0EEE244D
:1010BA00006E01C0E1FF02C0E2FF00C0E6FF040EBD
:1010CA00D925E16E000EDA21E26E040EE66E060EF6
:1010DA00D925E16E000EDA21E26E040EE66E080EE4
:1010EA00D925E16E000EDA21E26E040EE66E0A0ED2
:1010FA00D925E16E000EDA21E26E040EE66E050EC7
:10110A00D925E16E000EDA21E26E0A0EE66E090EAC
:10111A00D925E16E000EDA21E26E0A0EE66E070E9E
:10112A00D925E16E000EDA21E26E0A0EE66E0B0E8A
:10113A00D925E16E000EDA21E26E0A0EE66E120081
:10114A000301D951010A03E10001DF6B8196030112
:0E115A00D951020A03E10001E06B81981200F6
:101168000301DE6B140EDE5D6DE2DEC300F0000EDF
:10117800016E070E046E000E056E15DD0D0E0026BD
:10118800020E0122050E0024E96E000E0120EA6E0F
:10119800EE50010A55E1DEC300F0000E016E070EA5
:1011A800046E000E056EFFDC0D0E0024E16E020ECB
:1011B8000120E26EDDC3E6FFDEC300F0000E016E23
:1011C800070E046E000E056EEEDC0D0E0026020EF4
:1011D8000122010E0024E16E000E0120E26ED9C347
:1011E800E6FFDAC3E6FFDBC3E6FFDCC3E6FFDEC3E8
:1011F80000F0000E016E070E046E000E056ED3DCC3
:101208000D0E0026020E0122050E0024E16E000ECE
:101218000120E26EE66ADEC300F0000E016E070EE2
:10122800046E000E056EBFDC0D0E0026020E0122B4
:10123800060E0024E16E000E0120E26EE66A02D07E
:06124800DE2B90D712001E
:10124E0002019C510301D91905E102019C6B010EAB
:10125E00006E120002019D510301D91905E1020130
:10126E009D6B010E006E120002019E510301D919F1
:10127E0005E102019E6B010E006E1200006A120063
:10128E000301D96BDA6BDA51120802E1D9518E08DB
:10129E0008E379DC005201E004D00301D94BDA2BCC
:1012AE00F2D70301120EDA5D02E18F0ED95D03E370
:1012BE007B0E006E05D0C580C5A001D0FDD7006A9B
:0212CE0012000C
:1012D0000301DB5320E016C1F3F517C1F4F518C183
:1012E000F5F519C1F6F5DC0E0501F76F030EF86F81
:1012F00032EC05F0DC0EF36F030EF46F31DC3A0EC6
:101300000301E76F200EE86FE96BE70E0501F36F4D
:10131000030EF46F0ADCD9C3F3F5DAC3F4F505DC88
:101320000D0E0601066FAAEC00F00A0E0601066F0C
:06133000AAEC00F012001F
:101336000301D96B140ED95D50E2D9C300F0000E3B
:10134600016E070E046E000E056E2EDC0D0E0026D5
:10135600020E0122050E0024E96E000E0120EA6E3F
:10136600EE50000A38E1D9C300F0000E016E070EF8
:10137600046E000E056E18DC0D0E0024E96E020EDA
:101386000120EA6EEECF01F00150090A24E1D9C32B
:1013960000F0000E016E070E046E000E056E04DCF2
:1013A6000D0E0026020E0122010E0024E96E000E2B
:1013B6000120EA6EEECFDAF3EECFDBF3EECFDCF30D
:1013C600EECFDDF3050E0024E16E000E0120E26E85
:1013D600010EE66E02D0D92BADD7010116510301DD
:1013E600DA5D016E01C0D9F3140E015C01E3D96B1D
:0613F600D9C300F0120053
:1013FC000301D96B140ED95D4BE2D9C300F0000E7A
:10140C00016E070E046E000E056ED7EC05F00D0E86
:10141C000026020E0122050E0024E96E000E0120AA
:10142C00EA6EEE50000A32E1D9C300F0000E016EF4
:10143C00070E046E000E056ED7EC05F00D0E0024A1
:10144C00E96E020E0120EA6EEECF01F00150090A9E
:10145C001DE1D9C300F0000E016E070E046E000EE4
:10146C00056ED7EC05F00D0E0026020E0122010EC2
:10147C000024E96E000E0120EA6EEECFDAF3EECF17
:10148C00DBF3EECFDCF3EECFDDF302D0D92BB2D70A
:10149C00140ED95D02E3D96B05D00101165103017D
:0A14AC00DA5DD96FD9C300F0120019
:1014B6000301DA6B140EDA5D44E2DAC300F0000EC3
:1014C600016E070E046E000E056ED7EC05F00D0ECC
:1014D6000026020E0122050E0024E96E000E0120F0
:1014E600EA6EEE50000A2BE1DAC300F0000E016E40
:1014F600070E046E000E056ED7EC05F00D0E0024E7
:10150600E96E020E0120EA6EEECF01F00150D91904
:1015160016E0DAC300F0000E016E070E046E000E30
:10152600056ED7EC05F00D0E0026020E0122050E03
:101536000024E16E000E0120E26E010EE66EDA2B4B
:04154600B9D71200FF
:10154A00010E0301D925E96E000EDA21EA6EEECF0B
:10155A00A8F1D9C3E9FFDAC3EAFFEECFA9F1DB515B
:10156A00020AD8A485D0030ED925E96E000EDA2125
:10157A00EA6EEECF99F2020ED925E96E000EDA2153
:10158A00EA6EEECFAAF1040ED925E96E000EDA2131
:10159A00EA6E080ED925D96E000EDA21DA6EDE500F
:1015AA00EE24036E046A000E042203C000F004C095
:1015BA0001F001320032019E01BC018E00C0A7F188
:1015CA00050ED925E96E000EDA21EA6E090ED92533
:1015DA00D96E000EDA21DA6EDE50EE24036E046A4A
:1015EA00000E042203C000F004C001F001320032F0
:1015FA00019E01BC018E00C0A4F1060ED925E96E38
:10160A00000EDA21EA6E0A0ED925D96E000EDA2109
:10161A00DA6EDE50EE24036E046A000E042203C062
:10162A0000F004C001F001320032019E01BC018EBB
:10163A0000C0A5F1070ED925E96E000EDA21EA6E7F
:10164A000B0ED925D96E000EDA21DA6EDE50EE24A1
:10165A00036E046A000E042203C000F004C001F005
:10166A0001320032019E01BC018E00C0A6F125D0D4
:10167A000201996B0101AA6B040E0301D925E96ED7
:10168A00000EDA21EA6EEECFA7F1050ED925E96E32
:10169A00000EDA21EA6EEECFA4F1060ED925E96E24
:1016AA00000EDA21EA6EEECFA5F1070ED925E96E12
:1016BA00000EDA21EA6EEECFA6F1A7EC06F01200D0
:1016CA000301D951010A05E101012F6B306B0201B7
:1016DA00A0910301D951020A05E101011B6B1C6BA0
:0616EA000201A0931200B2
:1016F000140E0101A86F140EA96F140E0201996F48
:10170000140E0101AA6F070E206E020EAC6F070EB9
:101710001A6E020E906F070E0501FF6F020E060192
:10172000006F070E016F020E026FB7EC01F00A0E98
:101730000101A46F040EA76F0A0EA66F040EA56F19
:101740000C0EBC6F02010A6B0B6B0101916B020165
:101750009A6BA46B0101AB6B010E8F6FA7EC06F0C7
:02176000120075
:10176200020E0001B46FA30E0501FF6F000E060109
:10177200006F1A0EF66E800EF76E000EF86ED90E1E
:10178200E16E030EE26E110E006E010E016E2AEC86
:1017920005F0D90E016F030E026F100E036F000EDB
:1017A200046F0CEC01F01E50000A69E1BD0E050148
:1017B200FF6F000E0601006F2B0EF66E800EF76EA5
:1017C200000EF86EEA0EE16E030EE26E110E006E6E
:1017D200010E016E2AEC05F0EA0E016F030E026F94
:1017E200100E036F000E046F0CEC01F0010E0001ED
:1017F200A26F1F50000A20E1A30E0501FF6F000E29
:101802000601006F3C0EF66E800EF76E000EF86E4B
:10181200FB0EE16E030EE26E110E006E010E016E02
:101822002AEC05F0FB0E016F030E026F100E036F20
:10183200000E046F0CEC01F01F50010A20E1A30E10
:101842000501FF6F000E0601006F4D0EF66E800E51
:10185200F76E000EF86E0C0EE16E040EE26E110EC3
:10186200006E010E016E2AEC05F00C0E016F040EE3
:10187200026F100E036F000E046F0CEC01F01E508D
:10188200010A2CE1BD0E0501FF6F000E0601006F7B
:101892005E0EF66E800EF76E000EF86E1D0EE16E95
:1018A200040EE26E110E006E010E016E2AEC05F0BE
:1018B2001D0E016F040E026F100E036F000E046FF7
:1018C2000CEC01F0010E0001A26FA8C1F3F5A90E04
:1018D2000501F46F000EF56FFFEC05F01E50020AD1
:1018E2002CE1BD0E0501FF6F000E0601006F6F0EA9
:1018F200F66E800EF76E000EF86E2E0EE16E040E7E
:10190200E26E110E006E010E016E2AEC05F02E0E33
:10191200016F040E026F100E036F000E046F0CECC9
:1019220001F0010E0001A26F99C2F3F5A90E0501A3
:10193200F46F000EF56FFFEC05F01E50030A2CE168
:10194200BD0E0501FF6F000E0601006F800EF66EE0
:10195200800EF76E000EF86E3F0EE16E040EE26E20
:10196200110E006E010E016E2AEC05F03F0E016FA2
:10197200040E026F100E036F000E046F0CEC01F0E8
:10198200010E0001A26FA9C1F3F5A90E0501F46FC2
:10199200000EF56FFFEC05F01E50040A2CE1BD0E9F
:1019A2000501FF6F000E0601006F910EF66E800EAC
:1019B200F76E000EF86E500EE16E040EE26E110E1E
:1019C200006E010E016E2AEC05F0500E016F040E3E
:1019D200026F100E036F000E046F0CEC01F0010E8B
:1019E2000001A26FAAC1F3F5A90E0501F46F000E62
:1019F200F56FFFEC05F01E50050A2CE1BD0E050146
:101A0200FF6F000E0601006FA20EF66E800EF76EDB
:101A1200000EF86E610EE16E040EE26E110E006EA3
:101A2200010E016E2AEC05F0610E016F040E026FC9
:101A3200100E036F000E046F0CEC01F0010E00019A
:101A4200A26FA7C1F3F5A90E0501F46F000EF56FA1
:101A5200FFEC05F01E50060A2CE1BD0E0501FF6FDA
:101A6200000E0601006FB30EF66E800EF76E000ECA
:101A7200F86E720EE16E040EE26E110E006E010E31
:101A8200016E2AEC05F0720E016F040E026F100E49
:101A9200036F000E046F0CEC01F0010E0001A26F47
:101AA200A4C1F3F5A90E0501F46F000EF56FFFEC6A
:101AB20005F01E50070A2CE1BD0E0501FF6F000E56
:101AC2000601006FC40EF66E800EF76E000EF86E01
:101AD200830EE16E040EE26E110E006E010E016EB7
:101AE2002AEC05F0830E016F040E026F100E036FD5
:101AF200000E046F0CEC01F0010E0001A26FA5C1F3
:101B0200F3F5A90E0501F46F000EF56FFFEC05F079
:101B12001E50080A2CE1BD0E0501FF6F000E0601E2
:101B2200006FD50EF66E800EF76E000EF86E940EF4
:101B3200E16E040EE26E110E006E010E016E2AECD1
:101B420005F0940E016F040E026F100E036F000E6B
:101B5200046F0CEC01F0010E0001A26FA6C1F3F5B7
:101B6200A90E0501F46F000EF56FFFEC05F01E5093
:101B7200090A6EE1BD0E0501FF6F000E0601006F3E
:101B8200E60EF66E800EF76E000EF86EA50EE16E92
:101B9200040EE26E110E006E010E016E2AEC05F0CB
:101BA200A50E016F040E026F100E036F000E046F7C
:101BB2000CEC01F0010E0001A26F20C0FFF5A60E91
:101BC2000601006F000E016F7DEC01F02050070846
:101BD20020E2AA0E0501FF6F000E0601006F320E11
:101BE2000401B66F350EB76F300EB86F4B0EB96F7A
:101BF200670EBA6F2D0EBB6FBC6BB60E0601016F7E
:101C0200040E026F060E036F000E046F0CEC01F05F
:101C12001FD0AA0E0501FF6F000E0601006F320EE3
:101C22000401BD6F350EBE6F300EBF6F4B0EC06F1D
:101C3200670EC16F2B0EC26FC36BBD0E0601016F23
:101C4200040E026F060E036F000E046F0CEC01F01F
:101C52001E500A0A6EE1BD0E0501FF6F000E06015D
:101C6200006F050EF66E810EF76E000EF86EC40E52
:101C7200E16E040EE26E110E006E010E016E2AEC90
:101C820005F0C40E016F040E026F100E036F000EFA
:101C9200046F0CEC01F0010E0001A26F1AC0FFF5F7
:101CA200A60E0601006F000E016F7DEC01F01A50C6
:101CB200070820E2AA0E0501FF6F000E0601006F61
:101CC200320E0401D56F350ED66F300ED76F4B0E24
:101CD200D86F670ED96F2D0EDA6FDB6BD50E06014A
:101CE200016F040E026F060E036F000E046F0CEC00
:101CF20001F01FD0AA0E0501FF6F000E0601006F52
:101D0200320E0401DC6F350EDD6F300EDE6F4B0ECE
:101D1200DF6F670EE06F2B0EE16FE26BDC0E0601E8
:101D2200016F040E026F060E036F000E046F0CECBF
:101D320001F01E500B0A2CE1BD0E0501FF6F000ED3
:101D42000601006F240EF66E810EF76E000EF86E1D
:101D5200E30EE16E040EE26E110E006E010E016ED4
:101D62002AEC05F0E30E016F040E026F100E036FF2
:101D7200000E046F0CEC01F0010E0001A26FACC169
:101D8200F3F5A90E0501F46F000EF56FFFEC05F0F7
:101D92001E500C0A2CE1BD0E0501FF6F000E06015C
:101DA200006F350EF66E810EF76E000EF86EF40EB1
:101DB200E16E040EE26E110E006E010E016E2AEC4F
:101DC20005F0F40E016F040E026F100E036F000E89
:101DD200046F0CEC01F0010E0001A26F90C1F3F54B
:101DE200A90E0501F46F000EF56FFFEC05F01E5011
:101DF2000D0A2CE1BD0E0501FF6F000E0601006FFA
:101E0200460EF66E810EF76E000EF86E050EE16E4E
:101E1200050EE26E110E006E010E016E2AEC05F047
:101E2200050E016F050E026F100E036F000E046F98
:101E32000CEC01F0010E0001A26FBCC1F3F5A90E7A
:101E42000501F46F000EF56FFFEC05F01E500E0A4F
:101E52002EE1BD0E0501FF6F000E0601006F570E49
:101E6200F66E810EF76E000EF86E160EE16E050E1E
:101E7200E26E110E006E010E016E2AEC05F0160ED6
:101E8200016F050E026F100E036F000E046F0CEC53
:101E920001F0010E0001A26F0AC2F3F50BC2F4F5C4
:101EA200A70E0501F56F000EF66F52EC06F01E50FC
:101EB2000F0A23E1BD0E0501FF6F000E0601006F40
:101EC200680EF66E810EF76E000EF86E270EE16E4A
:101ED200050EE26E110E006E010E016E2AEC05F087
:101EE200270E016F050E026F100E036F000E046FB6
:101EF2000CEC01F0010E0001A26F1E50100A6CE101
:101F0200BD0E0501FF6F000E0601006F790EF66E21
:101F1200810EF76E000EF86E380EE16E050EE26E5F
:101F2200110E006E010E016E2AEC05F0380E016FE3
:101F3200050E026F100E036F000E046F0CEC01F021
:101F4200010E0001A26F02019A51000A22E1A90EBC
:101F52000501FF6F000E0601006F4E0E0501496F6D
:101F62006F0E4A6F200E4B6F200E4C6F200E4D6F7E
:101F7200200E4E6F200E4F6F506B490E0601016FFF
:101F8200050E026F070E036F000E046F0CEC01F0DA
:101F920023D0A90E0501FF6F000E0601006F590E36
:101FA2000501516F650E526F730E536F200E546F01
:101FB200200E556F200E566F200E576F200E586F51
:101FC200596B510E0601016F050E026F080E036F69
:101FD200000E046F0CEC01F01E50110A6CE1BD0EF4
:101FE2000501FF6F000E0601006F9B0EF66E810E5B
:101FF200F76E000EF86E5A0EE16E050EE26E110ECD
:10200200006E010E016E2AEC05F05A0E016F050EEC
:10201200026F100E036F000E046F0CEC01F0010E44
:102022000001A26F0201A451000A22E1A90E0501DA
:10203200FF6F000E0601006F4E0E05016B6F6F0EF3
:102042006C6F200E6D6F200E6E6F200E6F6F200E64
:10205200706F200E716F726B6B0E0601016F050EB1
:10206200026F070E036F000E046F0CEC01F023D019
:10207200A90E0501FF6F000E0601006F590E050142
:10208200736F650E746F730E756F200E766F200E70
:10209200776F200E786F200E796F200E7A6F7B6B30
:1020A200730E0601016F050E026F080E036F000E1C
:1020B200046F0CEC01F01E50120A6CE1BD0E05011A
:1020C200FF6F000E0601006FBD0EF66E810EF76EF9
:1020D200000EF86E7C0EE16E050EE26E110E006EC1
:1020E200010E016E2AEC05F07C0E016F050E026FE7
:1020F200100E036F000E046F0CEC01F0010E0001D4
:10210200A26F01018F51000A22E1A90E0501FF6FA2
:10211200000E0601006F4E0E05018D6F6F0E8E6F61
:10212200200E8F6F200E906F200E916F200E926FF7
:10213200200E936F946B8D0E0601016F050E026FD8
:10214200070E036F000E046F0CEC01F023D0A90EF2
:102152000501FF6F000E0601006F590E0501956F14
:10216200650E966F730E976F200E986F200E996F03
:10217200200E9A6F200E9B6F200E9C6F9D6B950E0A
:102182000601016F050E026F080E036F000E046F49
:102192000CEC01F01E50130A6CE1BD0E0501FF6F3D
:1021A200000E0601006FDF0EF66E810EF76E000E56
:1021B200F86E9E0EE16E050EE26E110E006E010EBD
:1021C200016E2AEC05F09E0E016F050E026F100ED5
:1021D200036F000E046F0CEC01F0010E0001A26F00
:1021E20001019151000A22E1A90E0501FF6F000EC3
:1021F2000601006F4E0E0501AF6F6F0EB06F200E1D
:10220200B16F200EB26F200EB36F200EB46F200E8E
:10221200B56FB66BAF0E0601016F050E026F070EAA
:10222200036F000E046F0CEC01F023D0A90E050120
:10223200FF6F000E0601006F590E0501B76F650EA4
:10224200B86F730EB96F200EBA6F200EBB6F200EDF
:10225200BC6F200EBD6F200EBE6FBF6BB70E0601A6
:10226200016F050E026F080E036F000E046F0CEC77
:1022720001F01E50140A2CE1BD0E0501FF6F000E85
:102282000601006F010EF66E820EF76E000EF86EFA
:10229200C00EE16E050EE26E110E006E010E016EB1
:1022A2002AEC05F0C00E016F050E026F100E036FCF
:1022B200000E046F0CEC01F0010E0001A26FABC125
:1022C200F3F5A90E0501F46F000EF56FFFEC05F0B2
:1022D2001E50150A23E1BD0E0501FF6F000E060117
:1022E200006F120EF66E820EF76E000EF86ED10EB1
:1022F200E16E050EE26E110E006E010E016E2AEC09
:1023020005F0D10E016F050E026F100E036F000E65
:10231200046F0CEC01F0010E0001A26F1E50160AB0
:1023220023E1BD0E0501FF6F000E0601006F230EB3
:10233200F66E820EF76E000EF86EE20EE16E050E7C
:10234200E26E110E006E010E016E2AEC05F0E20E35
:10235200016F050E026F100E036F000E046F0CEC7E
:1023620001F0010E0001A26F650E0101436F120020
:102372000301D951000A04E0DA51000A01E002D057
:10238200F28801D0F298D9C3B5F0DAC3B8F01200DE
:102392000301D951010A17E1DAB102D0829201D0C8
:1023A2008282060E0B6E130E0C6EAD0E0D6E0D2E8E
:1023B200FED70C2EFCD70B2EFAD700000000010E20
:1023C2000001DF6F81860301D951020A17E1DAB1F8
:1023D20002D0829001D08280060E0B6E130E0C6E1C
:1023E200AD0E0D6E0D2EFED70C2EFCD70B2EFAD78E
:0E23F20000000000010E0001E06F8188120063
:102400009E96D9C3C9FFC7A401D0FDD79EB601D0FF
:10241000FDD7C5BC02D0006A03D0C584020E006E91
:022420001200A8
:04242200C58412005B
:10242600D9C3FFF50501FF33FF9FDAC300F6DBC30F
:1024360001F67DEC01F0030E0301DA250501FF6FBD
:10244600000E0301DB210601006F730E0301DC6F32
:10245600200EDD6F200EDE6FDF6BDC0E0601016FD6
:10246600030E026F040E036F000E046F0CEC01F0F6
:02247600120052
:10247800C26A070EC012C08ED9C300F000360090A1
:10248800003600900050C212C28025EC05F0C282CE
:10249800C2A201D0FDD7C4CF01F0006AC350001218
:0824A800000E0112C2901200A7
:1024B00083A003D083A201D003D0010E006E1200CE
:0424C000006A12009C
:1024C4000201BF6B83B801D0BF8183BA01D0BF833F
:0624D400BFC200F012007F
:1024DA000201C36B050EC35D0AE2C351C125E16E59
:1024EA00000EC221E26E300EE66EC32BF3D7C35143
:1024FA00C125E16E000EC221E26EE66AC307000E34
:10250A00C01902E1000EBF192CE0C351C125C46FE6
:10251A00000EC221C56F0A0E046E000E056EBFC200
:10252A0000F0C0C201F0C6EC00F008C000F009C01B
:10253A0001F0300E0026C4C2E1FFC5C2E2FF00C0AE
:10254A00E6FFC3070A0E046E000E056EBFC200F056
:10255A00C0C201F0C6EC00F000C0BFF201C0C0F278
:04256A00CED71200B6
:10256E000201C06BC16BC26B83BA02D0C28101D0B3
:10257E00C29184B002D0C28301D0C29383B802D07C
:10258E00C28501D0C295C251000A18E12D50000A31
:10259E0007E10101D96BF76B2D6A0201BF6B096B65
:1025AE002D50010A0BE1050E00018F5D07E30101BD
:1025BE00D96BF76B2D6A0201BF6B096B0101D95103
:1025CE00010A0EE10001BB51905D0AE3010E02010A
:1025DE00096F0001906B190E0101F75D01E2F72BF7
:1025EE000201C251000A23E02D50010A20E101012F
:1025FE00D951000A1CE1020ED525016E000ED6211E
:10260E00026E000ED721036E000ED821046E1951F2
:10261E00041808E11851031805E11751021802E1D8
:10262E001651011804E1010ED96F0001906B0201E1
:10263E00C251000A09E02D50010A06E10101D951EB
:10264E00000A02E10201BF6B0201C251000A0DE055
:10265E002D50010A0AE10101D951010A06E10201D8
:10266E00C2510903F3CFBFF2096B0201C251000A36
:10267E0011E02D50000A0EE1C2C2BFF2010E2D6E06
:10268E0016C1D5F117C1D6F118C1D7F119C1D8F1BC
:10269E0000018F6B0201BF51000A03E0010E010120
:0826AE001A6FBFC200F0120018
:1026B6000201C36BC46BBF51010A03E1C051800F15
:1026C600C46FBF51020A03E1C051C00FC46F47EC8B
:1026D60009F07C0E0301D96F90DE800E0301D96FDD
:1026E6008CDEC4C2D9F389DE400E0301D96F85DEC4
:1026F6000201C351C125E96E000EC221EA6EEE50F9
:102706000A0A0FE0C35110080CE3C351C125E96E54
:10271600000EC221EA6EEECFD9F36FDE0201C32BA3
:10272600E7D77CDE0D0E0C6EFB0E0D6E0D2EFED762
:0A2736000C2EFCD70000000012007A
:102740000201BF6B2BB002D0BF9101D0BF812CB072
:1027500002D0BF9301D0BF832B6A2C6A140E0101F3
:10276000435D0FE20201BFB104D09BB502D0BF911F
:1027700001D0BF81BFB304D09BB102D0BF9301D0C1
:08278000BF83BFC200F012008C
:102788000201C06BC16B3F0EBF15026E02C0BFF2E3
:10279800540EC06F02C000F00032009E0032009E4E
:1027A8000032009E0032009E540E0010C06F700E62
:1027B800C16F0F0E0214006E700E0010C16F47EC4F
:1027C80009F07C0E0301D96F17DE800E0301D96F63
:1027D80013DEC0C2D9F310DE800E0301D96F0CDE00
:1027E800C1C2D9F309DE19DE0D0E0C6EFB0E0D6E9B
:0E27F8000D2EFED70C2EFCD7000000001200A4
:1028060002019BA302D000018E2B00018E51010A0A
:1028160023E1BD0E0501FF6F000E0601006F4E0E8F
:10282600016F000E026F100E036F000E046F0CECAA
:1028360001F0A30E0501FF6F000E0601006F5E0E8C
:10284600016F000E026F100E036F000E046F0CEC8A
:1028560001F0010E0001A26F8E51020A23E1BD0EA6
:102866000501FF6F000E0601006F6E0E016F000E70
:10287600026F100E036F000E046F0CEC01F0A30E36
:102886000501FF6F000E0601006F7E0E016F000E40
:10289600026F100E036F000E046F0CEC01F0010EB8
:1028A6000001A26F8E51030A03E1640E0101436F1A
:0228B60012000E
:1028B80047EC09F07C0E0301D96F9EDD800E030101
:1028C800D96F9ADD0201BF51020A04E1380E0301F3
:1028D800D96F92DD0201BF51010A04E1340E0301F0
:1028E800D96F8ADD800E0301D96F86DD0201BF51E1
:1028F800020A04E1390E0301D96F7EDD0201BF51DE
:10290800010A04E1350E0301D96F76DD800E03015B
:10291800D96F72DD1C0E0301D96F6EDD800E0301C5
:10292800D96F6ADD720E0301D96F66DD800E03016F
:10293800D96F62DD550E0301D96F5EDD800E03018C
:10294800D96F5ADD6C0E0301D96F56DD800E030175
:10295800D96F52DD0C0E0301D96F4EDD800E0301D5
:10296800D96F4ADD010E0301D96F46DD800E0301E0
:10297800D96F42DD060E0301D96F3EDD800E0301DB
:10298800D96F3ADD020E0301D96F36DD46DD12003C
:10299800949894968B988B9694889486C79EC79C97
:0629A800380EC66E12009D
:1029AE00010E1D6E02019BA31CD01D6A1B6A650ED3
:1029BE000101436FB1EC0BF01E50000A12E102014F
:1029CE000C6B1F50000A05E1C80E0101436F010E8A
:1029DE001C6E1F50010A05E10101C90E436F010E65
:1029EE001C6E1E50000A16E102019BA108D01F505A
:1029FE00000805E21F06B1EC0BF0660E436F0201F4
:102A0E009BA508D0010E1F5C05E21F2AB1EC0BF04E
:102A1E00660E436F1E50010A18E102019BA109D0F8
:102A2E000101A851000805E2A807B1EC0BF0660EF3
:102A3E00436F02019BA509D0FF0E0101A85D05E2BF
:102A4E00A82BB1EC0BF0660E436F1E50020A16E176
:102A5E0002019BA108D09951000805E29907B1EC3B
:102A6E000BF0660E436F02019BA508D0FF0E995D19
:102A7E0005E2992BB1EC0BF0660E436F1E50030A64
:102A8E0018E102019BA109D00101A951000805E23C
:102A9E00A907B1EC0BF0660E436F02019BA509D09E
:102AAE00FF0E0101A95D05E2A92BB1EC0BF0660E3C
:102ABE00436F1E50040A18E102019BA109D00101C7
:102ACE00AA51000805E2AA07B1EC0BF0660E436F9F
:102ADE0002019BA509D0FF0E0101AA5D05E2AA2BFA
:102AEE00B1EC0BF0660E436F1E50050A18E10201A1
:102AFE009BA109D00101A751000805E2A707B1EC7F
:102B0E000BF0660E436F02019BA509D0FF0E01016B
:102B1E00A75D05E2A72BB1EC0BF0660E436F1E50BE
:102B2E00060A18E102019BA109D00101A451000877
:102B3E0005E2A407B1EC0BF0660E436F02019BA5F4
:102B4E0009D0FF0E0101A45D05E2A42BB1EC0BF040
:102B5E00660E436F1E50070A18E102019BA109D0B1
:102B6E000101A551000805E2A507B1EC0BF0660EB8
:102B7E00436F02019BA509D0FF0E0101A55D05E281
:102B8E00A52BB1EC0BF0660E436F1E50080A18E130
:102B9E0002019BA109D00101A651000805E2A6077A
:102BAE00B1EC0BF0660E436F02019BA509D0FF0E30
:102BBE000101A65D05E2A62BB1EC0BF0660E436F8C
:102BCE001E50090A16E102019BA108D020500108EF
:102BDE0005E22006B1EC0BF0660E436F02019BA5D9
:102BEE0008D00F0E205C05E2202AB1EC0BF0660E29
:102BFE00436F1E500A0A16E102019BA108D01A501B
:102C0E00010805E21A06B1EC0BF0660E436F0201E5
:102C1E009BA508D00F0E1A5C05E21A2AB1EC0BF038
:102C2E00660E436F1E500B0A18E102019BA109D0DC
:102C3E000101AC51010805E2AC07B1EC0BF0660ED8
:102C4E00436F02019BA509D00A0E0101AC5D05E29E
:102C5E00AC2BB1EC0BF0660E436F1E500C0A18E154
:102C6E0002019BA109D001019051010805E29007D4
:102C7E00B1EC0BF0660E436F02019BA509D00A0E54
:102C8E000101905D05E2902BB1EC0BF0660E436FE7
:102C9E001E500D0A18E102019BA109D00101BC5181
:102CAE00000805E2BC07B1EC0BF0660E436F0201A3
:102CBE009BA509D0FF0E0101BC5D05E2BC2BB1EC5A
:102CCE000BF0660E436F1E500E0A22E102019BA10D
:102CDE0010D0000E006E0B51005C02E10A5100088C
:102CEE0008E2010E0A5F000E0B5BB1EC0BF0660EF4
:102CFE00436F02019BA50CD0FD0E0B5D02E1E80EA9
:102D0E000A5D06E20A4B0B2BB1EC0BF0660E436F1D
:102D1E001E500F0A1FE10101436BBD0E0501FF6F2F
:102D2E00000E0601006F920E016F010E026F100E63
:102D3E00036F000E046F0CEC01F0010E0001B46F76
:102D4E001D6A1B6A010EA26F010E1C6E78EC0BF051
:102D5E00A7EC06F01E50100A16E102019BA108D046
:102D6E009A51000805E29A07B1EC0BF0660E436F1C
:102D7E0002019BA508D0010E9A5D05E29A2BB1ECDB
:102D8E000BF0660E436F1E50110A16E102019BA155
:102D9E0008D0A451000805E2A407B1EC0BF0660EB2
:102DAE00436F02019BA508D0010EA45D05E2A42B82
:102DBE00B1EC0BF0660E436F1E50120A18E10201C1
:102DCE009BA109D001018F51000805E28F07B1ECDC
:102DDE000BF0660E436F02019BA509D0010E010197
:102DEE008F5D05E28F2BB1EC0BF0660E436F1E501C
:102DFE00130A18E102019BA109D0010191510008AB
:102E0E0005E29107B1EC0BF0660E436F02019BA534
:102E1E0009D0010E0101915D05E2912BB1EC0BF091
:102E2E00660E436F1E50140A21E102019BA10DD0C4
:102E3E000101AB51000809E2AB07AB51090A01E1F0
:102E4E00AB6BB1EC0BF0660E436F02019BA50ED07F
:102E5E00FF0E0101AB5D0AE2AB2BAB51010A02E1A1
:102E6E000A0EAB6FB1EC0BF0660E436F1E50150AD7
:102E7E001BE10101670E436FBD0E0501FF6F000ED2
:102E8E000601006F920E016F010E026F100E036F9E
:102E9E00000E046F0CEC01F01D6A010E0001B46F00
:102EAE00010EA26F010E1C6E1E50160A1CE10101CE
:102EBE00436BBD0E0501FF6F000E0601006F920EF3
:102ECE00016F010E026F100E036F000E046F0CECFB
:102EDE0001F01D6A010E0001B46F010EA26F7AECB3
:082EEE0007F0010E1C6E12003A
:102EF60002019BA10AD01E50000A03E1160E1E6EA7
:102F060001D01E06640E0101436F02019BA509D084
:102F16001E50160A02E11E6A01D01E2A640E010125
:102F2600436F02019BA303D0660E0101436F0201AA
:102F36009B51050A2AE1BD0E0501FF6F000E060131
:102F4600006F2E0E016F000E026F100E036F000E43
:102F5600046F0CEC01F000018E6BA30E0501FF6FF0
:102F6600000E0601006F3E0E016F000E026F100E7E
:102F7600036F000E046F0CEC01F0020E0001B46F3B
:0C2F8600010EA26FFA0E0101436F120051
:102F9200540E0101C66F010EC76F060EC86F060EF2
:102FA200C96FFF0EC26FFF0EC36F000EC46F000E1B
:102FB200C56FFF0EBE6FFF0EBF6F000EC06F000E1B
:102FC200C16FFF0ECA6FFF0ECB6F000ECC6F000EEB
:102FD200CD6FAC8A900EAB6E948E949C9EAA03D059
:082FE200AECF00F0FBD7120096
:102FEA000201BF6B0301D96B3CEC12F000C0D0F1B7
:102FFA0001C0D1F1010E0301D96F3CEC12F000C0FF
:10300A00CEF101C0CFF10001B951000A03E101017B
:10301A002F6B306B0001B651000A03E101011B6BF3
:10302A001C6B0001B551000A1DE001018A51D15DF6
:10303A0002E18951D05D09E2FF0E305D02E1FA0E2C
:10304A002F5D02E22F4B302B0CD0000E006E305158
:10305A00005C02E12F51000804E2010E2F5F000E0E
:10306A00305B03D001012F6B306B30518C5D02E174
:10307A002F518B5D02E20201BF810001B851000AA3
:10308A001DE001018E51CF5D02E18D51CE5D09E255
:10309A00FF0E1C5D02E1FA0E1B5D02E21B4B1C2BAC
:1030AA000CD0000E006E1C51005C02E11B5100089E
:1030BA0004E2010E1B5F000E1C5B03D001011B6BB7
:1030CA001C6B1C51A35D02E11B51A25D02E20201CD
:0830DA00BF83BFC200F0120029
:1030E200838E010E0001BC6F010E0301D96F27EC24
:1030F20009F000522DE0010E0301D96FDA6BC9EC21
:1031020011F0530E0201BF6F370EC06F200EC16F58
:103112004D0EC26F6F0EC36F740EC46F6F0EC56F0C
:10312200720EC66F310EC76F530EC86F740EC96F21
:10313200610ECA6F720ECB6F740ECC6FCD6BBF0E69
:103142000301D96F020EDA6F010EDB6F68EC09F032
:10315200020E0301D96F27EC09F0005252E0020E71
:103162000301D96FDA6BC9EC11F0530E0201CE6F75
:10317200370ECF6F200ED06F4D0ED16F6F0ED26F04
:10318200740ED36F6F0ED46F720ED56F320ED66F70
:10319200530ED76F740ED86F610ED96F720EDA6F3D
:1031A200740EDB6FDC6BCE0E0301D96F020EDA6F89
:1031B200010EDB6F68EC09F0BD0E0501FF6F000E1A
:1031C2000601006FE20E016F000E026F100E036F18
:1031D200000E046F0CEC01F0A30E0501FF6F000E50
:1031E2000601006F910E016F000E026F100E036F49
:1031F200000E046F0CEC01F0010E0001A26F010E33
:10320200B46F0A0E0301D96F27EC09F0005221E0D6
:10321200010E0001B96F010E0301D96F65EC0BF0CD
:10322200C70EF66E860EF76E000EF86EDD0EE16EBC
:10323200020EE26E150E006E010E016E2AEC05F012
:10324200DD0E0301D96F020EDA6F010EDB6F68EC3F
:1032520009F00B0E0301D96F27EC09F0005221E0AF
:10326200010E0001B66F020E0301D96F65EC0BF07F
:10327200DC0EF66E860EF76E000EF86EF20EE16E42
:10328200020EE26E150E006E010E016E2AEC05F0C2
:10329200F20E0301D96F020EDA6F010EDB6F68ECDA
:1032A20009F0050E0301D96F27EC09F000522FE057
:1032B200010E0301D96FB8C0DAF3B9EC11F00001C5
:1032C200BA6B530E0301076F370E086F200E096F9A
:1032D2004D0E0A6F310E0B6F200E0C6F530E0D6FD9
:1032E200700E0E6F650E0F6F650E106F640E116F0C
:1032F200200E126F550E136F500E146F156B070EC2
:10330200D96F030EDA6F010EDB6F68EC09F0060E5F
:103312000301D96F27EC09F000522FE0B5C0D9F3B1
:10332200010E0301DA6FB9EC11F00001B76B530E15
:103332000301166F370E176F200E186F4D0E196F9F
:10334200320E1A6F200E1B6F530E1C6F700E1D6F04
:10335200650E1E6F650E1F6F640E206F200E216FAB
:10336200550E226F500E236F246B160ED96F030E6B
:10337200DA6F010EDB6F68EC09F0030E0301D96FFF
:1033820027EC09F0005209E10001B951010A04E1F8
:103392000201A0A101D001D02BD00001F3A128D0BD
:1033A200F391010E0301D96FA5EC08F0530E03014E
:1033B200256F370E266F200E276F4D0E286F310EA8
:1033C200296F200E2A6F530E2B6F740E2C6F6F0E07
:1033D2002D6F700E2E6F650E2F6F640E306F316B76
:1033E200250ED96F030EDA6F010EDB6F68EC09F060
:1033F200040E0301D96F27EC09F0005209E1000124
:10340200B651010A04E10201A0A301D001D02BD0E0
:103412000001F3A328D0F393020E0301D96FA5ECA8
:1034220008F0530E0301326F370E336F200E346FE4
:103432004D0E356F320E366F200E376F530E386FCA
:10344200740E396F6F0E3A6F700E3B6F650E3C6FE4
:10345200640E3D6F3E6B320ED96F030EDA6F010EB2
:10346200DB6F68EC09F002019951000A05E00101E5
:103472003151010A01E002D00001F3930201A1A13E
:1034820055D0010E0301D96FA5EC08F0020E03011D
:10349200D96FA5EC08F00001B96BB66B060E0101FD
:1034A200436F010E1D6F290EF66E870EF76E000E2A
:1034B200F86E3F0EE16E030EE26E110E006E010E0B
:1034C200016E2AEC05F03F0E0301D96F030EDA6F8D
:1034D200010EDB6F68EC09F0090E0301D96F5BEC9A
:1034E2000AF0BD0E0501FF6F000E0601006F550EBA
:1034F200016F010E026F100E036F000E046F0CECD1
:1035020001F0A30E0501FF6F000E0601006F320EDF
:10351200016F010E026F100E036F000E046F0CECB0
:1035220001F0010E0001A26F020EB46F02019F5161
:10353200000A53E0010E0301D96FA5EC08F0020E58
:103542000301D96FA5EC08F0060E0101436F0001DB
:10355200B96BB66B3A0EF66E870EF76E000EF86E0A
:10356200500EE16E030EE26E120E006E010E016E3F
:103572002AEC05F0500E0301D96F030EDA6F010E2B
:10358200DB6F68EC09F0090E0301D96F5BEC0AF0FE
:10359200BD0E0501FF6F000E0601006F550E016F93
:1035A200010E026F100E036F000E046F0CEC01F09F
:1035B200A30E0501FF6F000E0601006F660E016F7C
:1035C200010E026F100E036F000E046F0CEC01F07F
:1035D200010E0001A26F020EB46F0201A251010A94
:1035E20055E1A45353E0010E0301D96FA5EC08F095
:1035F200020E0301D96FA5EC08F0060E0101436F1C
:103602000001B96BB66B4C0EF66E870EF76E000EAC
:10361200F86E620EE16E030EE26E150E006E010E82
:10362200016E2AEC05F0620E0301D96F030EDA6F08
:10363200010EDB6F68EC09F0090E0301D96F5BEC38
:103642000AF0BD0E0501FF6F000E0601006F550E58
:10365200016F010E026F100E036F000E046F0CEC6F
:1036620001F0A30E0501FF6F000E0601006F770E39
:10367200016F010E026F100E036F000E046F0CEC4F
:1036820001F0010E0001A26F020EB46F0001F351AE
:10369200000A2EE1010E0101436F886B090E03013E
:1036A200D96F5BEC0AF0BD0E0501FF6F000E06013B
:1036B200006F1E0E016F010E026F100E036F000EDF
:1036C200046F0CEC01F0A30E0501FF6F000E060162
:1036D200006F910E016F000E026F100E036F000E4D
:1036E200046F0CEC01F0010E0001A26F010EB46F29
:1036F20001014351050A04E04351060A01E051D099
:103702000301D96B5BEC0AF0000E02010B1902E116
:10371200000E0A1946E00A51010116250301D96F6C
:1037220002010B51010117210301DA6F000E0101A1
:1037320018210301DB6F000E010119210301DC6F67
:10374200090EDD6FB4EC08F0610EF66E870EF76EAF
:10375200000EF86E770EE16E030EE26E150E006E2D
:10376200010E016E2AEC05F0770ED96F030EDA6FA7
:10377200010EDB6F68EC09F0A30E0501FF6F000E6E
:103782000601006FF40E016F000E026F100E036F40
:10379200000E046F0CEC01F0010E0001A26F020E8C
:0437A200B46F1200EE
:1037A60011D2838E02019FA108D0020E0101DA6FA9
:1037B60002010C2B010E01011A6F02019FA309D011
:1037C600010E0101DA6F030E02010C6F010E0101F9
:1037D6001A6F0001B96BB66B2ED2020E0301D96FB8
:1037E600DA6BC9EC11F0060E010116250301D96F3B
:1037F600000E010117210301DA6F000E01011821E5
:103806000301DB6F000E010119210301DC6F150EA8
:10381600DD6FB4EC08F002010C2B0DD2A0A30CD086
:103826000001B651010A08E1B66B020E0301D96F19
:10383600A5EC08F002010C2B150E0301D96F27EC3D
:1038460009F0005203E0010E0001B66FF4D1010E3B
:103856000301D96FDA6BC9EC11F0060E01011625CA
:103866000301D96F000E010117210301DA6F000E63
:10387600010118210301DB6F000E0101192103016B
:10388600DC6F140EDD6FB4EC08F002010C2BA0A166
:103896000CD00001B951010A08E1B96B010E030110
:1038A600D96FA5EC08F002010C2B140E0301D96F99
:1038B60027EC09F0005203E0010E0001B96FBBD1FD
:1038C60016C1DBF117C1DCF118C1DDF119C1DEF15A
:1038D600010E0301D96F010EDA6FC9EC11F0060E65
:1038E600010116250301D96F000E010117210301FD
:1038F600DA6F000E010118210301DB6F000E0101D2
:1039060019210301DC6F140EDD6FB4EC08F002011F
:103916000C2B91D1A0A11AD00001B951010A16E1D0
:10392600B96B010E0301D96FA5EC08F00101DA515C
:10393600010A04E10B0E02010C6F02D002010C2BEE
:103946000101DB51165D006E00C0E0F1140E0301AB
:10395600D96F27EC09F0005203E0010E0001B96FA0
:103966006AD116C1DBF117C1DCF118C1DDF119C14D
:10397600DEF1020E0301D96F010EDA6FC9EC11F008
:10398600060E010116250301D96F000E010117214C
:103996000301DA6F000E010118210301DB6F000E2F
:1039A600010119210301DC6F150EDD6FB4EC08F07F
:1039B60002010C2B40D1A0A312D00001B651010A7E
:1039C6000EE1B66B020E0301D96FA5EC08F00201F9
:1039D6000C2B0101DB51165D006E00C0E2F1150EE5
:1039E6000301D96F27EC09F0005203E0010E000134
:1039F600B66F21D116C1DBF117C1DCF118C1DDF1BB
:103A060019C1DEF1020E0301D96FDA6BC9EC11F0B0
:103A1600060E010116250301D96F000E01011721BB
:103A26000301DA6F000E010118210301DB6F000E9E
:103A3600010119210301DC6F150EDD6FB4EC08F0EE
:103A460002010C2BF8D0A0A312D00001B651010A36
:103A56000EE1B66B020E0301D96FA5EC08F0020168
:103A66000C2B0101DB51165D006E00C0E1F1150E55
:103A76000301D96F27EC09F0005203E0010E0001A3
:103A8600B66FD9D016C1DBF117C1DCF118C1DDF173
:103A960019C1DEF1010E0301D96FDA6BC9EC11F021
:103AA600060E010116250301D96F000E010117212B
:103AB6000301DA6F000E010118210301DB6F000E0E
:103AC600010119210301DC6F140EDD6FB4EC08F05F
:103AD60002010C2BB0D0A0A112D00001B951010AED
:103AE6000EE1B96B010E0301D96FA5EC08F00201D6
:103AF6000C2B0101DB51165D006E00C0DFF1140EC8
:103B06000301D96F27EC09F0005203E0010E000112
:103B1600B96F91D0DF0E0301D96F010EDA6F1DEC7C
:103B260008F0DF0ED96F010EDA6FDAC1DBF3A5EC10
:103B36000AF0BD0E0501FF6F000E0601006F4A0E6A
:103B4600F66E880EF76E000EF86EBF0EE16E020E70
:103B5600E26E110E006E010E016E2AEC05F0BF0E2C
:103B6600016F020E026F100E036F000E046F0CEC55
:103B760001F0A30E0501FF6F000E0601006F5B0E3C
:103B8600F66E880EF76E000EF86ED00EE16E020E1F
:103B9600E26E110E006E010E016E2AEC05F0D00EDB
:103BA600016F020E026F100E036F000E046F0CEC15
:103BB60001F0020E0001B46F010EA26F839E010197
:103BC600436B39D002010C51000AD8B4EAD50C5126
:103BD600010AD8B402D60C51020AD8B41FD60C5129
:103BE600030AD8B434D60C51040AD8B450D60C51B2
:103BF600050AD8B465D60C51060AD8B48BD60C5132
:103C0600070AD8B4AED60C51080AD8B4D4D60C518B
:103C1600090AD8B4EFD60C510A0AD8B414D70C51F5
:103C26000B0AD8B42FD70C510C0AD8B454D70C5160
:083C36000D0AD8B46FD712008B
:0A3C3E00A7EC06F00101436B120031
:103C4800838E010E0001BC6F010E0301D96F27ECB2
:103C580009F000522DE0010E0301D96FDA6BC9ECAF
:103C680011F0530E0201BF6F340EC06F200EC16FEA
:103C78004D0EC26F6F0EC36F740EC46F6F0EC56F9B
:103C8800720EC66F310EC76F530EC86F740EC96FB0
:103C9800610ECA6F720ECB6F740ECC6FCD6BBF0EF8
:103CA8000301D96F020EDA6F010EDB6F68EC09F0C1
:103CB800020E0301D96F27EC09F0005252E0020E00
:103CC8000301D96FDA6BC9EC11F0530E0201CE6F04
:103CD800340ECF6F200ED06F4D0ED16F6F0ED26F96
:103CE800740ED36F6F0ED46F720ED56F320ED66FFF
:103CF800530ED76F740ED86F610ED96F720EDA6FCC
:103D0800740EDB6FDC6BCE0E0301D96F020EDA6F17
:103D1800010EDB6F68EC09F0BD0E0501FF6F000EA8
:103D28000601006FE20E016F000E026F100E036FA6
:103D3800000E046F0CEC01F0A30E0501FF6F000EDE
:103D48000601006F910E016F000E026F100E036FD7
:103D5800000E046F0CEC01F0010E0001A26F010EC1
:103D6800B46F0A0E0301D96F27EC09F0005221E065
:103D7800010E0001B96F010E0301D96F65EC0BF05C
:103D8800DB0EF66E840EF76E000EF86EDD0EE16E39
:103D9800020EE26E150E006E010E016E2AEC05F0A1
:103DA800DD0E0301D96F020EDA6F010EDB6F68ECCE
:103DB80009F00B0E0301D96F27EC09F0005221E03E
:103DC800010E0001B66F020E0301D96F65EC0BF00E
:103DD800F00EF66E840EF76E000EF86EF20EE16EBF
:103DE800020EE26E150E006E010E016E2AEC05F051
:103DF800F20E0301D96F020EDA6F010EDB6F68EC69
:103E080009F0050E0301D96F27EC09F0005230E0E4
:103E1800010E0301D96FB8C0DAF3B9EC11F0000153
:103E2800B96BBA6B530E0301076F340E086F200E7F
:103E3800096F4D0E0A6F310E0B6F200E0C6F530E6B
:103E48000D6F700E0E6F650E0F6F650E106F640E9E
:103E5800116F200E126F550E136F500E146F156BE5
:103E6800070ED96F030EDA6F010EDB6F68EC09F0ED
:103E7800070E0301D96F27EC09F0005223E0030174
:103E8800D96BB8C0DAF3B9EC11F00001B96B010EC7
:103E9800BA6F140EF66E850EF76E000EF86E160EDB
:103EA800E16E030EE26E110E006E010E016E2AEC39
:103EB80005F0160E0301D96F030EDA6F010EDB6FE2
:103EC80068EC09F0060E0301D96F27EC09F00052DF
:103ED8002FE0B5C0D9F3010E0301DA6FB9EC11F088
:103EE8000001B76B530E0301276F340E286F200EA5
:103EF800296F4D0E2A6F320E2B6F200E2C6F530E2A
:103F08002D6F700E2E6F650E2F6F650E306F640E5D
:103F1800316F200E326F550E336F500E346F356B84
:103F2800270ED96F030EDA6F010EDB6F68EC09F00C
:103F3800080E0301D96F27EC09F0005222E0B5C042
:103F4800D9F30301DA6BB9EC11F0010E0001B76F78
:103F5800340EF66E850EF76E000EF86E360EE16EB4
:103F6800030EE26E110E006E010E016E2AEC05F0D2
:103F7800360E0301D96F030EDA6F010EDB6F68ECA2
:103F880009F0030E0301D96F27EC09F0005229E06C
:103F98000001F391010E0301D96FA5EC08F0530E4F
:103FA8000301476F340E486F200E496F4D0E4A6F5C
:103FB800310E4B6F200E4C6F530E4D6F740E4E6FBB
:103FC8006F0E4F6F700E506F650E516F640E526F0B
:103FD800536B470ED96F030EDA6F010EDB6F68EC77
:103FE80009F0040E0301D96F27EC09F0005229E00B
:103FF8000001F393020E0301D96FA5EC08F0530EEC
:104008000301546F340E556F200E566F4D0E576FC7
:10401800320E586F200E596F530E5A6F740E5B6F25
:104028006F0E5C6F700E5D6F650E5E6F640E5F6F76
:10403800606B540ED96F030EDA6F010EDB6F68ECFC
:1040480009F00001B951010A5AE10201A0A157D0B3
:104058000001BA51000A53E1010E0301D96FA5EC22
:1040680008F0020E0301D96FA5EC08F0060E010155
:10407800436F0001B96BB66B5F0EF66E850EF76E77
:10408800000EF86E610EE16E030EE26E110E006E08
:10409800010E016E2AEC05F0610E0301D96F030EC3
:1040A800DA6F010EDB6F68EC09F0090E0301D96FB6
:1040B8005BEC0AF0BD0E0501FF6F000E0601006FF4
:1040C800550E016F010E026F100E036F000E046F84
:1040D8000CEC01F0A30E0501FF6F000E0601006F46
:1040E800440E016F010E026F100E036F000E046F75
:1040F8000CEC01F0010E0001A26F020EB46F00017A
:10410800B651010A5AE10201A0A357D00001B751E4
:10411800000A53E1010E0301D96FA5EC08F0020E65
:104128000301D96FA5EC08F0060E0101436F0001E9
:10413800B96BB66B700EF66E850EF76E000EF86EE4
:10414800720EE16E030EE26E110E006E010E016E2C
:104158002AEC05F0720E0301D96F030EDA6F010E17
:10416800DB6F68EC09F0090E0301D96F5BEC0AF00C
:10417800BD0E0501FF6F000E0601006F550E016FA1
:10418800010E026F100E036F000E046F0CEC01F0AD
:10419800A30E0501FF6F000E0601006F440E016FAC
:1041A800010E026F100E036F000E046F0CEC01F08D
:1041B800010E0001A26F020EB46F02019951000AAC
:1041C80005E001013151010A01E002D00001F39339
:1041D8000201A1A155D0010E0301D96FA5EC08F089
:1041E800020E0301D96FA5EC08F00001B96BB66B9C
:1041F800060E0101436F010E1D6F810EF66E850ECE
:10420800F76E000EF86E830EE16E030EE26E110E6D
:10421800006E010E016E2AEC05F0830E0301D96FC2
:10422800030EDA6F010EDB6F68EC09F0090E03016B
:10423800D96F5BEC0AF0BD0E0501FF6F000E060199
:10424800006F550E016F010E026F100E036F000E06
:10425800046F0CEC01F0A30E0501FF6F000E0601C0
:10426800006F320E016F010E026F100E036F000E09
:10427800046F0CEC01F0010E0001A26F020EB46F86
:104288000201A251010A55E1A45353E0010E0301B2
:10429800D96FA5EC08F0020E0301D96FA5EC08F060
:1042A800060E0101436F0001B96BB66B920EF66EF4
:1042B800850EF76E000EF86E940EE16E030EE26E38
:1042C800150E006E010E016E2AEC05F0940E030126
:1042D800D96F030EDA6F010EDB6F68EC09F0090E77
:1042E8000301D96F5BEC0AF0BD0E0501FF6F000EEC
:1042F8000601006F550E016F010E026F100E036F5D
:10430800000E046F0CEC01F0A30E0501FF6F000E08
:104318000601006F770E016F010E026F100E036F1A
:10432800000E046F0CEC01F0010E0001A26F020EEA
:10433800B46F02019F51000A53E0010E0301D96FC7
:10434800A5EC08F0020E0301D96FA5EC08F0060EE3
:104358000101436F0001B96BB66BA70EF66E850EAF
:10436800F76E000EF86EA90EE16E030EE26E120EE5
:10437800006E010E016E2AEC05F0A90E0301D96F3B
:10438800030EDA6F010EDB6F68EC09F0090E03010A
:10439800D96F5BEC0AF0BD0E0501FF6F000E060138
:1043A800006F550E016F010E026F100E036F000EA5
:1043B800046F0CEC01F0A30E0501FF6F000E06015F
:1043C800006F660E016F010E026F100E036F000E74
:1043D800046F0CEC01F0010E0001A26F020EB46F25
:1043E8000001F351000A2EE1010E0101436F886BB1
:1043F800090E0301D96F5BEC0AF0BD0E0501FF6FD2
:10440800000E0601006F1E0E016F010E026F100EE6
:10441800036F000E046F0CEC01F0A30E0501FF6F93
:10442800000E0601006F910E016F000E026F100E54
:10443800036F000E046F0CEC01F0010E0001A26F77
:10444800010EB46F01014351050A04E04351060A05
:1044580001E051D00301D96B5BEC0AF0000E0201B8
:104468000B1902E1000E0A1946E00A51010116254E
:104478000301D96F02010B51010117210301DA6F02
:10448800000E010118210301DB6F000E0101192143
:104498000301DC6F090EDD6FB4EC08F0B90EF66E9F
:1044A800850EF76E000EF86EBB0EE16E030EE26E1F
:1044B800150E006E010E016E2AEC05F0BB0ED96FC9
:1044C800030EDA6F010EDB6F68EC09F0A30E05012D
:1044D800FF6F000E0601006FF40E016F000E026FF1
:1044E800100E036F000E046F0CEC01F0010E0001BA
:0844F800A26F020EB46F120066
:10450000030E0201F56F839E0001BC6B02019F51F7
:10451000000A04E101011D5301E14BD101011D6BB2
:10452000838E010E0001BC6F090E0301D96F5BEC95
:104530000AF001018F5317E0010E16250301D96F10
:10454000000E010117210301DA6F000E010118218D
:104550000301DB6F000E010119210301DC6F0C0E5A
:10456000DD6FB4EC08F00201F55101011625006E73
:10457000000E1721016E000E1821026E000E192187
:10458000036E00C0B8F101C0B9F102C0BAF103C0B6
:10459000BBF100C0D9F301C0DAF302C0DBF303C002
:1045A000DCF3010E0301DD6FB4EC08F0B8C1D9F300
:1045B000B9C1DAF3BAC1DBF3BBC1DCF3050EDD6FC1
:1045C000B4EC08F00001BA6B060E01011625006E6E
:1045D000000E1721016E000E1821026E000E192127
:1045E000036E0201F5510026000E01220222032271
:1045F00000C0B8F101C0B9F102C0BAF103C0BBF10B
:1046000000C0D9F301C0DAF302C0DBF303C0DCF36E
:104610000A0E0301DD6FB4EC08F00101A851162564
:10462000006E000E1721016E000E1821026E000EA2
:104630001921036E0201F5510026000E012202220B
:10464000032200C0B8F101C0B9F102C0BAF103C041
:10465000BBF100C0D9F301C0DAF302C0DBF303C041
:10466000DCF3030E0301DD6FB4EC08F00201995195
:10467000000AD8B495D001013151020AD8A490D0D3
:10468000BC5116250301D96F000E0101172103014A
:10469000DA6F000E010118210301DB6F000E01012A
:1046A00019210301DC6F0201F5510301D927000E26
:1046B000DA23DB23DC23020EDD6FB4EC08F001010A
:1046C000BC5116250301D96F000E0101172103010A
:1046D000DA6F000E010118210301DB6F000E0101EA
:1046E00019210301DC6F0201F5510301D927000EE6
:1046F000DA23DB23DC23060EDD6FB4EC08F00001C7
:10470000B76B0101BC5116250301D96F000E0101E1
:1047100017210301DA6F000E010118210301DB6F7D
:10472000000E010119210301DC6F060ED927000ECE
:10473000DA23DB23DC230201F5510301D927000E24
:10474000DA23DB23DC230B0EDD6FB4EC08F002016F
:104750009951010116250301D96F000E010117219E
:104760000301DA6F000E010118210301DB6F000E57
:10477000010119210301DC6F0101BC510301D9279B
:10478000000EDA23DB23DC230201F5510301D927D4
:10479000000EDA23DB23DC23040EDD6FB4EC08F01B
:1047A000030E0001E16FB96BB66B0101886B080E57
:1047B000436F090E0301D96F27EC09F00050010A7D
:1047C000D8A429D1090E0301D96F5BEC0AF00201CC
:1047D000F55101011625006E000E1721016E000E25
:1047E0001821026E000E1921036E00C0B8F101C03D
:1047F000B9F102C0BAF103C0BBF100C0D9F301C0E6
:10480000DAF302C0DBF303C0DCF3010E0301DD6F5A
:10481000B4EC08F0B8C1D9F3B9C1DAF3BAC1DBF32B
:10482000BBC1DCF3050EDD6FB4EC08F00001BA6B20
:10483000060E01011625006E000E1721016E000EF6
:104840001821026E000E1921036E0201F551002697
:10485000000E01220222032200C0B8F101C0B9F10A
:1048600002C0BAF103C0BBF100C0D9F301C0DAF352
:1048700002C0DBF303C0DCF30A0E0301DD6FB4EC0E
:1048800008F00101A9511625006E000E1721016ED6
:10489000000E1821026E000E1921036E0201F5515F
:1048A0000026000E01220222032200C0B8F101C03E
:1048B000B9F102C0BAF103C0BBF100C0D9F301C025
:1048C000DAF302C0DBF303C0DCF3030E0301DD6F98
:1048D000B4EC08F00101AA51000AD8B493D03151C8
:1048E000020AD8A48FD0BC5116250301D96F000E3F
:1048F000010117210301DA6F000E010118210301E4
:10490000DB6F000E010119210301DC6F0201F5517B
:104910000301D927000EDA23DB23DC23020EDD6F2F
:10492000B4EC08F00101BC5116250301D96F000E4B
:10493000010117210301DA6F000E010118210301A3
:10494000DB6F000E010119210301DC6F0201F5513B
:104950000301D927000EDA23DB23DC23060EDD6FEB
:10496000B4EC08F00001B76B0101BC51162503013E
:10497000D96F000E010117210301DA6F000E01014A
:1049800018210301DB6F000E010119210301DC6F07
:10499000060ED927000EDA23DB23DC230201F551B2
:1049A0000301D927000EDA23DB23DC230B0EDD6F96
:1049B000B4EC08F00101A95116250301D96F000ECE
:1049C000010117210301DA6F000E01011821030113
:1049D000DB6F000E010119210301DC6F0101BC51E5
:1049E0000301D927000EDA23DB23DC230201F55172
:1049F0000301D927000EDA23DB23DC23040EDD6F4D
:104A0000B4EC08F0030E0001F36FB96BB66B010153
:104A1000886B070E436F0201A1A128D0000E0B196D
:104A200002E1000E0A1922E001018851000A1EE18C
:104A3000010E886F9BEC09F000C021F0BA0EF66EF3
:104A4000870EF76E000EF86EBF0EE16E020EE26E7C
:104A5000160E006E010E016E2AEC05F0BF0ED96F26
:104A6000020EDA6F010EDB6F68EC09F0010188516C
:104A7000010A5EE10201A1B15BD0000E0B1902E157
:104A8000000E0A1955E0215001011625006E000E96
:104A90001721016E000E1821026E000E1921036EFF
:104AA00000C0B8F101C0B9F102C0BAF103C0BBF156
:104AB00000C0D9F301C0DAF302C0DBF303C0DCF3BA
:104AC000090E0301DD6FB4EC08F00101886BB8C179
:104AD000F3F5B9C1F4F5BAC1F5F5BBC1F6F5AD0E04
:104AE0000501F76F010EF86F32EC05F0D00EF66E8F
:104AF000870EF76E000EF86ED50EE16E020EE26EB6
:104B0000100E006E010E016E2AEC05F0D50E0301A9
:104B1000D96F020EDA6F010EDB6F68EC09F0AD0E93
:104B20000301D96F010EDA6F010EDB6F68EC09F03B
:024B3000120071
:104B3200020E0301016F026B839E0001BC6BFEEC4F
:104B420009F00050021939E01B6AFEEC09F000C0BE
:104B520002F300C0D9F3AE0EDA6F000EDB6F13EC76
:104B620012F0A30E0501FF6F000E0601006F430E47
:104B72000201BF6F6C0EC06F6F0EC16F730EC26FFA
:104B8200650EC36F200EC46F610EC56F660EC66FD1
:104B9200740EC76F650EC86F720EC96FCA6BBF0EF7
:104BA2000601016F020E026F0B0E036F000E046FFF
:104BB2000CEC01F0010E0001A26F02019F51000AEC
:104BC20008E1090E0301D96F27EC09F0005201E157
:104BD200AAD30301D96B5BEC0AF00101AA51000AC6
:104BE20004E03151010A01E03AD10301015101010E
:104BF2001625006E000E1721016E000E1821026E9E
:104C0200000E1921036E00C0B8F101C0B9F102C053
:104C1200BAF103C0BBF100C0D9F301C0DAF302C09C
:104C2200DBF303C0DCF3010E0301DD6FB4EC08F02B
:104C32000101A551000A11E0B8C1D9F3B9C1DAF3F3
:104C4200BAC1DBF3BBC1DCF3070E0301DD6FB4ECC9
:104C520008F0010E0001BA6F0FD0B8C1D9F3B9C183
:104C6200DAF3BAC1DBF3BBC1DCF3050E0301DD6F7E
:104C7200B4EC08F00001BA6B0101A5511625006ED3
:104C8200000E1721016E000E1821026E000E19216E
:104C9200036E060E0026000E0122022203220301E9
:104CA20001510026000E01220222032200C0B8F1A7
:104CB20001C0B9F102C0BAF103C0BBF100C0D9F31F
:104CC20001C0DAF302C0DBF303C0DCF30A0EDD6FCE
:104CD200B4EC08F00101A5511625006E000E172153
:104CE200016E000E1821026E000E1921036E0301DF
:104CF20001510026000E01220222032200C0B8F157
:104D020001C0B9F102C0BAF103C0BBF100C0D9F3CE
:104D120001C0DAF302C0DBF303C0DCF3050EDD6F82
:104D2200B4EC08F00101A651000A2DE0A9511625A4
:104D3200006E000E1721016E000E1821026E000E89
:104D42001921036EA651005E000E015A025A035A3F
:104D5200030101510026000E01220222032200C09B
:104D6200B8F101C0B9F102C0BAF103C0BBF100C091
:104D7200D9F301C0DAF302C0DBF303C0DCF3070EA0
:104D8200DD6FB4EC08F001019151000A40E0A95135
:104D92001625006E000E1721016E000E1821026EFC
:104DA200000E1921036E030101510026000E01229B
:104DB2000222032200C0B8F101C0B9F102C0BAF167
:104DC20003C0BBF100C0D9F301C0DAF302C0DBF3C8
:104DD20003C0DCF3050EDD6FB4EC08F0020E010136
:104DE200B8250301D96F000E0101B9210301DA6F61
:104DF200000E0101BA210301DB6F000E0101BB218C
:104E02000301DC6F030EDD6FB4EC08F028D0010162
:104E1200A9511625006E000E1721016E000E1821F1
:104E2200026E000E1921036E030101510026000ECD
:104E320001220222032200C0B8F101C0B9F102C06E
:104E4200BAF103C0BBF100C0D9F301C0DAF302C06A
:104E5200DBF303C0DCF3030EDD6FB4EC08F00101F9
:104E6200AA51000AD8B457D23151020AD8A453D257
:104E72000301015101011625006E000E1721016E7A
:104E8200000E1821026E000E1921036E00C0B8F147
:104E920001C0B9F102C0BAF103C0BBF100C0D9F33D
:104EA20001C0DAF302C0DBF303C0DCF3020E03013C
:104EB200DD6FB4EC08F00101A551000A11E0B8C1A0
:104EC200D9F3B9C1DAF3BAC1DBF3BBC1DCF3080E23
:104ED2000301DD6FB4EC08F0010E0001B76F0FD0D3
:104EE200B8C1D9F3B9C1DAF3BAC1DBF3BBC1DCF3A0
:104EF200060E0301DD6FB4EC08F00001B76B01018F
:104F0200A5511625006E000E1721016E000E182104
:104F1200026E000E1921036E060E0026000E0122FB
:104F220002220322030101510026000E0122022265
:104F3200032200C0B8F101C0B9F102C0BAF103C046
:104F4200BBF100C0D9F301C0DAF302C0DBF303C046
:104F5200DCF30B0EDD6FB4EC08F00101A551162550
:104F6200006E000E1721016E000E1821026E000E57
:104F72001921036E030101510026000E01220222B3
:104F8200032200C0B8F101C0B9F102C0BAF103C0F6
:104F9200BBF100C0D9F301C0DAF302C0DBF303C0F6
:104FA200DCF3060EDD6FB4EC08F00101A651000A35
:104FB2002DE0AA511625006E000E1721016E000E7B
:104FC2001821026E000E1921036EA651005E000E1A
:104FD200015A025A035A030101510026000E01220E
:104FE2000222032200C0B8F101C0B9F102C0BAF135
:104FF20003C0BBF100C0D9F301C0DAF302C0DBF396
:1050020003C0DCF3080EDD6FB4EC08F00101AA5115
:105012001625006E000E1721016E000E1821026E79
:10502200000E1921036E030101510026000E012218
:105032000222032200C0B8F101C0B9F102C0BAF1E4
:1050420003C0BBF100C0D9F301C0DAF302C0DBF345
:1050520003C0DCF3040EDD6FB4EC08F00101BC51B7
:105062001625006E000E1721016E000E1821026E29
:10507200000E1921036E030101510026000E0122C8
:105082000222032200C0B8F101C0B9F102C0BAF194
:1050920003C0BBF100C0D9F301C0DAF302C0DBF3F5
:1050A20003C0DCF3010EDD6FB4EC08F00101A55181
:1050B200000A11E0B8C1D9F3B9C1DAF3BAC1DBF31E
:1050C200BBC1DCF3070E0301DD6FB4EC08F0010E87
:1050D2000001BA6F0FD0B8C1D9F3B9C1DAF3BAC1BE
:1050E200DBF3BBC1DCF3050E0301DD6FB4EC08F0AA
:1050F2000001BA6B0101BC511625006E000E17218A
:10510200016E000E1821026E000E1921036EA551C8
:105112000026000E012202220322060E0026000EA5
:10512200012202220322030101510026000E012264
:105132000222032200C0B8F101C0B9F102C0BAF1E3
:1051420003C0BBF100C0D9F301C0DAF302C0DBF344
:1051520003C0DCF30A0EDD6FB4EC08F00101BC51B0
:105162001625006E000E1721016E000E1821026E28
:10517200000E1921036EA5510026000E0122022203
:105182000322030101510026000E01220222032202
:1051920000C0B8F101C0B9F102C0BAF103C0BBF15D
:1051A20000C0D9F301C0DAF302C0DBF303C0DCF3C1
:1051B200050EDD6FB4EC08F00101A651000A33E0E0
:1051C200BC511625006E000E1721016E000E18212B
:1051D200026E000E1921036EA9510026000E012253
:1051E20002220322A651005E000E015A025A035AFD
:1051F200030101510026000E01220222032200C0F7
:10520200B8F101C0B9F102C0BAF103C0BBF100C0EC
:10521200D9F301C0DAF302C0DBF303C0DCF3070EFB
:10522200DD6FB4EC08F001019151000A46E0A9518A
:105232001625006E000E1721016E000E1821026E57
:10524200000E1921036EBC510026000E012202221B
:105252000322030101510026000E01220222032231
:1052620000C0B8F101C0B9F102C0BAF103C0BBF18C
:1052720000C0D9F301C0DAF302C0DBF303C0DCF3F0
:10528200050EDD6FB4EC08F0020E0101B825030132
:10529200D96F000E0101B9210301DA6F000E01017D
:1052A200BA210301DB6F000E0101BB210301DC6F98
:1052B200030EDD6FB4EC08F02ED00101A9511625C2
:1052C200006E000E1721016E000E1821026E000EF4
:1052D2001921036EBC510026000E01220222032274
:1052E200030101510026000E01220222032200C006
:1052F200B8F101C0B9F102C0BAF103C0BBF100C0FC
:10530200D9F301C0DAF302C0DBF303C0DCF3030E0E
:10531200DD6FB4EC08F0030E0001F36FB96BB66BEE
:10532200040E0101436F0201A1A128D0000E0B1946
:1053320002E1000E0A1922E001018851000A1EE171
:10534200010E886F9BEC09F000C021F0820EF66E10
:10535200870EF76E000EF86ECB0EE16E020EE26E55
:10536200160E006E010E016E2AEC05F0CB0ED96FFF
:10537200020EDA6F010EDB6F68EC09F00101885151
:10538200010AD8A4B8D00201A1B1B5D0000E0B1900
:1053920002E1000E0A19D8B4AED00101AB51000AE5
:1053A20055E121501625006E000E1721016E000EE8
:1053B2001821026E000E1921036E00C0B8F101C05F
:1053C200B9F102C0BAF103C0BBF100C0D9F301C008
:1053D200DAF302C0DBF303C0DCF3090E0301DD6F75
:1053E200B4EC08F00101886BB8C1F3F5B9C1F4F56A
:1053F200BAC1F5F5BBC1F6F5AD0E0501F76F010EA9
:10540200F86F32EC05F0980EF66E870EF76E000E0E
:10541200F86EE10EE16E020EE26E100E006E010EEB
:10542200016E2AEC05F0E10E0301D96F020EDA6F6C
:10543200010EDB6F68EC09F0AD0E0301D96F010EAE
:10544200DA6F010EDB6F68EC09F055D00101AB5148
:105452001625006E000E1721016E000E1821026E35
:10546200000E1921036E00C0B8F101C0B9F102C0EB
:10547200BAF103C0BBF100C0D9F301C0DAF302C034
:10548200DBF303C0DCF3090E0301DD6FB4EC08F0BB
:105492000101886BB8C1F3F5B9C1F4F5BAC1F5F5EC
:1054A200BBC1F6F5AD0E0501F76F010EF86F32ECD8
:1054B20005F0A80EF66E870EF76E000EF86EF10E6E
:1054C200E16E020EE26E100E006E010E016E2AEC0B
:1054D20005F0F10E0301D96F020EDA6F010EDB6FD8
:1054E20068EC09F0AD0E0301D96F010EDA6F010EFF
:0854F200DB6F68EC09F0120009
:1054FA00020E0201F56F839E0001BC6B02019F51EF
:10550A00000A09E1090E0301D96F27EC09F00050DE
:10551A00010A01E0DCD10101AA51000A04E031517B
:10552A00010A01E088D0090E0301D96F5BEC0AF089
:10553A000201F55101011625006E000E1721016EB8
:10554A00000E1821026E000E1921036E00C0B8F178
:10555A0001C0B9F102C0BAF103C0BBF100C0D9F36E
:10556A0001C0DAF302C0DBF303C0DCF3010E03016E
:10557A00DD6FB4EC08F0B8C1D9F3B9C1DAF3BAC136
:10558A00DBF3BBC1DCF3050EDD6FB4EC08F0000100
:10559A00BA6B060E01011625006E000E1721016E68
:1055AA00000E1821026E000E1921036E0201F55138
:1055BA000026000E01220222032200C0B8F101C017
:1055CA00B9F102C0BAF103C0BBF100C0D9F301C0FE
:1055DA00DAF302C0DBF303C0DCF30A0E0301DD6F6A
:1055EA00B4EC08F00101A9511625006E000E17212E
:1055FA00016E000E1821026E000E1921036E0201BF
:10560A00F5510026000E01220222032200C0B8F141
:10561A0001C0B9F102C0BAF103C0BBF100C0D9F3AD
:10562A0001C0DAF302C0DBF303C0DCF3030E0301AB
:10563A00DD6FB4EC08F00101AA51000AD8B43FD1D9
:10564A003151020AD8A43BD1090E0301D96F5BEC90
:10565A000AF00201F55101011625006E000E17210C
:10566A00016E000E1821026E000E1921036E00C091
:10567A00B8F101C0B9F102C0BAF103C0BBF100C070
:10568A00D9F301C0DAF302C0DBF303C0DCF3020E84
:10569A000301DD6FB4EC08F0B8C1D9F3B9C1DAF38C
:1056AA00BAC1DBF3BBC1DCF3060EDD6FB4EC08F064
:1056BA000001BA6B060E01011625006E000E1721B5
:1056CA00016E000E1821026E000E1921036E0201EE
:1056DA00F5510026000E01220222032200C0B8F171
:1056EA0001C0B9F102C0BAF103C0BBF100C0D9F3DD
:1056FA0001C0DAF302C0DBF303C0DCF30B0E0301D3
:10570A00DD6FB4EC08F00101A9511625006E000EF8
:10571A001721016E000E1821026E000E1921036E68
:10572A000201F5510026000E01220222032200C0C6
:10573A00B8F101C0B9F102C0BAF103C0BBF100C0AF
:10574A00D9F301C0DAF302C0DBF303C0DCF3040EC1
:10575A000301DD6FB4EC08F00101BC511625006E9F
:10576A00000E1721016E000E1821026E000E19217B
:10577A00036E0201F5510026000E012202220322C5
:10578A0000C0B8F101C0B9F102C0BAF103C0BBF15F
:10579A0000C0D9F301C0DAF302C0DBF303C0DCF3C3
:1057AA00010E0301DD6FB4EC08F00101BC511625AE
:1057BA00006E000E1721016E000E1821026E000EF7
:1057CA001921036E0201F5510026000E0122022260
:1057DA00032200C0B8F101C0B9F102C0BAF103C096
:1057EA00BBF100C0D9F301C0DAF302C0DBF303C096
:1057FA00DCF3050E0301DD6FB4EC08F00001B76BB2
:10580A000101BC511625006E000E1721016E000E13
:10581A001821026E000E1921036E060E0026000ED4
:10582A000122022203220201F5510026000E012262
:10583A000222032200C0B8F101C0B9F102C0BAF1D4
:10584A0003C0BBF100C0D9F301C0DAF302C0DBF335
:10585A0003C0DCF30A0E0301DD6FB4EC08F00101AA
:10586A00AA511625006E000E1721016E000E18218E
:10587A00026E000E1921036E0201F5510026000E78
:10588A000122022203220101BC510026000E01223C
:10589A000222032200C0B8F101C0B9F102C0BAF174
:1058AA0003C0BBF100C0D9F301C0DAF302C0DBF3D5
:1058BA0003C0DCF3030E0301DD6FB4EC08F0030E42
:1058CA000001F36FB96BB66B070E0101436F02015A
:1058DA00A1A128D0000E0B1902E1000E0A1922E03C
:1058EA0001018851000A1EE1010E886F9BEC09F044
:1058FA0000C021F0F10EF66E870EF76E000EF86EFC
:10590A00BF0EE16E020EE26E160E006E010E016E01
:10591A002AEC05F0BF0ED96F020EDA6F010EDB6FAB
:10592A0068EC09F001018851010A5EE10201A1B1A6
:10593A005BD0000E0B1902E1000E0A1955E0215046
:10594A0001011625006E000E1721016E000E1821A6
:10595A00026E000E1921036E00C0B8F101C0B9F140
:10596A0002C0BAF103C0BBF100C0D9F301C0DAF337
:10597A0002C0DBF303C0DCF3090E0301DD6FB4ECF4
:10598A0008F00101886BB8C1F3F5B9C1F4F5BAC1E1
:10599A00F5F5BBC1F6F5AD0E0501F76F010EF86F0F
:1059AA0032EC05F0070EF66E880EF76E000EF86EF2
:1059BA00D50EE16E020EE26E100E006E010E016E41
:1059CA002AEC05F0D50E0301D96F020EDA6F010E2B
:1059DA00DB6F68EC09F0AD0E0301D96F010EDA6FC7
:0A59EA00010EDB6F68EC09F01200FB
:1059F400030E0201BF6FC06BC16BC26BC36B839E8E
:105A04000001BC6B02019B51020A04E1640E010116
:105A1400436F1E6A02019F5103080101316F0201A5
:105A24009F51000AD8B4E5D2090E0301D96F5BEC8B
:105A34000AF0838E010E0001BC6F01018F5317E041
:105A4400010E16250301D96F000E01011721030170
