:040000006BEF3CF076
:1000080000C015F0F2A433D00301A62B8088010E9E
:100018000401B76F190E0301A85D03E3A86BA96B70
:1000280001D0A82B190E0801FE5D04E3FE6B030145
:10003800A76B02D00801FE2B190E0301A65D12E37F
:10004800A66B010E06013F27000E402341234223E1
:100058000701C153010ED8A4000EC16F8098010E8C
:100068000301F46FF30ED76ECA0ED66EF294F0A0A9
:1000780019D00301A951000A03E1A92BA86B01D0EB
:10008800A92B050EA95D0DE3130EA85D09E3A85180
:10009800150806E3010E0501376F0301A96B01D0AE
:1000A800A96BF090F0A21ED00301A751000A04E149
:1000B800A72B0801FE6B02D00301A72B0301050E35
:1000C800A75D0FE3130E0801FE5D09E3FE51150855
:1000D80006E3010E0501356F0301A76B02D003018A
:1000E800A76BF0929EA007D00801BF53D8A48186C1
:1000F8009D90CD909E90A1A207D00801B753D8A497
:100108008188A092B190A192F2A204D0CC6ACA844C
:100118009D82F2929EA221D00801BF530CE00701F4
:10012800275302E0818607D08196F1C8CFFFEDC83A
:10013800CEFFCD809D800801B7530CE006015553D2
:1001480002E0818807D08198F1C8B3FFEDC8B2FFFB
:10015800B180A082CA949D929E9215C000F01100B1
:0E016800ACB202D00000FCD740CAADFF1200BE
:1001760040CAC9FFC7B002D00000FCD7C9CF00F003
:02018600120065
:10018800086A096A100E0C6E0134083609360450E4
:10019800085E0550D8A0053C095ED8B007D00450C9
:1001A80008260550D8B0053C0926D89000360136F7
:0601B8000C2EEAD7120034
:1001BE00F250026EF29E0500FF6A0150FE6E005074
:0801CE00FD6E02BEF28E12006C
:1001D600086A080E0C6E003408360450085ED8B063
:0E01E60002D00826D89000360C2EF5D7120055
:1001F4000A013C6B030E3C5D0AE23C513A25E16E78
:10020400000E3B21E26E200EE66E3C2BF3D73C51F0
:100214003A25E16E000E3B21E26EE66A3C073C5152
:100224003A253D6F000E3B213E6F0A0E046E39CA1B
:1002340000F0CFDF08C000F0300E00263DCAE1FF19
:100244003ECAE2FF00C0E6FF0A0E046E39CA00F09F
:10025400C0DF00C039FA0050000A01E102D03C07B7
:04026400DED71200CF
:10026800A6A202D00000FCD7A69C3ACAAAFF39CAA7
:10027800A9FF3BCAA8FFA69EA684F2CF00F0F29E73
:10028800550EA76EAA0EA76EA68200BE02D0F29ED9
:0802980001D0F28EA6941200C1
:1002A0003BCA04F03CCA05F039CA02F03ACA03F06E
:1002B0003DCA00F03ECA01F0010E0A013D5F000E8A
:1002C0003E5B005001100FE004C0E9FF05C0EAFFEB
:1002D00002C0E1FF03C0E2FFEECFE6FF024A032ABD
:1002E000044A052AE5D739CA00F03ACA01F01200DB
:1002F0000A013D6B050E3D5D0AE23D513B25E16E75
:10030000000E3C21E26E200EE66E3D2BF3D73D51F0
:100310003B25E16E000E3C21E26EE66A3D073D5151
:100320003B253E6F000E3C213F6F0A0E046E000E0F
:10033000056E39CA00F03ACA01F026DF08C000F0A5
:1003400009C001F0300E00263ECAE1FF3FCAE2FFBD
:1003500000C0E6FF0A0E046E000E056E39CA00F0FA
:100360003ACA01F011DF00C039FA01C03AFA000EB2
:10037000011802E1000E001801E102D03D07CFD7BD
:02038000120069
:100382005ED00801EB6BEC6B8BD00801E00EEB6FDB
:10039200010EEC6F85D00801EA0EEB6F010EEC6FD7
:1003A2007FD00801F40EEB6F010EEC6F79D00801DB
:1003B200120EEB6F020EEC6F73D00801260EEB6F7C
:1003C200020EEC6F6DD008013A0EEB6F020EEC6F6D
:1003D20067D00801580EEB6F020EEC6F61D0080176
:1003E200760EEB6F020EEC6F5BD008018A0EEB6F9C
:1003F200020EEC6F55D008019E0EEB6F020EEC6FF1
:100402004FD00801BC0EEB6F020EEC6F49D0080111
:10041200EE0EEB6F020EEC6F43D00801200EEB6F75
:10042200030EEC6F3DD00801520EEB6F030EEC6F22
:1004320037D00801840EEB6F030EEC6F31D00A0146
:100442003951000A9EE03951010A9FE03951020AEE
:10045200A2E03951030AA5E03951040AA8E0395152
:10046200050AABE03951060AAEE03951070AB1E09C
:100472003951080AB4E03951090AB7E039510A0A78
:10048200BAE039510B0ABDE039510C0AC0E03951CA
:100492000D0AC3E039510E0AC6E039510F0AC9E00C
:1004A20042D0640E0801E76F000EE86F5ED00801CB
:1004B200F40EE76F010EE86F58D00801E80EE76FFF
:1004C200030EE86F52D00801DC0EE76F050EE86FED
:1004D2004CD00801D00EE76F070EE86F46D0080136
:1004E200C40EE76F090EE86F40D00801B80EE76F3F
:1004F2000B0EE86F3AD00801AC0EE76F0D0EE86FF5
:1005020034D00801A00EE76F0F0EE86F2ED008015D
:10051200940EE76F110EE86F28D00801880EE76F7E
:10052200130EE86F22D00A013A51000ABAE03A519A
:10053200010ABDE03A51020AC0E03A51030AC3E09F
:100542003A51040AC6E03A51050AC9E03A51060A8C
:10055200CCE03A51070ACFE03A51080AD2E03A51C8
:10056200090AD5E03A510A0AD8E05ED00801E96BDF
:10057200EA6B8BD00801E00EE96F010EEA6F85D0BD
:100582000801EA0EE96F010EEA6F7FD00801F40E4E
:10059200E96F010EEA6F79D00801120EE96F020EBF
:1005A200EA6F73D00801260EE96F020EEA6F6DD072
:1005B20008013A0EE96F020EEA6F67D00801580E81
:1005C200E96F020EEA6F61D00801760EE96F020E42
:1005D200EA6F5BD008018A0EE96F020EEA6F55D00E
:1005E20008019E0EE96F020EEA6F4FD00801BC0EA1
:1005F200E96F020EEA6F49D00801EE0EE96F020EB2
:10060200EA6F43D00801200EE96F030EEA6F3DD076
:100612000801520EE96F030EEA6F37D00801840E0B
:10062200E96F030EEA6F31D00A013B51000A9EE0E6
:100632003B51010A9FE03B51020AA2E03B51030AEF
:10064200A5E03B51040AA8E03B51050AABE03B514F
:10065200060AAEE03B51070AB1E03B51080AB4E09A
:100662003B51090AB7E03B510A0ABAE03B510B0A77
:10067200BDE03B510C0AC0E03B510D0AC3E03B51C7
:100682000E0AC6E03B510F0AC9E042D0640E0801CF
:10069200EF6F000EF06F5ED00801F40EEF6F010EE7
:1006A200F06F58D00801E80EEF6F030EF06F52D0D2
:1006B2000801DC0EEF6F050EF06F4CD00801D00E72
:1006C200EF6F070EF06F46D00801C40EEF6F090EF0
:1006D200F06F40D00801B80EEF6F0B0EF06F3AD0FA
:1006E2000801AC0EEF6F0D0EF06F34D00801A00EB2
:1006F200EF6F0F0EF06F2ED00801940EEF6F110EF8
:10070200F06F28D00801880EEF6F130EF06F22D021
:100712000A013C51000ABAE03C51010ABDE03C51D9
:10072200020AC0E03C51030AC3E03C51040AC6E09D
:100732003C51050AC9E03C51060ACCE03C51070A8B
:10074200CFE03C51080AD2E03C51090AD5E03C51C5
:060752000A0AD8E01200C3
:100758000B6A0A6A096A086A0E6A03340836045082
:10076800085E0550D8A0053C095E0650D8A0063C96
:100778000A5E0750D8A0073C0B5EE86AD8A0010EB5
:100788000E5E0336070E0C6E0334083609360A3639
:100798000B360E36045003A012D0085E0550D8A0C0
:1007A800053C095E0650D8A0063C0A5E0750D8A052
:1007B800073C0B5EE86AD8A0010E0E5E11D0082631
:1007C8000550D8B0053C09260650D8B0063C0A2684
:1007D8000750D8B0073C0B26E86AD8B0010E0E26A1
:1007E80003360C2ED1D70234083609360A360B36B2
:1007F8000E36045003A012D0085E0550D8A0053C60
:10080800095E0650D8A0063C0A5E0750D8A0073CEF
:100818000B5EE86AD8A0010E0E5E11D008260550BE
:10082800D8B0053C09260650D8B0063C0A26075021
:10083800D8B0073C0B26E86AD8B0010E0E2602365F
:10084800070E0C6E0234083609360A360B360E3699
:10085800045002A012D0085E0550D8A0053C095EDD
:100868000650D8A0063C0A5E0750D8A0073C0B5E8D
:10087800E86AD8A0010E0E5E11D008260550D8B03F
:10088800053C09260650D8B0063C0A260750D8B0C1
:10089800073C0B26E86AD8B0010E0E2602360C2E4D
:1008A800D1D70134083609360A360B360E360450CD
:1008B80002A012D0085E0550D8A0053C095E06507B
:1008C800D8A0063C0A5E0750D8A0073C0B5EE86A31
:1008D800D8A0010E0E5E11D008260550D8B0053CF0
:1008E80009260650D8B0063C0A260750D8B0073C5F
:1008F8000B26E86AD8B0010E0E260136070E0C6EDC
:100908000134083609360A360B360E36045001A073
:1009180012D0085E0550D8A0053C095E0650D8A044
:10092800063C0A5E0750D8A0073C0B5EE86AD8A0D0
:10093800010E0E5E11D008260550D8B0053C0926D8
:100948000650D8B0063C0A260750D8B0073C0B26FC
:10095800E86AD8B0010E0E2601360C2ED1D7003425
:10096800083609360A360B360E36045001A012D066
:10097800085E0550D8A0053C095E0650D8A0063C84
:100988000A5E0750D8A0073C0B5EE86AD8A0010EA3
:100998000E5E11D008260550D8B0053C0926065031
:1009A800D8B0063C0A260750D8B0073C0B26E86AA0
:1009B800D8B0010E0E260036070E0C6E003408362D
:1009C80009360A360B360E36045000A012D0085EDF
:1009D8000550D8A0053C095E0650D8A0063C0A5E22
:1009E8000750D8A0073C0B5EE86AD8A0010E0E5E3F
:1009F80011D008260550D8B0053C09260650D8B0B5
:100A0800063C0A260750D8B0073C0B26E86AD8B03F
:100A1800010E0E2600360C2ED1D700B00ED0045091
:100A280008260550D8B0053C09260650D8B0063C23
:0C0A38000A260750D8B0073C0B2612001D
:100A440003C9E1FF04C9E2FF39CAE6FF01C900F0A6
:0A0A540002C901F0DFEC00F012000F
:100A5E003BD0500E0801F16F370EED6F72D00801CA
:100A6E00630EF16FBF0EED6F6CD00801770EF16F54
:100A7E00470EED6F66D008018A0EF16FCF0EED6F47
:100A8E0060D008019E0EF16F570EED6F5AD008011F
:100A9E00B10EF16FDF0EED6F54D00801C50EF16F80
:100AAE00670EED6F4ED00801D80EF16FEF0EED6FA1
:100ABE0048D00801EC0EF16F770EED6F42D00801B1
:100ACE00FF0EF16FED6B3DD0000E0A01061902E12B
:100ADE00010E0519BEE0000E061902E1020E0519FF
:100AEE00BEE0000E061902E1030E0519BEE0000E6F
:100AFE00061902E1040E0519BEE0000E061902E108
:100B0E00050E0519BEE0000E061902E1060E0519C6
:100B1E00BEE0000E061902E1070E0519BEE0000E3A
:100B2E00061902E1080E0519BEE0000E061902E1D3
:100B3E00090E0519BEE0000E061902E10A0E05198E
:100B4E00BEE03BD0500E0801EE6F370EE66F72D04E
:100B5E000801630EEE6FBF0EE66F6CD00801770EC4
:100B6E00EE6F470EE66F66D008018A0EEE6FCF0E5F
:100B7E00E66F60D008019E0EEE6F570EE66F5AD0EC
:100B8E000801B10EEE6FDF0EE66F54D00801C50EF0
:100B9E00EE6F670EE66F4ED00801D80EEE6FEF0EB9
:100BAE00E66F48D00801EC0EEE6F770EE66F42D07E
:100BBE000801FF0EEE6FE66B3DD0000E0A0108191C
:100BCE0002E1010E0719BEE0000E081902E1020E45
:100BDE000719BEE0000E081902E1030E0719BEE068
:100BEE00000E081902E1040E0719BEE0000E0819E6
:100BFE0002E1050E0719BEE0000E081902E1060E0D
:100C0E000719BEE0000E081902E1070E0719BEE033
:100C1E00000E081902E1080E0719BEE0000E0819B1
:100C2E0002E1090E0719BEE0000E081902E10A0ED4
:060C3E000719BEE01200E0
:100C44000B6A0A6A096A00500402F4CF09F0F3CF70
:100C540008F001500502F4CF0BF0F3CF0AF0005076
:100C64000502F3500926F4500A22E86A0B220150C7
:100C74000402F3500926F4500A22E86A0B2208C041
:100C840000F009C001F00AC002F00BC003F012002A
:0A0C9400490E0D6E0D2EFED7120062
:100C9E00C7B409D01F0EC514016E0150000A03E13E
:0A0CAE00010E006E01D0006A120072
:100CB8000A01336B30CAE9FF31CAEAFFEECF32FAD4
:100CC8003251000A0EE032CA39FAB8DE0A01332B73
:100CD80033513025E96E000E3121EA6EEECF32FA3B
:040CE800EFD7120030
:100CEC000A01366B0A0E365D0AE236513425E16E86
:100CFC00000E3521E26E300EE66E362BF3D73651F0
:100D0C003425E16E000E3521E26EE66A3607000EE0
:100D1C00006E331908E10050321905E10050311909
:100D2C0002E13051000A3EE036513425376F000E97
:100D3C003521386F0A0E046E000E056E066E076EB6
:100D4C0030CA00F031CA01F032CA02F033CA03F0E3
:100D5C00FDDC08C000F009C001F00AC002F00BC0B5
:100D6C0003F0300E002637CAE1FF38CAE2FF00C09C
:100D7C00E6FF36070A0E046E000E056E066E076E51
:100D8C0030CA00F031CA01F032CA02F033CA03F0A3
:100D9C00DDDC00C030FA01C031FA02C032FA03C007
:060DAC0033FAB5D7120076
:100DB2000A01336B30CAE9FF31CAEAFFEECF32FAD9
:100DC2003251000A0FE032CA40FAB4EC00F00A01D4
:100DD200332B33513025E96E000E3121EA6EEECF0E
:060DE20032FAEED7120008
:100DE80030CA39FA0A013933399F31CA3AFA32CA54
:100DF8003BFAFAEC00F0010E3015016E0150010AC1
:100E080011E1030E3125396F000E32213A6F260E9B
:100E18003B6F020E3C6F040E3D6F000E3E6F50ECB0
:100E280001F010D0030E3125396F000E32213A6FD0
:100E3800130E3B6F020E3C6F040E3D6F000E3E6FAB
:060E480050EC01F0120065
:100E4E00A69C31CAAAFF30CAA9FFA69EA680A8CF2B
:040E5E0000F012008E
:100E6200010E0A01396F000E3A6FFBC93BFA34ECEE
:100E720001F0020E0A01396F000E3A6F5BC93BFAAC
:100E820034EC01F0030E0A01396F000E3A6FF7C914
:100E92003BFA34EC01F0040E0A01396F000E3A6F8E
:100EA200F6C93BFA34EC01F0050E0A01396F000E67
:100EB2003A6FFDC93BFA34EC01F0060E0A01396FB4
:100EC200000E3A6FF5C93BFA34EC01F0070E0A0145
:100ED200396F000E3A6FFAC93BFA34EC01F0080E92
:100EE2000A01396F000E3A6FF9C93BFA34EC01F08E
:100EF200090E0A01396F000E3A6FF8C93BFA34EC59
:100F020001F00A0E0A01396F000E3A6FEBC93BFA83
:100F120034EC01F00B0E0A01396F000E3A6FEAC988
:100F22003BFA34EC01F00C0E0A01396F000E3A6FF5
:100F3200D8C73BFA34EC01F00D0E0A01396F000EEE
:100F42003A6FFCC93BFA34EC01F00E0E0A01396F1C
:100F5200000E3A6FFEC93BFA34EC01F00F0E0A01A3
:100F6200396F000E3A6F5CC93BFA34EC01F0100E97
:100F72000A01396F000E3A6F5AC93BFA34EC01F09C
:100F8200110E0A01396F000E3A6F5DC93BFA34EC5B
:100F920001F0120E0A01396F000E3A6FFFC93BFAD7
:100FA20034EC01F0130E0A01396F000E3A6FFAC7E2
:100FB2003BFA34EC01F0140E0A01396F000E3A6F5D
:100FC20000CA3BFA34EC01F0150E0A01396F000E2B
:100FD2003A6F05CA3BFA34EC01F0160E0A01396F7A
:100FE200000E3A6F07CA3BFA34EC01F0170E0A0101
:100FF200396F000E3A6F09CA3BFA34EC01F0D8C7D8
:1010020039FAFFC93AFAFAC73BFA00CA3CFAC1EC0C
:0610120001F024DD1200D4
:1010180030CA39FA31CA3AFA0A013A3339333A9FAF
:1010280032CA3BFA33CA3CFA78EC01F0010E3015AB
:10103800016E31CA02F0000E0216000E021802E11B
:10104800010E011811E1050E3225396F000E33210A
:101058003A6F380E3B6F050E3C6F040E3D6F000E65
:101068003E6F50EC01F010D0050E3225396F000E9E
:1010780033213A6F740E3B6F020E3C6F040E3D6FC6
:0A108800000E3E6F50EC01F0120064
:10109200010E0A012225016E000E2321026E01C0FB
:1010A200E9FF02C0EAFF0A0EEE24006E01C0E1FF72
:1010B20002C0E2FF00C0E6FF030E2225016E000E11
:1010C2002321026E01C0E9FF02C0EAFF0A0EEE24EC
:1010D200006E01C0E1FF02C0E2FF00C0E6FF22CACB
:1010E200E9FF23CAEAFFEECF00F022CAE1FF23CADA
:1010F200E2FF0A0E0024E66E020E2225016E000EA9
:101102002321026E01C0E9FF02C0EAFF0A0EEE24AB
:10111200006E01C0E1FF02C0E2FF00C0E6FF040E64
:101122002225E16E000E2321E26E040EE66E060E0B
:101132002225E16E000E2321E26E040EE66E080EF9
:101142002225E16E000E2321E26E040EE66E0A0EE7
:101152002225E16E000E2321E26E040EE66E050EDC
:101162002225E16E000E2321E26E0A0EE66E090EC2
:101172002225E16E000E2321E26E0A0EE66E070EB4
:101182002225E16E000E2321E26E0A0EE66E0B0EA0
:101192002225E16E000E2321E26E0A0EE66E120097
:1011A2000A01245317E03FC630FA40C631FA41C65D
:1011B20032FA42C633FA250E346F0A0E356F95DDC8
:1011C200250E306F0A0E316F76DDBA0E306F080EC3
:1011D200316FEEDD22CA30FA23CA31FAE9DD0D0E93
:1011E200406FB4EC00F00A0E0A01406FB4EC00F05C
:0211F2001200E9
:1011F4000A012251010A03E10801BF6B81960A0129
:0E1204002251020A03E10801B76B8198120023
:10121200010E0A01306F000E316F18DE00C0FBF9BB
:10122200020E306F000E316F11DE00C05BF9030E4B
:10123200306F000E316F0ADE00C0F7F9040E306F16
:10124200000E316F03DE00C0F6F9050E306F000E9E
:10125200316FFCDD00C0FDF9060E306F000E316FFC
:10126200F5DD00C0F5F9070E306F000E316FEEDDCF
:1012720000C0FAF9080E306F000E316FE7DD00C0D2
:10128200F9F9090E306F000E316FE0DD00C0F8F998
:101292000A0E306F000E316FD9DD00C0EAF9000E80
:1012A2000901EB6FEAC9EBF9EA6B0B0E0A01306F29
:1012B200000E316FCBDD00500901EA13000EEB1373
:1012C2000C0E0A01306F000E316FC0DD00C0D8F77E
:1012D2000D0E306F000E316FB9DD00C0FCF90E0E3D
:1012E200306F000E316FB2DD00C0FEF90F0E306FAD
:1012F200000E316FABDD00C05CF9100E306F000ED6
:10130200316FA4DD00C05AF9110E306F000E316F3B
:101312009DDD00C05DF9120E306F000E316F96DD5B
:1013220000C0FFF9130E306F000E316F8FDD00C069
:10133200FAF7140E306F000E316F88DD00C000FA2C
:10134200150E306F000E316F81DD00C005FA000E00
:10135200066F160E306F000E316F78DD00C007FA8F
:10136200000E086F170E306F000E316F6FDD00C078
:1013720009FA2FEC05F0D8C739FAFFC93AFAFAC7C9
:0C1382003BFA00CA3CFAC1EC01F012007A
:10138E009E9622CAC9FFC7A401D0FDD79EB601D032
:10139E00FDD7C5BC02D0006A03D0C584020E006E14
:0213AE0012002B
:1013B0000A01276B140E275D6FE2070E006E000E08
:1013C000016E27CA04F0000E056E3CDC5E0E00269E
:1013D000090E0122050E0024E96E000E0120EA6EBE
:1013E000EE50010A57E1070E006E000E016E27CA8B
:1013F00004F0000E056E26DC5E0E0024E16E090E80
:101400000120E26E26CAE6FF070E006E000E016E96
:1014100027CA04F0000E056E15DC5E0E0026090ECC
:101420000122010E0024E16E000E0120E26E22CAAC
:10143000E6FF23CAE6FF24CAE6FF25CAE6FF070E39
:10144000006E000E016E27CA04F0000E056E22EC3D
:1014500006F05E0E0026090E0122050E0024E16E44
:10146000000E0120E26EE66A070E006E000E016EAD
:1014700027CA04F0000E056E22EC06F05E0E002670
:10148000090E0122060E0024E16E000E0120E26E1C
:0A149000E66A02D0272B8ED7120067
:10149A000901ED510A01221905E10901ED6B010E5D
:1014AA00006E15D00901EE510A01221905E1090160
:1014BA00EE6B010E006E0BD00901EF510A012219E1
:1014CA0005E10901EF6B010E006E01D0006A1200FE
:1014DA0022CA39FA0A013933399F23CA3AFA24CA85
:1014EA003BFAFAEC00F0030E2325396F000E242193
:1014FA003A6FE20E3B6F080E3C6F040E3D6F000E12
:08150A003E6F50EC01F01200ED
:10151200020E0601656FAA0E0A01396F060E3A6FB6
:10152200FC0E3B6F000E3C6F100E3D6F000E3E6FC7
:1015320050EC01F001010D51000A38E1780E0A0168
:10154200396F060E3A6FEA0E3B6F000E3C6F100EBB
:101552003D6F000E3E6F50EC01F0010E0601776FF9
:101562000001FB51000A0FE1AA0E0A01396F060EB3
:101572003A6F380E3B6F000E3C6F100E3D6F000E3F
:101582003E6F50EC01F00001FB51010A0FE1AA0E7F
:101592000A01396F060E3A6F490E3B6F000E3C6F1F
:1015A200100E3D6F000E3E6F50EC01F001010D5127
:1015B200010A1BE1780E0A01396F060E3A6F160E08
:1015C2003B6F000E3C6F100E3D6F000E3E6F50ECF5
:1015D20001F0010E0601776FFBC930FAB00E0A0165
:1015E200316F060E326FF4EC06F001010D51020A62
:1015F2001BE1780E0A01396F060E3A6F270E3B6F18
:10160200000E3C6F100E3D6F000E3E6F50EC01F06D
:10161200010E0601776F5BC930FAB00E0A01316F15
:10162200060E326FF4EC06F001010D51030A1BE1C4
:10163200780E0A01396F060E3A6F7C0E3B6F000E70
:101642003C6F100E3D6F000E3E6F50EC01F0010E2C
:101652000601776FF7C930FAB00E0A01316F060E34
:10166200326FF4EC06F001010D51040A1BE1780E11
:101672000A01396F060E3A6F8D0E3B6F000E3C6FFA
:10168200100E3D6F000E3E6F50EC01F0010E060190
:10169200776FF6C930FAB00E0A01316F060E326F5B
:1016A200F4EC06F001010D51050A1BE1780E0A0166
:1016B200396F060E3A6F5A0E3B6F000E3C6F100EDA
:1016C2003D6F000E3E6F50EC01F0010E0601776F88
:1016D200F5C930FAB00E0A01316F060E326FF4EC22
:1016E20006F001010D51060A1BE1780E0A01396F5D
:1016F200060E3A6F6B0E3B6F000E3C6F100E3D6F85
:10170200000E3E6F50EC01F0010E0601776FFAC930
:1017120030FAB00E0A01316F060E326FF4EC06F0A9
:1017220001010D51070A1BE1780E0A01396F060EFD
:101732003A6F0E0E3B6F010E3C6F100E3D6F000EA6
:101742003E6F50EC01F0010E0601776FF9C930FAD5
:10175200B00E0A01316F060E326FF4EC06F0010191
:101762000D51080A1BE1780E0A01396F060E3A6F15
:10177200B60E3B6F010E3C6F100E3D6F000E3E6FBA
:1017820050EC01F0010E0601776FF8C930FAB00E85
:101792000A01316F060E326FF4EC06F001010D51B1
:1017A200090A1BE1780E0A01396F060E3A6FC70E5D
:1017B2003B6F010E3C6F100E3D6F000E3E6F50EC02
:1017C20001F0010E0601776F05CA39FAB00E0A015F
:1017D2003A6F060E3B6FFAEC00F001010D510A0A56
:1017E2001BE1780E0A01396F060E3A6F940E3B6FB9
:1017F200010E3C6F100E3D6F000E3E6F50EC01F07B
:10180200010E0601776F07CA39FAB00E0A013A6F64
:10181200060E3B6FFAEC00F001010D510B0A3EE19E
:10182200780E0A01396F060E3A6FA50E3B6F010E54
:101832003C6F100E3D6F000E3E6F50EC01F0010E3A
:101842000601776FD8C739FAAD0E0A013A6F060E54
:101852003B6FFAEC00F00701D851070810E2B10E15
:101862000A01396F060E3A6FF00E3B6F010E3C6FA4
:10187200060E3D6F000E3E6F50EC01F00FD00A01D4
:10188200B10E396F060E3A6FF70E3B6F010E3C6FC9
:10189200060E3D6F000E3E6F50EC01F001010D513E
:1018A2000C0A3EE1780E0A01396F060E3A6FD80E25
:1018B2003B6F010E3C6F100E3D6F000E3E6F50EC01
:1018C20001F0010E0601776FFAC739FAAD0E0A016F
:1018D2003A6F060E3B6FFAEC00F00701FA51070867
:1018E20010E2B10E0A01396F060E3A6FE90E3B6F34
:1018F200010E3C6F060E3D6F000E3E6F50EC01F084
:101902000FD00A01B10E396F060E3A6F410E3B6FCE
:10191200010E3C6F060E3D6F000E3E6F50EC01F063
:1019220001010D510D0A1BE1780E0A01396F060EF5
:101932003A6F480E3B6F010E3C6F100E3D6F000E6A
:101942003E6F50EC01F0010E0601776FFFC930FACD
:10195200B00E0A01316F060E326FF4EC06F001018F
:101962000D510E0A1BE1780E0A01396F060E3A6F0D
:101972001F0E3B6F010E3C6F100E3D6F000E3E6F4F
:1019820050EC01F0010E0601776F00CA30FAB00E7A
:101992000A01316F060E326FF4EC06F001010D51AF
:1019A2000F0A1BE1780E0A01396F060E3A6F300EEC
:1019B2003B6F010E3C6F100E3D6F000E3E6F50EC00
:1019C20001F0010E0601776FFDC930FAB00E0A016F
:1019D200316F060E326FF4EC06F001010D51100A60
:1019E2001DE1780E0A01396F060E3A6F720E3B6FD7
:1019F200010E3C6F100E3D6F000E3E6F50EC01F079
:101A0200010E0601776FEAC930FAEBC931FAAE0E60
:101A12000A01326F060E336F0CEC08F001010D5112
:101A2200110A12E1780E0A01396F060E3A6F830E1F
:101A32003B6F010E3C6F100E3D6F000E3E6F50EC7F
:101A420001F0010E0601776F01010D51120A35E115
:101A5200780E0A01396F060E3A6F590E3B6F010E6E
:101A62003C6F100E3D6F000E3E6F50EC01F0010E08
:101A72000601776F09015C51000A10E1B00E0A01FC
:101A8200396F060E3A6F6A0E3B6F010E3C6F070EFE
:101A92003D6F000E3E6F50EC01F00FD00A01B00E08
:101AA200396F060E3A6F9D0E3B6F030E3C6F080EA8
:101AB2003D6F000E3E6F50EC01F001010D51130A13
:101AC20035E1780E0A01396F060E3A6F6E0E3B6FE2
:101AD200040E3C6F100E3D6F000E3E6F50EC01F095
:101AE200010E0601776F09015A51000A10E1B00E8A
:101AF2000A01396F060E3A6F7F0E3B6F040E3C6F80
:101B0200070E3D6F000E3E6F50EC01F00FD00A0140
:101B1200B00E396F060E3A6F540E3B6F040E3C6FD7
:101B2200080E3D6F000E3E6F50EC01F001010D51A9
:101B3200140A35E1780E0A01396F060E3A6F5D0E0E
:101B42003B6F040E3C6F100E3D6F000E3E6F50EC6B
:101B520001F0010E0601776F09015D51000A10E1E3
:101B6200B00E0A01396F060E3A6FA10E3B6F040EDA
:101B72003C6F070E3D6F000E3E6F50EC01F00FD030
:101B82000A01B00E396F060E3A6FA90E3B6F040EB2
:101B92003C6F080E3D6F000E3E6F50EC01F00101EC
:101BA2000D51150A33E1780E0A01396F060E3A6FAC
:101BB200870E3B6F040E3C6F100E3D6F000E3E6FA2
:101BC20050EC01F0010E0601776F0A010951000A7B
:101BD2000FE1B00E396F060E3A6F990E3B6F040E8D
:101BE2003C6F070E3D6F000E3E6F50EC01F00ED0C1
:101BF200B00E396F060E3A6F060E3B6F040E3C6F45
:101C0200080E3D6F000E3E6F50EC01F001010D51C8
:101C1200160A35E1780E0A01396F060E3A6F0F0E79
:101C22003B6F040E3C6F100E3D6F000E3E6F50EC8A
:101C320001F0010E0601776F0901FE51000A10E161
:101C4200B00E0A01396F060E3A6FF50E3B6F030EA6
:101C52003C6F070E3D6F000E3E6F50EC01F00FD04F
:101C62000A01B00E396F060E3A6FFD0E3B6F030E7E
:101C72003C6F080E3D6F000E3E6F50EC01F001010B
:101C82000D51170A1BE1780E0A01396F060E3A6FE1
:101C9200320E3B6F040E3C6F100E3D6F000E3E6F16
:101CA20050EC01F0010E0601776FFCC930FAB00E5C
:101CB2000A01316F060E326FF4EC06F001010D518C
:101CC200180A12E1780E0A01396F060E3A6F430EB6
:101CD2003B6F040E3C6F100E3D6F000E3E6F50ECDA
:101CE20001F0010E0601776F01010D51190A12E18F
:101CF200780E0A01396F060E3A6F200E3B6F040E02
:101D02003C6F100E3D6F000E3E6F50EC01F0010E65
:0C1D12000601776F650E07010E6F1200CE
:101D1E00010E0A012225E96E000E2321EA6EEECF96
:101D2E00FBF922CAE9FF23CAEAFFEECFF7F92451E5
:101D3E00020AD8A485D0030E2225E96E000E2321B7
:101D4E00EA6EEECF5BF9020E2225E96E000E23211C
:101D5E00EA6EEECFF6F9040E2225E96E000E23216F
:101D6E00EA6E080E2225D96E000E2321DA6EDE50A1
:101D7E00EE24036E046A000E042203C000F004C0B9
:101D8E0001F001320032019E01BC018E00C0F5F956
:101D9E00050E2225E96E000E2321EA6E090E22257C
:101DAE00D96E000E2321DA6EDE50EE24036E046A25
:101DBE00000E042203C000F004C001F00132003214
:101DCE00019E01BC018E00C0FAF9060E2225E96EB5
:101DDE00000E2321EA6E0A0E2225D96E000E232153
:101DEE00DA6EDE50EE24036E046A000E042203C087
:101DFE0000F004C001F001320032019E01BC018EE0
:101E0E0000C0F9F9070E2225E96E000E2321EA6EB5
:101E1E000B0E2225D96E000E2321DA6EDE50EE2433
:101E2E00036E046A000E042203C000F004C001F029
:101E3E0001320032019E01BC018E00C0F8F924D09F
:101E4E0009015B6BF66B040E0A012225E96E000E8A
:101E5E002321EA6EEECFF5F9050E2225E96E000E6E
:101E6E002321EA6EEECFFAF9060E2225E96E000E58
:101E7E002321EA6EEECFF9F9070E2225E96E000E48
:0E1E8E002321EA6EEECFF8F931EC07F01200D6
:101E9C000A01226B140E225D4BE2070E006E000E3F
:101EAC00016E22CA04F0000E056E22EC06F05E0EE6
:101EBC000026090E0122050E0024E96E000E0120F9
:101ECC00EA6EEE50000A32E1070E006E000E016E53
:101EDC0022CA04F0000E056E22EC06F05E0E002401
:101EEC00E96E090E0120EA6EEECF01F00150090AED
:101EFC001DE1070E006E000E016E22CA04F0000EEA
:101F0C00056E22EC06F05E0E0026090E0122010E73
:101F1C000024E96E000E0120EA6EEECF23FAEECF1C
:101F2C0024FAEECF25FAEECF26FA02D0222BB2D726
:101F3C00140E225D02E3226B05D006013F510A010B
:0A1F4C00235D226F22CA00F012008C
:101F5600140E0901FB6F140EF76F140E5B6F140E4F
:101F6600F66F070E0701D86F020E0901FF6F070E05
:101F76000701FA6F020E0A01006F070E396F020E93
:101F86003A6F070E3B6F020E3C6FC1EC01F00A0E72
:101F96000901FA6F040EF56F0A0EF86F040EF96F59
:101FA6000C0EFD6FEA6BEB6BFE6B5C6B5A6BFC6B9E
:0C1FB6005D6B0A01096B31EC07F01200B2
:101FC2000A012251000A04E02351000A01E002D072
:101FD200F28801D0F29822CA27F723CA55F61200D6
:101FE2000A012251010A17E123B102D0829201D0E3
:101FF2008282060E0B6E130E0C6EAD0E0D6E0D2E42
:10200200FED70C2EFCD70B2EFAD700000000010ED3
:102012000801BF6F81860A012251020A17E123B12A
:1020220002D0829001D08280060E0B6E130E0C6ECF
:10203200AD0E0D6E0D2EFED70C2EFCD70B2EFAD741
:0E20420000000000010E0801B76F8188120037
:102050000A012251010A05E10801B86BB96B0901B7
:10206000F1910A012251020A05E10801BD6BBE6B24
:062070000901F1931200CA
:102076000A01236B140E235D44E2070E006E000E68
:10208600016E23CA04F0000E056E22EC06F05E0E09
:102096000026090E0122050E0024E96E000E01201D
:1020A600EA6EEE50000A2BE1070E006E000E016E7E
:1020B60023CA04F0000E056E22EC06F05E0E002424
:1020C600E96E090E0120EA6EEECF01F001502219E9
:1020D60016E0070E006E000E016E23CA04F0000E15
:1020E600056E22EC06F05E0E0026090E0122050E94
:1020F6000024E16E000E0120E26E010EE66E232B37
:04210600B9D7120033
:10210A000A01226B140E225D53E2070E006E000EC6
:10211A00016E22CA04F0000E056E22EC06F05E0E75
:10212A000026090E0122050E0024E96E000E012088
:10213A00EA6EEE50000A3AE1070E006E000E016EDA
:10214A0022CA04F0000E056E22EC06F05E0E002490
:10215A00E96E090E0120EA6EEECF01F00150090A7C
:10216A0025E1070E006E000E016E22CA04F0000E71
:10217A00056E22EC06F05E0E0026090E0122010E03
:10218A000024E96E000E0120EA6EEECF23FAEECFAC
:10219A0024FAEECF25FAEECF26FA050E0024E16ED8
:1021AA00000E0120E26E010EE66E02D0222BAAD7A3
:1021BA0006013F510A01235D016E01C022FA140E85
:0C21CA00015CD8B0226B22CA00F01200A9
:1021D6000A01226B236B2351120802E122518E0859
:1021E60009E34FEC06F0005201E004D00A01224B4D
:1021F600232BF1D70A01120E235D02E18F0E225D19
:1022060003E37B0E006E05D0C580C5A001D0FDD7C7
:04221600006A120048
:10221A00C26A070EC012C08E22CA00F000360090B1
:10222A00003600900050C212C2804AEC06F0C28208
:10223A00C2A201D0FDD7C4CF01F0006AC350001278
:08224A00000E0112C290120007
:04225200C58412002D
:102256000A011B6B83A81B8183AA1B831BCA00F080
:02226600120064
:102268000A011F6B206B1B51010A03E11C51800FEF
:10227800206F1B51020A03E11C51C00F206FA7DF1A
:102288007C0E0A01226FC7EC09F0800E0A01226F4A
:10229800C7EC09F020CA22FAC7EC09F0400E0A017F
:1022A800226FC7EC09F00A011F511D25E96E000EC7
:1022B8001E21EA6EEE500A0A10E01F5110080DE3C5
:1022C8001F511D25E96E000E1E21EA6EEECF22FA7F
:1022D800C7EC09F00A011F2BE6D7B7DF0D0E0C6E0D
:1022E800FB0E0D6E0D2EFED70C2EFCD70000000045
:0222F8001200D2
:1022FA000A011F6B050E1F5D0AE21F511D25E16EC3
:10230A00000E1E21E26E300EE66E1F2BF3D71F5110
:10231A001D25E16E000E1E21E26EE66A1F07000E01
:10232A001C1902E1000E1B192CE01F511D25206FFC
:10233A00000E1E21216F0A0E046E000E056E1BCAC6
:10234A0000F01CCA01F0C4EC00F008C000F009C09B
:10235A0001F0300E002620CAE1FF21CAE2FF00C0C8
:10236A00E6FF1F070A0E046E000E056E1BCA00F078
:10237A001CCA01F0C4EC00F000C01BFA01C01CFA30
:04238A00CED7120098
:10238E000A011C6B83BA02D01C8101D01C9184B04F
:10239E0002D01C8301D01C9383B802D01C8501D0BF
:1023AE001C95050E0501365D02E20A011C6B0A0141
:1023BE001C51000A1FE10401B551000A09E109018F
:1023CE00356B456B0401B56B0A011B6B0901446B40
:1023DE000401B551010A0EE1050EB65D0BE30901CC
:1023EE00356B456B0401B56B0A011B6B0901446B20
:1023FE000501366B09013551010A0FE10301F35155
:10240E000401B35D0AE3010E0901446F0401B36BCD
:10241E00190E0901455DD8A0452B0A011C51000A71
:10242E0026E00401B551010A22E109013551000AE5
:10243E001EE1020E3125016E000E3221026E000EDB
:10244E003321036E000E3421046E0601425104182E
:10245E0008E14151031805E14051021802E13F51D4
:10246E00011805E1010E0901356F0401B36B0A0174
:10247E001C51000A0AE00401B551010A06E10901E6
:10248E003551000A02E10A011B6B0A011C51000AB8
:10249E000FE00401B551010A0BE109013551010AA2
:1024AE0007E10A011C5109014403F3CF1BFA446BE7
:1024BE000A011C51000A11E00401B551000A0DE198
:1024CE001CCA1BFA010EB56F3FC631F940C632F970
:1024DE0041C633F942C634F9B66B0A011B51000AE4
:0E24EE0003E0010E07018D6F1BCA00F0120003
:1024FC000A011B6B050137B103D00A011B9102D0F5
:10250C000A011B81050135B103D00A011B9302D0CE
:10251C000A011B830501376B356B140E07010E5D29
:10252C0015E20A011BB106D00901ECB503D00A0172
:10253C001B9102D00A011B811BB306D00901ECB11F
:10254C0003D00A011B9302D00A011B831BCA00F0A3
:02255C0012006B
:10255E0083A003D083A201D006D00401B451640835
:10256E00D8B0B42B02D00401B46BB451640805E2A8
:10257E0083B003D0010E006E09D0B451640805E299
:0E258E0083B203D0020E006E01D0006A12006C
:10259C00680E0901016F010E026F400E036F0A0EE7
:1025AC00046FFF0E0801F66FFF0EF76F000EF86F49
:1025BC00000EF96FFF0EFA6FFF0EFB6F000EFC6F33
:1025CC00000EFD6FFF0EF26FFF0EF36F000EF46F37
:1025DC00000EF56FAC8A900EAB6E948E949C9EAAF6
:0A25EC0003D0AECF00F0FBD71200C1
:1025F6000901ECA302D00401D42B0401D451010A31
:1026060020E1780E0A01396F060E3A6FF50E3B6F20
:10261600040E3C6F100E3D6F000E3E6F50EC01F045
:10262600AA0E396F060E3A6F050E3B6F050E3C6F0C
:10263600100E3D6F000E3E6F50EC01F0010E0601CC
:10264600776F0401D451020A20E1780E0A01396F2E
:10265600060E3A6F150E3B6F050E3C6F100E3D6F62
:10266600000E3E6F50EC01F0AA0E396F060E3A6F5F
:10267600250E3B6F050E3C6F100E3D6F000E3E6F34
:1026860050EC01F0010E0601776F0401D451030AE4
:0A26960003E1640E07010E6F12004D
:1026A0009ADD7C0E0A01226FC7EC09F0800E0A0148
:1026B000226FC7EC09F00A011B51020A04E1380E2F
:1026C000226FC7EC09F00A011B51010A04E1340E24
:1026D000226FC7EC09F0800E0A01226FC7EC09F0E7
:1026E0000A011B51020A04E1390E226FC7EC09F0FE
:1026F0000A011B51010A04E1350E226FC7EC09F0F3
:10270000800E0A01226FC7EC09F01C0E0A01226F2D
:10271000C7EC09F0800E0A01226FC7EC09F0720EB7
:102720000A01226FC7EC09F0800E0A01226FC7EC84
:1027300009F0550E0A01226FC7EC09F0800E0A015C
:10274000226FC7EC09F06C0E0A01226FC7EC09F08A
:10275000800E0A01226FC7EC09F00C0E0A01226FED
:10276000C7EC09F0800E0A01226FC7EC09F0010ED8
:102770000A01226FC7EC09F0800E0A01226FC7EC34
:1027800009F0060E0A01226FC7EC09F0800E0A015B
:10279000226FC7EC09F0020E0A01226FC7EC09F0A4
:0427A00058DD1200EE
:1027A400949894968B988B9694889486C79EC79C8D
:0627B400380EC66E120093
:1027BA000A011C6B1D6B3F0E1B15026E02C01BFA31
:1027CA00540E1C6F02C000F00032009E0032009EC0
:1027DA000032009E0032009E540E00101C6F700ED4
:1027EA001D6F0F0E0214006E700E00101D6FEEDCCE
:1027FA007C0E0A01226FC7EC09F0800E0A01226FD3
:10280A00C7EC09F01CCA22FAC7EC09F0800E0A01CB
:10281A00226FC7EC09F01DCA22FAC7EC09F014DDD1
:10282A000D0E0C6EFB0E0D6E0D2EFED70C2EFCD768
:06283A0000000000120086
:102840000901ECA10BD001010D51000A03E1190EA1
:102850000D6F01D00D07640E07010E6F0901ECA585
:102860000AD001010D51190A02E10D6B01D00D2BA7
:10287000640E07010E6F0901ECA303D0660E070179
:102880000E6F0901EC51050A28E1780E0A01396F33
:10289000060E3A6FD50E3B6F040E3C6F100E3D6F67
:1028A000000E3E6F50EC01F00401D46BAA0E0A0139
:1028B000396F060E3A6FE50E3B6F040E3C6F100E3B
:1028C0003D6F000E3E6F50EC01F0020E0601656F89
:0C28D000010E776FFA0E07010E6F120068
:1028DC00010E0401316F0901ECA322D00401316B0C
:1028EC000701C16B650E0E6F89EC0AF001010D51E9
:1028FC00000A16E10A010A6B0001FB51000A06E10D
:10290C00C80E07010E6F010E0401B26F0001FB51DE
:10291C00010A06E1C90E07010E6F010E0401B26F28
:10292C0001010D51000A18E10901ECA109D00001C7
:10293C00FB51000805E2FB0789EC0AF0660E0E6FEE
:10294C000901ECA509D0010E0001FB5D05E2FB2B92
:10295C0089EC0AF0660E0E6F01010D51010A16E1A9
:10296C000901ECA108D0FB51000805E2FB0789EC3A
:10297C000AF0660E0E6F0901ECA508D0FF0EFB5D88
:10298C0005E2FB2B89EC0AF0660E0E6F01010D516E
:10299C00020A16E10901ECA108D05B51000805E21E
:1029AC005B0789EC0AF0660E0E6F0901ECA508D0E6
:1029BC00FF0E5B5D05E25B2B89EC0AF0660E0E6F79
:1029CC0001010D51030A16E10901ECA108D0F751E0
:1029DC00000805E2F70789EC0AF0660E0E6F090194
:1029EC00ECA508D0FF0EF75D05E2F72B89EC0AF099
:1029FC00660E0E6F01010D51040A16E10901ECA1DE
:102A0C0008D0F651000805E2F60789EC0AF0660ECC
:102A1C000E6F0901ECA508D0FF0EF65D05E2F62B52
:102A2C0089EC0AF0660E0E6F01010D51050A16E1D4
:102A3C000901ECA108D0F551000805E2F50789EC75
:102A4C000AF0660E0E6F0901ECA508D0FF0EF55DBD
:102A5C0005E2F52B89EC0AF0660E0E6F01010D51A3
:102A6C00060A16E10901ECA108D0FA51000805E2AA
:102A7C00FA0789EC0AF0660E0E6F0901ECA508D076
:102A8C00FF0EFA5D05E2FA2B89EC0AF0660E0E6F6A
:102A9C0001010D51070A16E10901ECA108D0F95109
:102AAC00000805E2F90789EC0AF0660E0E6F0901C1
:102ABC00ECA508D0FF0EF95D05E2F92B89EC0AF0C4
:102ACC00660E0E6F01010D51080A16E10901ECA109
:102ADC0008D0F851000805E2F80789EC0AF0660EF8
:102AEC000E6F0901ECA508D0FF0EF85D05E2F82B7E
:102AFC0089EC0AF0660E0E6F01010D51090A24E1F2
:102B0C000901ECA111D0000E006E0A010651005C07
:102B1C0002E10551010808E2010E055F000E065B9B
:102B2C0089EC0AF0660E0E6F0901ECA50DD0000EB3
:102B3C000A01065D02E10A0E055D06E2054B062B55
:102B4C0089EC0AF0660E0E6F01010D510A0A24E1A0
:102B5C000901ECA111D0000E006E0A010851005CB5
:102B6C0002E10751010808E2010E075F000E085B45
:102B7C0089EC0AF0660E0E6F0901ECA50DD0000E63
:102B8C000A01085D02E10A0E075D06E2074B082BFD
:102B9C0089EC0AF0660E0E6F01010D510B0A18E15B
:102BAC000901ECA109D00701D851000805E2D807AA
:102BBC0089EC0AF0660E0E6F0901ECA509D00F0E18
:102BCC000701D85D05E2D82B89EC0AF0660E0E6F72
:102BDC0001010D510C0A18E10901ECA109D0070102
:102BEC00FA51000805E2FA0789EC0AF0660E0E6F3E
:102BFC000901ECA509D00F0E0701FA5D05E2FA2BCD
:102C0C0089EC0AF0660E0E6F01010D510D0A16E1EA
:102C1C000901ECA108D0FF51000805E2FF0789EC7F
:102C2C000AF0660E0E6F0901ECA508D00A0EFF5DC6
:102C3C0005E2FF2B89EC0AF0660E0E6F01010D51B7
:102C4C000E0A18E10901ECA109D00A010051000893
:102C5C0005E2000789EC0AF0660E0E6F0901ECA57F
:102C6C0009D00A0E0A01005D05E2002B89EC0AF07E
:102C7C00660E0E6F01010D510F0A16E10901ECA150
:102C8C0008D0FD51000805E2FD0789EC0AF0660E3C
:102C9C000E6F0901ECA508D0FF0EFD5D05E2FD2BC2
:102CAC0089EC0AF0660E0E6F01010D51100A22E13B
:102CBC000901ECA110D0000E006EEB51005C02E19A
:102CCC00EA51000808E2010EEA5F000EEB5B89ECAA
:102CDC000AF0660E0E6F0901ECA50CD0FD0EEB5D33
:102CEC0002E1E80EEA5D06E2EA4BEB2B89EC0AF016
:102CFC00660E0E6F01010D51110A22E107010E6BD8
:102D0C00780E0A01396F060E3A6F480E3B6F090EAA
:102D1C003C6F100E3D6F000E3E6F50EC01F0010E3B
:102D2C000601656F0401316B0701C16B010E0601D1
:102D3C00776F010E0401B26FABEC0FF031EC07F0C2
:102D4C0001010D51120A16E10901ECA108D05C51E8
:102D5C00000805E25C0789EC0AF0660E0E6F0901AB
:102D6C00ECA508D0010E5C5D05E25C2B89EC0AF049
:102D7C00660E0E6F01010D51130A16E10901ECA14B
:102D8C0008D05A51000805E25A0789EC0AF0660E81
:102D9C000E6F0901ECA508D0010E5A5D05E25A2B05
:102DAC0089EC0AF0660E0E6F01010D51140A16E142
:102DBC000901ECA108D05D51000805E25D0789EC22
:102DCC000AF0660E0E6F0901ECA508D0010E5D5DD0
:102DDC0005E25D2B89EC0AF0660E0E6F01010D51B8
:102DEC00150A18E10901ECA109D00A0109510008E2
:102DFC0005E2090789EC0AF0660E0E6F0901ECA5D5
:102E0C0009D0010E0A01095D05E2092B89EC0AF0D3
:102E1C00660E0E6F01010D51160A16E10901ECA1A7
:102E2C0008D0FE51000805E2FE0789EC0AF0660E98
:102E3C000E6F0901ECA508D0010EFE5D05E2FE2B1C
:102E4C0089EC0AF0660E0E6F01010D51170A1FE195
:102E5C000901ECA10CD0FC51000809E2FC07FC5163
:102E6C00090AD8B4FC6B89EC0AF0660E0E6F0901E6
:102E7C00ECA50DD0FF0EFC5D0AE2FC2BFC51010A07
:102E8C0002E10A0EFC6F89EC0AF0660E0E6F01016E
:102E9C000D51180A1CE1670E07010E6F780E0A011E
:102EAC00396F060E3A6F480E3B6F090E3C6F100ED1
:102EBC003D6F000E3E6F50EC01F00401316B010EC2
:102ECC000601656F010E776F010E0401B26F0101EF
:102EDC000D51190A1DE107010E6B780E0A01396FAD
:102EEC00060E3A6F480E3B6F090E3C6F100E3D6F8D
:102EFC00000E3E6F50EC01F00401316B010E060127
:102F0C00656F010E776F09EC09F0010E0401B26FC9
:022F1C001200A1
:102F1E000A011B6B226B0DEC11F000C046F901C0CB
:102F2E0047F9010E0A01226F0DEC11F000C058F99D
:102F3E0001C059F906017651000A03E10801B86B88
:102F4E00B96B07012651000A03E10801BD6BBE6B88
:102F5E0007012751000A22E00801EC510901475DE3
:102F6E0004E10801EB510901465D0AE2FF0E08017A
:102F7E00B95D02E1FA0EB85D02E2B84BB92B0DD085
:102F8E000801000E006EB951005C02E1B851000854
:102F9E0004E2010EB85F000EB95B03D00801B86BF6
:102FAE00B96BB951E85D02E1B851E75D02E20A0181
:102FBE001B8106015551000A22E00801EA51090160
:102FCE00595D04E10801E9510901585D0AE2FF0E5D
:102FDE000801BE5D02E1FA0EBD5D02E2BD4BBE2BE5
:102FEE000DD00801000E006EBE51005C02E1BD5115
:102FFE00000804E2010EBD5F000EBE5B03D00801A7
:10300E00BD6BBE6BBE51F05D02E1BD51EF5D02E2E4
:0A301E000A011B831BCA00F0120018
:10302800838E010E0601986F010E0A01226F4DEC86
:103038000AF0005233E0010E0A01226F010E236FDD
:10304800F1EC0FF0170E0A01226F020E236F010E2A
:10305800246FD1EC08F0839C780E0A01396F060EB4
:103068003A6FBB0E3B6F060E3C6F100E3D6F000EA5
:103078003E6F50EC01F0AA0E396F060E3A6F990EAA
:103088003B6F060E3C6F100E3D6F000E3E6F50EC0E
:1030980001F0010E0601776F010E656F020E0A013D
:1030A800226F4DEC0AF0005211E0020E0A01226F65
:1030B800010E236FF1EC0FF04F0E0A01226F020E82
:1030C800236F010E246FD1EC08F0839C0A0E0A01CD
:1030D800226F4DEC0AF0005211E0010E0601766FE6
:1030E800010E0A01226F28EC10F05E0E0A01226F11
:1030F800020E236F010E246FD1EC08F00B0E0A01AB
:10310800226F4DEC0AF0005211E0010E0701266F04
:10311800020E0A01226F28EC10F02A0E0A01226F13
:10312800020E236F010E246FD1EC08F0050E0A0180
:10313800226F4DEC0AF0005212E0010E0A01226FD4
:1031480055C623FAE1EC0FF00601756B400E0A0133
:10315800226F020E236F010E246FD1EC08F0060EC9
:103168000A01226F4DEC0AF0005212E027C722FA3A
:10317800010E0A01236FE1EC0FF00701256B780EB1
:103188000A01226F020E236F010E246FD1EC08F0A2
:10319800030E0A01226F4DEC0AF0005209E1060104
:1031A8007651010A04E10901F1A101D001D012D040
:1031B8000601F9A10FD0F991010E0A01226FFAEC6C
:1031C80008F0370E0A01226F030E236F010E246FD9
:1031D800D1EC08F0040E0A01226F4DEC0AF00052FF
:1031E80009E107012651010A04E10901F1A301D00F
:1031F80001D012D00601F9A30FD0F993020E0A01EB
:10320800226FFAEC08F0460E0A01226F030E236FB4
:10321800010E246FD1EC08F00C0E0A01226F4DEC60
:103228000AF00052D8A4838C09015B51000A05E01A
:103238000501CE51010A01E002D00601F993030EFF
:103248000501CD5DD8A0A4D00901F2A133D05C530B
:1032580031E0010E0A01226FFAEC08F0020E0A01B1
:10326800226FFAEC08F00601766B0701266B050E53
:103278000E6F0C0E0A01226F030E236F010E246FCE
:10328800D1EC08F0090E0A01226F3BEC10F0780E21
:10329800396F060E3A6F5E0E3B6F050E3C6F100ECF
:1032A8003D6F000E3E6F50EC01F0010E0601776F86
:1032B800010E656F0901F051000A32E0010E0A01A2
:1032C800226FFAEC08F0020E0A01226FFAEC08F0FD
:1032D800050E07010E6F0601766B0701266B1D0EA2
:1032E8000A01226F030E236F010E246FD1EC08F040
:1032F800090E0A01226F3BEC10F0780E396F060EAA
:103308003A6F3C0E3B6F050E3C6F100E3D6F000E82
:103318003E6F50EC01F0010E0601776F010E656FEC
:103328000901F351010A34E15A5332E0010E0A014E
:10333800226FFAEC08F0020E0A01226FFAEC08F08C
:10334800050E07010E6F0601766B0701266B730EDB
:103358000A01226F030E236F010E246FD1EC08F0CF
:10336800090E0A01226F3BEC10F0780E396F060E39
:103378003A6F6F0E3B6F050E3C6F100E3D6F000EDF
:103388003E6F50EC01F0010E0601776F010E656F7C
:103398000601F951000AD8A4AED0000E0901EB19B4
:1033A80002E1000EEA1919E0EA5106013F250A0177
:1033B800226F0901EB51060140210A01236F000E1B
:1033C800060141210A01246F000E060142210A016B
:1033D800256F090E266FD8EC09F009015D5371E0DD
:1033E800010E0A01226F236BF1EC0FF0020E0A01A5
:1033F800226F236BF1EC0FF0010E0A01226F55C604
:1034080023FAE1EC0FF00601766B756B27C722FAF9
:10341800010E0A01236FE1EC0FF00701266B256B03
:10342800010E06013F250A01226F000E0601402108
:103438000A01236F000E060141210A01246F000EC4
:10344800060142210A01256F030E266FD8EC09F008
:10345800010E06013F250A01226F000E06014021D8
:103468000A01236F000E060141210A01246F000E94
:10347800060142210A01256F040E266FD8EC09F0D7
:10348800010E06013F250A01226F000E06014021A8
:103498000A01236F000E060141210A01246F000E64
:1034A800060142210A01256F010E2227000E23235F
:1034B800242325230D0E266FD8EC09F00601F98583
:1034C8001AD00601010E3F250A01226F000E0601DF
:1034D80040210A01236F000E060141210A01246FD1
:1034E800000E060142210A01256F0D0E266FD8EC49
:1034F80009F00601F9850D0E0A01226F4DEC0AF05C
:1035080000522CE0020E07010E6F06013D6B3E6B68
:10351800090E0A01226F3BEC10F0780E396F060E87
:103528003A6F440E3B6F060E3C6F100E3D6F000E57
:103538003E6F50EC01F0AA0E396F060E3A6F990EE5
:103548003B6F060E3C6F100E3D6F000E3E6F50EC49
:1035580001F0010E0601776F010E656F07010E512C
:10356800050A04E00E51060A01E030D00A01226B78
:103578003BEC10F0000E0901EB1902E1000EEA190C
:1035880025E0EA5106013F250A01226F0901EB51A6
:10359800060140210A01236F000E060141210A019C
:1035A800246F000E060142210A01256F090E266FBD
:1035B800D8EC09F00601436B3E6B880E0A01226FB6
:0E35C800030E236F010E246FD1EC08F01200E9
:1035D600838E010E0601986F010E0A01226F4DECD3
:1035E6000AF000520FE0010E0A01226F236BF1EC84
:1035F6000FF0DE0E0A01226F050E236F010E246FF7
:10360600D1EC08F0020E0A01226F4DEC0AF00052CE
:1036160031E0020E0A01226F236BF1EC0FF0CF0EA0
:103626000A01226F050E236F010E246FD1EC08F0FC
:10363600780E0A01396F060E3A6F170E3B6F060EAB
:103646003C6F100E3D6F000E3E6F50EC01F0AA0E5F
:10365600396F060E3A6F990E3B6F060E3C6F100ED1
:103666003D6F000E3E6F50EC01F0010E0601776FC4
:10367600010E656F0A0E0A01226F4DEC0AF0005228
:1036860011E0010E0601766F010E0A01226F28EC89
:1036960010F0020E0A01226F060E236F010E246F30
:1036A600D1EC08F00B0E0A01226F4DEC0AF0005225
:1036B60011E0010E0701266F020E0A01226F28ECA7
:1036C60010F0ED0E0A01226F050E236F010E246F16
:1036D600D1EC08F0050E0A01226F4DEC0AF00052FB
:1036E60013E0010E0A01226F55C623FAE1EC0FF032
:1036F6000601766B756B5C0E0A01226F070E236F4F
:10370600010E246FD1EC08F0070E0A01226F4DEC72
:103716000AF0005213E00A01226B55C623FAE1ECC7
:103726000FF00601766B010E756FD10E0A01226F3E
:10373600080E236F010E246FD1EC08F0060E0A0165
:10374600226F4DEC0AF0005212E027C722FA010E52
:103756000A01236FE1EC0FF00701256B2B0E0A011E
:10376600226F080E236F010E246FD1EC08F0080EAD
:103776000A01226F4DEC0AF0005212E027C722FA26
:103786000A01236BE1EC0FF0010E0701256FFB0E1A
:103796000A01226F070E236F010E246FD1EC08F089
:1037A600030E0A01226F4DEC0AF0005210E00801E8
:1037B6000C91010E0A01226FFAEC08F00D0E0A01B7
:1037C600226F080E236F010E246FD1EC08F0040E51
:1037D6000A01226F4DEC0AF0005210E008010C932A
:1037E600020E0A01226FFAEC08F03A0E0A01226F65
:1037F600080E236F010E246FD1EC08F006017651F6
:10380600010A39E10901F1A136D006017551000A14
:1038160032E1010E0A01226FFAEC08F0020E0A01EB
:10382600226FFAEC08F0060E07010E6F0601766BA2
:103836000701266B7F0E0A01226F080E236F010E09
:10384600246FD1EC08F0090E0A01226F3BEC10F050
:10385600780E396F060E3A6FBC0E3B6F050E3C6F45
:10386600100E3D6F000E3E6F50EC01F0010E06018A
:10387600776F010E656F07012651010A39E10901CB
:10388600F1A336D007012551000A32E1010E0A01E3
:10389600226FFAEC08F0020E0A01226FFAEC08F029
:1038A600060E07010E6F0601766B0701266B900E5A
:1038B6000A01226F080E236F010E246FD1EC08F067
:1038C600090E0A01226F3BEC10F0780E396F060ED6
:1038D6003A6FBC0E3B6F050E3C6F100E3D6F000E2F
:1038E6003E6F50EC01F0010E0601776F010E656F19
:1038F60009015B51000A05E00501CE51010A01E00C
:1039060002D008010C93030E0501CD5DD8A0A4D00A
:103916000901F2A133D0010E0A01226FFAEC08F078
:10392600020E0A01226FFAEC08F00601766B070117
:10393600266B060E0E6F010E0801A16F470E0A01D7
:10394600226F080E236F010E246FD1EC08F00A01D6
:10395600226B3BEC10F0780E396F060E3A6F5E0E56
:103966003B6F050E3C6F100E3D6F000E3E6F50EC28
:1039760001F0010E0601776F010E656F0901F35123
:10398600020A34E15A5332E0010E0A01226FFAECC0
:1039960008F0020E0A01226FFAEC08F0060E070183
:1039A6000E6F0601766B0701266B580E0A01226F11
:1039B600080E236F010E246FD1EC08F0090E0A01E0
:1039C600226F3BEC10F0780E396F060E3A6F6F0ED1
:1039D6003B6F050E3C6F100E3D6F000E3E6F50ECB8
:1039E60001F0010E0601776F010E656F0901F051B6
:1039F600000A32E0010E0A01226FFAEC08F0020E0C
:103A06000A01226FFAEC08F0060E07010E6F060196
:103A1600766B0701266B6D0E0A01226F080E236F67
:103A2600010E246FD1EC08F0090E0A01226F3BEC5F
:103A360010F0780E396F060E3A6F3C0E3B6F050E8E
:103A46003C6F100E3D6F000E3E6F50EC01F0010E04
:103A56000601776F010E656F08010C51000AD8A4A4
:103A6600A6D00A010953D8B488D0010E226F010EE0
:103A7600236FF1EC0FF0010E06013F250A01226FBC
:103A8600000E060140210A01236F000E06014121A6
:103A96000A01246F000E060142210A01256F0E0E4F
:103AA600266FD8EC09F0010E226F55C623FAE1EC19
:103AB6000FF00601766B756B27C722FA010E0A0115
:103AC600236FE1EC0FF00701266B256B010E060153
:103AD6003F250A01226F000E060140210A01236FCD
:103AE600000E060141210A01246F000E0601422143
:103AF6000A01256F030E266FD8EC09F0010E0601A8
:103B06003F250A01226F000E060140210A01236F9C
:103B1600000E060141210A01246F000E0601422112
:103B26000A01256F010E2227000E232324232523B5
:103B3600040E266FD8EC09F0010E06013F250A0196
:103B4600226F000E060140210A01236F000E0601B6
:103B560041210A01246F000E060142210A01256F48
:103B6600010E2227000E2323242325230D0E266F64
:103B7600D8EC09F008010C851AD0010E06013F2584
:103B86000A01226F000E060140210A01236F000E72
:103B9600060141210A01246F000E060142210A0195
:103BA600256F0D0E266FD8EC09F008010C850E0E58
:103BB6000A01226F4DEC0AF0005207E0020E0A01DC
:103BC600226F010E236FF1EC0FF00D0E0A01226F2A
:103BD6004DEC0AF000522CE0010E07010E6F0601B3
:103BE6003D6B3E6B090E0A01226F3BEC10F0780E1E
:103BF600396F060E3A6F1A0E3B6F080E3C6F100EA9
:103C06003D6F000E3E6F50EC01F0AA0E396F060EA6
:103C16003A6F990E3B6F060E3C6F100E3D6F000E0D
:103C26003E6F50EC01F0010E0601776F010E656FD5
:103C360007010E51050A04E00E51060A01E032D0D2
:103C46000A01226B3BEC10F0000E0901EB1902E1B0
:103C5600000EEA1927E006013E6B0901EA5106014A
:103C66003F250A01226F0901EB51060140210A0195
:103C7600236F000E060141210A01246F000E060182
:103C860042210A01256F090E266FD8EC09F00601BC
:103C9600436BA20E0A01226F080E236F010E246FDA
:063CA600D1EC08F0120051
:103CAC000901ECA326D0010E07010E6F839E780E3E
:103CBC000A01396F060E3A6F440E3B6F060E3C6FCD
:103CCC00100E3D6F000E3E6F50EC01F0AA0E396FD6
:103CDC00060E3A6FC00E3B6F080E3C6F100E3D6F18
:103CEC00000E3E6F50EC01F0020E0601656F010EE6
:103CFC00776FF1D1838E0901F0A107D0020E006F0E
:103D0C000A010A2B010E07018D6F0901F0A308D0DF
:103D1C00010E006F030E0A010A6F010E07018D6F71
:103D2C000601766B0701266B0ED2020E0A01226F7A
:103D3C00236BF1EC0FF0060E06013F250A01226FF2
:103D4C00000E060140210A01236F000E06014121DD
:103D5C000A01246F000E060142210A01256F150E7F
:103D6C00266FD8EC09F00A2BEED10901F1A30CD087
:103D7C0007012651010A08E1266B020E0A01226F87
:103D8C00FAEC08F00A010A2B0A01150E226F4DEC11
:103D9C000AF0005203E0010E0701266FD4D1010E88
:103DAC000A01226F236BF1EC0FF0060E06013F2582
:103DBC000A01226F000E060140210A01236F000E3A
:103DCC00060141210A01246F000E060142210A015D
:103DDC00256F140E266FD8EC09F00A2B0901F1A1FE
:103DEC000CD006017651010A08E1766B010E0A012E
:103DFC00226FFAEC08F00A010A2B0A01140E226F4A
:103E0C004DEC0AF0005203E0010E0601766F9BD1D7
:103E1C003FC62DF940C62EF941C62FF942C630F9DE
:103E2C00010E0A01226F010E236FF1EC0FF0060E4A
:103E3C0006013F250A01226F000E060140210A01EE
:103E4C00236F000E060141210A01246F000E0601AA
:103E5C0042210A01256F140E266FD8EC09F00A2BAB
:103E6C0072D10901F1A11BD006017651010A17E1AB
:103E7C00766B010E0A01226FFAEC08F00901005171
:103E8C00010A04E10B0E0A010A6F02D00A010A2B87
:103E9C0009012D5106013F5D006E00C021F9140E81
:103EAC000A01226F4DEC0AF0005203E0010E0601EC
:103EBC00766F49D13FC62DF940C62EF941C62FF970
:103ECC0042C630F9020E0A01226F010E236FF1EC8B
:103EDC000FF0060E06013F250A01226F000E0601A7
:103EEC0040210A01236F000E060141210A01246FB3
:103EFC00000E060142210A01256F150E266FD8EC23
:103F0C0009F00A2B20D10901F1A313D00701265186
:103F1C00010A0FE1266B020E0A01226FFAEC08F07F
:103F2C000A010A2B09012D5106013F5D006E00C0EC
:103F3C0023F9150E0A01226F4DEC0AF0005203E032
:103F4C00010E0701266FFFD03FC62DF940C62EF992
:103F5C0041C62FF942C630F9020E0A01226F236BBB
:103F6C00F1EC0FF0060E06013F250A01226F000E40
:103F7C00060140210A01236F000E060141210A01AE
:103F8C00246F000E060142210A01256F150E266FC3
:103F9C00D8EC09F00A2BD7D00901F1A313D00701F3
:103FAC002651010A0FE1266B020E0A01226FFAEC70
:103FBC0008F00A010A2B09012D5106013F5D006E24
:103FCC0000C022F9150E0A01226F4DEC0AF00052C6
:103FDC0003E0010E0701266FB6D03FC62DF940C68F
:103FEC002EF941C62FF942C630F9010E0A01226F93
:103FFC00236BF1EC0FF0060E06013F250A01226F30
:10400C00000E060140210A01236F000E060141211A
:10401C000A01246F000E060142210A01256F140EBD
:10402C00266FD8EC09F00A2B8ED00901F1A113D020
:10403C0006017651010A0FE1766B010E0A01226F1F
:10404C00FAEC08F00A010A2B09012D5106013F5D1B
:10405C00006E00C020F9140E0A01226F4DEC0AF01C
:10406C00005203E0010E0601766F6DD0200E0A019E
:10407C00226F090E236F49EC08F0200E226F090EF7
:10408C00236F00C924FA8FEC0EF0780E0A01396FF9
:10409C00060E3A6F7C0E3B6F070E3C6F100E3D6F99
:1040AC00000E3E6F50EC01F0AA0E396F060E3A6FFF
:1040BC006B0E3B6F070E3C6F100E3D6F000E3E6F8C
:1040CC0050EC01F0020E0601656F010E776F839EB6
:1040DC0007010E6B38D00A010A51000AD8B40AD66F
:1040EC000A51010AD8B421D60A51020AD8B43DD6D5
:1040FC000A51030AD8B453D60A51040AD8B46ED65E
:10410C000A51050AD8B484D60A51060AD8B4A9D6DD
:10411C000A51070AD8B4CED60A51080AD8B4F3D635
:10412C000A51090AD8B410D70A510A0AD8B434D79C
:10413C000A510B0AD8B451D70A510C0AD8B475D706
:08414C000A510D0A93E0120074
:10415400020E0A011B6F839E0601986B4EEC0FF052
:10416400005006013E1921E00701C16B4EEC0FF02F
:1041740000C03EF600C022FAB50E236F060E246F6F
:104184006DEC0AF0AA0E396F060E3A6FEE0E3B6F15
:10419400070E3C6F0B0E3D6F000E3E6F50EC01F0AE
:1041A400010E0601776F020E656F0901F051000AD6
:1041B40009E1090E0A01226F4DEC0AF00050010AD0
:1041C40001E0DED10901F651000A05E00501CE51F6
:1041D400010A01E084D00A01226B3BEC10F01B5170
:1041E40006013F25006E000E4021016E000E4121A4
:1041F400026E000E4221036E00C001FA01C002FAF1
:1042040002C003FA03C004FA00C022FA01C023FA70
:1042140002C024FA03C025FA010E0A01266FD8EC65
:1042240009F001CA22FA02CA23FA03CA24FA04CA08
:1042340025FA050E266FD8EC09F00601756B060EFB
:104244003F25006E000E4021016E000E4121026EDA
:10425400000E4221036E0A011B510026000E0122AA
:104264000222032200C001FA01C002FA02C003FACA
:1042740003C004FA00C022FA01C023FA02C024FADF
:1042840003C025FA0A0E266FD8EC09F00901F7518C
:1042940006013F25006E000E4021016E000E4121F3
:1042A400026E000E4221036E0A011B510026000E0D
:1042B40001220222032200C001FA01C002FA02C054
:1042C40003FA03C004FA00C022FA01C023FA02C0B0
:1042D40024FA03C025FA030E266FD8EC09F009016D
:1042E400F651000AD8B43ED10501CE51020AD8A431
:1042F40039D1090E0A01226F3BEC10F01B51060163
:104304003F25006E000E4021016E000E4121026E19
:10431400000E4221036E00C001FA01C002FA02C07D
:1043240003FA03C004FA00C022FA01C023FA02C04F
:1043340024FA03C025FA020E0A01266FD8EC09F00C
:1043440001CA22FA02CA23FA03CA24FA04CA25FAC1
:10435400060E266FD8EC09F00601756B060E3F2594
:10436400006E000E4021016E000E4121026E000E0F
:104374004221036E0A011B510026000E0122022273
:10438400032200C001FA01C002FA02C003FA03C00A
:1043940004FA00C022FA01C023FA02C024FA03C0BE
:1043A40025FA0B0E266FD8EC09F00901F751060126
:1043B4003F25006E000E4021016E000E4121026E69
:1043C400000E4221036E0A011B510026000E012239
:1043D4000222032200C001FA01C002FA02C003FA59
:1043E40003C004FA00C022FA01C023FA02C024FA6E
:1043F40003C025FA040E266FD8EC09F00901FD511B
:1044040006013F25006E000E4021016E000E412181
:10441400026E000E4221036E0A011B510026000E9B
:1044240001220222032200C001FA01C002FA02C0E2
:1044340003FA03C004FA00C022FA01C023FA02C03E
:1044440024FA03C025FA010E266FD8EC09F00901FD
:10445400FD5106013F25006E000E4021016E000E45
:104464004121026E000E4221036E0A011B510026F7
:10447400000E01220222032200C001FA01C002FA46
:1044840002C003FA03C004FA00C022FA01C023FAEE
:1044940002C024FA03C025FA050E266FD8EC09F0F1
:1044A4000701256B0901FD5106013F25006E000E31
:1044B4004021016E000E4121026E000E4221036E66
:1044C400060E0026000E0122022203220A011B51BD
:1044D4000026000E01220222032200C001FA01C0BC
:1044E40002FA02C003FA03C004FA00C022FA01C0AF
:1044F40023FA02C024FA03C025FA0A0E266FD8EC68
:1045040009F00901F65106013F25006E000E402115
:10451400016E000E4121026E000E4221036E0A015B
:104524001B510026000E0122022203220901FD5123
:104534000026000E01220222032200C001FA01C05B
:1045440002FA02C003FA03C004FA00C022FA01C04E
:1045540023FA02C024FA03C025FA030E0A01266FC7
:10456400D8EC09F0030E08010C6F0601766B070105
:10457400266B0501CD6B0601436B070E07010E6F19
:104584000901F2A117D0000EEB1902E1000EEA199D
:1045940011E006013D51000A0DE1010E3D6F010ECF
:1045A400436FD90E0A01226F070E236F010E246F89
:1045B400D1EC08F006013D51010A15E10901F2B1FF
:1045C40012D0000EEB1902E1000EEA190CE006010C
:1045D400436B3D6BC20E0A01226F070E236F010E5F
:0845E400246FD1EC08F0120075
:1045EC00030E0A011B6F839E0601986B4EEC0FF0B5
:1045FC00005006013E1921E00701C16B4EEC0FF093
:10460C0000C03EF600C022FAB50E236F060E246FD2
:10461C006DEC0AF0AA0E396F060E3A6FDE0E3B6F88
:10462C00000E3C6F0B0E3D6F000E3E6F50EC01F018
:10463C00010E0601776F020E656F0901F051000A39
:10464C0004E10801A15301E147D10801A16B838E5C
:10465C00010E0601986F0A01226B3BEC10F0010E63
:10466C0006013F250A01226F000E060140210A01B6
:10467C00236F000E060141210A01246F000E060172
:10468C0042210A01256F0C0E266FD8EC09F01B5144
:10469C0006013F25006E000E4021016E000E4121E7
:1046AC00026E000E4221036E00C001FA01C002FA34
:1046BC0002C003FA03C004FA00C022FA01C023FAB4
:1046CC0002C024FA03C025FA010E0A01266FD8ECA9
:1046DC0009F001CA22FA02CA23FA03CA24FA04CA4C
:1046EC0025FA050E266FD8EC09F00601756B060E3F
:1046FC003F25006E000E4021016E000E4121026E1E
:10470C00000E4221036E0A011B510026000E0122ED
:10471C000222032200C001FA01C002FA02C003FA0D
:10472C0003C004FA00C022FA01C023FA02C024FA22
:10473C0003C025FA0A0E266FD8EC09F00901FB51CB
:10474C0006013F25006E000E4021016E000E412136
:10475C00026E000E4221036E0A011B510026000E50
:10476C0001220222032200C001FA01C002FA02C097
:10477C0003FA03C004FA00C022FA01C023FA02C0F3
:10478C0024FA03C025FA030E266FD8EC09F00901B0
:10479C005B51000AD8B491D00501CE51020AD8A4BD
:1047AC008CD00901FD5106013F250A01226F000E34
:1047BC00060140210A01236F000E060141210A0166
:1047CC00246F000E060142210A01256F1B5122277E
:1047DC00000E232324232523020E266FD8EC09F088
:1047EC000901FD5106013F250A01226F000E060149
:1047FC0040210A01236F000E060141210A01246F9A
:10480C00000E060142210A01256F1B512227000EC2
:10481C00232324232523060E266FD8EC09F0070149
:10482C00256B0901FD5106013F250A01226F000E7F
:10483C00060140210A01236F000E060141210A01E5
:10484C00246F000E060142210A01256F060E222755
:10485C00000E2323242325231B512227000E232360
:10486C00242325230B0E266FD8EC09F009015B518C
:10487C0006013F250A01226F000E060140210A01A4
:10488C00236F000E060141210A01246F000E060160
:10489C0042210A01256F0901FD510A012227000E50
:1048AC002323242325231B512227000E23232423D7
:1048BC002523040E266FD8EC09F0030E0601F96FC0
:1048CC00766B0701266B06013D6B0501CD6B06016E
:1048DC00436B080E07010E6F090E0A01226F4DEC97
:1048EC000AF00050010AD8A4DFD10901F651000AE0
:1048FC0005E00501CE51010A01E084D00A01226BCA
:10490C003BEC10F01B5106013F25006E000E4021C0
:10491C00016E000E4121026E000E4221036E00C09A
:10492C0001FA01C002FA02C003FA03C004FA00C083
:10493C0022FA01C023FA02C024FA03C025FA010EA0
:10494C000A01266FD8EC09F001CA22FA02CA23FA2E
:10495C0003CA24FA04CA25FA050E266FD8EC09F00E
:10496C000601756B060E3F25006E000E4021016E90
:10497C00000E4121026E000E4221036E0A011B51F2
:10498C000026000E01220222032200C001FA01C0FF
:10499C0002FA02C003FA03C004FA00C022FA01C0F2
:1049AC0023FA02C024FA03C025FA0A0E266FD8ECAB
:1049BC0009F00901F75106013F25006E000E402158
:1049CC00016E000E4121026E000E4221036E0A019F
:1049DC001B510026000E01220222032200C001FA04
:1049EC0001C002FA02C003FA03C004FA00C022FAA2
:1049FC0001C023FA02C024FA03C025FA030E266F65
:104A0C00D8EC09F00901F651000AD8B43DD10501E2
:104A1C00CE51020AD8A438D10A01226B3BEC10F01B
:104A2C001B5106013F25006E000E4021016E000E49
:104A3C004121026E000E4221036E00C001FA01C03A
:104A4C0002FA02C003FA03C004FA00C022FA01C041
:104A5C0023FA02C024FA03C025FA020E0A01266FBB
:104A6C00D8EC09F001CA22FA02CA23FA03CA24FAC2
:104A7C0004CA25FA060E266FD8EC09F00601756BF0
:104A8C00060E3F25006E000E4021016E000E4121E6
:104A9C00026E000E4221036E0A011B510026000E0D
:104AAC0001220222032200C001FA01C002FA02C054
:104ABC0003FA03C004FA00C022FA01C023FA02C0B0
:104ACC0024FA03C025FA0B0E266FD8EC09F0090165
:104ADC00F75106013F25006E000E4021016E000EBD
:104AEC004121026E000E4221036E0A011B51002669
:104AFC00000E01220222032200C001FA01C002FAB8
:104B0C0002C003FA03C004FA00C022FA01C023FA5F
:104B1C0002C024FA03C025FA040E266FD8EC09F063
:104B2C000901FD5106013F25006E000E4021016E6A
:104B3C00000E4121026E000E4221036E0A011B5130
:104B4C000026000E01220222032200C001FA01C03D
:104B5C0002FA02C003FA03C004FA00C022FA01C030
:104B6C0023FA02C024FA03C025FA010E266FD8ECF2
:104B7C0009F00901FD5106013F25006E000E402190
:104B8C00016E000E4121026E000E4221036E0A01DD
:104B9C001B510026000E01220222032200C001FA42
:104BAC0001C002FA02C003FA03C004FA00C022FAE0
:104BBC0001C023FA02C024FA03C025FA050E266FA1
:104BCC00D8EC09F00701256B0901FD5106013F25C1
:104BDC00006E000E4021016E000E4121026E000E8F
:104BEC004221036E060E0026000E01220222032231
:104BFC000A011B510026000E01220222032200C0D2
:104C0C0001FA01C002FA02C003FA03C004FA00C0A0
:104C1C0022FA01C023FA02C024FA03C025FA0A0EB4
:104C2C00266FD8EC09F00901F65106013F25006EFC
:104C3C00000E4021016E000E4121026E000E422139
:104C4C00036E0A011B510026000E012202220322D0
:104C5C000901FD510026000E01220222032200C090
:104C6C0001FA01C002FA02C003FA03C004FA00C040
:104C7C0022FA01C023FA02C024FA03C025FA030E5B
:104C8C000A01266FD8EC09F0030E08010C6F06011F
:104C9C00766B0701266B06013D6B0501CD6B06019A
:104CAC00436B070E07010E6F0901F2A117D0000E1E
:104CBC00EB1902E1000EEA1911E006013D51000A60
:104CCC000DE1010E3D6F010E436F9E0E0A01226F26
:104CDC00000E236F010E246FD1EC08F006013D513C
:104CEC00010A15E10901F2B112D0000EEB1902E133
:104CFC00000EEA190CE00601436B3D6BB30E0A0182
:104D0C00226F000E236F010E246FD1EC08F01200FD
:104D1C00838E010E0601986F010E0A01226F4DEC75
:104D2C000AF000520FE0010E0A01226F236BF1EC26
:104D3C000FF0550E0A01226F030E236F010E246F24
:104D4C00D1EC08F0020E0A01226F4DEC0AF0005271
:104D5C0031E0020E0A01226F236BF1EC0FF0640EAE
:104D6C000A01226F030E236F010E246FD1EC08F0A1
:104D7C00780E0A01396F060E3A6F170E3B6F060E4E
:104D8C003C6F100E3D6F000E3E6F50EC01F0AA0E02
:104D9C00396F060E3A6F990E3B6F060E3C6F100E74
:104DAC003D6F000E3E6F50EC01F0010E0601776F67
:104DBC00010E656F0A0E0A01226F4DEC0AF00052CB
:104DCC0011E0010E0601766F010E0A01226F28EC2C
:104DDC0010F0A50E0A01226F020E236F010E246F34
:104DEC00D1EC08F00B0E0A01226F4DEC0AF00052C8
:104DFC0011E0010E0701266F020E0A01226F28EC4A
:104E0C0010F0BA0E0A01226F020E236F010E246FEE
:104E1C00D1EC08F0050E0A01226F4DEC0AF000529D
:104E2C0012E0010E0A01226F55C623FAE1EC0FF0D5
:104E3C000601756B870E0A01226F020E236F010E9D
:104E4C00246FD1EC08F0060E0A01226F4DEC0AF02B
:104E5C00005212E027C722FA010E0A01236FE1EC7F
:104E6C000FF00701256B960E0A01226F020E236FBD
:104E7C00010E246FD1EC08F0030E0A01226F4DECE9
:104E8C000AF0005209E106017651010A04E1090118
:104E9C00F1A101D001D012D008010CA10FD00C91BE
:104EAC00010E0A01226FFAEC08F0F20E0A01226FD1
:104EBC00020E236F010E246FD1EC08F0040E0A01D0
:104ECC00226F4DEC0AF0005209E107012651010A4C
:104EDC0004E10901F1A301D001D012D008010CA307
:104EEC000FD00C93020E0A01226FFAEC08F0FF0EA1
:104EFC000A01226F020E236F010E246FD1EC08F011
:104F0C0009015B51000A05E00501CE51010A01E0DF
:104F1C0002D008010C93030E0501CD5DD8A0A5D0DD
:104F2C000901F2A134D0010E0A01226FFAEC08F04B
:104F3C00020E0A01226FFAEC08F00601766B0701EB
:104F4C00266B060E0E6F010E0801A16FCF0E0A0123
:104F5C00226F020E236F010E246FD1EC08F0090EA4
:104F6C000A01226F3BEC10F0780E396F060E3A6F87
:104F7C005E0E3B6F050E3C6F100E3D6F000E3E6FCC
:104F8C0050EC01F0010E0601776F010E656F0901FF
:104F9C00F051000A32E0010E0A01226FFAEC08F01F
:104FAC00020E0A01226FFAEC08F0060E07010E6FD2
:104FBC000601766B0701266BE00E0A01226F020ECA
:104FCC00236F010E246FD1EC08F0090E0A01226F39
:104FDC003BEC10F0780E396F060E3A6F3C0E3B6FBF
:104FEC00050E3C6F100E3D6F000E3E6F50EC01F045
:104FFC00010E0601776F010E656F0901F351020A6C
:10500C0034E15A5332E0010E0A01226FFAEC08F037
:10501C00020E0A01226FFAEC08F0060E07010E6F61
:10502C000601766B0701266BFE0E0A01226F010E3C
:10503C00236F010E246FD1EC08F0090E0A01226FC8
:10504C003BEC10F0AA0E396F060E3A6F6F0E3B6FE9
:10505C00050E3C6F100E3D6F000E3E6F50EC01F0D4
:10506C00010E0601776F010E656F08010C51000AE5
:10507C00D8A4A6D00A010953D8B488D0010E226F47
:10508C00010E236FF1EC0FF0010E06013F250A0112
:10509C00226F000E060140210A01236F000E06014B
:1050AC0041210A01246F000E060142210A01256FDD
:1050BC000E0E266FD8EC09F0010E226F55C623FA9E
:1050CC00E1EC0FF00601766B756B27C722FA010E27
:1050DC000A01236FE1EC0FF00701266B256B010E23
:1050EC0006013F250A01226F000E060140210A012C
:1050FC00236F000E060141210A01246F000E0601E8
:10510C0042210A01256F030E266FD8EC09F0010E1F
:10511C0006013F250A01226F000E060140210A01FB
:10512C00236F000E060141210A01246F000E0601B7
:10513C0042210A01256F010E2227000E232324236E
:10514C002523040E266FD8EC09F0010E06013F252D
:10515C000A01226F000E060140210A01236F000E86
:10516C00060141210A01246F000E060142210A01A9
:10517C00256F010E2227000E2323242325230D0E39
:10518C00266FD8EC09F008010C851AD0010E060127
:10519C003F250A01226F000E060140210A01236FF0
:1051AC00000E060141210A01246F000E0601422166
:1051BC000A01256F0D0E266FD8EC09F008010C853D
:1051CC000E0E0A01226F4DEC0AF0005207E0020E9F
:1051DC000A01226F010E236FF1EC0FF00D0E0A0184
:1051EC00226F4DEC0AF000522CE0010E07010E6FFD
:1051FC0006013D6B3E6B090E0A01226F3BEC10F071
:10520C00780E396F060E3A6F1A0E3B6F080E3C6F14
:10521C00100E3D6F000E3E6F50EC01F0AA0E396F70
:10522C00060E3A6F990E3B6F060E3C6F100E3D6FDB
:10523C00000E3E6F50EC01F0010E0601776F010E6F
:10524C00656F07010E51050A04E00E51060A01E0D4
:10525C0030D00A01226B3BEC10F0000E0901EB1967
:10526C0002E1000EEA1925E0EA5106013F250A0188
:10527C00226F0901EB51060140210A01236F000E38
:10528C00060141210A01246F000E060142210A0188
:10529C00256F090E266FD8EC09F00601436B3E6BA7
:1052AC00C90E0A01226F000E236F010E246FD1EC80
:0452BC0008F01200E4
:1052C000020E0A011B6F839E0601986B4EEC0FF0D5
:1052D000005006013E1921E00701C16B4EEC0FF0B2
:1052E00000C03EF600C022FAB50E236F060E246FF2
:1052F0006DEC0AF0AA0E396F060E3A6FD60E3B6FB0
:10530000030E3C6F0B0E3D6F000E3E6F50EC01F034
:10531000010E0601776F020E656F0901F051000A58
:1053200008E1090E0A01226F4DEC0AF0005201E17A
:10533000B8D30A01226B3BEC10F00901F651000AC8
:1053400005E00501CE51010A01E038D10A011B51E7
:1053500006013F25006E000E4021016E000E412126
:10536000026E000E4221036E00C001FA01C002FA73
:1053700002C003FA03C004FA00C022FA01C023FAF3
:1053800002C024FA03C025FA010E0A01266FD8ECE8
:1053900009F00901F951000A11E001CA22FA02CA12
:1053A00023FA03CA24FA04CA25FA070E0A01266F53
:1053B000D8EC09F0010E0601756F0FD001CA22FA70
:1053C00002CA23FA03CA24FA04CA25FA050E0A01FE
:1053D000266FD8EC09F00601756B0901F951060139
:1053E0003F25006E000E4021016E000E4121026E2D
:1053F000000E4221036E060E0026000E012202223C
:1054000003220A011B510026000E01220222032260
:1054100000C001FA01C002FA02C003FA03C004FA94
:1054200000C022FA01C023FA02C024FA03C025FA00
:105430000A0E266FD8EC09F00901F95106013F2543
:10544000006E000E4021016E000E4121026E000E22
:105450004221036E0A011B510026000E0122022286
:10546000032200C001FA01C002FA02C003FA03C01D
:1054700004FA00C022FA01C023FA02C024FA03C0D1
:1054800025FA050E266FD8EC09F00901F851000A3B
:105490002FE0F75106013F25006E000E4021016EFE
:1054A000000E4121026E000E4221036E0901F851E7
:1054B000005E000E015A025A035A0A011B510026CF
:1054C000000E01220222032200C001FA01C002FAEA
:1054D00002C003FA03C004FA00C022FA01C023FA92
:1054E00002C024FA03C025FA070E266FD8EC09F093
:1054F0000901FE51000A39E0F75106013F25006E0F
:10550000000E4021016E000E4121026E000E42216C
:10551000036E0A011B510026000E01220222032203
:1055200000C001FA01C002FA02C003FA03C004FA83
:1055300000C022FA01C023FA02C024FA03C025FAEF
:10554000050E266FD8EC09F0020E0125226F000E21
:105550000221236F000E0321246F000E0421256F0A
:10556000030E266FD8EC09F029D00901F751060186
:105570003F25006E000E4021016E000E4121026E9B
:10558000000E4221036E0A011B510026000E01226B
:105590000222032200C001FA01C002FA02C003FA8B
:1055A00003C004FA00C022FA01C023FA02C024FAA0
:1055B00003C025FA030E266FD8EC09F00901F65155
:1055C000000AD8B460D20501CE51020AD8A45BD239
:1055D0000A011B5106013F25006E000E4021016E9D
:1055E000000E4121026E000E4221036E00C001FA3E
:1055F00001C002FA02C003FA03C004FA00C022FA92
:1056000001C023FA02C024FA03C025FA020E0A01DF
:10561000266FD8EC09F00901F951000A11E001CA1E
:1056200022FA02CA23FA03CA24FA04CA25FA080E87
:105630000A01266FD8EC09F0010E0701256F0FD083
:1056400001CA22FA02CA23FA03CA24FA04CA25FAB2
:10565000060E0A01266FD8EC09F00701256B090137
:10566000F95106013F25006E000E4021016E000E2B
:105670004121026E000E4221036E060E0026000E2E
:105680000122022203220A011B510026000E0122E0
:105690000222032200C001FA01C002FA02C003FA8A
:1056A00003C004FA00C022FA01C023FA02C024FA9F
:1056B00003C025FA0B0E266FD8EC09F00901F95149
:1056C00006013F25006E000E4021016E000E4121B3
:1056D000026E000E4221036E0A011B510026000ECD
:1056E00001220222032200C001FA01C002FA02C014
:1056F00003FA03C004FA00C022FA01C023FA02C070
:1057000024FA03C025FA060E266FD8EC09F0090129
:10571000F851000A2FE0F65106013F25006E000EF9
:105720004021016E000E4121026E000E4221036EE7
:105730000901F851005E000E015A025A035A0A018B
:105740001B510026000E01220222032200C001FA92
:1057500001C002FA02C003FA03C004FA00C022FA30
:1057600001C023FA02C024FA03C025FA080E266FEE
:10577000D8EC09F00901F65106013F25006E000E34
:105780004021016E000E4121026E000E4221036E87
:105790000A011B510026000E01220222032200C032
:1057A00001FA01C002FA02C003FA03C004FA00C001
:1057B00022FA01C023FA02C024FA03C025FA040E1B
:1057C000266FD8EC09F00901FD5106013F25006E56
:1057D000000E4021016E000E4121026E000E42219A
:1057E000036E0A011B510026000E01220222032231
:1057F00000C001FA01C002FA02C003FA03C004FAB1
:1058000000C022FA01C023FA02C024FA03C025FA1C
:10581000010E266FD8EC09F00901F951000A11E0D8
:1058200001CA22FA02CA23FA03CA24FA04CA25FAD0
:10583000070E0A01266FD8EC09F0010E0601756FFC
:105840000FD001CA22FA02CA23FA03CA24FA04CAF0
:1058500025FA050E0A01266FD8EC09F00601756BD2
:105860000901FD5106013F25006E000E4021016E29
:10587000000E4121026E000E4221036E0901F95112
:105880000026000E012202220322060E0026000E30
:105890000122022203220A011B510026000E0122CE
:1058A0000222032200C001FA01C002FA02C003FA78
:1058B00003C004FA00C022FA01C023FA02C024FA8D
:1058C00003C025FA0A0E266FD8EC09F00901FD5134
:1058D00006013F25006E000E4021016E000E4121A1
:1058E000026E000E4221036E0901F9510026000EDE
:1058F0000122022203220A011B510026000E01226E
:105900000222032200C001FA01C002FA02C003FA17
:1059100003C004FA00C022FA01C023FA02C024FA2C
:1059200003C025FA050E266FD8EC09F00901F851DD
:10593000000A35E0FD5106013F25006E000E4021B2
:10594000016E000E4121026E000E4221036E09011C
:10595000F7510026000E012202220322F851005EB8
:10596000000E015A025A035A0A011B510026000E6A
:1059700001220222032200C001FA01C002FA02C081
:1059800003FA03C004FA00C022FA01C023FA02C0DD
:1059900024FA03C025FA070E266FD8EC09F0090196
:1059A000FE51000A40E0F75106013F25006E000E4F
:1059B0004021016E000E4121026E000E4221036E55
:1059C0000901FD510026000E0122022203220A01D4
:1059D0001B510026000E01220222032200C001FA00
:1059E00001C002FA02C003FA03C004FA00C022FA9E
:1059F00001C023FA02C024FA03C025FA050E266F5F
:105A0000D8EC09F0020E0125226F000E0221236F4F
:105A1000000E0321246F000E0421256F030E266F54
:105A2000D8EC09F030D00901F75106013F25006E8E
:105A3000000E4021016E000E4121026E000E422137
:105A4000036E0901FD510026000E012202220322ED
:105A50000A011B510026000E01220222032200C06F
