:04000000AFEF3AF034
:1000080000C019F001C018F004C017F008C016F0BD
:100018000CC015F0F2A433D00301D02B8088010E58
:100028000501186F190E0301CE5D03E3CE6BCF6B8C
:1000380001D0CE2B190E0801A95D04E3A96B0301B9
:10004800D26B02D00801A92B190E0301D05D12E36F
:10005800D06B010E0701C427000EC523C623C72392
:100068000601F353010ED8A4000EF36F8098010E19
:100078000501196FF30ED76ECA0ED66EF294F0A072
:1000880017D00301CF51000A03E1CF2BCE6B01D06B
:10009800CF2B050ECF5D0BE3130ECE5D07E3CE51DC
:1000A800150804E3010ED36FCF6B01D0CF6BF0902E
:1000B800F0A21DD00301D251000A04E1D22B08019D
:1000C800A96B02D00301D22B0301050ED25D0EE30A
:1000D800130E0801A95D08E3A951150805E3010EEF
:1000E8000301D46FD26B02D00301D26BF092F2A25B
:1000F80035D00301D12BD151FF0A02E1020ED16F95
:10010800030E046ED1C300F06BD808C000F0005095
:10011800010A12E10801235306E00601AD5302E08B
:10012800818601D081960801285306E00601AC5368
:1001380002E0818801D08198030E046ED1C300F0DB
:100148004FD808C000F00050000A07E10801235307
:10015800D8A481862853D8A48188F29219C000F0C7
:1001680018C001F017C004F016C008F015C00CF054
:02017800110074
:10017A00E5C9C9FFC7B002D00000FCD7C9CF00F05B
:02018A00120061
:0E018C00ACB202D00000FCD7E5C9ADFF1200F6
:10019A00086A096A100E0C6E0134083609360450D2
:1001AA00085E0550D8A0053C095ED8B007D00450B7
:1001BA0008260550D8B0053C0926D89000360136E5
:0601CA000C2EEAD7120022
:1001D000F250026EF29E0500FF6A0150FE6E005062
:0801E000FD6E02BEF28E12005A
:1001E800086A080E0C6E003408360450085ED8B051
:0E01F80002D00826D89000360C2EF5D7120043
:100206000901E26B050EE25D0AE2E251E025E16ECC
:10021600000EE121E26E200EE66EE22BF3D7E251EC
:10022600E025E16E000EE121E26EE66AE207E251A8
:10023600E025E36F000EE121E46F0A0E046E000E66
:10024600056EDEC900F0DFC901F0A4DF08C000F0CA
:1002560009C001F0300E0026E3C9E1FFE4C9E2FF60
:1002660000C0E6FF0A0E046E000E056EDEC900F041
:10027600DFC901F08FDF00C0DEF901C0DFF9000E33
:10028600011802E1000E001801E102D0E207CFD703
:02029600120054
:10029800B4C8E1FFB5C8E2FFDEC9E6FFB2C800F0A6
:0802A800B3C801F091DF120060
:1002B000E0C904F0E1C905F0DEC902F0DFC903F0CE
:1002C000E2C900F0E3C901F0010E0901E25F000E8E
:1002D000E35B005001100FE004C0E9FF05C0EAFF36
:1002E00002C0E1FF03C0E2FFEECFE6FF024A032AAD
:1002F000044A052AE5D7DEC900F0DFC901F0120083
:100300000B6A0A6A096A086A0E6A033408360450DE
:10031000085E0550D8A0053C095E0650D8A0063CF2
:100320000A5E0750D8A0073C0B5EE86AD8A0010E11
:100330000E5E0336070E0C6E0334083609360A3695
:100340000B360E36045003A012D0085E0550D8A01C
:10035000053C095E0650D8A0063C0A5E0750D8A0AE
:10036000073C0B5EE86AD8A0010E0E5E11D008268D
:100370000550D8B0053C09260650D8B0063C0A26E0
:100380000750D8B0073C0B26E86AD8B0010E0E26FD
:1003900003360C2ED1D70234083609360A360B360E
:1003A0000E36045003A012D0085E0550D8A0053CBC
:1003B000095E0650D8A0063C0A5E0750D8A0073C4C
:1003C0000B5EE86AD8A0010E0E5E11D0082605501B
:1003D000D8B0053C09260650D8B0063C0A2607507E
:1003E000D8B0073C0B26E86AD8B0010E0E260236BC
:1003F000070E0C6E0234083609360A360B360E36F6
:10040000045002A012D0085E0550D8A0053C095E39
:100410000650D8A0063C0A5E0750D8A0073C0B5EE9
:10042000E86AD8A0010E0E5E11D008260550D8B09B
:10043000053C09260650D8B0063C0A260750D8B01D
:10044000073C0B26E86AD8B0010E0E2602360C2EA9
:10045000D1D70134083609360A360B360E36045029
:1004600002A012D0085E0550D8A0053C095E0650D7
:10047000D8A0063C0A5E0750D8A0073C0B5EE86A8D
:10048000D8A0010E0E5E11D008260550D8B0053C4C
:1004900009260650D8B0063C0A260750D8B0073CBB
:1004A0000B26E86AD8B0010E0E260136070E0C6E38
:1004B0000134083609360A360B360E36045001A0D0
:1004C00012D0085E0550D8A0053C095E0650D8A0A1
:1004D000063C0A5E0750D8A0073C0B5EE86AD8A02D
:1004E000010E0E5E11D008260550D8B0053C092635
:1004F0000650D8B0063C0A260750D8B0073C0B2659
:10050000E86AD8B0010E0E2601360C2ED1D7003481
:10051000083609360A360B360E36045001A012D0C2
:10052000085E0550D8A0053C095E0650D8A0063CE0
:100530000A5E0750D8A0073C0B5EE86AD8A0010EFF
:100540000E5E11D008260550D8B0053C092606508D
:10055000D8B0063C0A260750D8B0073C0B26E86AFC
:10056000D8B0010E0E260036070E0C6E0034083689
:1005700009360A360B360E36045000A012D0085E3B
:100580000550D8A0053C095E0650D8A0063C0A5E7E
:100590000750D8A0073C0B5EE86AD8A0010E0E5E9B
:1005A00011D008260550D8B0053C09260650D8B011
:1005B000063C0A260750D8B0073C0B26E86AD8B09C
:1005C000010E0E2600360C2ED1D700B00ED00450EE
:1005D00008260550D8B0053C09260650D8B0063C80
:0C05E0000A260750D8B0073C0B2612007A
:1005EC000901E16B030EE15D0AE2E151DF25E16EE9
:1005FC00000EE021E26E200EE66EE12BF3D7E15106
:10060C00DF25E16E000EE021E26EE66AE107E151C2
:10061C00DF25E26F000EE021E36F0A0E046EDEC9E7
:10062C0000F0DCDD08C000F0300E0026E2C9E1FF6E
:10063C00E3C9E2FF00C0E6FF0A0E046EDEC900F05B
:10064C00CDDD00C0DEF90050000A01E102D0E10767
:04065C00DED71200D3
:10066000A6A202D00000FCD7A69CDFC9AAFFDEC963
:10067000A9FFE0C9A8FFA69EA684F2CF00F0F29ED3
:10068000550EA76EAA0EA76EA68200BE02D0F29EDD
:0806900001D0F28EA6941200C5
:100698004FD009010D6B0E6B7CD0E00E0D6F010E73
:1006A8000E6F77D0EA0E0D6F010E0E6F72D0F40E3A
:1006B8000D6F010E0E6F6DD0120E0D6F020E0E6FC4
:1006C80068D0260E0D6F020E0E6F63D03A0E0D6FB6
:1006D800020E0E6F5ED0580E0D6F020E0E6F59D0BF
:1006E800760E0D6F020E0E6F54D08A0E0D6F020E2D
:1006F8000E6F4FD09E0E0D6F020E0E6F4AD0BC0EBD
:100708000D6F020E0E6F45D0EE0E0D6F020E0E6FBE
:1007180040D0200E0D6F030E0E6F3BD0520E0D6FA2
:10072800030E0E6F36D0840E0D6F030E0E6F31D090
:100738000901DE51000AADE0DE51010AAEE0DE51EA
:10074800020AB0E0DE51030AB2E0DE51040AB4E066
:10075800DE51050AB6E0DE51060AB8E0DE51070AA6
:10076800BAE0DE51080ABCE0DE51090ABEE0DE51FB
:100778000A0AC0E0DE510B0AC2E0DE510C0AC4E0EE
:10078800DE510D0AC6E0DE510E0AC8E0DE510F0A3E
:10079800CAE037D0640E0F6F000E106F53D0F40EFE
:1007A8000F6F010E106F4ED0E80E0F6F030E106F13
:1007B80049D0DC0E0F6F050E106F44D0D00E0F6FAE
:1007C800070E106F3FD0C40E0F6F090E106F3AD08E
:1007D800B80E0F6F0B0E106F35D0AC0E0F6F0D0EDD
:1007E800106F30D0A00E0F6F0F0E106F2BD0940E1D
:1007F8000F6F110E106F26D0880E0F6F130E106F2B
:1008080021D0DF51000AC6E0DF51010AC8E0DF51FC
:10081800020ACAE0DF51030ACCE0DF51040ACEE045
:10082800DF51050AD0E0DF51060AD2E0DF51070A9E
:10083800D4E0DF51080AD6E0DF51090AD8E0DF51D9
:100848000A0ADAE04ED0046B056B7BD0E00E046F29
:10085800010E056F76D0EA0E046F010E056F71D098
:10086800F40E046F010E056F6CD0120E046F020EA9
:10087800056F67D0260E046F020E056F62D03A0E20
:10088800046F020E056F5DD0580E046F020E056FDF
:1008980058D0760E046F020E056F53D08A0E046F7F
:1008A800020E056F4ED09E0E046F020E056F49D0E2
:1008B800BC0E046F020E056F44D0EE0E046F020EDC
:1008C800056F3FD0200E046F030E056F3AD0520E0D
:1008D800046F030E056F35D0840E046F030E056F89
:1008E80030D0E051000AAFE0E051010AAFE0E0513A
:1008F800020AB1E0E051030AB3E0E051040AB5E0AE
:10090800E051050AB7E0E051060AB9E0E051070AEC
:10091800BBE0E051080ABDE0E051090ABFE0E05140
:100928000A0AC1E0E0510B0AC3E0E0510C0AC5E035
:10093800E0510D0AC7E0E0510E0AC9E0E0510F0A84
:10094800CBE037D0640E026F000E036F53D0F40E65
:10095800026F010E036F4ED0E80E026F030E036F95
:1009680049D0DC0E026F050E036F44D0D00E026F23
:10097800070E036F3FD0C40E026F090E036F3AD003
:10098800B80E026F0B0E036F35D0AC0E026F0D0E52
:10099800036F30D0A00E026F0F0E036F2BD0940E92
:1009A800026F110E036F26D0880E026F130E036FAD
:1009B80021D0E151000AC6E0E151010AC8E0E15145
:1009C800020ACAE0E151030ACCE0E151040ACEE090
:1009D800E151050AD0E0E151060AD2E0E151070AE7
:1009E800D4E0E151080AD6E0E151090AD8E0E15122
:0609F8000A0ADAE0120019
:1009FE000901DB6B0A0EDB5D0AE2DB51D925E16EE4
:100A0E00000EDA21E26E300EE66EDB2BF3D7DB51F1
:100A1E00D925E16E000EDA21E26EE66ADB07000EE2
:100A2E00006ED81908E10050D71905E10050D6190B
:100A3E0002E1D551000A3EE0DB51D925DC6F000EF4
:100A4E00DA21DD6F0A0E046E000E056E066E076E5D
:100A5E00D5C900F0D6C901F0D7C902F0D8C903F044
:100A6E0048DC08C000F009C001F00AC002F00BC05B
:100A7E0003F0300E0026DCC9E1FFDDC9E2FF00C045
:100A8E00E6FFDB070A0E046E000E056E066E076E9D
:100A9E00D5C900F0D6C901F0D7C902F0D8C903F004
:100AAE0028DC00C0D5F901C0D6F902C0D7F903C0C1
:060ABE00D8F9B5D71200C3
:100AC4000B6A0A6A096A00500402F4CF09F0F3CFF2
:100AD40008F001500502F4CF0BF0F3CF0AF00050F8
:100AE4000502F3500926F4500A22E86A0B22015049
:100AF4000402F3500926F4500A22E86A0B2208C0C3
:100B040000F009C001F00AC002F00BC003F01200AB
:100B1400D5C9DEF90901DE33DE9FD6C9DFF9D7C9AD
:100B2400E0F962DD010ED515016E0150010A11E1F3
:100B3400030ED625DE6F000ED721DF6FA90EE06FFE
:100B4400000EE16F040EE26F000EE36F58EC01F04B
:100B540010D0030ED625DE6F000ED721DF6FAD0E49
:100B6400E06F000EE16F040EE26F000EE36F58ECCD
:040B740001F012007A
:0A0B7800490E0D6E0D2EFED712007F
:100B82000901D86BD5C9E9FFD6C9EAFFEECFD7F97B
:100B9200D751000A0FE0D7C9DEF94CEC01F0090188
:100BA200D82BD851D525E96E000ED621EA6EEECFAC
:060BB200D7F9EED7120096
:100BB800010E0901DE6F000EDF6F01C9E0F94CDD9F
:100BC800020E0901DE6F000EDF6F08C9E0F944DD8F
:100BD800030E0901DE6F000EDF6F07C9E0F93CDD87
:100BE800040E0901DE6F000EDF6F06C9E0F934DD7F
:100BF800050E0901DE6F000EDF6FFCC8E0F92CDD81
:100C0800060E0901DE6F000EDF6FFBC8E0F924DD78
:100C1800070E0901DE6F000EDF6FFAC8E0F91CDD70
:100C2800080E0901DE6F000EDF6F00C9E0F914DD60
:100C3800090E0901DE6F000EDF6FFFC8E0F90CDD59
:100C48000A0E0901DE6F000EDF6FFEC8E0F904DD51
:100C58000B0E0901DE6F000EDF6FFDC8E0F9FCDC4A
:100C68000C0E0901DE6F000EDF6FAAC6E0F9F4DC96
:100C78000D0E0901DE6F000EDF6F0CC9E0F9ECDC28
:100C88000E0E0901DE6F000EDF6F13C9E0F9E4DC18
:100C98000F0E0901DE6F000EDF6F12C9E0F9DCDC10
:100CA800100E0901DE6F000EDF6F11C9E0F9D4DC08
:100CB800110E0901DE6F000EDF6F0AC9E0F9CCDC06
:100CC800120E0901DE6F000EDF6F09C9E0F9C4DCFE
:100CD800130E0901DE6F000EDF6FABC6E0F9BCDC56
:100CE800140E0901DE6F000EDF6F0BC9E0F9B4DCEA
:100CF800AAC6DEF909C9DFF9ABC6E0F90BC9E1F903
:040D0800C7DC120032
:100D0C00C7B409D01F0EC514016E0150000A03E1CF
:0A0D1C00010E006E01D0006A120003
:100D2600D5C9DEF9D6C9DFF90901DF33DE33DF9F26
:100D3600D7C9E0F9D8C9E1F903EC01F0010ED515E0
:100D4600016ED6C902F0000E0216000E021802E16C
:100D5600010E011811E1050ED725DE6F000ED82110
:100D6600DF6F330EE06F010EE16F040EE26F000ECF
:100D7600E36F58EC01F010D0050ED725DE6F000E9C
:100D8600D821DF6F370EE06F010EE16F040EE26FC0
:0A0D9600000EE36F58EC01F01200AC
:100DA0000901D86BD5C9E9FFD6C9EAFFEECFD7F95B
:100DB000D751000A0FE0D7C9E5F9C6EC00F00901E8
:100DC000D82BD851D525E96E000ED621EA6EEECF8C
:060DD000D7F9EED7120076
:100DD600A69CD6C9AAFFD5C9A9FFA69EA680A8CF5C
:040DE60000F0120007
:100DEA00C7C9DEF90901DE33DE9FC8C9DFF9C9C9FF
:100DFA00E0F9F6EC02F0030EC825DE6F000EC921F9
:100E0A00DF6F240EE06F080EE16F040EE26F000E32
:080E1A00E36F58EC01F0120037
:100E2200010E0901C725016E000EC821026E01C024
:100E3200E9FF02C0EAFF0A0EEE24006E01C0E1FFE4
:100E420002C0E2FF00C0E6FF030EC725016E000EDE
:100E5200C821026E01C0E9FF02C0EAFF0A0EEE24B9
:100E6200006E01C0E1FF02C0E2FF00C0E6FFC7C999
:100E7200E9FFC8C9EAFFEECF00F0C7C9E1FFC8C960
:100E8200E2FF0A0E0024E66E020EC725016E000E76
:100E9200C821026E01C0E9FF02C0EAFF0A0EEE2479
:100EA200006E01C0E1FF02C0E2FF00C0E6FF040ED7
:100EB200C725E16E000EC821E26E040EE66E060E34
:100EC200C725E16E000EC821E26E040EE66E080E22
:100ED200C725E16E000EC821E26E040EE66E0A0E10
:100EE200C725E16E000EC821E26E040EE66E050E05
:100EF200C725E16E000EC821E26E0A0EE66E090EEB
:100F0200C725E16E000EC821E26E0A0EE66E070EDC
:100F1200C725E16E000EC821E26E0A0EE66E0B0EC8
:100F2200C725E16E000EC821E26E0A0EE66E1200BF
:100F32000901CC6B140ECC5D6DE2070E006E000E43
:100F4200016ECCC904F0000E056EBBDD240E002636
:100F5200090E0122050E0024E96E000E0120EA6E40
:100F6200EE50010A55E1070E006E000E016ECCC96B
:100F720004F0000E056EA5DD240E0024E16E090EBC
:100F82000120E26ECBC9E6FF070E006E000E016E75
:100F9200CCC904F0000E056E94DD240E0026090E65
:100FA2000122010E0024E16E000E0120E26EC7C98B
:100FB200E6FFC8C9E6FFC9C9E6FFCAC9E6FF070ED0
:100FC200006E000E016ECCC904F0000E056E79DDD4
:100FD200240E0026090E0122050E0024E16E000EE9
:100FE2000120E26EE66A070E006E000E016ECCC9A9
:100FF20004F0000E056E65DD240E0026090E0122A6
:10100200060E0024E16E000E0120E26EE66A02D0B6
:06101200CC2B90D7120068
:10101800010E0901C725E96E000EC821EA6EEECF60
:1010280001F9C7C9E9FFC8C9EAFFEECF07F9C951F5
:10103800020AD8A485D0030EC725E96E000EC82180
:10104800EA6EEECF08F9020EC725E96E000EC82138
:10105800EA6EEECF06F9040EC725E96E000EC82128
:10106800EA6E080EC725D96E000EC821DA6EDE506A
:10107800EE24036E046A000E042203C000F004C0CC
:1010880001F001320032019E01BC018E00C0FBF864
:10109800050EC725E96E000EC821EA6E090EC725A0
:1010A800D96E000EC821DA6EDE50EE24036E046A93
:1010B800000E042203C000F004C001F00132003227
:1010C800019E01BC018E00C0FAF8060EC725E96E24
:1010D800000EC821EA6E0A0EC725D96E000EC82177
:1010E800DA6EDE50EE24036E046A000E042203C09A
:1010F80000F004C001F001320032019E01BC018EF3
:1011080000C000F9070EC725E96E000EC821EA6E77
:101118000B0EC725D96E000EC821DA6EDE50EE24FC
:10112800036E046A000E042203C000F004C001F03C
:1011380001320032019E01BC018E00C0FFF822D0AE
:10114800086B066B040EC725E96E000EC821EA6E0F
:10115800EECFFBF8050EC725E96E000EC821EA6E32
:10116800EECFFAF8060EC725E96E000EC821EA6E22
:10117800EECF00F9070EC725E96E000EC821EA6E0A
:08118800EECFFFF815DD1200A7
:101190000801F2510901C71905E10801F26B010EBE
:1011A000006E15D00801F3510901C71905E10801C6
:1011B000F36B010E006E0BD00801F4510901C71941
:1011C00005E10801F46B010E006E01D0006A120007
:1011D0000901C76B140EC75D48E2070E006E000ED2
:1011E000016EC7C904F0000E056E6CDC240E0026EB
:1011F000090E0122050E0024E96E000E0120EA6EA0
:10120000EE50000A30E1070E006E000E016EC7C9F5
:1012100004F0000E056E56DC240E0024E96E090E63
:101220000120EA6EEECF01F00150090A1CE1070E21
:10123000006E000E016EC7C904F0000E056E42DCA0
:10124000240E0026090E0122010E0024E96E000E74
:101250000120EA6EEECFC8F9EECFC9F9EECFCAF998
:10126000EECFCBF902D0C72BB5D7140EC75D02E382
:10127000C76B05D00701C4510901C85DC76FC7C955
:0412800000F0120068
:101284000901C76BC86BC851120802E1C7518E0827
:1012940008E33ADD005201E004D00901C74BC82B32
:1012A400F2D70901120EC85D02E18F0EC75D03E398
:1012B4007B0E006E05D0C580C5A001D0FDD7006AA5
:0212C400120016
:1012C6000901C95318E0C4C7D5F9C5C7D6F9C6C7B9
:1012D600D7F9C7C7D8F9CA0ED96F090EDA6FFFEC6E
:1012E60004F0CA0ED56F090ED66F48DC2F0ED56FE7
:1012F600070ED66F52DDC7C9D5F9C8C9D6F94DDD77
:101306000D0EE56FC6EC00F00A0E0901E56FC6EC9E
:0413160000F01200D1
:10131A00C26A070EC012C08EC7C900F0003600901C
:10132A00003600900050C212C28021DCC282C2A2E2
:10133A0001D0FDD7C4CF01F0006AC3500012000EDD
:06134A000112C290120026
:101350000901C86B140EC85D44E2070E006E000E52
:10136000016EC8C904F0000E056E62EC05F0240E93
:101370000026090E0122050E0024E96E000E012050
:10138000EA6EEE50000A2BE1070E006E000E016EB1
:10139000C8C904F0000E056E62EC05F0240E0024AE
:1013A000E96E090E0120EA6EEECF01F00150C71977
:1013B00016E0070E006E000E016EC8C904F0000EA4
:1013C000056E62EC05F0240E0026090E0122050EC2
:1013D0000024E16E000E0120E26E010EE66EC82BC5
:0413E000B9D7120067
:1013E4000901C76B140EC75D53E2070E006E000EB1
:1013F400016EC7C904F0000E056E62EC05F0240E00
:101404000026090E0122050E0024E96E000E0120BB
:10141400EA6EEE50000A3AE1070E006E000E016E0D
:10142400C7C904F0000E056E62EC05F0240E00241A
:10143400E96E090E0120EA6EEECF01F00150090AAF
:1014440025E1070E006E000E016EC7C904F0000E00
:10145400056E62EC05F0240E0026090E0122010E31
:101464000024E96E000E0120EA6EEECFC8F9EECF3B
:10147400C9F9EECFCAF9EECFCBF9050E0024E16E1F
:10148400000E0120E26E010EE66E02D0C72BAAD731
:101494000701C4510901C85D016E01C0C7F9140EEA
:0C14A400015CD8B0C76BC7C900F0120093
:1014B0000901C751010A05E10701326B336B0801CD
:1014C000F6910901C751020A05E107010A6B0B6B8E
:0614D0000801F693120072
:1014D600140E0901016F140E076F140E086F140E17
:1014E600066F070E0601AA6F020E0901096F070EA5
:1014F6000601AB6F020E09010B6F070EDE6F020EBF
:10150600DF6F070EE06F020EE16F4CEC03F00A0E80
:101516000801FA6F040EFB6F0A0EFF6F040E090135
:10152600006F0C0E0801FC6FFD6BFE6B0901136B5F
:10153600126B116B0C6B010E0A6FDCEC05F01200DE
:101546000901C751010A03E10801236B81960901CC
:0E155600C751020A03E10801286B81981200B8
:10156400010E0901D56F000ED66F33DC00C001F9FE
:10157400020ED56F000ED66F2CDC00C008F9030EE6
:10158400D56F000ED66F25DC00C007F9040ED56FA9
:10159400000ED66F1EDC00C006F9050ED56F000ED6
:1015A400D66F17DC00C0FCF8060ED56F000ED66FA0
:1015B40010DC00C0FBF8070ED56F000ED66F09DCF7
:1015C40000C0FAF8080ED56F000ED66F02DC00C01A
:1015D40000F9090ED56F000ED66FEBEC06F000C0D3
:1015E400FFF80A0ED56F000ED66FEBEC06F000C0C4
:1015F400FDF8000E0801FE6FFDC8FEF8FD6B0B0E32
:101604000901D56F000ED66FEBEC06F0005008010F
:10161400FD13000EFE130C0E0901D56F000ED66FDC
:10162400EBEC06F000C0AAF60D0ED56F000ED66FD7
:10163400EBEC06F000C00CF90E0ED56F000ED66F61
:10164400EBEC06F000C013F90F0ED56F000ED66F49
:10165400EBEC06F000C012F9100ED56F000ED66F39
:10166400EBEC06F000C011F9110ED56F000ED66F29
:10167400EBEC06F000C00AF9120ED56F000ED66F1F
:10168400EBEC06F000C009F9130ED56F000ED66F0F
:10169400EBEC06F000C0ABF6140ED56F000ED66F5F
:1016A400EBEC06F000C00BF9AAC6DEF909C9DFF9B4
:0E16B400ABC6E0F900C0E1F94CEC03F0120007
:1016C200020E0501A46F070E0901DE6F060EDF6F21
:1016D2000C0EE06F070EE16F100EE26F000EE36F6B
:1016E20058EC01F007011D51000A38E1D50E09013D
:1016F200DE6F050EDF6F670EE06F070EE16F100EF3
:10170200E26F000EE36F58EC01F0010E0501F56F78
:1017120007017851000A0FE1070E0901DE6F060E7C
:10172200DF6F790EE06F070EE16F100EE26F000EB1
:10173200E36F58EC01F007017851010A0FE1070E3F
:101742000901DE6F060EDF6F340EE06F070EE16FE8
:10175200100EE26F000EE36F58EC01F007011D510D
:10176200010A1BE1D50E0901DE6F050EDF6F450E82
:10177200E06F070EE16F100EE26F000EE36F58ECA0
:1017820001F0010E0501F56F01C9D5F90D0E090130
:10179200D66F060ED76F8AEC05F007011D51020ABB
:1017A2001BE1D50E0901DE6F050EDF6FD60EE06F6D
:1017B200060EE16F100EE26F000EE36F58EC01F0BF
:1017C200010E0501F56F08C9D5F90D0E0901D66F95
:1017D200060ED76F8AEC05F007011D51030A1BE1C3
:1017E200D50E0901DE6F050EDF6F290EE06F080EC0
:1017F200E16F100EE26F000EE36F58EC01F0010E84
:101802000501F56F07C9D5F90D0E0901D66F060E50
:10181200D76F8AEC05F007011D51040A1BE1D50EB2
:101822000901DE6F050EDF6F3A0EE06F080EE16F01
:10183200100EE26F000EE36F58EC01F0010E05018D
:10184200F56F06C9D5F90D0E0901D66F060ED76FD1
:101852008AEC05F007011D51050A1BE1D50E0901AD
:10186200DE6F050EDF6F720EE06F080EE16F100E75
:10187200E26F000EE36F58EC01F0010E0501F56F07
:10188200FBC8D5F90D0E0901D66F060ED76F8AEC8B
:1018920005F007011D51060A1BE1D50E0901DE6F95
:1018A200050EDF6FD30EE06F020EE16F100EE26FD6
:1018B200000EE36F58EC01F0010E0501F56FFAC856
:1018C200D5F90D0E0901D66F060ED76F8AEC05F019
:1018D20007011D51070A1BE1D50E0901DE6F050E36
:1018E200DF6FE40EE06F020EE16F100EE26F000E8A
:1018F200E36F58EC01F0010E0501F56F00C9D5F94F
:101902000D0E0901D66F060ED76F8AEC05F007019E
:101912001D51080A1BE1D50E0901DE6F050EDF6FAE
:10192200B10EE06F020EE16F100EE26F000EE36F78
:1019320058EC01F0010E0501F56FFFC8D5F90D0E47
:101942000901D66F060ED76F8AEC05F007011D510B
:10195200090A3EE1D50E0901DE6F050EDF6FC20EE8
:10196200E06F020EE16F100EE26F000EE36F58ECB3
:1019720001F0010E0501F56FAAC6DEF90A0E090192
:10198200DF6F060EE06FF6EC02F00601AA510708BF
:1019920010E20E0E0901DE6F060EDF6F0D0EE06F14
:1019A200030EE16F060EE26F000EE36F58EC01F0DA
:1019B2000FD009010E0EDE6F060EDF6F140EE06F00
:1019C200030EE16F060EE26F000EE36F58EC01F0BA
:1019D20007011D510A0A3EE1D50E0901DE6F050E0F
:1019E200DF6FF50EE06F020EE16F100EE26F000E78
:1019F200E36F58EC01F0010E0501F56FABC6DEF99D
:101A02000A0E0901DF6F060EE06FF6EC02F0060126
:101A1200AB51070810E20E0E0901DE6F060EDF6FF2
:101A2200060EE06F030EE16F060EE26F000EE36F2B
:101A320058EC01F00FD009010E0EDE6F060EDF6FBB
:101A42005E0EE06F020EE16F060EE26F000EE36FB4
:101A520058EC01F007011D510B0A1BE1D50E0901DB
:101A6200DE6F050EDF6F650EE06F020EE16F100E86
:101A7200E26F000EE36F58EC01F0010E0501F56F05
:101A820009C9D5F90D0E0901D66F060ED76F8AEC7A
:101A920005F007011D510C0A1BE1D50E0901DE6F8D
:101AA200050EDF6F3C0EE06F020EE16F100EE26F6B
:101AB200000EE36F58EC01F0010E0501F56F0BC942
:101AC200D5F90D0E0901D66F060ED76F8AEC05F017
:101AD20007011D510D0A1BE1D50E0901DE6F050E2E
:101AE200DF6F4D0EE06F020EE16F100EE26F000E1F
:101AF200E36F58EC01F0010E0501F56FFCC8D5F952
:101B02000D0E0901D66F060ED76F8AEC05F007019C
:101B12001D510E0A1DE1D50E0901DE6F050EDF6FA4
:101B22008F0EE06F020EE16F100EE26F000EE36F98
:101B320058EC01F0010E0501F56FFDC8D5F9FEC89C
:101B4200D6F90B0E0901D76F060ED86F93EC06F08B
:101B520007011D510F0A12E1D50E0901DE6F050EB4
:101B6200DF6FA00EE06F020EE16F100EE26F000E4B
:101B7200E36F58EC01F0010E0501F56F07011D51ED
:101B8200100A33E1D50E0901DE6F050EDF6F760E06
:101B9200E06F020EE16F100EE26F000EE36F58EC81
:101BA20001F0010E0501F56F09011251000A0FE162
:101BB2000D0EDE6F060EDF6F870EE06F020EE16F15
:101BC200070EE26F000EE36F58EC01F00ED00D0E1F
:101BD200DE6F060EDF6F720EE06F030EE16F080E0E
:101BE200E26F000EE36F58EC01F007011D51110A7C
:101BF20033E1D50E0901DE6F050EDF6F7B0EE06F5C
:101C0200030EE16F100EE26F000EE36F58EC01F06D
:101C1200010E0501F56F09011151000A0FE10D0EC8
:101C2200DE6F060EDF6F610EE06F030EE16F070ECF
:101C3200E26F000EE36F58EC01F00ED00D0EDE6F76
:101C4200060EDF6F690EE06F030EE16F080EE26FA2
:101C5200000EE36F58EC01F007011D51120A33E147
:101C6200D50E0901DE6F050EDF6FA60EE06F030EC3
:101C7200E16F100EE26F000EE36F58EC01F0010EFF
:101C82000501F56F09010A51000A0FE10D0EDE6F21
:101C9200060EDF6FB70EE06F030EE16F070EE26F05
:101CA200000EE36F58EC01F00ED00D0EDE6F060E43
:101CB200DF6F8C0EE06F030EE16F080EE26F000E15
:101CC200E36F58EC01F007011D51130A33E1D50E01
:101CD2000901DE6F050EDF6F950EE06F030EE16FF7
:101CE200100EE26F000EE36F58EC01F0010E0501D9
:101CF200F56F09011351000A0FE10D0EDE6F060E9A
:101D0200DF6F3D0EE06F030EE16F070EE26F000E14
:101D1200E36F58EC01F00ED00D0EDE6F060EDF6F92
:101D2200450EE06F030EE16F080EE26F000EE36FE7
:101D320058EC01F007011D51140A1BE1D50E0901EF
:101D4200DE6F050EDF6F1B0EE06F030EE16F100EEC
:101D5200E26F000EE36F58EC01F0010E0501F56F22
:101D62000CC9D5F90D0E0901D66F060ED76F8AEC94
:101D720005F007011D51150A12E1D50E0901DE6FAA
:101D8200050EDF6F2C0EE06F030EE16F100EE26F97
:101D9200000EE36F58EC01F0010E0501F56F07012B
:101DA2001D51160A12E1D50E0901DE6F050EDF6F15
:101DB2004F0EE06F030EE16F100EE26F000EE36F45
:101DC20058EC01F0010E0501F56F650E06015C6F1E
:021DD2001200FD
:101DD4000901C751010A17E1C8B102D0829201D0AA
:101DE4008282060E0B6E130E0C6EAD0E0D6E0D2E52
:101DF400FED70C2EFCD70B2EFAD700000000010EE4
:101E04000801236F81860901C751020A17E1C8B18D
:101E140002D0829001D08280060E0B6E130E0C6EDF
:101E2400AD0E0D6E0D2EFED70C2EFCD70B2EFAD751
:0E1E340000000000010E0801286F81881200D6
:101E42000901C751000A04E0C851000A01E002D0AA
:101E5200F28801D0F298C7C9ADF6C8C9ACF6120033
:101E62009E96C7C9C9FFC7A401D0FDD79EB601D0AF
:101E7200FDD7C5BC02D0006A03D0C584020E006E35
:021E820012004C
:041E8400C5841200FF
:101E880083A003D083A201D003D0010E006E01D03D
:041E9800006A1200CA
:101E9C000901C06B83A8C08183AAC083C0C900F0AC
:021EAC00120022
:101EAE000901C16B83BA02D0C18101D0C19184B046
:101EBE0002D0C18301D0C19383B802D0C18501D0B5
:101ECE00C195050E05012B5D02E20901C16B0901E9
:101EDE00C151000A20E10301E751000A09E108019E
:101EEE00BC6BB76B0301E76B0901C06B0801B66BE6
:101EFE000301E751010A0FE1050E05010D5D0BE32C
:101F0E000801BC6BB76B0301E76B0901C06B0801DD
:101F1E00B66B05012B6B0801BC51010A0FE10301E1
:101F2E00E85105012C5D0AE3010E0801B66F0501AB
:101F3E002C6B190E0801B75DD8A0B72B0901C15142
:101F4E00000A26E00301E751010A22E10801BC5113
:101F5E00000A1EE1020EB825016E000EB921026EB6
:101F6E00000EBA21036E000EBB21046E0701C7518D
:101F7E00041808E1C651031805E1C551021802E123
:101F8E00C451011805E1010E0801BC6F05012C6B4F
:101F9E000901C151000A0AE00301E751010A06E1F5
:101FAE000801BC51000A02E10901C06B0901C151CF
:101FBE00000A0FE00301E751010A0BE10801BC51D1
:101FCE00010A07E10901C1510801B603F3CFC0F9B7
:101FDE00B66B0901C151000A12E00301E751000A74
:101FEE000EE1C1C9C0F9010EE76FC4C7B8F8C5C785
:101FFE00B9F8C6C7BAF8C7C7BBF805010D6B09011A
:10200E00C051000A03E0010E0601C56FC0C900F001
:02201E001200AE
:102020000901C46B050EC45D0AE2C451C225E16E0C
:10203000000EC321E26E300EE66EC42BF3D7C451FE
:10204000C225E16E000EC321E26EE66AC407000EEF
:10205000C11902E1000EC0192CE0C451C225C56FA0
:10206000000EC321C66F0A0E046E000E056EC0C9B5
:1020700000F0C1C901F0CDEC00F008C000F009C0CB
:1020800001F0300E0026C5C9E1FFC6C9E2FF00C05D
:10209000E6FFC4070A0E046E000E056EC0C900F00C
:1020A000C1C901F0CDEC00F000C0C0F901C0C1F918
:0420B000CED7120075
:0A20B400DCEC05F006015C6B120085
:1020BE000901C06BC76B8DEC09F000C0EDF801C0D3
:1020CE00EEF8010E0901C76F8DEC09F000C0EFF8B4
:1020DE0001C0F0F805019451000A03E10701326BCB
:1020EE00336B06011851000A03E107010A6B0B6BF3
:1020FE000601AD51000A22E009010E510801EE5D04
:10210E0004E109010D510801ED5D0AE2FF0E070120
:10211E00335D02E1FA0E325D02E2324B332B0DD00B
:10212E000701000E006E3351005C02E132510008CF
:10213E0004E2010E325F000E335B03D00701326BF7
:10214E00336B33510901105D04E10701325109016E
:10215E000F5DD8A0C0810601AC51000A22E0090132
:10216E0005510801F05D04E1090104510801EF5D1C
:10217E000AE2FF0E07010B5D02E1FA0E0A5D02E2B2
:10218E000A4B0B2B0DD00701000E006E0B51005C9D
:10219E0002E10A51000804E2010E0A5F000E0B5B19
:1021AE0003D007010A6B0B6B0B510901035D04E1B0
:1021BE0007010A510901025DD8A0C083C0C900F011
:0221CE001200FD
:1021D0000901C16BC26B3F0EC015026E02C0C0F98F
:1021E000540EC16F02C000F00032009E0032009E0B
:1021F0000032009E0032009E540E0010C16F700E1F
:10220000C26F0F0E0214006E700E0010C26F42EC0F
:1022100009F07C0E0901C76F24DE800E0901C76F2B
:1022200020DEC1C9C7F91DDE800E0901C76F19DEA6
:10223000C2C9C7F916DE26DE0D0E0C6EFB0E0D6E42
:0E2240000D2EFED70C2EFCD700000000120061
:10224E0042EC09F07C0E0901C76F04DE800E090115
:10225E00C76F00DE0901C051020A03E1380EC76FD5
:10226E00F9DD0901C051010A03E1340EC76FF2DD39
:10227E00800E0901C76FEEDD0901C051020A03E1AC
:10228E00390EC76FE7DD0901C051010A03E1350EB2
:10229E00C76FE0DD800E0901C76FDCDD1C0E090182
:1022AE00C76FD8DD800E0901C76FD4DD720E09012C
:1022BE00C76FD0DD800E0901C76FCCDD550E090149
:1022CE00C76FC8DD800E0901C76FC4DD6C0E090132
:1022DE00C76FC0DD800E0901C76FBCDD0C0E090192
:1022EE00C76FB8DD800E0901C76FB4DD010E09019D
:1022FE00C76FB0DD800E0901C76FACDD060E090198
:10230E00C76FA8DD800E0901C76FA4DD020E09019B
:08231E00C76FA0DDB0DD120065
:10232600949894968B988B9694889486C79EC79C0F
:06233600380EC66E120015
:10233C000901C46BC56BC051010A03E1C151800F87
:10234C00C56FC051020A03E1C151C00FC56F42EC09
:10235C0009F07C0E0901C76F7EDD800E0901C76F85
:10236C007ADDC5C9C7F977DD400E0901C76F73DD8A
:10237C000901C451C225E96E000EC321EA6EEE506C
:10238C000A0A0FE0C45110080CE3C451C225E96ECF
:10239C00000EC321EA6EEECFC7F95DDD0901C42B37
:1023AC00E7D76ADD0D0E0C6EFB0E0D6E0D2EFED7F3
:0A23BC000C2EFCD7000000001200F8
:1023C600010E0301606F0801F1A322D00301606BC7
:1023D6000601F36B650E5C6F61EC0BF007011D5196
:1023E600000A16E109011F6B07017851000A06E190
:1023F600C80E06015C6F010E03014E6F070178518E
:10240600010A06E1C90E06015C6F010E03014E6F5B
:1024160007011D51000A18E10801F1A109D00701C1
:102426007851000805E2780761EC0BF0660E5C6FE8
:102436000801F1A509D0010E0701785D05E2782BA8
:1024460061EC0BF0660E5C6F07011D51010A18E185
:102456000801F1A109D009010151000805E20107AF
:1024660061EC0BF0660E5C6F0801F1A509D0FF0E5A
:102476000901015D05E2012B61EC0BF0660E5C6F54
:1024860007011D51020A18E10801F1A109D009014D
:102496000851000805E2080761EC0BF0660E5C6F58
:1024A6000801F1A509D0FF0E0901085D05E2082B18
:1024B60061EC0BF0660E5C6F07011D51030A18E113
:1024C6000801F1A109D009010751000805E2070733
:1024D60061EC0BF0660E5C6F0801F1A509D0FF0EEA
:1024E6000901075D05E2072B61EC0BF0660E5C6FD8
:1024F60007011D51040A18E10801F1A109D00901DB
:102506000651000805E2060761EC0BF0660E5C6FEB
:102516000801F1A509D0FF0E0901065D05E2062BAB
:1025260061EC0BF0660E5C6F07011D51050A16E1A2
:102536000801F1A108D0FB51000805E2FB0761EC98
:102546000BF0660E5C6F0801F1A508D0FF0EFB5D6F
:1025560005E2FB2B61EC0BF0660E5C6F07011D516B
:10256600060A16E10801F1A108D0FA51000805E2B1
:10257600FA0761EC0BF0660E5C6F0801F1A508D056
:10258600FF0EFA5D05E2FA2B61EC0BF0660E5C6F4E
:1025960007011D51070A18E10801F1A109D0090137
:1025A6000051000805E2000761EC0BF0660E5C6F57
:1025B6000801F1A509D0FF0E0901005D05E2002B17
:1025C60061EC0BF0660E5C6F07011D51080A16E1FF
:1025D6000801F1A108D0FF51000805E2FF0761ECF0
:1025E6000BF0660E5C6F0801F1A508D0FF0EFF5DCB
:1025F60005E2FF2B61EC0BF0660E5C6F07011D51C7
:10260600090A18E10801F1A109D00601AA5100083A
:1026160005E2AA0761EC0BF0660E5C6F0801F1A5F6
:1026260009D00F0E0601AA5D05E2AA2B61EC0BF09C
:10263600660E5C6F07011D510A0A18E10801F1A137
:1026460009D00601AB51000805E2AB0761EC0BF0BF
:10265600660E5C6F0801F1A509D00F0E0601AB5D91
:1026660005E2AB2B61EC0BF0660E5C6F07011D51AA
:102676000B0A18E10801F1A109D009010951000866
:1026860005E2090761EC0BF0660E5C6F0801F1A527
:1026960009D00A0E0901095D05E2092B61EC0BF070
:1026A600660E5C6F07011D510C0A18E10801F1A1C5
:1026B60009D009010B51000805E20B0761EC0BF08C
:1026C600660E5C6F0801F1A509D00A0E09010B5DC3
:1026D60005E20B2B61EC0BF0660E5C6F07011D51DA
:1026E6000D0A16E10801F1A108D0FC51000805E227
:1026F600FC0761EC0BF0660E5C6F0801F1A508D0D3
:10270600FF0EFC5D05E2FC2B61EC0BF0660E5C6FC8
:1027160007011D510E0A22E10801F1A110D0000E99
:10272600006EFE51005C02E1FD51000808E2010E58
:10273600FD5F000EFE5B61EC0BF0660E5C6F080140
:10274600F1A50CD0FD0EFE5D02E1E80EFD5D06E290
:10275600FD4BFE2B61EC0BF0660E5C6F07011D5105
:102766000F0A22E106015C6BD50E0901DE6F050E2C
:10277600DF6F940EE06F080EE16F100EE26F000E31
:10278600E36F58EC01F0010E0501A46F0301606BC5
:102796000601F36B010E0501F56F010E03014E6F85
:1027A6006BEC0AF0DCEC05F007011D51100A18E18C
:1027B6000801F1A109D009011251000805E212072A
:1027C60061EC0BF0660E5C6F0801F1A509D0010EF5
:1027D6000901125D05E2122B61EC0BF0660E5C6FCF
:1027E60007011D51110A18E10801F1A109D00901DB
:1027F6001151000805E2110761EC0BF0660E5C6FE3
:102806000801F1A509D0010E0901115D05E2112BA0
:1028160061EC0BF0660E5C6F07011D51120A18E1A0
:102826000801F1A109D009010A51000805E20A07C9
:1028360061EC0BF0660E5C6F0801F1A509D0010E84
:1028460009010A5D05E20A2B61EC0BF0660E5C6F6E
:1028560007011D51130A18E10801F1A109D0090168
:102866001351000805E2130761EC0BF0660E5C6F6E
:102876000801F1A509D0010E0901135D05E2132B2C
:1028860061EC0BF0660E5C6F07011D51140A21E125
:102896000801F1A10DD009010C51000809E20C074D
:1028A6000C51090AD8B40C6B61EC0BF0660E5C6F28
:1028B6000801F1A50ED0FF0E09010C5D0AE20C2BF2
:1028C6000C51010A02E10A0E0C6F61EC0BF0660E68
:1028D6005C6F07011D51150A1CE1670E06015C6F4E
:1028E600D50E0901DE6F050EDF6F940EE06F080E40
:1028F600E16F100EE26F000EE36F58EC01F003017A
:10290600606B010E0501A46F010EF56F010E030148
:102916004E6F07011D51160A1DE106015C6BD50EAF
:102926000901DE6F050EDF6F940EE06F080EE16F92
:10293600100EE26F000EE36F58EC01F00301606BBE
:10294600010E0501A46F010EF56FB2EC0AF0010E3F
:0629560003014E6F1200A8
:10295C0083D2838E0801F5A108D009011F2B020E2A
:10296C000801E46F010E0601C56F0801F5A309D03B
:10297C00030E09011F6F010E0801E46F010E060121
:10298C00C56FC3D2020E0901C76FC86BEAEC0EF01B
:10299C00040E0701C4250901C76F000E0701C521EC
:1029AC000901C86F000E0701C6210901C96F000E8D
:1029BC000701C7210901CA6F150ECB6F99EC07F0FF
:1029CC001F2B0601186BA1D20801F6A30CD006012F
:1029DC001851010A08E1186B020E0901C76FA3EC2C
:1029EC000AF009011F2B0901150EC76FC8EC08F07E
:1029FC00005203E0010E0601186F87D2010E090187
:102A0C00C76FC86BEAEC0EF0040E0701C425090170
:102A1C00C76F000E0701C5210901C86F000E070121
:102A2C00C6210901C96F000E0701C7210901CA6F30
:102A3C00140ECB6F99EC07F01F2B0501946B08015A
:102A4C00F6A10CD005019451010A08E1946B010E1A
:102A5C000901C76FA3EC0AF009011F2B0901140E21
:102A6C00C76FC8EC08F0005203E0010E0501946F2B
:102A7C004CD20801F551000A1AE0C4C7DAF8C5C7F0
:102A8C00DBF8C6C7DCF8C7C7DDF8010E0901C76F54
:102A9C00010EC86FEAEC0EF00901C76BACC6C8F9A1
:102AAC0021EC0FF0010E0501C36F09011F2B2DD274
:102ABC000801F551000A12E009011F2BC4C7E5F803
:102ACC00C5C7E6F8C6C7E7F8C7C7E8F8010EC76F71
:102ADC00ACC6C8F921EC0FF00501C36B16D2080186
:102AEC00F551000A12E009011F2BC4C7E9F8C5C74C
:102AFC00EAF8C6C7EBF8C7C7ECF8C76BACC6C8F9A1
:102B0C0021EC0FF0010E0501C36FFFD10801F55147
:102B1C00000A25E0E451020A03E109011F2B03D04E
:102B2C000901110E1F6FC4C7E0F8C5C7E1F8C6C78D
:102B3C00E2F8C7C7E3F8010EC76FA3EC0AF008016F
:102B4C00DA51E05D006E00C0CFF8DA51E55D006E41
:102B5C0000C0D2F8E951E05D006E00C0D3F8D5D1C9
:102B6C000801F551000A1AE0C4C7DAF8C5C7DBF84A
:102B7C00C6C7DCF8C7C7DDF8020E0901C76F010E26
:102B8C00C86FEAEC0EF0ADC6C7F90901C86B21ECB1
:102B9C000FF0010E06017B6F09011F2BB6D1080146
:102BAC00F551000A12E009011F2BC4C7E5F8C5C78F
:102BBC00E6F8C6C7E7F8C7C7E8F8ADC6C7F9010E0F
:102BCC00C86F21EC0FF006017B6B9FD10801F5510A
:102BDC00000A12E009011F2BC4C7E9F8C5C7EAF8BF
:102BEC00C6C7EBF8C7C7ECF8ADC6C7F9C86B21EC84
:102BFC000FF0010E06017B6F88D10801F551000A18
:102C0C001EE009011F2BC4C7E0F8C5C7E1F8C6C711
:102C1C00E2F8C7C7E3F8020EC76FA3EC0AF008018D
:102C2C00DA51E05D006E00C0D1F8DA51E55D006E5E
:102C3C0000C0D6F8E951E05D006E00C0D7F865D150
:102C4C000801F551000A19E0C4C7DAF8C5C7DBF86A
:102C5C00C6C7DCF8C7C7DDF8020E0901C76FC86B21
:102C6C00EAEC0EF0ADC6C7F90901C86B21EC0FF008
:102C7C00010E06017B6F09011F2B47D10801F5518D
:102C8C00000A12E009011F2BC4C7E5F8C5C7E6F816
:102C9C00C6C7E7F8C7C7E8F8ADC6C7F9010EC86FD5
:102CAC0021EC0FF006017B6B30D10801F551000AC5
:102CBC0012E009011F2BC4C7E9F8C5C7EAF8C6C75B
:102CCC00EBF8C7C7ECF8ADC6C7F9C86B21EC0FF031
:102CDC00010E06017B6F19D10801F551000A1EE0A7
:102CEC0009011F2BC4C7E0F8C5C7E1F8C6C7E2F855
:102CFC00C7C7E3F8020EC76FA3EC0AF00801DA515C
:102D0C00E05D006E00C0D0F8DA51E55D006E00C0E9
:102D1C00D8F8E951E05D006E00C0D9F8F6D0080192
:102D2C00F551000A19E0C4C7DAF8C5C7DBF8C6C705
:102D3C00DCF8C7C7DDF8010E0901C76FC86BEAECF8
:102D4C000EF00901C76BACC6C8F921EC0FF0010EEF
:102D5C000501C36F09011F2BD8D00801F551000ADA
:102D6C0012E009011F2BC4C7E5F8C5C7E6F8C6C7B2
:102D7C00E7F8C7C7E8F8010EC76FACC6C8F921EC75
:102D8C000FF00501C36BC1D00801F551000A12E028
:102D9C0009011F2BC4C7E9F8C5C7EAF8C6C7EBF889
:102DAC00C7C7ECF8C76BACC6C8F921EC0FF0010E25
:102DBC000501C36FAAD00801F551000A1EE00901F4
:102DCC001F2BC4C7E0F8C5C7E1F8C6C7E2F8C7C7F0
:102DDC00E3F8010EC76FA3EC0AF00801DA51E05DCD
:102DEC00006E00C0CEF8DA51E55D006E00C0D4F87C
:102DFC00E951E05D006E00C0D5F887D0CE0E090118
:102E0C00C76F080EC86FE4C8C9F90CEC08F0D50EF2
:102E1C00DE6F050EDF6F1A0EE06F050EE16F100E00
:102E2C00E26F000EE36F58EC01F0070EDE6F060E3A
:102E3C00DF6FD50EE06F030EE16F100EE26F000E28
:102E4C00E36F58EC01F0020E0501A46F010EF56F53
:102E5C00839E06015C6B59D009011F51000AD8B43E
:102E6C0078D51F51010AD8B48DD51F51020AD8B498
:102E7C00ABD51F51030AD8B4C1D51F51040AD8B41D
:102E8C00DED51F51050AD8B4F4D51F51060AD8B4A3
:102E9C000FD61F51070AD8B422D61F51080AD8B42E
:102EAC0035D61F51090AD8B45BD61F510A0AD8B4BB
:102EBC0076D61F510B0AD8B489D61F510C0AD8B438
:102ECC009CD61F510D0AD8B4BBD61F510E0AD8B4CC
:102EDC00D5D61F510F0AD8B4E8D61F51100AD8B452
:102EEC00FBD61F51110AD8B41AD71F51120AD8B4E5
:102EFC0034D71F51130AD8B447D71F51140AD8B46A
:0C2F0C005AD71F51150AD8B479D712000B
:102F18008C0E0801B26F010EB36FE50EB46F090E87
:102F2800B56FFF0EAA6FFF0EAB6F000EAC6F000EF1
:102F3800AD6FFF0EAE6FFF0EAF6F000EB06F000EDD
:102F4800B16FFF0EA46FFF0EA56F000EA66F000EE7
:102F5800A76FAC8A900EAB6E948E949C9EAA03D0F9
:082F6800AECF00F0FBD7120010
:102F70000901C06B0301D3B103D00901C09102D094
:102F80000901C0810301D4B103D00901C09302D06B
:102F90000901C0830301D36BD46B140E06015C5D81
:102FA00015E20901C0B106D00801F1B503D009014D
:102FB000C09102D00901C081C0B306D00801F1B1AF
:102FC00003D00901C09302D00901C083C0C900F039
:022FD0001200ED
:102FD2000801F1A302D00101112B01011151010AD3
:102FE20020E1D50E0901DE6F050EDF6FD10EE06F15
:102FF200000EE16F100EE26F000EE36F58EC01F06D
:10300200070EDE6F060EDF6FE10EE06F000EE16F5E
:10301200100EE26F000EE36F58EC01F0010E050195
:10302200F56F01011151020A20E1D50E0901DE6F8F
:10303200050EDF6FF10EE06F000EE16F100EE26F12
:10304200000EE36F58EC01F0070EDE6F060EDF6F25
:10305200010EE06F010EE16F100EE26F000EE36FE2
:1030620058EC01F0010E0501F56F01011151030A3F
:0A30720003E1640E06015C6F12001A
:10307C00838E010E0601A96F010E0901C76FC8EC02
:10308C0008F0005233E0010E0901C76F010EC86F42
:10309C00EAEC0EF0E60E0901C76F050EC86F010EC3
:1030AC00C96F63EC09F0839CD50E0901DE6F050E28
:1030BC00DF6FC40EE06F050EE16F100EE26F000EB5
:1030CC00E36F58EC01F0070EDE6F060EDF6FF60EA5
:1030DC00E06F050EE16F100EE26F000EE36F58EC1F
:1030EC0001F0010E0501F56F010EA46F020E09012E
:1030FC00C76FC8EC08F0005211E0020E0901C76F4F
:10310C00010EC86FEAEC0EF0950E0901C76F050EA3
:10311C00C86F010EC96F63EC09F0839C050E0901A1
:10312C00C76FC8EC08F0005213E0010E0901C76F1D
:10313C00ACC6C8F921EC0FF00501946BC36BB40E4F
:10314C000901C76F050EC86F010EC96F63EC09F05A
:10315C00070E0901C76FC8EC08F0005212E0090114
:10316C00C76BACC6C8F921EC0FF0010E0501C36F9B
:10317C00A50E0901C76F050EC86F010EC96F63EC70
:10318C0009F0060E0901C76FC8EC08F0005213E0F5
:10319C00ADC6C7F9010E0901C86F21EC0FF006018D
:1031AC00186B7B6B6C0E0901C76F060EC86F010E96
:1031BC00C96F63EC09F0080E0901C76FC8EC08F081
:1031CC00005212E0ADC6C7F90901C86B21EC0FF033
:1031DC00010E06017B6F5D0E0901C76F060EC86FED
:1031EC00010EC96F63EC09F00A0E0901C76FC8EC38
:1031FC0008F0005211E0010E0501946F010E090157
:10320C00C76F58EC0AF0930E0901C76F060EC86F12
:10321C00010EC96F63EC09F00B0E0901C76FC8EC06
:10322C0008F0005211E0010E0601186F020E0901A0
:10323C00C76F58EC0AF07D0E0901C76F060EC86FF8
:10324C00010EC96F63EC09F0030E0901C76FC8ECDE
:10325C0008F0005210E006017C91010E0901C76FC5
:10326C00A3EC0AF0280E0901C76F060EC86F010EF9
:10327C00C96F63EC09F0040E0901C76FC8EC08F0C4
:10328C00005210E006017C93020E0901C76FA3ECFB
:10329C000AF0190E0901C76F060EC86F010EC96F2F
:1032AC0063EC09F00C0E0901C76FC8EC08F0005272
:1032BC00D8A4838C05019451010A47E10801F6A1B9
:1032CC0044D00501C351000A40E1010E0901C76F4A
:1032DC00A3EC0AF0020E0901C76FA3EC0AF0050E6D
:1032EC0006015C6F0501946B0601186B480E090111
:1032FC00C76F060EC86F010EC96F63EC09F0090E9B
:10330C000901C76FA8EC09F0D50EDE6F050EDF6F53
:10331C00370EE06F060EE16F100EE26F000EE36FDA
:10332C0058EC01F0070EDE6F060EDF6FEE0EE06F4D
:10333C00070EE16F100EE26F000EE36F58EC01F018
:10334C00010E0501F56F020EA46F06011851010A5A
:10335C0047E10801F6A344D006017B51000A40E185
:10336C00010E0901C76FA3EC0AF0020E0901C76F29
:10337C00A3EC0AF0050E06015C6F0501946B0601C7
:10338C00186BDA0E0901C76F070EC86F010EC96FF3
:10339C0063EC09F0090E0901C76FA8EC09F0D50E12
:1033AC00DE6F050EDF6F370EE06F060EE16F100E4D
:1033BC00E26F000EE36F58EC01F0070EDE6F060EA5
:1033CC00DF6FEE0EE06F070EE16F100EE26F000E76
:1033DC00E36F58EC01F0010E0501F56F020EA46FBE
:1033EC0009010851000A05E00701D951010A01E061
:1033FC0002D006017C93030E0801215DD8A0CBD02E
:10340C00F7A141D0090112533EE0010EC76FA3ECA6
:10341C000AF0020E0901C76FA3EC0AF00501946BC8
:10342C000601186B050E5C6F100E0901C76F080EB4
:10343C00C86F010EC96F63EC09F0090E0901C76F63
:10344C00A8EC09F0D50EDE6F050EDF6F370EE06FBE
:10345C00060EE16F100EE26F000EE36F58EC01F0F8
:10346C00070EDE6F060EDF6FFF0EE06F070EE16FCB
:10347C00100EE26F000EE36F58EC01F0010E050127
:10348C00F56F020EA46F0801F551000A3FE0010E22
:10349C000901C76FA3EC0AF0020E0901C76FA3EC78
:1034AC000AF00501946B0601186B050E5C6FB20EE9
:1034BC000901C76F070EC86F010EC96F63EC09F0E5
:1034CC00090E0901C76FA8EC09F0D50EDE6F050EC9
:1034DC00DF6F370EE06F060EE16F100EE26F000E1D
:1034EC00E36F58EC01F0070EDE6F060EDF6FA10ED6
:1034FC00E06F070EE16F100EE26F000EE36F58ECF9
:10350C0001F0010E0501F56F020EA46F0801F851D0
:10351C00010A41E1090111533EE0010EC76FA3EC12
:10352C000AF0020E0901C76FA3EC0AF00501946BB7
:10353C000601186B050E5C6F8A0E0901C76F070E2A
:10354C00C86F010EC96F63EC09F0090E0901C76F52
:10355C00A8EC09F0D50EDE6F050EDF6F370EE06FAD
:10356C00060EE16F100EE26F000EE36F58EC01F0E7
:10357C00070EDE6F060EDF6FC80EE06F070EE16FF1
:10358C00100EE26F000EE36F58EC01F0010E050116
:10359C00F56F020EA46F06017C51000AD8A48DD0E1
:1035AC0009010A5370E0010EC76FC86BEAEC0EF00C
:1035BC00020E0901C76FC86BEAEC0EF0010E09018F
:1035CC00C76FACC6C8F921EC0FF00501946BC36B47
:1035DC00ADC6C7F9010E0901C86F21EC0FF0060149
:1035EC00186B7B6B010E0701C4250901C76F000E18
:1035FC000701C5210901C86F000E0701C621090189
:10360C00C96F000E0701C7210901CA6F030ECB6FEA
:10361C0099EC07F0010E0701C4250901C76F000ED4
:10362C000701C5210901C86F000E0701C621090158
:10363C00C96F000E0701C7210901CA6F040ECB6FB9
:10364C0099EC07F0010E0701C4250901C76F000EA4
:10365C000701C5210901C86F000E0701C621090128
:10366C00C96F000E0701C7210901CA6F010EC727D8
:10367C00000EC823C923CA230D0ECB6F99EC07F09B
:10368C0006017C851AD0010E0701C4250901C76FFC
:10369C00000E0701C5210901C86F000E0701C621E4
:1036AC000901C96F000E0701C7210901CA6F0D0E70
:1036BC00CB6F99EC07F006017C850D0E0901C76FE5
:1036CC00C8EC08F000522DE0020E06015C6F0701F9
:1036DC00C36B0801226B090E0901C76FA8EC09F036
:1036EC00D50EDE6F050EDF6F4C0EE06F080EE16F2E
:1036FC00100EE26F000EE36F58EC01F0070EDE6F58
:10370C00060EDF6FF60EE06F050EE16F100EE26F26
:10371C00000EE36F58EC01F0010E0501F56F020E7F
:10372C00A46F06015C51050A04E05C51060A01E035
:10373C0045D00901C76BA8EC09F0000E0801FE1971
:10374C0002E1000EFD193AE0FD510701C425090103
:10375C00C76F0801FE510701C5210901C86F000E92
:10376C000701C6210901C96F000E0701C721090114
:10377C00CA6F090ECB6F99EC07F008014B6B070170
:10378C00C36B5D0E0901C76F080EC86F010EC96FC0
:10379C0063EC09F0070E0901DE6F060EDF6F830E76
:1037AC00E06F080EE16F100EE26F000EE36F58EC45
:0E37BC0001F0010E0501F56F020EA46F120060
:1037CA00F0D1838E0801F5A107D0020EC96F090155
:1037DA001F2B010E0601C56F0801F5A308D0010EC3
:1037EA00C96F030E09011F6F010E0601C56F05019E
:1037FA00946B0601186B0DD2020E0901C76FC86BD4
:10380A00EAEC0EF0060E0701C4250901C76F000E87
:10381A000701C5210901C86F000E0701C621090168
:10382A00C96F000E0701C7210901CA6F150ECB6FB8
:10383A0099EC07F01F2BEDD10801F6A30CD0060175
:10384A001851010A08E1186B020E0901C76FA3ECAF
:10385A000AF009011F2B0901150EC76FC8EC08F001
:10386A00005203E0010E0601186FD3D1010E0901BF
:10387A00C76FC86BEAEC0EF0060E0701C4250901F2
:10388A00C76F000E0701C5210901C86F000E0701A5
:10389A00C6210901C96F000E0701C7210901CA6FB4
:1038AA00140ECB6F99EC07F01F2B0801F6A10CD070
:1038BA0005019451010A08E1946B010E0901C76FD1
:1038CA00A3EC0AF009011F2B0901140EC76FC8ECFB
:1038DA0008F0005203E0010E0501946F9AD1C4C7A3
:1038EA00CAF8C5C7CBF8C6C7CCF8C7C7CDF8010E0A
:1038FA000901C76F010EC86FEAEC0EF0060E070148
:10390A00C4250901C76F000E0701C5210901C86F47
:10391A00000E0701C6210901C96F000E0701C72160
:10392A000901CA6F140ECB6F99EC07F01F2B71D1E6
:10393A000801F6A11BD005019451010A17E1946B05
:10394A00010E0901C76FA3EC0AF00801C951010A67
:10395A0004E10B0E09011F6F02D009011F2B080198
:10396A00CA510701C45D006E00C0BEF8140E0901F9
:10397A00C76FC8EC08F0005203E0010E0501946F0E
:10398A0048D1C4C7CAF8C5C7CBF8C6C7CCF8C7C799
:10399A00CDF8020E0901C76F010EC86FEAEC0EF0EE
:1039AA00060E0701C4250901C76F000E0701C521CC
:1039BA000901C86F000E0701C6210901C96F000E6F
:1039CA000701C7210901CA6F150ECB6F99EC07F0E1
:1039DA001F2B1FD10801F6A313D006011851010AA3
:1039EA000FE1186B020E0901C76FA3EC0AF0090177
:1039FA001F2B0801CA510701C45D006E00C0C0F840
:103A0A00150E0901C76FC8EC08F0005203E0010E59
:103A1A000601186FFED0C4C7CAF8C5C7CBF8C6C717
:103A2A00CCF8C7C7CDF8020E0901C76FC86BEAEC1C
:103A3A000EF0060E0701C4250901C76F000E070123
:103A4A00C5210901C86F000E0701C6210901C96F06
:103A5A00000E0701C7210901CA6F150ECB6F99EC39
:103A6A0007F01F2BD6D00801F6A313D00601185170
:103A7A00010A0FE1186B020E0901C76FA3EC0AF0E5
:103A8A0009011F2B0801CA510701C45D006E00C05D
:103A9A00BFF8150E0901C76FC8EC08F0005203E021
:103AAA00010E0601186FB5D0C4C7CAF8C5C7CBF84E
:103ABA00C6C7CCF8C7C7CDF8010E0901C76FC86BD6
:103ACA00EAEC0EF0060E0701C4250901C76F000EC5
:103ADA000701C5210901C86F000E0701C6210901A6
:103AEA00C96F000E0701C7210901CA6F140ECB6FF7
:103AFA0099EC07F01F2B8DD00801F6A113D0050110
:103B0A009451010A0FE1946B010E0901C76FA3ECEE
:103B1A000AF009011F2B0801CA510701C45D006E92
:103B2A0000C0BDF8140E0901C76FC8EC08F00052B6
:103B3A0003E0010E0501946F6CD0BD0E0901C76F39
:103B4A00080EC86F11EC07F0BD0EC76F080EC86FDC
:103B5A00C9C8C9F90CEC08F0D50EDE6F050EDF6F87
:103B6A00560EE06F070EE16F100EE26F000EE36F64
:103B7A0058EC01F0070EDE6F060EDF6F1E0EE06FC7
:103B8A00070EE16F100EE26F000EE36F58EC01F0C2
:103B9A00020E0501A46F010EF56F839E06015C6B90
:103BAA0038D009011F51000AD8B40BD61F51010A97
:103BBA00D8B422D61F51020AD8B43ED61F51030ADE
:103BCA00D8B454D61F51040AD8B46FD61F51050A67
:103BDA00D8B485D61F51060AD8B4AAD61F51070AE7
:103BEA00D8B4CFD61F51080AD8B4F4D61F51090A3F
:103BFA00D8B411D71F510A0AD8B435D71F510B0AA6
:103C0A00D8B452D71F510C0AD8B476D71F510D0A0F
:043C1A0094E0120020
:103C1E00030E0901C06F839E0601A96BE8EC08F044
:103C2E0000500701C3191FE00601F36BE8EC08F022
:103C3E0000C0C3F700C0C7F9120EC86F060EC96FD9
:103C4E00F5EC06F0070EDE6F060EDF6FAD0EE06FC1
:103C5E00010EE16F0B0EE26F000EE36F58EC01F0F8
:103C6E00010E0501F56F0801F551000A04E102018C
:103C7E00085301E146D10201086B838E010E060145
:103C8E00A96F0901C76BA8EC09F00A5318E0010EE1
:103C9E000701C4250901C76F000E0701C5210901DF
:103CAE00C86F000E0701C6210901C96F000E07017A
:103CBE00C7210901CA6F0C0ECB6F99EC07F0C051EA
:103CCE000701C425006E000EC521016E000EC6212F
:103CDE00026E000EC721036E00C020F901C021F94B
:103CEE0002C022F903C023F900C0C7F901C0C8F908
:103CFE0002C0C9F903C0CAF9010E0901CB6F99ECD4
:103D0E0007F020C9C7F921C9C8F922C9C9F923C9C1
:103D1E00CAF9050ECB6F99EC07F00501C36B060EC1
:103D2E000701C425006E000EC521016E000EC621CE
:103D3E00026E000EC721036E0901C0510026000E4F
:103D4E0001220222032200C020F901C021F902C083
:103D5E0022F903C023F900C0C7F901C0C8F902C097
:103D6E00C9F903C0CAF90A0ECB6F99EC07F00151DD
:103D7E000701C425006E000EC521016E000EC6217E
:103D8E00026E000EC721036E0901C0510026000EFF
:103D9E0001220222032200C020F901C021F902C033
:103DAE0022F903C023F900C0C7F901C0C8F902C047
:103DBE00C9F903C0CAF9030ECB6F99EC07F008518D
:103DCE00000AD8B490D00701D951020AD8A48BD0DA
:103DDE000801FC510701C4250901C76F000E070138
:103DEE00C5210901C86F000E0701C6210901C96F5F
:103DFE00000E0701C7210901CA6FC051C727000E67
:103E0E00C823C923CA23020ECB6F99EC07F0080111
:103E1E00FC510701C4250901C76F000E0701C5211A
:103E2E000901C86F000E0701C6210901C96F000EF6
:103E3E000701C7210901CA6FC051C727000EC82349
:103E4E00C923CA23060ECB6F99EC07F006017B6BD4
:103E5E000801FC510701C4250901C76F000E0701B7
:103E6E00C5210901C86F000E0701C6210901C96FDE
:103E7E00000E0701C7210901CA6F060EC727000EE3
:103E8E00C823C923CA23C051C727000EC823C9237C
:103E9E00CA230B0ECB6F99EC07F008510701C4250E
:103EAE000901C76F000E0701C5210901C86F000E79
:103EBE000701C6210901C96F000E0701C7210901BB
:103ECE00CA6F0801FC510901C727000EC823C92378
:103EDE00CA23C051C727000EC823C923CA23040E04
:103EEE00CB6F99EC07F0030E06017C6F0501946B06
:103EFE000601186B0801226B216B4B6B080E060135
:103F0E005C6F090E0901C76FC8EC08F00050010A7A
:103F1E00D8A4DED109010651000A05E00701D951E6
:103F2E00010A01E085D0090E0901C76FA8EC09F05E
:103F3E00C0510701C425006E000EC521016E000E92
:103F4E00C621026E000EC721036E00C020F901C00B
:103F5E0021F902C022F903C023F900C0C7F901C03C
:103F6E00C8F902C0C9F903C0CAF9010E0901CB6F25
:103F7E0099EC07F020C9C7F921C9C8F922C9C9F9B6
:103F8E0023C9CAF9050ECB6F99EC07F00501C36B77
:103F9E00060E0701C425006E000EC521016E000E2F
:103FAE00C621026E000EC721036E0901C051002604
:103FBE00000E01220222032200C020F901C021F9C5
:103FCE0002C022F903C023F900C0C7F901C0C8F925
:103FDE0002C0C9F903C0CAF90A0ECB6F99EC07F0FB
:103FEE0007510701C425006E000EC521016E000E9B
:103FFE00C621026E000EC721036E0901C0510026B4
:10400E00000E01220222032200C020F901C021F974
:10401E0002C022F903C023F900C0C7F901C0C8F9D4
:10402E0002C0C9F903C0CAF9030ECB6F99EC07F0B1
:10403E0009010651000AD8B43DD10701D951020A2F
:10404E00D8A438D1090E0901C76FA8EC09F0C051E8
:10405E000701C425006E000EC521016E000EC6219B
:10406E00026E000EC721036E00C020F901C021F9B7
:10407E0002C022F903C023F900C0C7F901C0C8F974
:10408E0002C0C9F903C0CAF9020E0901CB6F99EC3F
:10409E0007F020C9C7F921C9C8F922C9C9F923C92E
:1040AE00CAF9060ECB6F99EC07F00501C36B060E2D
:1040BE000701C425006E000EC521016E000EC6213B
:1040CE00026E000EC721036E0901C0510026000EBC
:1040DE0001220222032200C020F901C021F902C0F0
:1040EE0022F903C023F900C0C7F901C0C8F902C004
:1040FE00C9F903C0CAF90B0ECB6F99EC07F0075143
:10410E000701C425006E000EC521016E000EC621EA
:10411E00026E000EC721036E0901C0510026000E6B
:10412E0001220222032200C020F901C021F902C09F
:10413E0022F903C023F900C0C7F901C0C8F902C0B3
:10414E00C9F903C0CAF9040ECB6F99EC07F0080148
:10415E00FC510701C425006E000EC521016E000E34
:10416E00C621026E000EC721036E0901C051002642
:10417E00000E01220222032200C020F901C021F903
:10418E0002C022F903C023F900C0C7F901C0C8F963
:10419E0002C0C9F903C0CAF9010ECB6F99EC07F042
:1041AE000801FC510701C425006E000EC521016EE9
:1041BE00000EC621026E000EC721036E0901C0510A
:1041CE000026000E01220222032200C020F901C0A7
:1041DE0021F902C022F903C023F900C0C7F901C0BA
:1041EE00C8F902C0C9F903C0CAF9050ECB6F99EC24
:1041FE0007F006017B6B0801FC510701C425006E18
:10420E00000EC521016E000EC621026E000EC721E2
:10421E00036E060E0026000E012202220322090161
:10422E00C0510026000E01220222032200C020F9F6
:10423E0001C021F902C022F903C023F900C0C7F959
:10424E0001C0C8F902C0C9F903C0CAF90A0ECB6F82
:10425E0099EC07F006510701C425006E000EC5212A
:10426E00016E000EC621026E000EC721036E0901FB
:10427E00C0510026000E0122022203220801FC5129
:10428E000026000E01220222032200C020F901C0E6
:10429E0021F902C022F903C023F900C0C7F901C0F9
:1042AE00C8F902C0C9F903C0CAF9030E0901CB6FE0
:1042BE0099EC07F0030E0701096F0501946B0601D7
:1042CE00186B0801226B216B4B6B070E06015C6F9E
:1042DE000801F7A116D0000EFE1902E1000EFD191D
:1042EE0010E02251000A0DE1010E226F010E4B6FFC
:1042FE00B90E0901C76F010EC86F010EC96F63ECCD
:10430E0009F008012251010A13E1F7B111D0000E94
:10431E00FE1902E1000EFD190BE04B6B226B880EAD
:10432E000901C76F010EC86F010EC96F63EC09F06A
:02433E0012006B
:10434000020E0901C06F839E0601A96BE8EC08F01C
:1043500000500701C3191FE00601F36BE8EC08F0F9
:1043600000C0C3F700C0C7F9120EC86F060EC96FB0
:10437000F5EC06F0070EDE6F060EDF6F120EE06F33
:10438000010EE16F0B0EE26F000EE36F58EC01F0CF
:10439000010E0501F56F0801F551000A09E1090E4A
:1043A0000901C76FC8EC08F00050010A01E0DDD137
:1043B00009010651000A05E00701D951010A01E08F
:1043C00085D0090E0901C76FA8EC09F0C05107019B
:1043D000C425006E000EC521016E000EC621026EBE
:1043E000000EC721036E00C020F901C021F902C0F0
:1043F00022F903C023F900C0C7F901C0C8F902C0FF
:10440000C9F903C0CAF9010E0901CB6F99EC07F095
:1044100020C9C7F921C9C8F922C9C9F923C9CAF9EC
:10442000050ECB6F99EC07F00501C36B060E070173
:10443000C425006E000EC521016E000EC621026E5D
:10444000000EC721036E0901C0510026000E012293
:104450000222032200C020F901C021F902C022F982
:1044600003C023F900C0C7F901C0C8F902C0C9F9E7
:1044700003C0CAF90A0ECB6F99EC07F00751070188
:10448000C425006E000EC521016E000EC621026E0D
:10449000000EC721036E0901C0510026000E012243
:1044A0000222032200C020F901C021F902C022F932
:1044B00003C023F900C0C7F901C0C8F902C0C9F997
:1044C00003C0CAF9030ECB6F99EC07F0090106513E
:1044D000000AD8B43DD10701D951020AD8A438D175
:1044E000090E0901C76FA8EC09F0C0510701C425E6
:1044F000006E000EC521016E000EC621026E000E78
:10450000C721036E00C020F901C021F902C022F9C1
:1045100003C023F900C0C7F901C0C8F902C0C9F936
:1045200003C0CAF9020E0901CB6F99EC07F020C94C
:10453000C7F921C9C8F922C9C9F923C9CAF9060EA0
:10454000CB6F99EC07F00501C36B060E0701C4257C
:10455000006E000EC521016E000EC621026E000E17
:10456000C721036E0901C0510026000E012202225C
:10457000032200C020F901C021F902C022F903C0C2
:1045800023F900C0C7F901C0C8F902C0C9F903C0C6
:10459000CAF90B0ECB6F99EC07F007510701C42540
:1045A000006E000EC521016E000EC621026E000EC7
:1045B000C721036E0901C0510026000E012202220C
:1045C000032200C020F901C021F902C022F903C072
:1045D00023F900C0C7F901C0C8F902C0C9F903C076
:1045E000CAF9040ECB6F99EC07F00801FC510701E2
:1045F000C425006E000EC521016E000EC621026E9C
:10460000000EC721036E0901C0510026000E0122D1
:104610000222032200C020F901C021F902C022F9C0
:1046200003C023F900C0C7F901C0C8F902C0C9F925
:1046300003C0CAF9010ECB6F99EC07F00801FC51D9
:104640000701C425006E000EC521016E000EC621B3
:10465000026E000EC721036E0901C0510026000E34
:1046600001220222032200C020F901C021F902C068
:1046700022F903C023F900C0C7F901C0C8F902C07C
:10468000C9F903C0CAF9050ECB6F99EC07F0060112
:104690007B6B0801FC510701C425006E000EC5218B
:1046A000016E000EC621026E000EC721036E060EBB
:1046B0000026000E0122022203220901C051002619
:1046C000000E01220222032200C020F901C021F9BC
:1046D00002C022F903C023F900C0C7F901C0C8F91C
:1046E00002C0C9F903C0CAF90A0ECB6F99EC07F0F2
:1046F00006510701C425006E000EC521016E000E93
:10470000C621026E000EC721036E0901C0510026AA
:10471000000E0122022203220801FC510026000E95
:1047200001220222032200C020F901C021F902C0A7
:1047300022F903C023F900C0C7F901C0C8F902C0BB
:10474000C9F903C0CAF9030E0901CB6F99EC07F050
:10475000030E0701096F0501946B0601186B080130
:10476000216B4B6B070E06015C6F0801F7A116D099
:10477000000EFE1902E1000EFD1910E02251000AA0
:104780000DE1010E226F010E4B6F1E0E0901C76F66
:10479000010EC86F010EC96F63EC09F008012251C8
:1047A000010A13E1F7B111D0000EFE1902E1000E6B
:1047B000FD190BE04B6B226B3A0E0901C76F000E1F
:0C47C000C86F010EC96F63EC09F0120015
:1047CC00838E010E0601A96F010E0901C76FC8EC9B
:1047DC0008F000520FE0010E0901C76FC86BEAEC3C
:1047EC000EF0E90E0901C76F030EC86F010EC96FF9
:1047FC0063EC09F0020E0901C76FC8EC08F0005217
:10480C0031E0020E0901C76FC86BEAEC0EF0F80E2E
:10481C000901C76F030EC86F010EC96F63EC09F075
:10482C00D50E0901DE6F050EDF6F290EE06F000E4D
:10483C00E16F100EE26F000EE36F58EC01F0070E03
:10484C00DE6F060EDF6FF60EE06F050EE16F100ED9
:10485C00E26F000EE36F58EC01F0010E0501F56FED
:10486C00010EA46F0A0E0901C76FC8EC08F00052C4
:10487C0011E0010E0501946F010E0901C76F58EC90
:10488C000AF04F0E0901C76F040EC86F010EC96FF5
:10489C0063EC09F00B0E0901C76FC8EC08F000526D
:1048AC0011E0010E0601186F020E0901C76F58ECDA
:1048BC000AF0640E0901C76F040EC86F010EC96FB0
:1048CC0063EC09F0050E0901C76FC8EC08F0005243
:1048DC0012E0010E0901C76FACC6C8F921EC0FF04C
:1048EC000501C36B310E0901C76F040EC86F010EB1
:1048FC00C96F63EC09F0060E0901C76FC8EC08F02C
:10490C00005212E0ADC6C7F9010E0901C86F21ECC7
:10491C000FF006017B6B400E0901C76F040EC86FC8
:10492C00010EC96F63EC09F0030E0901C76FC8ECE7
:10493C0008F0005209E105019451010A04E1080153
:10494C00F6A101D001D012D0070109A10FD0099115
:10495C00010E0901C76FA3EC0AF0500E0901C76FD5
:10496C00050EC86F010EC96F63EC09F0040E090146
:10497C00C76FC8EC08F0005209E106011851010A92
:10498C0004E10801F6A301D001D012D0070109A35C
:10499C000FD00993020E0901C76FA3EC0AF05D0E4C
:1049AC000901C76F050EC86F010EC96F63EC09F0E2
:1049BC0009010851000A05E00701D951010A01E07B
:1049CC0002D007010993030E0801215DD8A0CED0B7
:1049DC00F7A142D0010E0901C76FA3EC0AF0020E39
:1049EC000901C76FA3EC0AF00501946B0601186B63
:1049FC00060E5C6F010E0201086F2D0E0901C76FC8
:104A0C00050EC86F010EC96F63EC09F0090E0901A0
:104A1C00C76FA8EC09F0D50EDE6F050EDF6F370EF1
:104A2C00E06F060EE16F100EE26F000EE36F58ECB4
:104A3C0001F0070EDE6F060EDF6FFF0EE06F070E44
:104A4C00E16F100EE26F000EE36F58EC01F0010EF7
:104A5C000501F56F020EA46F0801F551000A40E044
:104A6C00010E0901C76FA3EC0AF0020E0901C76F12
:104A7C00A3EC0AF0060E06015C6F0501946B0601AF
:104A8C00186B3E0E0901C76F050EC86F010EC96F7A
:104A9C0063EC09F0090E0901C76FA8EC09F0D50EFB
:104AAC00DE6F050EDF6F370EE06F060EE16F100E36
:104ABC00E26F000EE36F58EC01F0070EDE6F060E8E
:104ACC00DF6FA10EE06F070EE16F100EE26F000EAC
:104ADC00E36F58EC01F0010E0501F56F020EA46FA7
:104AEC000801F851010A42E1090111533FE0010E9E
:104AFC00C76FA3EC0AF0020E0901C76FA3EC0AF012
:104B0C00060E06015C6F0501946B0601186B6A0EAC
:104B1C000901C76F050EC86F010EC96F63EC09F070
:104B2C00090E0901C76FA8EC09F0D50EDE6F050E52
:104B3C00DF6F370EE06F060EE16F100EE26F000EA6
:104B4C00E36F58EC01F0070EDE6F060EDF6FC80E38
:104B5C00E06F070EE16F100EE26F000EE36F58EC82
:104B6C0001F0010E0501F56F020EA46F070109514A
:104B7C00000AD8A4A6D009010A53D8B488D0010ED3
:104B8C00C76F010EC86FEAEC0EF0010E0701C425C9
:104B9C000901C76F000E0701C5210901C86F000E7E
:104BAC000701C6210901C96F000E0701C7210901C0
:104BBC00CA6F0E0ECB6F99EC07F0010EC76FACC627
:104BCC00C8F921EC0FF00501946BC36BADC6C7F9A6
:104BDC00010E0901C86F21EC0FF00601186B7B6BFD
:104BEC00010E0701C4250901C76F000E0701C5217D
:104BFC000901C86F000E0701C6210901C96F000E1B
:104C0C000701C7210901CA6F030ECB6F99EC07F09E
:104C1C00010E0701C4250901C76F000E0701C5214C
:104C2C000901C86F000E0701C6210901C96F000EEA
:104C3C000701C7210901CA6F010EC727000EC8233F
:104C4C00C923CA23040ECB6F99EC07F0010E0701A0
:104C5C00C4250901C76F000E0701C5210901C86FE2
:104C6C00000E0701C6210901C96F000E0701C721FB
:104C7C000901CA6F010EC727000EC823C923CA2316
:104C8C000D0ECB6F99EC07F0070109851AD00701BF
:104C9C00010EC4250901C76F000E0701C5210901CA
:104CAC00C86F000E0701C6210901C96F000E07016C
:104CBC00C7210901CA6F0D0ECB6F99EC07F00701E4
:104CCC0009850E0E0901C76FC8EC08F0005207E009
:104CDC00020E0901C76F010EC86FEAEC0EF00D0E43
:104CEC000901C76FC8EC08F000522DE0010E060157
:104CFC005C6F0801226B0701C36B090E0901C76FBA
:104D0C00A8EC09F0D50EDE6F050EDF6F3B0EE06FE1
:104D1C00010EE16F100EE26F000EE36F58EC01F024
:104D2C00070EDE6F060EDF6FF60EE06F050EE16FFD
:104D3C00100EE26F000EE36F58EC01F0010E05014E
:104D4C00F56F010EA46F06015C51050A04E05C517D
:104D5C00060A01E045D00901C76BA8EC09F0000E6A
:104D6C000801FE1902E1000EFD193AE0FD510701A0
:104D7C00C4250901C76F0801FE510701C5210901AE
:104D8C00C86F000E0701C6210901C96F000E07018B
:104D9C00C7210901CA6F090ECB6F99EC07F0080106
:104DAC004B6B0701C36B7F0E0901C76F050EC86FF4
:104DBC00010EC96F63EC09F0070E0901DE6F060ED8
:104DCC00DF6F830EE06F080EE16F100EE26F000EC6
:104DDC00E36F58EC01F0010E0501F56F020EA46FA4
:024DEC001200B3
:104DEE00838E010E0601A96F010E0901C76FC8EC73
:104DFE0008F000520FE0010E0901C76FC86BEAEC14
:104E0E000EF0500E0901C76F000EC86F010EC96F6C
:104E1E0063EC09F0020E0901C76FC8EC08F00052EE
:104E2E0031E0020E0901C76FC86BEAEC0EF01A0EE4
:104E3E000901C76F000EC86F010EC96F63EC09F050
:104E4E00D50E0901DE6F050EDF6F290EE06F000E25
:104E5E00E16F100EE26F000EE36F58EC01F0070EDB
:104E6E00DE6F060EDF6FF60EE06F050EE16F100EB1
:104E7E00E26F000EE36F58EC01F0010E0501F56FC5
:104E8E00010EA46F0A0E0901C76FC8EC08F000529C
:104E9E0011E0010E0501946F010E0901C76F58EC68
:104EAE000AF07F0E0901C76F000EC86F010EC96FA1
:104EBE0063EC09F00B0E0901C76FC8EC08F0005245
:104ECE0011E0010E0601186F020E0901C76F58ECB2
:104EDE000AF0940E0901C76F000EC86F010EC96F5C
:104EEE0063EC09F0050E0901C76FC8EC08F000521B
:104EFE0013E0010E0901C76FACC6C8F921EC0FF023
:104F0E000501946BC36B5F0E0901C76F000EC86F6E
:104F1E00010EC96F63EC09F0070E0901C76FC8ECEB
:104F2E0008F0005213E00901C76BACC6C8F921ECBA
:104F3E000FF00501946B010EC36F6E0E0901C76F62
:104F4E00000EC86F010EC96F63EC09F0060E090161
:104F5E00C76FC8EC08F0005212E0ADC6C7F9010EDB
:104F6E000901C86F21EC0FF006017B6BE80E0901F9
:104F7E00C76F010EC86F010EC96F63EC09F0080E02
:104F8E000901C76FC8EC08F0005212E0ADC6C7F9B0
:104F9E000901C86B21EC0FF0010E06017B6FF70EB5
:104FAE000901C76F010EC86F010EC96F63EC09F0DE
:104FBE00030E0901C76FC8EC08F0005210E007019C
:104FCE000991010E0901C76FA3EC0AF0CE0E09017B
:104FDE00C76F010EC86F010EC96F63EC09F0040EA6
:104FEE000901C76FC8EC08F0005210E007010993E1
:104FFE00020E0901C76FA3EC0AF0DB0E0901C76FA1
:10500E00010EC86F010EC96F63EC09F005019451D2
:10501E00010A47E10801F6A144D00501C351000A77
:10502E0040E1010E0901C76FA3EC0AF0020E09015F
:10503E00C76FA3EC0AF0060E06015C6F0501946BB8
:10504E000601186B1A0E0901C76F020EC86F010E0A
:10505E00C96F63EC09F0090E0901C76FA8EC09F0DE
:10506E00D50EDE6F050EDF6F370EE06F060EE16FA9
:10507E00100EE26F000EE36F58EC01F0070EDE6FBC
:10508E00060EDF6FEE0EE06F070EE16F100EE26F91
:10509E00000EE36F58EC01F0010E0501F56F020EE4
:1050AE00A46F06011851010A47E10801F6A344D086
:1050BE0006017B51000A40E1010E0901C76FA3EC06
:1050CE000AF0020E0901C76FA3EC0AF0060E0601E4
:1050DE005C6F0501946B0601186B2B0E0901C76FEF
:1050EE00020EC86F010EC96F63EC09F0090E0901BB
:1050FE00C76FA8EC09F0D50EDE6F050EDF6F370E09
:10510E00E06F060EE16F100EE26F000EE36F58ECCB
:10511E0001F0070EDE6F060EDF6FEE0EE06F070E6C
:10512E00E16F100EE26F000EE36F58EC01F0010E0E
:10513E000501F56F020EA46F09010851000A05E082
:10514E000701D951010A01E002D007010993030EAC
:10515E000801215DD8A0CDD0F7A141D0010E0901E3
:10516E00C76FA3EC0AF0020E0901C76FA3EC0AF099
:10517E000501946B0601186B060E5C6F010E0201A1
:10518E00086F090E0901C76F020EC86F010EC96FB5
:10519E0063EC09F00901C76BA8EC09F0D50EDE6FC0
:1051AE00050EDF6F370EE06F060EE16F100EE26F29
:1051BE00000EE36F58EC01F0070EDE6F060EDF6F88
:1051CE00FF0EE06F070EE16F100EE26F000EE36F41
:1051DE0058EC01F0010E0501F56F020EA46F0801E7
:1051EE00F851010A42E1090111533FE0010EC76F68
:1051FE00A3EC0AF0020E0901C76FA3EC0AF0060E2B
:10520E0006015C6F0501946B0601186B610E0901B6
:10521E00C76F010EC86F010EC96F63EC09F0090E5E
:10522E000901C76FA8EC09F0D50EDE6F050EDF6F12
:10523E00370EE06F060EE16F100EE26F000EE36F99
:10524E0058EC01F0070EDE6F060EDF6FC80EE06F32
:10525E00070EE16F100EE26F000EE36F58EC01F0D7
:10526E00010E0501F56F020EA46F0801F551000A3B
:10527E0040E0010E0901C76FA3EC0AF0020E09010E
:10528E00C76FA3EC0AF0060E06015C6F0501946B66
:10529E000601186B760E0901C76F010EC86F010E5D
:1052AE00C96F63EC09F0090E0901C76FA8EC09F08C
:1052BE00D50EDE6F050EDF6F370EE06F060EE16F57
:1052CE00100EE26F000EE36F58EC01F0070EDE6F6A
:1052DE00060EDF6FA10EE06F070EE16F100EE26F8C
:1052EE00000EE36F58EC01F0010E0501F56F020E92
:1052FE00A46F07010951000AD8A4A6D009010A53C8
:10530E00D8B488D0010EC76F010EC86FEAEC0EF04C
:10531E00010E0701C4250901C76F000E0701C52143
:10532E000901C86F000E0701C6210901C96F000EE1
:10533E000701C7210901CA6F0E0ECB6F99EC07F05A
:10534E00010EC76FACC6C8F921EC0FF00501946BC6
:10535E00C36BADC6C7F9010E0901C86F21EC0FF082
:10536E000601186B7B6B010E0701C4250901C76F7F
:10537E00000E0701C5210901C86F000E0701C621E5
:10538E000901C96F000E0701C7210901CA6F030E7B
:10539E00CB6F99EC07F0010E0701C4250901C76F09
:1053AE00000E0701C5210901C86F000E0701C621B5
:1053BE000901C96F000E0701C7210901CA6F010E4D
:1053CE00C727000EC823C923CA23040ECB6F99EC3E
:1053DE0007F0010E0701C4250901C76F000E070172
:1053EE00C5210901C86F000E0701C6210901C96F49
:1053FE00000E0701C7210901CA6F010EC727000E53
:10540E00C823C923CA230D0ECB6F99EC07F00701F1
:10541E0009851AD00701010EC4250901C76F000EB8
:10542E000701C5210901C86F000E0701C621090138
:10543E00C96F000E0701C7210901CA6F0D0ECB6F90
:10544E0099EC07F0070109850E0E0901C76FC8EC2C
:10545E0008F0005207E0020E0901C76F010EC86F77
:10546E00EAEC0EF00D0E0901C76FC8EC08F0005201
:10547E002DE0010E06015C6F0801226B0701C36B64
:10548E00090E0901C76FA8EC09F0D50EDE6F050EE7
:10549E00DF6F3B0EE06F010EE16F100EE26F000E3C
:1054AE00E36F58EC01F0070EDE6F060EDF6FF60E9F
:1054BE00E06F050EE16F100EE26F000EE36F58EC19
:1054CE0001F0010E0501F56F010EA46F06015C518E
:1054DE00050A04E05C51060A01E046D00901C76BDB
:1054EE00A8EC09F0000E0801FE1902E1000EFD19EC
:1054FE003BE00701C36B0801FD510701C4250901FB
:10550E00C76F0801FE510701C5210901C86F000EC2
:10551E000701C6210901C96F000E0701C721090144
:10552E00CA6F090ECB6F99EC07F008014B6B4C0E4E
:10553E000901C76F010EC86F010EC96F63EC09F048
:10554E00070E0901DE6F060EDF6F830EE06F080E89
:10555E00E16F100EE26F000EE36F58EC01F0010EDA
:0A556E000501F56F020EA46F120094
:105578000801F1A10BD007011D51000A03E1160E25
:105588001D6F01D01D07640E06015C6F0801F1A5AF
:105598000AD007011D51160A02E11D6B01D01D2B0F
:1055A800640E06015C6F0801F1A303D0660E0601C4
:1055B8005C6F0801F151050A28E1D50E0901DE6F7B
:1055C800050EDF6FB10EE06F000EE16F100EE26F97
:1055D800000EE36F58EC01F00101116B070E090191
:1055E800DE6F060EDF6FC10EE06F000EE16F100E6A
:1055F800E26F000EE36F58EC01F0020E0501A46F94
:0C560800010EF56FFA0E06015C6F120037
:10561400030E0901C06FC16BC26BC36BC46B839E65
:105624000601A96B0801F151020A05E1640E0601A5
:105634005C6F07011D6B0801F55103080701D96F61
:105644000801F551000AD8B4F2D2090E0901C76F56
:10565400A8EC09F0838E010E0601A96F09010A5313
:1056640018E0010E0701C4250901C76F000E0701E8
:10567400C5210901C86F000E0701C6210901C96FC0
:10568400000E0701C7210901CA6F0C0ECB6F99ECFC
:1056940007F0C0510701C425006E000EC521016E3C
:1056A400000EC621026E000EC721036E00C020F951
:1056B40001C021F902C022F903C023F900C0C7F9CF
:1056C40001C0C8F902C0C9F903C0CAF9010E090131
:1056D400CB6F99EC07F00801FB51000A11E020C9D7
:1056E400C7F921C9C8F922C9C9F923C9CAF9070EDA
:1056F4000901CB6F99EC07F0010E0501C36F0FD0C0
:1057040020C9C7F921C9C8F922C9C9F923C9CAF9E5
:10571400050E0901CB6F99EC07F00501C36B080175
:10572400FB510701C425006E000EC521016E000E59
:10573400C621026E000EC721036E060E0026000E5F
:105744000122022203220901C0510026000E012277
:105754000222032200C020F901C021F902C022F96B
:1057640003C023F900C0C7F901C0C8F902C0C9F9D0
:1057740003C0CAF90A0ECB6F99EC07F00801FB517C
:105784000701C425006E000EC521016E000EC6215E
:10579400026E000EC721036E0901C0510026000EDF
:1057A40001220222032200C020F901C021F902C013
:1057B40022F903C023F900C0C7F901C0C8F902C027
:1057C400C9F903C0CAF9050ECB6F99EC07F00801BB
:1057D400FA51000A30E0090101510701C425006EA5
:1057E400000EC521016E000EC621026E000EC721F7
:1057F400036E0801FA51005E000E015A025A035A60
:105804000901C0510026000E01220222032200C019
:1058140020F901C021F902C022F903C023F900C014
:10582400C7F901C0C8F902C0C9F903C0CAF9070E13
:10583400CB6F99EC07F0090101510701C425006EF3
:10584400000EC521016E000EC621026E000EC72196
:10585400036E0901C0510026000E01220222032218
:1058640000C020F901C021F902C022F903C023F9C4
:1058740000C0C7F901C0C8F902C0C9F903C0CAF918
:10588400030ECB6F99EC07F001510701C425090100
:10589400C16F000E0701C5210901C26F000E070187
:1058A400C6210901C36F000E0701C7210901C46F96
:1058B400C051C127000EC223C323C4230851000AC8
:1058C400D8B47BD10701D951020AD8A476D10801F2
:1058D400FC510701C425006E000EC521016E000EA7
:1058E400C621026E000EC721036E0901C0510026B5
:1058F400000E01220222032200C020F901C021F976
:1059040002C022F903C023F900C0C7F901C0C8F9D5
:1059140002C0C9F903C0CAF9020ECB6F99EC07F0B3
:105924000801FB51000A2CE0FC510701C425006E5C
:10593400000EC521016E000EC621026E000EC721A5
:10594400036E0901C0510026000E01220222032227
:1059540000C020F901C021F902C022F903C023F9D3
:1059640000C0C7F901C0C8F902C0C9F903C0CAF927
:10597400080ECB6F99EC07F0010E06017B6F2BD05C
:105984000801FC510701C425006E000EC521016EFB
:10599400000EC621026E000EC721036E0901C0511C
:1059A4000026000E01220222032200C020F901C0B9
:1059B40021F902C022F903C023F900C0C7F901C0CC
:1059C400C8F902C0C9F903C0CAF9060ECB6F99EC35
:1059D40007F006017B6B0801FC510701C425006E2A
:1059E400000EC521016E000EC621026E000EC721F5
:1059F400036E0801FB510026000E0122022203223D
:105A0400060E0026000E0122022203220901C051C3
:105A14000026000E01220222032200C020F901C048
:105A240021F902C022F903C023F900C0C7F901C05B
:105A3400C8F902C0C9F903C0CAF90B0ECB6F99ECBF
:105A440007F00801FC510701C425006E000EC521B2
